{
	"contracts/RscUsdtEarn.sol": {
		"RscUsdtEarn": {
			"abi": [
				{
					"inputs": [
						{
							"internalType": "address",
							"name": "_usdtTokenAddress",
							"type": "address"
						},
						{
							"internalType": "address",
							"name": "_devwalletAddress",
							"type": "address"
						}
					],
					"stateMutability": "nonpayable",
					"type": "constructor"
				},
				{
					"anonymous": false,
					"inputs": [
						{
							"indexed": true,
							"internalType": "address",
							"name": "previousDevWallet",
							"type": "address"
						},
						{
							"indexed": true,
							"internalType": "address",
							"name": "newDevWallet",
							"type": "address"
						}
					],
					"name": "DevWalletUpdated",
					"type": "event"
				},
				{
					"anonymous": false,
					"inputs": [
						{
							"indexed": true,
							"internalType": "address",
							"name": "user",
							"type": "address"
						},
						{
							"indexed": false,
							"internalType": "uint256",
							"name": "newLevel",
							"type": "uint256"
						}
					],
					"name": "LevelUpgraded",
					"type": "event"
				},
				{
					"anonymous": false,
					"inputs": [
						{
							"indexed": true,
							"internalType": "address",
							"name": "previousOwner",
							"type": "address"
						},
						{
							"indexed": true,
							"internalType": "address",
							"name": "newOwner",
							"type": "address"
						}
					],
					"name": "OwnershipTransferred",
					"type": "event"
				},
				{
					"anonymous": false,
					"inputs": [
						{
							"indexed": true,
							"internalType": "address",
							"name": "sender",
							"type": "address"
						},
						{
							"indexed": false,
							"internalType": "uint256",
							"name": "amount",
							"type": "uint256"
						}
					],
					"name": "Received",
					"type": "event"
				},
				{
					"anonymous": false,
					"inputs": [
						{
							"indexed": true,
							"internalType": "address",
							"name": "referrer",
							"type": "address"
						},
						{
							"indexed": false,
							"internalType": "uint256",
							"name": "amount",
							"type": "uint256"
						}
					],
					"name": "ReferralPaid",
					"type": "event"
				},
				{
					"anonymous": false,
					"inputs": [
						{
							"indexed": true,
							"internalType": "address",
							"name": "user",
							"type": "address"
						},
						{
							"indexed": true,
							"internalType": "address",
							"name": "referrer",
							"type": "address"
						}
					],
					"name": "Registered",
					"type": "event"
				},
				{
					"anonymous": false,
					"inputs": [
						{
							"indexed": false,
							"internalType": "uint256",
							"name": "totalDistributed",
							"type": "uint256"
						}
					],
					"name": "RewardsDistributed",
					"type": "event"
				},
				{
					"anonymous": false,
					"inputs": [
						{
							"indexed": true,
							"internalType": "address",
							"name": "recipient",
							"type": "address"
						},
						{
							"indexed": false,
							"internalType": "uint256",
							"name": "amount",
							"type": "uint256"
						}
					],
					"name": "Sent",
					"type": "event"
				},
				{
					"anonymous": false,
					"inputs": [
						{
							"indexed": true,
							"internalType": "address",
							"name": "user",
							"type": "address"
						},
						{
							"indexed": false,
							"internalType": "uint256",
							"name": "amount",
							"type": "uint256"
						}
					],
					"name": "Withdrawal",
					"type": "event"
				},
				{
					"inputs": [
						{
							"internalType": "uint256",
							"name": "_level",
							"type": "uint256"
						}
					],
					"name": "calculateLevelCost",
					"outputs": [
						{
							"internalType": "uint256",
							"name": "",
							"type": "uint256"
						}
					],
					"stateMutability": "pure",
					"type": "function"
				},
				{
					"inputs": [
						{
							"internalType": "address",
							"name": "newOwner",
							"type": "address"
						}
					],
					"name": "changeOwner",
					"outputs": [],
					"stateMutability": "nonpayable",
					"type": "function"
				},
				{
					"inputs": [],
					"name": "devWallet",
					"outputs": [
						{
							"internalType": "address",
							"name": "",
							"type": "address"
						}
					],
					"stateMutability": "view",
					"type": "function"
				},
				{
					"inputs": [],
					"name": "distributeRewards",
					"outputs": [],
					"stateMutability": "nonpayable",
					"type": "function"
				},
				{
					"inputs": [
						{
							"internalType": "address",
							"name": "_user",
							"type": "address"
						}
					],
					"name": "getReferrals",
					"outputs": [
						{
							"internalType": "address[]",
							"name": "",
							"type": "address[]"
						}
					],
					"stateMutability": "view",
					"type": "function"
				},
				{
					"inputs": [
						{
							"internalType": "uint256",
							"name": "_level",
							"type": "uint256"
						}
					],
					"name": "getUsersInLevel",
					"outputs": [
						{
							"internalType": "address[]",
							"name": "",
							"type": "address[]"
						}
					],
					"stateMutability": "view",
					"type": "function"
				},
				{
					"inputs": [
						{
							"internalType": "address",
							"name": "_referrer",
							"type": "address"
						}
					],
					"name": "joinNetwork",
					"outputs": [],
					"stateMutability": "nonpayable",
					"type": "function"
				},
				{
					"inputs": [],
					"name": "lastRewardDistribution",
					"outputs": [
						{
							"internalType": "uint256",
							"name": "",
							"type": "uint256"
						}
					],
					"stateMutability": "view",
					"type": "function"
				},
				{
					"inputs": [
						{
							"internalType": "uint256",
							"name": "",
							"type": "uint256"
						},
						{
							"internalType": "uint256",
							"name": "",
							"type": "uint256"
						}
					],
					"name": "levels",
					"outputs": [
						{
							"internalType": "address",
							"name": "",
							"type": "address"
						}
					],
					"stateMutability": "view",
					"type": "function"
				},
				{
					"inputs": [],
					"name": "owner",
					"outputs": [
						{
							"internalType": "address",
							"name": "",
							"type": "address"
						}
					],
					"stateMutability": "view",
					"type": "function"
				},
				{
					"inputs": [],
					"name": "ownerShare",
					"outputs": [
						{
							"internalType": "uint256",
							"name": "",
							"type": "uint256"
						}
					],
					"stateMutability": "view",
					"type": "function"
				},
				{
					"inputs": [],
					"name": "registrationFee",
					"outputs": [
						{
							"internalType": "uint256",
							"name": "",
							"type": "uint256"
						}
					],
					"stateMutability": "view",
					"type": "function"
				},
				{
					"inputs": [
						{
							"internalType": "address payable",
							"name": "_recipient",
							"type": "address"
						},
						{
							"internalType": "uint256",
							"name": "_amount",
							"type": "uint256"
						}
					],
					"name": "sendEther",
					"outputs": [],
					"stateMutability": "nonpayable",
					"type": "function"
				},
				{
					"inputs": [],
					"name": "totalIncomePool",
					"outputs": [
						{
							"internalType": "uint256",
							"name": "",
							"type": "uint256"
						}
					],
					"stateMutability": "view",
					"type": "function"
				},
				{
					"inputs": [
						{
							"internalType": "address",
							"name": "newDevWallet",
							"type": "address"
						}
					],
					"name": "updateDevWallet",
					"outputs": [],
					"stateMutability": "nonpayable",
					"type": "function"
				},
				{
					"inputs": [
						{
							"internalType": "uint256",
							"name": "_desiredLevel",
							"type": "uint256"
						}
					],
					"name": "upgradeLevel",
					"outputs": [],
					"stateMutability": "nonpayable",
					"type": "function"
				},
				{
					"inputs": [],
					"name": "usdtTokenAddress",
					"outputs": [
						{
							"internalType": "address",
							"name": "",
							"type": "address"
						}
					],
					"stateMutability": "view",
					"type": "function"
				},
				{
					"inputs": [
						{
							"internalType": "address",
							"name": "",
							"type": "address"
						}
					],
					"name": "users",
					"outputs": [
						{
							"internalType": "address",
							"name": "referrer",
							"type": "address"
						},
						{
							"internalType": "uint256",
							"name": "referrals",
							"type": "uint256"
						},
						{
							"internalType": "uint256",
							"name": "level",
							"type": "uint256"
						},
						{
							"internalType": "uint256",
							"name": "earned",
							"type": "uint256"
						},
						{
							"internalType": "bool",
							"name": "activatedEarnings",
							"type": "bool"
						}
					],
					"stateMutability": "view",
					"type": "function"
				},
				{
					"inputs": [
						{
							"internalType": "uint256",
							"name": "amount",
							"type": "uint256"
						}
					],
					"name": "withdrawRewards",
					"outputs": [],
					"stateMutability": "nonpayable",
					"type": "function"
				},
				{
					"stateMutability": "payable",
					"type": "receive"
				}
			],
			"devdoc": {
				"kind": "dev",
				"methods": {},
				"version": 1
			},
			"evm": {
				"assembly": "    /* \"contracts/RscUsdtEarn.sol\":121:10250  contract RscUsdtEarn {... */\n  mstore(0x40, 0x80)\n    /* \"contracts/RscUsdtEarn.sol\":309:321  3 * 10 ** 18 */\n  0x29a2241af62c0000\n    /* \"contracts/RscUsdtEarn.sol\":276:321  uint256 public registrationFee = 3 * 10 ** 18 */\n  0x03\n  sstore\n    /* \"contracts/RscUsdtEarn.sol\":384:385  4 */\n  0x04\n    /* \"contracts/RscUsdtEarn.sol\":356:385  uint256 public ownerShare = 4 */\n  dup1\n  sstore\n    /* \"contracts/RscUsdtEarn.sol\":1658:1899  constructor(address _usdtTokenAddress, address _devwalletAddress) {... */\n  callvalue\n  dup1\n  iszero\n  tag_1\n  jumpi\n  0x00\n  dup1\n  revert\ntag_1:\n  pop\n  mload(0x40)\n  sub(codesize, bytecodeSize)\n  dup1\n  bytecodeSize\n  dup4\n  codecopy\n  dup2\n  dup2\n  add\n  0x40\n  mstore\n  dup2\n  add\n  swap1\n  tag_2\n  swap2\n  swap1\n  tag_3\n  jump\t// in\ntag_2:\n    /* \"contracts/RscUsdtEarn.sol\":1743:1753  msg.sender */\n  caller\n    /* \"contracts/RscUsdtEarn.sol\":1735:1740  owner */\n  0x00\n  dup1\n    /* \"contracts/RscUsdtEarn.sol\":1735:1753  owner = msg.sender */\n  0x0100\n  exp\n  dup2\n  sload\n  dup2\n  0xffffffffffffffffffffffffffffffffffffffff\n  mul\n  not\n  and\n  swap1\n  dup4\n  0xffffffffffffffffffffffffffffffffffffffff\n  and\n  mul\n  or\n  swap1\n  sstore\n  pop\n    /* \"contracts/RscUsdtEarn.sol\":1776:1793  _devwalletAddress */\n  dup1\n    /* \"contracts/RscUsdtEarn.sol\":1764:1773  devWallet */\n  0x01\n  0x00\n    /* \"contracts/RscUsdtEarn.sol\":1764:1793  devWallet = _devwalletAddress */\n  0x0100\n  exp\n  dup2\n  sload\n  dup2\n  0xffffffffffffffffffffffffffffffffffffffff\n  mul\n  not\n  and\n  swap1\n  dup4\n  0xffffffffffffffffffffffffffffffffffffffff\n  and\n  mul\n  or\n  swap1\n  sstore\n  pop\n    /* \"contracts/RscUsdtEarn.sol\":1823:1840  _usdtTokenAddress */\n  dup2\n    /* \"contracts/RscUsdtEarn.sol\":1804:1820  usdtTokenAddress */\n  0x02\n  0x00\n    /* \"contracts/RscUsdtEarn.sol\":1804:1840  usdtTokenAddress = _usdtTokenAddress */\n  0x0100\n  exp\n  dup2\n  sload\n  dup2\n  0xffffffffffffffffffffffffffffffffffffffff\n  mul\n  not\n  and\n  swap1\n  dup4\n  0xffffffffffffffffffffffffffffffffffffffff\n  and\n  mul\n  or\n  swap1\n  sstore\n  pop\n    /* \"contracts/RscUsdtEarn.sol\":1876:1891  block.timestamp */\n  timestamp\n    /* \"contracts/RscUsdtEarn.sol\":1851:1873  lastRewardDistribution */\n  0x05\n    /* \"contracts/RscUsdtEarn.sol\":1851:1891  lastRewardDistribution = block.timestamp */\n  dup2\n  swap1\n  sstore\n  pop\n    /* \"contracts/RscUsdtEarn.sol\":1658:1899  constructor(address _usdtTokenAddress, address _devwalletAddress) {... */\n  pop\n  pop\n    /* \"contracts/RscUsdtEarn.sol\":121:10250  contract RscUsdtEarn {... */\n  jump(tag_6)\n    /* \"#utility.yul\":88:205   */\ntag_8:\n    /* \"#utility.yul\":197:198   */\n  0x00\n    /* \"#utility.yul\":194:195   */\n  dup1\n    /* \"#utility.yul\":187:199   */\n  revert\n    /* \"#utility.yul\":334:460   */\ntag_10:\n    /* \"#utility.yul\":371:378   */\n  0x00\n    /* \"#utility.yul\":411:453   */\n  0xffffffffffffffffffffffffffffffffffffffff\n    /* \"#utility.yul\":404:409   */\n  dup3\n    /* \"#utility.yul\":400:454   */\n  and\n    /* \"#utility.yul\":389:454   */\n  swap1\n  pop\n    /* \"#utility.yul\":334:460   */\n  swap2\n  swap1\n  pop\n  jump\t// out\n    /* \"#utility.yul\":466:562   */\ntag_11:\n    /* \"#utility.yul\":503:510   */\n  0x00\n    /* \"#utility.yul\":532:556   */\n  tag_20\n    /* \"#utility.yul\":550:555   */\n  dup3\n    /* \"#utility.yul\":532:556   */\n  tag_10\n  jump\t// in\ntag_20:\n    /* \"#utility.yul\":521:556   */\n  swap1\n  pop\n    /* \"#utility.yul\":466:562   */\n  swap2\n  swap1\n  pop\n  jump\t// out\n    /* \"#utility.yul\":568:690   */\ntag_12:\n    /* \"#utility.yul\":641:665   */\n  tag_22\n    /* \"#utility.yul\":659:664   */\n  dup2\n    /* \"#utility.yul\":641:665   */\n  tag_11\n  jump\t// in\ntag_22:\n    /* \"#utility.yul\":634:639   */\n  dup2\n    /* \"#utility.yul\":631:666   */\n  eq\n    /* \"#utility.yul\":621:684   */\n  tag_23\n  jumpi\n    /* \"#utility.yul\":680:681   */\n  0x00\n    /* \"#utility.yul\":677:678   */\n  dup1\n    /* \"#utility.yul\":670:682   */\n  revert\n    /* \"#utility.yul\":621:684   */\ntag_23:\n    /* \"#utility.yul\":568:690   */\n  pop\n  jump\t// out\n    /* \"#utility.yul\":696:839   */\ntag_13:\n    /* \"#utility.yul\":753:758   */\n  0x00\n    /* \"#utility.yul\":784:790   */\n  dup2\n    /* \"#utility.yul\":778:791   */\n  mload\n    /* \"#utility.yul\":769:791   */\n  swap1\n  pop\n    /* \"#utility.yul\":800:833   */\n  tag_25\n    /* \"#utility.yul\":827:832   */\n  dup2\n    /* \"#utility.yul\":800:833   */\n  tag_12\n  jump\t// in\ntag_25:\n    /* \"#utility.yul\":696:839   */\n  swap3\n  swap2\n  pop\n  pop\n  jump\t// out\n    /* \"#utility.yul\":845:1352   */\ntag_3:\n    /* \"#utility.yul\":924:930   */\n  0x00\n    /* \"#utility.yul\":932:938   */\n  dup1\n    /* \"#utility.yul\":981:983   */\n  0x40\n    /* \"#utility.yul\":969:978   */\n  dup4\n    /* \"#utility.yul\":960:967   */\n  dup6\n    /* \"#utility.yul\":956:979   */\n  sub\n    /* \"#utility.yul\":952:984   */\n  slt\n    /* \"#utility.yul\":949:1068   */\n  iszero\n  tag_27\n  jumpi\n    /* \"#utility.yul\":987:1066   */\n  tag_28\n  tag_8\n  jump\t// in\ntag_28:\n    /* \"#utility.yul\":949:1068   */\ntag_27:\n    /* \"#utility.yul\":1107:1108   */\n  0x00\n    /* \"#utility.yul\":1132:1196   */\n  tag_29\n    /* \"#utility.yul\":1188:1195   */\n  dup6\n    /* \"#utility.yul\":1179:1185   */\n  dup3\n    /* \"#utility.yul\":1168:1177   */\n  dup7\n    /* \"#utility.yul\":1164:1186   */\n  add\n    /* \"#utility.yul\":1132:1196   */\n  tag_13\n  jump\t// in\ntag_29:\n    /* \"#utility.yul\":1122:1196   */\n  swap3\n  pop\n    /* \"#utility.yul\":1078:1206   */\n  pop\n    /* \"#utility.yul\":1245:1247   */\n  0x20\n    /* \"#utility.yul\":1271:1335   */\n  tag_30\n    /* \"#utility.yul\":1327:1334   */\n  dup6\n    /* \"#utility.yul\":1318:1324   */\n  dup3\n    /* \"#utility.yul\":1307:1316   */\n  dup7\n    /* \"#utility.yul\":1303:1325   */\n  add\n    /* \"#utility.yul\":1271:1335   */\n  tag_13\n  jump\t// in\ntag_30:\n    /* \"#utility.yul\":1261:1335   */\n  swap2\n  pop\n    /* \"#utility.yul\":1216:1345   */\n  pop\n    /* \"#utility.yul\":845:1352   */\n  swap3\n  pop\n  swap3\n  swap1\n  pop\n  jump\t// out\n    /* \"contracts/RscUsdtEarn.sol\":121:10250  contract RscUsdtEarn {... */\ntag_6:\n  dataSize(sub_0)\n  dup1\n  dataOffset(sub_0)\n  0x00\n  codecopy\n  0x00\n  return\nstop\n\nsub_0: assembly {\n        /* \"contracts/RscUsdtEarn.sol\":121:10250  contract RscUsdtEarn {... */\n      mstore(0x40, 0x80)\n      jumpi(tag_1, lt(calldatasize, 0x04))\n      shr(0xe0, calldataload(0x00))\n      dup1\n      0x9d741e5d\n      gt\n      tag_22\n      jumpi\n      dup1\n      0xb0cd9cff\n      gt\n      tag_23\n      jumpi\n      dup1\n      0xb0cd9cff\n      eq\n      tag_17\n      jumpi\n      dup1\n      0xb894cb24\n      eq\n      tag_18\n      jumpi\n      dup1\n      0xc1756a2c\n      eq\n      tag_19\n      jumpi\n      dup1\n      0xe2a609b9\n      eq\n      tag_20\n      jumpi\n      dup1\n      0xe39f82eb\n      eq\n      tag_21\n      jumpi\n      jump(tag_2)\n    tag_23:\n      dup1\n      0x9d741e5d\n      eq\n      tag_12\n      jumpi\n      dup1\n      0xa6f9dae1\n      eq\n      tag_13\n      jumpi\n      dup1\n      0xa87430ba\n      eq\n      tag_14\n      jumpi\n      dup1\n      0xad884f69\n      eq\n      tag_15\n      jumpi\n      dup1\n      0xaefb3434\n      eq\n      tag_16\n      jumpi\n      jump(tag_2)\n    tag_22:\n      dup1\n      0x6f4a2cd0\n      gt\n      tag_24\n      jumpi\n      dup1\n      0x6f4a2cd0\n      eq\n      tag_7\n      jumpi\n      dup1\n      0x8da5cb5b\n      eq\n      tag_8\n      jumpi\n      dup1\n      0x8ea5220f\n      eq\n      tag_9\n      jumpi\n      dup1\n      0x8f1c3151\n      eq\n      tag_10\n      jumpi\n      dup1\n      0x9342c8f4\n      eq\n      tag_11\n      jumpi\n      jump(tag_2)\n    tag_24:\n      dup1\n      0x14c44e09\n      eq\n      tag_3\n      jumpi\n      dup1\n      0x1517f663\n      eq\n      tag_4\n      jumpi\n      dup1\n      0x1816467f\n      eq\n      tag_5\n      jumpi\n      dup1\n      0x41a0894d\n      eq\n      tag_6\n      jumpi\n      jump(tag_2)\n    tag_1:\n      jumpi(tag_2, calldatasize)\n        /* \"contracts/RscUsdtEarn.sol\":1959:1969  msg.sender */\n      caller\n        /* \"contracts/RscUsdtEarn.sol\":1950:1981  Received(msg.sender, msg.value) */\n      0xffffffffffffffffffffffffffffffffffffffff\n      and\n      0x88a5966d370b9919b20f3e2c13ff65706f196a4e32cc2c12bf57088f88525874\n        /* \"contracts/RscUsdtEarn.sol\":1971:1980  msg.value */\n      callvalue\n        /* \"contracts/RscUsdtEarn.sol\":1950:1981  Received(msg.sender, msg.value) */\n      mload(0x40)\n      tag_27\n      swap2\n      swap1\n      tag_28\n      jump\t// in\n    tag_27:\n      mload(0x40)\n      dup1\n      swap2\n      sub\n      swap1\n      log2\n        /* \"contracts/RscUsdtEarn.sol\":121:10250  contract RscUsdtEarn {... */\n      stop\n    tag_2:\n      0x00\n      dup1\n      revert\n        /* \"contracts/RscUsdtEarn.sol\":276:321  uint256 public registrationFee = 3 * 10 ** 18 */\n    tag_3:\n      callvalue\n      dup1\n      iszero\n      tag_29\n      jumpi\n      0x00\n      dup1\n      revert\n    tag_29:\n      pop\n      tag_30\n      tag_31\n      jump\t// in\n    tag_30:\n      mload(0x40)\n      tag_32\n      swap2\n      swap1\n      tag_28\n      jump\t// in\n    tag_32:\n      mload(0x40)\n      dup1\n      swap2\n      sub\n      swap1\n      return\n        /* \"contracts/RscUsdtEarn.sol\":5401:5735  function calculateLevelCost(uint256 _level) public pure returns (uint256) {... */\n    tag_4:\n      callvalue\n      dup1\n      iszero\n      tag_33\n      jumpi\n      0x00\n      dup1\n      revert\n    tag_33:\n      pop\n      tag_34\n      0x04\n      dup1\n      calldatasize\n      sub\n      dup2\n      add\n      swap1\n      tag_35\n      swap2\n      swap1\n      tag_36\n      jump\t// in\n    tag_35:\n      tag_37\n      jump\t// in\n    tag_34:\n      mload(0x40)\n      tag_38\n      swap2\n      swap1\n      tag_28\n      jump\t// in\n    tag_38:\n      mload(0x40)\n      dup1\n      swap2\n      sub\n      swap1\n      return\n        /* \"contracts/RscUsdtEarn.sol\":9991:10241  function updateDevWallet(address newDevWallet) external onlyOwner {... */\n    tag_5:\n      callvalue\n      dup1\n      iszero\n      tag_39\n      jumpi\n      0x00\n      dup1\n      revert\n    tag_39:\n      pop\n      tag_40\n      0x04\n      dup1\n      calldatasize\n      sub\n      dup2\n      add\n      swap1\n      tag_41\n      swap2\n      swap1\n      tag_42\n      jump\t// in\n    tag_41:\n      tag_43\n      jump\t// in\n    tag_40:\n      stop\n        /* \"contracts/RscUsdtEarn.sol\":3665:3795  function getReferrals(address _user) external view returns (address[] memory) {... */\n    tag_6:\n      callvalue\n      dup1\n      iszero\n      tag_44\n      jumpi\n      0x00\n      dup1\n      revert\n    tag_44:\n      pop\n      tag_45\n      0x04\n      dup1\n      calldatasize\n      sub\n      dup2\n      add\n      swap1\n      tag_46\n      swap2\n      swap1\n      tag_42\n      jump\t// in\n    tag_46:\n      tag_47\n      jump\t// in\n    tag_45:\n      mload(0x40)\n      tag_48\n      swap2\n      swap1\n      tag_49\n      jump\t// in\n    tag_48:\n      mload(0x40)\n      dup1\n      swap2\n      sub\n      swap1\n      return\n        /* \"contracts/RscUsdtEarn.sol\":6026:7335  function distributeRewards() external onlyOwner {... */\n    tag_7:\n      callvalue\n      dup1\n      iszero\n      tag_50\n      jumpi\n      0x00\n      dup1\n      revert\n    tag_50:\n      pop\n      tag_51\n      tag_52\n      jump\t// in\n    tag_51:\n      stop\n        /* \"contracts/RscUsdtEarn.sol\":149:169  address public owner */\n    tag_8:\n      callvalue\n      dup1\n      iszero\n      tag_53\n      jumpi\n      0x00\n      dup1\n      revert\n    tag_53:\n      pop\n      tag_54\n      tag_55\n      jump\t// in\n    tag_54:\n      mload(0x40)\n      tag_56\n      swap2\n      swap1\n      tag_57\n      jump\t// in\n    tag_56:\n      mload(0x40)\n      dup1\n      swap2\n      sub\n      swap1\n      return\n        /* \"contracts/RscUsdtEarn.sol\":178:202  address public devWallet */\n    tag_9:\n      callvalue\n      dup1\n      iszero\n      tag_58\n      jumpi\n      0x00\n      dup1\n      revert\n    tag_58:\n      pop\n      tag_59\n      tag_60\n      jump\t// in\n    tag_59:\n      mload(0x40)\n      tag_61\n      swap2\n      swap1\n      tag_57\n      jump\t// in\n    tag_61:\n      mload(0x40)\n      dup1\n      swap2\n      sub\n      swap1\n      return\n        /* \"contracts/RscUsdtEarn.sol\":356:385  uint256 public ownerShare = 4 */\n    tag_10:\n      callvalue\n      dup1\n      iszero\n      tag_62\n      jumpi\n      0x00\n      dup1\n      revert\n    tag_62:\n      pop\n      tag_63\n      tag_64\n      jump\t// in\n    tag_63:\n      mload(0x40)\n      tag_65\n      swap2\n      swap1\n      tag_28\n      jump\t// in\n    tag_65:\n      mload(0x40)\n      dup1\n      swap2\n      sub\n      swap1\n      return\n        /* \"contracts/RscUsdtEarn.sol\":7343:7877  function withdrawRewards(uint256 amount) external {... */\n    tag_11:\n      callvalue\n      dup1\n      iszero\n      tag_66\n      jumpi\n      0x00\n      dup1\n      revert\n    tag_66:\n      pop\n      tag_67\n      0x04\n      dup1\n      calldatasize\n      sub\n      dup2\n      add\n      swap1\n      tag_68\n      swap2\n      swap1\n      tag_36\n      jump\t// in\n    tag_68:\n      tag_69\n      jump\t// in\n    tag_67:\n      stop\n        /* \"contracts/RscUsdtEarn.sol\":209:240  address public usdtTokenAddress */\n    tag_12:\n      callvalue\n      dup1\n      iszero\n      tag_70\n      jumpi\n      0x00\n      dup1\n      revert\n    tag_70:\n      pop\n      tag_71\n      tag_72\n      jump\t// in\n    tag_71:\n      mload(0x40)\n      tag_73\n      swap2\n      swap1\n      tag_57\n      jump\t// in\n    tag_73:\n      mload(0x40)\n      dup1\n      swap2\n      sub\n      swap1\n      return\n        /* \"contracts/RscUsdtEarn.sol\":9762:9983  function changeOwner(address newOwner) external onlyOwner {... */\n    tag_13:\n      callvalue\n      dup1\n      iszero\n      tag_74\n      jumpi\n      0x00\n      dup1\n      revert\n    tag_74:\n      pop\n      tag_75\n      0x04\n      dup1\n      calldatasize\n      sub\n      dup2\n      add\n      swap1\n      tag_76\n      swap2\n      swap1\n      tag_42\n      jump\t// in\n    tag_76:\n      tag_77\n      jump\t// in\n    tag_75:\n      stop\n        /* \"contracts/RscUsdtEarn.sol\":762:799  mapping(address => User) public users */\n    tag_14:\n      callvalue\n      dup1\n      iszero\n      tag_78\n      jumpi\n      0x00\n      dup1\n      revert\n    tag_78:\n      pop\n      tag_79\n      0x04\n      dup1\n      calldatasize\n      sub\n      dup2\n      add\n      swap1\n      tag_80\n      swap2\n      swap1\n      tag_42\n      jump\t// in\n    tag_80:\n      tag_81\n      jump\t// in\n    tag_79:\n      mload(0x40)\n      tag_82\n      swap6\n      swap5\n      swap4\n      swap3\n      swap2\n      swap1\n      tag_83\n      jump\t// in\n    tag_82:\n      mload(0x40)\n      dup1\n      swap2\n      sub\n      swap1\n      return\n        /* \"contracts/RscUsdtEarn.sol\":1997:3657  function joinNetwork(address _referrer) external {... */\n    tag_15:\n      callvalue\n      dup1\n      iszero\n      tag_84\n      jumpi\n      0x00\n      dup1\n      revert\n    tag_84:\n      pop\n      tag_85\n      0x04\n      dup1\n      calldatasize\n      sub\n      dup2\n      add\n      swap1\n      tag_86\n      swap2\n      swap1\n      tag_42\n      jump\t// in\n    tag_86:\n      tag_87\n      jump\t// in\n    tag_85:\n      stop\n        /* \"contracts/RscUsdtEarn.sol\":806:849  mapping(uint256 => address[]) public levels */\n    tag_16:\n      callvalue\n      dup1\n      iszero\n      tag_88\n      jumpi\n      0x00\n      dup1\n      revert\n    tag_88:\n      pop\n      tag_89\n      0x04\n      dup1\n      calldatasize\n      sub\n      dup2\n      add\n      swap1\n      tag_90\n      swap2\n      swap1\n      tag_91\n      jump\t// in\n    tag_90:\n      tag_92\n      jump\t// in\n    tag_89:\n      mload(0x40)\n      tag_93\n      swap2\n      swap1\n      tag_57\n      jump\t// in\n    tag_93:\n      mload(0x40)\n      dup1\n      swap2\n      sub\n      swap1\n      return\n        /* \"contracts/RscUsdtEarn.sol\":419:456  uint256 public lastRewardDistribution */\n    tag_17:\n      callvalue\n      dup1\n      iszero\n      tag_94\n      jumpi\n      0x00\n      dup1\n      revert\n    tag_94:\n      pop\n      tag_95\n      tag_96\n      jump\t// in\n    tag_95:\n      mload(0x40)\n      tag_97\n      swap2\n      swap1\n      tag_28\n      jump\t// in\n    tag_97:\n      mload(0x40)\n      dup1\n      swap2\n      sub\n      swap1\n      return\n        /* \"contracts/RscUsdtEarn.sol\":9229:9414  function getUsersInLevel(uint256 _level) external view returns (address[] memory) {... */\n    tag_18:\n      callvalue\n      dup1\n      iszero\n      tag_98\n      jumpi\n      0x00\n      dup1\n      revert\n    tag_98:\n      pop\n      tag_99\n      0x04\n      dup1\n      calldatasize\n      sub\n      dup2\n      add\n      swap1\n      tag_100\n      swap2\n      swap1\n      tag_36\n      jump\t// in\n    tag_100:\n      tag_101\n      jump\t// in\n    tag_99:\n      mload(0x40)\n      tag_102\n      swap2\n      swap1\n      tag_49\n      jump\t// in\n    tag_102:\n      mload(0x40)\n      dup1\n      swap2\n      sub\n      swap1\n      return\n        /* \"contracts/RscUsdtEarn.sol\":9426:9757  function sendEther(address payable _recipient, uint256 _amount) external onlyOwner {... */\n    tag_19:\n      callvalue\n      dup1\n      iszero\n      tag_103\n      jumpi\n      0x00\n      dup1\n      revert\n    tag_103:\n      pop\n      tag_104\n      0x04\n      dup1\n      calldatasize\n      sub\n      dup2\n      add\n      swap1\n      tag_105\n      swap2\n      swap1\n      tag_106\n      jump\t// in\n    tag_105:\n      tag_107\n      jump\t// in\n    tag_104:\n      stop\n        /* \"contracts/RscUsdtEarn.sol\":887:917  uint256 public totalIncomePool */\n    tag_20:\n      callvalue\n      dup1\n      iszero\n      tag_108\n      jumpi\n      0x00\n      dup1\n      revert\n    tag_108:\n      pop\n      tag_109\n      tag_110\n      jump\t// in\n    tag_109:\n      mload(0x40)\n      tag_111\n      swap2\n      swap1\n      tag_28\n      jump\t// in\n    tag_111:\n      mload(0x40)\n      dup1\n      swap2\n      sub\n      swap1\n      return\n        /* \"contracts/RscUsdtEarn.sol\":4286:5391  function upgradeLevel(uint256 _desiredLevel) external {... */\n    tag_21:\n      callvalue\n      dup1\n      iszero\n      tag_112\n      jumpi\n      0x00\n      dup1\n      revert\n    tag_112:\n      pop\n      tag_113\n      0x04\n      dup1\n      calldatasize\n      sub\n      dup2\n      add\n      swap1\n      tag_114\n      swap2\n      swap1\n      tag_36\n      jump\t// in\n    tag_114:\n      tag_115\n      jump\t// in\n    tag_113:\n      stop\n        /* \"contracts/RscUsdtEarn.sol\":276:321  uint256 public registrationFee = 3 * 10 ** 18 */\n    tag_31:\n      sload(0x03)\n      dup2\n      jump\t// out\n        /* \"contracts/RscUsdtEarn.sol\":5401:5735  function calculateLevelCost(uint256 _level) public pure returns (uint256) {... */\n    tag_37:\n        /* \"contracts/RscUsdtEarn.sol\":5466:5473  uint256 */\n      0x00\n        /* \"contracts/RscUsdtEarn.sol\":5500:5501  2 */\n      0x02\n        /* \"contracts/RscUsdtEarn.sol\":5490:5496  _level */\n      dup3\n        /* \"contracts/RscUsdtEarn.sol\":5490:5501  _level == 2 */\n      sub\n        /* \"contracts/RscUsdtEarn.sol\":5486:5523  if (_level == 2) return 30 * 10 ** 18 */\n      tag_117\n      jumpi\n        /* \"contracts/RscUsdtEarn.sol\":5510:5523  30 * 10 ** 18 */\n      0x01a055690d9db80000\n        /* \"contracts/RscUsdtEarn.sol\":5503:5523  return 30 * 10 ** 18 */\n      swap1\n      pop\n      jump(tag_116)\n        /* \"contracts/RscUsdtEarn.sol\":5486:5523  if (_level == 2) return 30 * 10 ** 18 */\n    tag_117:\n        /* \"contracts/RscUsdtEarn.sol\":5555:5556  3 */\n      0x03\n        /* \"contracts/RscUsdtEarn.sol\":5545:5551  _level */\n      dup3\n        /* \"contracts/RscUsdtEarn.sol\":5545:5556  _level == 3 */\n      sub\n        /* \"contracts/RscUsdtEarn.sol\":5541:5579  if (_level == 3) return 300 * 10 ** 18 */\n      tag_118\n      jumpi\n        /* \"contracts/RscUsdtEarn.sol\":5565:5579  300 * 10 ** 18 */\n      0x1043561a8829300000\n        /* \"contracts/RscUsdtEarn.sol\":5558:5579  return 300 * 10 ** 18 */\n      swap1\n      pop\n      jump(tag_116)\n        /* \"contracts/RscUsdtEarn.sol\":5541:5579  if (_level == 3) return 300 * 10 ** 18 */\n    tag_118:\n        /* \"contracts/RscUsdtEarn.sol\":5612:5613  4 */\n      0x04\n        /* \"contracts/RscUsdtEarn.sol\":5602:5608  _level */\n      dup3\n        /* \"contracts/RscUsdtEarn.sol\":5602:5613  _level == 4 */\n      sub\n        /* \"contracts/RscUsdtEarn.sol\":5598:5637  if (_level == 4) return 3000 * 10 ** 18 */\n      tag_119\n      jumpi\n        /* \"contracts/RscUsdtEarn.sol\":5622:5637  3000 * 10 ** 18 */\n      0xa2a15d09519be00000\n        /* \"contracts/RscUsdtEarn.sol\":5615:5637  return 3000 * 10 ** 18 */\n      swap1\n      pop\n      jump(tag_116)\n        /* \"contracts/RscUsdtEarn.sol\":5598:5637  if (_level == 4) return 3000 * 10 ** 18 */\n    tag_119:\n        /* \"contracts/RscUsdtEarn.sol\":5671:5672  5 */\n      0x05\n        /* \"contracts/RscUsdtEarn.sol\":5661:5667  _level */\n      dup3\n        /* \"contracts/RscUsdtEarn.sol\":5661:5672  _level == 5 */\n      sub\n        /* \"contracts/RscUsdtEarn.sol\":5657:5697  if (_level == 5) return 30000 * 10 ** 18 */\n      tag_120\n      jumpi\n        /* \"contracts/RscUsdtEarn.sol\":5681:5697  30000 * 10 ** 18 */\n      0x065a4da25d3016c00000\n        /* \"contracts/RscUsdtEarn.sol\":5674:5697  return 30000 * 10 ** 18 */\n      swap1\n      pop\n      jump(tag_116)\n        /* \"contracts/RscUsdtEarn.sol\":5657:5697  if (_level == 5) return 30000 * 10 ** 18 */\n    tag_120:\n        /* \"contracts/RscUsdtEarn.sol\":5726:5727  0 */\n      0x00\n        /* \"contracts/RscUsdtEarn.sol\":5719:5727  return 0 */\n      swap1\n      pop\n        /* \"contracts/RscUsdtEarn.sol\":5401:5735  function calculateLevelCost(uint256 _level) public pure returns (uint256) {... */\n    tag_116:\n      swap2\n      swap1\n      pop\n      jump\t// out\n        /* \"contracts/RscUsdtEarn.sol\":9991:10241  function updateDevWallet(address newDevWallet) external onlyOwner {... */\n    tag_43:\n        /* \"contracts/RscUsdtEarn.sol\":1606:1611  owner */\n      0x00\n      dup1\n      sload\n      swap1\n      0x0100\n      exp\n      swap1\n      div\n      0xffffffffffffffffffffffffffffffffffffffff\n      and\n        /* \"contracts/RscUsdtEarn.sol\":1592:1611  msg.sender == owner */\n      0xffffffffffffffffffffffffffffffffffffffff\n      and\n        /* \"contracts/RscUsdtEarn.sol\":1592:1602  msg.sender */\n      caller\n        /* \"contracts/RscUsdtEarn.sol\":1592:1611  msg.sender == owner */\n      0xffffffffffffffffffffffffffffffffffffffff\n      and\n      eq\n        /* \"contracts/RscUsdtEarn.sol\":1584:1630  require(msg.sender == owner, \"Not authorized\") */\n      tag_122\n      jumpi\n      mload(0x40)\n      0x08c379a000000000000000000000000000000000000000000000000000000000\n      dup2\n      mstore\n      0x04\n      add\n      tag_123\n      swap1\n      tag_124\n      jump\t// in\n    tag_123:\n      mload(0x40)\n      dup1\n      swap2\n      sub\n      swap1\n      revert\n    tag_122:\n        /* \"contracts/RscUsdtEarn.sol\":10100:10101  0 */\n      0x00\n        /* \"contracts/RscUsdtEarn.sol\":10076:10102  newDevWallet != address(0) */\n      0xffffffffffffffffffffffffffffffffffffffff\n      and\n        /* \"contracts/RscUsdtEarn.sol\":10076:10088  newDevWallet */\n      dup2\n        /* \"contracts/RscUsdtEarn.sol\":10076:10102  newDevWallet != address(0) */\n      0xffffffffffffffffffffffffffffffffffffffff\n      and\n      sub\n        /* \"contracts/RscUsdtEarn.sol\":10068:10141  require(newDevWallet != address(0), \"New dev wallet is the zero address\") */\n      tag_126\n      jumpi\n      mload(0x40)\n      0x08c379a000000000000000000000000000000000000000000000000000000000\n      dup2\n      mstore\n      0x04\n      add\n      tag_127\n      swap1\n      tag_128\n      jump\t// in\n    tag_127:\n      mload(0x40)\n      dup1\n      swap2\n      sub\n      swap1\n      revert\n    tag_126:\n        /* \"contracts/RscUsdtEarn.sol\":10185:10197  newDevWallet */\n      dup1\n        /* \"contracts/RscUsdtEarn.sol\":10157:10198  DevWalletUpdated(devWallet, newDevWallet) */\n      0xffffffffffffffffffffffffffffffffffffffff\n      and\n        /* \"contracts/RscUsdtEarn.sol\":10174:10183  devWallet */\n      0x01\n      0x00\n      swap1\n      sload\n      swap1\n      0x0100\n      exp\n      swap1\n      div\n      0xffffffffffffffffffffffffffffffffffffffff\n      and\n        /* \"contracts/RscUsdtEarn.sol\":10157:10198  DevWalletUpdated(devWallet, newDevWallet) */\n      0xffffffffffffffffffffffffffffffffffffffff\n      and\n      0x0db17895a9d092fb3ca24d626f2150dd80c185b0706b36f1040ee239f56cb871\n      mload(0x40)\n      mload(0x40)\n      dup1\n      swap2\n      sub\n      swap1\n      log3\n        /* \"contracts/RscUsdtEarn.sol\":10221:10233  newDevWallet */\n      dup1\n        /* \"contracts/RscUsdtEarn.sol\":10209:10218  devWallet */\n      0x01\n      0x00\n        /* \"contracts/RscUsdtEarn.sol\":10209:10233  devWallet = newDevWallet */\n      0x0100\n      exp\n      dup2\n      sload\n      dup2\n      0xffffffffffffffffffffffffffffffffffffffff\n      mul\n      not\n      and\n      swap1\n      dup4\n      0xffffffffffffffffffffffffffffffffffffffff\n      and\n      mul\n      or\n      swap1\n      sstore\n      pop\n        /* \"contracts/RscUsdtEarn.sol\":9991:10241  function updateDevWallet(address newDevWallet) external onlyOwner {... */\n      pop\n      jump\t// out\n        /* \"contracts/RscUsdtEarn.sol\":3665:3795  function getReferrals(address _user) external view returns (address[] memory) {... */\n    tag_47:\n        /* \"contracts/RscUsdtEarn.sol\":3725:3741  address[] memory */\n      0x60\n        /* \"contracts/RscUsdtEarn.sol\":3761:3766  users */\n      0x06\n        /* \"contracts/RscUsdtEarn.sol\":3761:3773  users[_user] */\n      0x00\n        /* \"contracts/RscUsdtEarn.sol\":3767:3772  _user */\n      dup4\n        /* \"contracts/RscUsdtEarn.sol\":3761:3773  users[_user] */\n      0xffffffffffffffffffffffffffffffffffffffff\n      and\n      0xffffffffffffffffffffffffffffffffffffffff\n      and\n      dup2\n      mstore\n      0x20\n      add\n      swap1\n      dup2\n      mstore\n      0x20\n      add\n      0x00\n      keccak256\n        /* \"contracts/RscUsdtEarn.sol\":3761:3787  users[_user].referralsList */\n      0x05\n      add\n        /* \"contracts/RscUsdtEarn.sol\":3754:3787  return users[_user].referralsList */\n      dup1\n      sload\n      dup1\n      0x20\n      mul\n      0x20\n      add\n      mload(0x40)\n      swap1\n      dup2\n      add\n      0x40\n      mstore\n      dup1\n      swap3\n      swap2\n      swap1\n      dup2\n      dup2\n      mstore\n      0x20\n      add\n      dup3\n      dup1\n      sload\n      dup1\n      iszero\n      tag_130\n      jumpi\n      0x20\n      mul\n      dup3\n      add\n      swap2\n      swap1\n      0x00\n      mstore\n      keccak256(0x00, 0x20)\n      swap1\n    tag_131:\n      dup2\n      0x00\n      swap1\n      sload\n      swap1\n      0x0100\n      exp\n      swap1\n      div\n      0xffffffffffffffffffffffffffffffffffffffff\n      and\n      0xffffffffffffffffffffffffffffffffffffffff\n      and\n      dup2\n      mstore\n      0x20\n      add\n      swap1\n      0x01\n      add\n      swap1\n      dup1\n      dup4\n      gt\n      tag_131\n      jumpi\n    tag_130:\n      pop\n      pop\n      pop\n      pop\n      pop\n      swap1\n      pop\n        /* \"contracts/RscUsdtEarn.sol\":3665:3795  function getReferrals(address _user) external view returns (address[] memory) {... */\n      swap2\n      swap1\n      pop\n      jump\t// out\n        /* \"contracts/RscUsdtEarn.sol\":6026:7335  function distributeRewards() external onlyOwner {... */\n    tag_52:\n        /* \"contracts/RscUsdtEarn.sol\":1606:1611  owner */\n      0x00\n      dup1\n      sload\n      swap1\n      0x0100\n      exp\n      swap1\n      div\n      0xffffffffffffffffffffffffffffffffffffffff\n      and\n        /* \"contracts/RscUsdtEarn.sol\":1592:1611  msg.sender == owner */\n      0xffffffffffffffffffffffffffffffffffffffff\n      and\n        /* \"contracts/RscUsdtEarn.sol\":1592:1602  msg.sender */\n      caller\n        /* \"contracts/RscUsdtEarn.sol\":1592:1611  msg.sender == owner */\n      0xffffffffffffffffffffffffffffffffffffffff\n      and\n      eq\n        /* \"contracts/RscUsdtEarn.sol\":1584:1630  require(msg.sender == owner, \"Not authorized\") */\n      tag_133\n      jumpi\n      mload(0x40)\n      0x08c379a000000000000000000000000000000000000000000000000000000000\n      dup2\n      mstore\n      0x04\n      add\n      tag_134\n      swap1\n      tag_124\n      jump\t// in\n    tag_134:\n      mload(0x40)\n      dup1\n      swap2\n      sub\n      swap1\n      revert\n    tag_133:\n        /* \"contracts/RscUsdtEarn.sol\":6137:6143  1 days */\n      0x015180\n        /* \"contracts/RscUsdtEarn.sol\":6112:6134  lastRewardDistribution */\n      sload(0x05)\n        /* \"contracts/RscUsdtEarn.sol\":6112:6143  lastRewardDistribution + 1 days */\n      tag_136\n      swap2\n      swap1\n      tag_137\n      jump\t// in\n    tag_136:\n        /* \"contracts/RscUsdtEarn.sol\":6093:6108  block.timestamp */\n      timestamp\n        /* \"contracts/RscUsdtEarn.sol\":6093:6143  block.timestamp >= lastRewardDistribution + 1 days */\n      lt\n      iszero\n        /* \"contracts/RscUsdtEarn.sol\":6085:6194  require(block.timestamp >= lastRewardDistribution + 1 days, \"Rewards can only be distributed every 24 hours\") */\n      tag_138\n      jumpi\n      mload(0x40)\n      0x08c379a000000000000000000000000000000000000000000000000000000000\n      dup2\n      mstore\n      0x04\n      add\n      tag_139\n      swap1\n      tag_140\n      jump\t// in\n    tag_139:\n      mload(0x40)\n      dup1\n      swap2\n      sub\n      swap1\n      revert\n    tag_138:\n        /* \"contracts/RscUsdtEarn.sol\":6205:6230  uint256 totalToDistribute */\n      0x00\n        /* \"contracts/RscUsdtEarn.sol\":6233:6248  totalIncomePool */\n      sload(0x08)\n        /* \"contracts/RscUsdtEarn.sol\":6205:6248  uint256 totalToDistribute = totalIncomePool */\n      swap1\n      pop\n        /* \"contracts/RscUsdtEarn.sol\":6269:6285  uint256 ownerCut */\n      0x00\n        /* \"contracts/RscUsdtEarn.sol\":6323:6326  100 */\n      0x64\n        /* \"contracts/RscUsdtEarn.sol\":6309:6319  ownerShare */\n      sload(0x04)\n        /* \"contracts/RscUsdtEarn.sol\":6289:6306  totalToDistribute */\n      dup4\n        /* \"contracts/RscUsdtEarn.sol\":6289:6319  totalToDistribute * ownerShare */\n      tag_141\n      swap2\n      swap1\n      tag_142\n      jump\t// in\n    tag_141:\n        /* \"contracts/RscUsdtEarn.sol\":6288:6326  (totalToDistribute * ownerShare) / 100 */\n      tag_143\n      swap2\n      swap1\n      tag_144\n      jump\t// in\n    tag_143:\n        /* \"contracts/RscUsdtEarn.sol\":6269:6326  uint256 ownerCut = (totalToDistribute * ownerShare) / 100 */\n      swap1\n      pop\n        /* \"contracts/RscUsdtEarn.sol\":6356:6364  ownerCut */\n      dup1\n        /* \"contracts/RscUsdtEarn.sol\":6337:6352  totalIncomePool */\n      0x08\n      0x00\n        /* \"contracts/RscUsdtEarn.sol\":6337:6364  totalIncomePool -= ownerCut */\n      dup3\n      dup3\n      sload\n      tag_145\n      swap2\n      swap1\n      tag_146\n      jump\t// in\n    tag_145:\n      swap3\n      pop\n      pop\n      dup2\n      swap1\n      sstore\n      pop\n        /* \"contracts/RscUsdtEarn.sol\":6390:6406  usdtTokenAddress */\n      0x02\n      0x00\n      swap1\n      sload\n      swap1\n      0x0100\n      exp\n      swap1\n      div\n      0xffffffffffffffffffffffffffffffffffffffff\n      and\n        /* \"contracts/RscUsdtEarn.sol\":6383:6416  IERC20(usdtTokenAddress).transfer */\n      0xffffffffffffffffffffffffffffffffffffffff\n      and\n      0xa9059cbb\n        /* \"contracts/RscUsdtEarn.sol\":6417:6426  devWallet */\n      0x01\n      0x00\n      swap1\n      sload\n      swap1\n      0x0100\n      exp\n      swap1\n      div\n      0xffffffffffffffffffffffffffffffffffffffff\n      and\n        /* \"contracts/RscUsdtEarn.sol\":6428:6436  ownerCut */\n      dup4\n        /* \"contracts/RscUsdtEarn.sol\":6383:6437  IERC20(usdtTokenAddress).transfer(devWallet, ownerCut) */\n      mload(0x40)\n      dup4\n      0xffffffff\n      and\n      0xe0\n      shl\n      dup2\n      mstore\n      0x04\n      add\n      tag_147\n      swap3\n      swap2\n      swap1\n      tag_148\n      jump\t// in\n    tag_147:\n      0x20\n      mload(0x40)\n      dup1\n      dup4\n      sub\n      dup2\n      0x00\n      dup8\n      gas\n      call\n      iszero\n      dup1\n      iszero\n      tag_150\n      jumpi\n      returndatasize\n      0x00\n      dup1\n      returndatacopy\n      revert(0x00, returndatasize)\n    tag_150:\n      pop\n      pop\n      pop\n      pop\n      mload(0x40)\n      returndatasize\n      not(0x1f)\n      0x1f\n      dup3\n      add\n      and\n      dup3\n      add\n      dup1\n      0x40\n      mstore\n      pop\n      dup2\n      add\n      swap1\n      tag_151\n      swap2\n      swap1\n      tag_152\n      jump\t// in\n    tag_151:\n        /* \"contracts/RscUsdtEarn.sol\":6375:6462  require(IERC20(usdtTokenAddress).transfer(devWallet, ownerCut), \"Owner payment failed\") */\n      tag_153\n      jumpi\n      mload(0x40)\n      0x08c379a000000000000000000000000000000000000000000000000000000000\n      dup2\n      mstore\n      0x04\n      add\n      tag_154\n      swap1\n      tag_155\n      jump\t// in\n    tag_154:\n      mload(0x40)\n      dup1\n      swap2\n      sub\n      swap1\n      revert\n    tag_153:\n        /* \"contracts/RscUsdtEarn.sol\":6482:6503  uint256 remainingPool */\n      0x00\n        /* \"contracts/RscUsdtEarn.sol\":6526:6534  ownerCut */\n      dup2\n        /* \"contracts/RscUsdtEarn.sol\":6506:6523  totalToDistribute */\n      dup4\n        /* \"contracts/RscUsdtEarn.sol\":6506:6534  totalToDistribute - ownerCut */\n      tag_156\n      swap2\n      swap1\n      tag_146\n      jump\t// in\n    tag_156:\n        /* \"contracts/RscUsdtEarn.sol\":6482:6534  uint256 remainingPool = totalToDistribute - ownerCut */\n      swap1\n      pop\n        /* \"contracts/RscUsdtEarn.sol\":6597:6610  uint256 level */\n      0x00\n        /* \"contracts/RscUsdtEarn.sol\":6613:6614  1 */\n      0x01\n        /* \"contracts/RscUsdtEarn.sol\":6597:6614  uint256 level = 1 */\n      swap1\n      pop\n        /* \"contracts/RscUsdtEarn.sol\":6592:7211  for (uint256 level = 1; level <= 5; level++) {... */\n    tag_157:\n        /* \"contracts/RscUsdtEarn.sol\":6625:6626  5 */\n      0x05\n        /* \"contracts/RscUsdtEarn.sol\":6616:6621  level */\n      dup2\n        /* \"contracts/RscUsdtEarn.sol\":6616:6626  level <= 5 */\n      gt\n        /* \"contracts/RscUsdtEarn.sol\":6592:7211  for (uint256 level = 1; level <= 5; level++) {... */\n      tag_158\n      jumpi\n        /* \"contracts/RscUsdtEarn.sol\":6652:6665  uint256 share */\n      0x00\n        /* \"contracts/RscUsdtEarn.sol\":6668:6694  calculateLevelShare(level) */\n      tag_160\n        /* \"contracts/RscUsdtEarn.sol\":6688:6693  level */\n      dup3\n        /* \"contracts/RscUsdtEarn.sol\":6668:6687  calculateLevelShare */\n      tag_161\n        /* \"contracts/RscUsdtEarn.sol\":6668:6694  calculateLevelShare(level) */\n      jump\t// in\n    tag_160:\n        /* \"contracts/RscUsdtEarn.sol\":6652:6694  uint256 share = calculateLevelShare(level) */\n      swap1\n      pop\n        /* \"contracts/RscUsdtEarn.sol\":6709:6728  uint256 levelReward */\n      0x00\n        /* \"contracts/RscUsdtEarn.sol\":6757:6760  100 */\n      0x64\n        /* \"contracts/RscUsdtEarn.sol\":6748:6753  share */\n      dup3\n        /* \"contracts/RscUsdtEarn.sol\":6732:6745  remainingPool */\n      dup6\n        /* \"contracts/RscUsdtEarn.sol\":6732:6753  remainingPool * share */\n      tag_162\n      swap2\n      swap1\n      tag_142\n      jump\t// in\n    tag_162:\n        /* \"contracts/RscUsdtEarn.sol\":6731:6760  (remainingPool * share) / 100 */\n      tag_163\n      swap2\n      swap1\n      tag_144\n      jump\t// in\n    tag_163:\n        /* \"contracts/RscUsdtEarn.sol\":6709:6760  uint256 levelReward = (remainingPool * share) / 100 */\n      swap1\n      pop\n        /* \"contracts/RscUsdtEarn.sol\":6777:6804  address[] memory levelUsers */\n      0x00\n        /* \"contracts/RscUsdtEarn.sol\":6807:6813  levels */\n      0x07\n        /* \"contracts/RscUsdtEarn.sol\":6807:6820  levels[level] */\n      0x00\n        /* \"contracts/RscUsdtEarn.sol\":6814:6819  level */\n      dup6\n        /* \"contracts/RscUsdtEarn.sol\":6807:6820  levels[level] */\n      dup2\n      mstore\n      0x20\n      add\n      swap1\n      dup2\n      mstore\n      0x20\n      add\n      0x00\n      keccak256\n        /* \"contracts/RscUsdtEarn.sol\":6777:6820  address[] memory levelUsers = levels[level] */\n      dup1\n      sload\n      dup1\n      0x20\n      mul\n      0x20\n      add\n      mload(0x40)\n      swap1\n      dup2\n      add\n      0x40\n      mstore\n      dup1\n      swap3\n      swap2\n      swap1\n      dup2\n      dup2\n      mstore\n      0x20\n      add\n      dup3\n      dup1\n      sload\n      dup1\n      iszero\n      tag_164\n      jumpi\n      0x20\n      mul\n      dup3\n      add\n      swap2\n      swap1\n      0x00\n      mstore\n      keccak256(0x00, 0x20)\n      swap1\n    tag_165:\n      dup2\n      0x00\n      swap1\n      sload\n      swap1\n      0x0100\n      exp\n      swap1\n      div\n      0xffffffffffffffffffffffffffffffffffffffff\n      and\n      0xffffffffffffffffffffffffffffffffffffffff\n      and\n      dup2\n      mstore\n      0x20\n      add\n      swap1\n      0x01\n      add\n      swap1\n      dup1\n      dup4\n      gt\n      tag_165\n      jumpi\n    tag_164:\n      pop\n      pop\n      pop\n      pop\n      pop\n      swap1\n      pop\n        /* \"contracts/RscUsdtEarn.sol\":6859:6860  0 */\n      0x00\n        /* \"contracts/RscUsdtEarn.sol\":6839:6849  levelUsers */\n      dup2\n        /* \"contracts/RscUsdtEarn.sol\":6839:6856  levelUsers.length */\n      mload\n        /* \"contracts/RscUsdtEarn.sol\":6839:6860  levelUsers.length > 0 */\n      gt\n        /* \"contracts/RscUsdtEarn.sol\":6835:7200  if (levelUsers.length > 0) {... */\n      iszero\n      tag_166\n      jumpi\n        /* \"contracts/RscUsdtEarn.sol\":6881:6902  uint256 rewardPerUser */\n      0x00\n        /* \"contracts/RscUsdtEarn.sol\":6919:6929  levelUsers */\n      dup2\n        /* \"contracts/RscUsdtEarn.sol\":6919:6936  levelUsers.length */\n      mload\n        /* \"contracts/RscUsdtEarn.sol\":6905:6916  levelReward */\n      dup4\n        /* \"contracts/RscUsdtEarn.sol\":6905:6936  levelReward / levelUsers.length */\n      tag_167\n      swap2\n      swap1\n      tag_144\n      jump\t// in\n    tag_167:\n        /* \"contracts/RscUsdtEarn.sol\":6881:6936  uint256 rewardPerUser = levelReward / levelUsers.length */\n      swap1\n      pop\n        /* \"contracts/RscUsdtEarn.sol\":6960:6969  uint256 i */\n      0x00\n        /* \"contracts/RscUsdtEarn.sol\":6955:7185  for (uint256 i = 0; i < levelUsers.length; i++) {... */\n    tag_168:\n        /* \"contracts/RscUsdtEarn.sol\":6979:6989  levelUsers */\n      dup3\n        /* \"contracts/RscUsdtEarn.sol\":6979:6996  levelUsers.length */\n      mload\n        /* \"contracts/RscUsdtEarn.sol\":6975:6976  i */\n      dup2\n        /* \"contracts/RscUsdtEarn.sol\":6975:6996  i < levelUsers.length */\n      lt\n        /* \"contracts/RscUsdtEarn.sol\":6955:7185  for (uint256 i = 0; i < levelUsers.length; i++) {... */\n      iszero\n      tag_169\n      jumpi\n        /* \"contracts/RscUsdtEarn.sol\":7057:7070  rewardPerUser */\n      dup2\n        /* \"contracts/RscUsdtEarn.sol\":7026:7031  users */\n      0x06\n        /* \"contracts/RscUsdtEarn.sol\":7026:7046  users[levelUsers[i]] */\n      0x00\n        /* \"contracts/RscUsdtEarn.sol\":7032:7042  levelUsers */\n      dup6\n        /* \"contracts/RscUsdtEarn.sol\":7043:7044  i */\n      dup5\n        /* \"contracts/RscUsdtEarn.sol\":7032:7045  levelUsers[i] */\n      dup2\n      mload\n      dup2\n      lt\n      tag_171\n      jumpi\n      tag_172\n      tag_173\n      jump\t// in\n    tag_172:\n    tag_171:\n      0x20\n      mul\n      0x20\n      add\n      add\n      mload\n        /* \"contracts/RscUsdtEarn.sol\":7026:7046  users[levelUsers[i]] */\n      0xffffffffffffffffffffffffffffffffffffffff\n      and\n      0xffffffffffffffffffffffffffffffffffffffff\n      and\n      dup2\n      mstore\n      0x20\n      add\n      swap1\n      dup2\n      mstore\n      0x20\n      add\n      0x00\n      keccak256\n        /* \"contracts/RscUsdtEarn.sol\":7026:7053  users[levelUsers[i]].earned */\n      0x03\n      add\n      0x00\n        /* \"contracts/RscUsdtEarn.sol\":7026:7070  users[levelUsers[i]].earned += rewardPerUser */\n      dup3\n      dup3\n      sload\n      tag_174\n      swap2\n      swap1\n      tag_137\n      jump\t// in\n    tag_174:\n      swap3\n      pop\n      pop\n      dup2\n      swap1\n      sstore\n      pop\n        /* \"contracts/RscUsdtEarn.sol\":7152:7165  rewardPerUser */\n      dup2\n        /* \"contracts/RscUsdtEarn.sol\":7133:7148  totalIncomePool */\n      0x08\n      0x00\n        /* \"contracts/RscUsdtEarn.sol\":7133:7165  totalIncomePool -= rewardPerUser */\n      dup3\n      dup3\n      sload\n      tag_175\n      swap2\n      swap1\n      tag_146\n      jump\t// in\n    tag_175:\n      swap3\n      pop\n      pop\n      dup2\n      swap1\n      sstore\n      pop\n        /* \"contracts/RscUsdtEarn.sol\":6998:7001  i++ */\n      dup1\n      dup1\n      0x01\n      add\n      swap2\n      pop\n      pop\n        /* \"contracts/RscUsdtEarn.sol\":6955:7185  for (uint256 i = 0; i < levelUsers.length; i++) {... */\n      jump(tag_168)\n    tag_169:\n      pop\n        /* \"contracts/RscUsdtEarn.sol\":6862:7200  {... */\n      pop\n        /* \"contracts/RscUsdtEarn.sol\":6835:7200  if (levelUsers.length > 0) {... */\n    tag_166:\n        /* \"contracts/RscUsdtEarn.sol\":6637:7211  {... */\n      pop\n      pop\n      pop\n        /* \"contracts/RscUsdtEarn.sol\":6628:6635  level++ */\n      dup1\n      dup1\n      tag_176\n      swap1\n      tag_177\n      jump\t// in\n    tag_176:\n      swap2\n      pop\n      pop\n        /* \"contracts/RscUsdtEarn.sol\":6592:7211  for (uint256 level = 1; level <= 5; level++) {... */\n      jump(tag_157)\n    tag_158:\n      pop\n        /* \"contracts/RscUsdtEarn.sol\":7257:7272  block.timestamp */\n      timestamp\n        /* \"contracts/RscUsdtEarn.sol\":7232:7254  lastRewardDistribution */\n      0x05\n        /* \"contracts/RscUsdtEarn.sol\":7232:7272  lastRewardDistribution = block.timestamp */\n      dup2\n      swap1\n      sstore\n      pop\n        /* \"contracts/RscUsdtEarn.sol\":7290:7327  RewardsDistributed(totalToDistribute) */\n      0x6d1c76d614228b523baa4dcd9539e2c713b54ff4ab3ff2d1627e7f6cd32be442\n        /* \"contracts/RscUsdtEarn.sol\":7309:7326  totalToDistribute */\n      dup4\n        /* \"contracts/RscUsdtEarn.sol\":7290:7327  RewardsDistributed(totalToDistribute) */\n      mload(0x40)\n      tag_178\n      swap2\n      swap1\n      tag_28\n      jump\t// in\n    tag_178:\n      mload(0x40)\n      dup1\n      swap2\n      sub\n      swap1\n      log1\n        /* \"contracts/RscUsdtEarn.sol\":6074:7335  {... */\n      pop\n      pop\n      pop\n        /* \"contracts/RscUsdtEarn.sol\":6026:7335  function distributeRewards() external onlyOwner {... */\n      jump\t// out\n        /* \"contracts/RscUsdtEarn.sol\":149:169  address public owner */\n    tag_55:\n      0x00\n      dup1\n      sload\n      swap1\n      0x0100\n      exp\n      swap1\n      div\n      0xffffffffffffffffffffffffffffffffffffffff\n      and\n      dup2\n      jump\t// out\n        /* \"contracts/RscUsdtEarn.sol\":178:202  address public devWallet */\n    tag_60:\n      0x01\n      0x00\n      swap1\n      sload\n      swap1\n      0x0100\n      exp\n      swap1\n      div\n      0xffffffffffffffffffffffffffffffffffffffff\n      and\n      dup2\n      jump\t// out\n        /* \"contracts/RscUsdtEarn.sol\":356:385  uint256 public ownerShare = 4 */\n    tag_64:\n      sload(0x04)\n      dup2\n      jump\t// out\n        /* \"contracts/RscUsdtEarn.sol\":7343:7877  function withdrawRewards(uint256 amount) external {... */\n    tag_69:\n        /* \"contracts/RscUsdtEarn.sol\":7421:7422  0 */\n      0x00\n        /* \"contracts/RscUsdtEarn.sol\":7412:7418  amount */\n      dup2\n        /* \"contracts/RscUsdtEarn.sol\":7412:7422  amount > 0 */\n      gt\n        /* \"contracts/RscUsdtEarn.sol\":7404:7468  require(amount > 0, \"Withdraw amount must be greater than zero\") */\n      tag_180\n      jumpi\n      mload(0x40)\n      0x08c379a000000000000000000000000000000000000000000000000000000000\n      dup2\n      mstore\n      0x04\n      add\n      tag_181\n      swap1\n      tag_182\n      jump\t// in\n    tag_181:\n      mload(0x40)\n      dup1\n      swap2\n      sub\n      swap1\n      revert\n    tag_180:\n        /* \"contracts/RscUsdtEarn.sol\":7515:7521  amount */\n      dup1\n        /* \"contracts/RscUsdtEarn.sol\":7487:7492  users */\n      0x06\n        /* \"contracts/RscUsdtEarn.sol\":7487:7504  users[msg.sender] */\n      0x00\n        /* \"contracts/RscUsdtEarn.sol\":7493:7503  msg.sender */\n      caller\n        /* \"contracts/RscUsdtEarn.sol\":7487:7504  users[msg.sender] */\n      0xffffffffffffffffffffffffffffffffffffffff\n      and\n      0xffffffffffffffffffffffffffffffffffffffff\n      and\n      dup2\n      mstore\n      0x20\n      add\n      swap1\n      dup2\n      mstore\n      0x20\n      add\n      0x00\n      keccak256\n        /* \"contracts/RscUsdtEarn.sol\":7487:7511  users[msg.sender].earned */\n      0x03\n      add\n      sload\n        /* \"contracts/RscUsdtEarn.sol\":7487:7521  users[msg.sender].earned >= amount */\n      lt\n      iszero\n        /* \"contracts/RscUsdtEarn.sol\":7479:7553  require(users[msg.sender].earned >= amount, \"Insufficient earned rewards\") */\n      tag_183\n      jumpi\n      mload(0x40)\n      0x08c379a000000000000000000000000000000000000000000000000000000000\n      dup2\n      mstore\n      0x04\n      add\n      tag_184\n      swap1\n      tag_185\n      jump\t// in\n    tag_184:\n      mload(0x40)\n      dup1\n      swap2\n      sub\n      swap1\n      revert\n    tag_183:\n        /* \"contracts/RscUsdtEarn.sol\":7665:7671  amount */\n      dup1\n        /* \"contracts/RscUsdtEarn.sol\":7637:7642  users */\n      0x06\n        /* \"contracts/RscUsdtEarn.sol\":7637:7654  users[msg.sender] */\n      0x00\n        /* \"contracts/RscUsdtEarn.sol\":7643:7653  msg.sender */\n      caller\n        /* \"contracts/RscUsdtEarn.sol\":7637:7654  users[msg.sender] */\n      0xffffffffffffffffffffffffffffffffffffffff\n      and\n      0xffffffffffffffffffffffffffffffffffffffff\n      and\n      dup2\n      mstore\n      0x20\n      add\n      swap1\n      dup2\n      mstore\n      0x20\n      add\n      0x00\n      keccak256\n        /* \"contracts/RscUsdtEarn.sol\":7637:7661  users[msg.sender].earned */\n      0x03\n      add\n      0x00\n        /* \"contracts/RscUsdtEarn.sol\":7637:7671  users[msg.sender].earned -= amount */\n      dup3\n      dup3\n      sload\n      tag_186\n      swap2\n      swap1\n      tag_146\n      jump\t// in\n    tag_186:\n      swap3\n      pop\n      pop\n      dup2\n      swap1\n      sstore\n      pop\n        /* \"contracts/RscUsdtEarn.sol\":7753:7769  usdtTokenAddress */\n      0x02\n      0x00\n      swap1\n      sload\n      swap1\n      0x0100\n      exp\n      swap1\n      div\n      0xffffffffffffffffffffffffffffffffffffffff\n      and\n        /* \"contracts/RscUsdtEarn.sol\":7746:7779  IERC20(usdtTokenAddress).transfer */\n      0xffffffffffffffffffffffffffffffffffffffff\n      and\n      0xa9059cbb\n        /* \"contracts/RscUsdtEarn.sol\":7780:7790  msg.sender */\n      caller\n        /* \"contracts/RscUsdtEarn.sol\":7792:7798  amount */\n      dup4\n        /* \"contracts/RscUsdtEarn.sol\":7746:7799  IERC20(usdtTokenAddress).transfer(msg.sender, amount) */\n      mload(0x40)\n      dup4\n      0xffffffff\n      and\n      0xe0\n      shl\n      dup2\n      mstore\n      0x04\n      add\n      tag_187\n      swap3\n      swap2\n      swap1\n      tag_148\n      jump\t// in\n    tag_187:\n      0x20\n      mload(0x40)\n      dup1\n      dup4\n      sub\n      dup2\n      0x00\n      dup8\n      gas\n      call\n      iszero\n      dup1\n      iszero\n      tag_189\n      jumpi\n      returndatasize\n      0x00\n      dup1\n      returndatacopy\n      revert(0x00, returndatasize)\n    tag_189:\n      pop\n      pop\n      pop\n      pop\n      mload(0x40)\n      returndatasize\n      not(0x1f)\n      0x1f\n      dup3\n      add\n      and\n      dup3\n      add\n      dup1\n      0x40\n      mstore\n      pop\n      dup2\n      add\n      swap1\n      tag_190\n      swap2\n      swap1\n      tag_152\n      jump\t// in\n    tag_190:\n        /* \"contracts/RscUsdtEarn.sol\":7738:7821  require(IERC20(usdtTokenAddress).transfer(msg.sender, amount), \"Withdrawal failed\") */\n      tag_191\n      jumpi\n      mload(0x40)\n      0x08c379a000000000000000000000000000000000000000000000000000000000\n      dup2\n      mstore\n      0x04\n      add\n      tag_192\n      swap1\n      tag_193\n      jump\t// in\n    tag_192:\n      mload(0x40)\n      dup1\n      swap2\n      sub\n      swap1\n      revert\n    tag_191:\n        /* \"contracts/RscUsdtEarn.sol\":7850:7860  msg.sender */\n      caller\n        /* \"contracts/RscUsdtEarn.sol\":7839:7869  Withdrawal(msg.sender, amount) */\n      0xffffffffffffffffffffffffffffffffffffffff\n      and\n      0x7fcf532c15f0a6db0bd6d0e038bea71d30d808c7d98cb3bf7268a95bf5081b65\n        /* \"contracts/RscUsdtEarn.sol\":7862:7868  amount */\n      dup3\n        /* \"contracts/RscUsdtEarn.sol\":7839:7869  Withdrawal(msg.sender, amount) */\n      mload(0x40)\n      tag_194\n      swap2\n      swap1\n      tag_28\n      jump\t// in\n    tag_194:\n      mload(0x40)\n      dup1\n      swap2\n      sub\n      swap1\n      log2\n        /* \"contracts/RscUsdtEarn.sol\":7343:7877  function withdrawRewards(uint256 amount) external {... */\n      pop\n      jump\t// out\n        /* \"contracts/RscUsdtEarn.sol\":209:240  address public usdtTokenAddress */\n    tag_72:\n      0x02\n      0x00\n      swap1\n      sload\n      swap1\n      0x0100\n      exp\n      swap1\n      div\n      0xffffffffffffffffffffffffffffffffffffffff\n      and\n      dup2\n      jump\t// out\n        /* \"contracts/RscUsdtEarn.sol\":9762:9983  function changeOwner(address newOwner) external onlyOwner {... */\n    tag_77:\n        /* \"contracts/RscUsdtEarn.sol\":1606:1611  owner */\n      0x00\n      dup1\n      sload\n      swap1\n      0x0100\n      exp\n      swap1\n      div\n      0xffffffffffffffffffffffffffffffffffffffff\n      and\n        /* \"contracts/RscUsdtEarn.sol\":1592:1611  msg.sender == owner */\n      0xffffffffffffffffffffffffffffffffffffffff\n      and\n        /* \"contracts/RscUsdtEarn.sol\":1592:1602  msg.sender */\n      caller\n        /* \"contracts/RscUsdtEarn.sol\":1592:1611  msg.sender == owner */\n      0xffffffffffffffffffffffffffffffffffffffff\n      and\n      eq\n        /* \"contracts/RscUsdtEarn.sol\":1584:1630  require(msg.sender == owner, \"Not authorized\") */\n      tag_196\n      jumpi\n      mload(0x40)\n      0x08c379a000000000000000000000000000000000000000000000000000000000\n      dup2\n      mstore\n      0x04\n      add\n      tag_197\n      swap1\n      tag_124\n      jump\t// in\n    tag_197:\n      mload(0x40)\n      dup1\n      swap2\n      sub\n      swap1\n      revert\n    tag_196:\n        /* \"contracts/RscUsdtEarn.sol\":9859:9860  0 */\n      0x00\n        /* \"contracts/RscUsdtEarn.sol\":9839:9861  newOwner != address(0) */\n      0xffffffffffffffffffffffffffffffffffffffff\n      and\n        /* \"contracts/RscUsdtEarn.sol\":9839:9847  newOwner */\n      dup2\n        /* \"contracts/RscUsdtEarn.sol\":9839:9861  newOwner != address(0) */\n      0xffffffffffffffffffffffffffffffffffffffff\n      and\n      sub\n        /* \"contracts/RscUsdtEarn.sol\":9831:9895  require(newOwner != address(0), \"New owner is the zero address\") */\n      tag_199\n      jumpi\n      mload(0x40)\n      0x08c379a000000000000000000000000000000000000000000000000000000000\n      dup2\n      mstore\n      0x04\n      add\n      tag_200\n      swap1\n      tag_201\n      jump\t// in\n    tag_200:\n      mload(0x40)\n      dup1\n      swap2\n      sub\n      swap1\n      revert\n    tag_199:\n        /* \"contracts/RscUsdtEarn.sol\":9939:9947  newOwner */\n      dup1\n        /* \"contracts/RscUsdtEarn.sol\":9911:9948  OwnershipTransferred(owner, newOwner) */\n      0xffffffffffffffffffffffffffffffffffffffff\n      and\n        /* \"contracts/RscUsdtEarn.sol\":9932:9937  owner */\n      0x00\n      dup1\n      sload\n      swap1\n      0x0100\n      exp\n      swap1\n      div\n      0xffffffffffffffffffffffffffffffffffffffff\n      and\n        /* \"contracts/RscUsdtEarn.sol\":9911:9948  OwnershipTransferred(owner, newOwner) */\n      0xffffffffffffffffffffffffffffffffffffffff\n      and\n      0x8be0079c531659141344cd1fd0a4f28419497f9722a3daafe3b4186f6b6457e0\n      mload(0x40)\n      mload(0x40)\n      dup1\n      swap2\n      sub\n      swap1\n      log3\n        /* \"contracts/RscUsdtEarn.sol\":9967:9975  newOwner */\n      dup1\n        /* \"contracts/RscUsdtEarn.sol\":9959:9964  owner */\n      0x00\n      dup1\n        /* \"contracts/RscUsdtEarn.sol\":9959:9975  owner = newOwner */\n      0x0100\n      exp\n      dup2\n      sload\n      dup2\n      0xffffffffffffffffffffffffffffffffffffffff\n      mul\n      not\n      and\n      swap1\n      dup4\n      0xffffffffffffffffffffffffffffffffffffffff\n      and\n      mul\n      or\n      swap1\n      sstore\n      pop\n        /* \"contracts/RscUsdtEarn.sol\":9762:9983  function changeOwner(address newOwner) external onlyOwner {... */\n      pop\n      jump\t// out\n        /* \"contracts/RscUsdtEarn.sol\":762:799  mapping(address => User) public users */\n    tag_81:\n      mstore(0x20, 0x06)\n      dup1\n      0x00\n      mstore\n      keccak256(0x00, 0x40)\n      0x00\n      swap2\n      pop\n      swap1\n      pop\n      dup1\n      0x00\n      add\n      0x00\n      swap1\n      sload\n      swap1\n      0x0100\n      exp\n      swap1\n      div\n      0xffffffffffffffffffffffffffffffffffffffff\n      and\n      swap1\n      dup1\n      0x01\n      add\n      sload\n      swap1\n      dup1\n      0x02\n      add\n      sload\n      swap1\n      dup1\n      0x03\n      add\n      sload\n      swap1\n      dup1\n      0x04\n      add\n      0x00\n      swap1\n      sload\n      swap1\n      0x0100\n      exp\n      swap1\n      div\n      0xff\n      and\n      swap1\n      pop\n      dup6\n      jump\t// out\n        /* \"contracts/RscUsdtEarn.sol\":1997:3657  function joinNetwork(address _referrer) external {... */\n    tag_87:\n        /* \"contracts/RscUsdtEarn.sol\":2103:2104  0 */\n      0x00\n        /* \"contracts/RscUsdtEarn.sol\":2065:2105  users[msg.sender].referrer == address(0) */\n      0xffffffffffffffffffffffffffffffffffffffff\n      and\n        /* \"contracts/RscUsdtEarn.sol\":2065:2070  users */\n      0x06\n        /* \"contracts/RscUsdtEarn.sol\":2065:2082  users[msg.sender] */\n      0x00\n        /* \"contracts/RscUsdtEarn.sol\":2071:2081  msg.sender */\n      caller\n        /* \"contracts/RscUsdtEarn.sol\":2065:2082  users[msg.sender] */\n      0xffffffffffffffffffffffffffffffffffffffff\n      and\n      0xffffffffffffffffffffffffffffffffffffffff\n      and\n      dup2\n      mstore\n      0x20\n      add\n      swap1\n      dup2\n      mstore\n      0x20\n      add\n      0x00\n      keccak256\n        /* \"contracts/RscUsdtEarn.sol\":2065:2091  users[msg.sender].referrer */\n      0x00\n      add\n      0x00\n      swap1\n      sload\n      swap1\n      0x0100\n      exp\n      swap1\n      div\n      0xffffffffffffffffffffffffffffffffffffffff\n      and\n        /* \"contracts/RscUsdtEarn.sol\":2065:2105  users[msg.sender].referrer == address(0) */\n      0xffffffffffffffffffffffffffffffffffffffff\n      and\n      eq\n        /* \"contracts/RscUsdtEarn.sol\":2057:2128  require(users[msg.sender].referrer == address(0), \"Already registered\") */\n      tag_203\n      jumpi\n      mload(0x40)\n      0x08c379a000000000000000000000000000000000000000000000000000000000\n      dup2\n      mstore\n      0x04\n      add\n      tag_204\n      swap1\n      tag_205\n      jump\t// in\n    tag_204:\n      mload(0x40)\n      dup1\n      swap2\n      sub\n      swap1\n      revert\n    tag_203:\n        /* \"contracts/RscUsdtEarn.sol\":2154:2170  usdtTokenAddress */\n      0x02\n      0x00\n      swap1\n      sload\n      swap1\n      0x0100\n      exp\n      swap1\n      div\n      0xffffffffffffffffffffffffffffffffffffffff\n      and\n        /* \"contracts/RscUsdtEarn.sol\":2147:2184  IERC20(usdtTokenAddress).transferFrom */\n      0xffffffffffffffffffffffffffffffffffffffff\n      and\n      0x23b872dd\n        /* \"contracts/RscUsdtEarn.sol\":2185:2195  msg.sender */\n      caller\n        /* \"contracts/RscUsdtEarn.sol\":2205:2209  this */\n      address\n        /* \"contracts/RscUsdtEarn.sol\":2212:2227  registrationFee */\n      sload(0x03)\n        /* \"contracts/RscUsdtEarn.sol\":2147:2228  IERC20(usdtTokenAddress).transferFrom(msg.sender, address(this), registrationFee) */\n      mload(0x40)\n      dup5\n      0xffffffff\n      and\n      0xe0\n      shl\n      dup2\n      mstore\n      0x04\n      add\n      tag_206\n      swap4\n      swap3\n      swap2\n      swap1\n      tag_207\n      jump\t// in\n    tag_206:\n      0x20\n      mload(0x40)\n      dup1\n      dup4\n      sub\n      dup2\n      0x00\n      dup8\n      gas\n      call\n      iszero\n      dup1\n      iszero\n      tag_209\n      jumpi\n      returndatasize\n      0x00\n      dup1\n      returndatacopy\n      revert(0x00, returndatasize)\n    tag_209:\n      pop\n      pop\n      pop\n      pop\n      mload(0x40)\n      returndatasize\n      not(0x1f)\n      0x1f\n      dup3\n      add\n      and\n      dup3\n      add\n      dup1\n      0x40\n      mstore\n      pop\n      dup2\n      add\n      swap1\n      tag_210\n      swap2\n      swap1\n      tag_152\n      jump\t// in\n    tag_210:\n        /* \"contracts/RscUsdtEarn.sol\":2139:2247  require(IERC20(usdtTokenAddress).transferFrom(msg.sender, address(this), registrationFee), \"Payment failed\") */\n      tag_211\n      jumpi\n      mload(0x40)\n      0x08c379a000000000000000000000000000000000000000000000000000000000\n      dup2\n      mstore\n      0x04\n      add\n      tag_212\n      swap1\n      tag_213\n      jump\t// in\n    tag_212:\n      mload(0x40)\n      dup1\n      swap2\n      sub\n      swap1\n      revert\n    tag_211:\n        /* \"contracts/RscUsdtEarn.sol\":2318:2319  0 */\n      0x00\n        /* \"contracts/RscUsdtEarn.sol\":2297:2320  _referrer != address(0) */\n      0xffffffffffffffffffffffffffffffffffffffff\n      and\n        /* \"contracts/RscUsdtEarn.sol\":2297:2306  _referrer */\n      dup2\n        /* \"contracts/RscUsdtEarn.sol\":2297:2320  _referrer != address(0) */\n      0xffffffffffffffffffffffffffffffffffffffff\n      and\n      eq\n      iszero\n        /* \"contracts/RscUsdtEarn.sol\":2297:2347  _referrer != address(0) && _referrer != msg.sender */\n      dup1\n      iszero\n      tag_214\n      jumpi\n      pop\n        /* \"contracts/RscUsdtEarn.sol\":2337:2347  msg.sender */\n      caller\n        /* \"contracts/RscUsdtEarn.sol\":2324:2347  _referrer != msg.sender */\n      0xffffffffffffffffffffffffffffffffffffffff\n      and\n        /* \"contracts/RscUsdtEarn.sol\":2324:2333  _referrer */\n      dup2\n        /* \"contracts/RscUsdtEarn.sol\":2324:2347  _referrer != msg.sender */\n      0xffffffffffffffffffffffffffffffffffffffff\n      and\n      eq\n      iszero\n        /* \"contracts/RscUsdtEarn.sol\":2297:2347  _referrer != address(0) && _referrer != msg.sender */\n    tag_214:\n        /* \"contracts/RscUsdtEarn.sol\":2293:3201  if (_referrer != address(0) && _referrer != msg.sender) {... */\n      iszero\n      tag_215\n      jumpi\n        /* \"contracts/RscUsdtEarn.sol\":2364:2369  users */\n      0x06\n        /* \"contracts/RscUsdtEarn.sol\":2364:2380  users[_referrer] */\n      0x00\n        /* \"contracts/RscUsdtEarn.sol\":2370:2379  _referrer */\n      dup3\n        /* \"contracts/RscUsdtEarn.sol\":2364:2380  users[_referrer] */\n      0xffffffffffffffffffffffffffffffffffffffff\n      and\n      0xffffffffffffffffffffffffffffffffffffffff\n      and\n      dup2\n      mstore\n      0x20\n      add\n      swap1\n      dup2\n      mstore\n      0x20\n      add\n      0x00\n      keccak256\n        /* \"contracts/RscUsdtEarn.sol\":2364:2390  users[_referrer].referrals */\n      0x01\n      add\n      0x00\n        /* \"contracts/RscUsdtEarn.sol\":2364:2392  users[_referrer].referrals++ */\n      dup2\n      sload\n      dup1\n      swap3\n      swap2\n      swap1\n      tag_216\n      swap1\n      tag_177\n      jump\t// in\n    tag_216:\n      swap2\n      swap1\n      pop\n      sstore\n      pop\n        /* \"contracts/RscUsdtEarn.sol\":2420:2425  users */\n      0x06\n        /* \"contracts/RscUsdtEarn.sol\":2420:2436  users[_referrer] */\n      0x00\n        /* \"contracts/RscUsdtEarn.sol\":2426:2435  _referrer */\n      dup3\n        /* \"contracts/RscUsdtEarn.sol\":2420:2436  users[_referrer] */\n      0xffffffffffffffffffffffffffffffffffffffff\n      and\n      0xffffffffffffffffffffffffffffffffffffffff\n      and\n      dup2\n      mstore\n      0x20\n      add\n      swap1\n      dup2\n      mstore\n      0x20\n      add\n      0x00\n      keccak256\n        /* \"contracts/RscUsdtEarn.sol\":2420:2450  users[_referrer].referralsList */\n      0x05\n      add\n        /* \"contracts/RscUsdtEarn.sol\":2456:2466  msg.sender */\n      caller\n        /* \"contracts/RscUsdtEarn.sol\":2420:2467  users[_referrer].referralsList.push(msg.sender) */\n      swap1\n      dup1\n      0x01\n      dup2\n      sload\n      add\n      dup1\n      dup3\n      sstore\n      dup1\n      swap2\n      pop\n      pop\n      0x01\n      swap1\n      sub\n      swap1\n      0x00\n      mstore\n      keccak256(0x00, 0x20)\n      add\n      0x00\n      swap1\n      swap2\n      swap1\n      swap2\n      swap1\n      swap2\n      0x0100\n      exp\n      dup2\n      sload\n      dup2\n      0xffffffffffffffffffffffffffffffffffffffff\n      mul\n      not\n      and\n      swap1\n      dup4\n      0xffffffffffffffffffffffffffffffffffffffff\n      and\n      mul\n      or\n      swap1\n      sstore\n      pop\n        /* \"contracts/RscUsdtEarn.sol\":2587:2611  uint256 newReferrerLevel */\n      0x00\n        /* \"contracts/RscUsdtEarn.sol\":2614:2656  determineLevel(users[_referrer].referrals) */\n      tag_218\n        /* \"contracts/RscUsdtEarn.sol\":2629:2634  users */\n      0x06\n        /* \"contracts/RscUsdtEarn.sol\":2629:2645  users[_referrer] */\n      0x00\n        /* \"contracts/RscUsdtEarn.sol\":2635:2644  _referrer */\n      dup5\n        /* \"contracts/RscUsdtEarn.sol\":2629:2645  users[_referrer] */\n      0xffffffffffffffffffffffffffffffffffffffff\n      and\n      0xffffffffffffffffffffffffffffffffffffffff\n      and\n      dup2\n      mstore\n      0x20\n      add\n      swap1\n      dup2\n      mstore\n      0x20\n      add\n      0x00\n      keccak256\n        /* \"contracts/RscUsdtEarn.sol\":2629:2655  users[_referrer].referrals */\n      0x01\n      add\n      sload\n        /* \"contracts/RscUsdtEarn.sol\":2614:2628  determineLevel */\n      tag_219\n        /* \"contracts/RscUsdtEarn.sol\":2614:2656  determineLevel(users[_referrer].referrals) */\n      jump\t// in\n    tag_218:\n        /* \"contracts/RscUsdtEarn.sol\":2587:2656  uint256 newReferrerLevel = determineLevel(users[_referrer].referrals) */\n      swap1\n      pop\n        /* \"contracts/RscUsdtEarn.sol\":2785:2801  newReferrerLevel */\n      dup1\n        /* \"contracts/RscUsdtEarn.sol\":2759:2764  users */\n      0x06\n        /* \"contracts/RscUsdtEarn.sol\":2759:2775  users[_referrer] */\n      0x00\n        /* \"contracts/RscUsdtEarn.sol\":2765:2774  _referrer */\n      dup5\n        /* \"contracts/RscUsdtEarn.sol\":2759:2775  users[_referrer] */\n      0xffffffffffffffffffffffffffffffffffffffff\n      and\n      0xffffffffffffffffffffffffffffffffffffffff\n      and\n      dup2\n      mstore\n      0x20\n      add\n      swap1\n      dup2\n      mstore\n      0x20\n      add\n      0x00\n      keccak256\n        /* \"contracts/RscUsdtEarn.sol\":2759:2781  users[_referrer].level */\n      0x02\n      add\n      sload\n        /* \"contracts/RscUsdtEarn.sol\":2759:2801  users[_referrer].level != newReferrerLevel */\n      eq\n        /* \"contracts/RscUsdtEarn.sol\":2755:3145  if (users[_referrer].level != newReferrerLevel) {... */\n      tag_220\n      jumpi\n        /* \"contracts/RscUsdtEarn.sol\":2881:2936  _removeUserFromLevel(_referrer, users[_referrer].level) */\n      tag_221\n        /* \"contracts/RscUsdtEarn.sol\":2902:2911  _referrer */\n      dup3\n        /* \"contracts/RscUsdtEarn.sol\":2913:2918  users */\n      0x06\n        /* \"contracts/RscUsdtEarn.sol\":2913:2929  users[_referrer] */\n      0x00\n        /* \"contracts/RscUsdtEarn.sol\":2919:2928  _referrer */\n      dup6\n        /* \"contracts/RscUsdtEarn.sol\":2913:2929  users[_referrer] */\n      0xffffffffffffffffffffffffffffffffffffffff\n      and\n      0xffffffffffffffffffffffffffffffffffffffff\n      and\n      dup2\n      mstore\n      0x20\n      add\n      swap1\n      dup2\n      mstore\n      0x20\n      add\n      0x00\n      keccak256\n        /* \"contracts/RscUsdtEarn.sol\":2913:2935  users[_referrer].level */\n      0x02\n      add\n      sload\n        /* \"contracts/RscUsdtEarn.sol\":2881:2901  _removeUserFromLevel */\n      tag_222\n        /* \"contracts/RscUsdtEarn.sol\":2881:2936  _removeUserFromLevel(_referrer, users[_referrer].level) */\n      jump\t// in\n    tag_221:\n        /* \"contracts/RscUsdtEarn.sol\":3030:3046  newReferrerLevel */\n      dup1\n        /* \"contracts/RscUsdtEarn.sol\":3005:3010  users */\n      0x06\n        /* \"contracts/RscUsdtEarn.sol\":3005:3021  users[_referrer] */\n      0x00\n        /* \"contracts/RscUsdtEarn.sol\":3011:3020  _referrer */\n      dup5\n        /* \"contracts/RscUsdtEarn.sol\":3005:3021  users[_referrer] */\n      0xffffffffffffffffffffffffffffffffffffffff\n      and\n      0xffffffffffffffffffffffffffffffffffffffff\n      and\n      dup2\n      mstore\n      0x20\n      add\n      swap1\n      dup2\n      mstore\n      0x20\n      add\n      0x00\n      keccak256\n        /* \"contracts/RscUsdtEarn.sol\":3005:3027  users[_referrer].level */\n      0x02\n      add\n        /* \"contracts/RscUsdtEarn.sol\":3005:3046  users[_referrer].level = newReferrerLevel */\n      dup2\n      swap1\n      sstore\n      pop\n        /* \"contracts/RscUsdtEarn.sol\":3065:3071  levels */\n      0x07\n        /* \"contracts/RscUsdtEarn.sol\":3065:3089  levels[newReferrerLevel] */\n      0x00\n        /* \"contracts/RscUsdtEarn.sol\":3072:3088  newReferrerLevel */\n      dup3\n        /* \"contracts/RscUsdtEarn.sol\":3065:3089  levels[newReferrerLevel] */\n      dup2\n      mstore\n      0x20\n      add\n      swap1\n      dup2\n      mstore\n      0x20\n      add\n      0x00\n      keccak256\n        /* \"contracts/RscUsdtEarn.sol\":3095:3104  _referrer */\n      dup3\n        /* \"contracts/RscUsdtEarn.sol\":3065:3105  levels[newReferrerLevel].push(_referrer) */\n      swap1\n      dup1\n      0x01\n      dup2\n      sload\n      add\n      dup1\n      dup3\n      sstore\n      dup1\n      swap2\n      pop\n      pop\n      0x01\n      swap1\n      sub\n      swap1\n      0x00\n      mstore\n      keccak256(0x00, 0x20)\n      add\n      0x00\n      swap1\n      swap2\n      swap1\n      swap2\n      swap1\n      swap2\n      0x0100\n      exp\n      dup2\n      sload\n      dup2\n      0xffffffffffffffffffffffffffffffffffffffff\n      mul\n      not\n      and\n      swap1\n      dup4\n      0xffffffffffffffffffffffffffffffffffffffff\n      and\n      mul\n      or\n      swap1\n      sstore\n      pop\n        /* \"contracts/RscUsdtEarn.sol\":2755:3145  if (users[_referrer].level != newReferrerLevel) {... */\n    tag_220:\n        /* \"contracts/RscUsdtEarn.sol\":3161:3189  payReferralReward(_referrer) */\n      tag_224\n        /* \"contracts/RscUsdtEarn.sol\":3179:3188  _referrer */\n      dup3\n        /* \"contracts/RscUsdtEarn.sol\":3161:3178  payReferralReward */\n      tag_225\n        /* \"contracts/RscUsdtEarn.sol\":3161:3189  payReferralReward(_referrer) */\n      jump\t// in\n    tag_224:\n        /* \"contracts/RscUsdtEarn.sol\":2349:3201  {... */\n      pop\n        /* \"contracts/RscUsdtEarn.sol\":2293:3201  if (_referrer != address(0) && _referrer != msg.sender) {... */\n    tag_215:\n        /* \"contracts/RscUsdtEarn.sol\":3272:3281  _referrer */\n      dup1\n        /* \"contracts/RscUsdtEarn.sol\":3243:3248  users */\n      0x06\n        /* \"contracts/RscUsdtEarn.sol\":3243:3260  users[msg.sender] */\n      0x00\n        /* \"contracts/RscUsdtEarn.sol\":3249:3259  msg.sender */\n      caller\n        /* \"contracts/RscUsdtEarn.sol\":3243:3260  users[msg.sender] */\n      0xffffffffffffffffffffffffffffffffffffffff\n      and\n      0xffffffffffffffffffffffffffffffffffffffff\n      and\n      dup2\n      mstore\n      0x20\n      add\n      swap1\n      dup2\n      mstore\n      0x20\n      add\n      0x00\n      keccak256\n        /* \"contracts/RscUsdtEarn.sol\":3243:3269  users[msg.sender].referrer */\n      0x00\n      add\n      0x00\n        /* \"contracts/RscUsdtEarn.sol\":3243:3281  users[msg.sender].referrer = _referrer */\n      0x0100\n      exp\n      dup2\n      sload\n      dup2\n      0xffffffffffffffffffffffffffffffffffffffff\n      mul\n      not\n      and\n      swap1\n      dup4\n      0xffffffffffffffffffffffffffffffffffffffff\n      and\n      mul\n      or\n      swap1\n      sstore\n      pop\n        /* \"contracts/RscUsdtEarn.sol\":3292:3308  uint256 newLevel */\n      0x00\n        /* \"contracts/RscUsdtEarn.sol\":3311:3354  determineLevel(users[msg.sender].referrals) */\n      tag_226\n        /* \"contracts/RscUsdtEarn.sol\":3326:3331  users */\n      0x06\n        /* \"contracts/RscUsdtEarn.sol\":3326:3343  users[msg.sender] */\n      0x00\n        /* \"contracts/RscUsdtEarn.sol\":3332:3342  msg.sender */\n      caller\n        /* \"contracts/RscUsdtEarn.sol\":3326:3343  users[msg.sender] */\n      0xffffffffffffffffffffffffffffffffffffffff\n      and\n      0xffffffffffffffffffffffffffffffffffffffff\n      and\n      dup2\n      mstore\n      0x20\n      add\n      swap1\n      dup2\n      mstore\n      0x20\n      add\n      0x00\n      keccak256\n        /* \"contracts/RscUsdtEarn.sol\":3326:3353  users[msg.sender].referrals */\n      0x01\n      add\n      sload\n        /* \"contracts/RscUsdtEarn.sol\":3311:3325  determineLevel */\n      tag_219\n        /* \"contracts/RscUsdtEarn.sol\":3311:3354  determineLevel(users[msg.sender].referrals) */\n      jump\t// in\n    tag_226:\n        /* \"contracts/RscUsdtEarn.sol\":3292:3354  uint256 newLevel = determineLevel(users[msg.sender].referrals) */\n      swap1\n      pop\n        /* \"contracts/RscUsdtEarn.sol\":3404:3408  true */\n      0x01\n        /* \"contracts/RscUsdtEarn.sol\":3366:3371  users */\n      0x06\n        /* \"contracts/RscUsdtEarn.sol\":3366:3383  users[msg.sender] */\n      0x00\n        /* \"contracts/RscUsdtEarn.sol\":3372:3382  msg.sender */\n      caller\n        /* \"contracts/RscUsdtEarn.sol\":3366:3383  users[msg.sender] */\n      0xffffffffffffffffffffffffffffffffffffffff\n      and\n      0xffffffffffffffffffffffffffffffffffffffff\n      and\n      dup2\n      mstore\n      0x20\n      add\n      swap1\n      dup2\n      mstore\n      0x20\n      add\n      0x00\n      keccak256\n        /* \"contracts/RscUsdtEarn.sol\":3366:3401  users[msg.sender].activatedEarnings */\n      0x04\n      add\n      0x00\n        /* \"contracts/RscUsdtEarn.sol\":3366:3408  users[msg.sender].activatedEarnings = true */\n      0x0100\n      exp\n      dup2\n      sload\n      dup2\n      0xff\n      mul\n      not\n      and\n      swap1\n      dup4\n      iszero\n      iszero\n      mul\n      or\n      swap1\n      sstore\n      pop\n        /* \"contracts/RscUsdtEarn.sol\":3492:3500  newLevel */\n      dup1\n        /* \"contracts/RscUsdtEarn.sol\":3466:3471  users */\n      0x06\n        /* \"contracts/RscUsdtEarn.sol\":3466:3483  users[msg.sender] */\n      0x00\n        /* \"contracts/RscUsdtEarn.sol\":3472:3482  msg.sender */\n      caller\n        /* \"contracts/RscUsdtEarn.sol\":3466:3483  users[msg.sender] */\n      0xffffffffffffffffffffffffffffffffffffffff\n      and\n      0xffffffffffffffffffffffffffffffffffffffff\n      and\n      dup2\n      mstore\n      0x20\n      add\n      swap1\n      dup2\n      mstore\n      0x20\n      add\n      0x00\n      keccak256\n        /* \"contracts/RscUsdtEarn.sol\":3466:3489  users[msg.sender].level */\n      0x02\n      add\n        /* \"contracts/RscUsdtEarn.sol\":3466:3500  users[msg.sender].level = newLevel */\n      dup2\n      swap1\n      sstore\n      pop\n        /* \"contracts/RscUsdtEarn.sol\":3557:3560  100 */\n      0x64\n        /* \"contracts/RscUsdtEarn.sol\":3551:3553  50 */\n      0x32\n        /* \"contracts/RscUsdtEarn.sol\":3533:3548  registrationFee */\n      sload(0x03)\n        /* \"contracts/RscUsdtEarn.sol\":3533:3553  registrationFee * 50 */\n      tag_227\n      swap2\n      swap1\n      tag_142\n      jump\t// in\n    tag_227:\n        /* \"contracts/RscUsdtEarn.sol\":3532:3560  (registrationFee * 50) / 100 */\n      tag_228\n      swap2\n      swap1\n      tag_144\n      jump\t// in\n    tag_228:\n        /* \"contracts/RscUsdtEarn.sol\":3513:3528  totalIncomePool */\n      0x08\n      0x00\n        /* \"contracts/RscUsdtEarn.sol\":3513:3560  totalIncomePool += (registrationFee * 50) / 100 */\n      dup3\n      dup3\n      sload\n      tag_229\n      swap2\n      swap1\n      tag_137\n      jump\t// in\n    tag_229:\n      swap3\n      pop\n      pop\n      dup2\n      swap1\n      sstore\n      pop\n        /* \"contracts/RscUsdtEarn.sol\":3639:3648  _referrer */\n      dup2\n        /* \"contracts/RscUsdtEarn.sol\":3616:3649  Registered(msg.sender, _referrer) */\n      0xffffffffffffffffffffffffffffffffffffffff\n      and\n        /* \"contracts/RscUsdtEarn.sol\":3627:3637  msg.sender */\n      caller\n        /* \"contracts/RscUsdtEarn.sol\":3616:3649  Registered(msg.sender, _referrer) */\n      0xffffffffffffffffffffffffffffffffffffffff\n      and\n      0x0a31ee9d46a828884b81003c8498156ea6aa15b9b54bdd0ef0b533d9eba57e55\n      mload(0x40)\n      mload(0x40)\n      dup1\n      swap2\n      sub\n      swap1\n      log3\n        /* \"contracts/RscUsdtEarn.sol\":2046:3657  {... */\n      pop\n        /* \"contracts/RscUsdtEarn.sol\":1997:3657  function joinNetwork(address _referrer) external {... */\n      pop\n      jump\t// out\n        /* \"contracts/RscUsdtEarn.sol\":806:849  mapping(uint256 => address[]) public levels */\n    tag_92:\n      mstore(0x20, 0x07)\n      dup2\n      0x00\n      mstore\n      keccak256(0x00, 0x40)\n      dup2\n      dup2\n      sload\n      dup2\n      lt\n      tag_230\n      jumpi\n      0x00\n      dup1\n      revert\n    tag_230:\n      swap1\n      0x00\n      mstore\n      keccak256(0x00, 0x20)\n      add\n      0x00\n      swap2\n      pop\n      swap2\n      pop\n      swap1\n      sload\n      swap1\n      0x0100\n      exp\n      swap1\n      div\n      0xffffffffffffffffffffffffffffffffffffffff\n      and\n      dup2\n      jump\t// out\n        /* \"contracts/RscUsdtEarn.sol\":419:456  uint256 public lastRewardDistribution */\n    tag_96:\n      sload(0x05)\n      dup2\n      jump\t// out\n        /* \"contracts/RscUsdtEarn.sol\":9229:9414  function getUsersInLevel(uint256 _level) external view returns (address[] memory) {... */\n    tag_101:\n        /* \"contracts/RscUsdtEarn.sol\":9293:9309  address[] memory */\n      0x60\n        /* \"contracts/RscUsdtEarn.sol\":9340:9341  1 */\n      0x01\n        /* \"contracts/RscUsdtEarn.sol\":9330:9336  _level */\n      dup3\n        /* \"contracts/RscUsdtEarn.sol\":9330:9341  _level >= 1 */\n      lt\n      iszero\n        /* \"contracts/RscUsdtEarn.sol\":9330:9356  _level >= 1 && _level <= 5 */\n      dup1\n      iszero\n      tag_233\n      jumpi\n      pop\n        /* \"contracts/RscUsdtEarn.sol\":9355:9356  5 */\n      0x05\n        /* \"contracts/RscUsdtEarn.sol\":9345:9351  _level */\n      dup3\n        /* \"contracts/RscUsdtEarn.sol\":9345:9356  _level <= 5 */\n      gt\n      iszero\n        /* \"contracts/RscUsdtEarn.sol\":9330:9356  _level >= 1 && _level <= 5 */\n    tag_233:\n        /* \"contracts/RscUsdtEarn.sol\":9322:9374  require(_level >= 1 && _level <= 5, \"Invalid level\") */\n      tag_234\n      jumpi\n      mload(0x40)\n      0x08c379a000000000000000000000000000000000000000000000000000000000\n      dup2\n      mstore\n      0x04\n      add\n      tag_235\n      swap1\n      tag_236\n      jump\t// in\n    tag_235:\n      mload(0x40)\n      dup1\n      swap2\n      sub\n      swap1\n      revert\n    tag_234:\n        /* \"contracts/RscUsdtEarn.sol\":9392:9398  levels */\n      0x07\n        /* \"contracts/RscUsdtEarn.sol\":9392:9406  levels[_level] */\n      0x00\n        /* \"contracts/RscUsdtEarn.sol\":9399:9405  _level */\n      dup4\n        /* \"contracts/RscUsdtEarn.sol\":9392:9406  levels[_level] */\n      dup2\n      mstore\n      0x20\n      add\n      swap1\n      dup2\n      mstore\n      0x20\n      add\n      0x00\n      keccak256\n        /* \"contracts/RscUsdtEarn.sol\":9385:9406  return levels[_level] */\n      dup1\n      sload\n      dup1\n      0x20\n      mul\n      0x20\n      add\n      mload(0x40)\n      swap1\n      dup2\n      add\n      0x40\n      mstore\n      dup1\n      swap3\n      swap2\n      swap1\n      dup2\n      dup2\n      mstore\n      0x20\n      add\n      dup3\n      dup1\n      sload\n      dup1\n      iszero\n      tag_237\n      jumpi\n      0x20\n      mul\n      dup3\n      add\n      swap2\n      swap1\n      0x00\n      mstore\n      keccak256(0x00, 0x20)\n      swap1\n    tag_238:\n      dup2\n      0x00\n      swap1\n      sload\n      swap1\n      0x0100\n      exp\n      swap1\n      div\n      0xffffffffffffffffffffffffffffffffffffffff\n      and\n      0xffffffffffffffffffffffffffffffffffffffff\n      and\n      dup2\n      mstore\n      0x20\n      add\n      swap1\n      0x01\n      add\n      swap1\n      dup1\n      dup4\n      gt\n      tag_238\n      jumpi\n    tag_237:\n      pop\n      pop\n      pop\n      pop\n      pop\n      swap1\n      pop\n        /* \"contracts/RscUsdtEarn.sol\":9229:9414  function getUsersInLevel(uint256 _level) external view returns (address[] memory) {... */\n      swap2\n      swap1\n      pop\n      jump\t// out\n        /* \"contracts/RscUsdtEarn.sol\":9426:9757  function sendEther(address payable _recipient, uint256 _amount) external onlyOwner {... */\n    tag_107:\n        /* \"contracts/RscUsdtEarn.sol\":1606:1611  owner */\n      0x00\n      dup1\n      sload\n      swap1\n      0x0100\n      exp\n      swap1\n      div\n      0xffffffffffffffffffffffffffffffffffffffff\n      and\n        /* \"contracts/RscUsdtEarn.sol\":1592:1611  msg.sender == owner */\n      0xffffffffffffffffffffffffffffffffffffffff\n      and\n        /* \"contracts/RscUsdtEarn.sol\":1592:1602  msg.sender */\n      caller\n        /* \"contracts/RscUsdtEarn.sol\":1592:1611  msg.sender == owner */\n      0xffffffffffffffffffffffffffffffffffffffff\n      and\n      eq\n        /* \"contracts/RscUsdtEarn.sol\":1584:1630  require(msg.sender == owner, \"Not authorized\") */\n      tag_240\n      jumpi\n      mload(0x40)\n      0x08c379a000000000000000000000000000000000000000000000000000000000\n      dup2\n      mstore\n      0x04\n      add\n      tag_241\n      swap1\n      tag_124\n      jump\t// in\n    tag_241:\n      mload(0x40)\n      dup1\n      swap2\n      sub\n      swap1\n      revert\n    tag_240:\n        /* \"contracts/RscUsdtEarn.sol\":9553:9560  _amount */\n      dup1\n        /* \"contracts/RscUsdtEarn.sol\":9528:9549  address(this).balance */\n      selfbalance\n        /* \"contracts/RscUsdtEarn.sol\":9528:9560  address(this).balance >= _amount */\n      lt\n      iszero\n        /* \"contracts/RscUsdtEarn.sol\":9520:9591  require(address(this).balance >= _amount, \"Insufficient Ether balance\") */\n      tag_243\n      jumpi\n      mload(0x40)\n      0x08c379a000000000000000000000000000000000000000000000000000000000\n      dup2\n      mstore\n      0x04\n      add\n      tag_244\n      swap1\n      tag_245\n      jump\t// in\n    tag_244:\n      mload(0x40)\n      dup1\n      swap2\n      sub\n      swap1\n      revert\n    tag_243:\n        /* \"contracts/RscUsdtEarn.sol\":9603:9615  bool success */\n      0x00\n        /* \"contracts/RscUsdtEarn.sol\":9621:9631  _recipient */\n      dup3\n        /* \"contracts/RscUsdtEarn.sol\":9621:9636  _recipient.call */\n      0xffffffffffffffffffffffffffffffffffffffff\n      and\n        /* \"contracts/RscUsdtEarn.sol\":9644:9651  _amount */\n      dup3\n        /* \"contracts/RscUsdtEarn.sol\":9621:9656  _recipient.call{value: _amount}(\"\") */\n      mload(0x40)\n      tag_246\n      swap1\n      tag_247\n      jump\t// in\n    tag_246:\n      0x00\n      mload(0x40)\n      dup1\n      dup4\n      sub\n      dup2\n      dup6\n      dup8\n      gas\n      call\n      swap3\n      pop\n      pop\n      pop\n      returndatasize\n      dup1\n      0x00\n      dup2\n      eq\n      tag_250\n      jumpi\n      mload(0x40)\n      swap2\n      pop\n      and(add(returndatasize, 0x3f), not(0x1f))\n      dup3\n      add\n      0x40\n      mstore\n      returndatasize\n      dup3\n      mstore\n      returndatasize\n      0x00\n      0x20\n      dup5\n      add\n      returndatacopy\n      jump(tag_249)\n    tag_250:\n      0x60\n      swap2\n      pop\n    tag_249:\n      pop\n        /* \"contracts/RscUsdtEarn.sol\":9602:9656  (bool success, ) = _recipient.call{value: _amount}(\"\") */\n      pop\n      swap1\n      pop\n        /* \"contracts/RscUsdtEarn.sol\":9675:9682  success */\n      dup1\n        /* \"contracts/RscUsdtEarn.sol\":9667:9708  require(success, \"Ether transfer failed\") */\n      tag_251\n      jumpi\n      mload(0x40)\n      0x08c379a000000000000000000000000000000000000000000000000000000000\n      dup2\n      mstore\n      0x04\n      add\n      tag_252\n      swap1\n      tag_253\n      jump\t// in\n    tag_252:\n      mload(0x40)\n      dup1\n      swap2\n      sub\n      swap1\n      revert\n    tag_251:\n        /* \"contracts/RscUsdtEarn.sol\":9729:9739  _recipient */\n      dup3\n        /* \"contracts/RscUsdtEarn.sol\":9724:9749  Sent(_recipient, _amount) */\n      0xffffffffffffffffffffffffffffffffffffffff\n      and\n      0x510ffb4dcab972ae9d2007a58e13f1b0881776d23cd8f5cc32f8c5be2dbf70d2\n        /* \"contracts/RscUsdtEarn.sol\":9741:9748  _amount */\n      dup4\n        /* \"contracts/RscUsdtEarn.sol\":9724:9749  Sent(_recipient, _amount) */\n      mload(0x40)\n      tag_254\n      swap2\n      swap1\n      tag_28\n      jump\t// in\n    tag_254:\n      mload(0x40)\n      dup1\n      swap2\n      sub\n      swap1\n      log2\n        /* \"contracts/RscUsdtEarn.sol\":9509:9757  {... */\n      pop\n        /* \"contracts/RscUsdtEarn.sol\":9426:9757  function sendEther(address payable _recipient, uint256 _amount) external onlyOwner {... */\n      pop\n      pop\n      jump\t// out\n        /* \"contracts/RscUsdtEarn.sol\":887:917  uint256 public totalIncomePool */\n    tag_110:\n      sload(0x08)\n      dup2\n      jump\t// out\n        /* \"contracts/RscUsdtEarn.sol\":4286:5391  function upgradeLevel(uint256 _desiredLevel) external {... */\n    tag_115:\n        /* \"contracts/RscUsdtEarn.sol\":4372:4373  1 */\n      0x01\n        /* \"contracts/RscUsdtEarn.sol\":4355:4368  _desiredLevel */\n      dup2\n        /* \"contracts/RscUsdtEarn.sol\":4355:4373  _desiredLevel >= 1 */\n      lt\n      iszero\n        /* \"contracts/RscUsdtEarn.sol\":4355:4395  _desiredLevel >= 1 && _desiredLevel <= 5 */\n      dup1\n      iszero\n      tag_256\n      jumpi\n      pop\n        /* \"contracts/RscUsdtEarn.sol\":4394:4395  5 */\n      0x05\n        /* \"contracts/RscUsdtEarn.sol\":4377:4390  _desiredLevel */\n      dup2\n        /* \"contracts/RscUsdtEarn.sol\":4377:4395  _desiredLevel <= 5 */\n      gt\n      iszero\n        /* \"contracts/RscUsdtEarn.sol\":4355:4395  _desiredLevel >= 1 && _desiredLevel <= 5 */\n    tag_256:\n        /* \"contracts/RscUsdtEarn.sol\":4347:4413  require(_desiredLevel >= 1 && _desiredLevel <= 5, \"Invalid level\") */\n      tag_257\n      jumpi\n      mload(0x40)\n      0x08c379a000000000000000000000000000000000000000000000000000000000\n      dup2\n      mstore\n      0x04\n      add\n      tag_258\n      swap1\n      tag_236\n      jump\t// in\n    tag_258:\n      mload(0x40)\n      dup1\n      swap2\n      sub\n      swap1\n      revert\n    tag_257:\n        /* \"contracts/RscUsdtEarn.sol\":4454:4467  _desiredLevel */\n      dup1\n        /* \"contracts/RscUsdtEarn.sol\":4428:4433  users */\n      0x06\n        /* \"contracts/RscUsdtEarn.sol\":4428:4445  users[msg.sender] */\n      0x00\n        /* \"contracts/RscUsdtEarn.sol\":4434:4444  msg.sender */\n      caller\n        /* \"contracts/RscUsdtEarn.sol\":4428:4445  users[msg.sender] */\n      0xffffffffffffffffffffffffffffffffffffffff\n      and\n      0xffffffffffffffffffffffffffffffffffffffff\n      and\n      dup2\n      mstore\n      0x20\n      add\n      swap1\n      dup2\n      mstore\n      0x20\n      add\n      0x00\n      keccak256\n        /* \"contracts/RscUsdtEarn.sol\":4428:4451  users[msg.sender].level */\n      0x02\n      add\n      sload\n        /* \"contracts/RscUsdtEarn.sol\":4428:4467  users[msg.sender].level < _desiredLevel */\n      lt\n        /* \"contracts/RscUsdtEarn.sol\":4420:4503  require(users[msg.sender].level < _desiredLevel, \"Already at this level or higher\") */\n      tag_259\n      jumpi\n      mload(0x40)\n      0x08c379a000000000000000000000000000000000000000000000000000000000\n      dup2\n      mstore\n      0x04\n      add\n      tag_260\n      swap1\n      tag_261\n      jump\t// in\n    tag_260:\n      mload(0x40)\n      dup1\n      swap2\n      sub\n      swap1\n      revert\n    tag_259:\n        /* \"contracts/RscUsdtEarn.sol\":4657:4680  uint256 requiredPayment */\n      0x00\n        /* \"contracts/RscUsdtEarn.sol\":4683:4716  calculateLevelCost(_desiredLevel) */\n      tag_262\n        /* \"contracts/RscUsdtEarn.sol\":4702:4715  _desiredLevel */\n      dup3\n        /* \"contracts/RscUsdtEarn.sol\":4683:4701  calculateLevelCost */\n      tag_37\n        /* \"contracts/RscUsdtEarn.sol\":4683:4716  calculateLevelCost(_desiredLevel) */\n      jump\t// in\n    tag_262:\n        /* \"contracts/RscUsdtEarn.sol\":4657:4716  uint256 requiredPayment = calculateLevelCost(_desiredLevel) */\n      swap1\n      pop\n        /* \"contracts/RscUsdtEarn.sol\":4738:4754  usdtTokenAddress */\n      0x02\n      0x00\n      swap1\n      sload\n      swap1\n      0x0100\n      exp\n      swap1\n      div\n      0xffffffffffffffffffffffffffffffffffffffff\n      and\n        /* \"contracts/RscUsdtEarn.sol\":4731:4768  IERC20(usdtTokenAddress).transferFrom */\n      0xffffffffffffffffffffffffffffffffffffffff\n      and\n      0x23b872dd\n        /* \"contracts/RscUsdtEarn.sol\":4769:4779  msg.sender */\n      caller\n        /* \"contracts/RscUsdtEarn.sol\":4789:4793  this */\n      address\n        /* \"contracts/RscUsdtEarn.sol\":4796:4811  requiredPayment */\n      dup5\n        /* \"contracts/RscUsdtEarn.sol\":4731:4812  IERC20(usdtTokenAddress).transferFrom(msg.sender, address(this), requiredPayment) */\n      mload(0x40)\n      dup5\n      0xffffffff\n      and\n      0xe0\n      shl\n      dup2\n      mstore\n      0x04\n      add\n      tag_263\n      swap4\n      swap3\n      swap2\n      swap1\n      tag_207\n      jump\t// in\n    tag_263:\n      0x20\n      mload(0x40)\n      dup1\n      dup4\n      sub\n      dup2\n      0x00\n      dup8\n      gas\n      call\n      iszero\n      dup1\n      iszero\n      tag_265\n      jumpi\n      returndatasize\n      0x00\n      dup1\n      returndatacopy\n      revert(0x00, returndatasize)\n    tag_265:\n      pop\n      pop\n      pop\n      pop\n      mload(0x40)\n      returndatasize\n      not(0x1f)\n      0x1f\n      dup3\n      add\n      and\n      dup3\n      add\n      dup1\n      0x40\n      mstore\n      pop\n      dup2\n      add\n      swap1\n      tag_266\n      swap2\n      swap1\n      tag_152\n      jump\t// in\n    tag_266:\n        /* \"contracts/RscUsdtEarn.sol\":4723:4831  require(IERC20(usdtTokenAddress).transferFrom(msg.sender, address(this), requiredPayment), \"Payment failed\") */\n      tag_267\n      jumpi\n      mload(0x40)\n      0x08c379a000000000000000000000000000000000000000000000000000000000\n      dup2\n      mstore\n      0x04\n      add\n      tag_268\n      swap1\n      tag_213\n      jump\t// in\n    tag_268:\n      mload(0x40)\n      dup1\n      swap2\n      sub\n      swap1\n      revert\n    tag_267:\n        /* \"contracts/RscUsdtEarn.sol\":4842:4867  uint256 requiredReferrals */\n      0x00\n        /* \"contracts/RscUsdtEarn.sol\":4870:4913  getReferralsRequiredForLevel(_desiredLevel) */\n      tag_269\n        /* \"contracts/RscUsdtEarn.sol\":4899:4912  _desiredLevel */\n      dup4\n        /* \"contracts/RscUsdtEarn.sol\":4870:4898  getReferralsRequiredForLevel */\n      tag_270\n        /* \"contracts/RscUsdtEarn.sol\":4870:4913  getReferralsRequiredForLevel(_desiredLevel) */\n      jump\t// in\n    tag_269:\n        /* \"contracts/RscUsdtEarn.sol\":4842:4913  uint256 requiredReferrals = getReferralsRequiredForLevel(_desiredLevel) */\n      swap1\n      pop\n        /* \"contracts/RscUsdtEarn.sol\":4950:4967  requiredReferrals */\n      dup1\n        /* \"contracts/RscUsdtEarn.sol\":4920:4925  users */\n      0x06\n        /* \"contracts/RscUsdtEarn.sol\":4920:4937  users[msg.sender] */\n      0x00\n        /* \"contracts/RscUsdtEarn.sol\":4926:4936  msg.sender */\n      caller\n        /* \"contracts/RscUsdtEarn.sol\":4920:4937  users[msg.sender] */\n      0xffffffffffffffffffffffffffffffffffffffff\n      and\n      0xffffffffffffffffffffffffffffffffffffffff\n      and\n      dup2\n      mstore\n      0x20\n      add\n      swap1\n      dup2\n      mstore\n      0x20\n      add\n      0x00\n      keccak256\n        /* \"contracts/RscUsdtEarn.sol\":4920:4947  users[msg.sender].referrals */\n      0x01\n      add\n        /* \"contracts/RscUsdtEarn.sol\":4920:4967  users[msg.sender].referrals = requiredReferrals */\n      dup2\n      swap1\n      sstore\n      pop\n        /* \"contracts/RscUsdtEarn.sol\":5019:5076  _removeUserFromLevel(msg.sender, users[msg.sender].level) */\n      tag_271\n        /* \"contracts/RscUsdtEarn.sol\":5040:5050  msg.sender */\n      caller\n        /* \"contracts/RscUsdtEarn.sol\":5052:5057  users */\n      0x06\n        /* \"contracts/RscUsdtEarn.sol\":5052:5069  users[msg.sender] */\n      0x00\n        /* \"contracts/RscUsdtEarn.sol\":5058:5068  msg.sender */\n      caller\n        /* \"contracts/RscUsdtEarn.sol\":5052:5069  users[msg.sender] */\n      0xffffffffffffffffffffffffffffffffffffffff\n      and\n      0xffffffffffffffffffffffffffffffffffffffff\n      and\n      dup2\n      mstore\n      0x20\n      add\n      swap1\n      dup2\n      mstore\n      0x20\n      add\n      0x00\n      keccak256\n        /* \"contracts/RscUsdtEarn.sol\":5052:5075  users[msg.sender].level */\n      0x02\n      add\n      sload\n        /* \"contracts/RscUsdtEarn.sol\":5019:5039  _removeUserFromLevel */\n      tag_222\n        /* \"contracts/RscUsdtEarn.sol\":5019:5076  _removeUserFromLevel(msg.sender, users[msg.sender].level) */\n      jump\t// in\n    tag_271:\n        /* \"contracts/RscUsdtEarn.sol\":5143:5156  _desiredLevel */\n      dup3\n        /* \"contracts/RscUsdtEarn.sol\":5117:5122  users */\n      0x06\n        /* \"contracts/RscUsdtEarn.sol\":5117:5134  users[msg.sender] */\n      0x00\n        /* \"contracts/RscUsdtEarn.sol\":5123:5133  msg.sender */\n      caller\n        /* \"contracts/RscUsdtEarn.sol\":5117:5134  users[msg.sender] */\n      0xffffffffffffffffffffffffffffffffffffffff\n      and\n      0xffffffffffffffffffffffffffffffffffffffff\n      and\n      dup2\n      mstore\n      0x20\n      add\n      swap1\n      dup2\n      mstore\n      0x20\n      add\n      0x00\n      keccak256\n        /* \"contracts/RscUsdtEarn.sol\":5117:5140  users[msg.sender].level */\n      0x02\n      add\n        /* \"contracts/RscUsdtEarn.sol\":5117:5156  users[msg.sender].level = _desiredLevel */\n      dup2\n      swap1\n      sstore\n      pop\n        /* \"contracts/RscUsdtEarn.sol\":5203:5209  levels */\n      0x07\n        /* \"contracts/RscUsdtEarn.sol\":5203:5224  levels[_desiredLevel] */\n      0x00\n        /* \"contracts/RscUsdtEarn.sol\":5210:5223  _desiredLevel */\n      dup5\n        /* \"contracts/RscUsdtEarn.sol\":5203:5224  levels[_desiredLevel] */\n      dup2\n      mstore\n      0x20\n      add\n      swap1\n      dup2\n      mstore\n      0x20\n      add\n      0x00\n      keccak256\n        /* \"contracts/RscUsdtEarn.sol\":5230:5240  msg.sender */\n      caller\n        /* \"contracts/RscUsdtEarn.sol\":5203:5241  levels[_desiredLevel].push(msg.sender) */\n      swap1\n      dup1\n      0x01\n      dup2\n      sload\n      add\n      dup1\n      dup3\n      sstore\n      dup1\n      swap2\n      pop\n      pop\n      0x01\n      swap1\n      sub\n      swap1\n      0x00\n      mstore\n      keccak256(0x00, 0x20)\n      add\n      0x00\n      swap1\n      swap2\n      swap1\n      swap2\n      swap1\n      swap2\n      0x0100\n      exp\n      dup2\n      sload\n      dup2\n      0xffffffffffffffffffffffffffffffffffffffff\n      mul\n      not\n      and\n      swap1\n      dup4\n      0xffffffffffffffffffffffffffffffffffffffff\n      and\n      mul\n      or\n      swap1\n      sstore\n      pop\n        /* \"contracts/RscUsdtEarn.sol\":5318:5333  requiredPayment */\n      dup2\n        /* \"contracts/RscUsdtEarn.sol\":5299:5314  totalIncomePool */\n      0x08\n      0x00\n        /* \"contracts/RscUsdtEarn.sol\":5299:5333  totalIncomePool += requiredPayment */\n      dup3\n      dup3\n      sload\n      tag_273\n      swap2\n      swap1\n      tag_137\n      jump\t// in\n    tag_273:\n      swap3\n      pop\n      pop\n      dup2\n      swap1\n      sstore\n      pop\n        /* \"contracts/RscUsdtEarn.sol\":5361:5371  msg.sender */\n      caller\n        /* \"contracts/RscUsdtEarn.sol\":5347:5387  LevelUpgraded(msg.sender, _desiredLevel) */\n      0xffffffffffffffffffffffffffffffffffffffff\n      and\n      0x427898149ffa0bd0a638b73a8506cc040ca0034a36bdb547db4fb73fd0313c02\n        /* \"contracts/RscUsdtEarn.sol\":5373:5386  _desiredLevel */\n      dup5\n        /* \"contracts/RscUsdtEarn.sol\":5347:5387  LevelUpgraded(msg.sender, _desiredLevel) */\n      mload(0x40)\n      tag_274\n      swap2\n      swap1\n      tag_28\n      jump\t// in\n    tag_274:\n      mload(0x40)\n      dup1\n      swap2\n      sub\n      swap1\n      log2\n        /* \"contracts/RscUsdtEarn.sol\":4340:5391  {... */\n      pop\n      pop\n        /* \"contracts/RscUsdtEarn.sol\":4286:5391  function upgradeLevel(uint256 _desiredLevel) external {... */\n      pop\n      jump\t// out\n        /* \"contracts/RscUsdtEarn.sol\":8288:8674  function calculateLevelShare(uint256 _level) internal pure returns (uint256) {... */\n    tag_161:\n        /* \"contracts/RscUsdtEarn.sol\":8356:8363  uint256 */\n      0x00\n        /* \"contracts/RscUsdtEarn.sol\":8390:8391  1 */\n      0x01\n        /* \"contracts/RscUsdtEarn.sol\":8380:8386  _level */\n      dup3\n        /* \"contracts/RscUsdtEarn.sol\":8380:8391  _level == 1 */\n      sub\n        /* \"contracts/RscUsdtEarn.sol\":8376:8402  if (_level == 1) return 16 */\n      tag_276\n      jumpi\n        /* \"contracts/RscUsdtEarn.sol\":8400:8402  16 */\n      0x10\n        /* \"contracts/RscUsdtEarn.sol\":8393:8402  return 16 */\n      swap1\n      pop\n      jump(tag_275)\n        /* \"contracts/RscUsdtEarn.sol\":8376:8402  if (_level == 1) return 16 */\n    tag_276:\n        /* \"contracts/RscUsdtEarn.sol\":8446:8447  2 */\n      0x02\n        /* \"contracts/RscUsdtEarn.sol\":8436:8442  _level */\n      dup3\n        /* \"contracts/RscUsdtEarn.sol\":8436:8447  _level == 2 */\n      sub\n        /* \"contracts/RscUsdtEarn.sol\":8432:8458  if (_level == 2) return 18 */\n      tag_277\n      jumpi\n        /* \"contracts/RscUsdtEarn.sol\":8456:8458  18 */\n      0x12\n        /* \"contracts/RscUsdtEarn.sol\":8449:8458  return 18 */\n      swap1\n      pop\n      jump(tag_275)\n        /* \"contracts/RscUsdtEarn.sol\":8432:8458  if (_level == 2) return 18 */\n    tag_277:\n        /* \"contracts/RscUsdtEarn.sol\":8502:8503  3 */\n      0x03\n        /* \"contracts/RscUsdtEarn.sol\":8492:8498  _level */\n      dup3\n        /* \"contracts/RscUsdtEarn.sol\":8492:8503  _level == 3 */\n      sub\n        /* \"contracts/RscUsdtEarn.sol\":8488:8514  if (_level == 3) return 20 */\n      tag_278\n      jumpi\n        /* \"contracts/RscUsdtEarn.sol\":8512:8514  20 */\n      0x14\n        /* \"contracts/RscUsdtEarn.sol\":8505:8514  return 20 */\n      swap1\n      pop\n      jump(tag_275)\n        /* \"contracts/RscUsdtEarn.sol\":8488:8514  if (_level == 3) return 20 */\n    tag_278:\n        /* \"contracts/RscUsdtEarn.sol\":8558:8559  4 */\n      0x04\n        /* \"contracts/RscUsdtEarn.sol\":8548:8554  _level */\n      dup3\n        /* \"contracts/RscUsdtEarn.sol\":8548:8559  _level == 4 */\n      sub\n        /* \"contracts/RscUsdtEarn.sol\":8544:8570  if (_level == 4) return 22 */\n      tag_279\n      jumpi\n        /* \"contracts/RscUsdtEarn.sol\":8568:8570  22 */\n      0x16\n        /* \"contracts/RscUsdtEarn.sol\":8561:8570  return 22 */\n      swap1\n      pop\n      jump(tag_275)\n        /* \"contracts/RscUsdtEarn.sol\":8544:8570  if (_level == 4) return 22 */\n    tag_279:\n        /* \"contracts/RscUsdtEarn.sol\":8615:8616  5 */\n      0x05\n        /* \"contracts/RscUsdtEarn.sol\":8605:8611  _level */\n      dup3\n        /* \"contracts/RscUsdtEarn.sol\":8605:8616  _level == 5 */\n      sub\n        /* \"contracts/RscUsdtEarn.sol\":8601:8627  if (_level == 5) return 24 */\n      tag_280\n      jumpi\n        /* \"contracts/RscUsdtEarn.sol\":8625:8627  24 */\n      0x18\n        /* \"contracts/RscUsdtEarn.sol\":8618:8627  return 24 */\n      swap1\n      pop\n      jump(tag_275)\n        /* \"contracts/RscUsdtEarn.sol\":8601:8627  if (_level == 5) return 24 */\n    tag_280:\n        /* \"contracts/RscUsdtEarn.sol\":8665:8666  0 */\n      0x00\n        /* \"contracts/RscUsdtEarn.sol\":8658:8666  return 0 */\n      swap1\n      pop\n        /* \"contracts/RscUsdtEarn.sol\":8288:8674  function calculateLevelShare(uint256 _level) internal pure returns (uint256) {... */\n    tag_275:\n      swap2\n      swap1\n      pop\n      jump\t// out\n        /* \"contracts/RscUsdtEarn.sol\":7885:8280  function determineLevel(uint256 _referrals) internal pure returns (uint256) {... */\n    tag_219:\n        /* \"contracts/RscUsdtEarn.sol\":7952:7959  uint256 */\n      0x00\n        /* \"contracts/RscUsdtEarn.sol\":7990:7991  1 */\n      0x01\n        /* \"contracts/RscUsdtEarn.sol\":7976:7986  _referrals */\n      dup3\n        /* \"contracts/RscUsdtEarn.sol\":7976:7991  _referrals >= 1 */\n      lt\n      iszero\n        /* \"contracts/RscUsdtEarn.sol\":7976:8010  _referrals >= 1 && _referrals <= 9 */\n      dup1\n      iszero\n      tag_282\n      jumpi\n      pop\n        /* \"contracts/RscUsdtEarn.sol\":8009:8010  9 */\n      0x09\n        /* \"contracts/RscUsdtEarn.sol\":7995:8005  _referrals */\n      dup3\n        /* \"contracts/RscUsdtEarn.sol\":7995:8010  _referrals <= 9 */\n      gt\n      iszero\n        /* \"contracts/RscUsdtEarn.sol\":7976:8010  _referrals >= 1 && _referrals <= 9 */\n    tag_282:\n        /* \"contracts/RscUsdtEarn.sol\":7972:8020  if (_referrals >= 1 && _referrals <= 9) return 1 */\n      iszero\n      tag_283\n      jumpi\n        /* \"contracts/RscUsdtEarn.sol\":8019:8020  1 */\n      0x01\n        /* \"contracts/RscUsdtEarn.sol\":8012:8020  return 1 */\n      swap1\n      pop\n      jump(tag_281)\n        /* \"contracts/RscUsdtEarn.sol\":7972:8020  if (_referrals >= 1 && _referrals <= 9) return 1 */\n    tag_283:\n        /* \"contracts/RscUsdtEarn.sol\":8049:8051  10 */\n      0x0a\n        /* \"contracts/RscUsdtEarn.sol\":8035:8045  _referrals */\n      dup3\n        /* \"contracts/RscUsdtEarn.sol\":8035:8051  _referrals >= 10 */\n      lt\n      iszero\n        /* \"contracts/RscUsdtEarn.sol\":8035:8071  _referrals >= 10 && _referrals <= 99 */\n      dup1\n      iszero\n      tag_284\n      jumpi\n      pop\n        /* \"contracts/RscUsdtEarn.sol\":8069:8071  99 */\n      0x63\n        /* \"contracts/RscUsdtEarn.sol\":8055:8065  _referrals */\n      dup3\n        /* \"contracts/RscUsdtEarn.sol\":8055:8071  _referrals <= 99 */\n      gt\n      iszero\n        /* \"contracts/RscUsdtEarn.sol\":8035:8071  _referrals >= 10 && _referrals <= 99 */\n    tag_284:\n        /* \"contracts/RscUsdtEarn.sol\":8031:8081  if (_referrals >= 10 && _referrals <= 99) return 2 */\n      iszero\n      tag_285\n      jumpi\n        /* \"contracts/RscUsdtEarn.sol\":8080:8081  2 */\n      0x02\n        /* \"contracts/RscUsdtEarn.sol\":8073:8081  return 2 */\n      swap1\n      pop\n      jump(tag_281)\n        /* \"contracts/RscUsdtEarn.sol\":8031:8081  if (_referrals >= 10 && _referrals <= 99) return 2 */\n    tag_285:\n        /* \"contracts/RscUsdtEarn.sol\":8110:8113  100 */\n      0x64\n        /* \"contracts/RscUsdtEarn.sol\":8096:8106  _referrals */\n      dup3\n        /* \"contracts/RscUsdtEarn.sol\":8096:8113  _referrals >= 100 */\n      lt\n      iszero\n        /* \"contracts/RscUsdtEarn.sol\":8096:8134  _referrals >= 100 && _referrals <= 999 */\n      dup1\n      iszero\n      tag_286\n      jumpi\n      pop\n        /* \"contracts/RscUsdtEarn.sol\":8131:8134  999 */\n      0x03e7\n        /* \"contracts/RscUsdtEarn.sol\":8117:8127  _referrals */\n      dup3\n        /* \"contracts/RscUsdtEarn.sol\":8117:8134  _referrals <= 999 */\n      gt\n      iszero\n        /* \"contracts/RscUsdtEarn.sol\":8096:8134  _referrals >= 100 && _referrals <= 999 */\n    tag_286:\n        /* \"contracts/RscUsdtEarn.sol\":8092:8144  if (_referrals >= 100 && _referrals <= 999) return 3 */\n      iszero\n      tag_287\n      jumpi\n        /* \"contracts/RscUsdtEarn.sol\":8143:8144  3 */\n      0x03\n        /* \"contracts/RscUsdtEarn.sol\":8136:8144  return 3 */\n      swap1\n      pop\n      jump(tag_281)\n        /* \"contracts/RscUsdtEarn.sol\":8092:8144  if (_referrals >= 100 && _referrals <= 999) return 3 */\n    tag_287:\n        /* \"contracts/RscUsdtEarn.sol\":8173:8177  1000 */\n      0x03e8\n        /* \"contracts/RscUsdtEarn.sol\":8159:8169  _referrals */\n      dup3\n        /* \"contracts/RscUsdtEarn.sol\":8159:8177  _referrals >= 1000 */\n      lt\n      iszero\n        /* \"contracts/RscUsdtEarn.sol\":8159:8199  _referrals >= 1000 && _referrals <= 9999 */\n      dup1\n      iszero\n      tag_288\n      jumpi\n      pop\n        /* \"contracts/RscUsdtEarn.sol\":8195:8199  9999 */\n      0x270f\n        /* \"contracts/RscUsdtEarn.sol\":8181:8191  _referrals */\n      dup3\n        /* \"contracts/RscUsdtEarn.sol\":8181:8199  _referrals <= 9999 */\n      gt\n      iszero\n        /* \"contracts/RscUsdtEarn.sol\":8159:8199  _referrals >= 1000 && _referrals <= 9999 */\n    tag_288:\n        /* \"contracts/RscUsdtEarn.sol\":8155:8209  if (_referrals >= 1000 && _referrals <= 9999) return 4 */\n      iszero\n      tag_289\n      jumpi\n        /* \"contracts/RscUsdtEarn.sol\":8208:8209  4 */\n      0x04\n        /* \"contracts/RscUsdtEarn.sol\":8201:8209  return 4 */\n      swap1\n      pop\n      jump(tag_281)\n        /* \"contracts/RscUsdtEarn.sol\":8155:8209  if (_referrals >= 1000 && _referrals <= 9999) return 4 */\n    tag_289:\n        /* \"contracts/RscUsdtEarn.sol\":8238:8243  10000 */\n      0x2710\n        /* \"contracts/RscUsdtEarn.sol\":8224:8234  _referrals */\n      dup3\n        /* \"contracts/RscUsdtEarn.sol\":8224:8243  _referrals >= 10000 */\n      lt\n        /* \"contracts/RscUsdtEarn.sol\":8220:8253  if (_referrals >= 10000) return 5 */\n      tag_290\n      jumpi\n        /* \"contracts/RscUsdtEarn.sol\":8252:8253  5 */\n      0x05\n        /* \"contracts/RscUsdtEarn.sol\":8245:8253  return 5 */\n      swap1\n      pop\n      jump(tag_281)\n        /* \"contracts/RscUsdtEarn.sol\":8220:8253  if (_referrals >= 10000) return 5 */\n    tag_290:\n        /* \"contracts/RscUsdtEarn.sol\":8271:8272  0 */\n      0x00\n        /* \"contracts/RscUsdtEarn.sol\":8264:8272  return 0 */\n      swap1\n      pop\n        /* \"contracts/RscUsdtEarn.sol\":7885:8280  function determineLevel(uint256 _referrals) internal pure returns (uint256) {... */\n    tag_281:\n      swap2\n      swap1\n      pop\n      jump\t// out\n        /* \"contracts/RscUsdtEarn.sol\":8682:9221  function _removeUserFromLevel(address _user, uint256 _level) internal {... */\n    tag_222:\n        /* \"contracts/RscUsdtEarn.sol\":8825:8853  address[] storage levelUsers */\n      0x00\n        /* \"contracts/RscUsdtEarn.sol\":8856:8862  levels */\n      0x07\n        /* \"contracts/RscUsdtEarn.sol\":8856:8870  levels[_level] */\n      0x00\n        /* \"contracts/RscUsdtEarn.sol\":8863:8869  _level */\n      dup4\n        /* \"contracts/RscUsdtEarn.sol\":8856:8870  levels[_level] */\n      dup2\n      mstore\n      0x20\n      add\n      swap1\n      dup2\n      mstore\n      0x20\n      add\n      0x00\n      keccak256\n        /* \"contracts/RscUsdtEarn.sol\":8825:8870  address[] storage levelUsers = levels[_level] */\n      swap1\n      pop\n        /* \"contracts/RscUsdtEarn.sol\":8886:8895  uint256 i */\n      0x00\n        /* \"contracts/RscUsdtEarn.sol\":8881:9214  for (uint256 i = 0; i < levelUsers.length; i++) {... */\n    tag_292:\n        /* \"contracts/RscUsdtEarn.sol\":8905:8915  levelUsers */\n      dup2\n        /* \"contracts/RscUsdtEarn.sol\":8905:8922  levelUsers.length */\n      dup1\n      sload\n      swap1\n      pop\n        /* \"contracts/RscUsdtEarn.sol\":8901:8902  i */\n      dup2\n        /* \"contracts/RscUsdtEarn.sol\":8901:8922  i < levelUsers.length */\n      lt\n        /* \"contracts/RscUsdtEarn.sol\":8881:9214  for (uint256 i = 0; i < levelUsers.length; i++) {... */\n      iszero\n      tag_293\n      jumpi\n        /* \"contracts/RscUsdtEarn.sol\":8965:8970  _user */\n      dup4\n        /* \"contracts/RscUsdtEarn.sol\":8948:8970  levelUsers[i] == _user */\n      0xffffffffffffffffffffffffffffffffffffffff\n      and\n        /* \"contracts/RscUsdtEarn.sol\":8948:8958  levelUsers */\n      dup3\n        /* \"contracts/RscUsdtEarn.sol\":8959:8960  i */\n      dup3\n        /* \"contracts/RscUsdtEarn.sol\":8948:8961  levelUsers[i] */\n      dup2\n      sload\n      dup2\n      lt\n      tag_295\n      jumpi\n      tag_296\n      tag_173\n      jump\t// in\n    tag_296:\n    tag_295:\n      swap1\n      0x00\n      mstore\n      keccak256(0x00, 0x20)\n      add\n      0x00\n      swap1\n      sload\n      swap1\n      0x0100\n      exp\n      swap1\n      div\n      0xffffffffffffffffffffffffffffffffffffffff\n      and\n        /* \"contracts/RscUsdtEarn.sol\":8948:8970  levelUsers[i] == _user */\n      0xffffffffffffffffffffffffffffffffffffffff\n      and\n      sub\n        /* \"contracts/RscUsdtEarn.sol\":8944:9203  if (levelUsers[i] == _user) {... */\n      tag_298\n      jumpi\n        /* \"contracts/RscUsdtEarn.sol\":9095:9105  levelUsers */\n      dup2\n        /* \"contracts/RscUsdtEarn.sol\":9126:9127  1 */\n      0x01\n        /* \"contracts/RscUsdtEarn.sol\":9106:9116  levelUsers */\n      dup4\n        /* \"contracts/RscUsdtEarn.sol\":9106:9123  levelUsers.length */\n      dup1\n      sload\n      swap1\n      pop\n        /* \"contracts/RscUsdtEarn.sol\":9106:9127  levelUsers.length - 1 */\n      tag_299\n      swap2\n      swap1\n      tag_146\n      jump\t// in\n    tag_299:\n        /* \"contracts/RscUsdtEarn.sol\":9095:9128  levelUsers[levelUsers.length - 1] */\n      dup2\n      sload\n      dup2\n      lt\n      tag_300\n      jumpi\n      tag_301\n      tag_173\n      jump\t// in\n    tag_301:\n    tag_300:\n      swap1\n      0x00\n      mstore\n      keccak256(0x00, 0x20)\n      add\n      0x00\n      swap1\n      sload\n      swap1\n      0x0100\n      exp\n      swap1\n      div\n      0xffffffffffffffffffffffffffffffffffffffff\n      and\n        /* \"contracts/RscUsdtEarn.sol\":9079:9089  levelUsers */\n      dup3\n        /* \"contracts/RscUsdtEarn.sol\":9090:9091  i */\n      dup3\n        /* \"contracts/RscUsdtEarn.sol\":9079:9092  levelUsers[i] */\n      dup2\n      sload\n      dup2\n      lt\n      tag_303\n      jumpi\n      tag_304\n      tag_173\n      jump\t// in\n    tag_304:\n    tag_303:\n      swap1\n      0x00\n      mstore\n      keccak256(0x00, 0x20)\n      add\n      0x00\n        /* \"contracts/RscUsdtEarn.sol\":9079:9128  levelUsers[i] = levelUsers[levelUsers.length - 1] */\n      0x0100\n      exp\n      dup2\n      sload\n      dup2\n      0xffffffffffffffffffffffffffffffffffffffff\n      mul\n      not\n      and\n      swap1\n      dup4\n      0xffffffffffffffffffffffffffffffffffffffff\n      and\n      mul\n      or\n      swap1\n      sstore\n      pop\n        /* \"contracts/RscUsdtEarn.sol\":9147:9157  levelUsers */\n      dup2\n        /* \"contracts/RscUsdtEarn.sol\":9147:9163  levelUsers.pop() */\n      dup1\n      sload\n      dup1\n      tag_306\n      jumpi\n      tag_307\n      tag_308\n      jump\t// in\n    tag_307:\n    tag_306:\n      0x01\n      swap1\n      sub\n      dup2\n      dup2\n      swap1\n      0x00\n      mstore\n      keccak256(0x00, 0x20)\n      add\n      exp(0x0100, 0x00)\n      dup2\n      sload\n      swap1\n      0xffffffffffffffffffffffffffffffffffffffff\n      mul\n      not\n      and\n      swap1\n      sstore\n      swap1\n      sstore\n        /* \"contracts/RscUsdtEarn.sol\":9182:9187  break */\n      jump(tag_293)\n        /* \"contracts/RscUsdtEarn.sol\":8944:9203  if (levelUsers[i] == _user) {... */\n    tag_298:\n        /* \"contracts/RscUsdtEarn.sol\":8924:8927  i++ */\n      dup1\n      dup1\n      0x01\n      add\n      swap2\n      pop\n      pop\n        /* \"contracts/RscUsdtEarn.sol\":8881:9214  for (uint256 i = 0; i < levelUsers.length; i++) {... */\n      jump(tag_292)\n    tag_293:\n      pop\n        /* \"contracts/RscUsdtEarn.sol\":8752:9221  {... */\n      pop\n        /* \"contracts/RscUsdtEarn.sol\":8682:9221  function _removeUserFromLevel(address _user, uint256 _level) internal {... */\n      pop\n      pop\n      jump\t// out\n        /* \"contracts/RscUsdtEarn.sol\":5743:6018  function payReferralReward(address _referrer) internal {... */\n    tag_225:\n        /* \"contracts/RscUsdtEarn.sol\":5809:5823  uint256 reward */\n      0x00\n        /* \"contracts/RscUsdtEarn.sol\":5851:5854  100 */\n      0x64\n        /* \"contracts/RscUsdtEarn.sol\":5845:5847  50 */\n      0x32\n        /* \"contracts/RscUsdtEarn.sol\":5827:5842  registrationFee */\n      sload(0x03)\n        /* \"contracts/RscUsdtEarn.sol\":5827:5847  registrationFee * 50 */\n      tag_311\n      swap2\n      swap1\n      tag_142\n      jump\t// in\n    tag_311:\n        /* \"contracts/RscUsdtEarn.sol\":5826:5854  (registrationFee * 50) / 100 */\n      tag_312\n      swap2\n      swap1\n      tag_144\n      jump\t// in\n    tag_312:\n        /* \"contracts/RscUsdtEarn.sol\":5809:5854  uint256 reward = (registrationFee * 50) / 100 */\n      swap1\n      pop\n        /* \"contracts/RscUsdtEarn.sol\":5914:5920  reward */\n      dup1\n        /* \"contracts/RscUsdtEarn.sol\":5887:5892  users */\n      0x06\n        /* \"contracts/RscUsdtEarn.sol\":5887:5903  users[_referrer] */\n      0x00\n        /* \"contracts/RscUsdtEarn.sol\":5893:5902  _referrer */\n      dup5\n        /* \"contracts/RscUsdtEarn.sol\":5887:5903  users[_referrer] */\n      0xffffffffffffffffffffffffffffffffffffffff\n      and\n      0xffffffffffffffffffffffffffffffffffffffff\n      and\n      dup2\n      mstore\n      0x20\n      add\n      swap1\n      dup2\n      mstore\n      0x20\n      add\n      0x00\n      keccak256\n        /* \"contracts/RscUsdtEarn.sol\":5887:5910  users[_referrer].earned */\n      0x03\n      add\n      0x00\n        /* \"contracts/RscUsdtEarn.sol\":5887:5920  users[_referrer].earned += reward */\n      dup3\n      dup3\n      sload\n      tag_313\n      swap2\n      swap1\n      tag_137\n      jump\t// in\n    tag_313:\n      swap3\n      pop\n      pop\n      dup2\n      swap1\n      sstore\n      pop\n        /* \"contracts/RscUsdtEarn.sol\":5992:6001  _referrer */\n      dup2\n        /* \"contracts/RscUsdtEarn.sol\":5979:6010  ReferralPaid(_referrer, reward) */\n      0xffffffffffffffffffffffffffffffffffffffff\n      and\n      0x6292f4f27d8047af4537a4bd86906de0e2c880c20086f7f58b81eacfeb639126\n        /* \"contracts/RscUsdtEarn.sol\":6003:6009  reward */\n      dup3\n        /* \"contracts/RscUsdtEarn.sol\":5979:6010  ReferralPaid(_referrer, reward) */\n      mload(0x40)\n      tag_314\n      swap2\n      swap1\n      tag_28\n      jump\t// in\n    tag_314:\n      mload(0x40)\n      dup1\n      swap2\n      sub\n      swap1\n      log2\n        /* \"contracts/RscUsdtEarn.sol\":5798:6018  {... */\n      pop\n        /* \"contracts/RscUsdtEarn.sol\":5743:6018  function payReferralReward(address _referrer) internal {... */\n      pop\n      jump\t// out\n        /* \"contracts/RscUsdtEarn.sol\":3803:4093  function getReferralsRequiredForLevel(uint256 _level) internal pure returns (uint256) {... */\n    tag_270:\n        /* \"contracts/RscUsdtEarn.sol\":3880:3887  uint256 */\n      0x00\n        /* \"contracts/RscUsdtEarn.sol\":3910:3911  1 */\n      0x01\n        /* \"contracts/RscUsdtEarn.sol\":3900:3906  _level */\n      dup3\n        /* \"contracts/RscUsdtEarn.sol\":3900:3911  _level == 1 */\n      sub\n        /* \"contracts/RscUsdtEarn.sol\":3896:3921  if (_level == 1) return 1 */\n      tag_316\n      jumpi\n        /* \"contracts/RscUsdtEarn.sol\":3920:3921  1 */\n      0x01\n        /* \"contracts/RscUsdtEarn.sol\":3913:3921  return 1 */\n      swap1\n      pop\n      jump(tag_315)\n        /* \"contracts/RscUsdtEarn.sol\":3896:3921  if (_level == 1) return 1 */\n    tag_316:\n        /* \"contracts/RscUsdtEarn.sol\":3942:3943  2 */\n      0x02\n        /* \"contracts/RscUsdtEarn.sol\":3932:3938  _level */\n      dup3\n        /* \"contracts/RscUsdtEarn.sol\":3932:3943  _level == 2 */\n      sub\n        /* \"contracts/RscUsdtEarn.sol\":3928:3954  if (_level == 2) return 10 */\n      tag_317\n      jumpi\n        /* \"contracts/RscUsdtEarn.sol\":3952:3954  10 */\n      0x0a\n        /* \"contracts/RscUsdtEarn.sol\":3945:3954  return 10 */\n      swap1\n      pop\n      jump(tag_315)\n        /* \"contracts/RscUsdtEarn.sol\":3928:3954  if (_level == 2) return 10 */\n    tag_317:\n        /* \"contracts/RscUsdtEarn.sol\":3975:3976  3 */\n      0x03\n        /* \"contracts/RscUsdtEarn.sol\":3965:3971  _level */\n      dup3\n        /* \"contracts/RscUsdtEarn.sol\":3965:3976  _level == 3 */\n      sub\n        /* \"contracts/RscUsdtEarn.sol\":3961:3988  if (_level == 3) return 100 */\n      tag_318\n      jumpi\n        /* \"contracts/RscUsdtEarn.sol\":3985:3988  100 */\n      0x64\n        /* \"contracts/RscUsdtEarn.sol\":3978:3988  return 100 */\n      swap1\n      pop\n      jump(tag_315)\n        /* \"contracts/RscUsdtEarn.sol\":3961:3988  if (_level == 3) return 100 */\n    tag_318:\n        /* \"contracts/RscUsdtEarn.sol\":4009:4010  4 */\n      0x04\n        /* \"contracts/RscUsdtEarn.sol\":3999:4005  _level */\n      dup3\n        /* \"contracts/RscUsdtEarn.sol\":3999:4010  _level == 4 */\n      sub\n        /* \"contracts/RscUsdtEarn.sol\":3995:4023  if (_level == 4) return 1000 */\n      tag_319\n      jumpi\n        /* \"contracts/RscUsdtEarn.sol\":4019:4023  1000 */\n      0x03e8\n        /* \"contracts/RscUsdtEarn.sol\":4012:4023  return 1000 */\n      swap1\n      pop\n      jump(tag_315)\n        /* \"contracts/RscUsdtEarn.sol\":3995:4023  if (_level == 4) return 1000 */\n    tag_319:\n        /* \"contracts/RscUsdtEarn.sol\":4044:4045  5 */\n      0x05\n        /* \"contracts/RscUsdtEarn.sol\":4034:4040  _level */\n      dup3\n        /* \"contracts/RscUsdtEarn.sol\":4034:4045  _level == 5 */\n      sub\n        /* \"contracts/RscUsdtEarn.sol\":4030:4059  if (_level == 5) return 10000 */\n      tag_320\n      jumpi\n        /* \"contracts/RscUsdtEarn.sol\":4054:4059  10000 */\n      0x2710\n        /* \"contracts/RscUsdtEarn.sol\":4047:4059  return 10000 */\n      swap1\n      pop\n      jump(tag_315)\n        /* \"contracts/RscUsdtEarn.sol\":4030:4059  if (_level == 5) return 10000 */\n    tag_320:\n        /* \"contracts/RscUsdtEarn.sol\":4066:4089  revert(\"Invalid level\") */\n      mload(0x40)\n      0x08c379a000000000000000000000000000000000000000000000000000000000\n      dup2\n      mstore\n      0x04\n      add\n      tag_321\n      swap1\n      tag_236\n      jump\t// in\n    tag_321:\n      mload(0x40)\n      dup1\n      swap2\n      sub\n      swap1\n      revert\n        /* \"contracts/RscUsdtEarn.sol\":3803:4093  function getReferralsRequiredForLevel(uint256 _level) internal pure returns (uint256) {... */\n    tag_315:\n      swap2\n      swap1\n      pop\n      jump\t// out\n        /* \"#utility.yul\":7:84   */\n    tag_322:\n        /* \"#utility.yul\":44:51   */\n      0x00\n        /* \"#utility.yul\":73:78   */\n      dup2\n        /* \"#utility.yul\":62:78   */\n      swap1\n      pop\n        /* \"#utility.yul\":7:84   */\n      swap2\n      swap1\n      pop\n      jump\t// out\n        /* \"#utility.yul\":90:208   */\n    tag_323:\n        /* \"#utility.yul\":177:201   */\n      tag_385\n        /* \"#utility.yul\":195:200   */\n      dup2\n        /* \"#utility.yul\":177:201   */\n      tag_322\n      jump\t// in\n    tag_385:\n        /* \"#utility.yul\":172:175   */\n      dup3\n        /* \"#utility.yul\":165:202   */\n      mstore\n        /* \"#utility.yul\":90:208   */\n      pop\n      pop\n      jump\t// out\n        /* \"#utility.yul\":214:436   */\n    tag_28:\n        /* \"#utility.yul\":307:311   */\n      0x00\n        /* \"#utility.yul\":345:347   */\n      0x20\n        /* \"#utility.yul\":334:343   */\n      dup3\n        /* \"#utility.yul\":330:348   */\n      add\n        /* \"#utility.yul\":322:348   */\n      swap1\n      pop\n        /* \"#utility.yul\":358:429   */\n      tag_387\n        /* \"#utility.yul\":426:427   */\n      0x00\n        /* \"#utility.yul\":415:424   */\n      dup4\n        /* \"#utility.yul\":411:428   */\n      add\n        /* \"#utility.yul\":402:408   */\n      dup5\n        /* \"#utility.yul\":358:429   */\n      tag_323\n      jump\t// in\n    tag_387:\n        /* \"#utility.yul\":214:436   */\n      swap3\n      swap2\n      pop\n      pop\n      jump\t// out\n        /* \"#utility.yul\":523:640   */\n    tag_325:\n        /* \"#utility.yul\":632:633   */\n      0x00\n        /* \"#utility.yul\":629:630   */\n      dup1\n        /* \"#utility.yul\":622:634   */\n      revert\n        /* \"#utility.yul\":769:891   */\n    tag_327:\n        /* \"#utility.yul\":842:866   */\n      tag_392\n        /* \"#utility.yul\":860:865   */\n      dup2\n        /* \"#utility.yul\":842:866   */\n      tag_322\n      jump\t// in\n    tag_392:\n        /* \"#utility.yul\":835:840   */\n      dup2\n        /* \"#utility.yul\":832:867   */\n      eq\n        /* \"#utility.yul\":822:885   */\n      tag_393\n      jumpi\n        /* \"#utility.yul\":881:882   */\n      0x00\n        /* \"#utility.yul\":878:879   */\n      dup1\n        /* \"#utility.yul\":871:883   */\n      revert\n        /* \"#utility.yul\":822:885   */\n    tag_393:\n        /* \"#utility.yul\":769:891   */\n      pop\n      jump\t// out\n        /* \"#utility.yul\":897:1036   */\n    tag_328:\n        /* \"#utility.yul\":943:948   */\n      0x00\n        /* \"#utility.yul\":981:987   */\n      dup2\n        /* \"#utility.yul\":968:988   */\n      calldataload\n        /* \"#utility.yul\":959:988   */\n      swap1\n      pop\n        /* \"#utility.yul\":997:1030   */\n      tag_395\n        /* \"#utility.yul\":1024:1029   */\n      dup2\n        /* \"#utility.yul\":997:1030   */\n      tag_327\n      jump\t// in\n    tag_395:\n        /* \"#utility.yul\":897:1036   */\n      swap3\n      swap2\n      pop\n      pop\n      jump\t// out\n        /* \"#utility.yul\":1042:1371   */\n    tag_36:\n        /* \"#utility.yul\":1101:1107   */\n      0x00\n        /* \"#utility.yul\":1150:1152   */\n      0x20\n        /* \"#utility.yul\":1138:1147   */\n      dup3\n        /* \"#utility.yul\":1129:1136   */\n      dup5\n        /* \"#utility.yul\":1125:1148   */\n      sub\n        /* \"#utility.yul\":1121:1153   */\n      slt\n        /* \"#utility.yul\":1118:1237   */\n      iszero\n      tag_397\n      jumpi\n        /* \"#utility.yul\":1156:1235   */\n      tag_398\n      tag_325\n      jump\t// in\n    tag_398:\n        /* \"#utility.yul\":1118:1237   */\n    tag_397:\n        /* \"#utility.yul\":1276:1277   */\n      0x00\n        /* \"#utility.yul\":1301:1354   */\n      tag_399\n        /* \"#utility.yul\":1346:1353   */\n      dup5\n        /* \"#utility.yul\":1337:1343   */\n      dup3\n        /* \"#utility.yul\":1326:1335   */\n      dup6\n        /* \"#utility.yul\":1322:1344   */\n      add\n        /* \"#utility.yul\":1301:1354   */\n      tag_328\n      jump\t// in\n    tag_399:\n        /* \"#utility.yul\":1291:1354   */\n      swap2\n      pop\n        /* \"#utility.yul\":1247:1364   */\n      pop\n        /* \"#utility.yul\":1042:1371   */\n      swap3\n      swap2\n      pop\n      pop\n      jump\t// out\n        /* \"#utility.yul\":1377:1503   */\n    tag_329:\n        /* \"#utility.yul\":1414:1421   */\n      0x00\n        /* \"#utility.yul\":1454:1496   */\n      0xffffffffffffffffffffffffffffffffffffffff\n        /* \"#utility.yul\":1447:1452   */\n      dup3\n        /* \"#utility.yul\":1443:1497   */\n      and\n        /* \"#utility.yul\":1432:1497   */\n      swap1\n      pop\n        /* \"#utility.yul\":1377:1503   */\n      swap2\n      swap1\n      pop\n      jump\t// out\n        /* \"#utility.yul\":1509:1605   */\n    tag_330:\n        /* \"#utility.yul\":1546:1553   */\n      0x00\n        /* \"#utility.yul\":1575:1599   */\n      tag_402\n        /* \"#utility.yul\":1593:1598   */\n      dup3\n        /* \"#utility.yul\":1575:1599   */\n      tag_329\n      jump\t// in\n    tag_402:\n        /* \"#utility.yul\":1564:1599   */\n      swap1\n      pop\n        /* \"#utility.yul\":1509:1605   */\n      swap2\n      swap1\n      pop\n      jump\t// out\n        /* \"#utility.yul\":1611:1733   */\n    tag_331:\n        /* \"#utility.yul\":1684:1708   */\n      tag_404\n        /* \"#utility.yul\":1702:1707   */\n      dup2\n        /* \"#utility.yul\":1684:1708   */\n      tag_330\n      jump\t// in\n    tag_404:\n        /* \"#utility.yul\":1677:1682   */\n      dup2\n        /* \"#utility.yul\":1674:1709   */\n      eq\n        /* \"#utility.yul\":1664:1727   */\n      tag_405\n      jumpi\n        /* \"#utility.yul\":1723:1724   */\n      0x00\n        /* \"#utility.yul\":1720:1721   */\n      dup1\n        /* \"#utility.yul\":1713:1725   */\n      revert\n        /* \"#utility.yul\":1664:1727   */\n    tag_405:\n        /* \"#utility.yul\":1611:1733   */\n      pop\n      jump\t// out\n        /* \"#utility.yul\":1739:1878   */\n    tag_332:\n        /* \"#utility.yul\":1785:1790   */\n      0x00\n        /* \"#utility.yul\":1823:1829   */\n      dup2\n        /* \"#utility.yul\":1810:1830   */\n      calldataload\n        /* \"#utility.yul\":1801:1830   */\n      swap1\n      pop\n        /* \"#utility.yul\":1839:1872   */\n      tag_407\n        /* \"#utility.yul\":1866:1871   */\n      dup2\n        /* \"#utility.yul\":1839:1872   */\n      tag_331\n      jump\t// in\n    tag_407:\n        /* \"#utility.yul\":1739:1878   */\n      swap3\n      swap2\n      pop\n      pop\n      jump\t// out\n        /* \"#utility.yul\":1884:2213   */\n    tag_42:\n        /* \"#utility.yul\":1943:1949   */\n      0x00\n        /* \"#utility.yul\":1992:1994   */\n      0x20\n        /* \"#utility.yul\":1980:1989   */\n      dup3\n        /* \"#utility.yul\":1971:1978   */\n      dup5\n        /* \"#utility.yul\":1967:1990   */\n      sub\n        /* \"#utility.yul\":1963:1995   */\n      slt\n        /* \"#utility.yul\":1960:2079   */\n      iszero\n      tag_409\n      jumpi\n        /* \"#utility.yul\":1998:2077   */\n      tag_410\n      tag_325\n      jump\t// in\n    tag_410:\n        /* \"#utility.yul\":1960:2079   */\n    tag_409:\n        /* \"#utility.yul\":2118:2119   */\n      0x00\n        /* \"#utility.yul\":2143:2196   */\n      tag_411\n        /* \"#utility.yul\":2188:2195   */\n      dup5\n        /* \"#utility.yul\":2179:2185   */\n      dup3\n        /* \"#utility.yul\":2168:2177   */\n      dup6\n        /* \"#utility.yul\":2164:2186   */\n      add\n        /* \"#utility.yul\":2143:2196   */\n      tag_332\n      jump\t// in\n    tag_411:\n        /* \"#utility.yul\":2133:2196   */\n      swap2\n      pop\n        /* \"#utility.yul\":2089:2206   */\n      pop\n        /* \"#utility.yul\":1884:2213   */\n      swap3\n      swap2\n      pop\n      pop\n      jump\t// out\n        /* \"#utility.yul\":2219:2333   */\n    tag_333:\n        /* \"#utility.yul\":2286:2292   */\n      0x00\n        /* \"#utility.yul\":2320:2325   */\n      dup2\n        /* \"#utility.yul\":2314:2326   */\n      mload\n        /* \"#utility.yul\":2304:2326   */\n      swap1\n      pop\n        /* \"#utility.yul\":2219:2333   */\n      swap2\n      swap1\n      pop\n      jump\t// out\n        /* \"#utility.yul\":2339:2523   */\n    tag_334:\n        /* \"#utility.yul\":2438:2449   */\n      0x00\n        /* \"#utility.yul\":2472:2478   */\n      dup3\n        /* \"#utility.yul\":2467:2470   */\n      dup3\n        /* \"#utility.yul\":2460:2479   */\n      mstore\n        /* \"#utility.yul\":2512:2516   */\n      0x20\n        /* \"#utility.yul\":2507:2510   */\n      dup3\n        /* \"#utility.yul\":2503:2517   */\n      add\n        /* \"#utility.yul\":2488:2517   */\n      swap1\n      pop\n        /* \"#utility.yul\":2339:2523   */\n      swap3\n      swap2\n      pop\n      pop\n      jump\t// out\n        /* \"#utility.yul\":2529:2661   */\n    tag_335:\n        /* \"#utility.yul\":2596:2600   */\n      0x00\n        /* \"#utility.yul\":2619:2622   */\n      dup2\n        /* \"#utility.yul\":2611:2622   */\n      swap1\n      pop\n        /* \"#utility.yul\":2649:2653   */\n      0x20\n        /* \"#utility.yul\":2644:2647   */\n      dup3\n        /* \"#utility.yul\":2640:2654   */\n      add\n        /* \"#utility.yul\":2632:2654   */\n      swap1\n      pop\n        /* \"#utility.yul\":2529:2661   */\n      swap2\n      swap1\n      pop\n      jump\t// out\n        /* \"#utility.yul\":2667:2775   */\n    tag_336:\n        /* \"#utility.yul\":2744:2768   */\n      tag_416\n        /* \"#utility.yul\":2762:2767   */\n      dup2\n        /* \"#utility.yul\":2744:2768   */\n      tag_330\n      jump\t// in\n    tag_416:\n        /* \"#utility.yul\":2739:2742   */\n      dup3\n        /* \"#utility.yul\":2732:2769   */\n      mstore\n        /* \"#utility.yul\":2667:2775   */\n      pop\n      pop\n      jump\t// out\n        /* \"#utility.yul\":2781:2960   */\n    tag_337:\n        /* \"#utility.yul\":2850:2860   */\n      0x00\n        /* \"#utility.yul\":2871:2917   */\n      tag_418\n        /* \"#utility.yul\":2913:2916   */\n      dup4\n        /* \"#utility.yul\":2905:2911   */\n      dup4\n        /* \"#utility.yul\":2871:2917   */\n      tag_336\n      jump\t// in\n    tag_418:\n        /* \"#utility.yul\":2949:2953   */\n      0x20\n        /* \"#utility.yul\":2944:2947   */\n      dup4\n        /* \"#utility.yul\":2940:2954   */\n      add\n        /* \"#utility.yul\":2926:2954   */\n      swap1\n      pop\n        /* \"#utility.yul\":2781:2960   */\n      swap3\n      swap2\n      pop\n      pop\n      jump\t// out\n        /* \"#utility.yul\":2966:3079   */\n    tag_338:\n        /* \"#utility.yul\":3036:3040   */\n      0x00\n        /* \"#utility.yul\":3068:3072   */\n      0x20\n        /* \"#utility.yul\":3063:3066   */\n      dup3\n        /* \"#utility.yul\":3059:3073   */\n      add\n        /* \"#utility.yul\":3051:3073   */\n      swap1\n      pop\n        /* \"#utility.yul\":2966:3079   */\n      swap2\n      swap1\n      pop\n      jump\t// out\n        /* \"#utility.yul\":3115:3847   */\n    tag_339:\n        /* \"#utility.yul\":3234:3237   */\n      0x00\n        /* \"#utility.yul\":3263:3317   */\n      tag_421\n        /* \"#utility.yul\":3311:3316   */\n      dup3\n        /* \"#utility.yul\":3263:3317   */\n      tag_333\n      jump\t// in\n    tag_421:\n        /* \"#utility.yul\":3333:3419   */\n      tag_422\n        /* \"#utility.yul\":3412:3418   */\n      dup2\n        /* \"#utility.yul\":3407:3410   */\n      dup6\n        /* \"#utility.yul\":3333:3419   */\n      tag_334\n      jump\t// in\n    tag_422:\n        /* \"#utility.yul\":3326:3419   */\n      swap4\n      pop\n        /* \"#utility.yul\":3443:3499   */\n      tag_423\n        /* \"#utility.yul\":3493:3498   */\n      dup4\n        /* \"#utility.yul\":3443:3499   */\n      tag_335\n      jump\t// in\n    tag_423:\n        /* \"#utility.yul\":3522:3529   */\n      dup1\n        /* \"#utility.yul\":3553:3554   */\n      0x00\n        /* \"#utility.yul\":3538:3822   */\n    tag_424:\n        /* \"#utility.yul\":3563:3569   */\n      dup4\n        /* \"#utility.yul\":3560:3561   */\n      dup2\n        /* \"#utility.yul\":3557:3570   */\n      lt\n        /* \"#utility.yul\":3538:3822   */\n      iszero\n      tag_426\n      jumpi\n        /* \"#utility.yul\":3639:3645   */\n      dup2\n        /* \"#utility.yul\":3633:3646   */\n      mload\n        /* \"#utility.yul\":3666:3729   */\n      tag_427\n        /* \"#utility.yul\":3725:3728   */\n      dup9\n        /* \"#utility.yul\":3710:3723   */\n      dup3\n        /* \"#utility.yul\":3666:3729   */\n      tag_337\n      jump\t// in\n    tag_427:\n        /* \"#utility.yul\":3659:3729   */\n      swap8\n      pop\n        /* \"#utility.yul\":3752:3812   */\n      tag_428\n        /* \"#utility.yul\":3805:3811   */\n      dup4\n        /* \"#utility.yul\":3752:3812   */\n      tag_338\n      jump\t// in\n    tag_428:\n        /* \"#utility.yul\":3742:3812   */\n      swap3\n      pop\n        /* \"#utility.yul\":3598:3822   */\n      pop\n        /* \"#utility.yul\":3585:3586   */\n      0x01\n        /* \"#utility.yul\":3582:3583   */\n      dup2\n        /* \"#utility.yul\":3578:3587   */\n      add\n        /* \"#utility.yul\":3573:3587   */\n      swap1\n      pop\n        /* \"#utility.yul\":3538:3822   */\n      jump(tag_424)\n    tag_426:\n        /* \"#utility.yul\":3542:3556   */\n      pop\n        /* \"#utility.yul\":3838:3841   */\n      dup6\n        /* \"#utility.yul\":3831:3841   */\n      swap4\n      pop\n        /* \"#utility.yul\":3239:3847   */\n      pop\n      pop\n      pop\n        /* \"#utility.yul\":3115:3847   */\n      swap3\n      swap2\n      pop\n      pop\n      jump\t// out\n        /* \"#utility.yul\":3853:4226   */\n    tag_49:\n        /* \"#utility.yul\":3996:4000   */\n      0x00\n        /* \"#utility.yul\":4034:4036   */\n      0x20\n        /* \"#utility.yul\":4023:4032   */\n      dup3\n        /* \"#utility.yul\":4019:4037   */\n      add\n        /* \"#utility.yul\":4011:4037   */\n      swap1\n      pop\n        /* \"#utility.yul\":4083:4092   */\n      dup2\n        /* \"#utility.yul\":4077:4081   */\n      dup2\n        /* \"#utility.yul\":4073:4093   */\n      sub\n        /* \"#utility.yul\":4069:4070   */\n      0x00\n        /* \"#utility.yul\":4058:4067   */\n      dup4\n        /* \"#utility.yul\":4054:4071   */\n      add\n        /* \"#utility.yul\":4047:4094   */\n      mstore\n        /* \"#utility.yul\":4111:4219   */\n      tag_430\n        /* \"#utility.yul\":4214:4218   */\n      dup2\n        /* \"#utility.yul\":4205:4211   */\n      dup5\n        /* \"#utility.yul\":4111:4219   */\n      tag_339\n      jump\t// in\n    tag_430:\n        /* \"#utility.yul\":4103:4219   */\n      swap1\n      pop\n        /* \"#utility.yul\":3853:4226   */\n      swap3\n      swap2\n      pop\n      pop\n      jump\t// out\n        /* \"#utility.yul\":4232:4350   */\n    tag_340:\n        /* \"#utility.yul\":4319:4343   */\n      tag_432\n        /* \"#utility.yul\":4337:4342   */\n      dup2\n        /* \"#utility.yul\":4319:4343   */\n      tag_330\n      jump\t// in\n    tag_432:\n        /* \"#utility.yul\":4314:4317   */\n      dup3\n        /* \"#utility.yul\":4307:4344   */\n      mstore\n        /* \"#utility.yul\":4232:4350   */\n      pop\n      pop\n      jump\t// out\n        /* \"#utility.yul\":4356:4578   */\n    tag_57:\n        /* \"#utility.yul\":4449:4453   */\n      0x00\n        /* \"#utility.yul\":4487:4489   */\n      0x20\n        /* \"#utility.yul\":4476:4485   */\n      dup3\n        /* \"#utility.yul\":4472:4490   */\n      add\n        /* \"#utility.yul\":4464:4490   */\n      swap1\n      pop\n        /* \"#utility.yul\":4500:4571   */\n      tag_434\n        /* \"#utility.yul\":4568:4569   */\n      0x00\n        /* \"#utility.yul\":4557:4566   */\n      dup4\n        /* \"#utility.yul\":4553:4570   */\n      add\n        /* \"#utility.yul\":4544:4550   */\n      dup5\n        /* \"#utility.yul\":4500:4571   */\n      tag_340\n      jump\t// in\n    tag_434:\n        /* \"#utility.yul\":4356:4578   */\n      swap3\n      swap2\n      pop\n      pop\n      jump\t// out\n        /* \"#utility.yul\":4584:4674   */\n    tag_341:\n        /* \"#utility.yul\":4618:4625   */\n      0x00\n        /* \"#utility.yul\":4661:4666   */\n      dup2\n        /* \"#utility.yul\":4654:4667   */\n      iszero\n        /* \"#utility.yul\":4647:4668   */\n      iszero\n        /* \"#utility.yul\":4636:4668   */\n      swap1\n      pop\n        /* \"#utility.yul\":4584:4674   */\n      swap2\n      swap1\n      pop\n      jump\t// out\n        /* \"#utility.yul\":4680:4789   */\n    tag_342:\n        /* \"#utility.yul\":4761:4782   */\n      tag_437\n        /* \"#utility.yul\":4776:4781   */\n      dup2\n        /* \"#utility.yul\":4761:4782   */\n      tag_341\n      jump\t// in\n    tag_437:\n        /* \"#utility.yul\":4756:4759   */\n      dup3\n        /* \"#utility.yul\":4749:4783   */\n      mstore\n        /* \"#utility.yul\":4680:4789   */\n      pop\n      pop\n      jump\t// out\n        /* \"#utility.yul\":4795:5447   */\n    tag_83:\n        /* \"#utility.yul\":4994:4998   */\n      0x00\n        /* \"#utility.yul\":5032:5035   */\n      0xa0\n        /* \"#utility.yul\":5021:5030   */\n      dup3\n        /* \"#utility.yul\":5017:5036   */\n      add\n        /* \"#utility.yul\":5009:5036   */\n      swap1\n      pop\n        /* \"#utility.yul\":5046:5117   */\n      tag_439\n        /* \"#utility.yul\":5114:5115   */\n      0x00\n        /* \"#utility.yul\":5103:5112   */\n      dup4\n        /* \"#utility.yul\":5099:5116   */\n      add\n        /* \"#utility.yul\":5090:5096   */\n      dup9\n        /* \"#utility.yul\":5046:5117   */\n      tag_340\n      jump\t// in\n    tag_439:\n        /* \"#utility.yul\":5127:5199   */\n      tag_440\n        /* \"#utility.yul\":5195:5197   */\n      0x20\n        /* \"#utility.yul\":5184:5193   */\n      dup4\n        /* \"#utility.yul\":5180:5198   */\n      add\n        /* \"#utility.yul\":5171:5177   */\n      dup8\n        /* \"#utility.yul\":5127:5199   */\n      tag_323\n      jump\t// in\n    tag_440:\n        /* \"#utility.yul\":5209:5281   */\n      tag_441\n        /* \"#utility.yul\":5277:5279   */\n      0x40\n        /* \"#utility.yul\":5266:5275   */\n      dup4\n        /* \"#utility.yul\":5262:5280   */\n      add\n        /* \"#utility.yul\":5253:5259   */\n      dup7\n        /* \"#utility.yul\":5209:5281   */\n      tag_323\n      jump\t// in\n    tag_441:\n        /* \"#utility.yul\":5291:5363   */\n      tag_442\n        /* \"#utility.yul\":5359:5361   */\n      0x60\n        /* \"#utility.yul\":5348:5357   */\n      dup4\n        /* \"#utility.yul\":5344:5362   */\n      add\n        /* \"#utility.yul\":5335:5341   */\n      dup6\n        /* \"#utility.yul\":5291:5363   */\n      tag_323\n      jump\t// in\n    tag_442:\n        /* \"#utility.yul\":5373:5440   */\n      tag_443\n        /* \"#utility.yul\":5435:5438   */\n      0x80\n        /* \"#utility.yul\":5424:5433   */\n      dup4\n        /* \"#utility.yul\":5420:5439   */\n      add\n        /* \"#utility.yul\":5411:5417   */\n      dup5\n        /* \"#utility.yul\":5373:5440   */\n      tag_342\n      jump\t// in\n    tag_443:\n        /* \"#utility.yul\":4795:5447   */\n      swap7\n      swap6\n      pop\n      pop\n      pop\n      pop\n      pop\n      pop\n      jump\t// out\n        /* \"#utility.yul\":5453:5927   */\n    tag_91:\n        /* \"#utility.yul\":5521:5527   */\n      0x00\n        /* \"#utility.yul\":5529:5535   */\n      dup1\n        /* \"#utility.yul\":5578:5580   */\n      0x40\n        /* \"#utility.yul\":5566:5575   */\n      dup4\n        /* \"#utility.yul\":5557:5564   */\n      dup6\n        /* \"#utility.yul\":5553:5576   */\n      sub\n        /* \"#utility.yul\":5549:5581   */\n      slt\n        /* \"#utility.yul\":5546:5665   */\n      iszero\n      tag_445\n      jumpi\n        /* \"#utility.yul\":5584:5663   */\n      tag_446\n      tag_325\n      jump\t// in\n    tag_446:\n        /* \"#utility.yul\":5546:5665   */\n    tag_445:\n        /* \"#utility.yul\":5704:5705   */\n      0x00\n        /* \"#utility.yul\":5729:5782   */\n      tag_447\n        /* \"#utility.yul\":5774:5781   */\n      dup6\n        /* \"#utility.yul\":5765:5771   */\n      dup3\n        /* \"#utility.yul\":5754:5763   */\n      dup7\n        /* \"#utility.yul\":5750:5772   */\n      add\n        /* \"#utility.yul\":5729:5782   */\n      tag_328\n      jump\t// in\n    tag_447:\n        /* \"#utility.yul\":5719:5782   */\n      swap3\n      pop\n        /* \"#utility.yul\":5675:5792   */\n      pop\n        /* \"#utility.yul\":5831:5833   */\n      0x20\n        /* \"#utility.yul\":5857:5910   */\n      tag_448\n        /* \"#utility.yul\":5902:5909   */\n      dup6\n        /* \"#utility.yul\":5893:5899   */\n      dup3\n        /* \"#utility.yul\":5882:5891   */\n      dup7\n        /* \"#utility.yul\":5878:5900   */\n      add\n        /* \"#utility.yul\":5857:5910   */\n      tag_328\n      jump\t// in\n    tag_448:\n        /* \"#utility.yul\":5847:5910   */\n      swap2\n      pop\n        /* \"#utility.yul\":5802:5920   */\n      pop\n        /* \"#utility.yul\":5453:5927   */\n      swap3\n      pop\n      swap3\n      swap1\n      pop\n      jump\t// out\n        /* \"#utility.yul\":5933:6037   */\n    tag_343:\n        /* \"#utility.yul\":5978:5985   */\n      0x00\n        /* \"#utility.yul\":6007:6031   */\n      tag_450\n        /* \"#utility.yul\":6025:6030   */\n      dup3\n        /* \"#utility.yul\":6007:6031   */\n      tag_329\n      jump\t// in\n    tag_450:\n        /* \"#utility.yul\":5996:6031   */\n      swap1\n      pop\n        /* \"#utility.yul\":5933:6037   */\n      swap2\n      swap1\n      pop\n      jump\t// out\n        /* \"#utility.yul\":6043:6181   */\n    tag_344:\n        /* \"#utility.yul\":6124:6156   */\n      tag_452\n        /* \"#utility.yul\":6150:6155   */\n      dup2\n        /* \"#utility.yul\":6124:6156   */\n      tag_343\n      jump\t// in\n    tag_452:\n        /* \"#utility.yul\":6117:6122   */\n      dup2\n        /* \"#utility.yul\":6114:6157   */\n      eq\n        /* \"#utility.yul\":6104:6175   */\n      tag_453\n      jumpi\n        /* \"#utility.yul\":6171:6172   */\n      0x00\n        /* \"#utility.yul\":6168:6169   */\n      dup1\n        /* \"#utility.yul\":6161:6173   */\n      revert\n        /* \"#utility.yul\":6104:6175   */\n    tag_453:\n        /* \"#utility.yul\":6043:6181   */\n      pop\n      jump\t// out\n        /* \"#utility.yul\":6187:6342   */\n    tag_345:\n        /* \"#utility.yul\":6241:6246   */\n      0x00\n        /* \"#utility.yul\":6279:6285   */\n      dup2\n        /* \"#utility.yul\":6266:6286   */\n      calldataload\n        /* \"#utility.yul\":6257:6286   */\n      swap1\n      pop\n        /* \"#utility.yul\":6295:6336   */\n      tag_455\n        /* \"#utility.yul\":6330:6335   */\n      dup2\n        /* \"#utility.yul\":6295:6336   */\n      tag_344\n      jump\t// in\n    tag_455:\n        /* \"#utility.yul\":6187:6342   */\n      swap3\n      swap2\n      pop\n      pop\n      jump\t// out\n        /* \"#utility.yul\":6348:6838   */\n    tag_106:\n        /* \"#utility.yul\":6424:6430   */\n      0x00\n        /* \"#utility.yul\":6432:6438   */\n      dup1\n        /* \"#utility.yul\":6481:6483   */\n      0x40\n        /* \"#utility.yul\":6469:6478   */\n      dup4\n        /* \"#utility.yul\":6460:6467   */\n      dup6\n        /* \"#utility.yul\":6456:6479   */\n      sub\n        /* \"#utility.yul\":6452:6484   */\n      slt\n        /* \"#utility.yul\":6449:6568   */\n      iszero\n      tag_457\n      jumpi\n        /* \"#utility.yul\":6487:6566   */\n      tag_458\n      tag_325\n      jump\t// in\n    tag_458:\n        /* \"#utility.yul\":6449:6568   */\n    tag_457:\n        /* \"#utility.yul\":6607:6608   */\n      0x00\n        /* \"#utility.yul\":6632:6693   */\n      tag_459\n        /* \"#utility.yul\":6685:6692   */\n      dup6\n        /* \"#utility.yul\":6676:6682   */\n      dup3\n        /* \"#utility.yul\":6665:6674   */\n      dup7\n        /* \"#utility.yul\":6661:6683   */\n      add\n        /* \"#utility.yul\":6632:6693   */\n      tag_345\n      jump\t// in\n    tag_459:\n        /* \"#utility.yul\":6622:6693   */\n      swap3\n      pop\n        /* \"#utility.yul\":6578:6703   */\n      pop\n        /* \"#utility.yul\":6742:6744   */\n      0x20\n        /* \"#utility.yul\":6768:6821   */\n      tag_460\n        /* \"#utility.yul\":6813:6820   */\n      dup6\n        /* \"#utility.yul\":6804:6810   */\n      dup3\n        /* \"#utility.yul\":6793:6802   */\n      dup7\n        /* \"#utility.yul\":6789:6811   */\n      add\n        /* \"#utility.yul\":6768:6821   */\n      tag_328\n      jump\t// in\n    tag_460:\n        /* \"#utility.yul\":6758:6821   */\n      swap2\n      pop\n        /* \"#utility.yul\":6713:6831   */\n      pop\n        /* \"#utility.yul\":6348:6838   */\n      swap3\n      pop\n      swap3\n      swap1\n      pop\n      jump\t// out\n        /* \"#utility.yul\":6844:7013   */\n    tag_346:\n        /* \"#utility.yul\":6928:6939   */\n      0x00\n        /* \"#utility.yul\":6962:6968   */\n      dup3\n        /* \"#utility.yul\":6957:6960   */\n      dup3\n        /* \"#utility.yul\":6950:6969   */\n      mstore\n        /* \"#utility.yul\":7002:7006   */\n      0x20\n        /* \"#utility.yul\":6997:7000   */\n      dup3\n        /* \"#utility.yul\":6993:7007   */\n      add\n        /* \"#utility.yul\":6978:7007   */\n      swap1\n      pop\n        /* \"#utility.yul\":6844:7013   */\n      swap3\n      swap2\n      pop\n      pop\n      jump\t// out\n        /* \"#utility.yul\":7019:7183   */\n    tag_347:\n        /* \"#utility.yul\":7159:7175   */\n      0x4e6f7420617574686f72697a6564000000000000000000000000000000000000\n        /* \"#utility.yul\":7155:7156   */\n      0x00\n        /* \"#utility.yul\":7147:7153   */\n      dup3\n        /* \"#utility.yul\":7143:7157   */\n      add\n        /* \"#utility.yul\":7136:7176   */\n      mstore\n        /* \"#utility.yul\":7019:7183   */\n      pop\n      jump\t// out\n        /* \"#utility.yul\":7189:7555   */\n    tag_348:\n        /* \"#utility.yul\":7331:7334   */\n      0x00\n        /* \"#utility.yul\":7352:7419   */\n      tag_464\n        /* \"#utility.yul\":7416:7418   */\n      0x0e\n        /* \"#utility.yul\":7411:7414   */\n      dup4\n        /* \"#utility.yul\":7352:7419   */\n      tag_346\n      jump\t// in\n    tag_464:\n        /* \"#utility.yul\":7345:7419   */\n      swap2\n      pop\n        /* \"#utility.yul\":7428:7521   */\n      tag_465\n        /* \"#utility.yul\":7517:7520   */\n      dup3\n        /* \"#utility.yul\":7428:7521   */\n      tag_347\n      jump\t// in\n    tag_465:\n        /* \"#utility.yul\":7546:7548   */\n      0x20\n        /* \"#utility.yul\":7541:7544   */\n      dup3\n        /* \"#utility.yul\":7537:7549   */\n      add\n        /* \"#utility.yul\":7530:7549   */\n      swap1\n      pop\n        /* \"#utility.yul\":7189:7555   */\n      swap2\n      swap1\n      pop\n      jump\t// out\n        /* \"#utility.yul\":7561:7980   */\n    tag_124:\n        /* \"#utility.yul\":7727:7731   */\n      0x00\n        /* \"#utility.yul\":7765:7767   */\n      0x20\n        /* \"#utility.yul\":7754:7763   */\n      dup3\n        /* \"#utility.yul\":7750:7768   */\n      add\n        /* \"#utility.yul\":7742:7768   */\n      swap1\n      pop\n        /* \"#utility.yul\":7814:7823   */\n      dup2\n        /* \"#utility.yul\":7808:7812   */\n      dup2\n        /* \"#utility.yul\":7804:7824   */\n      sub\n        /* \"#utility.yul\":7800:7801   */\n      0x00\n        /* \"#utility.yul\":7789:7798   */\n      dup4\n        /* \"#utility.yul\":7785:7802   */\n      add\n        /* \"#utility.yul\":7778:7825   */\n      mstore\n        /* \"#utility.yul\":7842:7973   */\n      tag_467\n        /* \"#utility.yul\":7968:7972   */\n      dup2\n        /* \"#utility.yul\":7842:7973   */\n      tag_348\n      jump\t// in\n    tag_467:\n        /* \"#utility.yul\":7834:7973   */\n      swap1\n      pop\n        /* \"#utility.yul\":7561:7980   */\n      swap2\n      swap1\n      pop\n      jump\t// out\n        /* \"#utility.yul\":7986:8207   */\n    tag_349:\n        /* \"#utility.yul\":8126:8160   */\n      0x4e6577206465762077616c6c657420697320746865207a65726f206164647265\n        /* \"#utility.yul\":8122:8123   */\n      0x00\n        /* \"#utility.yul\":8114:8120   */\n      dup3\n        /* \"#utility.yul\":8110:8124   */\n      add\n        /* \"#utility.yul\":8103:8161   */\n      mstore\n        /* \"#utility.yul\":8195:8199   */\n      0x7373000000000000000000000000000000000000000000000000000000000000\n        /* \"#utility.yul\":8190:8192   */\n      0x20\n        /* \"#utility.yul\":8182:8188   */\n      dup3\n        /* \"#utility.yul\":8178:8193   */\n      add\n        /* \"#utility.yul\":8171:8200   */\n      mstore\n        /* \"#utility.yul\":7986:8207   */\n      pop\n      jump\t// out\n        /* \"#utility.yul\":8213:8579   */\n    tag_350:\n        /* \"#utility.yul\":8355:8358   */\n      0x00\n        /* \"#utility.yul\":8376:8443   */\n      tag_470\n        /* \"#utility.yul\":8440:8442   */\n      0x22\n        /* \"#utility.yul\":8435:8438   */\n      dup4\n        /* \"#utility.yul\":8376:8443   */\n      tag_346\n      jump\t// in\n    tag_470:\n        /* \"#utility.yul\":8369:8443   */\n      swap2\n      pop\n        /* \"#utility.yul\":8452:8545   */\n      tag_471\n        /* \"#utility.yul\":8541:8544   */\n      dup3\n        /* \"#utility.yul\":8452:8545   */\n      tag_349\n      jump\t// in\n    tag_471:\n        /* \"#utility.yul\":8570:8572   */\n      0x40\n        /* \"#utility.yul\":8565:8568   */\n      dup3\n        /* \"#utility.yul\":8561:8573   */\n      add\n        /* \"#utility.yul\":8554:8573   */\n      swap1\n      pop\n        /* \"#utility.yul\":8213:8579   */\n      swap2\n      swap1\n      pop\n      jump\t// out\n        /* \"#utility.yul\":8585:9004   */\n    tag_128:\n        /* \"#utility.yul\":8751:8755   */\n      0x00\n        /* \"#utility.yul\":8789:8791   */\n      0x20\n        /* \"#utility.yul\":8778:8787   */\n      dup3\n        /* \"#utility.yul\":8774:8792   */\n      add\n        /* \"#utility.yul\":8766:8792   */\n      swap1\n      pop\n        /* \"#utility.yul\":8838:8847   */\n      dup2\n        /* \"#utility.yul\":8832:8836   */\n      dup2\n        /* \"#utility.yul\":8828:8848   */\n      sub\n        /* \"#utility.yul\":8824:8825   */\n      0x00\n        /* \"#utility.yul\":8813:8822   */\n      dup4\n        /* \"#utility.yul\":8809:8826   */\n      add\n        /* \"#utility.yul\":8802:8849   */\n      mstore\n        /* \"#utility.yul\":8866:8997   */\n      tag_473\n        /* \"#utility.yul\":8992:8996   */\n      dup2\n        /* \"#utility.yul\":8866:8997   */\n      tag_350\n      jump\t// in\n    tag_473:\n        /* \"#utility.yul\":8858:8997   */\n      swap1\n      pop\n        /* \"#utility.yul\":8585:9004   */\n      swap2\n      swap1\n      pop\n      jump\t// out\n        /* \"#utility.yul\":9010:9190   */\n    tag_351:\n        /* \"#utility.yul\":9058:9135   */\n      0x4e487b7100000000000000000000000000000000000000000000000000000000\n        /* \"#utility.yul\":9055:9056   */\n      0x00\n        /* \"#utility.yul\":9048:9136   */\n      mstore\n        /* \"#utility.yul\":9155:9159   */\n      0x11\n        /* \"#utility.yul\":9152:9153   */\n      0x04\n        /* \"#utility.yul\":9145:9160   */\n      mstore\n        /* \"#utility.yul\":9179:9183   */\n      0x24\n        /* \"#utility.yul\":9176:9177   */\n      0x00\n        /* \"#utility.yul\":9169:9184   */\n      revert\n        /* \"#utility.yul\":9196:9387   */\n    tag_137:\n        /* \"#utility.yul\":9236:9239   */\n      0x00\n        /* \"#utility.yul\":9255:9275   */\n      tag_476\n        /* \"#utility.yul\":9273:9274   */\n      dup3\n        /* \"#utility.yul\":9255:9275   */\n      tag_322\n      jump\t// in\n    tag_476:\n        /* \"#utility.yul\":9250:9275   */\n      swap2\n      pop\n        /* \"#utility.yul\":9289:9309   */\n      tag_477\n        /* \"#utility.yul\":9307:9308   */\n      dup4\n        /* \"#utility.yul\":9289:9309   */\n      tag_322\n      jump\t// in\n    tag_477:\n        /* \"#utility.yul\":9284:9309   */\n      swap3\n      pop\n        /* \"#utility.yul\":9332:9333   */\n      dup3\n        /* \"#utility.yul\":9329:9330   */\n      dup3\n        /* \"#utility.yul\":9325:9334   */\n      add\n        /* \"#utility.yul\":9318:9334   */\n      swap1\n      pop\n        /* \"#utility.yul\":9353:9356   */\n      dup1\n        /* \"#utility.yul\":9350:9351   */\n      dup3\n        /* \"#utility.yul\":9347:9357   */\n      gt\n        /* \"#utility.yul\":9344:9380   */\n      iszero\n      tag_478\n      jumpi\n        /* \"#utility.yul\":9360:9378   */\n      tag_479\n      tag_351\n      jump\t// in\n    tag_479:\n        /* \"#utility.yul\":9344:9380   */\n    tag_478:\n        /* \"#utility.yul\":9196:9387   */\n      swap3\n      swap2\n      pop\n      pop\n      jump\t// out\n        /* \"#utility.yul\":9393:9626   */\n    tag_352:\n        /* \"#utility.yul\":9533:9567   */\n      0x526577617264732063616e206f6e6c7920626520646973747269627574656420\n        /* \"#utility.yul\":9529:9530   */\n      0x00\n        /* \"#utility.yul\":9521:9527   */\n      dup3\n        /* \"#utility.yul\":9517:9531   */\n      add\n        /* \"#utility.yul\":9510:9568   */\n      mstore\n        /* \"#utility.yul\":9602:9618   */\n      0x657665727920323420686f757273000000000000000000000000000000000000\n        /* \"#utility.yul\":9597:9599   */\n      0x20\n        /* \"#utility.yul\":9589:9595   */\n      dup3\n        /* \"#utility.yul\":9585:9600   */\n      add\n        /* \"#utility.yul\":9578:9619   */\n      mstore\n        /* \"#utility.yul\":9393:9626   */\n      pop\n      jump\t// out\n        /* \"#utility.yul\":9632:9998   */\n    tag_353:\n        /* \"#utility.yul\":9774:9777   */\n      0x00\n        /* \"#utility.yul\":9795:9862   */\n      tag_482\n        /* \"#utility.yul\":9859:9861   */\n      0x2e\n        /* \"#utility.yul\":9854:9857   */\n      dup4\n        /* \"#utility.yul\":9795:9862   */\n      tag_346\n      jump\t// in\n    tag_482:\n        /* \"#utility.yul\":9788:9862   */\n      swap2\n      pop\n        /* \"#utility.yul\":9871:9964   */\n      tag_483\n        /* \"#utility.yul\":9960:9963   */\n      dup3\n        /* \"#utility.yul\":9871:9964   */\n      tag_352\n      jump\t// in\n    tag_483:\n        /* \"#utility.yul\":9989:9991   */\n      0x40\n        /* \"#utility.yul\":9984:9987   */\n      dup3\n        /* \"#utility.yul\":9980:9992   */\n      add\n        /* \"#utility.yul\":9973:9992   */\n      swap1\n      pop\n        /* \"#utility.yul\":9632:9998   */\n      swap2\n      swap1\n      pop\n      jump\t// out\n        /* \"#utility.yul\":10004:10423   */\n    tag_140:\n        /* \"#utility.yul\":10170:10174   */\n      0x00\n        /* \"#utility.yul\":10208:10210   */\n      0x20\n        /* \"#utility.yul\":10197:10206   */\n      dup3\n        /* \"#utility.yul\":10193:10211   */\n      add\n        /* \"#utility.yul\":10185:10211   */\n      swap1\n      pop\n        /* \"#utility.yul\":10257:10266   */\n      dup2\n        /* \"#utility.yul\":10251:10255   */\n      dup2\n        /* \"#utility.yul\":10247:10267   */\n      sub\n        /* \"#utility.yul\":10243:10244   */\n      0x00\n        /* \"#utility.yul\":10232:10241   */\n      dup4\n        /* \"#utility.yul\":10228:10245   */\n      add\n        /* \"#utility.yul\":10221:10268   */\n      mstore\n        /* \"#utility.yul\":10285:10416   */\n      tag_485\n        /* \"#utility.yul\":10411:10415   */\n      dup2\n        /* \"#utility.yul\":10285:10416   */\n      tag_353\n      jump\t// in\n    tag_485:\n        /* \"#utility.yul\":10277:10416   */\n      swap1\n      pop\n        /* \"#utility.yul\":10004:10423   */\n      swap2\n      swap1\n      pop\n      jump\t// out\n        /* \"#utility.yul\":10429:10839   */\n    tag_142:\n        /* \"#utility.yul\":10469:10476   */\n      0x00\n        /* \"#utility.yul\":10492:10512   */\n      tag_487\n        /* \"#utility.yul\":10510:10511   */\n      dup3\n        /* \"#utility.yul\":10492:10512   */\n      tag_322\n      jump\t// in\n    tag_487:\n        /* \"#utility.yul\":10487:10512   */\n      swap2\n      pop\n        /* \"#utility.yul\":10526:10546   */\n      tag_488\n        /* \"#utility.yul\":10544:10545   */\n      dup4\n        /* \"#utility.yul\":10526:10546   */\n      tag_322\n      jump\t// in\n    tag_488:\n        /* \"#utility.yul\":10521:10546   */\n      swap3\n      pop\n        /* \"#utility.yul\":10581:10582   */\n      dup3\n        /* \"#utility.yul\":10578:10579   */\n      dup3\n        /* \"#utility.yul\":10574:10583   */\n      mul\n        /* \"#utility.yul\":10603:10633   */\n      tag_489\n        /* \"#utility.yul\":10621:10632   */\n      dup2\n        /* \"#utility.yul\":10603:10633   */\n      tag_322\n      jump\t// in\n    tag_489:\n        /* \"#utility.yul\":10592:10633   */\n      swap2\n      pop\n        /* \"#utility.yul\":10782:10783   */\n      dup3\n        /* \"#utility.yul\":10773:10780   */\n      dup3\n        /* \"#utility.yul\":10769:10784   */\n      div\n        /* \"#utility.yul\":10766:10767   */\n      dup5\n        /* \"#utility.yul\":10763:10785   */\n      eq\n        /* \"#utility.yul\":10743:10744   */\n      dup4\n        /* \"#utility.yul\":10736:10745   */\n      iszero\n        /* \"#utility.yul\":10716:10799   */\n      or\n        /* \"#utility.yul\":10693:10832   */\n      tag_490\n      jumpi\n        /* \"#utility.yul\":10812:10830   */\n      tag_491\n      tag_351\n      jump\t// in\n    tag_491:\n        /* \"#utility.yul\":10693:10832   */\n    tag_490:\n        /* \"#utility.yul\":10477:10839   */\n      pop\n        /* \"#utility.yul\":10429:10839   */\n      swap3\n      swap2\n      pop\n      pop\n      jump\t// out\n        /* \"#utility.yul\":10845:11025   */\n    tag_354:\n        /* \"#utility.yul\":10893:10970   */\n      0x4e487b7100000000000000000000000000000000000000000000000000000000\n        /* \"#utility.yul\":10890:10891   */\n      0x00\n        /* \"#utility.yul\":10883:10971   */\n      mstore\n        /* \"#utility.yul\":10990:10994   */\n      0x12\n        /* \"#utility.yul\":10987:10988   */\n      0x04\n        /* \"#utility.yul\":10980:10995   */\n      mstore\n        /* \"#utility.yul\":11014:11018   */\n      0x24\n        /* \"#utility.yul\":11011:11012   */\n      0x00\n        /* \"#utility.yul\":11004:11019   */\n      revert\n        /* \"#utility.yul\":11031:11216   */\n    tag_144:\n        /* \"#utility.yul\":11071:11072   */\n      0x00\n        /* \"#utility.yul\":11088:11108   */\n      tag_494\n        /* \"#utility.yul\":11106:11107   */\n      dup3\n        /* \"#utility.yul\":11088:11108   */\n      tag_322\n      jump\t// in\n    tag_494:\n        /* \"#utility.yul\":11083:11108   */\n      swap2\n      pop\n        /* \"#utility.yul\":11122:11142   */\n      tag_495\n        /* \"#utility.yul\":11140:11141   */\n      dup4\n        /* \"#utility.yul\":11122:11142   */\n      tag_322\n      jump\t// in\n    tag_495:\n        /* \"#utility.yul\":11117:11142   */\n      swap3\n      pop\n        /* \"#utility.yul\":11161:11162   */\n      dup3\n        /* \"#utility.yul\":11151:11186   */\n      tag_496\n      jumpi\n        /* \"#utility.yul\":11166:11184   */\n      tag_497\n      tag_354\n      jump\t// in\n    tag_497:\n        /* \"#utility.yul\":11151:11186   */\n    tag_496:\n        /* \"#utility.yul\":11208:11209   */\n      dup3\n        /* \"#utility.yul\":11205:11206   */\n      dup3\n        /* \"#utility.yul\":11201:11210   */\n      div\n        /* \"#utility.yul\":11196:11210   */\n      swap1\n      pop\n        /* \"#utility.yul\":11031:11216   */\n      swap3\n      swap2\n      pop\n      pop\n      jump\t// out\n        /* \"#utility.yul\":11222:11416   */\n    tag_146:\n        /* \"#utility.yul\":11262:11266   */\n      0x00\n        /* \"#utility.yul\":11282:11302   */\n      tag_499\n        /* \"#utility.yul\":11300:11301   */\n      dup3\n        /* \"#utility.yul\":11282:11302   */\n      tag_322\n      jump\t// in\n    tag_499:\n        /* \"#utility.yul\":11277:11302   */\n      swap2\n      pop\n        /* \"#utility.yul\":11316:11336   */\n      tag_500\n        /* \"#utility.yul\":11334:11335   */\n      dup4\n        /* \"#utility.yul\":11316:11336   */\n      tag_322\n      jump\t// in\n    tag_500:\n        /* \"#utility.yul\":11311:11336   */\n      swap3\n      pop\n        /* \"#utility.yul\":11360:11361   */\n      dup3\n        /* \"#utility.yul\":11357:11358   */\n      dup3\n        /* \"#utility.yul\":11353:11362   */\n      sub\n        /* \"#utility.yul\":11345:11362   */\n      swap1\n      pop\n        /* \"#utility.yul\":11384:11385   */\n      dup2\n        /* \"#utility.yul\":11378:11382   */\n      dup2\n        /* \"#utility.yul\":11375:11386   */\n      gt\n        /* \"#utility.yul\":11372:11409   */\n      iszero\n      tag_501\n      jumpi\n        /* \"#utility.yul\":11389:11407   */\n      tag_502\n      tag_351\n      jump\t// in\n    tag_502:\n        /* \"#utility.yul\":11372:11409   */\n    tag_501:\n        /* \"#utility.yul\":11222:11416   */\n      swap3\n      swap2\n      pop\n      pop\n      jump\t// out\n        /* \"#utility.yul\":11422:11754   */\n    tag_148:\n        /* \"#utility.yul\":11543:11547   */\n      0x00\n        /* \"#utility.yul\":11581:11583   */\n      0x40\n        /* \"#utility.yul\":11570:11579   */\n      dup3\n        /* \"#utility.yul\":11566:11584   */\n      add\n        /* \"#utility.yul\":11558:11584   */\n      swap1\n      pop\n        /* \"#utility.yul\":11594:11665   */\n      tag_504\n        /* \"#utility.yul\":11662:11663   */\n      0x00\n        /* \"#utility.yul\":11651:11660   */\n      dup4\n        /* \"#utility.yul\":11647:11664   */\n      add\n        /* \"#utility.yul\":11638:11644   */\n      dup6\n        /* \"#utility.yul\":11594:11665   */\n      tag_340\n      jump\t// in\n    tag_504:\n        /* \"#utility.yul\":11675:11747   */\n      tag_505\n        /* \"#utility.yul\":11743:11745   */\n      0x20\n        /* \"#utility.yul\":11732:11741   */\n      dup4\n        /* \"#utility.yul\":11728:11746   */\n      add\n        /* \"#utility.yul\":11719:11725   */\n      dup5\n        /* \"#utility.yul\":11675:11747   */\n      tag_323\n      jump\t// in\n    tag_505:\n        /* \"#utility.yul\":11422:11754   */\n      swap4\n      swap3\n      pop\n      pop\n      pop\n      jump\t// out\n        /* \"#utility.yul\":11760:11876   */\n    tag_355:\n        /* \"#utility.yul\":11830:11851   */\n      tag_507\n        /* \"#utility.yul\":11845:11850   */\n      dup2\n        /* \"#utility.yul\":11830:11851   */\n      tag_341\n      jump\t// in\n    tag_507:\n        /* \"#utility.yul\":11823:11828   */\n      dup2\n        /* \"#utility.yul\":11820:11852   */\n      eq\n        /* \"#utility.yul\":11810:11870   */\n      tag_508\n      jumpi\n        /* \"#utility.yul\":11866:11867   */\n      0x00\n        /* \"#utility.yul\":11863:11864   */\n      dup1\n        /* \"#utility.yul\":11856:11868   */\n      revert\n        /* \"#utility.yul\":11810:11870   */\n    tag_508:\n        /* \"#utility.yul\":11760:11876   */\n      pop\n      jump\t// out\n        /* \"#utility.yul\":11882:12019   */\n    tag_356:\n        /* \"#utility.yul\":11936:11941   */\n      0x00\n        /* \"#utility.yul\":11967:11973   */\n      dup2\n        /* \"#utility.yul\":11961:11974   */\n      mload\n        /* \"#utility.yul\":11952:11974   */\n      swap1\n      pop\n        /* \"#utility.yul\":11983:12013   */\n      tag_510\n        /* \"#utility.yul\":12007:12012   */\n      dup2\n        /* \"#utility.yul\":11983:12013   */\n      tag_355\n      jump\t// in\n    tag_510:\n        /* \"#utility.yul\":11882:12019   */\n      swap3\n      swap2\n      pop\n      pop\n      jump\t// out\n        /* \"#utility.yul\":12025:12370   */\n    tag_152:\n        /* \"#utility.yul\":12092:12098   */\n      0x00\n        /* \"#utility.yul\":12141:12143   */\n      0x20\n        /* \"#utility.yul\":12129:12138   */\n      dup3\n        /* \"#utility.yul\":12120:12127   */\n      dup5\n        /* \"#utility.yul\":12116:12139   */\n      sub\n        /* \"#utility.yul\":12112:12144   */\n      slt\n        /* \"#utility.yul\":12109:12228   */\n      iszero\n      tag_512\n      jumpi\n        /* \"#utility.yul\":12147:12226   */\n      tag_513\n      tag_325\n      jump\t// in\n    tag_513:\n        /* \"#utility.yul\":12109:12228   */\n    tag_512:\n        /* \"#utility.yul\":12267:12268   */\n      0x00\n        /* \"#utility.yul\":12292:12353   */\n      tag_514\n        /* \"#utility.yul\":12345:12352   */\n      dup5\n        /* \"#utility.yul\":12336:12342   */\n      dup3\n        /* \"#utility.yul\":12325:12334   */\n      dup6\n        /* \"#utility.yul\":12321:12343   */\n      add\n        /* \"#utility.yul\":12292:12353   */\n      tag_356\n      jump\t// in\n    tag_514:\n        /* \"#utility.yul\":12282:12353   */\n      swap2\n      pop\n        /* \"#utility.yul\":12238:12363   */\n      pop\n        /* \"#utility.yul\":12025:12370   */\n      swap3\n      swap2\n      pop\n      pop\n      jump\t// out\n        /* \"#utility.yul\":12376:12546   */\n    tag_357:\n        /* \"#utility.yul\":12516:12538   */\n      0x4f776e6572207061796d656e74206661696c6564000000000000000000000000\n        /* \"#utility.yul\":12512:12513   */\n      0x00\n        /* \"#utility.yul\":12504:12510   */\n      dup3\n        /* \"#utility.yul\":12500:12514   */\n      add\n        /* \"#utility.yul\":12493:12539   */\n      mstore\n        /* \"#utility.yul\":12376:12546   */\n      pop\n      jump\t// out\n        /* \"#utility.yul\":12552:12918   */\n    tag_358:\n        /* \"#utility.yul\":12694:12697   */\n      0x00\n        /* \"#utility.yul\":12715:12782   */\n      tag_517\n        /* \"#utility.yul\":12779:12781   */\n      0x14\n        /* \"#utility.yul\":12774:12777   */\n      dup4\n        /* \"#utility.yul\":12715:12782   */\n      tag_346\n      jump\t// in\n    tag_517:\n        /* \"#utility.yul\":12708:12782   */\n      swap2\n      pop\n        /* \"#utility.yul\":12791:12884   */\n      tag_518\n        /* \"#utility.yul\":12880:12883   */\n      dup3\n        /* \"#utility.yul\":12791:12884   */\n      tag_357\n      jump\t// in\n    tag_518:\n        /* \"#utility.yul\":12909:12911   */\n      0x20\n        /* \"#utility.yul\":12904:12907   */\n      dup3\n        /* \"#utility.yul\":12900:12912   */\n      add\n        /* \"#utility.yul\":12893:12912   */\n      swap1\n      pop\n        /* \"#utility.yul\":12552:12918   */\n      swap2\n      swap1\n      pop\n      jump\t// out\n        /* \"#utility.yul\":12924:13343   */\n    tag_155:\n        /* \"#utility.yul\":13090:13094   */\n      0x00\n        /* \"#utility.yul\":13128:13130   */\n      0x20\n        /* \"#utility.yul\":13117:13126   */\n      dup3\n        /* \"#utility.yul\":13113:13131   */\n      add\n        /* \"#utility.yul\":13105:13131   */\n      swap1\n      pop\n        /* \"#utility.yul\":13177:13186   */\n      dup2\n        /* \"#utility.yul\":13171:13175   */\n      dup2\n        /* \"#utility.yul\":13167:13187   */\n      sub\n        /* \"#utility.yul\":13163:13164   */\n      0x00\n        /* \"#utility.yul\":13152:13161   */\n      dup4\n        /* \"#utility.yul\":13148:13165   */\n      add\n        /* \"#utility.yul\":13141:13188   */\n      mstore\n        /* \"#utility.yul\":13205:13336   */\n      tag_520\n        /* \"#utility.yul\":13331:13335   */\n      dup2\n        /* \"#utility.yul\":13205:13336   */\n      tag_358\n      jump\t// in\n    tag_520:\n        /* \"#utility.yul\":13197:13336   */\n      swap1\n      pop\n        /* \"#utility.yul\":12924:13343   */\n      swap2\n      swap1\n      pop\n      jump\t// out\n        /* \"#utility.yul\":13349:13529   */\n    tag_173:\n        /* \"#utility.yul\":13397:13474   */\n      0x4e487b7100000000000000000000000000000000000000000000000000000000\n        /* \"#utility.yul\":13394:13395   */\n      0x00\n        /* \"#utility.yul\":13387:13475   */\n      mstore\n        /* \"#utility.yul\":13494:13498   */\n      0x32\n        /* \"#utility.yul\":13491:13492   */\n      0x04\n        /* \"#utility.yul\":13484:13499   */\n      mstore\n        /* \"#utility.yul\":13518:13522   */\n      0x24\n        /* \"#utility.yul\":13515:13516   */\n      0x00\n        /* \"#utility.yul\":13508:13523   */\n      revert\n        /* \"#utility.yul\":13535:13768   */\n    tag_177:\n        /* \"#utility.yul\":13574:13577   */\n      0x00\n        /* \"#utility.yul\":13597:13621   */\n      tag_523\n        /* \"#utility.yul\":13615:13620   */\n      dup3\n        /* \"#utility.yul\":13597:13621   */\n      tag_322\n      jump\t// in\n    tag_523:\n        /* \"#utility.yul\":13588:13621   */\n      swap2\n      pop\n        /* \"#utility.yul\":13643:13709   */\n      0xffffffffffffffffffffffffffffffffffffffffffffffffffffffffffffffff\n        /* \"#utility.yul\":13636:13641   */\n      dup3\n        /* \"#utility.yul\":13633:13710   */\n      sub\n        /* \"#utility.yul\":13630:13733   */\n      tag_524\n      jumpi\n        /* \"#utility.yul\":13713:13731   */\n      tag_525\n      tag_351\n      jump\t// in\n    tag_525:\n        /* \"#utility.yul\":13630:13733   */\n    tag_524:\n        /* \"#utility.yul\":13760:13761   */\n      0x01\n        /* \"#utility.yul\":13753:13758   */\n      dup3\n        /* \"#utility.yul\":13749:13762   */\n      add\n        /* \"#utility.yul\":13742:13762   */\n      swap1\n      pop\n        /* \"#utility.yul\":13535:13768   */\n      swap2\n      swap1\n      pop\n      jump\t// out\n        /* \"#utility.yul\":13774:14002   */\n    tag_359:\n        /* \"#utility.yul\":13914:13948   */\n      0x576974686472617720616d6f756e74206d757374206265206772656174657220\n        /* \"#utility.yul\":13910:13911   */\n      0x00\n        /* \"#utility.yul\":13902:13908   */\n      dup3\n        /* \"#utility.yul\":13898:13912   */\n      add\n        /* \"#utility.yul\":13891:13949   */\n      mstore\n        /* \"#utility.yul\":13983:13994   */\n      0x7468616e207a65726f0000000000000000000000000000000000000000000000\n        /* \"#utility.yul\":13978:13980   */\n      0x20\n        /* \"#utility.yul\":13970:13976   */\n      dup3\n        /* \"#utility.yul\":13966:13981   */\n      add\n        /* \"#utility.yul\":13959:13995   */\n      mstore\n        /* \"#utility.yul\":13774:14002   */\n      pop\n      jump\t// out\n        /* \"#utility.yul\":14008:14374   */\n    tag_360:\n        /* \"#utility.yul\":14150:14153   */\n      0x00\n        /* \"#utility.yul\":14171:14238   */\n      tag_528\n        /* \"#utility.yul\":14235:14237   */\n      0x29\n        /* \"#utility.yul\":14230:14233   */\n      dup4\n        /* \"#utility.yul\":14171:14238   */\n      tag_346\n      jump\t// in\n    tag_528:\n        /* \"#utility.yul\":14164:14238   */\n      swap2\n      pop\n        /* \"#utility.yul\":14247:14340   */\n      tag_529\n        /* \"#utility.yul\":14336:14339   */\n      dup3\n        /* \"#utility.yul\":14247:14340   */\n      tag_359\n      jump\t// in\n    tag_529:\n        /* \"#utility.yul\":14365:14367   */\n      0x40\n        /* \"#utility.yul\":14360:14363   */\n      dup3\n        /* \"#utility.yul\":14356:14368   */\n      add\n        /* \"#utility.yul\":14349:14368   */\n      swap1\n      pop\n        /* \"#utility.yul\":14008:14374   */\n      swap2\n      swap1\n      pop\n      jump\t// out\n        /* \"#utility.yul\":14380:14799   */\n    tag_182:\n        /* \"#utility.yul\":14546:14550   */\n      0x00\n        /* \"#utility.yul\":14584:14586   */\n      0x20\n        /* \"#utility.yul\":14573:14582   */\n      dup3\n        /* \"#utility.yul\":14569:14587   */\n      add\n        /* \"#utility.yul\":14561:14587   */\n      swap1\n      pop\n        /* \"#utility.yul\":14633:14642   */\n      dup2\n        /* \"#utility.yul\":14627:14631   */\n      dup2\n        /* \"#utility.yul\":14623:14643   */\n      sub\n        /* \"#utility.yul\":14619:14620   */\n      0x00\n        /* \"#utility.yul\":14608:14617   */\n      dup4\n        /* \"#utility.yul\":14604:14621   */\n      add\n        /* \"#utility.yul\":14597:14644   */\n      mstore\n        /* \"#utility.yul\":14661:14792   */\n      tag_531\n        /* \"#utility.yul\":14787:14791   */\n      dup2\n        /* \"#utility.yul\":14661:14792   */\n      tag_360\n      jump\t// in\n    tag_531:\n        /* \"#utility.yul\":14653:14792   */\n      swap1\n      pop\n        /* \"#utility.yul\":14380:14799   */\n      swap2\n      swap1\n      pop\n      jump\t// out\n        /* \"#utility.yul\":14805:14982   */\n    tag_361:\n        /* \"#utility.yul\":14945:14974   */\n      0x496e73756666696369656e74206561726e656420726577617264730000000000\n        /* \"#utility.yul\":14941:14942   */\n      0x00\n        /* \"#utility.yul\":14933:14939   */\n      dup3\n        /* \"#utility.yul\":14929:14943   */\n      add\n        /* \"#utility.yul\":14922:14975   */\n      mstore\n        /* \"#utility.yul\":14805:14982   */\n      pop\n      jump\t// out\n        /* \"#utility.yul\":14988:15354   */\n    tag_362:\n        /* \"#utility.yul\":15130:15133   */\n      0x00\n        /* \"#utility.yul\":15151:15218   */\n      tag_534\n        /* \"#utility.yul\":15215:15217   */\n      0x1b\n        /* \"#utility.yul\":15210:15213   */\n      dup4\n        /* \"#utility.yul\":15151:15218   */\n      tag_346\n      jump\t// in\n    tag_534:\n        /* \"#utility.yul\":15144:15218   */\n      swap2\n      pop\n        /* \"#utility.yul\":15227:15320   */\n      tag_535\n        /* \"#utility.yul\":15316:15319   */\n      dup3\n        /* \"#utility.yul\":15227:15320   */\n      tag_361\n      jump\t// in\n    tag_535:\n        /* \"#utility.yul\":15345:15347   */\n      0x20\n        /* \"#utility.yul\":15340:15343   */\n      dup3\n        /* \"#utility.yul\":15336:15348   */\n      add\n        /* \"#utility.yul\":15329:15348   */\n      swap1\n      pop\n        /* \"#utility.yul\":14988:15354   */\n      swap2\n      swap1\n      pop\n      jump\t// out\n        /* \"#utility.yul\":15360:15779   */\n    tag_185:\n        /* \"#utility.yul\":15526:15530   */\n      0x00\n        /* \"#utility.yul\":15564:15566   */\n      0x20\n        /* \"#utility.yul\":15553:15562   */\n      dup3\n        /* \"#utility.yul\":15549:15567   */\n      add\n        /* \"#utility.yul\":15541:15567   */\n      swap1\n      pop\n        /* \"#utility.yul\":15613:15622   */\n      dup2\n        /* \"#utility.yul\":15607:15611   */\n      dup2\n        /* \"#utility.yul\":15603:15623   */\n      sub\n        /* \"#utility.yul\":15599:15600   */\n      0x00\n        /* \"#utility.yul\":15588:15597   */\n      dup4\n        /* \"#utility.yul\":15584:15601   */\n      add\n        /* \"#utility.yul\":15577:15624   */\n      mstore\n        /* \"#utility.yul\":15641:15772   */\n      tag_537\n        /* \"#utility.yul\":15767:15771   */\n      dup2\n        /* \"#utility.yul\":15641:15772   */\n      tag_362\n      jump\t// in\n    tag_537:\n        /* \"#utility.yul\":15633:15772   */\n      swap1\n      pop\n        /* \"#utility.yul\":15360:15779   */\n      swap2\n      swap1\n      pop\n      jump\t// out\n        /* \"#utility.yul\":15785:15952   */\n    tag_363:\n        /* \"#utility.yul\":15925:15944   */\n      0x5769746864726177616c206661696c6564000000000000000000000000000000\n        /* \"#utility.yul\":15921:15922   */\n      0x00\n        /* \"#utility.yul\":15913:15919   */\n      dup3\n        /* \"#utility.yul\":15909:15923   */\n      add\n        /* \"#utility.yul\":15902:15945   */\n      mstore\n        /* \"#utility.yul\":15785:15952   */\n      pop\n      jump\t// out\n        /* \"#utility.yul\":15958:16324   */\n    tag_364:\n        /* \"#utility.yul\":16100:16103   */\n      0x00\n        /* \"#utility.yul\":16121:16188   */\n      tag_540\n        /* \"#utility.yul\":16185:16187   */\n      0x11\n        /* \"#utility.yul\":16180:16183   */\n      dup4\n        /* \"#utility.yul\":16121:16188   */\n      tag_346\n      jump\t// in\n    tag_540:\n        /* \"#utility.yul\":16114:16188   */\n      swap2\n      pop\n        /* \"#utility.yul\":16197:16290   */\n      tag_541\n        /* \"#utility.yul\":16286:16289   */\n      dup3\n        /* \"#utility.yul\":16197:16290   */\n      tag_363\n      jump\t// in\n    tag_541:\n        /* \"#utility.yul\":16315:16317   */\n      0x20\n        /* \"#utility.yul\":16310:16313   */\n      dup3\n        /* \"#utility.yul\":16306:16318   */\n      add\n        /* \"#utility.yul\":16299:16318   */\n      swap1\n      pop\n        /* \"#utility.yul\":15958:16324   */\n      swap2\n      swap1\n      pop\n      jump\t// out\n        /* \"#utility.yul\":16330:16749   */\n    tag_193:\n        /* \"#utility.yul\":16496:16500   */\n      0x00\n        /* \"#utility.yul\":16534:16536   */\n      0x20\n        /* \"#utility.yul\":16523:16532   */\n      dup3\n        /* \"#utility.yul\":16519:16537   */\n      add\n        /* \"#utility.yul\":16511:16537   */\n      swap1\n      pop\n        /* \"#utility.yul\":16583:16592   */\n      dup2\n        /* \"#utility.yul\":16577:16581   */\n      dup2\n        /* \"#utility.yul\":16573:16593   */\n      sub\n        /* \"#utility.yul\":16569:16570   */\n      0x00\n        /* \"#utility.yul\":16558:16567   */\n      dup4\n        /* \"#utility.yul\":16554:16571   */\n      add\n        /* \"#utility.yul\":16547:16594   */\n      mstore\n        /* \"#utility.yul\":16611:16742   */\n      tag_543\n        /* \"#utility.yul\":16737:16741   */\n      dup2\n        /* \"#utility.yul\":16611:16742   */\n      tag_364\n      jump\t// in\n    tag_543:\n        /* \"#utility.yul\":16603:16742   */\n      swap1\n      pop\n        /* \"#utility.yul\":16330:16749   */\n      swap2\n      swap1\n      pop\n      jump\t// out\n        /* \"#utility.yul\":16755:16934   */\n    tag_365:\n        /* \"#utility.yul\":16895:16926   */\n      0x4e6577206f776e657220697320746865207a65726f2061646472657373000000\n        /* \"#utility.yul\":16891:16892   */\n      0x00\n        /* \"#utility.yul\":16883:16889   */\n      dup3\n        /* \"#utility.yul\":16879:16893   */\n      add\n        /* \"#utility.yul\":16872:16927   */\n      mstore\n        /* \"#utility.yul\":16755:16934   */\n      pop\n      jump\t// out\n        /* \"#utility.yul\":16940:17306   */\n    tag_366:\n        /* \"#utility.yul\":17082:17085   */\n      0x00\n        /* \"#utility.yul\":17103:17170   */\n      tag_546\n        /* \"#utility.yul\":17167:17169   */\n      0x1d\n        /* \"#utility.yul\":17162:17165   */\n      dup4\n        /* \"#utility.yul\":17103:17170   */\n      tag_346\n      jump\t// in\n    tag_546:\n        /* \"#utility.yul\":17096:17170   */\n      swap2\n      pop\n        /* \"#utility.yul\":17179:17272   */\n      tag_547\n        /* \"#utility.yul\":17268:17271   */\n      dup3\n        /* \"#utility.yul\":17179:17272   */\n      tag_365\n      jump\t// in\n    tag_547:\n        /* \"#utility.yul\":17297:17299   */\n      0x20\n        /* \"#utility.yul\":17292:17295   */\n      dup3\n        /* \"#utility.yul\":17288:17300   */\n      add\n        /* \"#utility.yul\":17281:17300   */\n      swap1\n      pop\n        /* \"#utility.yul\":16940:17306   */\n      swap2\n      swap1\n      pop\n      jump\t// out\n        /* \"#utility.yul\":17312:17731   */\n    tag_201:\n        /* \"#utility.yul\":17478:17482   */\n      0x00\n        /* \"#utility.yul\":17516:17518   */\n      0x20\n        /* \"#utility.yul\":17505:17514   */\n      dup3\n        /* \"#utility.yul\":17501:17519   */\n      add\n        /* \"#utility.yul\":17493:17519   */\n      swap1\n      pop\n        /* \"#utility.yul\":17565:17574   */\n      dup2\n        /* \"#utility.yul\":17559:17563   */\n      dup2\n        /* \"#utility.yul\":17555:17575   */\n      sub\n        /* \"#utility.yul\":17551:17552   */\n      0x00\n        /* \"#utility.yul\":17540:17549   */\n      dup4\n        /* \"#utility.yul\":17536:17553   */\n      add\n        /* \"#utility.yul\":17529:17576   */\n      mstore\n        /* \"#utility.yul\":17593:17724   */\n      tag_549\n        /* \"#utility.yul\":17719:17723   */\n      dup2\n        /* \"#utility.yul\":17593:17724   */\n      tag_366\n      jump\t// in\n    tag_549:\n        /* \"#utility.yul\":17585:17724   */\n      swap1\n      pop\n        /* \"#utility.yul\":17312:17731   */\n      swap2\n      swap1\n      pop\n      jump\t// out\n        /* \"#utility.yul\":17737:17905   */\n    tag_367:\n        /* \"#utility.yul\":17877:17897   */\n      0x416c726561647920726567697374657265640000000000000000000000000000\n        /* \"#utility.yul\":17873:17874   */\n      0x00\n        /* \"#utility.yul\":17865:17871   */\n      dup3\n        /* \"#utility.yul\":17861:17875   */\n      add\n        /* \"#utility.yul\":17854:17898   */\n      mstore\n        /* \"#utility.yul\":17737:17905   */\n      pop\n      jump\t// out\n        /* \"#utility.yul\":17911:18277   */\n    tag_368:\n        /* \"#utility.yul\":18053:18056   */\n      0x00\n        /* \"#utility.yul\":18074:18141   */\n      tag_552\n        /* \"#utility.yul\":18138:18140   */\n      0x12\n        /* \"#utility.yul\":18133:18136   */\n      dup4\n        /* \"#utility.yul\":18074:18141   */\n      tag_346\n      jump\t// in\n    tag_552:\n        /* \"#utility.yul\":18067:18141   */\n      swap2\n      pop\n        /* \"#utility.yul\":18150:18243   */\n      tag_553\n        /* \"#utility.yul\":18239:18242   */\n      dup3\n        /* \"#utility.yul\":18150:18243   */\n      tag_367\n      jump\t// in\n    tag_553:\n        /* \"#utility.yul\":18268:18270   */\n      0x20\n        /* \"#utility.yul\":18263:18266   */\n      dup3\n        /* \"#utility.yul\":18259:18271   */\n      add\n        /* \"#utility.yul\":18252:18271   */\n      swap1\n      pop\n        /* \"#utility.yul\":17911:18277   */\n      swap2\n      swap1\n      pop\n      jump\t// out\n        /* \"#utility.yul\":18283:18702   */\n    tag_205:\n        /* \"#utility.yul\":18449:18453   */\n      0x00\n        /* \"#utility.yul\":18487:18489   */\n      0x20\n        /* \"#utility.yul\":18476:18485   */\n      dup3\n        /* \"#utility.yul\":18472:18490   */\n      add\n        /* \"#utility.yul\":18464:18490   */\n      swap1\n      pop\n        /* \"#utility.yul\":18536:18545   */\n      dup2\n        /* \"#utility.yul\":18530:18534   */\n      dup2\n        /* \"#utility.yul\":18526:18546   */\n      sub\n        /* \"#utility.yul\":18522:18523   */\n      0x00\n        /* \"#utility.yul\":18511:18520   */\n      dup4\n        /* \"#utility.yul\":18507:18524   */\n      add\n        /* \"#utility.yul\":18500:18547   */\n      mstore\n        /* \"#utility.yul\":18564:18695   */\n      tag_555\n        /* \"#utility.yul\":18690:18694   */\n      dup2\n        /* \"#utility.yul\":18564:18695   */\n      tag_368\n      jump\t// in\n    tag_555:\n        /* \"#utility.yul\":18556:18695   */\n      swap1\n      pop\n        /* \"#utility.yul\":18283:18702   */\n      swap2\n      swap1\n      pop\n      jump\t// out\n        /* \"#utility.yul\":18708:19150   */\n    tag_207:\n        /* \"#utility.yul\":18857:18861   */\n      0x00\n        /* \"#utility.yul\":18895:18897   */\n      0x60\n        /* \"#utility.yul\":18884:18893   */\n      dup3\n        /* \"#utility.yul\":18880:18898   */\n      add\n        /* \"#utility.yul\":18872:18898   */\n      swap1\n      pop\n        /* \"#utility.yul\":18908:18979   */\n      tag_557\n        /* \"#utility.yul\":18976:18977   */\n      0x00\n        /* \"#utility.yul\":18965:18974   */\n      dup4\n        /* \"#utility.yul\":18961:18978   */\n      add\n        /* \"#utility.yul\":18952:18958   */\n      dup7\n        /* \"#utility.yul\":18908:18979   */\n      tag_340\n      jump\t// in\n    tag_557:\n        /* \"#utility.yul\":18989:19061   */\n      tag_558\n        /* \"#utility.yul\":19057:19059   */\n      0x20\n        /* \"#utility.yul\":19046:19055   */\n      dup4\n        /* \"#utility.yul\":19042:19060   */\n      add\n        /* \"#utility.yul\":19033:19039   */\n      dup6\n        /* \"#utility.yul\":18989:19061   */\n      tag_340\n      jump\t// in\n    tag_558:\n        /* \"#utility.yul\":19071:19143   */\n      tag_559\n        /* \"#utility.yul\":19139:19141   */\n      0x40\n        /* \"#utility.yul\":19128:19137   */\n      dup4\n        /* \"#utility.yul\":19124:19142   */\n      add\n        /* \"#utility.yul\":19115:19121   */\n      dup5\n        /* \"#utility.yul\":19071:19143   */\n      tag_323\n      jump\t// in\n    tag_559:\n        /* \"#utility.yul\":18708:19150   */\n      swap5\n      swap4\n      pop\n      pop\n      pop\n      pop\n      jump\t// out\n        /* \"#utility.yul\":19156:19320   */\n    tag_369:\n        /* \"#utility.yul\":19296:19312   */\n      0x5061796d656e74206661696c6564000000000000000000000000000000000000\n        /* \"#utility.yul\":19292:19293   */\n      0x00\n        /* \"#utility.yul\":19284:19290   */\n      dup3\n        /* \"#utility.yul\":19280:19294   */\n      add\n        /* \"#utility.yul\":19273:19313   */\n      mstore\n        /* \"#utility.yul\":19156:19320   */\n      pop\n      jump\t// out\n        /* \"#utility.yul\":19326:19692   */\n    tag_370:\n        /* \"#utility.yul\":19468:19471   */\n      0x00\n        /* \"#utility.yul\":19489:19556   */\n      tag_562\n        /* \"#utility.yul\":19553:19555   */\n      0x0e\n        /* \"#utility.yul\":19548:19551   */\n      dup4\n        /* \"#utility.yul\":19489:19556   */\n      tag_346\n      jump\t// in\n    tag_562:\n        /* \"#utility.yul\":19482:19556   */\n      swap2\n      pop\n        /* \"#utility.yul\":19565:19658   */\n      tag_563\n        /* \"#utility.yul\":19654:19657   */\n      dup3\n        /* \"#utility.yul\":19565:19658   */\n      tag_369\n      jump\t// in\n    tag_563:\n        /* \"#utility.yul\":19683:19685   */\n      0x20\n        /* \"#utility.yul\":19678:19681   */\n      dup3\n        /* \"#utility.yul\":19674:19686   */\n      add\n        /* \"#utility.yul\":19667:19686   */\n      swap1\n      pop\n        /* \"#utility.yul\":19326:19692   */\n      swap2\n      swap1\n      pop\n      jump\t// out\n        /* \"#utility.yul\":19698:20117   */\n    tag_213:\n        /* \"#utility.yul\":19864:19868   */\n      0x00\n        /* \"#utility.yul\":19902:19904   */\n      0x20\n        /* \"#utility.yul\":19891:19900   */\n      dup3\n        /* \"#utility.yul\":19887:19905   */\n      add\n        /* \"#utility.yul\":19879:19905   */\n      swap1\n      pop\n        /* \"#utility.yul\":19951:19960   */\n      dup2\n        /* \"#utility.yul\":19945:19949   */\n      dup2\n        /* \"#utility.yul\":19941:19961   */\n      sub\n        /* \"#utility.yul\":19937:19938   */\n      0x00\n        /* \"#utility.yul\":19926:19935   */\n      dup4\n        /* \"#utility.yul\":19922:19939   */\n      add\n        /* \"#utility.yul\":19915:19962   */\n      mstore\n        /* \"#utility.yul\":19979:20110   */\n      tag_565\n        /* \"#utility.yul\":20105:20109   */\n      dup2\n        /* \"#utility.yul\":19979:20110   */\n      tag_370\n      jump\t// in\n    tag_565:\n        /* \"#utility.yul\":19971:20110   */\n      swap1\n      pop\n        /* \"#utility.yul\":19698:20117   */\n      swap2\n      swap1\n      pop\n      jump\t// out\n        /* \"#utility.yul\":20123:20286   */\n    tag_371:\n        /* \"#utility.yul\":20263:20278   */\n      0x496e76616c6964206c6576656c00000000000000000000000000000000000000\n        /* \"#utility.yul\":20259:20260   */\n      0x00\n        /* \"#utility.yul\":20251:20257   */\n      dup3\n        /* \"#utility.yul\":20247:20261   */\n      add\n        /* \"#utility.yul\":20240:20279   */\n      mstore\n        /* \"#utility.yul\":20123:20286   */\n      pop\n      jump\t// out\n        /* \"#utility.yul\":20292:20658   */\n    tag_372:\n        /* \"#utility.yul\":20434:20437   */\n      0x00\n        /* \"#utility.yul\":20455:20522   */\n      tag_568\n        /* \"#utility.yul\":20519:20521   */\n      0x0d\n        /* \"#utility.yul\":20514:20517   */\n      dup4\n        /* \"#utility.yul\":20455:20522   */\n      tag_346\n      jump\t// in\n    tag_568:\n        /* \"#utility.yul\":20448:20522   */\n      swap2\n      pop\n        /* \"#utility.yul\":20531:20624   */\n      tag_569\n        /* \"#utility.yul\":20620:20623   */\n      dup3\n        /* \"#utility.yul\":20531:20624   */\n      tag_371\n      jump\t// in\n    tag_569:\n        /* \"#utility.yul\":20649:20651   */\n      0x20\n        /* \"#utility.yul\":20644:20647   */\n      dup3\n        /* \"#utility.yul\":20640:20652   */\n      add\n        /* \"#utility.yul\":20633:20652   */\n      swap1\n      pop\n        /* \"#utility.yul\":20292:20658   */\n      swap2\n      swap1\n      pop\n      jump\t// out\n        /* \"#utility.yul\":20664:21083   */\n    tag_236:\n        /* \"#utility.yul\":20830:20834   */\n      0x00\n        /* \"#utility.yul\":20868:20870   */\n      0x20\n        /* \"#utility.yul\":20857:20866   */\n      dup3\n        /* \"#utility.yul\":20853:20871   */\n      add\n        /* \"#utility.yul\":20845:20871   */\n      swap1\n      pop\n        /* \"#utility.yul\":20917:20926   */\n      dup2\n        /* \"#utility.yul\":20911:20915   */\n      dup2\n        /* \"#utility.yul\":20907:20927   */\n      sub\n        /* \"#utility.yul\":20903:20904   */\n      0x00\n        /* \"#utility.yul\":20892:20901   */\n      dup4\n        /* \"#utility.yul\":20888:20905   */\n      add\n        /* \"#utility.yul\":20881:20928   */\n      mstore\n        /* \"#utility.yul\":20945:21076   */\n      tag_571\n        /* \"#utility.yul\":21071:21075   */\n      dup2\n        /* \"#utility.yul\":20945:21076   */\n      tag_372\n      jump\t// in\n    tag_571:\n        /* \"#utility.yul\":20937:21076   */\n      swap1\n      pop\n        /* \"#utility.yul\":20664:21083   */\n      swap2\n      swap1\n      pop\n      jump\t// out\n        /* \"#utility.yul\":21089:21265   */\n    tag_373:\n        /* \"#utility.yul\":21229:21257   */\n      0x496e73756666696369656e742045746865722062616c616e6365000000000000\n        /* \"#utility.yul\":21225:21226   */\n      0x00\n        /* \"#utility.yul\":21217:21223   */\n      dup3\n        /* \"#utility.yul\":21213:21227   */\n      add\n        /* \"#utility.yul\":21206:21258   */\n      mstore\n        /* \"#utility.yul\":21089:21265   */\n      pop\n      jump\t// out\n        /* \"#utility.yul\":21271:21637   */\n    tag_374:\n        /* \"#utility.yul\":21413:21416   */\n      0x00\n        /* \"#utility.yul\":21434:21501   */\n      tag_574\n        /* \"#utility.yul\":21498:21500   */\n      0x1a\n        /* \"#utility.yul\":21493:21496   */\n      dup4\n        /* \"#utility.yul\":21434:21501   */\n      tag_346\n      jump\t// in\n    tag_574:\n        /* \"#utility.yul\":21427:21501   */\n      swap2\n      pop\n        /* \"#utility.yul\":21510:21603   */\n      tag_575\n        /* \"#utility.yul\":21599:21602   */\n      dup3\n        /* \"#utility.yul\":21510:21603   */\n      tag_373\n      jump\t// in\n    tag_575:\n        /* \"#utility.yul\":21628:21630   */\n      0x20\n        /* \"#utility.yul\":21623:21626   */\n      dup3\n        /* \"#utility.yul\":21619:21631   */\n      add\n        /* \"#utility.yul\":21612:21631   */\n      swap1\n      pop\n        /* \"#utility.yul\":21271:21637   */\n      swap2\n      swap1\n      pop\n      jump\t// out\n        /* \"#utility.yul\":21643:22062   */\n    tag_245:\n        /* \"#utility.yul\":21809:21813   */\n      0x00\n        /* \"#utility.yul\":21847:21849   */\n      0x20\n        /* \"#utility.yul\":21836:21845   */\n      dup3\n        /* \"#utility.yul\":21832:21850   */\n      add\n        /* \"#utility.yul\":21824:21850   */\n      swap1\n      pop\n        /* \"#utility.yul\":21896:21905   */\n      dup2\n        /* \"#utility.yul\":21890:21894   */\n      dup2\n        /* \"#utility.yul\":21886:21906   */\n      sub\n        /* \"#utility.yul\":21882:21883   */\n      0x00\n        /* \"#utility.yul\":21871:21880   */\n      dup4\n        /* \"#utility.yul\":21867:21884   */\n      add\n        /* \"#utility.yul\":21860:21907   */\n      mstore\n        /* \"#utility.yul\":21924:22055   */\n      tag_577\n        /* \"#utility.yul\":22050:22054   */\n      dup2\n        /* \"#utility.yul\":21924:22055   */\n      tag_374\n      jump\t// in\n    tag_577:\n        /* \"#utility.yul\":21916:22055   */\n      swap1\n      pop\n        /* \"#utility.yul\":21643:22062   */\n      swap2\n      swap1\n      pop\n      jump\t// out\n        /* \"#utility.yul\":22068:22215   */\n    tag_375:\n        /* \"#utility.yul\":22169:22180   */\n      0x00\n        /* \"#utility.yul\":22206:22209   */\n      dup2\n        /* \"#utility.yul\":22191:22209   */\n      swap1\n      pop\n        /* \"#utility.yul\":22068:22215   */\n      swap3\n      swap2\n      pop\n      pop\n      jump\t// out\n        /* \"#utility.yul\":22221:22335   */\n    tag_376:\n      pop\n      jump\t// out\n        /* \"#utility.yul\":22341:22739   */\n    tag_377:\n        /* \"#utility.yul\":22500:22503   */\n      0x00\n        /* \"#utility.yul\":22521:22604   */\n      tag_581\n        /* \"#utility.yul\":22602:22603   */\n      0x00\n        /* \"#utility.yul\":22597:22600   */\n      dup4\n        /* \"#utility.yul\":22521:22604   */\n      tag_375\n      jump\t// in\n    tag_581:\n        /* \"#utility.yul\":22514:22604   */\n      swap2\n      pop\n        /* \"#utility.yul\":22613:22706   */\n      tag_582\n        /* \"#utility.yul\":22702:22705   */\n      dup3\n        /* \"#utility.yul\":22613:22706   */\n      tag_376\n      jump\t// in\n    tag_582:\n        /* \"#utility.yul\":22731:22732   */\n      0x00\n        /* \"#utility.yul\":22726:22729   */\n      dup3\n        /* \"#utility.yul\":22722:22733   */\n      add\n        /* \"#utility.yul\":22715:22733   */\n      swap1\n      pop\n        /* \"#utility.yul\":22341:22739   */\n      swap2\n      swap1\n      pop\n      jump\t// out\n        /* \"#utility.yul\":22745:23124   */\n    tag_247:\n        /* \"#utility.yul\":22929:22932   */\n      0x00\n        /* \"#utility.yul\":22951:23098   */\n      tag_584\n        /* \"#utility.yul\":23094:23097   */\n      dup3\n        /* \"#utility.yul\":22951:23098   */\n      tag_377\n      jump\t// in\n    tag_584:\n        /* \"#utility.yul\":22944:23098   */\n      swap2\n      pop\n        /* \"#utility.yul\":23115:23118   */\n      dup2\n        /* \"#utility.yul\":23108:23118   */\n      swap1\n      pop\n        /* \"#utility.yul\":22745:23124   */\n      swap2\n      swap1\n      pop\n      jump\t// out\n        /* \"#utility.yul\":23130:23301   */\n    tag_378:\n        /* \"#utility.yul\":23270:23293   */\n      0x4574686572207472616e73666572206661696c65640000000000000000000000\n        /* \"#utility.yul\":23266:23267   */\n      0x00\n        /* \"#utility.yul\":23258:23264   */\n      dup3\n        /* \"#utility.yul\":23254:23268   */\n      add\n        /* \"#utility.yul\":23247:23294   */\n      mstore\n        /* \"#utility.yul\":23130:23301   */\n      pop\n      jump\t// out\n        /* \"#utility.yul\":23307:23673   */\n    tag_379:\n        /* \"#utility.yul\":23449:23452   */\n      0x00\n        /* \"#utility.yul\":23470:23537   */\n      tag_587\n        /* \"#utility.yul\":23534:23536   */\n      0x15\n        /* \"#utility.yul\":23529:23532   */\n      dup4\n        /* \"#utility.yul\":23470:23537   */\n      tag_346\n      jump\t// in\n    tag_587:\n        /* \"#utility.yul\":23463:23537   */\n      swap2\n      pop\n        /* \"#utility.yul\":23546:23639   */\n      tag_588\n        /* \"#utility.yul\":23635:23638   */\n      dup3\n        /* \"#utility.yul\":23546:23639   */\n      tag_378\n      jump\t// in\n    tag_588:\n        /* \"#utility.yul\":23664:23666   */\n      0x20\n        /* \"#utility.yul\":23659:23662   */\n      dup3\n        /* \"#utility.yul\":23655:23667   */\n      add\n        /* \"#utility.yul\":23648:23667   */\n      swap1\n      pop\n        /* \"#utility.yul\":23307:23673   */\n      swap2\n      swap1\n      pop\n      jump\t// out\n        /* \"#utility.yul\":23679:24098   */\n    tag_253:\n        /* \"#utility.yul\":23845:23849   */\n      0x00\n        /* \"#utility.yul\":23883:23885   */\n      0x20\n        /* \"#utility.yul\":23872:23881   */\n      dup3\n        /* \"#utility.yul\":23868:23886   */\n      add\n        /* \"#utility.yul\":23860:23886   */\n      swap1\n      pop\n        /* \"#utility.yul\":23932:23941   */\n      dup2\n        /* \"#utility.yul\":23926:23930   */\n      dup2\n        /* \"#utility.yul\":23922:23942   */\n      sub\n        /* \"#utility.yul\":23918:23919   */\n      0x00\n        /* \"#utility.yul\":23907:23916   */\n      dup4\n        /* \"#utility.yul\":23903:23920   */\n      add\n        /* \"#utility.yul\":23896:23943   */\n      mstore\n        /* \"#utility.yul\":23960:24091   */\n      tag_590\n        /* \"#utility.yul\":24086:24090   */\n      dup2\n        /* \"#utility.yul\":23960:24091   */\n      tag_379\n      jump\t// in\n    tag_590:\n        /* \"#utility.yul\":23952:24091   */\n      swap1\n      pop\n        /* \"#utility.yul\":23679:24098   */\n      swap2\n      swap1\n      pop\n      jump\t// out\n        /* \"#utility.yul\":24104:24285   */\n    tag_380:\n        /* \"#utility.yul\":24244:24277   */\n      0x416c72656164792061742074686973206c6576656c206f722068696768657200\n        /* \"#utility.yul\":24240:24241   */\n      0x00\n        /* \"#utility.yul\":24232:24238   */\n      dup3\n        /* \"#utility.yul\":24228:24242   */\n      add\n        /* \"#utility.yul\":24221:24278   */\n      mstore\n        /* \"#utility.yul\":24104:24285   */\n      pop\n      jump\t// out\n        /* \"#utility.yul\":24291:24657   */\n    tag_381:\n        /* \"#utility.yul\":24433:24436   */\n      0x00\n        /* \"#utility.yul\":24454:24521   */\n      tag_593\n        /* \"#utility.yul\":24518:24520   */\n      0x1f\n        /* \"#utility.yul\":24513:24516   */\n      dup4\n        /* \"#utility.yul\":24454:24521   */\n      tag_346\n      jump\t// in\n    tag_593:\n        /* \"#utility.yul\":24447:24521   */\n      swap2\n      pop\n        /* \"#utility.yul\":24530:24623   */\n      tag_594\n        /* \"#utility.yul\":24619:24622   */\n      dup3\n        /* \"#utility.yul\":24530:24623   */\n      tag_380\n      jump\t// in\n    tag_594:\n        /* \"#utility.yul\":24648:24650   */\n      0x20\n        /* \"#utility.yul\":24643:24646   */\n      dup3\n        /* \"#utility.yul\":24639:24651   */\n      add\n        /* \"#utility.yul\":24632:24651   */\n      swap1\n      pop\n        /* \"#utility.yul\":24291:24657   */\n      swap2\n      swap1\n      pop\n      jump\t// out\n        /* \"#utility.yul\":24663:25082   */\n    tag_261:\n        /* \"#utility.yul\":24829:24833   */\n      0x00\n        /* \"#utility.yul\":24867:24869   */\n      0x20\n        /* \"#utility.yul\":24856:24865   */\n      dup3\n        /* \"#utility.yul\":24852:24870   */\n      add\n        /* \"#utility.yul\":24844:24870   */\n      swap1\n      pop\n        /* \"#utility.yul\":24916:24925   */\n      dup2\n        /* \"#utility.yul\":24910:24914   */\n      dup2\n        /* \"#utility.yul\":24906:24926   */\n      sub\n        /* \"#utility.yul\":24902:24903   */\n      0x00\n        /* \"#utility.yul\":24891:24900   */\n      dup4\n        /* \"#utility.yul\":24887:24904   */\n      add\n        /* \"#utility.yul\":24880:24927   */\n      mstore\n        /* \"#utility.yul\":24944:25075   */\n      tag_596\n        /* \"#utility.yul\":25070:25074   */\n      dup2\n        /* \"#utility.yul\":24944:25075   */\n      tag_381\n      jump\t// in\n    tag_596:\n        /* \"#utility.yul\":24936:25075   */\n      swap1\n      pop\n        /* \"#utility.yul\":24663:25082   */\n      swap2\n      swap1\n      pop\n      jump\t// out\n        /* \"#utility.yul\":25088:25268   */\n    tag_308:\n        /* \"#utility.yul\":25136:25213   */\n      0x4e487b7100000000000000000000000000000000000000000000000000000000\n        /* \"#utility.yul\":25133:25134   */\n      0x00\n        /* \"#utility.yul\":25126:25214   */\n      mstore\n        /* \"#utility.yul\":25233:25237   */\n      0x31\n        /* \"#utility.yul\":25230:25231   */\n      0x04\n        /* \"#utility.yul\":25223:25238   */\n      mstore\n        /* \"#utility.yul\":25257:25261   */\n      0x24\n        /* \"#utility.yul\":25254:25255   */\n      0x00\n        /* \"#utility.yul\":25247:25262   */\n      revert\n\n    auxdata: 0xa2646970667358221220c1e56255865b3bfbb66e23ffdbd8d544e215591f7d6380036bf04efac008c88364736f6c634300081a0033\n}\n",
				"bytecode": {
					"linkReferences": {},
					"object": "60806040526729a2241af62c00006003556004805534801561001f575f80fd5b50604051612fb5380380612fb58339818101604052810190610041919061016c565b335f806101000a81548173ffffffffffffffffffffffffffffffffffffffff021916908373ffffffffffffffffffffffffffffffffffffffff1602179055508060015f6101000a81548173ffffffffffffffffffffffffffffffffffffffff021916908373ffffffffffffffffffffffffffffffffffffffff1602179055508160025f6101000a81548173ffffffffffffffffffffffffffffffffffffffff021916908373ffffffffffffffffffffffffffffffffffffffff1602179055504260058190555050506101aa565b5f80fd5b5f73ffffffffffffffffffffffffffffffffffffffff82169050919050565b5f61013b82610112565b9050919050565b61014b81610131565b8114610155575f80fd5b50565b5f8151905061016681610142565b92915050565b5f80604083850312156101825761018161010e565b5b5f61018f85828601610158565b92505060206101a085828601610158565b9150509250929050565b612dfe806101b75f395ff3fe608060405260043610610117575f3560e01c80639d741e5d1161009f578063b0cd9cff11610063578063b0cd9cff146103ec578063b894cb2414610416578063c1756a2c14610452578063e2a609b91461047a578063e39f82eb146104a45761016c565b80639d741e5d146102f6578063a6f9dae114610320578063a87430ba14610348578063ad884f6914610388578063aefb3434146103b05761016c565b80636f4a2cd0116100e65780636f4a2cd01461023a5780638da5cb5b146102505780638ea5220f1461027a5780638f1c3151146102a45780639342c8f4146102ce5761016c565b806314c44e09146101705780631517f6631461019a5780631816467f146101d657806341a0894d146101fe5761016c565b3661016c573373ffffffffffffffffffffffffffffffffffffffff167f88a5966d370b9919b20f3e2c13ff65706f196a4e32cc2c12bf57088f885258743460405161016291906121ba565b60405180910390a2005b5f80fd5b34801561017b575f80fd5b506101846104cc565b60405161019191906121ba565b60405180910390f35b3480156101a5575f80fd5b506101c060048036038101906101bb9190612201565b6104d2565b6040516101cd91906121ba565b60405180910390f35b3480156101e1575f80fd5b506101fc60048036038101906101f79190612286565b610541565b005b348015610209575f80fd5b50610224600480360381019061021f9190612286565b6106fa565b6040516102319190612368565b60405180910390f35b348015610245575f80fd5b5061024e6107c5565b005b34801561025b575f80fd5b50610264610bcc565b6040516102719190612397565b60405180910390f35b348015610285575f80fd5b5061028e610bef565b60405161029b9190612397565b60405180910390f35b3480156102af575f80fd5b506102b8610c14565b6040516102c591906121ba565b60405180910390f35b3480156102d9575f80fd5b506102f460048036038101906102ef9190612201565b610c1a565b005b348015610301575f80fd5b5061030a610e61565b6040516103179190612397565b60405180910390f35b34801561032b575f80fd5b5061034660048036038101906103419190612286565b610e86565b005b348015610353575f80fd5b5061036e60048036038101906103699190612286565b61103c565b60405161037f9594939291906123ca565b60405180910390f35b348015610393575f80fd5b506103ae60048036038101906103a99190612286565b611099565b005b3480156103bb575f80fd5b506103d660048036038101906103d1919061241b565b611737565b6040516103e39190612397565b60405180910390f35b3480156103f7575f80fd5b5061040061177f565b60405161040d91906121ba565b60405180910390f35b348015610421575f80fd5b5061043c60048036038101906104379190612201565b611785565b6040516104499190612368565b60405180910390f35b34801561045d575f80fd5b5061047860048036038101906104739190612494565b611872565b005b348015610485575f80fd5b5061048e611a3d565b60405161049b91906121ba565b60405180910390f35b3480156104af575f80fd5b506104ca60048036038101906104c59190612201565b611a43565b005b60035481565b5f600282036104ec576801a055690d9db80000905061053c565b6003820361050557681043561a8829300000905061053c565b6004820361051e5768a2a15d09519be00000905061053c565b600582036105385769065a4da25d3016c00000905061053c565b5f90505b919050565b5f8054906101000a900473ffffffffffffffffffffffffffffffffffffffff1673ffffffffffffffffffffffffffffffffffffffff163373ffffffffffffffffffffffffffffffffffffffff16146105ce576040517f08c379a00000000000000000000000000000000000000000000000000000000081526004016105c59061252c565b60405180910390fd5b5f73ffffffffffffffffffffffffffffffffffffffff168173ffffffffffffffffffffffffffffffffffffffff160361063c576040517f08c379a0000000000000000000000000000000000000000000000000000000008152600401610633906125ba565b60405180910390fd5b8073ffffffffffffffffffffffffffffffffffffffff1660015f9054906101000a900473ffffffffffffffffffffffffffffffffffffffff1673ffffffffffffffffffffffffffffffffffffffff167f0db17895a9d092fb3ca24d626f2150dd80c185b0706b36f1040ee239f56cb87160405160405180910390a38060015f6101000a81548173ffffffffffffffffffffffffffffffffffffffff021916908373ffffffffffffffffffffffffffffffffffffffff16021790555050565b606060065f8373ffffffffffffffffffffffffffffffffffffffff1673ffffffffffffffffffffffffffffffffffffffff1681526020019081526020015f206005018054806020026020016040519081016040528092919081815260200182805480156107b957602002820191905f5260205f20905b815f9054906101000a900473ffffffffffffffffffffffffffffffffffffffff1673ffffffffffffffffffffffffffffffffffffffff1681526020019060010190808311610770575b50505050509050919050565b5f8054906101000a900473ffffffffffffffffffffffffffffffffffffffff1673ffffffffffffffffffffffffffffffffffffffff163373ffffffffffffffffffffffffffffffffffffffff1614610852576040517f08c379a00000000000000000000000000000000000000000000000000000000081526004016108499061252c565b60405180910390fd5b620151806005546108639190612605565b4210156108a5576040517f08c379a000000000000000000000000000000000000000000000000000000000815260040161089c906126a8565b60405180910390fd5b5f60085490505f6064600454836108bc91906126c6565b6108c69190612734565b90508060085f8282546108d99190612764565b9250508190555060025f9054906101000a900473ffffffffffffffffffffffffffffffffffffffff1673ffffffffffffffffffffffffffffffffffffffff1663a9059cbb60015f9054906101000a900473ffffffffffffffffffffffffffffffffffffffff16836040518363ffffffff1660e01b815260040161095d929190612797565b6020604051808303815f875af1158015610979573d5f803e3d5ffd5b505050506040513d601f19601f8201168201806040525081019061099d91906127e8565b6109dc576040517f08c379a00000000000000000000000000000000000000000000000000000000081526004016109d39061285d565b60405180910390fd5b5f81836109e99190612764565b90505f600190505b60058111610b88575f610a0382611db9565b90505f60648285610a1491906126c6565b610a1e9190612734565b90505f60075f8581526020019081526020015f20805480602002602001604051908101604052809291908181526020018280548015610aaf57602002820191905f5260205f20905b815f9054906101000a900473ffffffffffffffffffffffffffffffffffffffff1673ffffffffffffffffffffffffffffffffffffffff1681526020019060010190808311610a66575b505050505090505f81511115610b72575f815183610acd9190612734565b90505f5b8251811015610b6f578160065f858481518110610af157610af061287b565b5b602002602001015173ffffffffffffffffffffffffffffffffffffffff1673ffffffffffffffffffffffffffffffffffffffff1681526020019081526020015f206003015f828254610b439190612605565b925050819055508160085f828254610b5b9190612764565b925050819055508080600101915050610ad1565b50505b5050508080610b80906128a8565b9150506109f1565b50426005819055507f6d1c76d614228b523baa4dcd9539e2c713b54ff4ab3ff2d1627e7f6cd32be44283604051610bbf91906121ba565b60405180910390a1505050565b5f8054906101000a900473ffffffffffffffffffffffffffffffffffffffff1681565b60015f9054906101000a900473ffffffffffffffffffffffffffffffffffffffff1681565b60045481565b5f8111610c5c576040517f08c379a0000000000000000000000000000000000000000000000000000000008152600401610c539061295f565b60405180910390fd5b8060065f3373ffffffffffffffffffffffffffffffffffffffff1673ffffffffffffffffffffffffffffffffffffffff1681526020019081526020015f20600301541015610cdf576040517f08c379a0000000000000000000000000000000000000000000000000000000008152600401610cd6906129c7565b60405180910390fd5b8060065f3373ffffffffffffffffffffffffffffffffffffffff1673ffffffffffffffffffffffffffffffffffffffff1681526020019081526020015f206003015f828254610d2e9190612764565b9250508190555060025f9054906101000a900473ffffffffffffffffffffffffffffffffffffffff1673ffffffffffffffffffffffffffffffffffffffff1663a9059cbb33836040518363ffffffff1660e01b8152600401610d91929190612797565b6020604051808303815f875af1158015610dad573d5f803e3d5ffd5b505050506040513d601f19601f82011682018060405250810190610dd191906127e8565b610e10576040517f08c379a0000000000000000000000000000000000000000000000000000000008152600401610e0790612a2f565b60405180910390fd5b3373ffffffffffffffffffffffffffffffffffffffff167f7fcf532c15f0a6db0bd6d0e038bea71d30d808c7d98cb3bf7268a95bf5081b6582604051610e5691906121ba565b60405180910390a250565b60025f9054906101000a900473ffffffffffffffffffffffffffffffffffffffff1681565b5f8054906101000a900473ffffffffffffffffffffffffffffffffffffffff1673ffffffffffffffffffffffffffffffffffffffff163373ffffffffffffffffffffffffffffffffffffffff1614610f13576040517f08c379a0000000000000000000000000000000000000000000000000000000008152600401610f0a9061252c565b60405180910390fd5b5f73ffffffffffffffffffffffffffffffffffffffff168173ffffffffffffffffffffffffffffffffffffffff1603610f81576040517f08c379a0000000000000000000000000000000000000000000000000000000008152600401610f7890612a97565b60405180910390fd5b8073ffffffffffffffffffffffffffffffffffffffff165f8054906101000a900473ffffffffffffffffffffffffffffffffffffffff1673ffffffffffffffffffffffffffffffffffffffff167f8be0079c531659141344cd1fd0a4f28419497f9722a3daafe3b4186f6b6457e060405160405180910390a3805f806101000a81548173ffffffffffffffffffffffffffffffffffffffff021916908373ffffffffffffffffffffffffffffffffffffffff16021790555050565b6006602052805f5260405f205f91509050805f015f9054906101000a900473ffffffffffffffffffffffffffffffffffffffff1690806001015490806002015490806003015490806004015f9054906101000a900460ff16905085565b5f73ffffffffffffffffffffffffffffffffffffffff1660065f3373ffffffffffffffffffffffffffffffffffffffff1673ffffffffffffffffffffffffffffffffffffffff1681526020019081526020015f205f015f9054906101000a900473ffffffffffffffffffffffffffffffffffffffff1673ffffffffffffffffffffffffffffffffffffffff1614611165576040517f08c379a000000000000000000000000000000000000000000000000000000000815260040161115c90612aff565b60405180910390fd5b60025f9054906101000a900473ffffffffffffffffffffffffffffffffffffffff1673ffffffffffffffffffffffffffffffffffffffff166323b872dd33306003546040518463ffffffff1660e01b81526004016111c593929190612b1d565b6020604051808303815f875af11580156111e1573d5f803e3d5ffd5b505050506040513d601f19601f8201168201806040525081019061120591906127e8565b611244576040517f08c379a000000000000000000000000000000000000000000000000000000000815260040161123b90612b9c565b60405180910390fd5b5f73ffffffffffffffffffffffffffffffffffffffff168173ffffffffffffffffffffffffffffffffffffffff16141580156112ac57503373ffffffffffffffffffffffffffffffffffffffff168173ffffffffffffffffffffffffffffffffffffffff1614155b156115415760065f8273ffffffffffffffffffffffffffffffffffffffff1673ffffffffffffffffffffffffffffffffffffffff1681526020019081526020015f206001015f815480929190611301906128a8565b919050555060065f8273ffffffffffffffffffffffffffffffffffffffff1673ffffffffffffffffffffffffffffffffffffffff1681526020019081526020015f2060050133908060018154018082558091505060019003905f5260205f20015f9091909190916101000a81548173ffffffffffffffffffffffffffffffffffffffff021916908373ffffffffffffffffffffffffffffffffffffffff1602179055505f6113ee60065f8473ffffffffffffffffffffffffffffffffffffffff1673ffffffffffffffffffffffffffffffffffffffff1681526020019081526020015f2060010154611e18565b90508060065f8473ffffffffffffffffffffffffffffffffffffffff1673ffffffffffffffffffffffffffffffffffffffff1681526020019081526020015f206002015414611536576114818260065f8573ffffffffffffffffffffffffffffffffffffffff1673ffffffffffffffffffffffffffffffffffffffff1681526020019081526020015f2060020154611eb7565b8060065f8473ffffffffffffffffffffffffffffffffffffffff1673ffffffffffffffffffffffffffffffffffffffff1681526020019081526020015f206002018190555060075f8281526020019081526020015f2082908060018154018082558091505060019003905f5260205f20015f9091909190916101000a81548173ffffffffffffffffffffffffffffffffffffffff021916908373ffffffffffffffffffffffffffffffffffffffff1602179055505b61153f82612044565b505b8060065f3373ffffffffffffffffffffffffffffffffffffffff1673ffffffffffffffffffffffffffffffffffffffff1681526020019081526020015f205f015f6101000a81548173ffffffffffffffffffffffffffffffffffffffff021916908373ffffffffffffffffffffffffffffffffffffffff1602179055505f61160860065f3373ffffffffffffffffffffffffffffffffffffffff1673ffffffffffffffffffffffffffffffffffffffff1681526020019081526020015f2060010154611e18565b9050600160065f3373ffffffffffffffffffffffffffffffffffffffff1673ffffffffffffffffffffffffffffffffffffffff1681526020019081526020015f206004015f6101000a81548160ff0219169083151502179055508060065f3373ffffffffffffffffffffffffffffffffffffffff1673ffffffffffffffffffffffffffffffffffffffff1681526020019081526020015f2060020181905550606460326003546116b891906126c6565b6116c29190612734565b60085f8282546116d29190612605565b925050819055508173ffffffffffffffffffffffffffffffffffffffff163373ffffffffffffffffffffffffffffffffffffffff167f0a31ee9d46a828884b81003c8498156ea6aa15b9b54bdd0ef0b533d9eba57e5560405160405180910390a35050565b6007602052815f5260405f208181548110611750575f80fd5b905f5260205f20015f915091509054906101000a900473ffffffffffffffffffffffffffffffffffffffff1681565b60055481565b606060018210158015611799575060058211155b6117d8576040517f08c379a00000000000000000000000000000000000000000000000000000000081526004016117cf90612c04565b60405180910390fd5b60075f8381526020019081526020015f2080548060200260200160405190810160405280929190818152602001828054801561186657602002820191905f5260205f20905b815f9054906101000a900473ffffffffffffffffffffffffffffffffffffffff1673ffffffffffffffffffffffffffffffffffffffff168152602001906001019080831161181d575b50505050509050919050565b5f8054906101000a900473ffffffffffffffffffffffffffffffffffffffff1673ffffffffffffffffffffffffffffffffffffffff163373ffffffffffffffffffffffffffffffffffffffff16146118ff576040517f08c379a00000000000000000000000000000000000000000000000000000000081526004016118f69061252c565b60405180910390fd5b80471015611942576040517f08c379a000000000000000000000000000000000000000000000000000000000815260040161193990612c6c565b60405180910390fd5b5f8273ffffffffffffffffffffffffffffffffffffffff168260405161196790612cb7565b5f6040518083038185875af1925050503d805f81146119a1576040519150601f19603f3d011682016040523d82523d5f602084013e6119a6565b606091505b50509050806119ea576040517f08c379a00000000000000000000000000000000000000000000000000000000081526004016119e190612d15565b60405180910390fd5b8273ffffffffffffffffffffffffffffffffffffffff167f510ffb4dcab972ae9d2007a58e13f1b0881776d23cd8f5cc32f8c5be2dbf70d283604051611a3091906121ba565b60405180910390a2505050565b60085481565b60018110158015611a55575060058111155b611a94576040517f08c379a0000000000000000000000000000000000000000000000000000000008152600401611a8b90612c04565b60405180910390fd5b8060065f3373ffffffffffffffffffffffffffffffffffffffff1673ffffffffffffffffffffffffffffffffffffffff1681526020019081526020015f206002015410611b16576040517f08c379a0000000000000000000000000000000000000000000000000000000008152600401611b0d90612d7d565b60405180910390fd5b5f611b20826104d2565b905060025f9054906101000a900473ffffffffffffffffffffffffffffffffffffffff1673ffffffffffffffffffffffffffffffffffffffff166323b872dd3330846040518463ffffffff1660e01b8152600401611b8093929190612b1d565b6020604051808303815f875af1158015611b9c573d5f803e3d5ffd5b505050506040513d601f19601f82011682018060405250810190611bc091906127e8565b611bff576040517f08c379a0000000000000000000000000000000000000000000000000000000008152600401611bf690612b9c565b60405180910390fd5b5f611c098361210a565b90508060065f3373ffffffffffffffffffffffffffffffffffffffff1673ffffffffffffffffffffffffffffffffffffffff1681526020019081526020015f2060010181905550611c9a3360065f3373ffffffffffffffffffffffffffffffffffffffff1673ffffffffffffffffffffffffffffffffffffffff1681526020019081526020015f2060020154611eb7565b8260065f3373ffffffffffffffffffffffffffffffffffffffff1673ffffffffffffffffffffffffffffffffffffffff1681526020019081526020015f206002018190555060075f8481526020019081526020015f2033908060018154018082558091505060019003905f5260205f20015f9091909190916101000a81548173ffffffffffffffffffffffffffffffffffffffff021916908373ffffffffffffffffffffffffffffffffffffffff1602179055508160085f828254611d5f9190612605565b925050819055503373ffffffffffffffffffffffffffffffffffffffff167f427898149ffa0bd0a638b73a8506cc040ca0034a36bdb547db4fb73fd0313c0284604051611dac91906121ba565b60405180910390a2505050565b5f60018203611dcb5760109050611e13565b60028203611ddc5760129050611e13565b60038203611ded5760149050611e13565b60048203611dfe5760169050611e13565b60058203611e0f5760189050611e13565b5f90505b919050565b5f60018210158015611e2b575060098211155b15611e395760019050611eb2565b600a8210158015611e4b575060638211155b15611e595760029050611eb2565b60648210158015611e6c57506103e78211155b15611e7a5760039050611eb2565b6103e88210158015611e8e575061270f8211155b15611e9c5760049050611eb2565b6127108210611eae5760059050611eb2565b5f90505b919050565b5f60075f8381526020019081526020015f2090505f5b818054905081101561203e578373ffffffffffffffffffffffffffffffffffffffff16828281548110611f0357611f0261287b565b5b905f5260205f20015f9054906101000a900473ffffffffffffffffffffffffffffffffffffffff1673ffffffffffffffffffffffffffffffffffffffff1603612031578160018380549050611f589190612764565b81548110611f6957611f6861287b565b5b905f5260205f20015f9054906101000a900473ffffffffffffffffffffffffffffffffffffffff16828281548110611fa457611fa361287b565b5b905f5260205f20015f6101000a81548173ffffffffffffffffffffffffffffffffffffffff021916908373ffffffffffffffffffffffffffffffffffffffff16021790555081805480611ffa57611ff9612d9b565b5b600190038181905f5260205f20015f6101000a81549073ffffffffffffffffffffffffffffffffffffffff0219169055905561203e565b8080600101915050611ecd565b50505050565b5f6064603260035461205691906126c6565b6120609190612734565b90508060065f8473ffffffffffffffffffffffffffffffffffffffff1673ffffffffffffffffffffffffffffffffffffffff1681526020019081526020015f206003015f8282546120b19190612605565b925050819055508173ffffffffffffffffffffffffffffffffffffffff167f6292f4f27d8047af4537a4bd86906de0e2c880c20086f7f58b81eacfeb639126826040516120fe91906121ba565b60405180910390a25050565b5f6001820361211c576001905061219d565b6002820361212d57600a905061219d565b6003820361213e576064905061219d565b60048203612150576103e8905061219d565b6005820361216257612710905061219d565b6040517f08c379a000000000000000000000000000000000000000000000000000000000815260040161219490612c04565b60405180910390fd5b919050565b5f819050919050565b6121b4816121a2565b82525050565b5f6020820190506121cd5f8301846121ab565b92915050565b5f80fd5b6121e0816121a2565b81146121ea575f80fd5b50565b5f813590506121fb816121d7565b92915050565b5f60208284031215612216576122156121d3565b5b5f612223848285016121ed565b91505092915050565b5f73ffffffffffffffffffffffffffffffffffffffff82169050919050565b5f6122558261222c565b9050919050565b6122658161224b565b811461226f575f80fd5b50565b5f813590506122808161225c565b92915050565b5f6020828403121561229b5761229a6121d3565b5b5f6122a884828501612272565b91505092915050565b5f81519050919050565b5f82825260208201905092915050565b5f819050602082019050919050565b6122e38161224b565b82525050565b5f6122f483836122da565b60208301905092915050565b5f602082019050919050565b5f612316826122b1565b61232081856122bb565b935061232b836122cb565b805f5b8381101561235b57815161234288826122e9565b975061234d83612300565b92505060018101905061232e565b5085935050505092915050565b5f6020820190508181035f830152612380818461230c565b905092915050565b6123918161224b565b82525050565b5f6020820190506123aa5f830184612388565b92915050565b5f8115159050919050565b6123c4816123b0565b82525050565b5f60a0820190506123dd5f830188612388565b6123ea60208301876121ab565b6123f760408301866121ab565b61240460608301856121ab565b61241160808301846123bb565b9695505050505050565b5f8060408385031215612431576124306121d3565b5b5f61243e858286016121ed565b925050602061244f858286016121ed565b9150509250929050565b5f6124638261222c565b9050919050565b61247381612459565b811461247d575f80fd5b50565b5f8135905061248e8161246a565b92915050565b5f80604083850312156124aa576124a96121d3565b5b5f6124b785828601612480565b92505060206124c8858286016121ed565b9150509250929050565b5f82825260208201905092915050565b7f4e6f7420617574686f72697a65640000000000000000000000000000000000005f82015250565b5f612516600e836124d2565b9150612521826124e2565b602082019050919050565b5f6020820190508181035f8301526125438161250a565b9050919050565b7f4e6577206465762077616c6c657420697320746865207a65726f2061646472655f8201527f7373000000000000000000000000000000000000000000000000000000000000602082015250565b5f6125a46022836124d2565b91506125af8261254a565b604082019050919050565b5f6020820190508181035f8301526125d181612598565b9050919050565b7f4e487b71000000000000000000000000000000000000000000000000000000005f52601160045260245ffd5b5f61260f826121a2565b915061261a836121a2565b9250828201905080821115612632576126316125d8565b5b92915050565b7f526577617264732063616e206f6e6c79206265206469737472696275746564205f8201527f657665727920323420686f757273000000000000000000000000000000000000602082015250565b5f612692602e836124d2565b915061269d82612638565b604082019050919050565b5f6020820190508181035f8301526126bf81612686565b9050919050565b5f6126d0826121a2565b91506126db836121a2565b92508282026126e9816121a2565b91508282048414831517612700576126ff6125d8565b5b5092915050565b7f4e487b71000000000000000000000000000000000000000000000000000000005f52601260045260245ffd5b5f61273e826121a2565b9150612749836121a2565b92508261275957612758612707565b5b828204905092915050565b5f61276e826121a2565b9150612779836121a2565b9250828203905081811115612791576127906125d8565b5b92915050565b5f6040820190506127aa5f830185612388565b6127b760208301846121ab565b9392505050565b6127c7816123b0565b81146127d1575f80fd5b50565b5f815190506127e2816127be565b92915050565b5f602082840312156127fd576127fc6121d3565b5b5f61280a848285016127d4565b91505092915050565b7f4f776e6572207061796d656e74206661696c65640000000000000000000000005f82015250565b5f6128476014836124d2565b915061285282612813565b602082019050919050565b5f6020820190508181035f8301526128748161283b565b9050919050565b7f4e487b71000000000000000000000000000000000000000000000000000000005f52603260045260245ffd5b5f6128b2826121a2565b91507fffffffffffffffffffffffffffffffffffffffffffffffffffffffffffffffff82036128e4576128e36125d8565b5b600182019050919050565b7f576974686472617720616d6f756e74206d7573742062652067726561746572205f8201527f7468616e207a65726f0000000000000000000000000000000000000000000000602082015250565b5f6129496029836124d2565b9150612954826128ef565b604082019050919050565b5f6020820190508181035f8301526129768161293d565b9050919050565b7f496e73756666696369656e74206561726e6564207265776172647300000000005f82015250565b5f6129b1601b836124d2565b91506129bc8261297d565b602082019050919050565b5f6020820190508181035f8301526129de816129a5565b9050919050565b7f5769746864726177616c206661696c65640000000000000000000000000000005f82015250565b5f612a196011836124d2565b9150612a24826129e5565b602082019050919050565b5f6020820190508181035f830152612a4681612a0d565b9050919050565b7f4e6577206f776e657220697320746865207a65726f20616464726573730000005f82015250565b5f612a81601d836124d2565b9150612a8c82612a4d565b602082019050919050565b5f6020820190508181035f830152612aae81612a75565b9050919050565b7f416c7265616479207265676973746572656400000000000000000000000000005f82015250565b5f612ae96012836124d2565b9150612af482612ab5565b602082019050919050565b5f6020820190508181035f830152612b1681612add565b9050919050565b5f606082019050612b305f830186612388565b612b3d6020830185612388565b612b4a60408301846121ab565b949350505050565b7f5061796d656e74206661696c65640000000000000000000000000000000000005f82015250565b5f612b86600e836124d2565b9150612b9182612b52565b602082019050919050565b5f6020820190508181035f830152612bb381612b7a565b9050919050565b7f496e76616c6964206c6576656c000000000000000000000000000000000000005f82015250565b5f612bee600d836124d2565b9150612bf982612bba565b602082019050919050565b5f6020820190508181035f830152612c1b81612be2565b9050919050565b7f496e73756666696369656e742045746865722062616c616e63650000000000005f82015250565b5f612c56601a836124d2565b9150612c6182612c22565b602082019050919050565b5f6020820190508181035f830152612c8381612c4a565b9050919050565b5f81905092915050565b50565b5f612ca25f83612c8a565b9150612cad82612c94565b5f82019050919050565b5f612cc182612c97565b9150819050919050565b7f4574686572207472616e73666572206661696c656400000000000000000000005f82015250565b5f612cff6015836124d2565b9150612d0a82612ccb565b602082019050919050565b5f6020820190508181035f830152612d2c81612cf3565b9050919050565b7f416c72656164792061742074686973206c6576656c206f7220686967686572005f82015250565b5f612d67601f836124d2565b9150612d7282612d33565b602082019050919050565b5f6020820190508181035f830152612d9481612d5b565b9050919050565b7f4e487b71000000000000000000000000000000000000000000000000000000005f52603160045260245ffdfea2646970667358221220c1e56255865b3bfbb66e23ffdbd8d544e215591f7d6380036bf04efac008c88364736f6c634300081a0033",
					"opcodes": "PUSH1 0x80 PUSH1 0x40 MSTORE PUSH8 0x29A2241AF62C0000 PUSH1 0x3 SSTORE PUSH1 0x4 DUP1 SSTORE CALLVALUE DUP1 ISZERO PUSH2 0x1F JUMPI PUSH0 DUP1 REVERT JUMPDEST POP PUSH1 0x40 MLOAD PUSH2 0x2FB5 CODESIZE SUB DUP1 PUSH2 0x2FB5 DUP4 CODECOPY DUP2 DUP2 ADD PUSH1 0x40 MSTORE DUP2 ADD SWAP1 PUSH2 0x41 SWAP2 SWAP1 PUSH2 0x16C JUMP JUMPDEST CALLER PUSH0 DUP1 PUSH2 0x100 EXP DUP2 SLOAD DUP2 PUSH20 0xFFFFFFFFFFFFFFFFFFFFFFFFFFFFFFFFFFFFFFFF MUL NOT AND SWAP1 DUP4 PUSH20 0xFFFFFFFFFFFFFFFFFFFFFFFFFFFFFFFFFFFFFFFF AND MUL OR SWAP1 SSTORE POP DUP1 PUSH1 0x1 PUSH0 PUSH2 0x100 EXP DUP2 SLOAD DUP2 PUSH20 0xFFFFFFFFFFFFFFFFFFFFFFFFFFFFFFFFFFFFFFFF MUL NOT AND SWAP1 DUP4 PUSH20 0xFFFFFFFFFFFFFFFFFFFFFFFFFFFFFFFFFFFFFFFF AND MUL OR SWAP1 SSTORE POP DUP2 PUSH1 0x2 PUSH0 PUSH2 0x100 EXP DUP2 SLOAD DUP2 PUSH20 0xFFFFFFFFFFFFFFFFFFFFFFFFFFFFFFFFFFFFFFFF MUL NOT AND SWAP1 DUP4 PUSH20 0xFFFFFFFFFFFFFFFFFFFFFFFFFFFFFFFFFFFFFFFF AND MUL OR SWAP1 SSTORE POP TIMESTAMP PUSH1 0x5 DUP2 SWAP1 SSTORE POP POP POP PUSH2 0x1AA JUMP JUMPDEST PUSH0 DUP1 REVERT JUMPDEST PUSH0 PUSH20 0xFFFFFFFFFFFFFFFFFFFFFFFFFFFFFFFFFFFFFFFF DUP3 AND SWAP1 POP SWAP2 SWAP1 POP JUMP JUMPDEST PUSH0 PUSH2 0x13B DUP3 PUSH2 0x112 JUMP JUMPDEST SWAP1 POP SWAP2 SWAP1 POP JUMP JUMPDEST PUSH2 0x14B DUP2 PUSH2 0x131 JUMP JUMPDEST DUP2 EQ PUSH2 0x155 JUMPI PUSH0 DUP1 REVERT JUMPDEST POP JUMP JUMPDEST PUSH0 DUP2 MLOAD SWAP1 POP PUSH2 0x166 DUP2 PUSH2 0x142 JUMP JUMPDEST SWAP3 SWAP2 POP POP JUMP JUMPDEST PUSH0 DUP1 PUSH1 0x40 DUP4 DUP6 SUB SLT ISZERO PUSH2 0x182 JUMPI PUSH2 0x181 PUSH2 0x10E JUMP JUMPDEST JUMPDEST PUSH0 PUSH2 0x18F DUP6 DUP3 DUP7 ADD PUSH2 0x158 JUMP JUMPDEST SWAP3 POP POP PUSH1 0x20 PUSH2 0x1A0 DUP6 DUP3 DUP7 ADD PUSH2 0x158 JUMP JUMPDEST SWAP2 POP POP SWAP3 POP SWAP3 SWAP1 POP JUMP JUMPDEST PUSH2 0x2DFE DUP1 PUSH2 0x1B7 PUSH0 CODECOPY PUSH0 RETURN INVALID PUSH1 0x80 PUSH1 0x40 MSTORE PUSH1 0x4 CALLDATASIZE LT PUSH2 0x117 JUMPI PUSH0 CALLDATALOAD PUSH1 0xE0 SHR DUP1 PUSH4 0x9D741E5D GT PUSH2 0x9F JUMPI DUP1 PUSH4 0xB0CD9CFF GT PUSH2 0x63 JUMPI DUP1 PUSH4 0xB0CD9CFF EQ PUSH2 0x3EC JUMPI DUP1 PUSH4 0xB894CB24 EQ PUSH2 0x416 JUMPI DUP1 PUSH4 0xC1756A2C EQ PUSH2 0x452 JUMPI DUP1 PUSH4 0xE2A609B9 EQ PUSH2 0x47A JUMPI DUP1 PUSH4 0xE39F82EB EQ PUSH2 0x4A4 JUMPI PUSH2 0x16C JUMP JUMPDEST DUP1 PUSH4 0x9D741E5D EQ PUSH2 0x2F6 JUMPI DUP1 PUSH4 0xA6F9DAE1 EQ PUSH2 0x320 JUMPI DUP1 PUSH4 0xA87430BA EQ PUSH2 0x348 JUMPI DUP1 PUSH4 0xAD884F69 EQ PUSH2 0x388 JUMPI DUP1 PUSH4 0xAEFB3434 EQ PUSH2 0x3B0 JUMPI PUSH2 0x16C JUMP JUMPDEST DUP1 PUSH4 0x6F4A2CD0 GT PUSH2 0xE6 JUMPI DUP1 PUSH4 0x6F4A2CD0 EQ PUSH2 0x23A JUMPI DUP1 PUSH4 0x8DA5CB5B EQ PUSH2 0x250 JUMPI DUP1 PUSH4 0x8EA5220F EQ PUSH2 0x27A JUMPI DUP1 PUSH4 0x8F1C3151 EQ PUSH2 0x2A4 JUMPI DUP1 PUSH4 0x9342C8F4 EQ PUSH2 0x2CE JUMPI PUSH2 0x16C JUMP JUMPDEST DUP1 PUSH4 0x14C44E09 EQ PUSH2 0x170 JUMPI DUP1 PUSH4 0x1517F663 EQ PUSH2 0x19A JUMPI DUP1 PUSH4 0x1816467F EQ PUSH2 0x1D6 JUMPI DUP1 PUSH4 0x41A0894D EQ PUSH2 0x1FE JUMPI PUSH2 0x16C JUMP JUMPDEST CALLDATASIZE PUSH2 0x16C JUMPI CALLER PUSH20 0xFFFFFFFFFFFFFFFFFFFFFFFFFFFFFFFFFFFFFFFF AND PUSH32 0x88A5966D370B9919B20F3E2C13FF65706F196A4E32CC2C12BF57088F88525874 CALLVALUE PUSH1 0x40 MLOAD PUSH2 0x162 SWAP2 SWAP1 PUSH2 0x21BA JUMP JUMPDEST PUSH1 0x40 MLOAD DUP1 SWAP2 SUB SWAP1 LOG2 STOP JUMPDEST PUSH0 DUP1 REVERT JUMPDEST CALLVALUE DUP1 ISZERO PUSH2 0x17B JUMPI PUSH0 DUP1 REVERT JUMPDEST POP PUSH2 0x184 PUSH2 0x4CC JUMP JUMPDEST PUSH1 0x40 MLOAD PUSH2 0x191 SWAP2 SWAP1 PUSH2 0x21BA JUMP JUMPDEST PUSH1 0x40 MLOAD DUP1 SWAP2 SUB SWAP1 RETURN JUMPDEST CALLVALUE DUP1 ISZERO PUSH2 0x1A5 JUMPI PUSH0 DUP1 REVERT JUMPDEST POP PUSH2 0x1C0 PUSH1 0x4 DUP1 CALLDATASIZE SUB DUP2 ADD SWAP1 PUSH2 0x1BB SWAP2 SWAP1 PUSH2 0x2201 JUMP JUMPDEST PUSH2 0x4D2 JUMP JUMPDEST PUSH1 0x40 MLOAD PUSH2 0x1CD SWAP2 SWAP1 PUSH2 0x21BA JUMP JUMPDEST PUSH1 0x40 MLOAD DUP1 SWAP2 SUB SWAP1 RETURN JUMPDEST CALLVALUE DUP1 ISZERO PUSH2 0x1E1 JUMPI PUSH0 DUP1 REVERT JUMPDEST POP PUSH2 0x1FC PUSH1 0x4 DUP1 CALLDATASIZE SUB DUP2 ADD SWAP1 PUSH2 0x1F7 SWAP2 SWAP1 PUSH2 0x2286 JUMP JUMPDEST PUSH2 0x541 JUMP JUMPDEST STOP JUMPDEST CALLVALUE DUP1 ISZERO PUSH2 0x209 JUMPI PUSH0 DUP1 REVERT JUMPDEST POP PUSH2 0x224 PUSH1 0x4 DUP1 CALLDATASIZE SUB DUP2 ADD SWAP1 PUSH2 0x21F SWAP2 SWAP1 PUSH2 0x2286 JUMP JUMPDEST PUSH2 0x6FA JUMP JUMPDEST PUSH1 0x40 MLOAD PUSH2 0x231 SWAP2 SWAP1 PUSH2 0x2368 JUMP JUMPDEST PUSH1 0x40 MLOAD DUP1 SWAP2 SUB SWAP1 RETURN JUMPDEST CALLVALUE DUP1 ISZERO PUSH2 0x245 JUMPI PUSH0 DUP1 REVERT JUMPDEST POP PUSH2 0x24E PUSH2 0x7C5 JUMP JUMPDEST STOP JUMPDEST CALLVALUE DUP1 ISZERO PUSH2 0x25B JUMPI PUSH0 DUP1 REVERT JUMPDEST POP PUSH2 0x264 PUSH2 0xBCC JUMP JUMPDEST PUSH1 0x40 MLOAD PUSH2 0x271 SWAP2 SWAP1 PUSH2 0x2397 JUMP JUMPDEST PUSH1 0x40 MLOAD DUP1 SWAP2 SUB SWAP1 RETURN JUMPDEST CALLVALUE DUP1 ISZERO PUSH2 0x285 JUMPI PUSH0 DUP1 REVERT JUMPDEST POP PUSH2 0x28E PUSH2 0xBEF JUMP JUMPDEST PUSH1 0x40 MLOAD PUSH2 0x29B SWAP2 SWAP1 PUSH2 0x2397 JUMP JUMPDEST PUSH1 0x40 MLOAD DUP1 SWAP2 SUB SWAP1 RETURN JUMPDEST CALLVALUE DUP1 ISZERO PUSH2 0x2AF JUMPI PUSH0 DUP1 REVERT JUMPDEST POP PUSH2 0x2B8 PUSH2 0xC14 JUMP JUMPDEST PUSH1 0x40 MLOAD PUSH2 0x2C5 SWAP2 SWAP1 PUSH2 0x21BA JUMP JUMPDEST PUSH1 0x40 MLOAD DUP1 SWAP2 SUB SWAP1 RETURN JUMPDEST CALLVALUE DUP1 ISZERO PUSH2 0x2D9 JUMPI PUSH0 DUP1 REVERT JUMPDEST POP PUSH2 0x2F4 PUSH1 0x4 DUP1 CALLDATASIZE SUB DUP2 ADD SWAP1 PUSH2 0x2EF SWAP2 SWAP1 PUSH2 0x2201 JUMP JUMPDEST PUSH2 0xC1A JUMP JUMPDEST STOP JUMPDEST CALLVALUE DUP1 ISZERO PUSH2 0x301 JUMPI PUSH0 DUP1 REVERT JUMPDEST POP PUSH2 0x30A PUSH2 0xE61 JUMP JUMPDEST PUSH1 0x40 MLOAD PUSH2 0x317 SWAP2 SWAP1 PUSH2 0x2397 JUMP JUMPDEST PUSH1 0x40 MLOAD DUP1 SWAP2 SUB SWAP1 RETURN JUMPDEST CALLVALUE DUP1 ISZERO PUSH2 0x32B JUMPI PUSH0 DUP1 REVERT JUMPDEST POP PUSH2 0x346 PUSH1 0x4 DUP1 CALLDATASIZE SUB DUP2 ADD SWAP1 PUSH2 0x341 SWAP2 SWAP1 PUSH2 0x2286 JUMP JUMPDEST PUSH2 0xE86 JUMP JUMPDEST STOP JUMPDEST CALLVALUE DUP1 ISZERO PUSH2 0x353 JUMPI PUSH0 DUP1 REVERT JUMPDEST POP PUSH2 0x36E PUSH1 0x4 DUP1 CALLDATASIZE SUB DUP2 ADD SWAP1 PUSH2 0x369 SWAP2 SWAP1 PUSH2 0x2286 JUMP JUMPDEST PUSH2 0x103C JUMP JUMPDEST PUSH1 0x40 MLOAD PUSH2 0x37F SWAP6 SWAP5 SWAP4 SWAP3 SWAP2 SWAP1 PUSH2 0x23CA JUMP JUMPDEST PUSH1 0x40 MLOAD DUP1 SWAP2 SUB SWAP1 RETURN JUMPDEST CALLVALUE DUP1 ISZERO PUSH2 0x393 JUMPI PUSH0 DUP1 REVERT JUMPDEST POP PUSH2 0x3AE PUSH1 0x4 DUP1 CALLDATASIZE SUB DUP2 ADD SWAP1 PUSH2 0x3A9 SWAP2 SWAP1 PUSH2 0x2286 JUMP JUMPDEST PUSH2 0x1099 JUMP JUMPDEST STOP JUMPDEST CALLVALUE DUP1 ISZERO PUSH2 0x3BB JUMPI PUSH0 DUP1 REVERT JUMPDEST POP PUSH2 0x3D6 PUSH1 0x4 DUP1 CALLDATASIZE SUB DUP2 ADD SWAP1 PUSH2 0x3D1 SWAP2 SWAP1 PUSH2 0x241B JUMP JUMPDEST PUSH2 0x1737 JUMP JUMPDEST PUSH1 0x40 MLOAD PUSH2 0x3E3 SWAP2 SWAP1 PUSH2 0x2397 JUMP JUMPDEST PUSH1 0x40 MLOAD DUP1 SWAP2 SUB SWAP1 RETURN JUMPDEST CALLVALUE DUP1 ISZERO PUSH2 0x3F7 JUMPI PUSH0 DUP1 REVERT JUMPDEST POP PUSH2 0x400 PUSH2 0x177F JUMP JUMPDEST PUSH1 0x40 MLOAD PUSH2 0x40D SWAP2 SWAP1 PUSH2 0x21BA JUMP JUMPDEST PUSH1 0x40 MLOAD DUP1 SWAP2 SUB SWAP1 RETURN JUMPDEST CALLVALUE DUP1 ISZERO PUSH2 0x421 JUMPI PUSH0 DUP1 REVERT JUMPDEST POP PUSH2 0x43C PUSH1 0x4 DUP1 CALLDATASIZE SUB DUP2 ADD SWAP1 PUSH2 0x437 SWAP2 SWAP1 PUSH2 0x2201 JUMP JUMPDEST PUSH2 0x1785 JUMP JUMPDEST PUSH1 0x40 MLOAD PUSH2 0x449 SWAP2 SWAP1 PUSH2 0x2368 JUMP JUMPDEST PUSH1 0x40 MLOAD DUP1 SWAP2 SUB SWAP1 RETURN JUMPDEST CALLVALUE DUP1 ISZERO PUSH2 0x45D JUMPI PUSH0 DUP1 REVERT JUMPDEST POP PUSH2 0x478 PUSH1 0x4 DUP1 CALLDATASIZE SUB DUP2 ADD SWAP1 PUSH2 0x473 SWAP2 SWAP1 PUSH2 0x2494 JUMP JUMPDEST PUSH2 0x1872 JUMP JUMPDEST STOP JUMPDEST CALLVALUE DUP1 ISZERO PUSH2 0x485 JUMPI PUSH0 DUP1 REVERT JUMPDEST POP PUSH2 0x48E PUSH2 0x1A3D JUMP JUMPDEST PUSH1 0x40 MLOAD PUSH2 0x49B SWAP2 SWAP1 PUSH2 0x21BA JUMP JUMPDEST PUSH1 0x40 MLOAD DUP1 SWAP2 SUB SWAP1 RETURN JUMPDEST CALLVALUE DUP1 ISZERO PUSH2 0x4AF JUMPI PUSH0 DUP1 REVERT JUMPDEST POP PUSH2 0x4CA PUSH1 0x4 DUP1 CALLDATASIZE SUB DUP2 ADD SWAP1 PUSH2 0x4C5 SWAP2 SWAP1 PUSH2 0x2201 JUMP JUMPDEST PUSH2 0x1A43 JUMP JUMPDEST STOP JUMPDEST PUSH1 0x3 SLOAD DUP2 JUMP JUMPDEST PUSH0 PUSH1 0x2 DUP3 SUB PUSH2 0x4EC JUMPI PUSH9 0x1A055690D9DB80000 SWAP1 POP PUSH2 0x53C JUMP JUMPDEST PUSH1 0x3 DUP3 SUB PUSH2 0x505 JUMPI PUSH9 0x1043561A8829300000 SWAP1 POP PUSH2 0x53C JUMP JUMPDEST PUSH1 0x4 DUP3 SUB PUSH2 0x51E JUMPI PUSH9 0xA2A15D09519BE00000 SWAP1 POP PUSH2 0x53C JUMP JUMPDEST PUSH1 0x5 DUP3 SUB PUSH2 0x538 JUMPI PUSH10 0x65A4DA25D3016C00000 SWAP1 POP PUSH2 0x53C JUMP JUMPDEST PUSH0 SWAP1 POP JUMPDEST SWAP2 SWAP1 POP JUMP JUMPDEST PUSH0 DUP1 SLOAD SWAP1 PUSH2 0x100 EXP SWAP1 DIV PUSH20 0xFFFFFFFFFFFFFFFFFFFFFFFFFFFFFFFFFFFFFFFF AND PUSH20 0xFFFFFFFFFFFFFFFFFFFFFFFFFFFFFFFFFFFFFFFF AND CALLER PUSH20 0xFFFFFFFFFFFFFFFFFFFFFFFFFFFFFFFFFFFFFFFF AND EQ PUSH2 0x5CE JUMPI PUSH1 0x40 MLOAD PUSH32 0x8C379A000000000000000000000000000000000000000000000000000000000 DUP2 MSTORE PUSH1 0x4 ADD PUSH2 0x5C5 SWAP1 PUSH2 0x252C JUMP JUMPDEST PUSH1 0x40 MLOAD DUP1 SWAP2 SUB SWAP1 REVERT JUMPDEST PUSH0 PUSH20 0xFFFFFFFFFFFFFFFFFFFFFFFFFFFFFFFFFFFFFFFF AND DUP2 PUSH20 0xFFFFFFFFFFFFFFFFFFFFFFFFFFFFFFFFFFFFFFFF AND SUB PUSH2 0x63C JUMPI PUSH1 0x40 MLOAD PUSH32 0x8C379A000000000000000000000000000000000000000000000000000000000 DUP2 MSTORE PUSH1 0x4 ADD PUSH2 0x633 SWAP1 PUSH2 0x25BA JUMP JUMPDEST PUSH1 0x40 MLOAD DUP1 SWAP2 SUB SWAP1 REVERT JUMPDEST DUP1 PUSH20 0xFFFFFFFFFFFFFFFFFFFFFFFFFFFFFFFFFFFFFFFF AND PUSH1 0x1 PUSH0 SWAP1 SLOAD SWAP1 PUSH2 0x100 EXP SWAP1 DIV PUSH20 0xFFFFFFFFFFFFFFFFFFFFFFFFFFFFFFFFFFFFFFFF AND PUSH20 0xFFFFFFFFFFFFFFFFFFFFFFFFFFFFFFFFFFFFFFFF AND PUSH32 0xDB17895A9D092FB3CA24D626F2150DD80C185B0706B36F1040EE239F56CB871 PUSH1 0x40 MLOAD PUSH1 0x40 MLOAD DUP1 SWAP2 SUB SWAP1 LOG3 DUP1 PUSH1 0x1 PUSH0 PUSH2 0x100 EXP DUP2 SLOAD DUP2 PUSH20 0xFFFFFFFFFFFFFFFFFFFFFFFFFFFFFFFFFFFFFFFF MUL NOT AND SWAP1 DUP4 PUSH20 0xFFFFFFFFFFFFFFFFFFFFFFFFFFFFFFFFFFFFFFFF AND MUL OR SWAP1 SSTORE POP POP JUMP JUMPDEST PUSH1 0x60 PUSH1 0x6 PUSH0 DUP4 PUSH20 0xFFFFFFFFFFFFFFFFFFFFFFFFFFFFFFFFFFFFFFFF AND PUSH20 0xFFFFFFFFFFFFFFFFFFFFFFFFFFFFFFFFFFFFFFFF AND DUP2 MSTORE PUSH1 0x20 ADD SWAP1 DUP2 MSTORE PUSH1 0x20 ADD PUSH0 KECCAK256 PUSH1 0x5 ADD DUP1 SLOAD DUP1 PUSH1 0x20 MUL PUSH1 0x20 ADD PUSH1 0x40 MLOAD SWAP1 DUP2 ADD PUSH1 0x40 MSTORE DUP1 SWAP3 SWAP2 SWAP1 DUP2 DUP2 MSTORE PUSH1 0x20 ADD DUP3 DUP1 SLOAD DUP1 ISZERO PUSH2 0x7B9 JUMPI PUSH1 0x20 MUL DUP3 ADD SWAP2 SWAP1 PUSH0 MSTORE PUSH1 0x20 PUSH0 KECCAK256 SWAP1 JUMPDEST DUP2 PUSH0 SWAP1 SLOAD SWAP1 PUSH2 0x100 EXP SWAP1 DIV PUSH20 0xFFFFFFFFFFFFFFFFFFFFFFFFFFFFFFFFFFFFFFFF AND PUSH20 0xFFFFFFFFFFFFFFFFFFFFFFFFFFFFFFFFFFFFFFFF AND DUP2 MSTORE PUSH1 0x20 ADD SWAP1 PUSH1 0x1 ADD SWAP1 DUP1 DUP4 GT PUSH2 0x770 JUMPI JUMPDEST POP POP POP POP POP SWAP1 POP SWAP2 SWAP1 POP JUMP JUMPDEST PUSH0 DUP1 SLOAD SWAP1 PUSH2 0x100 EXP SWAP1 DIV PUSH20 0xFFFFFFFFFFFFFFFFFFFFFFFFFFFFFFFFFFFFFFFF AND PUSH20 0xFFFFFFFFFFFFFFFFFFFFFFFFFFFFFFFFFFFFFFFF AND CALLER PUSH20 0xFFFFFFFFFFFFFFFFFFFFFFFFFFFFFFFFFFFFFFFF AND EQ PUSH2 0x852 JUMPI PUSH1 0x40 MLOAD PUSH32 0x8C379A000000000000000000000000000000000000000000000000000000000 DUP2 MSTORE PUSH1 0x4 ADD PUSH2 0x849 SWAP1 PUSH2 0x252C JUMP JUMPDEST PUSH1 0x40 MLOAD DUP1 SWAP2 SUB SWAP1 REVERT JUMPDEST PUSH3 0x15180 PUSH1 0x5 SLOAD PUSH2 0x863 SWAP2 SWAP1 PUSH2 0x2605 JUMP JUMPDEST TIMESTAMP LT ISZERO PUSH2 0x8A5 JUMPI PUSH1 0x40 MLOAD PUSH32 0x8C379A000000000000000000000000000000000000000000000000000000000 DUP2 MSTORE PUSH1 0x4 ADD PUSH2 0x89C SWAP1 PUSH2 0x26A8 JUMP JUMPDEST PUSH1 0x40 MLOAD DUP1 SWAP2 SUB SWAP1 REVERT JUMPDEST PUSH0 PUSH1 0x8 SLOAD SWAP1 POP PUSH0 PUSH1 0x64 PUSH1 0x4 SLOAD DUP4 PUSH2 0x8BC SWAP2 SWAP1 PUSH2 0x26C6 JUMP JUMPDEST PUSH2 0x8C6 SWAP2 SWAP1 PUSH2 0x2734 JUMP JUMPDEST SWAP1 POP DUP1 PUSH1 0x8 PUSH0 DUP3 DUP3 SLOAD PUSH2 0x8D9 SWAP2 SWAP1 PUSH2 0x2764 JUMP JUMPDEST SWAP3 POP POP DUP2 SWAP1 SSTORE POP PUSH1 0x2 PUSH0 SWAP1 SLOAD SWAP1 PUSH2 0x100 EXP SWAP1 DIV PUSH20 0xFFFFFFFFFFFFFFFFFFFFFFFFFFFFFFFFFFFFFFFF AND PUSH20 0xFFFFFFFFFFFFFFFFFFFFFFFFFFFFFFFFFFFFFFFF AND PUSH4 0xA9059CBB PUSH1 0x1 PUSH0 SWAP1 SLOAD SWAP1 PUSH2 0x100 EXP SWAP1 DIV PUSH20 0xFFFFFFFFFFFFFFFFFFFFFFFFFFFFFFFFFFFFFFFF AND DUP4 PUSH1 0x40 MLOAD DUP4 PUSH4 0xFFFFFFFF AND PUSH1 0xE0 SHL DUP2 MSTORE PUSH1 0x4 ADD PUSH2 0x95D SWAP3 SWAP2 SWAP1 PUSH2 0x2797 JUMP JUMPDEST PUSH1 0x20 PUSH1 0x40 MLOAD DUP1 DUP4 SUB DUP2 PUSH0 DUP8 GAS CALL ISZERO DUP1 ISZERO PUSH2 0x979 JUMPI RETURNDATASIZE PUSH0 DUP1 RETURNDATACOPY RETURNDATASIZE PUSH0 REVERT JUMPDEST POP POP POP POP PUSH1 0x40 MLOAD RETURNDATASIZE PUSH1 0x1F NOT PUSH1 0x1F DUP3 ADD AND DUP3 ADD DUP1 PUSH1 0x40 MSTORE POP DUP2 ADD SWAP1 PUSH2 0x99D SWAP2 SWAP1 PUSH2 0x27E8 JUMP JUMPDEST PUSH2 0x9DC JUMPI PUSH1 0x40 MLOAD PUSH32 0x8C379A000000000000000000000000000000000000000000000000000000000 DUP2 MSTORE PUSH1 0x4 ADD PUSH2 0x9D3 SWAP1 PUSH2 0x285D JUMP JUMPDEST PUSH1 0x40 MLOAD DUP1 SWAP2 SUB SWAP1 REVERT JUMPDEST PUSH0 DUP2 DUP4 PUSH2 0x9E9 SWAP2 SWAP1 PUSH2 0x2764 JUMP JUMPDEST SWAP1 POP PUSH0 PUSH1 0x1 SWAP1 POP JUMPDEST PUSH1 0x5 DUP2 GT PUSH2 0xB88 JUMPI PUSH0 PUSH2 0xA03 DUP3 PUSH2 0x1DB9 JUMP JUMPDEST SWAP1 POP PUSH0 PUSH1 0x64 DUP3 DUP6 PUSH2 0xA14 SWAP2 SWAP1 PUSH2 0x26C6 JUMP JUMPDEST PUSH2 0xA1E SWAP2 SWAP1 PUSH2 0x2734 JUMP JUMPDEST SWAP1 POP PUSH0 PUSH1 0x7 PUSH0 DUP6 DUP2 MSTORE PUSH1 0x20 ADD SWAP1 DUP2 MSTORE PUSH1 0x20 ADD PUSH0 KECCAK256 DUP1 SLOAD DUP1 PUSH1 0x20 MUL PUSH1 0x20 ADD PUSH1 0x40 MLOAD SWAP1 DUP2 ADD PUSH1 0x40 MSTORE DUP1 SWAP3 SWAP2 SWAP1 DUP2 DUP2 MSTORE PUSH1 0x20 ADD DUP3 DUP1 SLOAD DUP1 ISZERO PUSH2 0xAAF JUMPI PUSH1 0x20 MUL DUP3 ADD SWAP2 SWAP1 PUSH0 MSTORE PUSH1 0x20 PUSH0 KECCAK256 SWAP1 JUMPDEST DUP2 PUSH0 SWAP1 SLOAD SWAP1 PUSH2 0x100 EXP SWAP1 DIV PUSH20 0xFFFFFFFFFFFFFFFFFFFFFFFFFFFFFFFFFFFFFFFF AND PUSH20 0xFFFFFFFFFFFFFFFFFFFFFFFFFFFFFFFFFFFFFFFF AND DUP2 MSTORE PUSH1 0x20 ADD SWAP1 PUSH1 0x1 ADD SWAP1 DUP1 DUP4 GT PUSH2 0xA66 JUMPI JUMPDEST POP POP POP POP POP SWAP1 POP PUSH0 DUP2 MLOAD GT ISZERO PUSH2 0xB72 JUMPI PUSH0 DUP2 MLOAD DUP4 PUSH2 0xACD SWAP2 SWAP1 PUSH2 0x2734 JUMP JUMPDEST SWAP1 POP PUSH0 JUMPDEST DUP3 MLOAD DUP2 LT ISZERO PUSH2 0xB6F JUMPI DUP2 PUSH1 0x6 PUSH0 DUP6 DUP5 DUP2 MLOAD DUP2 LT PUSH2 0xAF1 JUMPI PUSH2 0xAF0 PUSH2 0x287B JUMP JUMPDEST JUMPDEST PUSH1 0x20 MUL PUSH1 0x20 ADD ADD MLOAD PUSH20 0xFFFFFFFFFFFFFFFFFFFFFFFFFFFFFFFFFFFFFFFF AND PUSH20 0xFFFFFFFFFFFFFFFFFFFFFFFFFFFFFFFFFFFFFFFF AND DUP2 MSTORE PUSH1 0x20 ADD SWAP1 DUP2 MSTORE PUSH1 0x20 ADD PUSH0 KECCAK256 PUSH1 0x3 ADD PUSH0 DUP3 DUP3 SLOAD PUSH2 0xB43 SWAP2 SWAP1 PUSH2 0x2605 JUMP JUMPDEST SWAP3 POP POP DUP2 SWAP1 SSTORE POP DUP2 PUSH1 0x8 PUSH0 DUP3 DUP3 SLOAD PUSH2 0xB5B SWAP2 SWAP1 PUSH2 0x2764 JUMP JUMPDEST SWAP3 POP POP DUP2 SWAP1 SSTORE POP DUP1 DUP1 PUSH1 0x1 ADD SWAP2 POP POP PUSH2 0xAD1 JUMP JUMPDEST POP POP JUMPDEST POP POP POP DUP1 DUP1 PUSH2 0xB80 SWAP1 PUSH2 0x28A8 JUMP JUMPDEST SWAP2 POP POP PUSH2 0x9F1 JUMP JUMPDEST POP TIMESTAMP PUSH1 0x5 DUP2 SWAP1 SSTORE POP PUSH32 0x6D1C76D614228B523BAA4DCD9539E2C713B54FF4AB3FF2D1627E7F6CD32BE442 DUP4 PUSH1 0x40 MLOAD PUSH2 0xBBF SWAP2 SWAP1 PUSH2 0x21BA JUMP JUMPDEST PUSH1 0x40 MLOAD DUP1 SWAP2 SUB SWAP1 LOG1 POP POP POP JUMP JUMPDEST PUSH0 DUP1 SLOAD SWAP1 PUSH2 0x100 EXP SWAP1 DIV PUSH20 0xFFFFFFFFFFFFFFFFFFFFFFFFFFFFFFFFFFFFFFFF AND DUP2 JUMP JUMPDEST PUSH1 0x1 PUSH0 SWAP1 SLOAD SWAP1 PUSH2 0x100 EXP SWAP1 DIV PUSH20 0xFFFFFFFFFFFFFFFFFFFFFFFFFFFFFFFFFFFFFFFF AND DUP2 JUMP JUMPDEST PUSH1 0x4 SLOAD DUP2 JUMP JUMPDEST PUSH0 DUP2 GT PUSH2 0xC5C JUMPI PUSH1 0x40 MLOAD PUSH32 0x8C379A000000000000000000000000000000000000000000000000000000000 DUP2 MSTORE PUSH1 0x4 ADD PUSH2 0xC53 SWAP1 PUSH2 0x295F JUMP JUMPDEST PUSH1 0x40 MLOAD DUP1 SWAP2 SUB SWAP1 REVERT JUMPDEST DUP1 PUSH1 0x6 PUSH0 CALLER PUSH20 0xFFFFFFFFFFFFFFFFFFFFFFFFFFFFFFFFFFFFFFFF AND PUSH20 0xFFFFFFFFFFFFFFFFFFFFFFFFFFFFFFFFFFFFFFFF AND DUP2 MSTORE PUSH1 0x20 ADD SWAP1 DUP2 MSTORE PUSH1 0x20 ADD PUSH0 KECCAK256 PUSH1 0x3 ADD SLOAD LT ISZERO PUSH2 0xCDF JUMPI PUSH1 0x40 MLOAD PUSH32 0x8C379A000000000000000000000000000000000000000000000000000000000 DUP2 MSTORE PUSH1 0x4 ADD PUSH2 0xCD6 SWAP1 PUSH2 0x29C7 JUMP JUMPDEST PUSH1 0x40 MLOAD DUP1 SWAP2 SUB SWAP1 REVERT JUMPDEST DUP1 PUSH1 0x6 PUSH0 CALLER PUSH20 0xFFFFFFFFFFFFFFFFFFFFFFFFFFFFFFFFFFFFFFFF AND PUSH20 0xFFFFFFFFFFFFFFFFFFFFFFFFFFFFFFFFFFFFFFFF AND DUP2 MSTORE PUSH1 0x20 ADD SWAP1 DUP2 MSTORE PUSH1 0x20 ADD PUSH0 KECCAK256 PUSH1 0x3 ADD PUSH0 DUP3 DUP3 SLOAD PUSH2 0xD2E SWAP2 SWAP1 PUSH2 0x2764 JUMP JUMPDEST SWAP3 POP POP DUP2 SWAP1 SSTORE POP PUSH1 0x2 PUSH0 SWAP1 SLOAD SWAP1 PUSH2 0x100 EXP SWAP1 DIV PUSH20 0xFFFFFFFFFFFFFFFFFFFFFFFFFFFFFFFFFFFFFFFF AND PUSH20 0xFFFFFFFFFFFFFFFFFFFFFFFFFFFFFFFFFFFFFFFF AND PUSH4 0xA9059CBB CALLER DUP4 PUSH1 0x40 MLOAD DUP4 PUSH4 0xFFFFFFFF AND PUSH1 0xE0 SHL DUP2 MSTORE PUSH1 0x4 ADD PUSH2 0xD91 SWAP3 SWAP2 SWAP1 PUSH2 0x2797 JUMP JUMPDEST PUSH1 0x20 PUSH1 0x40 MLOAD DUP1 DUP4 SUB DUP2 PUSH0 DUP8 GAS CALL ISZERO DUP1 ISZERO PUSH2 0xDAD JUMPI RETURNDATASIZE PUSH0 DUP1 RETURNDATACOPY RETURNDATASIZE PUSH0 REVERT JUMPDEST POP POP POP POP PUSH1 0x40 MLOAD RETURNDATASIZE PUSH1 0x1F NOT PUSH1 0x1F DUP3 ADD AND DUP3 ADD DUP1 PUSH1 0x40 MSTORE POP DUP2 ADD SWAP1 PUSH2 0xDD1 SWAP2 SWAP1 PUSH2 0x27E8 JUMP JUMPDEST PUSH2 0xE10 JUMPI PUSH1 0x40 MLOAD PUSH32 0x8C379A000000000000000000000000000000000000000000000000000000000 DUP2 MSTORE PUSH1 0x4 ADD PUSH2 0xE07 SWAP1 PUSH2 0x2A2F JUMP JUMPDEST PUSH1 0x40 MLOAD DUP1 SWAP2 SUB SWAP1 REVERT JUMPDEST CALLER PUSH20 0xFFFFFFFFFFFFFFFFFFFFFFFFFFFFFFFFFFFFFFFF AND PUSH32 0x7FCF532C15F0A6DB0BD6D0E038BEA71D30D808C7D98CB3BF7268A95BF5081B65 DUP3 PUSH1 0x40 MLOAD PUSH2 0xE56 SWAP2 SWAP1 PUSH2 0x21BA JUMP JUMPDEST PUSH1 0x40 MLOAD DUP1 SWAP2 SUB SWAP1 LOG2 POP JUMP JUMPDEST PUSH1 0x2 PUSH0 SWAP1 SLOAD SWAP1 PUSH2 0x100 EXP SWAP1 DIV PUSH20 0xFFFFFFFFFFFFFFFFFFFFFFFFFFFFFFFFFFFFFFFF AND DUP2 JUMP JUMPDEST PUSH0 DUP1 SLOAD SWAP1 PUSH2 0x100 EXP SWAP1 DIV PUSH20 0xFFFFFFFFFFFFFFFFFFFFFFFFFFFFFFFFFFFFFFFF AND PUSH20 0xFFFFFFFFFFFFFFFFFFFFFFFFFFFFFFFFFFFFFFFF AND CALLER PUSH20 0xFFFFFFFFFFFFFFFFFFFFFFFFFFFFFFFFFFFFFFFF AND EQ PUSH2 0xF13 JUMPI PUSH1 0x40 MLOAD PUSH32 0x8C379A000000000000000000000000000000000000000000000000000000000 DUP2 MSTORE PUSH1 0x4 ADD PUSH2 0xF0A SWAP1 PUSH2 0x252C JUMP JUMPDEST PUSH1 0x40 MLOAD DUP1 SWAP2 SUB SWAP1 REVERT JUMPDEST PUSH0 PUSH20 0xFFFFFFFFFFFFFFFFFFFFFFFFFFFFFFFFFFFFFFFF AND DUP2 PUSH20 0xFFFFFFFFFFFFFFFFFFFFFFFFFFFFFFFFFFFFFFFF AND SUB PUSH2 0xF81 JUMPI PUSH1 0x40 MLOAD PUSH32 0x8C379A000000000000000000000000000000000000000000000000000000000 DUP2 MSTORE PUSH1 0x4 ADD PUSH2 0xF78 SWAP1 PUSH2 0x2A97 JUMP JUMPDEST PUSH1 0x40 MLOAD DUP1 SWAP2 SUB SWAP1 REVERT JUMPDEST DUP1 PUSH20 0xFFFFFFFFFFFFFFFFFFFFFFFFFFFFFFFFFFFFFFFF AND PUSH0 DUP1 SLOAD SWAP1 PUSH2 0x100 EXP SWAP1 DIV PUSH20 0xFFFFFFFFFFFFFFFFFFFFFFFFFFFFFFFFFFFFFFFF AND PUSH20 0xFFFFFFFFFFFFFFFFFFFFFFFFFFFFFFFFFFFFFFFF AND PUSH32 0x8BE0079C531659141344CD1FD0A4F28419497F9722A3DAAFE3B4186F6B6457E0 PUSH1 0x40 MLOAD PUSH1 0x40 MLOAD DUP1 SWAP2 SUB SWAP1 LOG3 DUP1 PUSH0 DUP1 PUSH2 0x100 EXP DUP2 SLOAD DUP2 PUSH20 0xFFFFFFFFFFFFFFFFFFFFFFFFFFFFFFFFFFFFFFFF MUL NOT AND SWAP1 DUP4 PUSH20 0xFFFFFFFFFFFFFFFFFFFFFFFFFFFFFFFFFFFFFFFF AND MUL OR SWAP1 SSTORE POP POP JUMP JUMPDEST PUSH1 0x6 PUSH1 0x20 MSTORE DUP1 PUSH0 MSTORE PUSH1 0x40 PUSH0 KECCAK256 PUSH0 SWAP2 POP SWAP1 POP DUP1 PUSH0 ADD PUSH0 SWAP1 SLOAD SWAP1 PUSH2 0x100 EXP SWAP1 DIV PUSH20 0xFFFFFFFFFFFFFFFFFFFFFFFFFFFFFFFFFFFFFFFF AND SWAP1 DUP1 PUSH1 0x1 ADD SLOAD SWAP1 DUP1 PUSH1 0x2 ADD SLOAD SWAP1 DUP1 PUSH1 0x3 ADD SLOAD SWAP1 DUP1 PUSH1 0x4 ADD PUSH0 SWAP1 SLOAD SWAP1 PUSH2 0x100 EXP SWAP1 DIV PUSH1 0xFF AND SWAP1 POP DUP6 JUMP JUMPDEST PUSH0 PUSH20 0xFFFFFFFFFFFFFFFFFFFFFFFFFFFFFFFFFFFFFFFF AND PUSH1 0x6 PUSH0 CALLER PUSH20 0xFFFFFFFFFFFFFFFFFFFFFFFFFFFFFFFFFFFFFFFF AND PUSH20 0xFFFFFFFFFFFFFFFFFFFFFFFFFFFFFFFFFFFFFFFF AND DUP2 MSTORE PUSH1 0x20 ADD SWAP1 DUP2 MSTORE PUSH1 0x20 ADD PUSH0 KECCAK256 PUSH0 ADD PUSH0 SWAP1 SLOAD SWAP1 PUSH2 0x100 EXP SWAP1 DIV PUSH20 0xFFFFFFFFFFFFFFFFFFFFFFFFFFFFFFFFFFFFFFFF AND PUSH20 0xFFFFFFFFFFFFFFFFFFFFFFFFFFFFFFFFFFFFFFFF AND EQ PUSH2 0x1165 JUMPI PUSH1 0x40 MLOAD PUSH32 0x8C379A000000000000000000000000000000000000000000000000000000000 DUP2 MSTORE PUSH1 0x4 ADD PUSH2 0x115C SWAP1 PUSH2 0x2AFF JUMP JUMPDEST PUSH1 0x40 MLOAD DUP1 SWAP2 SUB SWAP1 REVERT JUMPDEST PUSH1 0x2 PUSH0 SWAP1 SLOAD SWAP1 PUSH2 0x100 EXP SWAP1 DIV PUSH20 0xFFFFFFFFFFFFFFFFFFFFFFFFFFFFFFFFFFFFFFFF AND PUSH20 0xFFFFFFFFFFFFFFFFFFFFFFFFFFFFFFFFFFFFFFFF AND PUSH4 0x23B872DD CALLER ADDRESS PUSH1 0x3 SLOAD PUSH1 0x40 MLOAD DUP5 PUSH4 0xFFFFFFFF AND PUSH1 0xE0 SHL DUP2 MSTORE PUSH1 0x4 ADD PUSH2 0x11C5 SWAP4 SWAP3 SWAP2 SWAP1 PUSH2 0x2B1D JUMP JUMPDEST PUSH1 0x20 PUSH1 0x40 MLOAD DUP1 DUP4 SUB DUP2 PUSH0 DUP8 GAS CALL ISZERO DUP1 ISZERO PUSH2 0x11E1 JUMPI RETURNDATASIZE PUSH0 DUP1 RETURNDATACOPY RETURNDATASIZE PUSH0 REVERT JUMPDEST POP POP POP POP PUSH1 0x40 MLOAD RETURNDATASIZE PUSH1 0x1F NOT PUSH1 0x1F DUP3 ADD AND DUP3 ADD DUP1 PUSH1 0x40 MSTORE POP DUP2 ADD SWAP1 PUSH2 0x1205 SWAP2 SWAP1 PUSH2 0x27E8 JUMP JUMPDEST PUSH2 0x1244 JUMPI PUSH1 0x40 MLOAD PUSH32 0x8C379A000000000000000000000000000000000000000000000000000000000 DUP2 MSTORE PUSH1 0x4 ADD PUSH2 0x123B SWAP1 PUSH2 0x2B9C JUMP JUMPDEST PUSH1 0x40 MLOAD DUP1 SWAP2 SUB SWAP1 REVERT JUMPDEST PUSH0 PUSH20 0xFFFFFFFFFFFFFFFFFFFFFFFFFFFFFFFFFFFFFFFF AND DUP2 PUSH20 0xFFFFFFFFFFFFFFFFFFFFFFFFFFFFFFFFFFFFFFFF AND EQ ISZERO DUP1 ISZERO PUSH2 0x12AC JUMPI POP CALLER PUSH20 0xFFFFFFFFFFFFFFFFFFFFFFFFFFFFFFFFFFFFFFFF AND DUP2 PUSH20 0xFFFFFFFFFFFFFFFFFFFFFFFFFFFFFFFFFFFFFFFF AND EQ ISZERO JUMPDEST ISZERO PUSH2 0x1541 JUMPI PUSH1 0x6 PUSH0 DUP3 PUSH20 0xFFFFFFFFFFFFFFFFFFFFFFFFFFFFFFFFFFFFFFFF AND PUSH20 0xFFFFFFFFFFFFFFFFFFFFFFFFFFFFFFFFFFFFFFFF AND DUP2 MSTORE PUSH1 0x20 ADD SWAP1 DUP2 MSTORE PUSH1 0x20 ADD PUSH0 KECCAK256 PUSH1 0x1 ADD PUSH0 DUP2 SLOAD DUP1 SWAP3 SWAP2 SWAP1 PUSH2 0x1301 SWAP1 PUSH2 0x28A8 JUMP JUMPDEST SWAP2 SWAP1 POP SSTORE POP PUSH1 0x6 PUSH0 DUP3 PUSH20 0xFFFFFFFFFFFFFFFFFFFFFFFFFFFFFFFFFFFFFFFF AND PUSH20 0xFFFFFFFFFFFFFFFFFFFFFFFFFFFFFFFFFFFFFFFF AND DUP2 MSTORE PUSH1 0x20 ADD SWAP1 DUP2 MSTORE PUSH1 0x20 ADD PUSH0 KECCAK256 PUSH1 0x5 ADD CALLER SWAP1 DUP1 PUSH1 0x1 DUP2 SLOAD ADD DUP1 DUP3 SSTORE DUP1 SWAP2 POP POP PUSH1 0x1 SWAP1 SUB SWAP1 PUSH0 MSTORE PUSH1 0x20 PUSH0 KECCAK256 ADD PUSH0 SWAP1 SWAP2 SWAP1 SWAP2 SWAP1 SWAP2 PUSH2 0x100 EXP DUP2 SLOAD DUP2 PUSH20 0xFFFFFFFFFFFFFFFFFFFFFFFFFFFFFFFFFFFFFFFF MUL NOT AND SWAP1 DUP4 PUSH20 0xFFFFFFFFFFFFFFFFFFFFFFFFFFFFFFFFFFFFFFFF AND MUL OR SWAP1 SSTORE POP PUSH0 PUSH2 0x13EE PUSH1 0x6 PUSH0 DUP5 PUSH20 0xFFFFFFFFFFFFFFFFFFFFFFFFFFFFFFFFFFFFFFFF AND PUSH20 0xFFFFFFFFFFFFFFFFFFFFFFFFFFFFFFFFFFFFFFFF AND DUP2 MSTORE PUSH1 0x20 ADD SWAP1 DUP2 MSTORE PUSH1 0x20 ADD PUSH0 KECCAK256 PUSH1 0x1 ADD SLOAD PUSH2 0x1E18 JUMP JUMPDEST SWAP1 POP DUP1 PUSH1 0x6 PUSH0 DUP5 PUSH20 0xFFFFFFFFFFFFFFFFFFFFFFFFFFFFFFFFFFFFFFFF AND PUSH20 0xFFFFFFFFFFFFFFFFFFFFFFFFFFFFFFFFFFFFFFFF AND DUP2 MSTORE PUSH1 0x20 ADD SWAP1 DUP2 MSTORE PUSH1 0x20 ADD PUSH0 KECCAK256 PUSH1 0x2 ADD SLOAD EQ PUSH2 0x1536 JUMPI PUSH2 0x1481 DUP3 PUSH1 0x6 PUSH0 DUP6 PUSH20 0xFFFFFFFFFFFFFFFFFFFFFFFFFFFFFFFFFFFFFFFF AND PUSH20 0xFFFFFFFFFFFFFFFFFFFFFFFFFFFFFFFFFFFFFFFF AND DUP2 MSTORE PUSH1 0x20 ADD SWAP1 DUP2 MSTORE PUSH1 0x20 ADD PUSH0 KECCAK256 PUSH1 0x2 ADD SLOAD PUSH2 0x1EB7 JUMP JUMPDEST DUP1 PUSH1 0x6 PUSH0 DUP5 PUSH20 0xFFFFFFFFFFFFFFFFFFFFFFFFFFFFFFFFFFFFFFFF AND PUSH20 0xFFFFFFFFFFFFFFFFFFFFFFFFFFFFFFFFFFFFFFFF AND DUP2 MSTORE PUSH1 0x20 ADD SWAP1 DUP2 MSTORE PUSH1 0x20 ADD PUSH0 KECCAK256 PUSH1 0x2 ADD DUP2 SWAP1 SSTORE POP PUSH1 0x7 PUSH0 DUP3 DUP2 MSTORE PUSH1 0x20 ADD SWAP1 DUP2 MSTORE PUSH1 0x20 ADD PUSH0 KECCAK256 DUP3 SWAP1 DUP1 PUSH1 0x1 DUP2 SLOAD ADD DUP1 DUP3 SSTORE DUP1 SWAP2 POP POP PUSH1 0x1 SWAP1 SUB SWAP1 PUSH0 MSTORE PUSH1 0x20 PUSH0 KECCAK256 ADD PUSH0 SWAP1 SWAP2 SWAP1 SWAP2 SWAP1 SWAP2 PUSH2 0x100 EXP DUP2 SLOAD DUP2 PUSH20 0xFFFFFFFFFFFFFFFFFFFFFFFFFFFFFFFFFFFFFFFF MUL NOT AND SWAP1 DUP4 PUSH20 0xFFFFFFFFFFFFFFFFFFFFFFFFFFFFFFFFFFFFFFFF AND MUL OR SWAP1 SSTORE POP JUMPDEST PUSH2 0x153F DUP3 PUSH2 0x2044 JUMP JUMPDEST POP JUMPDEST DUP1 PUSH1 0x6 PUSH0 CALLER PUSH20 0xFFFFFFFFFFFFFFFFFFFFFFFFFFFFFFFFFFFFFFFF AND PUSH20 0xFFFFFFFFFFFFFFFFFFFFFFFFFFFFFFFFFFFFFFFF AND DUP2 MSTORE PUSH1 0x20 ADD SWAP1 DUP2 MSTORE PUSH1 0x20 ADD PUSH0 KECCAK256 PUSH0 ADD PUSH0 PUSH2 0x100 EXP DUP2 SLOAD DUP2 PUSH20 0xFFFFFFFFFFFFFFFFFFFFFFFFFFFFFFFFFFFFFFFF MUL NOT AND SWAP1 DUP4 PUSH20 0xFFFFFFFFFFFFFFFFFFFFFFFFFFFFFFFFFFFFFFFF AND MUL OR SWAP1 SSTORE POP PUSH0 PUSH2 0x1608 PUSH1 0x6 PUSH0 CALLER PUSH20 0xFFFFFFFFFFFFFFFFFFFFFFFFFFFFFFFFFFFFFFFF AND PUSH20 0xFFFFFFFFFFFFFFFFFFFFFFFFFFFFFFFFFFFFFFFF AND DUP2 MSTORE PUSH1 0x20 ADD SWAP1 DUP2 MSTORE PUSH1 0x20 ADD PUSH0 KECCAK256 PUSH1 0x1 ADD SLOAD PUSH2 0x1E18 JUMP JUMPDEST SWAP1 POP PUSH1 0x1 PUSH1 0x6 PUSH0 CALLER PUSH20 0xFFFFFFFFFFFFFFFFFFFFFFFFFFFFFFFFFFFFFFFF AND PUSH20 0xFFFFFFFFFFFFFFFFFFFFFFFFFFFFFFFFFFFFFFFF AND DUP2 MSTORE PUSH1 0x20 ADD SWAP1 DUP2 MSTORE PUSH1 0x20 ADD PUSH0 KECCAK256 PUSH1 0x4 ADD PUSH0 PUSH2 0x100 EXP DUP2 SLOAD DUP2 PUSH1 0xFF MUL NOT AND SWAP1 DUP4 ISZERO ISZERO MUL OR SWAP1 SSTORE POP DUP1 PUSH1 0x6 PUSH0 CALLER PUSH20 0xFFFFFFFFFFFFFFFFFFFFFFFFFFFFFFFFFFFFFFFF AND PUSH20 0xFFFFFFFFFFFFFFFFFFFFFFFFFFFFFFFFFFFFFFFF AND DUP2 MSTORE PUSH1 0x20 ADD SWAP1 DUP2 MSTORE PUSH1 0x20 ADD PUSH0 KECCAK256 PUSH1 0x2 ADD DUP2 SWAP1 SSTORE POP PUSH1 0x64 PUSH1 0x32 PUSH1 0x3 SLOAD PUSH2 0x16B8 SWAP2 SWAP1 PUSH2 0x26C6 JUMP JUMPDEST PUSH2 0x16C2 SWAP2 SWAP1 PUSH2 0x2734 JUMP JUMPDEST PUSH1 0x8 PUSH0 DUP3 DUP3 SLOAD PUSH2 0x16D2 SWAP2 SWAP1 PUSH2 0x2605 JUMP JUMPDEST SWAP3 POP POP DUP2 SWAP1 SSTORE POP DUP2 PUSH20 0xFFFFFFFFFFFFFFFFFFFFFFFFFFFFFFFFFFFFFFFF AND CALLER PUSH20 0xFFFFFFFFFFFFFFFFFFFFFFFFFFFFFFFFFFFFFFFF AND PUSH32 0xA31EE9D46A828884B81003C8498156EA6AA15B9B54BDD0EF0B533D9EBA57E55 PUSH1 0x40 MLOAD PUSH1 0x40 MLOAD DUP1 SWAP2 SUB SWAP1 LOG3 POP POP JUMP JUMPDEST PUSH1 0x7 PUSH1 0x20 MSTORE DUP2 PUSH0 MSTORE PUSH1 0x40 PUSH0 KECCAK256 DUP2 DUP2 SLOAD DUP2 LT PUSH2 0x1750 JUMPI PUSH0 DUP1 REVERT JUMPDEST SWAP1 PUSH0 MSTORE PUSH1 0x20 PUSH0 KECCAK256 ADD PUSH0 SWAP2 POP SWAP2 POP SWAP1 SLOAD SWAP1 PUSH2 0x100 EXP SWAP1 DIV PUSH20 0xFFFFFFFFFFFFFFFFFFFFFFFFFFFFFFFFFFFFFFFF AND DUP2 JUMP JUMPDEST PUSH1 0x5 SLOAD DUP2 JUMP JUMPDEST PUSH1 0x60 PUSH1 0x1 DUP3 LT ISZERO DUP1 ISZERO PUSH2 0x1799 JUMPI POP PUSH1 0x5 DUP3 GT ISZERO JUMPDEST PUSH2 0x17D8 JUMPI PUSH1 0x40 MLOAD PUSH32 0x8C379A000000000000000000000000000000000000000000000000000000000 DUP2 MSTORE PUSH1 0x4 ADD PUSH2 0x17CF SWAP1 PUSH2 0x2C04 JUMP JUMPDEST PUSH1 0x40 MLOAD DUP1 SWAP2 SUB SWAP1 REVERT JUMPDEST PUSH1 0x7 PUSH0 DUP4 DUP2 MSTORE PUSH1 0x20 ADD SWAP1 DUP2 MSTORE PUSH1 0x20 ADD PUSH0 KECCAK256 DUP1 SLOAD DUP1 PUSH1 0x20 MUL PUSH1 0x20 ADD PUSH1 0x40 MLOAD SWAP1 DUP2 ADD PUSH1 0x40 MSTORE DUP1 SWAP3 SWAP2 SWAP1 DUP2 DUP2 MSTORE PUSH1 0x20 ADD DUP3 DUP1 SLOAD DUP1 ISZERO PUSH2 0x1866 JUMPI PUSH1 0x20 MUL DUP3 ADD SWAP2 SWAP1 PUSH0 MSTORE PUSH1 0x20 PUSH0 KECCAK256 SWAP1 JUMPDEST DUP2 PUSH0 SWAP1 SLOAD SWAP1 PUSH2 0x100 EXP SWAP1 DIV PUSH20 0xFFFFFFFFFFFFFFFFFFFFFFFFFFFFFFFFFFFFFFFF AND PUSH20 0xFFFFFFFFFFFFFFFFFFFFFFFFFFFFFFFFFFFFFFFF AND DUP2 MSTORE PUSH1 0x20 ADD SWAP1 PUSH1 0x1 ADD SWAP1 DUP1 DUP4 GT PUSH2 0x181D JUMPI JUMPDEST POP POP POP POP POP SWAP1 POP SWAP2 SWAP1 POP JUMP JUMPDEST PUSH0 DUP1 SLOAD SWAP1 PUSH2 0x100 EXP SWAP1 DIV PUSH20 0xFFFFFFFFFFFFFFFFFFFFFFFFFFFFFFFFFFFFFFFF AND PUSH20 0xFFFFFFFFFFFFFFFFFFFFFFFFFFFFFFFFFFFFFFFF AND CALLER PUSH20 0xFFFFFFFFFFFFFFFFFFFFFFFFFFFFFFFFFFFFFFFF AND EQ PUSH2 0x18FF JUMPI PUSH1 0x40 MLOAD PUSH32 0x8C379A000000000000000000000000000000000000000000000000000000000 DUP2 MSTORE PUSH1 0x4 ADD PUSH2 0x18F6 SWAP1 PUSH2 0x252C JUMP JUMPDEST PUSH1 0x40 MLOAD DUP1 SWAP2 SUB SWAP1 REVERT JUMPDEST DUP1 SELFBALANCE LT ISZERO PUSH2 0x1942 JUMPI PUSH1 0x40 MLOAD PUSH32 0x8C379A000000000000000000000000000000000000000000000000000000000 DUP2 MSTORE PUSH1 0x4 ADD PUSH2 0x1939 SWAP1 PUSH2 0x2C6C JUMP JUMPDEST PUSH1 0x40 MLOAD DUP1 SWAP2 SUB SWAP1 REVERT JUMPDEST PUSH0 DUP3 PUSH20 0xFFFFFFFFFFFFFFFFFFFFFFFFFFFFFFFFFFFFFFFF AND DUP3 PUSH1 0x40 MLOAD PUSH2 0x1967 SWAP1 PUSH2 0x2CB7 JUMP JUMPDEST PUSH0 PUSH1 0x40 MLOAD DUP1 DUP4 SUB DUP2 DUP6 DUP8 GAS CALL SWAP3 POP POP POP RETURNDATASIZE DUP1 PUSH0 DUP2 EQ PUSH2 0x19A1 JUMPI PUSH1 0x40 MLOAD SWAP2 POP PUSH1 0x1F NOT PUSH1 0x3F RETURNDATASIZE ADD AND DUP3 ADD PUSH1 0x40 MSTORE RETURNDATASIZE DUP3 MSTORE RETURNDATASIZE PUSH0 PUSH1 0x20 DUP5 ADD RETURNDATACOPY PUSH2 0x19A6 JUMP JUMPDEST PUSH1 0x60 SWAP2 POP JUMPDEST POP POP SWAP1 POP DUP1 PUSH2 0x19EA JUMPI PUSH1 0x40 MLOAD PUSH32 0x8C379A000000000000000000000000000000000000000000000000000000000 DUP2 MSTORE PUSH1 0x4 ADD PUSH2 0x19E1 SWAP1 PUSH2 0x2D15 JUMP JUMPDEST PUSH1 0x40 MLOAD DUP1 SWAP2 SUB SWAP1 REVERT JUMPDEST DUP3 PUSH20 0xFFFFFFFFFFFFFFFFFFFFFFFFFFFFFFFFFFFFFFFF AND PUSH32 0x510FFB4DCAB972AE9D2007A58E13F1B0881776D23CD8F5CC32F8C5BE2DBF70D2 DUP4 PUSH1 0x40 MLOAD PUSH2 0x1A30 SWAP2 SWAP1 PUSH2 0x21BA JUMP JUMPDEST PUSH1 0x40 MLOAD DUP1 SWAP2 SUB SWAP1 LOG2 POP POP POP JUMP JUMPDEST PUSH1 0x8 SLOAD DUP2 JUMP JUMPDEST PUSH1 0x1 DUP2 LT ISZERO DUP1 ISZERO PUSH2 0x1A55 JUMPI POP PUSH1 0x5 DUP2 GT ISZERO JUMPDEST PUSH2 0x1A94 JUMPI PUSH1 0x40 MLOAD PUSH32 0x8C379A000000000000000000000000000000000000000000000000000000000 DUP2 MSTORE PUSH1 0x4 ADD PUSH2 0x1A8B SWAP1 PUSH2 0x2C04 JUMP JUMPDEST PUSH1 0x40 MLOAD DUP1 SWAP2 SUB SWAP1 REVERT JUMPDEST DUP1 PUSH1 0x6 PUSH0 CALLER PUSH20 0xFFFFFFFFFFFFFFFFFFFFFFFFFFFFFFFFFFFFFFFF AND PUSH20 0xFFFFFFFFFFFFFFFFFFFFFFFFFFFFFFFFFFFFFFFF AND DUP2 MSTORE PUSH1 0x20 ADD SWAP1 DUP2 MSTORE PUSH1 0x20 ADD PUSH0 KECCAK256 PUSH1 0x2 ADD SLOAD LT PUSH2 0x1B16 JUMPI PUSH1 0x40 MLOAD PUSH32 0x8C379A000000000000000000000000000000000000000000000000000000000 DUP2 MSTORE PUSH1 0x4 ADD PUSH2 0x1B0D SWAP1 PUSH2 0x2D7D JUMP JUMPDEST PUSH1 0x40 MLOAD DUP1 SWAP2 SUB SWAP1 REVERT JUMPDEST PUSH0 PUSH2 0x1B20 DUP3 PUSH2 0x4D2 JUMP JUMPDEST SWAP1 POP PUSH1 0x2 PUSH0 SWAP1 SLOAD SWAP1 PUSH2 0x100 EXP SWAP1 DIV PUSH20 0xFFFFFFFFFFFFFFFFFFFFFFFFFFFFFFFFFFFFFFFF AND PUSH20 0xFFFFFFFFFFFFFFFFFFFFFFFFFFFFFFFFFFFFFFFF AND PUSH4 0x23B872DD CALLER ADDRESS DUP5 PUSH1 0x40 MLOAD DUP5 PUSH4 0xFFFFFFFF AND PUSH1 0xE0 SHL DUP2 MSTORE PUSH1 0x4 ADD PUSH2 0x1B80 SWAP4 SWAP3 SWAP2 SWAP1 PUSH2 0x2B1D JUMP JUMPDEST PUSH1 0x20 PUSH1 0x40 MLOAD DUP1 DUP4 SUB DUP2 PUSH0 DUP8 GAS CALL ISZERO DUP1 ISZERO PUSH2 0x1B9C JUMPI RETURNDATASIZE PUSH0 DUP1 RETURNDATACOPY RETURNDATASIZE PUSH0 REVERT JUMPDEST POP POP POP POP PUSH1 0x40 MLOAD RETURNDATASIZE PUSH1 0x1F NOT PUSH1 0x1F DUP3 ADD AND DUP3 ADD DUP1 PUSH1 0x40 MSTORE POP DUP2 ADD SWAP1 PUSH2 0x1BC0 SWAP2 SWAP1 PUSH2 0x27E8 JUMP JUMPDEST PUSH2 0x1BFF JUMPI PUSH1 0x40 MLOAD PUSH32 0x8C379A000000000000000000000000000000000000000000000000000000000 DUP2 MSTORE PUSH1 0x4 ADD PUSH2 0x1BF6 SWAP1 PUSH2 0x2B9C JUMP JUMPDEST PUSH1 0x40 MLOAD DUP1 SWAP2 SUB SWAP1 REVERT JUMPDEST PUSH0 PUSH2 0x1C09 DUP4 PUSH2 0x210A JUMP JUMPDEST SWAP1 POP DUP1 PUSH1 0x6 PUSH0 CALLER PUSH20 0xFFFFFFFFFFFFFFFFFFFFFFFFFFFFFFFFFFFFFFFF AND PUSH20 0xFFFFFFFFFFFFFFFFFFFFFFFFFFFFFFFFFFFFFFFF AND DUP2 MSTORE PUSH1 0x20 ADD SWAP1 DUP2 MSTORE PUSH1 0x20 ADD PUSH0 KECCAK256 PUSH1 0x1 ADD DUP2 SWAP1 SSTORE POP PUSH2 0x1C9A CALLER PUSH1 0x6 PUSH0 CALLER PUSH20 0xFFFFFFFFFFFFFFFFFFFFFFFFFFFFFFFFFFFFFFFF AND PUSH20 0xFFFFFFFFFFFFFFFFFFFFFFFFFFFFFFFFFFFFFFFF AND DUP2 MSTORE PUSH1 0x20 ADD SWAP1 DUP2 MSTORE PUSH1 0x20 ADD PUSH0 KECCAK256 PUSH1 0x2 ADD SLOAD PUSH2 0x1EB7 JUMP JUMPDEST DUP3 PUSH1 0x6 PUSH0 CALLER PUSH20 0xFFFFFFFFFFFFFFFFFFFFFFFFFFFFFFFFFFFFFFFF AND PUSH20 0xFFFFFFFFFFFFFFFFFFFFFFFFFFFFFFFFFFFFFFFF AND DUP2 MSTORE PUSH1 0x20 ADD SWAP1 DUP2 MSTORE PUSH1 0x20 ADD PUSH0 KECCAK256 PUSH1 0x2 ADD DUP2 SWAP1 SSTORE POP PUSH1 0x7 PUSH0 DUP5 DUP2 MSTORE PUSH1 0x20 ADD SWAP1 DUP2 MSTORE PUSH1 0x20 ADD PUSH0 KECCAK256 CALLER SWAP1 DUP1 PUSH1 0x1 DUP2 SLOAD ADD DUP1 DUP3 SSTORE DUP1 SWAP2 POP POP PUSH1 0x1 SWAP1 SUB SWAP1 PUSH0 MSTORE PUSH1 0x20 PUSH0 KECCAK256 ADD PUSH0 SWAP1 SWAP2 SWAP1 SWAP2 SWAP1 SWAP2 PUSH2 0x100 EXP DUP2 SLOAD DUP2 PUSH20 0xFFFFFFFFFFFFFFFFFFFFFFFFFFFFFFFFFFFFFFFF MUL NOT AND SWAP1 DUP4 PUSH20 0xFFFFFFFFFFFFFFFFFFFFFFFFFFFFFFFFFFFFFFFF AND MUL OR SWAP1 SSTORE POP DUP2 PUSH1 0x8 PUSH0 DUP3 DUP3 SLOAD PUSH2 0x1D5F SWAP2 SWAP1 PUSH2 0x2605 JUMP JUMPDEST SWAP3 POP POP DUP2 SWAP1 SSTORE POP CALLER PUSH20 0xFFFFFFFFFFFFFFFFFFFFFFFFFFFFFFFFFFFFFFFF AND PUSH32 0x427898149FFA0BD0A638B73A8506CC040CA0034A36BDB547DB4FB73FD0313C02 DUP5 PUSH1 0x40 MLOAD PUSH2 0x1DAC SWAP2 SWAP1 PUSH2 0x21BA JUMP JUMPDEST PUSH1 0x40 MLOAD DUP1 SWAP2 SUB SWAP1 LOG2 POP POP POP JUMP JUMPDEST PUSH0 PUSH1 0x1 DUP3 SUB PUSH2 0x1DCB JUMPI PUSH1 0x10 SWAP1 POP PUSH2 0x1E13 JUMP JUMPDEST PUSH1 0x2 DUP3 SUB PUSH2 0x1DDC JUMPI PUSH1 0x12 SWAP1 POP PUSH2 0x1E13 JUMP JUMPDEST PUSH1 0x3 DUP3 SUB PUSH2 0x1DED JUMPI PUSH1 0x14 SWAP1 POP PUSH2 0x1E13 JUMP JUMPDEST PUSH1 0x4 DUP3 SUB PUSH2 0x1DFE JUMPI PUSH1 0x16 SWAP1 POP PUSH2 0x1E13 JUMP JUMPDEST PUSH1 0x5 DUP3 SUB PUSH2 0x1E0F JUMPI PUSH1 0x18 SWAP1 POP PUSH2 0x1E13 JUMP JUMPDEST PUSH0 SWAP1 POP JUMPDEST SWAP2 SWAP1 POP JUMP JUMPDEST PUSH0 PUSH1 0x1 DUP3 LT ISZERO DUP1 ISZERO PUSH2 0x1E2B JUMPI POP PUSH1 0x9 DUP3 GT ISZERO JUMPDEST ISZERO PUSH2 0x1E39 JUMPI PUSH1 0x1 SWAP1 POP PUSH2 0x1EB2 JUMP JUMPDEST PUSH1 0xA DUP3 LT ISZERO DUP1 ISZERO PUSH2 0x1E4B JUMPI POP PUSH1 0x63 DUP3 GT ISZERO JUMPDEST ISZERO PUSH2 0x1E59 JUMPI PUSH1 0x2 SWAP1 POP PUSH2 0x1EB2 JUMP JUMPDEST PUSH1 0x64 DUP3 LT ISZERO DUP1 ISZERO PUSH2 0x1E6C JUMPI POP PUSH2 0x3E7 DUP3 GT ISZERO JUMPDEST ISZERO PUSH2 0x1E7A JUMPI PUSH1 0x3 SWAP1 POP PUSH2 0x1EB2 JUMP JUMPDEST PUSH2 0x3E8 DUP3 LT ISZERO DUP1 ISZERO PUSH2 0x1E8E JUMPI POP PUSH2 0x270F DUP3 GT ISZERO JUMPDEST ISZERO PUSH2 0x1E9C JUMPI PUSH1 0x4 SWAP1 POP PUSH2 0x1EB2 JUMP JUMPDEST PUSH2 0x2710 DUP3 LT PUSH2 0x1EAE JUMPI PUSH1 0x5 SWAP1 POP PUSH2 0x1EB2 JUMP JUMPDEST PUSH0 SWAP1 POP JUMPDEST SWAP2 SWAP1 POP JUMP JUMPDEST PUSH0 PUSH1 0x7 PUSH0 DUP4 DUP2 MSTORE PUSH1 0x20 ADD SWAP1 DUP2 MSTORE PUSH1 0x20 ADD PUSH0 KECCAK256 SWAP1 POP PUSH0 JUMPDEST DUP2 DUP1 SLOAD SWAP1 POP DUP2 LT ISZERO PUSH2 0x203E JUMPI DUP4 PUSH20 0xFFFFFFFFFFFFFFFFFFFFFFFFFFFFFFFFFFFFFFFF AND DUP3 DUP3 DUP2 SLOAD DUP2 LT PUSH2 0x1F03 JUMPI PUSH2 0x1F02 PUSH2 0x287B JUMP JUMPDEST JUMPDEST SWAP1 PUSH0 MSTORE PUSH1 0x20 PUSH0 KECCAK256 ADD PUSH0 SWAP1 SLOAD SWAP1 PUSH2 0x100 EXP SWAP1 DIV PUSH20 0xFFFFFFFFFFFFFFFFFFFFFFFFFFFFFFFFFFFFFFFF AND PUSH20 0xFFFFFFFFFFFFFFFFFFFFFFFFFFFFFFFFFFFFFFFF AND SUB PUSH2 0x2031 JUMPI DUP2 PUSH1 0x1 DUP4 DUP1 SLOAD SWAP1 POP PUSH2 0x1F58 SWAP2 SWAP1 PUSH2 0x2764 JUMP JUMPDEST DUP2 SLOAD DUP2 LT PUSH2 0x1F69 JUMPI PUSH2 0x1F68 PUSH2 0x287B JUMP JUMPDEST JUMPDEST SWAP1 PUSH0 MSTORE PUSH1 0x20 PUSH0 KECCAK256 ADD PUSH0 SWAP1 SLOAD SWAP1 PUSH2 0x100 EXP SWAP1 DIV PUSH20 0xFFFFFFFFFFFFFFFFFFFFFFFFFFFFFFFFFFFFFFFF AND DUP3 DUP3 DUP2 SLOAD DUP2 LT PUSH2 0x1FA4 JUMPI PUSH2 0x1FA3 PUSH2 0x287B JUMP JUMPDEST JUMPDEST SWAP1 PUSH0 MSTORE PUSH1 0x20 PUSH0 KECCAK256 ADD PUSH0 PUSH2 0x100 EXP DUP2 SLOAD DUP2 PUSH20 0xFFFFFFFFFFFFFFFFFFFFFFFFFFFFFFFFFFFFFFFF MUL NOT AND SWAP1 DUP4 PUSH20 0xFFFFFFFFFFFFFFFFFFFFFFFFFFFFFFFFFFFFFFFF AND MUL OR SWAP1 SSTORE POP DUP2 DUP1 SLOAD DUP1 PUSH2 0x1FFA JUMPI PUSH2 0x1FF9 PUSH2 0x2D9B JUMP JUMPDEST JUMPDEST PUSH1 0x1 SWAP1 SUB DUP2 DUP2 SWAP1 PUSH0 MSTORE PUSH1 0x20 PUSH0 KECCAK256 ADD PUSH0 PUSH2 0x100 EXP DUP2 SLOAD SWAP1 PUSH20 0xFFFFFFFFFFFFFFFFFFFFFFFFFFFFFFFFFFFFFFFF MUL NOT AND SWAP1 SSTORE SWAP1 SSTORE PUSH2 0x203E JUMP JUMPDEST DUP1 DUP1 PUSH1 0x1 ADD SWAP2 POP POP PUSH2 0x1ECD JUMP JUMPDEST POP POP POP POP JUMP JUMPDEST PUSH0 PUSH1 0x64 PUSH1 0x32 PUSH1 0x3 SLOAD PUSH2 0x2056 SWAP2 SWAP1 PUSH2 0x26C6 JUMP JUMPDEST PUSH2 0x2060 SWAP2 SWAP1 PUSH2 0x2734 JUMP JUMPDEST SWAP1 POP DUP1 PUSH1 0x6 PUSH0 DUP5 PUSH20 0xFFFFFFFFFFFFFFFFFFFFFFFFFFFFFFFFFFFFFFFF AND PUSH20 0xFFFFFFFFFFFFFFFFFFFFFFFFFFFFFFFFFFFFFFFF AND DUP2 MSTORE PUSH1 0x20 ADD SWAP1 DUP2 MSTORE PUSH1 0x20 ADD PUSH0 KECCAK256 PUSH1 0x3 ADD PUSH0 DUP3 DUP3 SLOAD PUSH2 0x20B1 SWAP2 SWAP1 PUSH2 0x2605 JUMP JUMPDEST SWAP3 POP POP DUP2 SWAP1 SSTORE POP DUP2 PUSH20 0xFFFFFFFFFFFFFFFFFFFFFFFFFFFFFFFFFFFFFFFF AND PUSH32 0x6292F4F27D8047AF4537A4BD86906DE0E2C880C20086F7F58B81EACFEB639126 DUP3 PUSH1 0x40 MLOAD PUSH2 0x20FE SWAP2 SWAP1 PUSH2 0x21BA JUMP JUMPDEST PUSH1 0x40 MLOAD DUP1 SWAP2 SUB SWAP1 LOG2 POP POP JUMP JUMPDEST PUSH0 PUSH1 0x1 DUP3 SUB PUSH2 0x211C JUMPI PUSH1 0x1 SWAP1 POP PUSH2 0x219D JUMP JUMPDEST PUSH1 0x2 DUP3 SUB PUSH2 0x212D JUMPI PUSH1 0xA SWAP1 POP PUSH2 0x219D JUMP JUMPDEST PUSH1 0x3 DUP3 SUB PUSH2 0x213E JUMPI PUSH1 0x64 SWAP1 POP PUSH2 0x219D JUMP JUMPDEST PUSH1 0x4 DUP3 SUB PUSH2 0x2150 JUMPI PUSH2 0x3E8 SWAP1 POP PUSH2 0x219D JUMP JUMPDEST PUSH1 0x5 DUP3 SUB PUSH2 0x2162 JUMPI PUSH2 0x2710 SWAP1 POP PUSH2 0x219D JUMP JUMPDEST PUSH1 0x40 MLOAD PUSH32 0x8C379A000000000000000000000000000000000000000000000000000000000 DUP2 MSTORE PUSH1 0x4 ADD PUSH2 0x2194 SWAP1 PUSH2 0x2C04 JUMP JUMPDEST PUSH1 0x40 MLOAD DUP1 SWAP2 SUB SWAP1 REVERT JUMPDEST SWAP2 SWAP1 POP JUMP JUMPDEST PUSH0 DUP2 SWAP1 POP SWAP2 SWAP1 POP JUMP JUMPDEST PUSH2 0x21B4 DUP2 PUSH2 0x21A2 JUMP JUMPDEST DUP3 MSTORE POP POP JUMP JUMPDEST PUSH0 PUSH1 0x20 DUP3 ADD SWAP1 POP PUSH2 0x21CD PUSH0 DUP4 ADD DUP5 PUSH2 0x21AB JUMP JUMPDEST SWAP3 SWAP2 POP POP JUMP JUMPDEST PUSH0 DUP1 REVERT JUMPDEST PUSH2 0x21E0 DUP2 PUSH2 0x21A2 JUMP JUMPDEST DUP2 EQ PUSH2 0x21EA JUMPI PUSH0 DUP1 REVERT JUMPDEST POP JUMP JUMPDEST PUSH0 DUP2 CALLDATALOAD SWAP1 POP PUSH2 0x21FB DUP2 PUSH2 0x21D7 JUMP JUMPDEST SWAP3 SWAP2 POP POP JUMP JUMPDEST PUSH0 PUSH1 0x20 DUP3 DUP5 SUB SLT ISZERO PUSH2 0x2216 JUMPI PUSH2 0x2215 PUSH2 0x21D3 JUMP JUMPDEST JUMPDEST PUSH0 PUSH2 0x2223 DUP5 DUP3 DUP6 ADD PUSH2 0x21ED JUMP JUMPDEST SWAP2 POP POP SWAP3 SWAP2 POP POP JUMP JUMPDEST PUSH0 PUSH20 0xFFFFFFFFFFFFFFFFFFFFFFFFFFFFFFFFFFFFFFFF DUP3 AND SWAP1 POP SWAP2 SWAP1 POP JUMP JUMPDEST PUSH0 PUSH2 0x2255 DUP3 PUSH2 0x222C JUMP JUMPDEST SWAP1 POP SWAP2 SWAP1 POP JUMP JUMPDEST PUSH2 0x2265 DUP2 PUSH2 0x224B JUMP JUMPDEST DUP2 EQ PUSH2 0x226F JUMPI PUSH0 DUP1 REVERT JUMPDEST POP JUMP JUMPDEST PUSH0 DUP2 CALLDATALOAD SWAP1 POP PUSH2 0x2280 DUP2 PUSH2 0x225C JUMP JUMPDEST SWAP3 SWAP2 POP POP JUMP JUMPDEST PUSH0 PUSH1 0x20 DUP3 DUP5 SUB SLT ISZERO PUSH2 0x229B JUMPI PUSH2 0x229A PUSH2 0x21D3 JUMP JUMPDEST JUMPDEST PUSH0 PUSH2 0x22A8 DUP5 DUP3 DUP6 ADD PUSH2 0x2272 JUMP JUMPDEST SWAP2 POP POP SWAP3 SWAP2 POP POP JUMP JUMPDEST PUSH0 DUP2 MLOAD SWAP1 POP SWAP2 SWAP1 POP JUMP JUMPDEST PUSH0 DUP3 DUP3 MSTORE PUSH1 0x20 DUP3 ADD SWAP1 POP SWAP3 SWAP2 POP POP JUMP JUMPDEST PUSH0 DUP2 SWAP1 POP PUSH1 0x20 DUP3 ADD SWAP1 POP SWAP2 SWAP1 POP JUMP JUMPDEST PUSH2 0x22E3 DUP2 PUSH2 0x224B JUMP JUMPDEST DUP3 MSTORE POP POP JUMP JUMPDEST PUSH0 PUSH2 0x22F4 DUP4 DUP4 PUSH2 0x22DA JUMP JUMPDEST PUSH1 0x20 DUP4 ADD SWAP1 POP SWAP3 SWAP2 POP POP JUMP JUMPDEST PUSH0 PUSH1 0x20 DUP3 ADD SWAP1 POP SWAP2 SWAP1 POP JUMP JUMPDEST PUSH0 PUSH2 0x2316 DUP3 PUSH2 0x22B1 JUMP JUMPDEST PUSH2 0x2320 DUP2 DUP6 PUSH2 0x22BB JUMP JUMPDEST SWAP4 POP PUSH2 0x232B DUP4 PUSH2 0x22CB JUMP JUMPDEST DUP1 PUSH0 JUMPDEST DUP4 DUP2 LT ISZERO PUSH2 0x235B JUMPI DUP2 MLOAD PUSH2 0x2342 DUP9 DUP3 PUSH2 0x22E9 JUMP JUMPDEST SWAP8 POP PUSH2 0x234D DUP4 PUSH2 0x2300 JUMP JUMPDEST SWAP3 POP POP PUSH1 0x1 DUP2 ADD SWAP1 POP PUSH2 0x232E JUMP JUMPDEST POP DUP6 SWAP4 POP POP POP POP SWAP3 SWAP2 POP POP JUMP JUMPDEST PUSH0 PUSH1 0x20 DUP3 ADD SWAP1 POP DUP2 DUP2 SUB PUSH0 DUP4 ADD MSTORE PUSH2 0x2380 DUP2 DUP5 PUSH2 0x230C JUMP JUMPDEST SWAP1 POP SWAP3 SWAP2 POP POP JUMP JUMPDEST PUSH2 0x2391 DUP2 PUSH2 0x224B JUMP JUMPDEST DUP3 MSTORE POP POP JUMP JUMPDEST PUSH0 PUSH1 0x20 DUP3 ADD SWAP1 POP PUSH2 0x23AA PUSH0 DUP4 ADD DUP5 PUSH2 0x2388 JUMP JUMPDEST SWAP3 SWAP2 POP POP JUMP JUMPDEST PUSH0 DUP2 ISZERO ISZERO SWAP1 POP SWAP2 SWAP1 POP JUMP JUMPDEST PUSH2 0x23C4 DUP2 PUSH2 0x23B0 JUMP JUMPDEST DUP3 MSTORE POP POP JUMP JUMPDEST PUSH0 PUSH1 0xA0 DUP3 ADD SWAP1 POP PUSH2 0x23DD PUSH0 DUP4 ADD DUP9 PUSH2 0x2388 JUMP JUMPDEST PUSH2 0x23EA PUSH1 0x20 DUP4 ADD DUP8 PUSH2 0x21AB JUMP JUMPDEST PUSH2 0x23F7 PUSH1 0x40 DUP4 ADD DUP7 PUSH2 0x21AB JUMP JUMPDEST PUSH2 0x2404 PUSH1 0x60 DUP4 ADD DUP6 PUSH2 0x21AB JUMP JUMPDEST PUSH2 0x2411 PUSH1 0x80 DUP4 ADD DUP5 PUSH2 0x23BB JUMP JUMPDEST SWAP7 SWAP6 POP POP POP POP POP POP JUMP JUMPDEST PUSH0 DUP1 PUSH1 0x40 DUP4 DUP6 SUB SLT ISZERO PUSH2 0x2431 JUMPI PUSH2 0x2430 PUSH2 0x21D3 JUMP JUMPDEST JUMPDEST PUSH0 PUSH2 0x243E DUP6 DUP3 DUP7 ADD PUSH2 0x21ED JUMP JUMPDEST SWAP3 POP POP PUSH1 0x20 PUSH2 0x244F DUP6 DUP3 DUP7 ADD PUSH2 0x21ED JUMP JUMPDEST SWAP2 POP POP SWAP3 POP SWAP3 SWAP1 POP JUMP JUMPDEST PUSH0 PUSH2 0x2463 DUP3 PUSH2 0x222C JUMP JUMPDEST SWAP1 POP SWAP2 SWAP1 POP JUMP JUMPDEST PUSH2 0x2473 DUP2 PUSH2 0x2459 JUMP JUMPDEST DUP2 EQ PUSH2 0x247D JUMPI PUSH0 DUP1 REVERT JUMPDEST POP JUMP JUMPDEST PUSH0 DUP2 CALLDATALOAD SWAP1 POP PUSH2 0x248E DUP2 PUSH2 0x246A JUMP JUMPDEST SWAP3 SWAP2 POP POP JUMP JUMPDEST PUSH0 DUP1 PUSH1 0x40 DUP4 DUP6 SUB SLT ISZERO PUSH2 0x24AA JUMPI PUSH2 0x24A9 PUSH2 0x21D3 JUMP JUMPDEST JUMPDEST PUSH0 PUSH2 0x24B7 DUP6 DUP3 DUP7 ADD PUSH2 0x2480 JUMP JUMPDEST SWAP3 POP POP PUSH1 0x20 PUSH2 0x24C8 DUP6 DUP3 DUP7 ADD PUSH2 0x21ED JUMP JUMPDEST SWAP2 POP POP SWAP3 POP SWAP3 SWAP1 POP JUMP JUMPDEST PUSH0 DUP3 DUP3 MSTORE PUSH1 0x20 DUP3 ADD SWAP1 POP SWAP3 SWAP2 POP POP JUMP JUMPDEST PUSH32 0x4E6F7420617574686F72697A6564000000000000000000000000000000000000 PUSH0 DUP3 ADD MSTORE POP JUMP JUMPDEST PUSH0 PUSH2 0x2516 PUSH1 0xE DUP4 PUSH2 0x24D2 JUMP JUMPDEST SWAP2 POP PUSH2 0x2521 DUP3 PUSH2 0x24E2 JUMP JUMPDEST PUSH1 0x20 DUP3 ADD SWAP1 POP SWAP2 SWAP1 POP JUMP JUMPDEST PUSH0 PUSH1 0x20 DUP3 ADD SWAP1 POP DUP2 DUP2 SUB PUSH0 DUP4 ADD MSTORE PUSH2 0x2543 DUP2 PUSH2 0x250A JUMP JUMPDEST SWAP1 POP SWAP2 SWAP1 POP JUMP JUMPDEST PUSH32 0x4E6577206465762077616C6C657420697320746865207A65726F206164647265 PUSH0 DUP3 ADD MSTORE PUSH32 0x7373000000000000000000000000000000000000000000000000000000000000 PUSH1 0x20 DUP3 ADD MSTORE POP JUMP JUMPDEST PUSH0 PUSH2 0x25A4 PUSH1 0x22 DUP4 PUSH2 0x24D2 JUMP JUMPDEST SWAP2 POP PUSH2 0x25AF DUP3 PUSH2 0x254A JUMP JUMPDEST PUSH1 0x40 DUP3 ADD SWAP1 POP SWAP2 SWAP1 POP JUMP JUMPDEST PUSH0 PUSH1 0x20 DUP3 ADD SWAP1 POP DUP2 DUP2 SUB PUSH0 DUP4 ADD MSTORE PUSH2 0x25D1 DUP2 PUSH2 0x2598 JUMP JUMPDEST SWAP1 POP SWAP2 SWAP1 POP JUMP JUMPDEST PUSH32 0x4E487B7100000000000000000000000000000000000000000000000000000000 PUSH0 MSTORE PUSH1 0x11 PUSH1 0x4 MSTORE PUSH1 0x24 PUSH0 REVERT JUMPDEST PUSH0 PUSH2 0x260F DUP3 PUSH2 0x21A2 JUMP JUMPDEST SWAP2 POP PUSH2 0x261A DUP4 PUSH2 0x21A2 JUMP JUMPDEST SWAP3 POP DUP3 DUP3 ADD SWAP1 POP DUP1 DUP3 GT ISZERO PUSH2 0x2632 JUMPI PUSH2 0x2631 PUSH2 0x25D8 JUMP JUMPDEST JUMPDEST SWAP3 SWAP2 POP POP JUMP JUMPDEST PUSH32 0x526577617264732063616E206F6E6C7920626520646973747269627574656420 PUSH0 DUP3 ADD MSTORE PUSH32 0x657665727920323420686F757273000000000000000000000000000000000000 PUSH1 0x20 DUP3 ADD MSTORE POP JUMP JUMPDEST PUSH0 PUSH2 0x2692 PUSH1 0x2E DUP4 PUSH2 0x24D2 JUMP JUMPDEST SWAP2 POP PUSH2 0x269D DUP3 PUSH2 0x2638 JUMP JUMPDEST PUSH1 0x40 DUP3 ADD SWAP1 POP SWAP2 SWAP1 POP JUMP JUMPDEST PUSH0 PUSH1 0x20 DUP3 ADD SWAP1 POP DUP2 DUP2 SUB PUSH0 DUP4 ADD MSTORE PUSH2 0x26BF DUP2 PUSH2 0x2686 JUMP JUMPDEST SWAP1 POP SWAP2 SWAP1 POP JUMP JUMPDEST PUSH0 PUSH2 0x26D0 DUP3 PUSH2 0x21A2 JUMP JUMPDEST SWAP2 POP PUSH2 0x26DB DUP4 PUSH2 0x21A2 JUMP JUMPDEST SWAP3 POP DUP3 DUP3 MUL PUSH2 0x26E9 DUP2 PUSH2 0x21A2 JUMP JUMPDEST SWAP2 POP DUP3 DUP3 DIV DUP5 EQ DUP4 ISZERO OR PUSH2 0x2700 JUMPI PUSH2 0x26FF PUSH2 0x25D8 JUMP JUMPDEST JUMPDEST POP SWAP3 SWAP2 POP POP JUMP JUMPDEST PUSH32 0x4E487B7100000000000000000000000000000000000000000000000000000000 PUSH0 MSTORE PUSH1 0x12 PUSH1 0x4 MSTORE PUSH1 0x24 PUSH0 REVERT JUMPDEST PUSH0 PUSH2 0x273E DUP3 PUSH2 0x21A2 JUMP JUMPDEST SWAP2 POP PUSH2 0x2749 DUP4 PUSH2 0x21A2 JUMP JUMPDEST SWAP3 POP DUP3 PUSH2 0x2759 JUMPI PUSH2 0x2758 PUSH2 0x2707 JUMP JUMPDEST JUMPDEST DUP3 DUP3 DIV SWAP1 POP SWAP3 SWAP2 POP POP JUMP JUMPDEST PUSH0 PUSH2 0x276E DUP3 PUSH2 0x21A2 JUMP JUMPDEST SWAP2 POP PUSH2 0x2779 DUP4 PUSH2 0x21A2 JUMP JUMPDEST SWAP3 POP DUP3 DUP3 SUB SWAP1 POP DUP2 DUP2 GT ISZERO PUSH2 0x2791 JUMPI PUSH2 0x2790 PUSH2 0x25D8 JUMP JUMPDEST JUMPDEST SWAP3 SWAP2 POP POP JUMP JUMPDEST PUSH0 PUSH1 0x40 DUP3 ADD SWAP1 POP PUSH2 0x27AA PUSH0 DUP4 ADD DUP6 PUSH2 0x2388 JUMP JUMPDEST PUSH2 0x27B7 PUSH1 0x20 DUP4 ADD DUP5 PUSH2 0x21AB JUMP JUMPDEST SWAP4 SWAP3 POP POP POP JUMP JUMPDEST PUSH2 0x27C7 DUP2 PUSH2 0x23B0 JUMP JUMPDEST DUP2 EQ PUSH2 0x27D1 JUMPI PUSH0 DUP1 REVERT JUMPDEST POP JUMP JUMPDEST PUSH0 DUP2 MLOAD SWAP1 POP PUSH2 0x27E2 DUP2 PUSH2 0x27BE JUMP JUMPDEST SWAP3 SWAP2 POP POP JUMP JUMPDEST PUSH0 PUSH1 0x20 DUP3 DUP5 SUB SLT ISZERO PUSH2 0x27FD JUMPI PUSH2 0x27FC PUSH2 0x21D3 JUMP JUMPDEST JUMPDEST PUSH0 PUSH2 0x280A DUP5 DUP3 DUP6 ADD PUSH2 0x27D4 JUMP JUMPDEST SWAP2 POP POP SWAP3 SWAP2 POP POP JUMP JUMPDEST PUSH32 0x4F776E6572207061796D656E74206661696C6564000000000000000000000000 PUSH0 DUP3 ADD MSTORE POP JUMP JUMPDEST PUSH0 PUSH2 0x2847 PUSH1 0x14 DUP4 PUSH2 0x24D2 JUMP JUMPDEST SWAP2 POP PUSH2 0x2852 DUP3 PUSH2 0x2813 JUMP JUMPDEST PUSH1 0x20 DUP3 ADD SWAP1 POP SWAP2 SWAP1 POP JUMP JUMPDEST PUSH0 PUSH1 0x20 DUP3 ADD SWAP1 POP DUP2 DUP2 SUB PUSH0 DUP4 ADD MSTORE PUSH2 0x2874 DUP2 PUSH2 0x283B JUMP JUMPDEST SWAP1 POP SWAP2 SWAP1 POP JUMP JUMPDEST PUSH32 0x4E487B7100000000000000000000000000000000000000000000000000000000 PUSH0 MSTORE PUSH1 0x32 PUSH1 0x4 MSTORE PUSH1 0x24 PUSH0 REVERT JUMPDEST PUSH0 PUSH2 0x28B2 DUP3 PUSH2 0x21A2 JUMP JUMPDEST SWAP2 POP PUSH32 0xFFFFFFFFFFFFFFFFFFFFFFFFFFFFFFFFFFFFFFFFFFFFFFFFFFFFFFFFFFFFFFFF DUP3 SUB PUSH2 0x28E4 JUMPI PUSH2 0x28E3 PUSH2 0x25D8 JUMP JUMPDEST JUMPDEST PUSH1 0x1 DUP3 ADD SWAP1 POP SWAP2 SWAP1 POP JUMP JUMPDEST PUSH32 0x576974686472617720616D6F756E74206D757374206265206772656174657220 PUSH0 DUP3 ADD MSTORE PUSH32 0x7468616E207A65726F0000000000000000000000000000000000000000000000 PUSH1 0x20 DUP3 ADD MSTORE POP JUMP JUMPDEST PUSH0 PUSH2 0x2949 PUSH1 0x29 DUP4 PUSH2 0x24D2 JUMP JUMPDEST SWAP2 POP PUSH2 0x2954 DUP3 PUSH2 0x28EF JUMP JUMPDEST PUSH1 0x40 DUP3 ADD SWAP1 POP SWAP2 SWAP1 POP JUMP JUMPDEST PUSH0 PUSH1 0x20 DUP3 ADD SWAP1 POP DUP2 DUP2 SUB PUSH0 DUP4 ADD MSTORE PUSH2 0x2976 DUP2 PUSH2 0x293D JUMP JUMPDEST SWAP1 POP SWAP2 SWAP1 POP JUMP JUMPDEST PUSH32 0x496E73756666696369656E74206561726E656420726577617264730000000000 PUSH0 DUP3 ADD MSTORE POP JUMP JUMPDEST PUSH0 PUSH2 0x29B1 PUSH1 0x1B DUP4 PUSH2 0x24D2 JUMP JUMPDEST SWAP2 POP PUSH2 0x29BC DUP3 PUSH2 0x297D JUMP JUMPDEST PUSH1 0x20 DUP3 ADD SWAP1 POP SWAP2 SWAP1 POP JUMP JUMPDEST PUSH0 PUSH1 0x20 DUP3 ADD SWAP1 POP DUP2 DUP2 SUB PUSH0 DUP4 ADD MSTORE PUSH2 0x29DE DUP2 PUSH2 0x29A5 JUMP JUMPDEST SWAP1 POP SWAP2 SWAP1 POP JUMP JUMPDEST PUSH32 0x5769746864726177616C206661696C6564000000000000000000000000000000 PUSH0 DUP3 ADD MSTORE POP JUMP JUMPDEST PUSH0 PUSH2 0x2A19 PUSH1 0x11 DUP4 PUSH2 0x24D2 JUMP JUMPDEST SWAP2 POP PUSH2 0x2A24 DUP3 PUSH2 0x29E5 JUMP JUMPDEST PUSH1 0x20 DUP3 ADD SWAP1 POP SWAP2 SWAP1 POP JUMP JUMPDEST PUSH0 PUSH1 0x20 DUP3 ADD SWAP1 POP DUP2 DUP2 SUB PUSH0 DUP4 ADD MSTORE PUSH2 0x2A46 DUP2 PUSH2 0x2A0D JUMP JUMPDEST SWAP1 POP SWAP2 SWAP1 POP JUMP JUMPDEST PUSH32 0x4E6577206F776E657220697320746865207A65726F2061646472657373000000 PUSH0 DUP3 ADD MSTORE POP JUMP JUMPDEST PUSH0 PUSH2 0x2A81 PUSH1 0x1D DUP4 PUSH2 0x24D2 JUMP JUMPDEST SWAP2 POP PUSH2 0x2A8C DUP3 PUSH2 0x2A4D JUMP JUMPDEST PUSH1 0x20 DUP3 ADD SWAP1 POP SWAP2 SWAP1 POP JUMP JUMPDEST PUSH0 PUSH1 0x20 DUP3 ADD SWAP1 POP DUP2 DUP2 SUB PUSH0 DUP4 ADD MSTORE PUSH2 0x2AAE DUP2 PUSH2 0x2A75 JUMP JUMPDEST SWAP1 POP SWAP2 SWAP1 POP JUMP JUMPDEST PUSH32 0x416C726561647920726567697374657265640000000000000000000000000000 PUSH0 DUP3 ADD MSTORE POP JUMP JUMPDEST PUSH0 PUSH2 0x2AE9 PUSH1 0x12 DUP4 PUSH2 0x24D2 JUMP JUMPDEST SWAP2 POP PUSH2 0x2AF4 DUP3 PUSH2 0x2AB5 JUMP JUMPDEST PUSH1 0x20 DUP3 ADD SWAP1 POP SWAP2 SWAP1 POP JUMP JUMPDEST PUSH0 PUSH1 0x20 DUP3 ADD SWAP1 POP DUP2 DUP2 SUB PUSH0 DUP4 ADD MSTORE PUSH2 0x2B16 DUP2 PUSH2 0x2ADD JUMP JUMPDEST SWAP1 POP SWAP2 SWAP1 POP JUMP JUMPDEST PUSH0 PUSH1 0x60 DUP3 ADD SWAP1 POP PUSH2 0x2B30 PUSH0 DUP4 ADD DUP7 PUSH2 0x2388 JUMP JUMPDEST PUSH2 0x2B3D PUSH1 0x20 DUP4 ADD DUP6 PUSH2 0x2388 JUMP JUMPDEST PUSH2 0x2B4A PUSH1 0x40 DUP4 ADD DUP5 PUSH2 0x21AB JUMP JUMPDEST SWAP5 SWAP4 POP POP POP POP JUMP JUMPDEST PUSH32 0x5061796D656E74206661696C6564000000000000000000000000000000000000 PUSH0 DUP3 ADD MSTORE POP JUMP JUMPDEST PUSH0 PUSH2 0x2B86 PUSH1 0xE DUP4 PUSH2 0x24D2 JUMP JUMPDEST SWAP2 POP PUSH2 0x2B91 DUP3 PUSH2 0x2B52 JUMP JUMPDEST PUSH1 0x20 DUP3 ADD SWAP1 POP SWAP2 SWAP1 POP JUMP JUMPDEST PUSH0 PUSH1 0x20 DUP3 ADD SWAP1 POP DUP2 DUP2 SUB PUSH0 DUP4 ADD MSTORE PUSH2 0x2BB3 DUP2 PUSH2 0x2B7A JUMP JUMPDEST SWAP1 POP SWAP2 SWAP1 POP JUMP JUMPDEST PUSH32 0x496E76616C6964206C6576656C00000000000000000000000000000000000000 PUSH0 DUP3 ADD MSTORE POP JUMP JUMPDEST PUSH0 PUSH2 0x2BEE PUSH1 0xD DUP4 PUSH2 0x24D2 JUMP JUMPDEST SWAP2 POP PUSH2 0x2BF9 DUP3 PUSH2 0x2BBA JUMP JUMPDEST PUSH1 0x20 DUP3 ADD SWAP1 POP SWAP2 SWAP1 POP JUMP JUMPDEST PUSH0 PUSH1 0x20 DUP3 ADD SWAP1 POP DUP2 DUP2 SUB PUSH0 DUP4 ADD MSTORE PUSH2 0x2C1B DUP2 PUSH2 0x2BE2 JUMP JUMPDEST SWAP1 POP SWAP2 SWAP1 POP JUMP JUMPDEST PUSH32 0x496E73756666696369656E742045746865722062616C616E6365000000000000 PUSH0 DUP3 ADD MSTORE POP JUMP JUMPDEST PUSH0 PUSH2 0x2C56 PUSH1 0x1A DUP4 PUSH2 0x24D2 JUMP JUMPDEST SWAP2 POP PUSH2 0x2C61 DUP3 PUSH2 0x2C22 JUMP JUMPDEST PUSH1 0x20 DUP3 ADD SWAP1 POP SWAP2 SWAP1 POP JUMP JUMPDEST PUSH0 PUSH1 0x20 DUP3 ADD SWAP1 POP DUP2 DUP2 SUB PUSH0 DUP4 ADD MSTORE PUSH2 0x2C83 DUP2 PUSH2 0x2C4A JUMP JUMPDEST SWAP1 POP SWAP2 SWAP1 POP JUMP JUMPDEST PUSH0 DUP2 SWAP1 POP SWAP3 SWAP2 POP POP JUMP JUMPDEST POP JUMP JUMPDEST PUSH0 PUSH2 0x2CA2 PUSH0 DUP4 PUSH2 0x2C8A JUMP JUMPDEST SWAP2 POP PUSH2 0x2CAD DUP3 PUSH2 0x2C94 JUMP JUMPDEST PUSH0 DUP3 ADD SWAP1 POP SWAP2 SWAP1 POP JUMP JUMPDEST PUSH0 PUSH2 0x2CC1 DUP3 PUSH2 0x2C97 JUMP JUMPDEST SWAP2 POP DUP2 SWAP1 POP SWAP2 SWAP1 POP JUMP JUMPDEST PUSH32 0x4574686572207472616E73666572206661696C65640000000000000000000000 PUSH0 DUP3 ADD MSTORE POP JUMP JUMPDEST PUSH0 PUSH2 0x2CFF PUSH1 0x15 DUP4 PUSH2 0x24D2 JUMP JUMPDEST SWAP2 POP PUSH2 0x2D0A DUP3 PUSH2 0x2CCB JUMP JUMPDEST PUSH1 0x20 DUP3 ADD SWAP1 POP SWAP2 SWAP1 POP JUMP JUMPDEST PUSH0 PUSH1 0x20 DUP3 ADD SWAP1 POP DUP2 DUP2 SUB PUSH0 DUP4 ADD MSTORE PUSH2 0x2D2C DUP2 PUSH2 0x2CF3 JUMP JUMPDEST SWAP1 POP SWAP2 SWAP1 POP JUMP JUMPDEST PUSH32 0x416C72656164792061742074686973206C6576656C206F722068696768657200 PUSH0 DUP3 ADD MSTORE POP JUMP JUMPDEST PUSH0 PUSH2 0x2D67 PUSH1 0x1F DUP4 PUSH2 0x24D2 JUMP JUMPDEST SWAP2 POP PUSH2 0x2D72 DUP3 PUSH2 0x2D33 JUMP JUMPDEST PUSH1 0x20 DUP3 ADD SWAP1 POP SWAP2 SWAP1 POP JUMP JUMPDEST PUSH0 PUSH1 0x20 DUP3 ADD SWAP1 POP DUP2 DUP2 SUB PUSH0 DUP4 ADD MSTORE PUSH2 0x2D94 DUP2 PUSH2 0x2D5B JUMP JUMPDEST SWAP1 POP SWAP2 SWAP1 POP JUMP JUMPDEST PUSH32 0x4E487B7100000000000000000000000000000000000000000000000000000000 PUSH0 MSTORE PUSH1 0x31 PUSH1 0x4 MSTORE PUSH1 0x24 PUSH0 REVERT INVALID LOG2 PUSH5 0x6970667358 0x22 SLT KECCAK256 0xC1 0xE5 PUSH3 0x55865B EXTCODESIZE 0xFB 0xB6 PUSH15 0x23FFDBD8D544E215591F7D6380036B CREATE 0x4E STATICCALL 0xC0 ADDMOD 0xC8 DUP4 PUSH5 0x736F6C6343 STOP ADDMOD BYTE STOP CALLER "
				},
				"gasEstimates": {
					"creation": {
						"codeDepositCost": "2354800",
						"executionCost": "infinite",
						"totalCost": "infinite"
					},
					"external": {
						"calculateLevelCost(uint256)": "infinite",
						"changeOwner(address)": "30637",
						"devWallet()": "2575",
						"distributeRewards()": "infinite",
						"getReferrals(address)": "infinite",
						"getUsersInLevel(uint256)": "infinite",
						"joinNetwork(address)": "infinite",
						"lastRewardDistribution()": "2447",
						"levels(uint256,uint256)": "infinite",
						"owner()": "2550",
						"ownerShare()": "2514",
						"registrationFee()": "2449",
						"sendEther(address,uint256)": "infinite",
						"totalIncomePool()": "2513",
						"updateDevWallet(address)": "30663",
						"upgradeLevel(uint256)": "infinite",
						"usdtTokenAddress()": "2531",
						"users(address)": "infinite",
						"withdrawRewards(uint256)": "infinite"
					},
					"internal": {
						"_removeUserFromLevel(address,uint256)": "infinite",
						"calculateLevelShare(uint256)": "153",
						"determineLevel(uint256)": "313",
						"getReferralsRequiredForLevel(uint256)": "infinite",
						"payReferralReward(address)": "infinite"
					}
				},
				"methodIdentifiers": {
					"calculateLevelCost(uint256)": "1517f663",
					"changeOwner(address)": "a6f9dae1",
					"devWallet()": "8ea5220f",
					"distributeRewards()": "6f4a2cd0",
					"getReferrals(address)": "41a0894d",
					"getUsersInLevel(uint256)": "b894cb24",
					"joinNetwork(address)": "ad884f69",
					"lastRewardDistribution()": "b0cd9cff",
					"levels(uint256,uint256)": "aefb3434",
					"owner()": "8da5cb5b",
					"ownerShare()": "8f1c3151",
					"registrationFee()": "14c44e09",
					"sendEther(address,uint256)": "c1756a2c",
					"totalIncomePool()": "e2a609b9",
					"updateDevWallet(address)": "1816467f",
					"upgradeLevel(uint256)": "e39f82eb",
					"usdtTokenAddress()": "9d741e5d",
					"users(address)": "a87430ba",
					"withdrawRewards(uint256)": "9342c8f4"
				}
			},
			"storageLayout": {
				"storage": [
					{
						"astId": 82,
						"contract": "contracts/RscUsdtEarn.sol:RscUsdtEarn",
						"label": "owner",
						"offset": 0,
						"slot": "0",
						"type": "t_address"
					},
					{
						"astId": 84,
						"contract": "contracts/RscUsdtEarn.sol:RscUsdtEarn",
						"label": "devWallet",
						"offset": 0,
						"slot": "1",
						"type": "t_address"
					},
					{
						"astId": 86,
						"contract": "contracts/RscUsdtEarn.sol:RscUsdtEarn",
						"label": "usdtTokenAddress",
						"offset": 0,
						"slot": "2",
						"type": "t_address"
					},
					{
						"astId": 93,
						"contract": "contracts/RscUsdtEarn.sol:RscUsdtEarn",
						"label": "registrationFee",
						"offset": 0,
						"slot": "3",
						"type": "t_uint256"
					},
					{
						"astId": 96,
						"contract": "contracts/RscUsdtEarn.sol:RscUsdtEarn",
						"label": "ownerShare",
						"offset": 0,
						"slot": "4",
						"type": "t_uint256"
					},
					{
						"astId": 98,
						"contract": "contracts/RscUsdtEarn.sol:RscUsdtEarn",
						"label": "lastRewardDistribution",
						"offset": 0,
						"slot": "5",
						"type": "t_uint256"
					},
					{
						"astId": 117,
						"contract": "contracts/RscUsdtEarn.sol:RscUsdtEarn",
						"label": "users",
						"offset": 0,
						"slot": "6",
						"type": "t_mapping(t_address,t_struct(User)112_storage)"
					},
					{
						"astId": 122,
						"contract": "contracts/RscUsdtEarn.sol:RscUsdtEarn",
						"label": "levels",
						"offset": 0,
						"slot": "7",
						"type": "t_mapping(t_uint256,t_array(t_address)dyn_storage)"
					},
					{
						"astId": 124,
						"contract": "contracts/RscUsdtEarn.sol:RscUsdtEarn",
						"label": "totalIncomePool",
						"offset": 0,
						"slot": "8",
						"type": "t_uint256"
					}
				],
				"types": {
					"t_address": {
						"encoding": "inplace",
						"label": "address",
						"numberOfBytes": "20"
					},
					"t_array(t_address)dyn_storage": {
						"base": "t_address",
						"encoding": "dynamic_array",
						"label": "address[]",
						"numberOfBytes": "32"
					},
					"t_bool": {
						"encoding": "inplace",
						"label": "bool",
						"numberOfBytes": "1"
					},
					"t_mapping(t_address,t_struct(User)112_storage)": {
						"encoding": "mapping",
						"key": "t_address",
						"label": "mapping(address => struct RscUsdtEarn.User)",
						"numberOfBytes": "32",
						"value": "t_struct(User)112_storage"
					},
					"t_mapping(t_uint256,t_array(t_address)dyn_storage)": {
						"encoding": "mapping",
						"key": "t_uint256",
						"label": "mapping(uint256 => address[])",
						"numberOfBytes": "32",
						"value": "t_array(t_address)dyn_storage"
					},
					"t_struct(User)112_storage": {
						"encoding": "inplace",
						"label": "struct RscUsdtEarn.User",
						"members": [
							{
								"astId": 100,
								"contract": "contracts/RscUsdtEarn.sol:RscUsdtEarn",
								"label": "referrer",
								"offset": 0,
								"slot": "0",
								"type": "t_address"
							},
							{
								"astId": 102,
								"contract": "contracts/RscUsdtEarn.sol:RscUsdtEarn",
								"label": "referrals",
								"offset": 0,
								"slot": "1",
								"type": "t_uint256"
							},
							{
								"astId": 104,
								"contract": "contracts/RscUsdtEarn.sol:RscUsdtEarn",
								"label": "level",
								"offset": 0,
								"slot": "2",
								"type": "t_uint256"
							},
							{
								"astId": 106,
								"contract": "contracts/RscUsdtEarn.sol:RscUsdtEarn",
								"label": "earned",
								"offset": 0,
								"slot": "3",
								"type": "t_uint256"
							},
							{
								"astId": 108,
								"contract": "contracts/RscUsdtEarn.sol:RscUsdtEarn",
								"label": "activatedEarnings",
								"offset": 0,
								"slot": "4",
								"type": "t_bool"
							},
							{
								"astId": 111,
								"contract": "contracts/RscUsdtEarn.sol:RscUsdtEarn",
								"label": "referralsList",
								"offset": 0,
								"slot": "5",
								"type": "t_array(t_address)dyn_storage"
							}
						],
						"numberOfBytes": "192"
					},
					"t_uint256": {
						"encoding": "inplace",
						"label": "uint256",
						"numberOfBytes": "32"
					}
				}
			},
			"userdoc": {
				"kind": "user",
				"methods": {},
				"version": 1
			}
		}
	}
}