{
	"contracts/RscUsdtEarn.sol": {
		"RscUsdtEarn": {
			"abi": [
				{
					"inputs": [
						{
							"internalType": "address",
							"name": "_usdtTokenAddress",
							"type": "address"
						}
					],
					"stateMutability": "nonpayable",
					"type": "constructor"
				},
				{
					"anonymous": false,
					"inputs": [
						{
							"indexed": true,
							"internalType": "address",
							"name": "user",
							"type": "address"
						},
						{
							"indexed": false,
							"internalType": "uint256",
							"name": "newLevel",
							"type": "uint256"
						}
					],
					"name": "LevelUpgraded",
					"type": "event"
				},
				{
					"anonymous": false,
					"inputs": [
						{
							"indexed": true,
							"internalType": "address",
							"name": "referrer",
							"type": "address"
						},
						{
							"indexed": false,
							"internalType": "uint256",
							"name": "amount",
							"type": "uint256"
						}
					],
					"name": "ReferralPaid",
					"type": "event"
				},
				{
					"anonymous": false,
					"inputs": [
						{
							"indexed": true,
							"internalType": "address",
							"name": "user",
							"type": "address"
						},
						{
							"indexed": true,
							"internalType": "address",
							"name": "referrer",
							"type": "address"
						}
					],
					"name": "Registered",
					"type": "event"
				},
				{
					"anonymous": false,
					"inputs": [
						{
							"indexed": false,
							"internalType": "uint256",
							"name": "totalDistributed",
							"type": "uint256"
						}
					],
					"name": "RewardsDistributed",
					"type": "event"
				},
				{
					"anonymous": false,
					"inputs": [
						{
							"indexed": true,
							"internalType": "address",
							"name": "user",
							"type": "address"
						},
						{
							"indexed": false,
							"internalType": "uint256",
							"name": "amount",
							"type": "uint256"
						}
					],
					"name": "Withdrawal",
					"type": "event"
				},
				{
					"inputs": [
						{
							"internalType": "uint256",
							"name": "_level",
							"type": "uint256"
						}
					],
					"name": "calculateLevelCost",
					"outputs": [
						{
							"internalType": "uint256",
							"name": "",
							"type": "uint256"
						}
					],
					"stateMutability": "pure",
					"type": "function"
				},
				{
					"inputs": [],
					"name": "distributeRewards",
					"outputs": [],
					"stateMutability": "nonpayable",
					"type": "function"
				},
				{
					"inputs": [
						{
							"internalType": "uint256",
							"name": "_level",
							"type": "uint256"
						}
					],
					"name": "getUsersInLevel",
					"outputs": [
						{
							"internalType": "address[]",
							"name": "",
							"type": "address[]"
						}
					],
					"stateMutability": "view",
					"type": "function"
				},
				{
					"inputs": [
						{
							"internalType": "address",
							"name": "_referrer",
							"type": "address"
						}
					],
					"name": "joinNetwork",
					"outputs": [],
					"stateMutability": "nonpayable",
					"type": "function"
				},
				{
					"inputs": [],
					"name": "lastRewardDistribution",
					"outputs": [
						{
							"internalType": "uint256",
							"name": "",
							"type": "uint256"
						}
					],
					"stateMutability": "view",
					"type": "function"
				},
				{
					"inputs": [
						{
							"internalType": "uint256",
							"name": "",
							"type": "uint256"
						},
						{
							"internalType": "uint256",
							"name": "",
							"type": "uint256"
						}
					],
					"name": "levels",
					"outputs": [
						{
							"internalType": "address",
							"name": "",
							"type": "address"
						}
					],
					"stateMutability": "view",
					"type": "function"
				},
				{
					"inputs": [],
					"name": "owner",
					"outputs": [
						{
							"internalType": "address",
							"name": "",
							"type": "address"
						}
					],
					"stateMutability": "view",
					"type": "function"
				},
				{
					"inputs": [],
					"name": "ownerShare",
					"outputs": [
						{
							"internalType": "uint256",
							"name": "",
							"type": "uint256"
						}
					],
					"stateMutability": "view",
					"type": "function"
				},
				{
					"inputs": [],
					"name": "registrationFee",
					"outputs": [
						{
							"internalType": "uint256",
							"name": "",
							"type": "uint256"
						}
					],
					"stateMutability": "view",
					"type": "function"
				},
				{
					"inputs": [],
					"name": "totalIncomePool",
					"outputs": [
						{
							"internalType": "uint256",
							"name": "",
							"type": "uint256"
						}
					],
					"stateMutability": "view",
					"type": "function"
				},
				{
					"inputs": [
						{
							"internalType": "uint256",
							"name": "_desiredLevel",
							"type": "uint256"
						}
					],
					"name": "upgradeLevel",
					"outputs": [],
					"stateMutability": "nonpayable",
					"type": "function"
				},
				{
					"inputs": [],
					"name": "usdtTokenAddress",
					"outputs": [
						{
							"internalType": "address",
							"name": "",
							"type": "address"
						}
					],
					"stateMutability": "view",
					"type": "function"
				},
				{
					"inputs": [
						{
							"internalType": "address",
							"name": "",
							"type": "address"
						}
					],
					"name": "users",
					"outputs": [
						{
							"internalType": "address",
							"name": "referrer",
							"type": "address"
						},
						{
							"internalType": "uint256",
							"name": "referrals",
							"type": "uint256"
						},
						{
							"internalType": "uint256",
							"name": "level",
							"type": "uint256"
						},
						{
							"internalType": "uint256",
							"name": "earned",
							"type": "uint256"
						},
						{
							"internalType": "bool",
							"name": "activatedEarnings",
							"type": "bool"
						}
					],
					"stateMutability": "view",
					"type": "function"
				},
				{
					"inputs": [
						{
							"internalType": "uint256",
							"name": "amount",
							"type": "uint256"
						}
					],
					"name": "withdrawRewards",
					"outputs": [],
					"stateMutability": "nonpayable",
					"type": "function"
				}
			],
			"devdoc": {
				"kind": "dev",
				"methods": {},
				"version": 1
			},
			"evm": {
				"assembly": "    /* \"contracts/RscUsdtEarn.sol\":121:7952  contract RscUsdtEarn {... */\n  mstore(0x40, 0x80)\n    /* \"contracts/RscUsdtEarn.sol\":276:288  3 * 10 ** 18 */\n  0x29a2241af62c0000\n    /* \"contracts/RscUsdtEarn.sol\":243:288  uint256 public registrationFee = 3 * 10 ** 18 */\n  0x02\n  sstore\n    /* \"contracts/RscUsdtEarn.sol\":351:352  4 */\n  0x04\n    /* \"contracts/RscUsdtEarn.sol\":323:352  uint256 public ownerShare = 4 */\n  0x03\n  sstore\n    /* \"contracts/RscUsdtEarn.sol\":1257:1431  constructor(address _usdtTokenAddress) {... */\n  callvalue\n  dup1\n  iszero\n  tag_1\n  jumpi\n  0x00\n  dup1\n  revert\ntag_1:\n  pop\n  mload(0x40)\n  sub(codesize, bytecodeSize)\n  dup1\n  bytecodeSize\n  dup4\n  codecopy\n  dup2\n  dup2\n  add\n  0x40\n  mstore\n  dup2\n  add\n  swap1\n  tag_2\n  swap2\n  swap1\n  tag_3\n  jump\t// in\ntag_2:\n    /* \"contracts/RscUsdtEarn.sol\":1315:1325  msg.sender */\n  caller\n    /* \"contracts/RscUsdtEarn.sol\":1307:1312  owner */\n  0x00\n  dup1\n    /* \"contracts/RscUsdtEarn.sol\":1307:1325  owner = msg.sender */\n  0x0100\n  exp\n  dup2\n  sload\n  dup2\n  0xffffffffffffffffffffffffffffffffffffffff\n  mul\n  not\n  and\n  swap1\n  dup4\n  0xffffffffffffffffffffffffffffffffffffffff\n  and\n  mul\n  or\n  swap1\n  sstore\n  pop\n    /* \"contracts/RscUsdtEarn.sol\":1355:1372  _usdtTokenAddress */\n  dup1\n    /* \"contracts/RscUsdtEarn.sol\":1336:1352  usdtTokenAddress */\n  0x01\n  0x00\n    /* \"contracts/RscUsdtEarn.sol\":1336:1372  usdtTokenAddress = _usdtTokenAddress */\n  0x0100\n  exp\n  dup2\n  sload\n  dup2\n  0xffffffffffffffffffffffffffffffffffffffff\n  mul\n  not\n  and\n  swap1\n  dup4\n  0xffffffffffffffffffffffffffffffffffffffff\n  and\n  mul\n  or\n  swap1\n  sstore\n  pop\n    /* \"contracts/RscUsdtEarn.sol\":1408:1423  block.timestamp */\n  timestamp\n    /* \"contracts/RscUsdtEarn.sol\":1383:1405  lastRewardDistribution */\n  0x04\n    /* \"contracts/RscUsdtEarn.sol\":1383:1423  lastRewardDistribution = block.timestamp */\n  dup2\n  swap1\n  sstore\n  pop\n    /* \"contracts/RscUsdtEarn.sol\":1257:1431  constructor(address _usdtTokenAddress) {... */\n  pop\n    /* \"contracts/RscUsdtEarn.sol\":121:7952  contract RscUsdtEarn {... */\n  jump(tag_6)\n    /* \"#utility.yul\":88:205   */\ntag_8:\n    /* \"#utility.yul\":197:198   */\n  0x00\n    /* \"#utility.yul\":194:195   */\n  dup1\n    /* \"#utility.yul\":187:199   */\n  revert\n    /* \"#utility.yul\":334:460   */\ntag_10:\n    /* \"#utility.yul\":371:378   */\n  0x00\n    /* \"#utility.yul\":411:453   */\n  0xffffffffffffffffffffffffffffffffffffffff\n    /* \"#utility.yul\":404:409   */\n  dup3\n    /* \"#utility.yul\":400:454   */\n  and\n    /* \"#utility.yul\":389:454   */\n  swap1\n  pop\n    /* \"#utility.yul\":334:460   */\n  swap2\n  swap1\n  pop\n  jump\t// out\n    /* \"#utility.yul\":466:562   */\ntag_11:\n    /* \"#utility.yul\":503:510   */\n  0x00\n    /* \"#utility.yul\":532:556   */\n  tag_20\n    /* \"#utility.yul\":550:555   */\n  dup3\n    /* \"#utility.yul\":532:556   */\n  tag_10\n  jump\t// in\ntag_20:\n    /* \"#utility.yul\":521:556   */\n  swap1\n  pop\n    /* \"#utility.yul\":466:562   */\n  swap2\n  swap1\n  pop\n  jump\t// out\n    /* \"#utility.yul\":568:690   */\ntag_12:\n    /* \"#utility.yul\":641:665   */\n  tag_22\n    /* \"#utility.yul\":659:664   */\n  dup2\n    /* \"#utility.yul\":641:665   */\n  tag_11\n  jump\t// in\ntag_22:\n    /* \"#utility.yul\":634:639   */\n  dup2\n    /* \"#utility.yul\":631:666   */\n  eq\n    /* \"#utility.yul\":621:684   */\n  tag_23\n  jumpi\n    /* \"#utility.yul\":680:681   */\n  0x00\n    /* \"#utility.yul\":677:678   */\n  dup1\n    /* \"#utility.yul\":670:682   */\n  revert\n    /* \"#utility.yul\":621:684   */\ntag_23:\n    /* \"#utility.yul\":568:690   */\n  pop\n  jump\t// out\n    /* \"#utility.yul\":696:839   */\ntag_13:\n    /* \"#utility.yul\":753:758   */\n  0x00\n    /* \"#utility.yul\":784:790   */\n  dup2\n    /* \"#utility.yul\":778:791   */\n  mload\n    /* \"#utility.yul\":769:791   */\n  swap1\n  pop\n    /* \"#utility.yul\":800:833   */\n  tag_25\n    /* \"#utility.yul\":827:832   */\n  dup2\n    /* \"#utility.yul\":800:833   */\n  tag_12\n  jump\t// in\ntag_25:\n    /* \"#utility.yul\":696:839   */\n  swap3\n  swap2\n  pop\n  pop\n  jump\t// out\n    /* \"#utility.yul\":845:1196   */\ntag_3:\n    /* \"#utility.yul\":915:921   */\n  0x00\n    /* \"#utility.yul\":964:966   */\n  0x20\n    /* \"#utility.yul\":952:961   */\n  dup3\n    /* \"#utility.yul\":943:950   */\n  dup5\n    /* \"#utility.yul\":939:962   */\n  sub\n    /* \"#utility.yul\":935:967   */\n  slt\n    /* \"#utility.yul\":932:1051   */\n  iszero\n  tag_27\n  jumpi\n    /* \"#utility.yul\":970:1049   */\n  tag_28\n  tag_8\n  jump\t// in\ntag_28:\n    /* \"#utility.yul\":932:1051   */\ntag_27:\n    /* \"#utility.yul\":1090:1091   */\n  0x00\n    /* \"#utility.yul\":1115:1179   */\n  tag_29\n    /* \"#utility.yul\":1171:1178   */\n  dup5\n    /* \"#utility.yul\":1162:1168   */\n  dup3\n    /* \"#utility.yul\":1151:1160   */\n  dup6\n    /* \"#utility.yul\":1147:1169   */\n  add\n    /* \"#utility.yul\":1115:1179   */\n  tag_13\n  jump\t// in\ntag_29:\n    /* \"#utility.yul\":1105:1179   */\n  swap2\n  pop\n    /* \"#utility.yul\":1061:1189   */\n  pop\n    /* \"#utility.yul\":845:1196   */\n  swap3\n  swap2\n  pop\n  pop\n  jump\t// out\n    /* \"contracts/RscUsdtEarn.sol\":121:7952  contract RscUsdtEarn {... */\ntag_6:\n  dataSize(sub_0)\n  dup1\n  dataOffset(sub_0)\n  0x00\n  codecopy\n  0x00\n  return\nstop\n\nsub_0: assembly {\n        /* \"contracts/RscUsdtEarn.sol\":121:7952  contract RscUsdtEarn {... */\n      mstore(0x40, 0x80)\n      callvalue\n      dup1\n      iszero\n      tag_1\n      jumpi\n      0x00\n      dup1\n      revert\n    tag_1:\n      pop\n      jumpi(tag_2, lt(calldatasize, 0x04))\n      shr(0xe0, calldataload(0x00))\n      dup1\n      0xa87430ba\n      gt\n      tag_17\n      jumpi\n      dup1\n      0xb0cd9cff\n      gt\n      tag_18\n      jumpi\n      dup1\n      0xb0cd9cff\n      eq\n      tag_13\n      jumpi\n      dup1\n      0xb894cb24\n      eq\n      tag_14\n      jumpi\n      dup1\n      0xe2a609b9\n      eq\n      tag_15\n      jumpi\n      dup1\n      0xe39f82eb\n      eq\n      tag_16\n      jumpi\n      jump(tag_2)\n    tag_18:\n      dup1\n      0xa87430ba\n      eq\n      tag_10\n      jumpi\n      dup1\n      0xad884f69\n      eq\n      tag_11\n      jumpi\n      dup1\n      0xaefb3434\n      eq\n      tag_12\n      jumpi\n      jump(tag_2)\n    tag_17:\n      dup1\n      0x8da5cb5b\n      gt\n      tag_19\n      jumpi\n      dup1\n      0x8da5cb5b\n      eq\n      tag_6\n      jumpi\n      dup1\n      0x8f1c3151\n      eq\n      tag_7\n      jumpi\n      dup1\n      0x9342c8f4\n      eq\n      tag_8\n      jumpi\n      dup1\n      0x9d741e5d\n      eq\n      tag_9\n      jumpi\n      jump(tag_2)\n    tag_19:\n      dup1\n      0x14c44e09\n      eq\n      tag_3\n      jumpi\n      dup1\n      0x1517f663\n      eq\n      tag_4\n      jumpi\n      dup1\n      0x6f4a2cd0\n      eq\n      tag_5\n      jumpi\n    tag_2:\n      0x00\n      dup1\n      revert\n        /* \"contracts/RscUsdtEarn.sol\":243:288  uint256 public registrationFee = 3 * 10 ** 18 */\n    tag_3:\n      tag_20\n      tag_21\n      jump\t// in\n    tag_20:\n      mload(0x40)\n      tag_22\n      swap2\n      swap1\n      tag_23\n      jump\t// in\n    tag_22:\n      mload(0x40)\n      dup1\n      swap2\n      sub\n      swap1\n      return\n        /* \"contracts/RscUsdtEarn.sol\":3937:4271  function calculateLevelCost(uint256 _level) public pure returns (uint256) {... */\n    tag_4:\n      tag_24\n      0x04\n      dup1\n      calldatasize\n      sub\n      dup2\n      add\n      swap1\n      tag_25\n      swap2\n      swap1\n      tag_26\n      jump\t// in\n    tag_25:\n      tag_27\n      jump\t// in\n    tag_24:\n      mload(0x40)\n      tag_28\n      swap2\n      swap1\n      tag_23\n      jump\t// in\n    tag_28:\n      mload(0x40)\n      dup1\n      swap2\n      sub\n      swap1\n      return\n        /* \"contracts/RscUsdtEarn.sol\":4562:5870  function distributeRewards() external onlyOwner {... */\n    tag_5:\n      tag_29\n      tag_30\n      jump\t// in\n    tag_29:\n      stop\n        /* \"contracts/RscUsdtEarn.sol\":149:169  address public owner */\n    tag_6:\n      tag_31\n      tag_32\n      jump\t// in\n    tag_31:\n      mload(0x40)\n      tag_33\n      swap2\n      swap1\n      tag_34\n      jump\t// in\n    tag_33:\n      mload(0x40)\n      dup1\n      swap2\n      sub\n      swap1\n      return\n        /* \"contracts/RscUsdtEarn.sol\":323:352  uint256 public ownerShare = 4 */\n    tag_7:\n      tag_35\n      tag_36\n      jump\t// in\n    tag_35:\n      mload(0x40)\n      tag_37\n      swap2\n      swap1\n      tag_23\n      jump\t// in\n    tag_37:\n      mload(0x40)\n      dup1\n      swap2\n      sub\n      swap1\n      return\n        /* \"contracts/RscUsdtEarn.sol\":5878:6412  function withdrawRewards(uint256 amount) external {... */\n    tag_8:\n      tag_38\n      0x04\n      dup1\n      calldatasize\n      sub\n      dup2\n      add\n      swap1\n      tag_39\n      swap2\n      swap1\n      tag_26\n      jump\t// in\n    tag_39:\n      tag_40\n      jump\t// in\n    tag_38:\n      stop\n        /* \"contracts/RscUsdtEarn.sol\":176:207  address public usdtTokenAddress */\n    tag_9:\n      tag_41\n      tag_42\n      jump\t// in\n    tag_41:\n      mload(0x40)\n      tag_43\n      swap2\n      swap1\n      tag_34\n      jump\t// in\n    tag_43:\n      mload(0x40)\n      dup1\n      swap2\n      sub\n      swap1\n      return\n        /* \"contracts/RscUsdtEarn.sol\":663:700  mapping(address => User) public users */\n    tag_10:\n      tag_44\n      0x04\n      dup1\n      calldatasize\n      sub\n      dup2\n      add\n      swap1\n      tag_45\n      swap2\n      swap1\n      tag_46\n      jump\t// in\n    tag_45:\n      tag_47\n      jump\t// in\n    tag_44:\n      mload(0x40)\n      tag_48\n      swap6\n      swap5\n      swap4\n      swap3\n      swap2\n      swap1\n      tag_49\n      jump\t// in\n    tag_48:\n      mload(0x40)\n      dup1\n      swap2\n      sub\n      swap1\n      return\n        /* \"contracts/RscUsdtEarn.sol\":1439:2986  function joinNetwork(address _referrer) external {... */\n    tag_11:\n      tag_50\n      0x04\n      dup1\n      calldatasize\n      sub\n      dup2\n      add\n      swap1\n      tag_51\n      swap2\n      swap1\n      tag_46\n      jump\t// in\n    tag_51:\n      tag_52\n      jump\t// in\n    tag_50:\n      stop\n        /* \"contracts/RscUsdtEarn.sol\":707:750  mapping(uint256 => address[]) public levels */\n    tag_12:\n      tag_53\n      0x04\n      dup1\n      calldatasize\n      sub\n      dup2\n      add\n      swap1\n      tag_54\n      swap2\n      swap1\n      tag_55\n      jump\t// in\n    tag_54:\n      tag_56\n      jump\t// in\n    tag_53:\n      mload(0x40)\n      tag_57\n      swap2\n      swap1\n      tag_34\n      jump\t// in\n    tag_57:\n      mload(0x40)\n      dup1\n      swap2\n      sub\n      swap1\n      return\n        /* \"contracts/RscUsdtEarn.sol\":386:423  uint256 public lastRewardDistribution */\n    tag_13:\n      tag_58\n      tag_59\n      jump\t// in\n    tag_58:\n      mload(0x40)\n      tag_60\n      swap2\n      swap1\n      tag_23\n      jump\t// in\n    tag_60:\n      mload(0x40)\n      dup1\n      swap2\n      sub\n      swap1\n      return\n        /* \"contracts/RscUsdtEarn.sol\":7764:7949  function getUsersInLevel(uint256 _level) external view returns (address[] memory) {... */\n    tag_14:\n      tag_61\n      0x04\n      dup1\n      calldatasize\n      sub\n      dup2\n      add\n      swap1\n      tag_62\n      swap2\n      swap1\n      tag_26\n      jump\t// in\n    tag_62:\n      tag_63\n      jump\t// in\n    tag_61:\n      mload(0x40)\n      tag_64\n      swap2\n      swap1\n      tag_65\n      jump\t// in\n    tag_64:\n      mload(0x40)\n      dup1\n      swap2\n      sub\n      swap1\n      return\n        /* \"contracts/RscUsdtEarn.sol\":788:818  uint256 public totalIncomePool */\n    tag_15:\n      tag_66\n      tag_67\n      jump\t// in\n    tag_66:\n      mload(0x40)\n      tag_68\n      swap2\n      swap1\n      tag_23\n      jump\t// in\n    tag_68:\n      mload(0x40)\n      dup1\n      swap2\n      sub\n      swap1\n      return\n        /* \"contracts/RscUsdtEarn.sol\":2994:3929  function upgradeLevel(uint256 _desiredLevel) external {... */\n    tag_16:\n      tag_69\n      0x04\n      dup1\n      calldatasize\n      sub\n      dup2\n      add\n      swap1\n      tag_70\n      swap2\n      swap1\n      tag_26\n      jump\t// in\n    tag_70:\n      tag_71\n      jump\t// in\n    tag_69:\n      stop\n        /* \"contracts/RscUsdtEarn.sol\":243:288  uint256 public registrationFee = 3 * 10 ** 18 */\n    tag_21:\n      sload(0x02)\n      dup2\n      jump\t// out\n        /* \"contracts/RscUsdtEarn.sol\":3937:4271  function calculateLevelCost(uint256 _level) public pure returns (uint256) {... */\n    tag_27:\n        /* \"contracts/RscUsdtEarn.sol\":4002:4009  uint256 */\n      0x00\n        /* \"contracts/RscUsdtEarn.sol\":4036:4037  2 */\n      0x02\n        /* \"contracts/RscUsdtEarn.sol\":4026:4032  _level */\n      dup3\n        /* \"contracts/RscUsdtEarn.sol\":4026:4037  _level == 2 */\n      sub\n        /* \"contracts/RscUsdtEarn.sol\":4022:4059  if (_level == 2) return 30 * 10 ** 18 */\n      tag_73\n      jumpi\n        /* \"contracts/RscUsdtEarn.sol\":4046:4059  30 * 10 ** 18 */\n      0x01a055690d9db80000\n        /* \"contracts/RscUsdtEarn.sol\":4039:4059  return 30 * 10 ** 18 */\n      swap1\n      pop\n      jump(tag_72)\n        /* \"contracts/RscUsdtEarn.sol\":4022:4059  if (_level == 2) return 30 * 10 ** 18 */\n    tag_73:\n        /* \"contracts/RscUsdtEarn.sol\":4091:4092  3 */\n      0x03\n        /* \"contracts/RscUsdtEarn.sol\":4081:4087  _level */\n      dup3\n        /* \"contracts/RscUsdtEarn.sol\":4081:4092  _level == 3 */\n      sub\n        /* \"contracts/RscUsdtEarn.sol\":4077:4115  if (_level == 3) return 300 * 10 ** 18 */\n      tag_74\n      jumpi\n        /* \"contracts/RscUsdtEarn.sol\":4101:4115  300 * 10 ** 18 */\n      0x1043561a8829300000\n        /* \"contracts/RscUsdtEarn.sol\":4094:4115  return 300 * 10 ** 18 */\n      swap1\n      pop\n      jump(tag_72)\n        /* \"contracts/RscUsdtEarn.sol\":4077:4115  if (_level == 3) return 300 * 10 ** 18 */\n    tag_74:\n        /* \"contracts/RscUsdtEarn.sol\":4148:4149  4 */\n      0x04\n        /* \"contracts/RscUsdtEarn.sol\":4138:4144  _level */\n      dup3\n        /* \"contracts/RscUsdtEarn.sol\":4138:4149  _level == 4 */\n      sub\n        /* \"contracts/RscUsdtEarn.sol\":4134:4173  if (_level == 4) return 3000 * 10 ** 18 */\n      tag_75\n      jumpi\n        /* \"contracts/RscUsdtEarn.sol\":4158:4173  3000 * 10 ** 18 */\n      0xa2a15d09519be00000\n        /* \"contracts/RscUsdtEarn.sol\":4151:4173  return 3000 * 10 ** 18 */\n      swap1\n      pop\n      jump(tag_72)\n        /* \"contracts/RscUsdtEarn.sol\":4134:4173  if (_level == 4) return 3000 * 10 ** 18 */\n    tag_75:\n        /* \"contracts/RscUsdtEarn.sol\":4207:4208  5 */\n      0x05\n        /* \"contracts/RscUsdtEarn.sol\":4197:4203  _level */\n      dup3\n        /* \"contracts/RscUsdtEarn.sol\":4197:4208  _level == 5 */\n      sub\n        /* \"contracts/RscUsdtEarn.sol\":4193:4233  if (_level == 5) return 30000 * 10 ** 18 */\n      tag_76\n      jumpi\n        /* \"contracts/RscUsdtEarn.sol\":4217:4233  30000 * 10 ** 18 */\n      0x065a4da25d3016c00000\n        /* \"contracts/RscUsdtEarn.sol\":4210:4233  return 30000 * 10 ** 18 */\n      swap1\n      pop\n      jump(tag_72)\n        /* \"contracts/RscUsdtEarn.sol\":4193:4233  if (_level == 5) return 30000 * 10 ** 18 */\n    tag_76:\n        /* \"contracts/RscUsdtEarn.sol\":4262:4263  0 */\n      0x00\n        /* \"contracts/RscUsdtEarn.sol\":4255:4263  return 0 */\n      swap1\n      pop\n        /* \"contracts/RscUsdtEarn.sol\":3937:4271  function calculateLevelCost(uint256 _level) public pure returns (uint256) {... */\n    tag_72:\n      swap2\n      swap1\n      pop\n      jump\t// out\n        /* \"contracts/RscUsdtEarn.sol\":4562:5870  function distributeRewards() external onlyOwner {... */\n    tag_30:\n        /* \"contracts/RscUsdtEarn.sol\":1205:1210  owner */\n      0x00\n      dup1\n      sload\n      swap1\n      0x0100\n      exp\n      swap1\n      div\n      0xffffffffffffffffffffffffffffffffffffffff\n      and\n        /* \"contracts/RscUsdtEarn.sol\":1191:1210  msg.sender == owner */\n      0xffffffffffffffffffffffffffffffffffffffff\n      and\n        /* \"contracts/RscUsdtEarn.sol\":1191:1201  msg.sender */\n      caller\n        /* \"contracts/RscUsdtEarn.sol\":1191:1210  msg.sender == owner */\n      0xffffffffffffffffffffffffffffffffffffffff\n      and\n      eq\n        /* \"contracts/RscUsdtEarn.sol\":1183:1229  require(msg.sender == owner, \"Not authorized\") */\n      tag_78\n      jumpi\n      mload(0x40)\n      0x08c379a000000000000000000000000000000000000000000000000000000000\n      dup2\n      mstore\n      0x04\n      add\n      tag_79\n      swap1\n      tag_80\n      jump\t// in\n    tag_79:\n      mload(0x40)\n      dup1\n      swap2\n      sub\n      swap1\n      revert\n    tag_78:\n        /* \"contracts/RscUsdtEarn.sol\":4744:4769  uint256 totalToDistribute */\n      0x00\n        /* \"contracts/RscUsdtEarn.sol\":4772:4787  totalIncomePool */\n      sload(0x07)\n        /* \"contracts/RscUsdtEarn.sol\":4744:4787  uint256 totalToDistribute = totalIncomePool */\n      swap1\n      pop\n        /* \"contracts/RscUsdtEarn.sol\":4808:4824  uint256 ownerCut */\n      0x00\n        /* \"contracts/RscUsdtEarn.sol\":4862:4865  100 */\n      0x64\n        /* \"contracts/RscUsdtEarn.sol\":4848:4858  ownerShare */\n      sload(0x03)\n        /* \"contracts/RscUsdtEarn.sol\":4828:4845  totalToDistribute */\n      dup4\n        /* \"contracts/RscUsdtEarn.sol\":4828:4858  totalToDistribute * ownerShare */\n      tag_82\n      swap2\n      swap1\n      tag_83\n      jump\t// in\n    tag_82:\n        /* \"contracts/RscUsdtEarn.sol\":4827:4865  (totalToDistribute * ownerShare) / 100 */\n      tag_84\n      swap2\n      swap1\n      tag_85\n      jump\t// in\n    tag_84:\n        /* \"contracts/RscUsdtEarn.sol\":4808:4865  uint256 ownerCut = (totalToDistribute * ownerShare) / 100 */\n      swap1\n      pop\n        /* \"contracts/RscUsdtEarn.sol\":4895:4903  ownerCut */\n      dup1\n        /* \"contracts/RscUsdtEarn.sol\":4876:4891  totalIncomePool */\n      0x07\n      0x00\n        /* \"contracts/RscUsdtEarn.sol\":4876:4903  totalIncomePool -= ownerCut */\n      dup3\n      dup3\n      sload\n      tag_86\n      swap2\n      swap1\n      tag_87\n      jump\t// in\n    tag_86:\n      swap3\n      pop\n      pop\n      dup2\n      swap1\n      sstore\n      pop\n        /* \"contracts/RscUsdtEarn.sol\":4929:4945  usdtTokenAddress */\n      0x01\n      0x00\n      swap1\n      sload\n      swap1\n      0x0100\n      exp\n      swap1\n      div\n      0xffffffffffffffffffffffffffffffffffffffff\n      and\n        /* \"contracts/RscUsdtEarn.sol\":4922:4955  IERC20(usdtTokenAddress).transfer */\n      0xffffffffffffffffffffffffffffffffffffffff\n      and\n      0xa9059cbb\n        /* \"contracts/RscUsdtEarn.sol\":4956:4961  owner */\n      0x00\n      dup1\n      sload\n      swap1\n      0x0100\n      exp\n      swap1\n      div\n      0xffffffffffffffffffffffffffffffffffffffff\n      and\n        /* \"contracts/RscUsdtEarn.sol\":4963:4971  ownerCut */\n      dup4\n        /* \"contracts/RscUsdtEarn.sol\":4922:4972  IERC20(usdtTokenAddress).transfer(owner, ownerCut) */\n      mload(0x40)\n      dup4\n      0xffffffff\n      and\n      0xe0\n      shl\n      dup2\n      mstore\n      0x04\n      add\n      tag_88\n      swap3\n      swap2\n      swap1\n      tag_89\n      jump\t// in\n    tag_88:\n      0x20\n      mload(0x40)\n      dup1\n      dup4\n      sub\n      dup2\n      0x00\n      dup8\n      gas\n      call\n      iszero\n      dup1\n      iszero\n      tag_91\n      jumpi\n      returndatasize\n      0x00\n      dup1\n      returndatacopy\n      revert(0x00, returndatasize)\n    tag_91:\n      pop\n      pop\n      pop\n      pop\n      mload(0x40)\n      returndatasize\n      not(0x1f)\n      0x1f\n      dup3\n      add\n      and\n      dup3\n      add\n      dup1\n      0x40\n      mstore\n      pop\n      dup2\n      add\n      swap1\n      tag_92\n      swap2\n      swap1\n      tag_93\n      jump\t// in\n    tag_92:\n        /* \"contracts/RscUsdtEarn.sol\":4914:4997  require(IERC20(usdtTokenAddress).transfer(owner, ownerCut), \"Owner payment failed\") */\n      tag_94\n      jumpi\n      mload(0x40)\n      0x08c379a000000000000000000000000000000000000000000000000000000000\n      dup2\n      mstore\n      0x04\n      add\n      tag_95\n      swap1\n      tag_96\n      jump\t// in\n    tag_95:\n      mload(0x40)\n      dup1\n      swap2\n      sub\n      swap1\n      revert\n    tag_94:\n        /* \"contracts/RscUsdtEarn.sol\":5017:5038  uint256 remainingPool */\n      0x00\n        /* \"contracts/RscUsdtEarn.sol\":5061:5069  ownerCut */\n      dup2\n        /* \"contracts/RscUsdtEarn.sol\":5041:5058  totalToDistribute */\n      dup4\n        /* \"contracts/RscUsdtEarn.sol\":5041:5069  totalToDistribute - ownerCut */\n      tag_97\n      swap2\n      swap1\n      tag_87\n      jump\t// in\n    tag_97:\n        /* \"contracts/RscUsdtEarn.sol\":5017:5069  uint256 remainingPool = totalToDistribute - ownerCut */\n      swap1\n      pop\n        /* \"contracts/RscUsdtEarn.sol\":5132:5145  uint256 level */\n      0x00\n        /* \"contracts/RscUsdtEarn.sol\":5148:5149  1 */\n      0x01\n        /* \"contracts/RscUsdtEarn.sol\":5132:5149  uint256 level = 1 */\n      swap1\n      pop\n        /* \"contracts/RscUsdtEarn.sol\":5127:5746  for (uint256 level = 1; level <= 5; level++) {... */\n    tag_98:\n        /* \"contracts/RscUsdtEarn.sol\":5160:5161  5 */\n      0x05\n        /* \"contracts/RscUsdtEarn.sol\":5151:5156  level */\n      dup2\n        /* \"contracts/RscUsdtEarn.sol\":5151:5161  level <= 5 */\n      gt\n        /* \"contracts/RscUsdtEarn.sol\":5127:5746  for (uint256 level = 1; level <= 5; level++) {... */\n      tag_99\n      jumpi\n        /* \"contracts/RscUsdtEarn.sol\":5187:5200  uint256 share */\n      0x00\n        /* \"contracts/RscUsdtEarn.sol\":5203:5229  calculateLevelShare(level) */\n      tag_101\n        /* \"contracts/RscUsdtEarn.sol\":5223:5228  level */\n      dup3\n        /* \"contracts/RscUsdtEarn.sol\":5203:5222  calculateLevelShare */\n      tag_102\n        /* \"contracts/RscUsdtEarn.sol\":5203:5229  calculateLevelShare(level) */\n      jump\t// in\n    tag_101:\n        /* \"contracts/RscUsdtEarn.sol\":5187:5229  uint256 share = calculateLevelShare(level) */\n      swap1\n      pop\n        /* \"contracts/RscUsdtEarn.sol\":5244:5263  uint256 levelReward */\n      0x00\n        /* \"contracts/RscUsdtEarn.sol\":5292:5295  100 */\n      0x64\n        /* \"contracts/RscUsdtEarn.sol\":5283:5288  share */\n      dup3\n        /* \"contracts/RscUsdtEarn.sol\":5267:5280  remainingPool */\n      dup6\n        /* \"contracts/RscUsdtEarn.sol\":5267:5288  remainingPool * share */\n      tag_103\n      swap2\n      swap1\n      tag_83\n      jump\t// in\n    tag_103:\n        /* \"contracts/RscUsdtEarn.sol\":5266:5295  (remainingPool * share) / 100 */\n      tag_104\n      swap2\n      swap1\n      tag_85\n      jump\t// in\n    tag_104:\n        /* \"contracts/RscUsdtEarn.sol\":5244:5295  uint256 levelReward = (remainingPool * share) / 100 */\n      swap1\n      pop\n        /* \"contracts/RscUsdtEarn.sol\":5312:5339  address[] memory levelUsers */\n      0x00\n        /* \"contracts/RscUsdtEarn.sol\":5342:5348  levels */\n      0x06\n        /* \"contracts/RscUsdtEarn.sol\":5342:5355  levels[level] */\n      0x00\n        /* \"contracts/RscUsdtEarn.sol\":5349:5354  level */\n      dup6\n        /* \"contracts/RscUsdtEarn.sol\":5342:5355  levels[level] */\n      dup2\n      mstore\n      0x20\n      add\n      swap1\n      dup2\n      mstore\n      0x20\n      add\n      0x00\n      keccak256\n        /* \"contracts/RscUsdtEarn.sol\":5312:5355  address[] memory levelUsers = levels[level] */\n      dup1\n      sload\n      dup1\n      0x20\n      mul\n      0x20\n      add\n      mload(0x40)\n      swap1\n      dup2\n      add\n      0x40\n      mstore\n      dup1\n      swap3\n      swap2\n      swap1\n      dup2\n      dup2\n      mstore\n      0x20\n      add\n      dup3\n      dup1\n      sload\n      dup1\n      iszero\n      tag_105\n      jumpi\n      0x20\n      mul\n      dup3\n      add\n      swap2\n      swap1\n      0x00\n      mstore\n      keccak256(0x00, 0x20)\n      swap1\n    tag_106:\n      dup2\n      0x00\n      swap1\n      sload\n      swap1\n      0x0100\n      exp\n      swap1\n      div\n      0xffffffffffffffffffffffffffffffffffffffff\n      and\n      0xffffffffffffffffffffffffffffffffffffffff\n      and\n      dup2\n      mstore\n      0x20\n      add\n      swap1\n      0x01\n      add\n      swap1\n      dup1\n      dup4\n      gt\n      tag_106\n      jumpi\n    tag_105:\n      pop\n      pop\n      pop\n      pop\n      pop\n      swap1\n      pop\n        /* \"contracts/RscUsdtEarn.sol\":5394:5395  0 */\n      0x00\n        /* \"contracts/RscUsdtEarn.sol\":5374:5384  levelUsers */\n      dup2\n        /* \"contracts/RscUsdtEarn.sol\":5374:5391  levelUsers.length */\n      mload\n        /* \"contracts/RscUsdtEarn.sol\":5374:5395  levelUsers.length > 0 */\n      gt\n        /* \"contracts/RscUsdtEarn.sol\":5370:5735  if (levelUsers.length > 0) {... */\n      iszero\n      tag_107\n      jumpi\n        /* \"contracts/RscUsdtEarn.sol\":5416:5437  uint256 rewardPerUser */\n      0x00\n        /* \"contracts/RscUsdtEarn.sol\":5454:5464  levelUsers */\n      dup2\n        /* \"contracts/RscUsdtEarn.sol\":5454:5471  levelUsers.length */\n      mload\n        /* \"contracts/RscUsdtEarn.sol\":5440:5451  levelReward */\n      dup4\n        /* \"contracts/RscUsdtEarn.sol\":5440:5471  levelReward / levelUsers.length */\n      tag_108\n      swap2\n      swap1\n      tag_85\n      jump\t// in\n    tag_108:\n        /* \"contracts/RscUsdtEarn.sol\":5416:5471  uint256 rewardPerUser = levelReward / levelUsers.length */\n      swap1\n      pop\n        /* \"contracts/RscUsdtEarn.sol\":5495:5504  uint256 i */\n      0x00\n        /* \"contracts/RscUsdtEarn.sol\":5490:5720  for (uint256 i = 0; i < levelUsers.length; i++) {... */\n    tag_109:\n        /* \"contracts/RscUsdtEarn.sol\":5514:5524  levelUsers */\n      dup3\n        /* \"contracts/RscUsdtEarn.sol\":5514:5531  levelUsers.length */\n      mload\n        /* \"contracts/RscUsdtEarn.sol\":5510:5511  i */\n      dup2\n        /* \"contracts/RscUsdtEarn.sol\":5510:5531  i < levelUsers.length */\n      lt\n        /* \"contracts/RscUsdtEarn.sol\":5490:5720  for (uint256 i = 0; i < levelUsers.length; i++) {... */\n      iszero\n      tag_110\n      jumpi\n        /* \"contracts/RscUsdtEarn.sol\":5592:5605  rewardPerUser */\n      dup2\n        /* \"contracts/RscUsdtEarn.sol\":5561:5566  users */\n      0x05\n        /* \"contracts/RscUsdtEarn.sol\":5561:5581  users[levelUsers[i]] */\n      0x00\n        /* \"contracts/RscUsdtEarn.sol\":5567:5577  levelUsers */\n      dup6\n        /* \"contracts/RscUsdtEarn.sol\":5578:5579  i */\n      dup5\n        /* \"contracts/RscUsdtEarn.sol\":5567:5580  levelUsers[i] */\n      dup2\n      mload\n      dup2\n      lt\n      tag_112\n      jumpi\n      tag_113\n      tag_114\n      jump\t// in\n    tag_113:\n    tag_112:\n      0x20\n      mul\n      0x20\n      add\n      add\n      mload\n        /* \"contracts/RscUsdtEarn.sol\":5561:5581  users[levelUsers[i]] */\n      0xffffffffffffffffffffffffffffffffffffffff\n      and\n      0xffffffffffffffffffffffffffffffffffffffff\n      and\n      dup2\n      mstore\n      0x20\n      add\n      swap1\n      dup2\n      mstore\n      0x20\n      add\n      0x00\n      keccak256\n        /* \"contracts/RscUsdtEarn.sol\":5561:5588  users[levelUsers[i]].earned */\n      0x03\n      add\n      0x00\n        /* \"contracts/RscUsdtEarn.sol\":5561:5605  users[levelUsers[i]].earned += rewardPerUser */\n      dup3\n      dup3\n      sload\n      tag_115\n      swap2\n      swap1\n      tag_116\n      jump\t// in\n    tag_115:\n      swap3\n      pop\n      pop\n      dup2\n      swap1\n      sstore\n      pop\n        /* \"contracts/RscUsdtEarn.sol\":5687:5700  rewardPerUser */\n      dup2\n        /* \"contracts/RscUsdtEarn.sol\":5668:5683  totalIncomePool */\n      0x07\n      0x00\n        /* \"contracts/RscUsdtEarn.sol\":5668:5700  totalIncomePool -= rewardPerUser */\n      dup3\n      dup3\n      sload\n      tag_117\n      swap2\n      swap1\n      tag_87\n      jump\t// in\n    tag_117:\n      swap3\n      pop\n      pop\n      dup2\n      swap1\n      sstore\n      pop\n        /* \"contracts/RscUsdtEarn.sol\":5533:5536  i++ */\n      dup1\n      dup1\n      0x01\n      add\n      swap2\n      pop\n      pop\n        /* \"contracts/RscUsdtEarn.sol\":5490:5720  for (uint256 i = 0; i < levelUsers.length; i++) {... */\n      jump(tag_109)\n    tag_110:\n      pop\n        /* \"contracts/RscUsdtEarn.sol\":5397:5735  {... */\n      pop\n        /* \"contracts/RscUsdtEarn.sol\":5370:5735  if (levelUsers.length > 0) {... */\n    tag_107:\n        /* \"contracts/RscUsdtEarn.sol\":5172:5746  {... */\n      pop\n      pop\n      pop\n        /* \"contracts/RscUsdtEarn.sol\":5163:5170  level++ */\n      dup1\n      dup1\n      tag_118\n      swap1\n      tag_119\n      jump\t// in\n    tag_118:\n      swap2\n      pop\n      pop\n        /* \"contracts/RscUsdtEarn.sol\":5127:5746  for (uint256 level = 1; level <= 5; level++) {... */\n      jump(tag_98)\n    tag_99:\n      pop\n        /* \"contracts/RscUsdtEarn.sol\":5792:5807  block.timestamp */\n      timestamp\n        /* \"contracts/RscUsdtEarn.sol\":5767:5789  lastRewardDistribution */\n      0x04\n        /* \"contracts/RscUsdtEarn.sol\":5767:5807  lastRewardDistribution = block.timestamp */\n      dup2\n      swap1\n      sstore\n      pop\n        /* \"contracts/RscUsdtEarn.sol\":5825:5862  RewardsDistributed(totalToDistribute) */\n      0x6d1c76d614228b523baa4dcd9539e2c713b54ff4ab3ff2d1627e7f6cd32be442\n        /* \"contracts/RscUsdtEarn.sol\":5844:5861  totalToDistribute */\n      dup4\n        /* \"contracts/RscUsdtEarn.sol\":5825:5862  RewardsDistributed(totalToDistribute) */\n      mload(0x40)\n      tag_120\n      swap2\n      swap1\n      tag_23\n      jump\t// in\n    tag_120:\n      mload(0x40)\n      dup1\n      swap2\n      sub\n      swap1\n      log1\n        /* \"contracts/RscUsdtEarn.sol\":4610:5870  {... */\n      pop\n      pop\n      pop\n        /* \"contracts/RscUsdtEarn.sol\":4562:5870  function distributeRewards() external onlyOwner {... */\n      jump\t// out\n        /* \"contracts/RscUsdtEarn.sol\":149:169  address public owner */\n    tag_32:\n      0x00\n      dup1\n      sload\n      swap1\n      0x0100\n      exp\n      swap1\n      div\n      0xffffffffffffffffffffffffffffffffffffffff\n      and\n      dup2\n      jump\t// out\n        /* \"contracts/RscUsdtEarn.sol\":323:352  uint256 public ownerShare = 4 */\n    tag_36:\n      sload(0x03)\n      dup2\n      jump\t// out\n        /* \"contracts/RscUsdtEarn.sol\":5878:6412  function withdrawRewards(uint256 amount) external {... */\n    tag_40:\n        /* \"contracts/RscUsdtEarn.sol\":5956:5957  0 */\n      0x00\n        /* \"contracts/RscUsdtEarn.sol\":5947:5953  amount */\n      dup2\n        /* \"contracts/RscUsdtEarn.sol\":5947:5957  amount > 0 */\n      gt\n        /* \"contracts/RscUsdtEarn.sol\":5939:6003  require(amount > 0, \"Withdraw amount must be greater than zero\") */\n      tag_122\n      jumpi\n      mload(0x40)\n      0x08c379a000000000000000000000000000000000000000000000000000000000\n      dup2\n      mstore\n      0x04\n      add\n      tag_123\n      swap1\n      tag_124\n      jump\t// in\n    tag_123:\n      mload(0x40)\n      dup1\n      swap2\n      sub\n      swap1\n      revert\n    tag_122:\n        /* \"contracts/RscUsdtEarn.sol\":6050:6056  amount */\n      dup1\n        /* \"contracts/RscUsdtEarn.sol\":6022:6027  users */\n      0x05\n        /* \"contracts/RscUsdtEarn.sol\":6022:6039  users[msg.sender] */\n      0x00\n        /* \"contracts/RscUsdtEarn.sol\":6028:6038  msg.sender */\n      caller\n        /* \"contracts/RscUsdtEarn.sol\":6022:6039  users[msg.sender] */\n      0xffffffffffffffffffffffffffffffffffffffff\n      and\n      0xffffffffffffffffffffffffffffffffffffffff\n      and\n      dup2\n      mstore\n      0x20\n      add\n      swap1\n      dup2\n      mstore\n      0x20\n      add\n      0x00\n      keccak256\n        /* \"contracts/RscUsdtEarn.sol\":6022:6046  users[msg.sender].earned */\n      0x03\n      add\n      sload\n        /* \"contracts/RscUsdtEarn.sol\":6022:6056  users[msg.sender].earned >= amount */\n      lt\n      iszero\n        /* \"contracts/RscUsdtEarn.sol\":6014:6088  require(users[msg.sender].earned >= amount, \"Insufficient earned rewards\") */\n      tag_125\n      jumpi\n      mload(0x40)\n      0x08c379a000000000000000000000000000000000000000000000000000000000\n      dup2\n      mstore\n      0x04\n      add\n      tag_126\n      swap1\n      tag_127\n      jump\t// in\n    tag_126:\n      mload(0x40)\n      dup1\n      swap2\n      sub\n      swap1\n      revert\n    tag_125:\n        /* \"contracts/RscUsdtEarn.sol\":6200:6206  amount */\n      dup1\n        /* \"contracts/RscUsdtEarn.sol\":6172:6177  users */\n      0x05\n        /* \"contracts/RscUsdtEarn.sol\":6172:6189  users[msg.sender] */\n      0x00\n        /* \"contracts/RscUsdtEarn.sol\":6178:6188  msg.sender */\n      caller\n        /* \"contracts/RscUsdtEarn.sol\":6172:6189  users[msg.sender] */\n      0xffffffffffffffffffffffffffffffffffffffff\n      and\n      0xffffffffffffffffffffffffffffffffffffffff\n      and\n      dup2\n      mstore\n      0x20\n      add\n      swap1\n      dup2\n      mstore\n      0x20\n      add\n      0x00\n      keccak256\n        /* \"contracts/RscUsdtEarn.sol\":6172:6196  users[msg.sender].earned */\n      0x03\n      add\n      0x00\n        /* \"contracts/RscUsdtEarn.sol\":6172:6206  users[msg.sender].earned -= amount */\n      dup3\n      dup3\n      sload\n      tag_128\n      swap2\n      swap1\n      tag_87\n      jump\t// in\n    tag_128:\n      swap3\n      pop\n      pop\n      dup2\n      swap1\n      sstore\n      pop\n        /* \"contracts/RscUsdtEarn.sol\":6288:6304  usdtTokenAddress */\n      0x01\n      0x00\n      swap1\n      sload\n      swap1\n      0x0100\n      exp\n      swap1\n      div\n      0xffffffffffffffffffffffffffffffffffffffff\n      and\n        /* \"contracts/RscUsdtEarn.sol\":6281:6314  IERC20(usdtTokenAddress).transfer */\n      0xffffffffffffffffffffffffffffffffffffffff\n      and\n      0xa9059cbb\n        /* \"contracts/RscUsdtEarn.sol\":6315:6325  msg.sender */\n      caller\n        /* \"contracts/RscUsdtEarn.sol\":6327:6333  amount */\n      dup4\n        /* \"contracts/RscUsdtEarn.sol\":6281:6334  IERC20(usdtTokenAddress).transfer(msg.sender, amount) */\n      mload(0x40)\n      dup4\n      0xffffffff\n      and\n      0xe0\n      shl\n      dup2\n      mstore\n      0x04\n      add\n      tag_129\n      swap3\n      swap2\n      swap1\n      tag_89\n      jump\t// in\n    tag_129:\n      0x20\n      mload(0x40)\n      dup1\n      dup4\n      sub\n      dup2\n      0x00\n      dup8\n      gas\n      call\n      iszero\n      dup1\n      iszero\n      tag_131\n      jumpi\n      returndatasize\n      0x00\n      dup1\n      returndatacopy\n      revert(0x00, returndatasize)\n    tag_131:\n      pop\n      pop\n      pop\n      pop\n      mload(0x40)\n      returndatasize\n      not(0x1f)\n      0x1f\n      dup3\n      add\n      and\n      dup3\n      add\n      dup1\n      0x40\n      mstore\n      pop\n      dup2\n      add\n      swap1\n      tag_132\n      swap2\n      swap1\n      tag_93\n      jump\t// in\n    tag_132:\n        /* \"contracts/RscUsdtEarn.sol\":6273:6356  require(IERC20(usdtTokenAddress).transfer(msg.sender, amount), \"Withdrawal failed\") */\n      tag_133\n      jumpi\n      mload(0x40)\n      0x08c379a000000000000000000000000000000000000000000000000000000000\n      dup2\n      mstore\n      0x04\n      add\n      tag_134\n      swap1\n      tag_135\n      jump\t// in\n    tag_134:\n      mload(0x40)\n      dup1\n      swap2\n      sub\n      swap1\n      revert\n    tag_133:\n        /* \"contracts/RscUsdtEarn.sol\":6385:6395  msg.sender */\n      caller\n        /* \"contracts/RscUsdtEarn.sol\":6374:6404  Withdrawal(msg.sender, amount) */\n      0xffffffffffffffffffffffffffffffffffffffff\n      and\n      0x7fcf532c15f0a6db0bd6d0e038bea71d30d808c7d98cb3bf7268a95bf5081b65\n        /* \"contracts/RscUsdtEarn.sol\":6397:6403  amount */\n      dup3\n        /* \"contracts/RscUsdtEarn.sol\":6374:6404  Withdrawal(msg.sender, amount) */\n      mload(0x40)\n      tag_136\n      swap2\n      swap1\n      tag_23\n      jump\t// in\n    tag_136:\n      mload(0x40)\n      dup1\n      swap2\n      sub\n      swap1\n      log2\n        /* \"contracts/RscUsdtEarn.sol\":5878:6412  function withdrawRewards(uint256 amount) external {... */\n      pop\n      jump\t// out\n        /* \"contracts/RscUsdtEarn.sol\":176:207  address public usdtTokenAddress */\n    tag_42:\n      0x01\n      0x00\n      swap1\n      sload\n      swap1\n      0x0100\n      exp\n      swap1\n      div\n      0xffffffffffffffffffffffffffffffffffffffff\n      and\n      dup2\n      jump\t// out\n        /* \"contracts/RscUsdtEarn.sol\":663:700  mapping(address => User) public users */\n    tag_47:\n      mstore(0x20, 0x05)\n      dup1\n      0x00\n      mstore\n      keccak256(0x00, 0x40)\n      0x00\n      swap2\n      pop\n      swap1\n      pop\n      dup1\n      0x00\n      add\n      0x00\n      swap1\n      sload\n      swap1\n      0x0100\n      exp\n      swap1\n      div\n      0xffffffffffffffffffffffffffffffffffffffff\n      and\n      swap1\n      dup1\n      0x01\n      add\n      sload\n      swap1\n      dup1\n      0x02\n      add\n      sload\n      swap1\n      dup1\n      0x03\n      add\n      sload\n      swap1\n      dup1\n      0x04\n      add\n      0x00\n      swap1\n      sload\n      swap1\n      0x0100\n      exp\n      swap1\n      div\n      0xff\n      and\n      swap1\n      pop\n      dup6\n      jump\t// out\n        /* \"contracts/RscUsdtEarn.sol\":1439:2986  function joinNetwork(address _referrer) external {... */\n    tag_52:\n        /* \"contracts/RscUsdtEarn.sol\":1545:1546  0 */\n      0x00\n        /* \"contracts/RscUsdtEarn.sol\":1507:1547  users[msg.sender].referrer == address(0) */\n      0xffffffffffffffffffffffffffffffffffffffff\n      and\n        /* \"contracts/RscUsdtEarn.sol\":1507:1512  users */\n      0x05\n        /* \"contracts/RscUsdtEarn.sol\":1507:1524  users[msg.sender] */\n      0x00\n        /* \"contracts/RscUsdtEarn.sol\":1513:1523  msg.sender */\n      caller\n        /* \"contracts/RscUsdtEarn.sol\":1507:1524  users[msg.sender] */\n      0xffffffffffffffffffffffffffffffffffffffff\n      and\n      0xffffffffffffffffffffffffffffffffffffffff\n      and\n      dup2\n      mstore\n      0x20\n      add\n      swap1\n      dup2\n      mstore\n      0x20\n      add\n      0x00\n      keccak256\n        /* \"contracts/RscUsdtEarn.sol\":1507:1533  users[msg.sender].referrer */\n      0x00\n      add\n      0x00\n      swap1\n      sload\n      swap1\n      0x0100\n      exp\n      swap1\n      div\n      0xffffffffffffffffffffffffffffffffffffffff\n      and\n        /* \"contracts/RscUsdtEarn.sol\":1507:1547  users[msg.sender].referrer == address(0) */\n      0xffffffffffffffffffffffffffffffffffffffff\n      and\n      eq\n        /* \"contracts/RscUsdtEarn.sol\":1499:1570  require(users[msg.sender].referrer == address(0), \"Already registered\") */\n      tag_138\n      jumpi\n      mload(0x40)\n      0x08c379a000000000000000000000000000000000000000000000000000000000\n      dup2\n      mstore\n      0x04\n      add\n      tag_139\n      swap1\n      tag_140\n      jump\t// in\n    tag_139:\n      mload(0x40)\n      dup1\n      swap2\n      sub\n      swap1\n      revert\n    tag_138:\n        /* \"contracts/RscUsdtEarn.sol\":1596:1612  usdtTokenAddress */\n      0x01\n      0x00\n      swap1\n      sload\n      swap1\n      0x0100\n      exp\n      swap1\n      div\n      0xffffffffffffffffffffffffffffffffffffffff\n      and\n        /* \"contracts/RscUsdtEarn.sol\":1589:1626  IERC20(usdtTokenAddress).transferFrom */\n      0xffffffffffffffffffffffffffffffffffffffff\n      and\n      0x23b872dd\n        /* \"contracts/RscUsdtEarn.sol\":1627:1637  msg.sender */\n      caller\n        /* \"contracts/RscUsdtEarn.sol\":1647:1651  this */\n      address\n        /* \"contracts/RscUsdtEarn.sol\":1654:1669  registrationFee */\n      sload(0x02)\n        /* \"contracts/RscUsdtEarn.sol\":1589:1670  IERC20(usdtTokenAddress).transferFrom(msg.sender, address(this), registrationFee) */\n      mload(0x40)\n      dup5\n      0xffffffff\n      and\n      0xe0\n      shl\n      dup2\n      mstore\n      0x04\n      add\n      tag_141\n      swap4\n      swap3\n      swap2\n      swap1\n      tag_142\n      jump\t// in\n    tag_141:\n      0x20\n      mload(0x40)\n      dup1\n      dup4\n      sub\n      dup2\n      0x00\n      dup8\n      gas\n      call\n      iszero\n      dup1\n      iszero\n      tag_144\n      jumpi\n      returndatasize\n      0x00\n      dup1\n      returndatacopy\n      revert(0x00, returndatasize)\n    tag_144:\n      pop\n      pop\n      pop\n      pop\n      mload(0x40)\n      returndatasize\n      not(0x1f)\n      0x1f\n      dup3\n      add\n      and\n      dup3\n      add\n      dup1\n      0x40\n      mstore\n      pop\n      dup2\n      add\n      swap1\n      tag_145\n      swap2\n      swap1\n      tag_93\n      jump\t// in\n    tag_145:\n        /* \"contracts/RscUsdtEarn.sol\":1581:1689  require(IERC20(usdtTokenAddress).transferFrom(msg.sender, address(this), registrationFee), \"Payment failed\") */\n      tag_146\n      jumpi\n      mload(0x40)\n      0x08c379a000000000000000000000000000000000000000000000000000000000\n      dup2\n      mstore\n      0x04\n      add\n      tag_147\n      swap1\n      tag_148\n      jump\t// in\n    tag_147:\n      mload(0x40)\n      dup1\n      swap2\n      sub\n      swap1\n      revert\n    tag_146:\n        /* \"contracts/RscUsdtEarn.sol\":1760:1761  0 */\n      0x00\n        /* \"contracts/RscUsdtEarn.sol\":1739:1762  _referrer != address(0) */\n      0xffffffffffffffffffffffffffffffffffffffff\n      and\n        /* \"contracts/RscUsdtEarn.sol\":1739:1748  _referrer */\n      dup2\n        /* \"contracts/RscUsdtEarn.sol\":1739:1762  _referrer != address(0) */\n      0xffffffffffffffffffffffffffffffffffffffff\n      and\n      eq\n      iszero\n        /* \"contracts/RscUsdtEarn.sol\":1739:1789  _referrer != address(0) && _referrer != msg.sender */\n      dup1\n      iszero\n      tag_149\n      jumpi\n      pop\n        /* \"contracts/RscUsdtEarn.sol\":1779:1789  msg.sender */\n      caller\n        /* \"contracts/RscUsdtEarn.sol\":1766:1789  _referrer != msg.sender */\n      0xffffffffffffffffffffffffffffffffffffffff\n      and\n        /* \"contracts/RscUsdtEarn.sol\":1766:1775  _referrer */\n      dup2\n        /* \"contracts/RscUsdtEarn.sol\":1766:1789  _referrer != msg.sender */\n      0xffffffffffffffffffffffffffffffffffffffff\n      and\n      eq\n      iszero\n        /* \"contracts/RscUsdtEarn.sol\":1739:1789  _referrer != address(0) && _referrer != msg.sender */\n    tag_149:\n        /* \"contracts/RscUsdtEarn.sol\":1735:2631  if (_referrer != address(0) && _referrer != msg.sender) {... */\n      iszero\n      tag_150\n      jumpi\n        /* \"contracts/RscUsdtEarn.sol\":1806:1811  users */\n      0x05\n        /* \"contracts/RscUsdtEarn.sol\":1806:1822  users[_referrer] */\n      0x00\n        /* \"contracts/RscUsdtEarn.sol\":1812:1821  _referrer */\n      dup3\n        /* \"contracts/RscUsdtEarn.sol\":1806:1822  users[_referrer] */\n      0xffffffffffffffffffffffffffffffffffffffff\n      and\n      0xffffffffffffffffffffffffffffffffffffffff\n      and\n      dup2\n      mstore\n      0x20\n      add\n      swap1\n      dup2\n      mstore\n      0x20\n      add\n      0x00\n      keccak256\n        /* \"contracts/RscUsdtEarn.sol\":1806:1832  users[_referrer].referrals */\n      0x01\n      add\n      0x00\n        /* \"contracts/RscUsdtEarn.sol\":1806:1834  users[_referrer].referrals++ */\n      dup2\n      sload\n      dup1\n      swap3\n      swap2\n      swap1\n      tag_151\n      swap1\n      tag_119\n      jump\t// in\n    tag_151:\n      swap2\n      swap1\n      pop\n      sstore\n      pop\n        /* \"contracts/RscUsdtEarn.sol\":1886:1890  true */\n      0x01\n        /* \"contracts/RscUsdtEarn.sol\":1849:1854  users */\n      0x05\n        /* \"contracts/RscUsdtEarn.sol\":1849:1865  users[_referrer] */\n      0x00\n        /* \"contracts/RscUsdtEarn.sol\":1855:1864  _referrer */\n      dup4\n        /* \"contracts/RscUsdtEarn.sol\":1849:1865  users[_referrer] */\n      0xffffffffffffffffffffffffffffffffffffffff\n      and\n      0xffffffffffffffffffffffffffffffffffffffff\n      and\n      dup2\n      mstore\n      0x20\n      add\n      swap1\n      dup2\n      mstore\n      0x20\n      add\n      0x00\n      keccak256\n        /* \"contracts/RscUsdtEarn.sol\":1849:1883  users[_referrer].activatedEarnings */\n      0x04\n      add\n      0x00\n        /* \"contracts/RscUsdtEarn.sol\":1849:1890  users[_referrer].activatedEarnings = true */\n      0x0100\n      exp\n      dup2\n      sload\n      dup2\n      0xff\n      mul\n      not\n      and\n      swap1\n      dup4\n      iszero\n      iszero\n      mul\n      or\n      swap1\n      sstore\n      pop\n        /* \"contracts/RscUsdtEarn.sol\":2017:2041  uint256 newReferrerLevel */\n      0x00\n        /* \"contracts/RscUsdtEarn.sol\":2044:2086  determineLevel(users[_referrer].referrals) */\n      tag_152\n        /* \"contracts/RscUsdtEarn.sol\":2059:2064  users */\n      0x05\n        /* \"contracts/RscUsdtEarn.sol\":2059:2075  users[_referrer] */\n      0x00\n        /* \"contracts/RscUsdtEarn.sol\":2065:2074  _referrer */\n      dup5\n        /* \"contracts/RscUsdtEarn.sol\":2059:2075  users[_referrer] */\n      0xffffffffffffffffffffffffffffffffffffffff\n      and\n      0xffffffffffffffffffffffffffffffffffffffff\n      and\n      dup2\n      mstore\n      0x20\n      add\n      swap1\n      dup2\n      mstore\n      0x20\n      add\n      0x00\n      keccak256\n        /* \"contracts/RscUsdtEarn.sol\":2059:2085  users[_referrer].referrals */\n      0x01\n      add\n      sload\n        /* \"contracts/RscUsdtEarn.sol\":2044:2058  determineLevel */\n      tag_153\n        /* \"contracts/RscUsdtEarn.sol\":2044:2086  determineLevel(users[_referrer].referrals) */\n      jump\t// in\n    tag_152:\n        /* \"contracts/RscUsdtEarn.sol\":2017:2086  uint256 newReferrerLevel = determineLevel(users[_referrer].referrals) */\n      swap1\n      pop\n        /* \"contracts/RscUsdtEarn.sol\":2215:2231  newReferrerLevel */\n      dup1\n        /* \"contracts/RscUsdtEarn.sol\":2189:2194  users */\n      0x05\n        /* \"contracts/RscUsdtEarn.sol\":2189:2205  users[_referrer] */\n      0x00\n        /* \"contracts/RscUsdtEarn.sol\":2195:2204  _referrer */\n      dup5\n        /* \"contracts/RscUsdtEarn.sol\":2189:2205  users[_referrer] */\n      0xffffffffffffffffffffffffffffffffffffffff\n      and\n      0xffffffffffffffffffffffffffffffffffffffff\n      and\n      dup2\n      mstore\n      0x20\n      add\n      swap1\n      dup2\n      mstore\n      0x20\n      add\n      0x00\n      keccak256\n        /* \"contracts/RscUsdtEarn.sol\":2189:2211  users[_referrer].level */\n      0x02\n      add\n      sload\n        /* \"contracts/RscUsdtEarn.sol\":2189:2231  users[_referrer].level != newReferrerLevel */\n      eq\n        /* \"contracts/RscUsdtEarn.sol\":2185:2575  if (users[_referrer].level != newReferrerLevel) {... */\n      tag_154\n      jumpi\n        /* \"contracts/RscUsdtEarn.sol\":2311:2366  _removeUserFromLevel(_referrer, users[_referrer].level) */\n      tag_155\n        /* \"contracts/RscUsdtEarn.sol\":2332:2341  _referrer */\n      dup3\n        /* \"contracts/RscUsdtEarn.sol\":2343:2348  users */\n      0x05\n        /* \"contracts/RscUsdtEarn.sol\":2343:2359  users[_referrer] */\n      0x00\n        /* \"contracts/RscUsdtEarn.sol\":2349:2358  _referrer */\n      dup6\n        /* \"contracts/RscUsdtEarn.sol\":2343:2359  users[_referrer] */\n      0xffffffffffffffffffffffffffffffffffffffff\n      and\n      0xffffffffffffffffffffffffffffffffffffffff\n      and\n      dup2\n      mstore\n      0x20\n      add\n      swap1\n      dup2\n      mstore\n      0x20\n      add\n      0x00\n      keccak256\n        /* \"contracts/RscUsdtEarn.sol\":2343:2365  users[_referrer].level */\n      0x02\n      add\n      sload\n        /* \"contracts/RscUsdtEarn.sol\":2311:2331  _removeUserFromLevel */\n      tag_156\n        /* \"contracts/RscUsdtEarn.sol\":2311:2366  _removeUserFromLevel(_referrer, users[_referrer].level) */\n      jump\t// in\n    tag_155:\n        /* \"contracts/RscUsdtEarn.sol\":2460:2476  newReferrerLevel */\n      dup1\n        /* \"contracts/RscUsdtEarn.sol\":2435:2440  users */\n      0x05\n        /* \"contracts/RscUsdtEarn.sol\":2435:2451  users[_referrer] */\n      0x00\n        /* \"contracts/RscUsdtEarn.sol\":2441:2450  _referrer */\n      dup5\n        /* \"contracts/RscUsdtEarn.sol\":2435:2451  users[_referrer] */\n      0xffffffffffffffffffffffffffffffffffffffff\n      and\n      0xffffffffffffffffffffffffffffffffffffffff\n      and\n      dup2\n      mstore\n      0x20\n      add\n      swap1\n      dup2\n      mstore\n      0x20\n      add\n      0x00\n      keccak256\n        /* \"contracts/RscUsdtEarn.sol\":2435:2457  users[_referrer].level */\n      0x02\n      add\n        /* \"contracts/RscUsdtEarn.sol\":2435:2476  users[_referrer].level = newReferrerLevel */\n      dup2\n      swap1\n      sstore\n      pop\n        /* \"contracts/RscUsdtEarn.sol\":2495:2501  levels */\n      0x06\n        /* \"contracts/RscUsdtEarn.sol\":2495:2519  levels[newReferrerLevel] */\n      0x00\n        /* \"contracts/RscUsdtEarn.sol\":2502:2518  newReferrerLevel */\n      dup3\n        /* \"contracts/RscUsdtEarn.sol\":2495:2519  levels[newReferrerLevel] */\n      dup2\n      mstore\n      0x20\n      add\n      swap1\n      dup2\n      mstore\n      0x20\n      add\n      0x00\n      keccak256\n        /* \"contracts/RscUsdtEarn.sol\":2525:2534  _referrer */\n      dup3\n        /* \"contracts/RscUsdtEarn.sol\":2495:2535  levels[newReferrerLevel].push(_referrer) */\n      swap1\n      dup1\n      0x01\n      dup2\n      sload\n      add\n      dup1\n      dup3\n      sstore\n      dup1\n      swap2\n      pop\n      pop\n      0x01\n      swap1\n      sub\n      swap1\n      0x00\n      mstore\n      keccak256(0x00, 0x20)\n      add\n      0x00\n      swap1\n      swap2\n      swap1\n      swap2\n      swap1\n      swap2\n      0x0100\n      exp\n      dup2\n      sload\n      dup2\n      0xffffffffffffffffffffffffffffffffffffffff\n      mul\n      not\n      and\n      swap1\n      dup4\n      0xffffffffffffffffffffffffffffffffffffffff\n      and\n      mul\n      or\n      swap1\n      sstore\n      pop\n        /* \"contracts/RscUsdtEarn.sol\":2185:2575  if (users[_referrer].level != newReferrerLevel) {... */\n    tag_154:\n        /* \"contracts/RscUsdtEarn.sol\":2591:2619  payReferralReward(_referrer) */\n      tag_158\n        /* \"contracts/RscUsdtEarn.sol\":2609:2618  _referrer */\n      dup3\n        /* \"contracts/RscUsdtEarn.sol\":2591:2608  payReferralReward */\n      tag_159\n        /* \"contracts/RscUsdtEarn.sol\":2591:2619  payReferralReward(_referrer) */\n      jump\t// in\n    tag_158:\n        /* \"contracts/RscUsdtEarn.sol\":1791:2631  {... */\n      pop\n        /* \"contracts/RscUsdtEarn.sol\":1735:2631  if (_referrer != address(0) && _referrer != msg.sender) {... */\n    tag_150:\n        /* \"contracts/RscUsdtEarn.sol\":2702:2711  _referrer */\n      dup1\n        /* \"contracts/RscUsdtEarn.sol\":2673:2678  users */\n      0x05\n        /* \"contracts/RscUsdtEarn.sol\":2673:2690  users[msg.sender] */\n      0x00\n        /* \"contracts/RscUsdtEarn.sol\":2679:2689  msg.sender */\n      caller\n        /* \"contracts/RscUsdtEarn.sol\":2673:2690  users[msg.sender] */\n      0xffffffffffffffffffffffffffffffffffffffff\n      and\n      0xffffffffffffffffffffffffffffffffffffffff\n      and\n      dup2\n      mstore\n      0x20\n      add\n      swap1\n      dup2\n      mstore\n      0x20\n      add\n      0x00\n      keccak256\n        /* \"contracts/RscUsdtEarn.sol\":2673:2699  users[msg.sender].referrer */\n      0x00\n      add\n      0x00\n        /* \"contracts/RscUsdtEarn.sol\":2673:2711  users[msg.sender].referrer = _referrer */\n      0x0100\n      exp\n      dup2\n      sload\n      dup2\n      0xffffffffffffffffffffffffffffffffffffffff\n      mul\n      not\n      and\n      swap1\n      dup4\n      0xffffffffffffffffffffffffffffffffffffffff\n      and\n      mul\n      or\n      swap1\n      sstore\n      pop\n        /* \"contracts/RscUsdtEarn.sol\":2722:2738  uint256 newLevel */\n      0x00\n        /* \"contracts/RscUsdtEarn.sol\":2741:2784  determineLevel(users[msg.sender].referrals) */\n      tag_160\n        /* \"contracts/RscUsdtEarn.sol\":2756:2761  users */\n      0x05\n        /* \"contracts/RscUsdtEarn.sol\":2756:2773  users[msg.sender] */\n      0x00\n        /* \"contracts/RscUsdtEarn.sol\":2762:2772  msg.sender */\n      caller\n        /* \"contracts/RscUsdtEarn.sol\":2756:2773  users[msg.sender] */\n      0xffffffffffffffffffffffffffffffffffffffff\n      and\n      0xffffffffffffffffffffffffffffffffffffffff\n      and\n      dup2\n      mstore\n      0x20\n      add\n      swap1\n      dup2\n      mstore\n      0x20\n      add\n      0x00\n      keccak256\n        /* \"contracts/RscUsdtEarn.sol\":2756:2783  users[msg.sender].referrals */\n      0x01\n      add\n      sload\n        /* \"contracts/RscUsdtEarn.sol\":2741:2755  determineLevel */\n      tag_153\n        /* \"contracts/RscUsdtEarn.sol\":2741:2784  determineLevel(users[msg.sender].referrals) */\n      jump\t// in\n    tag_160:\n        /* \"contracts/RscUsdtEarn.sol\":2722:2784  uint256 newLevel = determineLevel(users[msg.sender].referrals) */\n      swap1\n      pop\n        /* \"contracts/RscUsdtEarn.sol\":2821:2829  newLevel */\n      dup1\n        /* \"contracts/RscUsdtEarn.sol\":2795:2800  users */\n      0x05\n        /* \"contracts/RscUsdtEarn.sol\":2795:2812  users[msg.sender] */\n      0x00\n        /* \"contracts/RscUsdtEarn.sol\":2801:2811  msg.sender */\n      caller\n        /* \"contracts/RscUsdtEarn.sol\":2795:2812  users[msg.sender] */\n      0xffffffffffffffffffffffffffffffffffffffff\n      and\n      0xffffffffffffffffffffffffffffffffffffffff\n      and\n      dup2\n      mstore\n      0x20\n      add\n      swap1\n      dup2\n      mstore\n      0x20\n      add\n      0x00\n      keccak256\n        /* \"contracts/RscUsdtEarn.sol\":2795:2818  users[msg.sender].level */\n      0x02\n      add\n        /* \"contracts/RscUsdtEarn.sol\":2795:2829  users[msg.sender].level = newLevel */\n      dup2\n      swap1\n      sstore\n      pop\n        /* \"contracts/RscUsdtEarn.sol\":2886:2889  100 */\n      0x64\n        /* \"contracts/RscUsdtEarn.sol\":2880:2882  50 */\n      0x32\n        /* \"contracts/RscUsdtEarn.sol\":2862:2877  registrationFee */\n      sload(0x02)\n        /* \"contracts/RscUsdtEarn.sol\":2862:2882  registrationFee * 50 */\n      tag_161\n      swap2\n      swap1\n      tag_83\n      jump\t// in\n    tag_161:\n        /* \"contracts/RscUsdtEarn.sol\":2861:2889  (registrationFee * 50) / 100 */\n      tag_162\n      swap2\n      swap1\n      tag_85\n      jump\t// in\n    tag_162:\n        /* \"contracts/RscUsdtEarn.sol\":2842:2857  totalIncomePool */\n      0x07\n      0x00\n        /* \"contracts/RscUsdtEarn.sol\":2842:2889  totalIncomePool += (registrationFee * 50) / 100 */\n      dup3\n      dup3\n      sload\n      tag_163\n      swap2\n      swap1\n      tag_116\n      jump\t// in\n    tag_163:\n      swap3\n      pop\n      pop\n      dup2\n      swap1\n      sstore\n      pop\n        /* \"contracts/RscUsdtEarn.sol\":2968:2977  _referrer */\n      dup2\n        /* \"contracts/RscUsdtEarn.sol\":2945:2978  Registered(msg.sender, _referrer) */\n      0xffffffffffffffffffffffffffffffffffffffff\n      and\n        /* \"contracts/RscUsdtEarn.sol\":2956:2966  msg.sender */\n      caller\n        /* \"contracts/RscUsdtEarn.sol\":2945:2978  Registered(msg.sender, _referrer) */\n      0xffffffffffffffffffffffffffffffffffffffff\n      and\n      0x0a31ee9d46a828884b81003c8498156ea6aa15b9b54bdd0ef0b533d9eba57e55\n      mload(0x40)\n      mload(0x40)\n      dup1\n      swap2\n      sub\n      swap1\n      log3\n        /* \"contracts/RscUsdtEarn.sol\":1488:2986  {... */\n      pop\n        /* \"contracts/RscUsdtEarn.sol\":1439:2986  function joinNetwork(address _referrer) external {... */\n      pop\n      jump\t// out\n        /* \"contracts/RscUsdtEarn.sol\":707:750  mapping(uint256 => address[]) public levels */\n    tag_56:\n      mstore(0x20, 0x06)\n      dup2\n      0x00\n      mstore\n      keccak256(0x00, 0x40)\n      dup2\n      dup2\n      sload\n      dup2\n      lt\n      tag_164\n      jumpi\n      0x00\n      dup1\n      revert\n    tag_164:\n      swap1\n      0x00\n      mstore\n      keccak256(0x00, 0x20)\n      add\n      0x00\n      swap2\n      pop\n      swap2\n      pop\n      swap1\n      sload\n      swap1\n      0x0100\n      exp\n      swap1\n      div\n      0xffffffffffffffffffffffffffffffffffffffff\n      and\n      dup2\n      jump\t// out\n        /* \"contracts/RscUsdtEarn.sol\":386:423  uint256 public lastRewardDistribution */\n    tag_59:\n      sload(0x04)\n      dup2\n      jump\t// out\n        /* \"contracts/RscUsdtEarn.sol\":7764:7949  function getUsersInLevel(uint256 _level) external view returns (address[] memory) {... */\n    tag_63:\n        /* \"contracts/RscUsdtEarn.sol\":7828:7844  address[] memory */\n      0x60\n        /* \"contracts/RscUsdtEarn.sol\":7875:7876  1 */\n      0x01\n        /* \"contracts/RscUsdtEarn.sol\":7865:7871  _level */\n      dup3\n        /* \"contracts/RscUsdtEarn.sol\":7865:7876  _level >= 1 */\n      lt\n      iszero\n        /* \"contracts/RscUsdtEarn.sol\":7865:7891  _level >= 1 && _level <= 5 */\n      dup1\n      iszero\n      tag_167\n      jumpi\n      pop\n        /* \"contracts/RscUsdtEarn.sol\":7890:7891  5 */\n      0x05\n        /* \"contracts/RscUsdtEarn.sol\":7880:7886  _level */\n      dup3\n        /* \"contracts/RscUsdtEarn.sol\":7880:7891  _level <= 5 */\n      gt\n      iszero\n        /* \"contracts/RscUsdtEarn.sol\":7865:7891  _level >= 1 && _level <= 5 */\n    tag_167:\n        /* \"contracts/RscUsdtEarn.sol\":7857:7909  require(_level >= 1 && _level <= 5, \"Invalid level\") */\n      tag_168\n      jumpi\n      mload(0x40)\n      0x08c379a000000000000000000000000000000000000000000000000000000000\n      dup2\n      mstore\n      0x04\n      add\n      tag_169\n      swap1\n      tag_170\n      jump\t// in\n    tag_169:\n      mload(0x40)\n      dup1\n      swap2\n      sub\n      swap1\n      revert\n    tag_168:\n        /* \"contracts/RscUsdtEarn.sol\":7927:7933  levels */\n      0x06\n        /* \"contracts/RscUsdtEarn.sol\":7927:7941  levels[_level] */\n      0x00\n        /* \"contracts/RscUsdtEarn.sol\":7934:7940  _level */\n      dup4\n        /* \"contracts/RscUsdtEarn.sol\":7927:7941  levels[_level] */\n      dup2\n      mstore\n      0x20\n      add\n      swap1\n      dup2\n      mstore\n      0x20\n      add\n      0x00\n      keccak256\n        /* \"contracts/RscUsdtEarn.sol\":7920:7941  return levels[_level] */\n      dup1\n      sload\n      dup1\n      0x20\n      mul\n      0x20\n      add\n      mload(0x40)\n      swap1\n      dup2\n      add\n      0x40\n      mstore\n      dup1\n      swap3\n      swap2\n      swap1\n      dup2\n      dup2\n      mstore\n      0x20\n      add\n      dup3\n      dup1\n      sload\n      dup1\n      iszero\n      tag_171\n      jumpi\n      0x20\n      mul\n      dup3\n      add\n      swap2\n      swap1\n      0x00\n      mstore\n      keccak256(0x00, 0x20)\n      swap1\n    tag_172:\n      dup2\n      0x00\n      swap1\n      sload\n      swap1\n      0x0100\n      exp\n      swap1\n      div\n      0xffffffffffffffffffffffffffffffffffffffff\n      and\n      0xffffffffffffffffffffffffffffffffffffffff\n      and\n      dup2\n      mstore\n      0x20\n      add\n      swap1\n      0x01\n      add\n      swap1\n      dup1\n      dup4\n      gt\n      tag_172\n      jumpi\n    tag_171:\n      pop\n      pop\n      pop\n      pop\n      pop\n      swap1\n      pop\n        /* \"contracts/RscUsdtEarn.sol\":7764:7949  function getUsersInLevel(uint256 _level) external view returns (address[] memory) {... */\n      swap2\n      swap1\n      pop\n      jump\t// out\n        /* \"contracts/RscUsdtEarn.sol\":788:818  uint256 public totalIncomePool */\n    tag_67:\n      sload(0x07)\n      dup2\n      jump\t// out\n        /* \"contracts/RscUsdtEarn.sol\":2994:3929  function upgradeLevel(uint256 _desiredLevel) external {... */\n    tag_71:\n        /* \"contracts/RscUsdtEarn.sol\":3084:3085  1 */\n      0x01\n        /* \"contracts/RscUsdtEarn.sol\":3067:3080  _desiredLevel */\n      dup2\n        /* \"contracts/RscUsdtEarn.sol\":3067:3085  _desiredLevel >= 1 */\n      lt\n      iszero\n        /* \"contracts/RscUsdtEarn.sol\":3067:3107  _desiredLevel >= 1 && _desiredLevel <= 5 */\n      dup1\n      iszero\n      tag_174\n      jumpi\n      pop\n        /* \"contracts/RscUsdtEarn.sol\":3106:3107  5 */\n      0x05\n        /* \"contracts/RscUsdtEarn.sol\":3089:3102  _desiredLevel */\n      dup2\n        /* \"contracts/RscUsdtEarn.sol\":3089:3107  _desiredLevel <= 5 */\n      gt\n      iszero\n        /* \"contracts/RscUsdtEarn.sol\":3067:3107  _desiredLevel >= 1 && _desiredLevel <= 5 */\n    tag_174:\n        /* \"contracts/RscUsdtEarn.sol\":3059:3125  require(_desiredLevel >= 1 && _desiredLevel <= 5, \"Invalid level\") */\n      tag_175\n      jumpi\n      mload(0x40)\n      0x08c379a000000000000000000000000000000000000000000000000000000000\n      dup2\n      mstore\n      0x04\n      add\n      tag_176\n      swap1\n      tag_170\n      jump\t// in\n    tag_176:\n      mload(0x40)\n      dup1\n      swap2\n      sub\n      swap1\n      revert\n    tag_175:\n        /* \"contracts/RscUsdtEarn.sol\":3175:3176  1 */\n      0x01\n        /* \"contracts/RscUsdtEarn.sol\":3144:3149  users */\n      0x05\n        /* \"contracts/RscUsdtEarn.sol\":3144:3161  users[msg.sender] */\n      0x00\n        /* \"contracts/RscUsdtEarn.sol\":3150:3160  msg.sender */\n      caller\n        /* \"contracts/RscUsdtEarn.sol\":3144:3161  users[msg.sender] */\n      0xffffffffffffffffffffffffffffffffffffffff\n      and\n      0xffffffffffffffffffffffffffffffffffffffff\n      and\n      dup2\n      mstore\n      0x20\n      add\n      swap1\n      dup2\n      mstore\n      0x20\n      add\n      0x00\n      keccak256\n        /* \"contracts/RscUsdtEarn.sol\":3144:3171  users[msg.sender].referrals */\n      0x01\n      add\n      sload\n        /* \"contracts/RscUsdtEarn.sol\":3144:3176  users[msg.sender].referrals >= 1 */\n      lt\n      iszero\n        /* \"contracts/RscUsdtEarn.sol\":3136:3233  require(users[msg.sender].referrals >= 1, \"Must invite at least one person to activate earnings\") */\n      tag_177\n      jumpi\n      mload(0x40)\n      0x08c379a000000000000000000000000000000000000000000000000000000000\n      dup2\n      mstore\n      0x04\n      add\n      tag_178\n      swap1\n      tag_179\n      jump\t// in\n    tag_178:\n      mload(0x40)\n      dup1\n      swap2\n      sub\n      swap1\n      revert\n    tag_177:\n        /* \"contracts/RscUsdtEarn.sol\":3278:3291  _desiredLevel */\n      dup1\n        /* \"contracts/RscUsdtEarn.sol\":3252:3257  users */\n      0x05\n        /* \"contracts/RscUsdtEarn.sol\":3252:3269  users[msg.sender] */\n      0x00\n        /* \"contracts/RscUsdtEarn.sol\":3258:3268  msg.sender */\n      caller\n        /* \"contracts/RscUsdtEarn.sol\":3252:3269  users[msg.sender] */\n      0xffffffffffffffffffffffffffffffffffffffff\n      and\n      0xffffffffffffffffffffffffffffffffffffffff\n      and\n      dup2\n      mstore\n      0x20\n      add\n      swap1\n      dup2\n      mstore\n      0x20\n      add\n      0x00\n      keccak256\n        /* \"contracts/RscUsdtEarn.sol\":3252:3275  users[msg.sender].level */\n      0x02\n      add\n      sload\n        /* \"contracts/RscUsdtEarn.sol\":3252:3291  users[msg.sender].level < _desiredLevel */\n      lt\n        /* \"contracts/RscUsdtEarn.sol\":3244:3327  require(users[msg.sender].level < _desiredLevel, \"Already at this level or higher\") */\n      tag_180\n      jumpi\n      mload(0x40)\n      0x08c379a000000000000000000000000000000000000000000000000000000000\n      dup2\n      mstore\n      0x04\n      add\n      tag_181\n      swap1\n      tag_182\n      jump\t// in\n    tag_181:\n      mload(0x40)\n      dup1\n      swap2\n      sub\n      swap1\n      revert\n    tag_180:\n        /* \"contracts/RscUsdtEarn.sol\":3340:3363  uint256 requiredPayment */\n      0x00\n        /* \"contracts/RscUsdtEarn.sol\":3366:3399  calculateLevelCost(_desiredLevel) */\n      tag_183\n        /* \"contracts/RscUsdtEarn.sol\":3385:3398  _desiredLevel */\n      dup3\n        /* \"contracts/RscUsdtEarn.sol\":3366:3384  calculateLevelCost */\n      tag_27\n        /* \"contracts/RscUsdtEarn.sol\":3366:3399  calculateLevelCost(_desiredLevel) */\n      jump\t// in\n    tag_183:\n        /* \"contracts/RscUsdtEarn.sol\":3340:3399  uint256 requiredPayment = calculateLevelCost(_desiredLevel) */\n      swap1\n      pop\n        /* \"contracts/RscUsdtEarn.sol\":3425:3441  usdtTokenAddress */\n      0x01\n      0x00\n      swap1\n      sload\n      swap1\n      0x0100\n      exp\n      swap1\n      div\n      0xffffffffffffffffffffffffffffffffffffffff\n      and\n        /* \"contracts/RscUsdtEarn.sol\":3418:3455  IERC20(usdtTokenAddress).transferFrom */\n      0xffffffffffffffffffffffffffffffffffffffff\n      and\n      0x23b872dd\n        /* \"contracts/RscUsdtEarn.sol\":3456:3466  msg.sender */\n      caller\n        /* \"contracts/RscUsdtEarn.sol\":3476:3480  this */\n      address\n        /* \"contracts/RscUsdtEarn.sol\":3483:3498  requiredPayment */\n      dup5\n        /* \"contracts/RscUsdtEarn.sol\":3418:3499  IERC20(usdtTokenAddress).transferFrom(msg.sender, address(this), requiredPayment) */\n      mload(0x40)\n      dup5\n      0xffffffff\n      and\n      0xe0\n      shl\n      dup2\n      mstore\n      0x04\n      add\n      tag_184\n      swap4\n      swap3\n      swap2\n      swap1\n      tag_142\n      jump\t// in\n    tag_184:\n      0x20\n      mload(0x40)\n      dup1\n      dup4\n      sub\n      dup2\n      0x00\n      dup8\n      gas\n      call\n      iszero\n      dup1\n      iszero\n      tag_186\n      jumpi\n      returndatasize\n      0x00\n      dup1\n      returndatacopy\n      revert(0x00, returndatasize)\n    tag_186:\n      pop\n      pop\n      pop\n      pop\n      mload(0x40)\n      returndatasize\n      not(0x1f)\n      0x1f\n      dup3\n      add\n      and\n      dup3\n      add\n      dup1\n      0x40\n      mstore\n      pop\n      dup2\n      add\n      swap1\n      tag_187\n      swap2\n      swap1\n      tag_93\n      jump\t// in\n    tag_187:\n        /* \"contracts/RscUsdtEarn.sol\":3410:3518  require(IERC20(usdtTokenAddress).transferFrom(msg.sender, address(this), requiredPayment), \"Payment failed\") */\n      tag_188\n      jumpi\n      mload(0x40)\n      0x08c379a000000000000000000000000000000000000000000000000000000000\n      dup2\n      mstore\n      0x04\n      add\n      tag_189\n      swap1\n      tag_148\n      jump\t// in\n    tag_189:\n      mload(0x40)\n      dup1\n      swap2\n      sub\n      swap1\n      revert\n    tag_188:\n        /* \"contracts/RscUsdtEarn.sol\":3578:3635  _removeUserFromLevel(msg.sender, users[msg.sender].level) */\n      tag_190\n        /* \"contracts/RscUsdtEarn.sol\":3599:3609  msg.sender */\n      caller\n        /* \"contracts/RscUsdtEarn.sol\":3611:3616  users */\n      0x05\n        /* \"contracts/RscUsdtEarn.sol\":3611:3628  users[msg.sender] */\n      0x00\n        /* \"contracts/RscUsdtEarn.sol\":3617:3627  msg.sender */\n      caller\n        /* \"contracts/RscUsdtEarn.sol\":3611:3628  users[msg.sender] */\n      0xffffffffffffffffffffffffffffffffffffffff\n      and\n      0xffffffffffffffffffffffffffffffffffffffff\n      and\n      dup2\n      mstore\n      0x20\n      add\n      swap1\n      dup2\n      mstore\n      0x20\n      add\n      0x00\n      keccak256\n        /* \"contracts/RscUsdtEarn.sol\":3611:3634  users[msg.sender].level */\n      0x02\n      add\n      sload\n        /* \"contracts/RscUsdtEarn.sol\":3578:3598  _removeUserFromLevel */\n      tag_156\n        /* \"contracts/RscUsdtEarn.sol\":3578:3635  _removeUserFromLevel(msg.sender, users[msg.sender].level) */\n      jump\t// in\n    tag_190:\n        /* \"contracts/RscUsdtEarn.sol\":3710:3723  _desiredLevel */\n      dup2\n        /* \"contracts/RscUsdtEarn.sol\":3684:3689  users */\n      0x05\n        /* \"contracts/RscUsdtEarn.sol\":3684:3701  users[msg.sender] */\n      0x00\n        /* \"contracts/RscUsdtEarn.sol\":3690:3700  msg.sender */\n      caller\n        /* \"contracts/RscUsdtEarn.sol\":3684:3701  users[msg.sender] */\n      0xffffffffffffffffffffffffffffffffffffffff\n      and\n      0xffffffffffffffffffffffffffffffffffffffff\n      and\n      dup2\n      mstore\n      0x20\n      add\n      swap1\n      dup2\n      mstore\n      0x20\n      add\n      0x00\n      keccak256\n        /* \"contracts/RscUsdtEarn.sol\":3684:3707  users[msg.sender].level */\n      0x02\n      add\n        /* \"contracts/RscUsdtEarn.sol\":3684:3723  users[msg.sender].level = _desiredLevel */\n      dup2\n      swap1\n      sstore\n      pop\n        /* \"contracts/RscUsdtEarn.sol\":3778:3784  levels */\n      0x06\n        /* \"contracts/RscUsdtEarn.sol\":3778:3799  levels[_desiredLevel] */\n      0x00\n        /* \"contracts/RscUsdtEarn.sol\":3785:3798  _desiredLevel */\n      dup4\n        /* \"contracts/RscUsdtEarn.sol\":3778:3799  levels[_desiredLevel] */\n      dup2\n      mstore\n      0x20\n      add\n      swap1\n      dup2\n      mstore\n      0x20\n      add\n      0x00\n      keccak256\n        /* \"contracts/RscUsdtEarn.sol\":3805:3815  msg.sender */\n      caller\n        /* \"contracts/RscUsdtEarn.sol\":3778:3816  levels[_desiredLevel].push(msg.sender) */\n      swap1\n      dup1\n      0x01\n      dup2\n      sload\n      add\n      dup1\n      dup3\n      sstore\n      dup1\n      swap2\n      pop\n      pop\n      0x01\n      swap1\n      sub\n      swap1\n      0x00\n      mstore\n      keccak256(0x00, 0x20)\n      add\n      0x00\n      swap1\n      swap2\n      swap1\n      swap2\n      swap1\n      swap2\n      0x0100\n      exp\n      dup2\n      sload\n      dup2\n      0xffffffffffffffffffffffffffffffffffffffff\n      mul\n      not\n      and\n      swap1\n      dup4\n      0xffffffffffffffffffffffffffffffffffffffff\n      and\n      mul\n      or\n      swap1\n      sstore\n      pop\n        /* \"contracts/RscUsdtEarn.sol\":3848:3863  requiredPayment */\n      dup1\n        /* \"contracts/RscUsdtEarn.sol\":3829:3844  totalIncomePool */\n      0x07\n      0x00\n        /* \"contracts/RscUsdtEarn.sol\":3829:3863  totalIncomePool += requiredPayment */\n      dup3\n      dup3\n      sload\n      tag_192\n      swap2\n      swap1\n      tag_116\n      jump\t// in\n    tag_192:\n      swap3\n      pop\n      pop\n      dup2\n      swap1\n      sstore\n      pop\n        /* \"contracts/RscUsdtEarn.sol\":3895:3905  msg.sender */\n      caller\n        /* \"contracts/RscUsdtEarn.sol\":3881:3921  LevelUpgraded(msg.sender, _desiredLevel) */\n      0xffffffffffffffffffffffffffffffffffffffff\n      and\n      0x427898149ffa0bd0a638b73a8506cc040ca0034a36bdb547db4fb73fd0313c02\n        /* \"contracts/RscUsdtEarn.sol\":3907:3920  _desiredLevel */\n      dup4\n        /* \"contracts/RscUsdtEarn.sol\":3881:3921  LevelUpgraded(msg.sender, _desiredLevel) */\n      mload(0x40)\n      tag_193\n      swap2\n      swap1\n      tag_23\n      jump\t// in\n    tag_193:\n      mload(0x40)\n      dup1\n      swap2\n      sub\n      swap1\n      log2\n        /* \"contracts/RscUsdtEarn.sol\":3048:3929  {... */\n      pop\n        /* \"contracts/RscUsdtEarn.sol\":2994:3929  function upgradeLevel(uint256 _desiredLevel) external {... */\n      pop\n      jump\t// out\n        /* \"contracts/RscUsdtEarn.sol\":6823:7209  function calculateLevelShare(uint256 _level) internal pure returns (uint256) {... */\n    tag_102:\n        /* \"contracts/RscUsdtEarn.sol\":6891:6898  uint256 */\n      0x00\n        /* \"contracts/RscUsdtEarn.sol\":6925:6926  1 */\n      0x01\n        /* \"contracts/RscUsdtEarn.sol\":6915:6921  _level */\n      dup3\n        /* \"contracts/RscUsdtEarn.sol\":6915:6926  _level == 1 */\n      sub\n        /* \"contracts/RscUsdtEarn.sol\":6911:6937  if (_level == 1) return 16 */\n      tag_195\n      jumpi\n        /* \"contracts/RscUsdtEarn.sol\":6935:6937  16 */\n      0x10\n        /* \"contracts/RscUsdtEarn.sol\":6928:6937  return 16 */\n      swap1\n      pop\n      jump(tag_194)\n        /* \"contracts/RscUsdtEarn.sol\":6911:6937  if (_level == 1) return 16 */\n    tag_195:\n        /* \"contracts/RscUsdtEarn.sol\":6981:6982  2 */\n      0x02\n        /* \"contracts/RscUsdtEarn.sol\":6971:6977  _level */\n      dup3\n        /* \"contracts/RscUsdtEarn.sol\":6971:6982  _level == 2 */\n      sub\n        /* \"contracts/RscUsdtEarn.sol\":6967:6993  if (_level == 2) return 18 */\n      tag_196\n      jumpi\n        /* \"contracts/RscUsdtEarn.sol\":6991:6993  18 */\n      0x12\n        /* \"contracts/RscUsdtEarn.sol\":6984:6993  return 18 */\n      swap1\n      pop\n      jump(tag_194)\n        /* \"contracts/RscUsdtEarn.sol\":6967:6993  if (_level == 2) return 18 */\n    tag_196:\n        /* \"contracts/RscUsdtEarn.sol\":7037:7038  3 */\n      0x03\n        /* \"contracts/RscUsdtEarn.sol\":7027:7033  _level */\n      dup3\n        /* \"contracts/RscUsdtEarn.sol\":7027:7038  _level == 3 */\n      sub\n        /* \"contracts/RscUsdtEarn.sol\":7023:7049  if (_level == 3) return 20 */\n      tag_197\n      jumpi\n        /* \"contracts/RscUsdtEarn.sol\":7047:7049  20 */\n      0x14\n        /* \"contracts/RscUsdtEarn.sol\":7040:7049  return 20 */\n      swap1\n      pop\n      jump(tag_194)\n        /* \"contracts/RscUsdtEarn.sol\":7023:7049  if (_level == 3) return 20 */\n    tag_197:\n        /* \"contracts/RscUsdtEarn.sol\":7093:7094  4 */\n      0x04\n        /* \"contracts/RscUsdtEarn.sol\":7083:7089  _level */\n      dup3\n        /* \"contracts/RscUsdtEarn.sol\":7083:7094  _level == 4 */\n      sub\n        /* \"contracts/RscUsdtEarn.sol\":7079:7105  if (_level == 4) return 22 */\n      tag_198\n      jumpi\n        /* \"contracts/RscUsdtEarn.sol\":7103:7105  22 */\n      0x16\n        /* \"contracts/RscUsdtEarn.sol\":7096:7105  return 22 */\n      swap1\n      pop\n      jump(tag_194)\n        /* \"contracts/RscUsdtEarn.sol\":7079:7105  if (_level == 4) return 22 */\n    tag_198:\n        /* \"contracts/RscUsdtEarn.sol\":7150:7151  5 */\n      0x05\n        /* \"contracts/RscUsdtEarn.sol\":7140:7146  _level */\n      dup3\n        /* \"contracts/RscUsdtEarn.sol\":7140:7151  _level == 5 */\n      sub\n        /* \"contracts/RscUsdtEarn.sol\":7136:7162  if (_level == 5) return 24 */\n      tag_199\n      jumpi\n        /* \"contracts/RscUsdtEarn.sol\":7160:7162  24 */\n      0x18\n        /* \"contracts/RscUsdtEarn.sol\":7153:7162  return 24 */\n      swap1\n      pop\n      jump(tag_194)\n        /* \"contracts/RscUsdtEarn.sol\":7136:7162  if (_level == 5) return 24 */\n    tag_199:\n        /* \"contracts/RscUsdtEarn.sol\":7200:7201  0 */\n      0x00\n        /* \"contracts/RscUsdtEarn.sol\":7193:7201  return 0 */\n      swap1\n      pop\n        /* \"contracts/RscUsdtEarn.sol\":6823:7209  function calculateLevelShare(uint256 _level) internal pure returns (uint256) {... */\n    tag_194:\n      swap2\n      swap1\n      pop\n      jump\t// out\n        /* \"contracts/RscUsdtEarn.sol\":6420:6815  function determineLevel(uint256 _referrals) internal pure returns (uint256) {... */\n    tag_153:\n        /* \"contracts/RscUsdtEarn.sol\":6487:6494  uint256 */\n      0x00\n        /* \"contracts/RscUsdtEarn.sol\":6525:6526  1 */\n      0x01\n        /* \"contracts/RscUsdtEarn.sol\":6511:6521  _referrals */\n      dup3\n        /* \"contracts/RscUsdtEarn.sol\":6511:6526  _referrals >= 1 */\n      lt\n      iszero\n        /* \"contracts/RscUsdtEarn.sol\":6511:6545  _referrals >= 1 && _referrals <= 9 */\n      dup1\n      iszero\n      tag_201\n      jumpi\n      pop\n        /* \"contracts/RscUsdtEarn.sol\":6544:6545  9 */\n      0x09\n        /* \"contracts/RscUsdtEarn.sol\":6530:6540  _referrals */\n      dup3\n        /* \"contracts/RscUsdtEarn.sol\":6530:6545  _referrals <= 9 */\n      gt\n      iszero\n        /* \"contracts/RscUsdtEarn.sol\":6511:6545  _referrals >= 1 && _referrals <= 9 */\n    tag_201:\n        /* \"contracts/RscUsdtEarn.sol\":6507:6555  if (_referrals >= 1 && _referrals <= 9) return 1 */\n      iszero\n      tag_202\n      jumpi\n        /* \"contracts/RscUsdtEarn.sol\":6554:6555  1 */\n      0x01\n        /* \"contracts/RscUsdtEarn.sol\":6547:6555  return 1 */\n      swap1\n      pop\n      jump(tag_200)\n        /* \"contracts/RscUsdtEarn.sol\":6507:6555  if (_referrals >= 1 && _referrals <= 9) return 1 */\n    tag_202:\n        /* \"contracts/RscUsdtEarn.sol\":6584:6586  10 */\n      0x0a\n        /* \"contracts/RscUsdtEarn.sol\":6570:6580  _referrals */\n      dup3\n        /* \"contracts/RscUsdtEarn.sol\":6570:6586  _referrals >= 10 */\n      lt\n      iszero\n        /* \"contracts/RscUsdtEarn.sol\":6570:6606  _referrals >= 10 && _referrals <= 99 */\n      dup1\n      iszero\n      tag_203\n      jumpi\n      pop\n        /* \"contracts/RscUsdtEarn.sol\":6604:6606  99 */\n      0x63\n        /* \"contracts/RscUsdtEarn.sol\":6590:6600  _referrals */\n      dup3\n        /* \"contracts/RscUsdtEarn.sol\":6590:6606  _referrals <= 99 */\n      gt\n      iszero\n        /* \"contracts/RscUsdtEarn.sol\":6570:6606  _referrals >= 10 && _referrals <= 99 */\n    tag_203:\n        /* \"contracts/RscUsdtEarn.sol\":6566:6616  if (_referrals >= 10 && _referrals <= 99) return 2 */\n      iszero\n      tag_204\n      jumpi\n        /* \"contracts/RscUsdtEarn.sol\":6615:6616  2 */\n      0x02\n        /* \"contracts/RscUsdtEarn.sol\":6608:6616  return 2 */\n      swap1\n      pop\n      jump(tag_200)\n        /* \"contracts/RscUsdtEarn.sol\":6566:6616  if (_referrals >= 10 && _referrals <= 99) return 2 */\n    tag_204:\n        /* \"contracts/RscUsdtEarn.sol\":6645:6648  100 */\n      0x64\n        /* \"contracts/RscUsdtEarn.sol\":6631:6641  _referrals */\n      dup3\n        /* \"contracts/RscUsdtEarn.sol\":6631:6648  _referrals >= 100 */\n      lt\n      iszero\n        /* \"contracts/RscUsdtEarn.sol\":6631:6669  _referrals >= 100 && _referrals <= 999 */\n      dup1\n      iszero\n      tag_205\n      jumpi\n      pop\n        /* \"contracts/RscUsdtEarn.sol\":6666:6669  999 */\n      0x03e7\n        /* \"contracts/RscUsdtEarn.sol\":6652:6662  _referrals */\n      dup3\n        /* \"contracts/RscUsdtEarn.sol\":6652:6669  _referrals <= 999 */\n      gt\n      iszero\n        /* \"contracts/RscUsdtEarn.sol\":6631:6669  _referrals >= 100 && _referrals <= 999 */\n    tag_205:\n        /* \"contracts/RscUsdtEarn.sol\":6627:6679  if (_referrals >= 100 && _referrals <= 999) return 3 */\n      iszero\n      tag_206\n      jumpi\n        /* \"contracts/RscUsdtEarn.sol\":6678:6679  3 */\n      0x03\n        /* \"contracts/RscUsdtEarn.sol\":6671:6679  return 3 */\n      swap1\n      pop\n      jump(tag_200)\n        /* \"contracts/RscUsdtEarn.sol\":6627:6679  if (_referrals >= 100 && _referrals <= 999) return 3 */\n    tag_206:\n        /* \"contracts/RscUsdtEarn.sol\":6708:6712  1000 */\n      0x03e8\n        /* \"contracts/RscUsdtEarn.sol\":6694:6704  _referrals */\n      dup3\n        /* \"contracts/RscUsdtEarn.sol\":6694:6712  _referrals >= 1000 */\n      lt\n      iszero\n        /* \"contracts/RscUsdtEarn.sol\":6694:6734  _referrals >= 1000 && _referrals <= 9999 */\n      dup1\n      iszero\n      tag_207\n      jumpi\n      pop\n        /* \"contracts/RscUsdtEarn.sol\":6730:6734  9999 */\n      0x270f\n        /* \"contracts/RscUsdtEarn.sol\":6716:6726  _referrals */\n      dup3\n        /* \"contracts/RscUsdtEarn.sol\":6716:6734  _referrals <= 9999 */\n      gt\n      iszero\n        /* \"contracts/RscUsdtEarn.sol\":6694:6734  _referrals >= 1000 && _referrals <= 9999 */\n    tag_207:\n        /* \"contracts/RscUsdtEarn.sol\":6690:6744  if (_referrals >= 1000 && _referrals <= 9999) return 4 */\n      iszero\n      tag_208\n      jumpi\n        /* \"contracts/RscUsdtEarn.sol\":6743:6744  4 */\n      0x04\n        /* \"contracts/RscUsdtEarn.sol\":6736:6744  return 4 */\n      swap1\n      pop\n      jump(tag_200)\n        /* \"contracts/RscUsdtEarn.sol\":6690:6744  if (_referrals >= 1000 && _referrals <= 9999) return 4 */\n    tag_208:\n        /* \"contracts/RscUsdtEarn.sol\":6773:6778  10000 */\n      0x2710\n        /* \"contracts/RscUsdtEarn.sol\":6759:6769  _referrals */\n      dup3\n        /* \"contracts/RscUsdtEarn.sol\":6759:6778  _referrals >= 10000 */\n      lt\n        /* \"contracts/RscUsdtEarn.sol\":6755:6788  if (_referrals >= 10000) return 5 */\n      tag_209\n      jumpi\n        /* \"contracts/RscUsdtEarn.sol\":6787:6788  5 */\n      0x05\n        /* \"contracts/RscUsdtEarn.sol\":6780:6788  return 5 */\n      swap1\n      pop\n      jump(tag_200)\n        /* \"contracts/RscUsdtEarn.sol\":6755:6788  if (_referrals >= 10000) return 5 */\n    tag_209:\n        /* \"contracts/RscUsdtEarn.sol\":6806:6807  0 */\n      0x00\n        /* \"contracts/RscUsdtEarn.sol\":6799:6807  return 0 */\n      swap1\n      pop\n        /* \"contracts/RscUsdtEarn.sol\":6420:6815  function determineLevel(uint256 _referrals) internal pure returns (uint256) {... */\n    tag_200:\n      swap2\n      swap1\n      pop\n      jump\t// out\n        /* \"contracts/RscUsdtEarn.sol\":7217:7756  function _removeUserFromLevel(address _user, uint256 _level) internal {... */\n    tag_156:\n        /* \"contracts/RscUsdtEarn.sol\":7360:7388  address[] storage levelUsers */\n      0x00\n        /* \"contracts/RscUsdtEarn.sol\":7391:7397  levels */\n      0x06\n        /* \"contracts/RscUsdtEarn.sol\":7391:7405  levels[_level] */\n      0x00\n        /* \"contracts/RscUsdtEarn.sol\":7398:7404  _level */\n      dup4\n        /* \"contracts/RscUsdtEarn.sol\":7391:7405  levels[_level] */\n      dup2\n      mstore\n      0x20\n      add\n      swap1\n      dup2\n      mstore\n      0x20\n      add\n      0x00\n      keccak256\n        /* \"contracts/RscUsdtEarn.sol\":7360:7405  address[] storage levelUsers = levels[_level] */\n      swap1\n      pop\n        /* \"contracts/RscUsdtEarn.sol\":7421:7430  uint256 i */\n      0x00\n        /* \"contracts/RscUsdtEarn.sol\":7416:7749  for (uint256 i = 0; i < levelUsers.length; i++) {... */\n    tag_211:\n        /* \"contracts/RscUsdtEarn.sol\":7440:7450  levelUsers */\n      dup2\n        /* \"contracts/RscUsdtEarn.sol\":7440:7457  levelUsers.length */\n      dup1\n      sload\n      swap1\n      pop\n        /* \"contracts/RscUsdtEarn.sol\":7436:7437  i */\n      dup2\n        /* \"contracts/RscUsdtEarn.sol\":7436:7457  i < levelUsers.length */\n      lt\n        /* \"contracts/RscUsdtEarn.sol\":7416:7749  for (uint256 i = 0; i < levelUsers.length; i++) {... */\n      iszero\n      tag_212\n      jumpi\n        /* \"contracts/RscUsdtEarn.sol\":7500:7505  _user */\n      dup4\n        /* \"contracts/RscUsdtEarn.sol\":7483:7505  levelUsers[i] == _user */\n      0xffffffffffffffffffffffffffffffffffffffff\n      and\n        /* \"contracts/RscUsdtEarn.sol\":7483:7493  levelUsers */\n      dup3\n        /* \"contracts/RscUsdtEarn.sol\":7494:7495  i */\n      dup3\n        /* \"contracts/RscUsdtEarn.sol\":7483:7496  levelUsers[i] */\n      dup2\n      sload\n      dup2\n      lt\n      tag_214\n      jumpi\n      tag_215\n      tag_114\n      jump\t// in\n    tag_215:\n    tag_214:\n      swap1\n      0x00\n      mstore\n      keccak256(0x00, 0x20)\n      add\n      0x00\n      swap1\n      sload\n      swap1\n      0x0100\n      exp\n      swap1\n      div\n      0xffffffffffffffffffffffffffffffffffffffff\n      and\n        /* \"contracts/RscUsdtEarn.sol\":7483:7505  levelUsers[i] == _user */\n      0xffffffffffffffffffffffffffffffffffffffff\n      and\n      sub\n        /* \"contracts/RscUsdtEarn.sol\":7479:7738  if (levelUsers[i] == _user) {... */\n      tag_217\n      jumpi\n        /* \"contracts/RscUsdtEarn.sol\":7630:7640  levelUsers */\n      dup2\n        /* \"contracts/RscUsdtEarn.sol\":7661:7662  1 */\n      0x01\n        /* \"contracts/RscUsdtEarn.sol\":7641:7651  levelUsers */\n      dup4\n        /* \"contracts/RscUsdtEarn.sol\":7641:7658  levelUsers.length */\n      dup1\n      sload\n      swap1\n      pop\n        /* \"contracts/RscUsdtEarn.sol\":7641:7662  levelUsers.length - 1 */\n      tag_218\n      swap2\n      swap1\n      tag_87\n      jump\t// in\n    tag_218:\n        /* \"contracts/RscUsdtEarn.sol\":7630:7663  levelUsers[levelUsers.length - 1] */\n      dup2\n      sload\n      dup2\n      lt\n      tag_219\n      jumpi\n      tag_220\n      tag_114\n      jump\t// in\n    tag_220:\n    tag_219:\n      swap1\n      0x00\n      mstore\n      keccak256(0x00, 0x20)\n      add\n      0x00\n      swap1\n      sload\n      swap1\n      0x0100\n      exp\n      swap1\n      div\n      0xffffffffffffffffffffffffffffffffffffffff\n      and\n        /* \"contracts/RscUsdtEarn.sol\":7614:7624  levelUsers */\n      dup3\n        /* \"contracts/RscUsdtEarn.sol\":7625:7626  i */\n      dup3\n        /* \"contracts/RscUsdtEarn.sol\":7614:7627  levelUsers[i] */\n      dup2\n      sload\n      dup2\n      lt\n      tag_222\n      jumpi\n      tag_223\n      tag_114\n      jump\t// in\n    tag_223:\n    tag_222:\n      swap1\n      0x00\n      mstore\n      keccak256(0x00, 0x20)\n      add\n      0x00\n        /* \"contracts/RscUsdtEarn.sol\":7614:7663  levelUsers[i] = levelUsers[levelUsers.length - 1] */\n      0x0100\n      exp\n      dup2\n      sload\n      dup2\n      0xffffffffffffffffffffffffffffffffffffffff\n      mul\n      not\n      and\n      swap1\n      dup4\n      0xffffffffffffffffffffffffffffffffffffffff\n      and\n      mul\n      or\n      swap1\n      sstore\n      pop\n        /* \"contracts/RscUsdtEarn.sol\":7682:7692  levelUsers */\n      dup2\n        /* \"contracts/RscUsdtEarn.sol\":7682:7698  levelUsers.pop() */\n      dup1\n      sload\n      dup1\n      tag_225\n      jumpi\n      tag_226\n      tag_227\n      jump\t// in\n    tag_226:\n    tag_225:\n      0x01\n      swap1\n      sub\n      dup2\n      dup2\n      swap1\n      0x00\n      mstore\n      keccak256(0x00, 0x20)\n      add\n      exp(0x0100, 0x00)\n      dup2\n      sload\n      swap1\n      0xffffffffffffffffffffffffffffffffffffffff\n      mul\n      not\n      and\n      swap1\n      sstore\n      swap1\n      sstore\n        /* \"contracts/RscUsdtEarn.sol\":7717:7722  break */\n      jump(tag_212)\n        /* \"contracts/RscUsdtEarn.sol\":7479:7738  if (levelUsers[i] == _user) {... */\n    tag_217:\n        /* \"contracts/RscUsdtEarn.sol\":7459:7462  i++ */\n      dup1\n      dup1\n      0x01\n      add\n      swap2\n      pop\n      pop\n        /* \"contracts/RscUsdtEarn.sol\":7416:7749  for (uint256 i = 0; i < levelUsers.length; i++) {... */\n      jump(tag_211)\n    tag_212:\n      pop\n        /* \"contracts/RscUsdtEarn.sol\":7287:7756  {... */\n      pop\n        /* \"contracts/RscUsdtEarn.sol\":7217:7756  function _removeUserFromLevel(address _user, uint256 _level) internal {... */\n      pop\n      pop\n      jump\t// out\n        /* \"contracts/RscUsdtEarn.sol\":4279:4554  function payReferralReward(address _referrer) internal {... */\n    tag_159:\n        /* \"contracts/RscUsdtEarn.sol\":4345:4359  uint256 reward */\n      0x00\n        /* \"contracts/RscUsdtEarn.sol\":4387:4390  100 */\n      0x64\n        /* \"contracts/RscUsdtEarn.sol\":4381:4383  50 */\n      0x32\n        /* \"contracts/RscUsdtEarn.sol\":4363:4378  registrationFee */\n      sload(0x02)\n        /* \"contracts/RscUsdtEarn.sol\":4363:4383  registrationFee * 50 */\n      tag_230\n      swap2\n      swap1\n      tag_83\n      jump\t// in\n    tag_230:\n        /* \"contracts/RscUsdtEarn.sol\":4362:4390  (registrationFee * 50) / 100 */\n      tag_231\n      swap2\n      swap1\n      tag_85\n      jump\t// in\n    tag_231:\n        /* \"contracts/RscUsdtEarn.sol\":4345:4390  uint256 reward = (registrationFee * 50) / 100 */\n      swap1\n      pop\n        /* \"contracts/RscUsdtEarn.sol\":4450:4456  reward */\n      dup1\n        /* \"contracts/RscUsdtEarn.sol\":4423:4428  users */\n      0x05\n        /* \"contracts/RscUsdtEarn.sol\":4423:4439  users[_referrer] */\n      0x00\n        /* \"contracts/RscUsdtEarn.sol\":4429:4438  _referrer */\n      dup5\n        /* \"contracts/RscUsdtEarn.sol\":4423:4439  users[_referrer] */\n      0xffffffffffffffffffffffffffffffffffffffff\n      and\n      0xffffffffffffffffffffffffffffffffffffffff\n      and\n      dup2\n      mstore\n      0x20\n      add\n      swap1\n      dup2\n      mstore\n      0x20\n      add\n      0x00\n      keccak256\n        /* \"contracts/RscUsdtEarn.sol\":4423:4446  users[_referrer].earned */\n      0x03\n      add\n      0x00\n        /* \"contracts/RscUsdtEarn.sol\":4423:4456  users[_referrer].earned += reward */\n      dup3\n      dup3\n      sload\n      tag_232\n      swap2\n      swap1\n      tag_116\n      jump\t// in\n    tag_232:\n      swap3\n      pop\n      pop\n      dup2\n      swap1\n      sstore\n      pop\n        /* \"contracts/RscUsdtEarn.sol\":4528:4537  _referrer */\n      dup2\n        /* \"contracts/RscUsdtEarn.sol\":4515:4546  ReferralPaid(_referrer, reward) */\n      0xffffffffffffffffffffffffffffffffffffffff\n      and\n      0x6292f4f27d8047af4537a4bd86906de0e2c880c20086f7f58b81eacfeb639126\n        /* \"contracts/RscUsdtEarn.sol\":4539:4545  reward */\n      dup3\n        /* \"contracts/RscUsdtEarn.sol\":4515:4546  ReferralPaid(_referrer, reward) */\n      mload(0x40)\n      tag_233\n      swap2\n      swap1\n      tag_23\n      jump\t// in\n    tag_233:\n      mload(0x40)\n      dup1\n      swap2\n      sub\n      swap1\n      log2\n        /* \"contracts/RscUsdtEarn.sol\":4334:4554  {... */\n      pop\n        /* \"contracts/RscUsdtEarn.sol\":4279:4554  function payReferralReward(address _referrer) internal {... */\n      pop\n      jump\t// out\n        /* \"#utility.yul\":7:84   */\n    tag_234:\n        /* \"#utility.yul\":44:51   */\n      0x00\n        /* \"#utility.yul\":73:78   */\n      dup2\n        /* \"#utility.yul\":62:78   */\n      swap1\n      pop\n        /* \"#utility.yul\":7:84   */\n      swap2\n      swap1\n      pop\n      jump\t// out\n        /* \"#utility.yul\":90:208   */\n    tag_235:\n        /* \"#utility.yul\":177:201   */\n      tag_283\n        /* \"#utility.yul\":195:200   */\n      dup2\n        /* \"#utility.yul\":177:201   */\n      tag_234\n      jump\t// in\n    tag_283:\n        /* \"#utility.yul\":172:175   */\n      dup3\n        /* \"#utility.yul\":165:202   */\n      mstore\n        /* \"#utility.yul\":90:208   */\n      pop\n      pop\n      jump\t// out\n        /* \"#utility.yul\":214:436   */\n    tag_23:\n        /* \"#utility.yul\":307:311   */\n      0x00\n        /* \"#utility.yul\":345:347   */\n      0x20\n        /* \"#utility.yul\":334:343   */\n      dup3\n        /* \"#utility.yul\":330:348   */\n      add\n        /* \"#utility.yul\":322:348   */\n      swap1\n      pop\n        /* \"#utility.yul\":358:429   */\n      tag_285\n        /* \"#utility.yul\":426:427   */\n      0x00\n        /* \"#utility.yul\":415:424   */\n      dup4\n        /* \"#utility.yul\":411:428   */\n      add\n        /* \"#utility.yul\":402:408   */\n      dup5\n        /* \"#utility.yul\":358:429   */\n      tag_235\n      jump\t// in\n    tag_285:\n        /* \"#utility.yul\":214:436   */\n      swap3\n      swap2\n      pop\n      pop\n      jump\t// out\n        /* \"#utility.yul\":523:640   */\n    tag_237:\n        /* \"#utility.yul\":632:633   */\n      0x00\n        /* \"#utility.yul\":629:630   */\n      dup1\n        /* \"#utility.yul\":622:634   */\n      revert\n        /* \"#utility.yul\":769:891   */\n    tag_239:\n        /* \"#utility.yul\":842:866   */\n      tag_290\n        /* \"#utility.yul\":860:865   */\n      dup2\n        /* \"#utility.yul\":842:866   */\n      tag_234\n      jump\t// in\n    tag_290:\n        /* \"#utility.yul\":835:840   */\n      dup2\n        /* \"#utility.yul\":832:867   */\n      eq\n        /* \"#utility.yul\":822:885   */\n      tag_291\n      jumpi\n        /* \"#utility.yul\":881:882   */\n      0x00\n        /* \"#utility.yul\":878:879   */\n      dup1\n        /* \"#utility.yul\":871:883   */\n      revert\n        /* \"#utility.yul\":822:885   */\n    tag_291:\n        /* \"#utility.yul\":769:891   */\n      pop\n      jump\t// out\n        /* \"#utility.yul\":897:1036   */\n    tag_240:\n        /* \"#utility.yul\":943:948   */\n      0x00\n        /* \"#utility.yul\":981:987   */\n      dup2\n        /* \"#utility.yul\":968:988   */\n      calldataload\n        /* \"#utility.yul\":959:988   */\n      swap1\n      pop\n        /* \"#utility.yul\":997:1030   */\n      tag_293\n        /* \"#utility.yul\":1024:1029   */\n      dup2\n        /* \"#utility.yul\":997:1030   */\n      tag_239\n      jump\t// in\n    tag_293:\n        /* \"#utility.yul\":897:1036   */\n      swap3\n      swap2\n      pop\n      pop\n      jump\t// out\n        /* \"#utility.yul\":1042:1371   */\n    tag_26:\n        /* \"#utility.yul\":1101:1107   */\n      0x00\n        /* \"#utility.yul\":1150:1152   */\n      0x20\n        /* \"#utility.yul\":1138:1147   */\n      dup3\n        /* \"#utility.yul\":1129:1136   */\n      dup5\n        /* \"#utility.yul\":1125:1148   */\n      sub\n        /* \"#utility.yul\":1121:1153   */\n      slt\n        /* \"#utility.yul\":1118:1237   */\n      iszero\n      tag_295\n      jumpi\n        /* \"#utility.yul\":1156:1235   */\n      tag_296\n      tag_237\n      jump\t// in\n    tag_296:\n        /* \"#utility.yul\":1118:1237   */\n    tag_295:\n        /* \"#utility.yul\":1276:1277   */\n      0x00\n        /* \"#utility.yul\":1301:1354   */\n      tag_297\n        /* \"#utility.yul\":1346:1353   */\n      dup5\n        /* \"#utility.yul\":1337:1343   */\n      dup3\n        /* \"#utility.yul\":1326:1335   */\n      dup6\n        /* \"#utility.yul\":1322:1344   */\n      add\n        /* \"#utility.yul\":1301:1354   */\n      tag_240\n      jump\t// in\n    tag_297:\n        /* \"#utility.yul\":1291:1354   */\n      swap2\n      pop\n        /* \"#utility.yul\":1247:1364   */\n      pop\n        /* \"#utility.yul\":1042:1371   */\n      swap3\n      swap2\n      pop\n      pop\n      jump\t// out\n        /* \"#utility.yul\":1377:1503   */\n    tag_241:\n        /* \"#utility.yul\":1414:1421   */\n      0x00\n        /* \"#utility.yul\":1454:1496   */\n      0xffffffffffffffffffffffffffffffffffffffff\n        /* \"#utility.yul\":1447:1452   */\n      dup3\n        /* \"#utility.yul\":1443:1497   */\n      and\n        /* \"#utility.yul\":1432:1497   */\n      swap1\n      pop\n        /* \"#utility.yul\":1377:1503   */\n      swap2\n      swap1\n      pop\n      jump\t// out\n        /* \"#utility.yul\":1509:1605   */\n    tag_242:\n        /* \"#utility.yul\":1546:1553   */\n      0x00\n        /* \"#utility.yul\":1575:1599   */\n      tag_300\n        /* \"#utility.yul\":1593:1598   */\n      dup3\n        /* \"#utility.yul\":1575:1599   */\n      tag_241\n      jump\t// in\n    tag_300:\n        /* \"#utility.yul\":1564:1599   */\n      swap1\n      pop\n        /* \"#utility.yul\":1509:1605   */\n      swap2\n      swap1\n      pop\n      jump\t// out\n        /* \"#utility.yul\":1611:1729   */\n    tag_243:\n        /* \"#utility.yul\":1698:1722   */\n      tag_302\n        /* \"#utility.yul\":1716:1721   */\n      dup2\n        /* \"#utility.yul\":1698:1722   */\n      tag_242\n      jump\t// in\n    tag_302:\n        /* \"#utility.yul\":1693:1696   */\n      dup3\n        /* \"#utility.yul\":1686:1723   */\n      mstore\n        /* \"#utility.yul\":1611:1729   */\n      pop\n      pop\n      jump\t// out\n        /* \"#utility.yul\":1735:1957   */\n    tag_34:\n        /* \"#utility.yul\":1828:1832   */\n      0x00\n        /* \"#utility.yul\":1866:1868   */\n      0x20\n        /* \"#utility.yul\":1855:1864   */\n      dup3\n        /* \"#utility.yul\":1851:1869   */\n      add\n        /* \"#utility.yul\":1843:1869   */\n      swap1\n      pop\n        /* \"#utility.yul\":1879:1950   */\n      tag_304\n        /* \"#utility.yul\":1947:1948   */\n      0x00\n        /* \"#utility.yul\":1936:1945   */\n      dup4\n        /* \"#utility.yul\":1932:1949   */\n      add\n        /* \"#utility.yul\":1923:1929   */\n      dup5\n        /* \"#utility.yul\":1879:1950   */\n      tag_243\n      jump\t// in\n    tag_304:\n        /* \"#utility.yul\":1735:1957   */\n      swap3\n      swap2\n      pop\n      pop\n      jump\t// out\n        /* \"#utility.yul\":1963:2085   */\n    tag_244:\n        /* \"#utility.yul\":2036:2060   */\n      tag_306\n        /* \"#utility.yul\":2054:2059   */\n      dup2\n        /* \"#utility.yul\":2036:2060   */\n      tag_242\n      jump\t// in\n    tag_306:\n        /* \"#utility.yul\":2029:2034   */\n      dup2\n        /* \"#utility.yul\":2026:2061   */\n      eq\n        /* \"#utility.yul\":2016:2079   */\n      tag_307\n      jumpi\n        /* \"#utility.yul\":2075:2076   */\n      0x00\n        /* \"#utility.yul\":2072:2073   */\n      dup1\n        /* \"#utility.yul\":2065:2077   */\n      revert\n        /* \"#utility.yul\":2016:2079   */\n    tag_307:\n        /* \"#utility.yul\":1963:2085   */\n      pop\n      jump\t// out\n        /* \"#utility.yul\":2091:2230   */\n    tag_245:\n        /* \"#utility.yul\":2137:2142   */\n      0x00\n        /* \"#utility.yul\":2175:2181   */\n      dup2\n        /* \"#utility.yul\":2162:2182   */\n      calldataload\n        /* \"#utility.yul\":2153:2182   */\n      swap1\n      pop\n        /* \"#utility.yul\":2191:2224   */\n      tag_309\n        /* \"#utility.yul\":2218:2223   */\n      dup2\n        /* \"#utility.yul\":2191:2224   */\n      tag_244\n      jump\t// in\n    tag_309:\n        /* \"#utility.yul\":2091:2230   */\n      swap3\n      swap2\n      pop\n      pop\n      jump\t// out\n        /* \"#utility.yul\":2236:2565   */\n    tag_46:\n        /* \"#utility.yul\":2295:2301   */\n      0x00\n        /* \"#utility.yul\":2344:2346   */\n      0x20\n        /* \"#utility.yul\":2332:2341   */\n      dup3\n        /* \"#utility.yul\":2323:2330   */\n      dup5\n        /* \"#utility.yul\":2319:2342   */\n      sub\n        /* \"#utility.yul\":2315:2347   */\n      slt\n        /* \"#utility.yul\":2312:2431   */\n      iszero\n      tag_311\n      jumpi\n        /* \"#utility.yul\":2350:2429   */\n      tag_312\n      tag_237\n      jump\t// in\n    tag_312:\n        /* \"#utility.yul\":2312:2431   */\n    tag_311:\n        /* \"#utility.yul\":2470:2471   */\n      0x00\n        /* \"#utility.yul\":2495:2548   */\n      tag_313\n        /* \"#utility.yul\":2540:2547   */\n      dup5\n        /* \"#utility.yul\":2531:2537   */\n      dup3\n        /* \"#utility.yul\":2520:2529   */\n      dup6\n        /* \"#utility.yul\":2516:2538   */\n      add\n        /* \"#utility.yul\":2495:2548   */\n      tag_245\n      jump\t// in\n    tag_313:\n        /* \"#utility.yul\":2485:2548   */\n      swap2\n      pop\n        /* \"#utility.yul\":2441:2558   */\n      pop\n        /* \"#utility.yul\":2236:2565   */\n      swap3\n      swap2\n      pop\n      pop\n      jump\t// out\n        /* \"#utility.yul\":2571:2661   */\n    tag_246:\n        /* \"#utility.yul\":2605:2612   */\n      0x00\n        /* \"#utility.yul\":2648:2653   */\n      dup2\n        /* \"#utility.yul\":2641:2654   */\n      iszero\n        /* \"#utility.yul\":2634:2655   */\n      iszero\n        /* \"#utility.yul\":2623:2655   */\n      swap1\n      pop\n        /* \"#utility.yul\":2571:2661   */\n      swap2\n      swap1\n      pop\n      jump\t// out\n        /* \"#utility.yul\":2667:2776   */\n    tag_247:\n        /* \"#utility.yul\":2748:2769   */\n      tag_316\n        /* \"#utility.yul\":2763:2768   */\n      dup2\n        /* \"#utility.yul\":2748:2769   */\n      tag_246\n      jump\t// in\n    tag_316:\n        /* \"#utility.yul\":2743:2746   */\n      dup3\n        /* \"#utility.yul\":2736:2770   */\n      mstore\n        /* \"#utility.yul\":2667:2776   */\n      pop\n      pop\n      jump\t// out\n        /* \"#utility.yul\":2782:3434   */\n    tag_49:\n        /* \"#utility.yul\":2981:2985   */\n      0x00\n        /* \"#utility.yul\":3019:3022   */\n      0xa0\n        /* \"#utility.yul\":3008:3017   */\n      dup3\n        /* \"#utility.yul\":3004:3023   */\n      add\n        /* \"#utility.yul\":2996:3023   */\n      swap1\n      pop\n        /* \"#utility.yul\":3033:3104   */\n      tag_318\n        /* \"#utility.yul\":3101:3102   */\n      0x00\n        /* \"#utility.yul\":3090:3099   */\n      dup4\n        /* \"#utility.yul\":3086:3103   */\n      add\n        /* \"#utility.yul\":3077:3083   */\n      dup9\n        /* \"#utility.yul\":3033:3104   */\n      tag_243\n      jump\t// in\n    tag_318:\n        /* \"#utility.yul\":3114:3186   */\n      tag_319\n        /* \"#utility.yul\":3182:3184   */\n      0x20\n        /* \"#utility.yul\":3171:3180   */\n      dup4\n        /* \"#utility.yul\":3167:3185   */\n      add\n        /* \"#utility.yul\":3158:3164   */\n      dup8\n        /* \"#utility.yul\":3114:3186   */\n      tag_235\n      jump\t// in\n    tag_319:\n        /* \"#utility.yul\":3196:3268   */\n      tag_320\n        /* \"#utility.yul\":3264:3266   */\n      0x40\n        /* \"#utility.yul\":3253:3262   */\n      dup4\n        /* \"#utility.yul\":3249:3267   */\n      add\n        /* \"#utility.yul\":3240:3246   */\n      dup7\n        /* \"#utility.yul\":3196:3268   */\n      tag_235\n      jump\t// in\n    tag_320:\n        /* \"#utility.yul\":3278:3350   */\n      tag_321\n        /* \"#utility.yul\":3346:3348   */\n      0x60\n        /* \"#utility.yul\":3335:3344   */\n      dup4\n        /* \"#utility.yul\":3331:3349   */\n      add\n        /* \"#utility.yul\":3322:3328   */\n      dup6\n        /* \"#utility.yul\":3278:3350   */\n      tag_235\n      jump\t// in\n    tag_321:\n        /* \"#utility.yul\":3360:3427   */\n      tag_322\n        /* \"#utility.yul\":3422:3425   */\n      0x80\n        /* \"#utility.yul\":3411:3420   */\n      dup4\n        /* \"#utility.yul\":3407:3426   */\n      add\n        /* \"#utility.yul\":3398:3404   */\n      dup5\n        /* \"#utility.yul\":3360:3427   */\n      tag_247\n      jump\t// in\n    tag_322:\n        /* \"#utility.yul\":2782:3434   */\n      swap7\n      swap6\n      pop\n      pop\n      pop\n      pop\n      pop\n      pop\n      jump\t// out\n        /* \"#utility.yul\":3440:3914   */\n    tag_55:\n        /* \"#utility.yul\":3508:3514   */\n      0x00\n        /* \"#utility.yul\":3516:3522   */\n      dup1\n        /* \"#utility.yul\":3565:3567   */\n      0x40\n        /* \"#utility.yul\":3553:3562   */\n      dup4\n        /* \"#utility.yul\":3544:3551   */\n      dup6\n        /* \"#utility.yul\":3540:3563   */\n      sub\n        /* \"#utility.yul\":3536:3568   */\n      slt\n        /* \"#utility.yul\":3533:3652   */\n      iszero\n      tag_324\n      jumpi\n        /* \"#utility.yul\":3571:3650   */\n      tag_325\n      tag_237\n      jump\t// in\n    tag_325:\n        /* \"#utility.yul\":3533:3652   */\n    tag_324:\n        /* \"#utility.yul\":3691:3692   */\n      0x00\n        /* \"#utility.yul\":3716:3769   */\n      tag_326\n        /* \"#utility.yul\":3761:3768   */\n      dup6\n        /* \"#utility.yul\":3752:3758   */\n      dup3\n        /* \"#utility.yul\":3741:3750   */\n      dup7\n        /* \"#utility.yul\":3737:3759   */\n      add\n        /* \"#utility.yul\":3716:3769   */\n      tag_240\n      jump\t// in\n    tag_326:\n        /* \"#utility.yul\":3706:3769   */\n      swap3\n      pop\n        /* \"#utility.yul\":3662:3779   */\n      pop\n        /* \"#utility.yul\":3818:3820   */\n      0x20\n        /* \"#utility.yul\":3844:3897   */\n      tag_327\n        /* \"#utility.yul\":3889:3896   */\n      dup6\n        /* \"#utility.yul\":3880:3886   */\n      dup3\n        /* \"#utility.yul\":3869:3878   */\n      dup7\n        /* \"#utility.yul\":3865:3887   */\n      add\n        /* \"#utility.yul\":3844:3897   */\n      tag_240\n      jump\t// in\n    tag_327:\n        /* \"#utility.yul\":3834:3897   */\n      swap2\n      pop\n        /* \"#utility.yul\":3789:3907   */\n      pop\n        /* \"#utility.yul\":3440:3914   */\n      swap3\n      pop\n      swap3\n      swap1\n      pop\n      jump\t// out\n        /* \"#utility.yul\":3920:4034   */\n    tag_248:\n        /* \"#utility.yul\":3987:3993   */\n      0x00\n        /* \"#utility.yul\":4021:4026   */\n      dup2\n        /* \"#utility.yul\":4015:4027   */\n      mload\n        /* \"#utility.yul\":4005:4027   */\n      swap1\n      pop\n        /* \"#utility.yul\":3920:4034   */\n      swap2\n      swap1\n      pop\n      jump\t// out\n        /* \"#utility.yul\":4040:4224   */\n    tag_249:\n        /* \"#utility.yul\":4139:4150   */\n      0x00\n        /* \"#utility.yul\":4173:4179   */\n      dup3\n        /* \"#utility.yul\":4168:4171   */\n      dup3\n        /* \"#utility.yul\":4161:4180   */\n      mstore\n        /* \"#utility.yul\":4213:4217   */\n      0x20\n        /* \"#utility.yul\":4208:4211   */\n      dup3\n        /* \"#utility.yul\":4204:4218   */\n      add\n        /* \"#utility.yul\":4189:4218   */\n      swap1\n      pop\n        /* \"#utility.yul\":4040:4224   */\n      swap3\n      swap2\n      pop\n      pop\n      jump\t// out\n        /* \"#utility.yul\":4230:4362   */\n    tag_250:\n        /* \"#utility.yul\":4297:4301   */\n      0x00\n        /* \"#utility.yul\":4320:4323   */\n      dup2\n        /* \"#utility.yul\":4312:4323   */\n      swap1\n      pop\n        /* \"#utility.yul\":4350:4354   */\n      0x20\n        /* \"#utility.yul\":4345:4348   */\n      dup3\n        /* \"#utility.yul\":4341:4355   */\n      add\n        /* \"#utility.yul\":4333:4355   */\n      swap1\n      pop\n        /* \"#utility.yul\":4230:4362   */\n      swap2\n      swap1\n      pop\n      jump\t// out\n        /* \"#utility.yul\":4368:4476   */\n    tag_251:\n        /* \"#utility.yul\":4445:4469   */\n      tag_332\n        /* \"#utility.yul\":4463:4468   */\n      dup2\n        /* \"#utility.yul\":4445:4469   */\n      tag_242\n      jump\t// in\n    tag_332:\n        /* \"#utility.yul\":4440:4443   */\n      dup3\n        /* \"#utility.yul\":4433:4470   */\n      mstore\n        /* \"#utility.yul\":4368:4476   */\n      pop\n      pop\n      jump\t// out\n        /* \"#utility.yul\":4482:4661   */\n    tag_252:\n        /* \"#utility.yul\":4551:4561   */\n      0x00\n        /* \"#utility.yul\":4572:4618   */\n      tag_334\n        /* \"#utility.yul\":4614:4617   */\n      dup4\n        /* \"#utility.yul\":4606:4612   */\n      dup4\n        /* \"#utility.yul\":4572:4618   */\n      tag_251\n      jump\t// in\n    tag_334:\n        /* \"#utility.yul\":4650:4654   */\n      0x20\n        /* \"#utility.yul\":4645:4648   */\n      dup4\n        /* \"#utility.yul\":4641:4655   */\n      add\n        /* \"#utility.yul\":4627:4655   */\n      swap1\n      pop\n        /* \"#utility.yul\":4482:4661   */\n      swap3\n      swap2\n      pop\n      pop\n      jump\t// out\n        /* \"#utility.yul\":4667:4780   */\n    tag_253:\n        /* \"#utility.yul\":4737:4741   */\n      0x00\n        /* \"#utility.yul\":4769:4773   */\n      0x20\n        /* \"#utility.yul\":4764:4767   */\n      dup3\n        /* \"#utility.yul\":4760:4774   */\n      add\n        /* \"#utility.yul\":4752:4774   */\n      swap1\n      pop\n        /* \"#utility.yul\":4667:4780   */\n      swap2\n      swap1\n      pop\n      jump\t// out\n        /* \"#utility.yul\":4816:5548   */\n    tag_254:\n        /* \"#utility.yul\":4935:4938   */\n      0x00\n        /* \"#utility.yul\":4964:5018   */\n      tag_337\n        /* \"#utility.yul\":5012:5017   */\n      dup3\n        /* \"#utility.yul\":4964:5018   */\n      tag_248\n      jump\t// in\n    tag_337:\n        /* \"#utility.yul\":5034:5120   */\n      tag_338\n        /* \"#utility.yul\":5113:5119   */\n      dup2\n        /* \"#utility.yul\":5108:5111   */\n      dup6\n        /* \"#utility.yul\":5034:5120   */\n      tag_249\n      jump\t// in\n    tag_338:\n        /* \"#utility.yul\":5027:5120   */\n      swap4\n      pop\n        /* \"#utility.yul\":5144:5200   */\n      tag_339\n        /* \"#utility.yul\":5194:5199   */\n      dup4\n        /* \"#utility.yul\":5144:5200   */\n      tag_250\n      jump\t// in\n    tag_339:\n        /* \"#utility.yul\":5223:5230   */\n      dup1\n        /* \"#utility.yul\":5254:5255   */\n      0x00\n        /* \"#utility.yul\":5239:5523   */\n    tag_340:\n        /* \"#utility.yul\":5264:5270   */\n      dup4\n        /* \"#utility.yul\":5261:5262   */\n      dup2\n        /* \"#utility.yul\":5258:5271   */\n      lt\n        /* \"#utility.yul\":5239:5523   */\n      iszero\n      tag_342\n      jumpi\n        /* \"#utility.yul\":5340:5346   */\n      dup2\n        /* \"#utility.yul\":5334:5347   */\n      mload\n        /* \"#utility.yul\":5367:5430   */\n      tag_343\n        /* \"#utility.yul\":5426:5429   */\n      dup9\n        /* \"#utility.yul\":5411:5424   */\n      dup3\n        /* \"#utility.yul\":5367:5430   */\n      tag_252\n      jump\t// in\n    tag_343:\n        /* \"#utility.yul\":5360:5430   */\n      swap8\n      pop\n        /* \"#utility.yul\":5453:5513   */\n      tag_344\n        /* \"#utility.yul\":5506:5512   */\n      dup4\n        /* \"#utility.yul\":5453:5513   */\n      tag_253\n      jump\t// in\n    tag_344:\n        /* \"#utility.yul\":5443:5513   */\n      swap3\n      pop\n        /* \"#utility.yul\":5299:5523   */\n      pop\n        /* \"#utility.yul\":5286:5287   */\n      0x01\n        /* \"#utility.yul\":5283:5284   */\n      dup2\n        /* \"#utility.yul\":5279:5288   */\n      add\n        /* \"#utility.yul\":5274:5288   */\n      swap1\n      pop\n        /* \"#utility.yul\":5239:5523   */\n      jump(tag_340)\n    tag_342:\n        /* \"#utility.yul\":5243:5257   */\n      pop\n        /* \"#utility.yul\":5539:5542   */\n      dup6\n        /* \"#utility.yul\":5532:5542   */\n      swap4\n      pop\n        /* \"#utility.yul\":4940:5548   */\n      pop\n      pop\n      pop\n        /* \"#utility.yul\":4816:5548   */\n      swap3\n      swap2\n      pop\n      pop\n      jump\t// out\n        /* \"#utility.yul\":5554:5927   */\n    tag_65:\n        /* \"#utility.yul\":5697:5701   */\n      0x00\n        /* \"#utility.yul\":5735:5737   */\n      0x20\n        /* \"#utility.yul\":5724:5733   */\n      dup3\n        /* \"#utility.yul\":5720:5738   */\n      add\n        /* \"#utility.yul\":5712:5738   */\n      swap1\n      pop\n        /* \"#utility.yul\":5784:5793   */\n      dup2\n        /* \"#utility.yul\":5778:5782   */\n      dup2\n        /* \"#utility.yul\":5774:5794   */\n      sub\n        /* \"#utility.yul\":5770:5771   */\n      0x00\n        /* \"#utility.yul\":5759:5768   */\n      dup4\n        /* \"#utility.yul\":5755:5772   */\n      add\n        /* \"#utility.yul\":5748:5795   */\n      mstore\n        /* \"#utility.yul\":5812:5920   */\n      tag_346\n        /* \"#utility.yul\":5915:5919   */\n      dup2\n        /* \"#utility.yul\":5906:5912   */\n      dup5\n        /* \"#utility.yul\":5812:5920   */\n      tag_254\n      jump\t// in\n    tag_346:\n        /* \"#utility.yul\":5804:5920   */\n      swap1\n      pop\n        /* \"#utility.yul\":5554:5927   */\n      swap3\n      swap2\n      pop\n      pop\n      jump\t// out\n        /* \"#utility.yul\":5933:6102   */\n    tag_255:\n        /* \"#utility.yul\":6017:6028   */\n      0x00\n        /* \"#utility.yul\":6051:6057   */\n      dup3\n        /* \"#utility.yul\":6046:6049   */\n      dup3\n        /* \"#utility.yul\":6039:6058   */\n      mstore\n        /* \"#utility.yul\":6091:6095   */\n      0x20\n        /* \"#utility.yul\":6086:6089   */\n      dup3\n        /* \"#utility.yul\":6082:6096   */\n      add\n        /* \"#utility.yul\":6067:6096   */\n      swap1\n      pop\n        /* \"#utility.yul\":5933:6102   */\n      swap3\n      swap2\n      pop\n      pop\n      jump\t// out\n        /* \"#utility.yul\":6108:6272   */\n    tag_256:\n        /* \"#utility.yul\":6248:6264   */\n      0x4e6f7420617574686f72697a6564000000000000000000000000000000000000\n        /* \"#utility.yul\":6244:6245   */\n      0x00\n        /* \"#utility.yul\":6236:6242   */\n      dup3\n        /* \"#utility.yul\":6232:6246   */\n      add\n        /* \"#utility.yul\":6225:6265   */\n      mstore\n        /* \"#utility.yul\":6108:6272   */\n      pop\n      jump\t// out\n        /* \"#utility.yul\":6278:6644   */\n    tag_257:\n        /* \"#utility.yul\":6420:6423   */\n      0x00\n        /* \"#utility.yul\":6441:6508   */\n      tag_350\n        /* \"#utility.yul\":6505:6507   */\n      0x0e\n        /* \"#utility.yul\":6500:6503   */\n      dup4\n        /* \"#utility.yul\":6441:6508   */\n      tag_255\n      jump\t// in\n    tag_350:\n        /* \"#utility.yul\":6434:6508   */\n      swap2\n      pop\n        /* \"#utility.yul\":6517:6610   */\n      tag_351\n        /* \"#utility.yul\":6606:6609   */\n      dup3\n        /* \"#utility.yul\":6517:6610   */\n      tag_256\n      jump\t// in\n    tag_351:\n        /* \"#utility.yul\":6635:6637   */\n      0x20\n        /* \"#utility.yul\":6630:6633   */\n      dup3\n        /* \"#utility.yul\":6626:6638   */\n      add\n        /* \"#utility.yul\":6619:6638   */\n      swap1\n      pop\n        /* \"#utility.yul\":6278:6644   */\n      swap2\n      swap1\n      pop\n      jump\t// out\n        /* \"#utility.yul\":6650:7069   */\n    tag_80:\n        /* \"#utility.yul\":6816:6820   */\n      0x00\n        /* \"#utility.yul\":6854:6856   */\n      0x20\n        /* \"#utility.yul\":6843:6852   */\n      dup3\n        /* \"#utility.yul\":6839:6857   */\n      add\n        /* \"#utility.yul\":6831:6857   */\n      swap1\n      pop\n        /* \"#utility.yul\":6903:6912   */\n      dup2\n        /* \"#utility.yul\":6897:6901   */\n      dup2\n        /* \"#utility.yul\":6893:6913   */\n      sub\n        /* \"#utility.yul\":6889:6890   */\n      0x00\n        /* \"#utility.yul\":6878:6887   */\n      dup4\n        /* \"#utility.yul\":6874:6891   */\n      add\n        /* \"#utility.yul\":6867:6914   */\n      mstore\n        /* \"#utility.yul\":6931:7062   */\n      tag_353\n        /* \"#utility.yul\":7057:7061   */\n      dup2\n        /* \"#utility.yul\":6931:7062   */\n      tag_257\n      jump\t// in\n    tag_353:\n        /* \"#utility.yul\":6923:7062   */\n      swap1\n      pop\n        /* \"#utility.yul\":6650:7069   */\n      swap2\n      swap1\n      pop\n      jump\t// out\n        /* \"#utility.yul\":7075:7255   */\n    tag_258:\n        /* \"#utility.yul\":7123:7200   */\n      0x4e487b7100000000000000000000000000000000000000000000000000000000\n        /* \"#utility.yul\":7120:7121   */\n      0x00\n        /* \"#utility.yul\":7113:7201   */\n      mstore\n        /* \"#utility.yul\":7220:7224   */\n      0x11\n        /* \"#utility.yul\":7217:7218   */\n      0x04\n        /* \"#utility.yul\":7210:7225   */\n      mstore\n        /* \"#utility.yul\":7244:7248   */\n      0x24\n        /* \"#utility.yul\":7241:7242   */\n      0x00\n        /* \"#utility.yul\":7234:7249   */\n      revert\n        /* \"#utility.yul\":7261:7671   */\n    tag_83:\n        /* \"#utility.yul\":7301:7308   */\n      0x00\n        /* \"#utility.yul\":7324:7344   */\n      tag_356\n        /* \"#utility.yul\":7342:7343   */\n      dup3\n        /* \"#utility.yul\":7324:7344   */\n      tag_234\n      jump\t// in\n    tag_356:\n        /* \"#utility.yul\":7319:7344   */\n      swap2\n      pop\n        /* \"#utility.yul\":7358:7378   */\n      tag_357\n        /* \"#utility.yul\":7376:7377   */\n      dup4\n        /* \"#utility.yul\":7358:7378   */\n      tag_234\n      jump\t// in\n    tag_357:\n        /* \"#utility.yul\":7353:7378   */\n      swap3\n      pop\n        /* \"#utility.yul\":7413:7414   */\n      dup3\n        /* \"#utility.yul\":7410:7411   */\n      dup3\n        /* \"#utility.yul\":7406:7415   */\n      mul\n        /* \"#utility.yul\":7435:7465   */\n      tag_358\n        /* \"#utility.yul\":7453:7464   */\n      dup2\n        /* \"#utility.yul\":7435:7465   */\n      tag_234\n      jump\t// in\n    tag_358:\n        /* \"#utility.yul\":7424:7465   */\n      swap2\n      pop\n        /* \"#utility.yul\":7614:7615   */\n      dup3\n        /* \"#utility.yul\":7605:7612   */\n      dup3\n        /* \"#utility.yul\":7601:7616   */\n      div\n        /* \"#utility.yul\":7598:7599   */\n      dup5\n        /* \"#utility.yul\":7595:7617   */\n      eq\n        /* \"#utility.yul\":7575:7576   */\n      dup4\n        /* \"#utility.yul\":7568:7577   */\n      iszero\n        /* \"#utility.yul\":7548:7631   */\n      or\n        /* \"#utility.yul\":7525:7664   */\n      tag_359\n      jumpi\n        /* \"#utility.yul\":7644:7662   */\n      tag_360\n      tag_258\n      jump\t// in\n    tag_360:\n        /* \"#utility.yul\":7525:7664   */\n    tag_359:\n        /* \"#utility.yul\":7309:7671   */\n      pop\n        /* \"#utility.yul\":7261:7671   */\n      swap3\n      swap2\n      pop\n      pop\n      jump\t// out\n        /* \"#utility.yul\":7677:7857   */\n    tag_259:\n        /* \"#utility.yul\":7725:7802   */\n      0x4e487b7100000000000000000000000000000000000000000000000000000000\n        /* \"#utility.yul\":7722:7723   */\n      0x00\n        /* \"#utility.yul\":7715:7803   */\n      mstore\n        /* \"#utility.yul\":7822:7826   */\n      0x12\n        /* \"#utility.yul\":7819:7820   */\n      0x04\n        /* \"#utility.yul\":7812:7827   */\n      mstore\n        /* \"#utility.yul\":7846:7850   */\n      0x24\n        /* \"#utility.yul\":7843:7844   */\n      0x00\n        /* \"#utility.yul\":7836:7851   */\n      revert\n        /* \"#utility.yul\":7863:8048   */\n    tag_85:\n        /* \"#utility.yul\":7903:7904   */\n      0x00\n        /* \"#utility.yul\":7920:7940   */\n      tag_363\n        /* \"#utility.yul\":7938:7939   */\n      dup3\n        /* \"#utility.yul\":7920:7940   */\n      tag_234\n      jump\t// in\n    tag_363:\n        /* \"#utility.yul\":7915:7940   */\n      swap2\n      pop\n        /* \"#utility.yul\":7954:7974   */\n      tag_364\n        /* \"#utility.yul\":7972:7973   */\n      dup4\n        /* \"#utility.yul\":7954:7974   */\n      tag_234\n      jump\t// in\n    tag_364:\n        /* \"#utility.yul\":7949:7974   */\n      swap3\n      pop\n        /* \"#utility.yul\":7993:7994   */\n      dup3\n        /* \"#utility.yul\":7983:8018   */\n      tag_365\n      jumpi\n        /* \"#utility.yul\":7998:8016   */\n      tag_366\n      tag_259\n      jump\t// in\n    tag_366:\n        /* \"#utility.yul\":7983:8018   */\n    tag_365:\n        /* \"#utility.yul\":8040:8041   */\n      dup3\n        /* \"#utility.yul\":8037:8038   */\n      dup3\n        /* \"#utility.yul\":8033:8042   */\n      div\n        /* \"#utility.yul\":8028:8042   */\n      swap1\n      pop\n        /* \"#utility.yul\":7863:8048   */\n      swap3\n      swap2\n      pop\n      pop\n      jump\t// out\n        /* \"#utility.yul\":8054:8248   */\n    tag_87:\n        /* \"#utility.yul\":8094:8098   */\n      0x00\n        /* \"#utility.yul\":8114:8134   */\n      tag_368\n        /* \"#utility.yul\":8132:8133   */\n      dup3\n        /* \"#utility.yul\":8114:8134   */\n      tag_234\n      jump\t// in\n    tag_368:\n        /* \"#utility.yul\":8109:8134   */\n      swap2\n      pop\n        /* \"#utility.yul\":8148:8168   */\n      tag_369\n        /* \"#utility.yul\":8166:8167   */\n      dup4\n        /* \"#utility.yul\":8148:8168   */\n      tag_234\n      jump\t// in\n    tag_369:\n        /* \"#utility.yul\":8143:8168   */\n      swap3\n      pop\n        /* \"#utility.yul\":8192:8193   */\n      dup3\n        /* \"#utility.yul\":8189:8190   */\n      dup3\n        /* \"#utility.yul\":8185:8194   */\n      sub\n        /* \"#utility.yul\":8177:8194   */\n      swap1\n      pop\n        /* \"#utility.yul\":8216:8217   */\n      dup2\n        /* \"#utility.yul\":8210:8214   */\n      dup2\n        /* \"#utility.yul\":8207:8218   */\n      gt\n        /* \"#utility.yul\":8204:8241   */\n      iszero\n      tag_370\n      jumpi\n        /* \"#utility.yul\":8221:8239   */\n      tag_371\n      tag_258\n      jump\t// in\n    tag_371:\n        /* \"#utility.yul\":8204:8241   */\n    tag_370:\n        /* \"#utility.yul\":8054:8248   */\n      swap3\n      swap2\n      pop\n      pop\n      jump\t// out\n        /* \"#utility.yul\":8254:8586   */\n    tag_89:\n        /* \"#utility.yul\":8375:8379   */\n      0x00\n        /* \"#utility.yul\":8413:8415   */\n      0x40\n        /* \"#utility.yul\":8402:8411   */\n      dup3\n        /* \"#utility.yul\":8398:8416   */\n      add\n        /* \"#utility.yul\":8390:8416   */\n      swap1\n      pop\n        /* \"#utility.yul\":8426:8497   */\n      tag_373\n        /* \"#utility.yul\":8494:8495   */\n      0x00\n        /* \"#utility.yul\":8483:8492   */\n      dup4\n        /* \"#utility.yul\":8479:8496   */\n      add\n        /* \"#utility.yul\":8470:8476   */\n      dup6\n        /* \"#utility.yul\":8426:8497   */\n      tag_243\n      jump\t// in\n    tag_373:\n        /* \"#utility.yul\":8507:8579   */\n      tag_374\n        /* \"#utility.yul\":8575:8577   */\n      0x20\n        /* \"#utility.yul\":8564:8573   */\n      dup4\n        /* \"#utility.yul\":8560:8578   */\n      add\n        /* \"#utility.yul\":8551:8557   */\n      dup5\n        /* \"#utility.yul\":8507:8579   */\n      tag_235\n      jump\t// in\n    tag_374:\n        /* \"#utility.yul\":8254:8586   */\n      swap4\n      swap3\n      pop\n      pop\n      pop\n      jump\t// out\n        /* \"#utility.yul\":8592:8708   */\n    tag_260:\n        /* \"#utility.yul\":8662:8683   */\n      tag_376\n        /* \"#utility.yul\":8677:8682   */\n      dup2\n        /* \"#utility.yul\":8662:8683   */\n      tag_246\n      jump\t// in\n    tag_376:\n        /* \"#utility.yul\":8655:8660   */\n      dup2\n        /* \"#utility.yul\":8652:8684   */\n      eq\n        /* \"#utility.yul\":8642:8702   */\n      tag_377\n      jumpi\n        /* \"#utility.yul\":8698:8699   */\n      0x00\n        /* \"#utility.yul\":8695:8696   */\n      dup1\n        /* \"#utility.yul\":8688:8700   */\n      revert\n        /* \"#utility.yul\":8642:8702   */\n    tag_377:\n        /* \"#utility.yul\":8592:8708   */\n      pop\n      jump\t// out\n        /* \"#utility.yul\":8714:8851   */\n    tag_261:\n        /* \"#utility.yul\":8768:8773   */\n      0x00\n        /* \"#utility.yul\":8799:8805   */\n      dup2\n        /* \"#utility.yul\":8793:8806   */\n      mload\n        /* \"#utility.yul\":8784:8806   */\n      swap1\n      pop\n        /* \"#utility.yul\":8815:8845   */\n      tag_379\n        /* \"#utility.yul\":8839:8844   */\n      dup2\n        /* \"#utility.yul\":8815:8845   */\n      tag_260\n      jump\t// in\n    tag_379:\n        /* \"#utility.yul\":8714:8851   */\n      swap3\n      swap2\n      pop\n      pop\n      jump\t// out\n        /* \"#utility.yul\":8857:9202   */\n    tag_93:\n        /* \"#utility.yul\":8924:8930   */\n      0x00\n        /* \"#utility.yul\":8973:8975   */\n      0x20\n        /* \"#utility.yul\":8961:8970   */\n      dup3\n        /* \"#utility.yul\":8952:8959   */\n      dup5\n        /* \"#utility.yul\":8948:8971   */\n      sub\n        /* \"#utility.yul\":8944:8976   */\n      slt\n        /* \"#utility.yul\":8941:9060   */\n      iszero\n      tag_381\n      jumpi\n        /* \"#utility.yul\":8979:9058   */\n      tag_382\n      tag_237\n      jump\t// in\n    tag_382:\n        /* \"#utility.yul\":8941:9060   */\n    tag_381:\n        /* \"#utility.yul\":9099:9100   */\n      0x00\n        /* \"#utility.yul\":9124:9185   */\n      tag_383\n        /* \"#utility.yul\":9177:9184   */\n      dup5\n        /* \"#utility.yul\":9168:9174   */\n      dup3\n        /* \"#utility.yul\":9157:9166   */\n      dup6\n        /* \"#utility.yul\":9153:9175   */\n      add\n        /* \"#utility.yul\":9124:9185   */\n      tag_261\n      jump\t// in\n    tag_383:\n        /* \"#utility.yul\":9114:9185   */\n      swap2\n      pop\n        /* \"#utility.yul\":9070:9195   */\n      pop\n        /* \"#utility.yul\":8857:9202   */\n      swap3\n      swap2\n      pop\n      pop\n      jump\t// out\n        /* \"#utility.yul\":9208:9378   */\n    tag_262:\n        /* \"#utility.yul\":9348:9370   */\n      0x4f776e6572207061796d656e74206661696c6564000000000000000000000000\n        /* \"#utility.yul\":9344:9345   */\n      0x00\n        /* \"#utility.yul\":9336:9342   */\n      dup3\n        /* \"#utility.yul\":9332:9346   */\n      add\n        /* \"#utility.yul\":9325:9371   */\n      mstore\n        /* \"#utility.yul\":9208:9378   */\n      pop\n      jump\t// out\n        /* \"#utility.yul\":9384:9750   */\n    tag_263:\n        /* \"#utility.yul\":9526:9529   */\n      0x00\n        /* \"#utility.yul\":9547:9614   */\n      tag_386\n        /* \"#utility.yul\":9611:9613   */\n      0x14\n        /* \"#utility.yul\":9606:9609   */\n      dup4\n        /* \"#utility.yul\":9547:9614   */\n      tag_255\n      jump\t// in\n    tag_386:\n        /* \"#utility.yul\":9540:9614   */\n      swap2\n      pop\n        /* \"#utility.yul\":9623:9716   */\n      tag_387\n        /* \"#utility.yul\":9712:9715   */\n      dup3\n        /* \"#utility.yul\":9623:9716   */\n      tag_262\n      jump\t// in\n    tag_387:\n        /* \"#utility.yul\":9741:9743   */\n      0x20\n        /* \"#utility.yul\":9736:9739   */\n      dup3\n        /* \"#utility.yul\":9732:9744   */\n      add\n        /* \"#utility.yul\":9725:9744   */\n      swap1\n      pop\n        /* \"#utility.yul\":9384:9750   */\n      swap2\n      swap1\n      pop\n      jump\t// out\n        /* \"#utility.yul\":9756:10175   */\n    tag_96:\n        /* \"#utility.yul\":9922:9926   */\n      0x00\n        /* \"#utility.yul\":9960:9962   */\n      0x20\n        /* \"#utility.yul\":9949:9958   */\n      dup3\n        /* \"#utility.yul\":9945:9963   */\n      add\n        /* \"#utility.yul\":9937:9963   */\n      swap1\n      pop\n        /* \"#utility.yul\":10009:10018   */\n      dup2\n        /* \"#utility.yul\":10003:10007   */\n      dup2\n        /* \"#utility.yul\":9999:10019   */\n      sub\n        /* \"#utility.yul\":9995:9996   */\n      0x00\n        /* \"#utility.yul\":9984:9993   */\n      dup4\n        /* \"#utility.yul\":9980:9997   */\n      add\n        /* \"#utility.yul\":9973:10020   */\n      mstore\n        /* \"#utility.yul\":10037:10168   */\n      tag_389\n        /* \"#utility.yul\":10163:10167   */\n      dup2\n        /* \"#utility.yul\":10037:10168   */\n      tag_263\n      jump\t// in\n    tag_389:\n        /* \"#utility.yul\":10029:10168   */\n      swap1\n      pop\n        /* \"#utility.yul\":9756:10175   */\n      swap2\n      swap1\n      pop\n      jump\t// out\n        /* \"#utility.yul\":10181:10361   */\n    tag_114:\n        /* \"#utility.yul\":10229:10306   */\n      0x4e487b7100000000000000000000000000000000000000000000000000000000\n        /* \"#utility.yul\":10226:10227   */\n      0x00\n        /* \"#utility.yul\":10219:10307   */\n      mstore\n        /* \"#utility.yul\":10326:10330   */\n      0x32\n        /* \"#utility.yul\":10323:10324   */\n      0x04\n        /* \"#utility.yul\":10316:10331   */\n      mstore\n        /* \"#utility.yul\":10350:10354   */\n      0x24\n        /* \"#utility.yul\":10347:10348   */\n      0x00\n        /* \"#utility.yul\":10340:10355   */\n      revert\n        /* \"#utility.yul\":10367:10558   */\n    tag_116:\n        /* \"#utility.yul\":10407:10410   */\n      0x00\n        /* \"#utility.yul\":10426:10446   */\n      tag_392\n        /* \"#utility.yul\":10444:10445   */\n      dup3\n        /* \"#utility.yul\":10426:10446   */\n      tag_234\n      jump\t// in\n    tag_392:\n        /* \"#utility.yul\":10421:10446   */\n      swap2\n      pop\n        /* \"#utility.yul\":10460:10480   */\n      tag_393\n        /* \"#utility.yul\":10478:10479   */\n      dup4\n        /* \"#utility.yul\":10460:10480   */\n      tag_234\n      jump\t// in\n    tag_393:\n        /* \"#utility.yul\":10455:10480   */\n      swap3\n      pop\n        /* \"#utility.yul\":10503:10504   */\n      dup3\n        /* \"#utility.yul\":10500:10501   */\n      dup3\n        /* \"#utility.yul\":10496:10505   */\n      add\n        /* \"#utility.yul\":10489:10505   */\n      swap1\n      pop\n        /* \"#utility.yul\":10524:10527   */\n      dup1\n        /* \"#utility.yul\":10521:10522   */\n      dup3\n        /* \"#utility.yul\":10518:10528   */\n      gt\n        /* \"#utility.yul\":10515:10551   */\n      iszero\n      tag_394\n      jumpi\n        /* \"#utility.yul\":10531:10549   */\n      tag_395\n      tag_258\n      jump\t// in\n    tag_395:\n        /* \"#utility.yul\":10515:10551   */\n    tag_394:\n        /* \"#utility.yul\":10367:10558   */\n      swap3\n      swap2\n      pop\n      pop\n      jump\t// out\n        /* \"#utility.yul\":10564:10797   */\n    tag_119:\n        /* \"#utility.yul\":10603:10606   */\n      0x00\n        /* \"#utility.yul\":10626:10650   */\n      tag_397\n        /* \"#utility.yul\":10644:10649   */\n      dup3\n        /* \"#utility.yul\":10626:10650   */\n      tag_234\n      jump\t// in\n    tag_397:\n        /* \"#utility.yul\":10617:10650   */\n      swap2\n      pop\n        /* \"#utility.yul\":10672:10738   */\n      0xffffffffffffffffffffffffffffffffffffffffffffffffffffffffffffffff\n        /* \"#utility.yul\":10665:10670   */\n      dup3\n        /* \"#utility.yul\":10662:10739   */\n      sub\n        /* \"#utility.yul\":10659:10762   */\n      tag_398\n      jumpi\n        /* \"#utility.yul\":10742:10760   */\n      tag_399\n      tag_258\n      jump\t// in\n    tag_399:\n        /* \"#utility.yul\":10659:10762   */\n    tag_398:\n        /* \"#utility.yul\":10789:10790   */\n      0x01\n        /* \"#utility.yul\":10782:10787   */\n      dup3\n        /* \"#utility.yul\":10778:10791   */\n      add\n        /* \"#utility.yul\":10771:10791   */\n      swap1\n      pop\n        /* \"#utility.yul\":10564:10797   */\n      swap2\n      swap1\n      pop\n      jump\t// out\n        /* \"#utility.yul\":10803:11031   */\n    tag_264:\n        /* \"#utility.yul\":10943:10977   */\n      0x576974686472617720616d6f756e74206d757374206265206772656174657220\n        /* \"#utility.yul\":10939:10940   */\n      0x00\n        /* \"#utility.yul\":10931:10937   */\n      dup3\n        /* \"#utility.yul\":10927:10941   */\n      add\n        /* \"#utility.yul\":10920:10978   */\n      mstore\n        /* \"#utility.yul\":11012:11023   */\n      0x7468616e207a65726f0000000000000000000000000000000000000000000000\n        /* \"#utility.yul\":11007:11009   */\n      0x20\n        /* \"#utility.yul\":10999:11005   */\n      dup3\n        /* \"#utility.yul\":10995:11010   */\n      add\n        /* \"#utility.yul\":10988:11024   */\n      mstore\n        /* \"#utility.yul\":10803:11031   */\n      pop\n      jump\t// out\n        /* \"#utility.yul\":11037:11403   */\n    tag_265:\n        /* \"#utility.yul\":11179:11182   */\n      0x00\n        /* \"#utility.yul\":11200:11267   */\n      tag_402\n        /* \"#utility.yul\":11264:11266   */\n      0x29\n        /* \"#utility.yul\":11259:11262   */\n      dup4\n        /* \"#utility.yul\":11200:11267   */\n      tag_255\n      jump\t// in\n    tag_402:\n        /* \"#utility.yul\":11193:11267   */\n      swap2\n      pop\n        /* \"#utility.yul\":11276:11369   */\n      tag_403\n        /* \"#utility.yul\":11365:11368   */\n      dup3\n        /* \"#utility.yul\":11276:11369   */\n      tag_264\n      jump\t// in\n    tag_403:\n        /* \"#utility.yul\":11394:11396   */\n      0x40\n        /* \"#utility.yul\":11389:11392   */\n      dup3\n        /* \"#utility.yul\":11385:11397   */\n      add\n        /* \"#utility.yul\":11378:11397   */\n      swap1\n      pop\n        /* \"#utility.yul\":11037:11403   */\n      swap2\n      swap1\n      pop\n      jump\t// out\n        /* \"#utility.yul\":11409:11828   */\n    tag_124:\n        /* \"#utility.yul\":11575:11579   */\n      0x00\n        /* \"#utility.yul\":11613:11615   */\n      0x20\n        /* \"#utility.yul\":11602:11611   */\n      dup3\n        /* \"#utility.yul\":11598:11616   */\n      add\n        /* \"#utility.yul\":11590:11616   */\n      swap1\n      pop\n        /* \"#utility.yul\":11662:11671   */\n      dup2\n        /* \"#utility.yul\":11656:11660   */\n      dup2\n        /* \"#utility.yul\":11652:11672   */\n      sub\n        /* \"#utility.yul\":11648:11649   */\n      0x00\n        /* \"#utility.yul\":11637:11646   */\n      dup4\n        /* \"#utility.yul\":11633:11650   */\n      add\n        /* \"#utility.yul\":11626:11673   */\n      mstore\n        /* \"#utility.yul\":11690:11821   */\n      tag_405\n        /* \"#utility.yul\":11816:11820   */\n      dup2\n        /* \"#utility.yul\":11690:11821   */\n      tag_265\n      jump\t// in\n    tag_405:\n        /* \"#utility.yul\":11682:11821   */\n      swap1\n      pop\n        /* \"#utility.yul\":11409:11828   */\n      swap2\n      swap1\n      pop\n      jump\t// out\n        /* \"#utility.yul\":11834:12011   */\n    tag_266:\n        /* \"#utility.yul\":11974:12003   */\n      0x496e73756666696369656e74206561726e656420726577617264730000000000\n        /* \"#utility.yul\":11970:11971   */\n      0x00\n        /* \"#utility.yul\":11962:11968   */\n      dup3\n        /* \"#utility.yul\":11958:11972   */\n      add\n        /* \"#utility.yul\":11951:12004   */\n      mstore\n        /* \"#utility.yul\":11834:12011   */\n      pop\n      jump\t// out\n        /* \"#utility.yul\":12017:12383   */\n    tag_267:\n        /* \"#utility.yul\":12159:12162   */\n      0x00\n        /* \"#utility.yul\":12180:12247   */\n      tag_408\n        /* \"#utility.yul\":12244:12246   */\n      0x1b\n        /* \"#utility.yul\":12239:12242   */\n      dup4\n        /* \"#utility.yul\":12180:12247   */\n      tag_255\n      jump\t// in\n    tag_408:\n        /* \"#utility.yul\":12173:12247   */\n      swap2\n      pop\n        /* \"#utility.yul\":12256:12349   */\n      tag_409\n        /* \"#utility.yul\":12345:12348   */\n      dup3\n        /* \"#utility.yul\":12256:12349   */\n      tag_266\n      jump\t// in\n    tag_409:\n        /* \"#utility.yul\":12374:12376   */\n      0x20\n        /* \"#utility.yul\":12369:12372   */\n      dup3\n        /* \"#utility.yul\":12365:12377   */\n      add\n        /* \"#utility.yul\":12358:12377   */\n      swap1\n      pop\n        /* \"#utility.yul\":12017:12383   */\n      swap2\n      swap1\n      pop\n      jump\t// out\n        /* \"#utility.yul\":12389:12808   */\n    tag_127:\n        /* \"#utility.yul\":12555:12559   */\n      0x00\n        /* \"#utility.yul\":12593:12595   */\n      0x20\n        /* \"#utility.yul\":12582:12591   */\n      dup3\n        /* \"#utility.yul\":12578:12596   */\n      add\n        /* \"#utility.yul\":12570:12596   */\n      swap1\n      pop\n        /* \"#utility.yul\":12642:12651   */\n      dup2\n        /* \"#utility.yul\":12636:12640   */\n      dup2\n        /* \"#utility.yul\":12632:12652   */\n      sub\n        /* \"#utility.yul\":12628:12629   */\n      0x00\n        /* \"#utility.yul\":12617:12626   */\n      dup4\n        /* \"#utility.yul\":12613:12630   */\n      add\n        /* \"#utility.yul\":12606:12653   */\n      mstore\n        /* \"#utility.yul\":12670:12801   */\n      tag_411\n        /* \"#utility.yul\":12796:12800   */\n      dup2\n        /* \"#utility.yul\":12670:12801   */\n      tag_267\n      jump\t// in\n    tag_411:\n        /* \"#utility.yul\":12662:12801   */\n      swap1\n      pop\n        /* \"#utility.yul\":12389:12808   */\n      swap2\n      swap1\n      pop\n      jump\t// out\n        /* \"#utility.yul\":12814:12981   */\n    tag_268:\n        /* \"#utility.yul\":12954:12973   */\n      0x5769746864726177616c206661696c6564000000000000000000000000000000\n        /* \"#utility.yul\":12950:12951   */\n      0x00\n        /* \"#utility.yul\":12942:12948   */\n      dup3\n        /* \"#utility.yul\":12938:12952   */\n      add\n        /* \"#utility.yul\":12931:12974   */\n      mstore\n        /* \"#utility.yul\":12814:12981   */\n      pop\n      jump\t// out\n        /* \"#utility.yul\":12987:13353   */\n    tag_269:\n        /* \"#utility.yul\":13129:13132   */\n      0x00\n        /* \"#utility.yul\":13150:13217   */\n      tag_414\n        /* \"#utility.yul\":13214:13216   */\n      0x11\n        /* \"#utility.yul\":13209:13212   */\n      dup4\n        /* \"#utility.yul\":13150:13217   */\n      tag_255\n      jump\t// in\n    tag_414:\n        /* \"#utility.yul\":13143:13217   */\n      swap2\n      pop\n        /* \"#utility.yul\":13226:13319   */\n      tag_415\n        /* \"#utility.yul\":13315:13318   */\n      dup3\n        /* \"#utility.yul\":13226:13319   */\n      tag_268\n      jump\t// in\n    tag_415:\n        /* \"#utility.yul\":13344:13346   */\n      0x20\n        /* \"#utility.yul\":13339:13342   */\n      dup3\n        /* \"#utility.yul\":13335:13347   */\n      add\n        /* \"#utility.yul\":13328:13347   */\n      swap1\n      pop\n        /* \"#utility.yul\":12987:13353   */\n      swap2\n      swap1\n      pop\n      jump\t// out\n        /* \"#utility.yul\":13359:13778   */\n    tag_135:\n        /* \"#utility.yul\":13525:13529   */\n      0x00\n        /* \"#utility.yul\":13563:13565   */\n      0x20\n        /* \"#utility.yul\":13552:13561   */\n      dup3\n        /* \"#utility.yul\":13548:13566   */\n      add\n        /* \"#utility.yul\":13540:13566   */\n      swap1\n      pop\n        /* \"#utility.yul\":13612:13621   */\n      dup2\n        /* \"#utility.yul\":13606:13610   */\n      dup2\n        /* \"#utility.yul\":13602:13622   */\n      sub\n        /* \"#utility.yul\":13598:13599   */\n      0x00\n        /* \"#utility.yul\":13587:13596   */\n      dup4\n        /* \"#utility.yul\":13583:13600   */\n      add\n        /* \"#utility.yul\":13576:13623   */\n      mstore\n        /* \"#utility.yul\":13640:13771   */\n      tag_417\n        /* \"#utility.yul\":13766:13770   */\n      dup2\n        /* \"#utility.yul\":13640:13771   */\n      tag_269\n      jump\t// in\n    tag_417:\n        /* \"#utility.yul\":13632:13771   */\n      swap1\n      pop\n        /* \"#utility.yul\":13359:13778   */\n      swap2\n      swap1\n      pop\n      jump\t// out\n        /* \"#utility.yul\":13784:13952   */\n    tag_270:\n        /* \"#utility.yul\":13924:13944   */\n      0x416c726561647920726567697374657265640000000000000000000000000000\n        /* \"#utility.yul\":13920:13921   */\n      0x00\n        /* \"#utility.yul\":13912:13918   */\n      dup3\n        /* \"#utility.yul\":13908:13922   */\n      add\n        /* \"#utility.yul\":13901:13945   */\n      mstore\n        /* \"#utility.yul\":13784:13952   */\n      pop\n      jump\t// out\n        /* \"#utility.yul\":13958:14324   */\n    tag_271:\n        /* \"#utility.yul\":14100:14103   */\n      0x00\n        /* \"#utility.yul\":14121:14188   */\n      tag_420\n        /* \"#utility.yul\":14185:14187   */\n      0x12\n        /* \"#utility.yul\":14180:14183   */\n      dup4\n        /* \"#utility.yul\":14121:14188   */\n      tag_255\n      jump\t// in\n    tag_420:\n        /* \"#utility.yul\":14114:14188   */\n      swap2\n      pop\n        /* \"#utility.yul\":14197:14290   */\n      tag_421\n        /* \"#utility.yul\":14286:14289   */\n      dup3\n        /* \"#utility.yul\":14197:14290   */\n      tag_270\n      jump\t// in\n    tag_421:\n        /* \"#utility.yul\":14315:14317   */\n      0x20\n        /* \"#utility.yul\":14310:14313   */\n      dup3\n        /* \"#utility.yul\":14306:14318   */\n      add\n        /* \"#utility.yul\":14299:14318   */\n      swap1\n      pop\n        /* \"#utility.yul\":13958:14324   */\n      swap2\n      swap1\n      pop\n      jump\t// out\n        /* \"#utility.yul\":14330:14749   */\n    tag_140:\n        /* \"#utility.yul\":14496:14500   */\n      0x00\n        /* \"#utility.yul\":14534:14536   */\n      0x20\n        /* \"#utility.yul\":14523:14532   */\n      dup3\n        /* \"#utility.yul\":14519:14537   */\n      add\n        /* \"#utility.yul\":14511:14537   */\n      swap1\n      pop\n        /* \"#utility.yul\":14583:14592   */\n      dup2\n        /* \"#utility.yul\":14577:14581   */\n      dup2\n        /* \"#utility.yul\":14573:14593   */\n      sub\n        /* \"#utility.yul\":14569:14570   */\n      0x00\n        /* \"#utility.yul\":14558:14567   */\n      dup4\n        /* \"#utility.yul\":14554:14571   */\n      add\n        /* \"#utility.yul\":14547:14594   */\n      mstore\n        /* \"#utility.yul\":14611:14742   */\n      tag_423\n        /* \"#utility.yul\":14737:14741   */\n      dup2\n        /* \"#utility.yul\":14611:14742   */\n      tag_271\n      jump\t// in\n    tag_423:\n        /* \"#utility.yul\":14603:14742   */\n      swap1\n      pop\n        /* \"#utility.yul\":14330:14749   */\n      swap2\n      swap1\n      pop\n      jump\t// out\n        /* \"#utility.yul\":14755:15197   */\n    tag_142:\n        /* \"#utility.yul\":14904:14908   */\n      0x00\n        /* \"#utility.yul\":14942:14944   */\n      0x60\n        /* \"#utility.yul\":14931:14940   */\n      dup3\n        /* \"#utility.yul\":14927:14945   */\n      add\n        /* \"#utility.yul\":14919:14945   */\n      swap1\n      pop\n        /* \"#utility.yul\":14955:15026   */\n      tag_425\n        /* \"#utility.yul\":15023:15024   */\n      0x00\n        /* \"#utility.yul\":15012:15021   */\n      dup4\n        /* \"#utility.yul\":15008:15025   */\n      add\n        /* \"#utility.yul\":14999:15005   */\n      dup7\n        /* \"#utility.yul\":14955:15026   */\n      tag_243\n      jump\t// in\n    tag_425:\n        /* \"#utility.yul\":15036:15108   */\n      tag_426\n        /* \"#utility.yul\":15104:15106   */\n      0x20\n        /* \"#utility.yul\":15093:15102   */\n      dup4\n        /* \"#utility.yul\":15089:15107   */\n      add\n        /* \"#utility.yul\":15080:15086   */\n      dup6\n        /* \"#utility.yul\":15036:15108   */\n      tag_243\n      jump\t// in\n    tag_426:\n        /* \"#utility.yul\":15118:15190   */\n      tag_427\n        /* \"#utility.yul\":15186:15188   */\n      0x40\n        /* \"#utility.yul\":15175:15184   */\n      dup4\n        /* \"#utility.yul\":15171:15189   */\n      add\n        /* \"#utility.yul\":15162:15168   */\n      dup5\n        /* \"#utility.yul\":15118:15190   */\n      tag_235\n      jump\t// in\n    tag_427:\n        /* \"#utility.yul\":14755:15197   */\n      swap5\n      swap4\n      pop\n      pop\n      pop\n      pop\n      jump\t// out\n        /* \"#utility.yul\":15203:15367   */\n    tag_272:\n        /* \"#utility.yul\":15343:15359   */\n      0x5061796d656e74206661696c6564000000000000000000000000000000000000\n        /* \"#utility.yul\":15339:15340   */\n      0x00\n        /* \"#utility.yul\":15331:15337   */\n      dup3\n        /* \"#utility.yul\":15327:15341   */\n      add\n        /* \"#utility.yul\":15320:15360   */\n      mstore\n        /* \"#utility.yul\":15203:15367   */\n      pop\n      jump\t// out\n        /* \"#utility.yul\":15373:15739   */\n    tag_273:\n        /* \"#utility.yul\":15515:15518   */\n      0x00\n        /* \"#utility.yul\":15536:15603   */\n      tag_430\n        /* \"#utility.yul\":15600:15602   */\n      0x0e\n        /* \"#utility.yul\":15595:15598   */\n      dup4\n        /* \"#utility.yul\":15536:15603   */\n      tag_255\n      jump\t// in\n    tag_430:\n        /* \"#utility.yul\":15529:15603   */\n      swap2\n      pop\n        /* \"#utility.yul\":15612:15705   */\n      tag_431\n        /* \"#utility.yul\":15701:15704   */\n      dup3\n        /* \"#utility.yul\":15612:15705   */\n      tag_272\n      jump\t// in\n    tag_431:\n        /* \"#utility.yul\":15730:15732   */\n      0x20\n        /* \"#utility.yul\":15725:15728   */\n      dup3\n        /* \"#utility.yul\":15721:15733   */\n      add\n        /* \"#utility.yul\":15714:15733   */\n      swap1\n      pop\n        /* \"#utility.yul\":15373:15739   */\n      swap2\n      swap1\n      pop\n      jump\t// out\n        /* \"#utility.yul\":15745:16164   */\n    tag_148:\n        /* \"#utility.yul\":15911:15915   */\n      0x00\n        /* \"#utility.yul\":15949:15951   */\n      0x20\n        /* \"#utility.yul\":15938:15947   */\n      dup3\n        /* \"#utility.yul\":15934:15952   */\n      add\n        /* \"#utility.yul\":15926:15952   */\n      swap1\n      pop\n        /* \"#utility.yul\":15998:16007   */\n      dup2\n        /* \"#utility.yul\":15992:15996   */\n      dup2\n        /* \"#utility.yul\":15988:16008   */\n      sub\n        /* \"#utility.yul\":15984:15985   */\n      0x00\n        /* \"#utility.yul\":15973:15982   */\n      dup4\n        /* \"#utility.yul\":15969:15986   */\n      add\n        /* \"#utility.yul\":15962:16009   */\n      mstore\n        /* \"#utility.yul\":16026:16157   */\n      tag_433\n        /* \"#utility.yul\":16152:16156   */\n      dup2\n        /* \"#utility.yul\":16026:16157   */\n      tag_273\n      jump\t// in\n    tag_433:\n        /* \"#utility.yul\":16018:16157   */\n      swap1\n      pop\n        /* \"#utility.yul\":15745:16164   */\n      swap2\n      swap1\n      pop\n      jump\t// out\n        /* \"#utility.yul\":16170:16333   */\n    tag_274:\n        /* \"#utility.yul\":16310:16325   */\n      0x496e76616c6964206c6576656c00000000000000000000000000000000000000\n        /* \"#utility.yul\":16306:16307   */\n      0x00\n        /* \"#utility.yul\":16298:16304   */\n      dup3\n        /* \"#utility.yul\":16294:16308   */\n      add\n        /* \"#utility.yul\":16287:16326   */\n      mstore\n        /* \"#utility.yul\":16170:16333   */\n      pop\n      jump\t// out\n        /* \"#utility.yul\":16339:16705   */\n    tag_275:\n        /* \"#utility.yul\":16481:16484   */\n      0x00\n        /* \"#utility.yul\":16502:16569   */\n      tag_436\n        /* \"#utility.yul\":16566:16568   */\n      0x0d\n        /* \"#utility.yul\":16561:16564   */\n      dup4\n        /* \"#utility.yul\":16502:16569   */\n      tag_255\n      jump\t// in\n    tag_436:\n        /* \"#utility.yul\":16495:16569   */\n      swap2\n      pop\n        /* \"#utility.yul\":16578:16671   */\n      tag_437\n        /* \"#utility.yul\":16667:16670   */\n      dup3\n        /* \"#utility.yul\":16578:16671   */\n      tag_274\n      jump\t// in\n    tag_437:\n        /* \"#utility.yul\":16696:16698   */\n      0x20\n        /* \"#utility.yul\":16691:16694   */\n      dup3\n        /* \"#utility.yul\":16687:16699   */\n      add\n        /* \"#utility.yul\":16680:16699   */\n      swap1\n      pop\n        /* \"#utility.yul\":16339:16705   */\n      swap2\n      swap1\n      pop\n      jump\t// out\n        /* \"#utility.yul\":16711:17130   */\n    tag_170:\n        /* \"#utility.yul\":16877:16881   */\n      0x00\n        /* \"#utility.yul\":16915:16917   */\n      0x20\n        /* \"#utility.yul\":16904:16913   */\n      dup3\n        /* \"#utility.yul\":16900:16918   */\n      add\n        /* \"#utility.yul\":16892:16918   */\n      swap1\n      pop\n        /* \"#utility.yul\":16964:16973   */\n      dup2\n        /* \"#utility.yul\":16958:16962   */\n      dup2\n        /* \"#utility.yul\":16954:16974   */\n      sub\n        /* \"#utility.yul\":16950:16951   */\n      0x00\n        /* \"#utility.yul\":16939:16948   */\n      dup4\n        /* \"#utility.yul\":16935:16952   */\n      add\n        /* \"#utility.yul\":16928:16975   */\n      mstore\n        /* \"#utility.yul\":16992:17123   */\n      tag_439\n        /* \"#utility.yul\":17118:17122   */\n      dup2\n        /* \"#utility.yul\":16992:17123   */\n      tag_275\n      jump\t// in\n    tag_439:\n        /* \"#utility.yul\":16984:17123   */\n      swap1\n      pop\n        /* \"#utility.yul\":16711:17130   */\n      swap2\n      swap1\n      pop\n      jump\t// out\n        /* \"#utility.yul\":17136:17375   */\n    tag_276:\n        /* \"#utility.yul\":17276:17310   */\n      0x4d75737420696e76697465206174206c65617374206f6e6520706572736f6e20\n        /* \"#utility.yul\":17272:17273   */\n      0x00\n        /* \"#utility.yul\":17264:17270   */\n      dup3\n        /* \"#utility.yul\":17260:17274   */\n      add\n        /* \"#utility.yul\":17253:17311   */\n      mstore\n        /* \"#utility.yul\":17345:17367   */\n      0x746f206163746976617465206561726e696e6773000000000000000000000000\n        /* \"#utility.yul\":17340:17342   */\n      0x20\n        /* \"#utility.yul\":17332:17338   */\n      dup3\n        /* \"#utility.yul\":17328:17343   */\n      add\n        /* \"#utility.yul\":17321:17368   */\n      mstore\n        /* \"#utility.yul\":17136:17375   */\n      pop\n      jump\t// out\n        /* \"#utility.yul\":17381:17747   */\n    tag_277:\n        /* \"#utility.yul\":17523:17526   */\n      0x00\n        /* \"#utility.yul\":17544:17611   */\n      tag_442\n        /* \"#utility.yul\":17608:17610   */\n      0x34\n        /* \"#utility.yul\":17603:17606   */\n      dup4\n        /* \"#utility.yul\":17544:17611   */\n      tag_255\n      jump\t// in\n    tag_442:\n        /* \"#utility.yul\":17537:17611   */\n      swap2\n      pop\n        /* \"#utility.yul\":17620:17713   */\n      tag_443\n        /* \"#utility.yul\":17709:17712   */\n      dup3\n        /* \"#utility.yul\":17620:17713   */\n      tag_276\n      jump\t// in\n    tag_443:\n        /* \"#utility.yul\":17738:17740   */\n      0x40\n        /* \"#utility.yul\":17733:17736   */\n      dup3\n        /* \"#utility.yul\":17729:17741   */\n      add\n        /* \"#utility.yul\":17722:17741   */\n      swap1\n      pop\n        /* \"#utility.yul\":17381:17747   */\n      swap2\n      swap1\n      pop\n      jump\t// out\n        /* \"#utility.yul\":17753:18172   */\n    tag_179:\n        /* \"#utility.yul\":17919:17923   */\n      0x00\n        /* \"#utility.yul\":17957:17959   */\n      0x20\n        /* \"#utility.yul\":17946:17955   */\n      dup3\n        /* \"#utility.yul\":17942:17960   */\n      add\n        /* \"#utility.yul\":17934:17960   */\n      swap1\n      pop\n        /* \"#utility.yul\":18006:18015   */\n      dup2\n        /* \"#utility.yul\":18000:18004   */\n      dup2\n        /* \"#utility.yul\":17996:18016   */\n      sub\n        /* \"#utility.yul\":17992:17993   */\n      0x00\n        /* \"#utility.yul\":17981:17990   */\n      dup4\n        /* \"#utility.yul\":17977:17994   */\n      add\n        /* \"#utility.yul\":17970:18017   */\n      mstore\n        /* \"#utility.yul\":18034:18165   */\n      tag_445\n        /* \"#utility.yul\":18160:18164   */\n      dup2\n        /* \"#utility.yul\":18034:18165   */\n      tag_277\n      jump\t// in\n    tag_445:\n        /* \"#utility.yul\":18026:18165   */\n      swap1\n      pop\n        /* \"#utility.yul\":17753:18172   */\n      swap2\n      swap1\n      pop\n      jump\t// out\n        /* \"#utility.yul\":18178:18359   */\n    tag_278:\n        /* \"#utility.yul\":18318:18351   */\n      0x416c72656164792061742074686973206c6576656c206f722068696768657200\n        /* \"#utility.yul\":18314:18315   */\n      0x00\n        /* \"#utility.yul\":18306:18312   */\n      dup3\n        /* \"#utility.yul\":18302:18316   */\n      add\n        /* \"#utility.yul\":18295:18352   */\n      mstore\n        /* \"#utility.yul\":18178:18359   */\n      pop\n      jump\t// out\n        /* \"#utility.yul\":18365:18731   */\n    tag_279:\n        /* \"#utility.yul\":18507:18510   */\n      0x00\n        /* \"#utility.yul\":18528:18595   */\n      tag_448\n        /* \"#utility.yul\":18592:18594   */\n      0x1f\n        /* \"#utility.yul\":18587:18590   */\n      dup4\n        /* \"#utility.yul\":18528:18595   */\n      tag_255\n      jump\t// in\n    tag_448:\n        /* \"#utility.yul\":18521:18595   */\n      swap2\n      pop\n        /* \"#utility.yul\":18604:18697   */\n      tag_449\n        /* \"#utility.yul\":18693:18696   */\n      dup3\n        /* \"#utility.yul\":18604:18697   */\n      tag_278\n      jump\t// in\n    tag_449:\n        /* \"#utility.yul\":18722:18724   */\n      0x20\n        /* \"#utility.yul\":18717:18720   */\n      dup3\n        /* \"#utility.yul\":18713:18725   */\n      add\n        /* \"#utility.yul\":18706:18725   */\n      swap1\n      pop\n        /* \"#utility.yul\":18365:18731   */\n      swap2\n      swap1\n      pop\n      jump\t// out\n        /* \"#utility.yul\":18737:19156   */\n    tag_182:\n        /* \"#utility.yul\":18903:18907   */\n      0x00\n        /* \"#utility.yul\":18941:18943   */\n      0x20\n        /* \"#utility.yul\":18930:18939   */\n      dup3\n        /* \"#utility.yul\":18926:18944   */\n      add\n        /* \"#utility.yul\":18918:18944   */\n      swap1\n      pop\n        /* \"#utility.yul\":18990:18999   */\n      dup2\n        /* \"#utility.yul\":18984:18988   */\n      dup2\n        /* \"#utility.yul\":18980:19000   */\n      sub\n        /* \"#utility.yul\":18976:18977   */\n      0x00\n        /* \"#utility.yul\":18965:18974   */\n      dup4\n        /* \"#utility.yul\":18961:18978   */\n      add\n        /* \"#utility.yul\":18954:19001   */\n      mstore\n        /* \"#utility.yul\":19018:19149   */\n      tag_451\n        /* \"#utility.yul\":19144:19148   */\n      dup2\n        /* \"#utility.yul\":19018:19149   */\n      tag_279\n      jump\t// in\n    tag_451:\n        /* \"#utility.yul\":19010:19149   */\n      swap1\n      pop\n        /* \"#utility.yul\":18737:19156   */\n      swap2\n      swap1\n      pop\n      jump\t// out\n        /* \"#utility.yul\":19162:19342   */\n    tag_227:\n        /* \"#utility.yul\":19210:19287   */\n      0x4e487b7100000000000000000000000000000000000000000000000000000000\n        /* \"#utility.yul\":19207:19208   */\n      0x00\n        /* \"#utility.yul\":19200:19288   */\n      mstore\n        /* \"#utility.yul\":19307:19311   */\n      0x31\n        /* \"#utility.yul\":19304:19305   */\n      0x04\n        /* \"#utility.yul\":19297:19312   */\n      mstore\n        /* \"#utility.yul\":19331:19335   */\n      0x24\n        /* \"#utility.yul\":19328:19329   */\n      0x00\n        /* \"#utility.yul\":19321:19336   */\n      revert\n\n    auxdata: 0xa26469706673582212200e39e7bc9301c02507d460ceeb7cea1d8c8307913c239c523f7c45a42f01963064736f6c634300081a0033\n}\n",
				"bytecode": {
					"linkReferences": {},
					"object": "60806040526729a2241af62c00006002556004600355348015610020575f80fd5b506040516123553803806123558339818101604052810190610042919061012c565b335f806101000a81548173ffffffffffffffffffffffffffffffffffffffff021916908373ffffffffffffffffffffffffffffffffffffffff1602179055508060015f6101000a81548173ffffffffffffffffffffffffffffffffffffffff021916908373ffffffffffffffffffffffffffffffffffffffff1602179055504260048190555050610157565b5f80fd5b5f73ffffffffffffffffffffffffffffffffffffffff82169050919050565b5f6100fb826100d2565b9050919050565b61010b816100f1565b8114610115575f80fd5b50565b5f8151905061012681610102565b92915050565b5f60208284031215610141576101406100ce565b5b5f61014e84828501610118565b91505092915050565b6121f1806101645f395ff3fe608060405234801561000f575f80fd5b50600436106100e8575f3560e01c8063a87430ba1161008a578063b0cd9cff11610064578063b0cd9cff1461023a578063b894cb2414610258578063e2a609b914610288578063e39f82eb146102a6576100e8565b8063a87430ba146101ba578063ad884f69146101ee578063aefb34341461020a576100e8565b80638da5cb5b116100c65780638da5cb5b146101445780638f1c3151146101625780639342c8f4146101805780639d741e5d1461019c576100e8565b806314c44e09146100ec5780631517f6631461010a5780636f4a2cd01461013a575b5f80fd5b6100f46102c2565b604051610101919061182d565b60405180910390f35b610124600480360381019061011f9190611874565b6102c8565b604051610131919061182d565b60405180910390f35b610142610337565b005b61014c6106e9565b60405161015991906118de565b60405180910390f35b61016a61070c565b604051610177919061182d565b60405180910390f35b61019a60048036038101906101959190611874565b610712565b005b6101a4610959565b6040516101b191906118de565b60405180910390f35b6101d460048036038101906101cf9190611921565b61097e565b6040516101e5959493929190611966565b60405180910390f35b61020860048036038101906102039190611921565b6109db565b005b610224600480360381019061021f91906119b7565b610fdb565b60405161023191906118de565b60405180910390f35b610242611023565b60405161024f919061182d565b60405180910390f35b610272600480360381019061026d9190611874565b611029565b60405161027f9190611aac565b60405180910390f35b610290611116565b60405161029d919061182d565b60405180910390f35b6102c060048036038101906102bb9190611874565b61111c565b005b60025481565b5f600282036102e2576801a055690d9db800009050610332565b600382036102fb57681043561a88293000009050610332565b600482036103145768a2a15d09519be000009050610332565b6005820361032e5769065a4da25d3016c000009050610332565b5f90505b919050565b5f8054906101000a900473ffffffffffffffffffffffffffffffffffffffff1673ffffffffffffffffffffffffffffffffffffffff163373ffffffffffffffffffffffffffffffffffffffff16146103c4576040517f08c379a00000000000000000000000000000000000000000000000000000000081526004016103bb90611b26565b60405180910390fd5b5f60075490505f6064600354836103db9190611b71565b6103e59190611bdf565b90508060075f8282546103f89190611c0f565b9250508190555060015f9054906101000a900473ffffffffffffffffffffffffffffffffffffffff1673ffffffffffffffffffffffffffffffffffffffff1663a9059cbb5f8054906101000a900473ffffffffffffffffffffffffffffffffffffffff16836040518363ffffffff1660e01b815260040161047a929190611c42565b6020604051808303815f875af1158015610496573d5f803e3d5ffd5b505050506040513d601f19601f820116820180604052508101906104ba9190611c93565b6104f9576040517f08c379a00000000000000000000000000000000000000000000000000000000081526004016104f090611d08565b60405180910390fd5b5f81836105069190611c0f565b90505f600190505b600581116106a5575f610520826114c4565b90505f606482856105319190611b71565b61053b9190611bdf565b90505f60065f8581526020019081526020015f208054806020026020016040519081016040528092919081815260200182805480156105cc57602002820191905f5260205f20905b815f9054906101000a900473ffffffffffffffffffffffffffffffffffffffff1673ffffffffffffffffffffffffffffffffffffffff1681526020019060010190808311610583575b505050505090505f8151111561068f575f8151836105ea9190611bdf565b90505f5b825181101561068c578160055f85848151811061060e5761060d611d26565b5b602002602001015173ffffffffffffffffffffffffffffffffffffffff1673ffffffffffffffffffffffffffffffffffffffff1681526020019081526020015f206003015f8282546106609190611d53565b925050819055508160075f8282546106789190611c0f565b9250508190555080806001019150506105ee565b50505b505050808061069d90611d86565b91505061050e565b50426004819055507f6d1c76d614228b523baa4dcd9539e2c713b54ff4ab3ff2d1627e7f6cd32be442836040516106dc919061182d565b60405180910390a1505050565b5f8054906101000a900473ffffffffffffffffffffffffffffffffffffffff1681565b60035481565b5f8111610754576040517f08c379a000000000000000000000000000000000000000000000000000000000815260040161074b90611e3d565b60405180910390fd5b8060055f3373ffffffffffffffffffffffffffffffffffffffff1673ffffffffffffffffffffffffffffffffffffffff1681526020019081526020015f206003015410156107d7576040517f08c379a00000000000000000000000000000000000000000000000000000000081526004016107ce90611ea5565b60405180910390fd5b8060055f3373ffffffffffffffffffffffffffffffffffffffff1673ffffffffffffffffffffffffffffffffffffffff1681526020019081526020015f206003015f8282546108269190611c0f565b9250508190555060015f9054906101000a900473ffffffffffffffffffffffffffffffffffffffff1673ffffffffffffffffffffffffffffffffffffffff1663a9059cbb33836040518363ffffffff1660e01b8152600401610889929190611c42565b6020604051808303815f875af11580156108a5573d5f803e3d5ffd5b505050506040513d601f19601f820116820180604052508101906108c99190611c93565b610908576040517f08c379a00000000000000000000000000000000000000000000000000000000081526004016108ff90611f0d565b60405180910390fd5b3373ffffffffffffffffffffffffffffffffffffffff167f7fcf532c15f0a6db0bd6d0e038bea71d30d808c7d98cb3bf7268a95bf5081b658260405161094e919061182d565b60405180910390a250565b60015f9054906101000a900473ffffffffffffffffffffffffffffffffffffffff1681565b6005602052805f5260405f205f91509050805f015f9054906101000a900473ffffffffffffffffffffffffffffffffffffffff1690806001015490806002015490806003015490806004015f9054906101000a900460ff16905085565b5f73ffffffffffffffffffffffffffffffffffffffff1660055f3373ffffffffffffffffffffffffffffffffffffffff1673ffffffffffffffffffffffffffffffffffffffff1681526020019081526020015f205f015f9054906101000a900473ffffffffffffffffffffffffffffffffffffffff1673ffffffffffffffffffffffffffffffffffffffff1614610aa7576040517f08c379a0000000000000000000000000000000000000000000000000000000008152600401610a9e90611f75565b60405180910390fd5b60015f9054906101000a900473ffffffffffffffffffffffffffffffffffffffff1673ffffffffffffffffffffffffffffffffffffffff166323b872dd33306002546040518463ffffffff1660e01b8152600401610b0793929190611f93565b6020604051808303815f875af1158015610b23573d5f803e3d5ffd5b505050506040513d601f19601f82011682018060405250810190610b479190611c93565b610b86576040517f08c379a0000000000000000000000000000000000000000000000000000000008152600401610b7d90612012565b60405180910390fd5b5f73ffffffffffffffffffffffffffffffffffffffff168173ffffffffffffffffffffffffffffffffffffffff1614158015610bee57503373ffffffffffffffffffffffffffffffffffffffff168173ffffffffffffffffffffffffffffffffffffffff1614155b15610e3d5760055f8273ffffffffffffffffffffffffffffffffffffffff1673ffffffffffffffffffffffffffffffffffffffff1681526020019081526020015f206001015f815480929190610c4390611d86565b9190505550600160055f8373ffffffffffffffffffffffffffffffffffffffff1673ffffffffffffffffffffffffffffffffffffffff1681526020019081526020015f206004015f6101000a81548160ff0219169083151502179055505f610cea60055f8473ffffffffffffffffffffffffffffffffffffffff1673ffffffffffffffffffffffffffffffffffffffff1681526020019081526020015f2060010154611523565b90508060055f8473ffffffffffffffffffffffffffffffffffffffff1673ffffffffffffffffffffffffffffffffffffffff1681526020019081526020015f206002015414610e3257610d7d8260055f8573ffffffffffffffffffffffffffffffffffffffff1673ffffffffffffffffffffffffffffffffffffffff1681526020019081526020015f20600201546115c2565b8060055f8473ffffffffffffffffffffffffffffffffffffffff1673ffffffffffffffffffffffffffffffffffffffff1681526020019081526020015f206002018190555060065f8281526020019081526020015f2082908060018154018082558091505060019003905f5260205f20015f9091909190916101000a81548173ffffffffffffffffffffffffffffffffffffffff021916908373ffffffffffffffffffffffffffffffffffffffff1602179055505b610e3b8261174f565b505b8060055f3373ffffffffffffffffffffffffffffffffffffffff1673ffffffffffffffffffffffffffffffffffffffff1681526020019081526020015f205f015f6101000a81548173ffffffffffffffffffffffffffffffffffffffff021916908373ffffffffffffffffffffffffffffffffffffffff1602179055505f610f0460055f3373ffffffffffffffffffffffffffffffffffffffff1673ffffffffffffffffffffffffffffffffffffffff1681526020019081526020015f2060010154611523565b90508060055f3373ffffffffffffffffffffffffffffffffffffffff1673ffffffffffffffffffffffffffffffffffffffff1681526020019081526020015f206002018190555060646032600254610f5c9190611b71565b610f669190611bdf565b60075f828254610f769190611d53565b925050819055508173ffffffffffffffffffffffffffffffffffffffff163373ffffffffffffffffffffffffffffffffffffffff167f0a31ee9d46a828884b81003c8498156ea6aa15b9b54bdd0ef0b533d9eba57e5560405160405180910390a35050565b6006602052815f5260405f208181548110610ff4575f80fd5b905f5260205f20015f915091509054906101000a900473ffffffffffffffffffffffffffffffffffffffff1681565b60045481565b60606001821015801561103d575060058211155b61107c576040517f08c379a00000000000000000000000000000000000000000000000000000000081526004016110739061207a565b60405180910390fd5b60065f8381526020019081526020015f2080548060200260200160405190810160405280929190818152602001828054801561110a57602002820191905f5260205f20905b815f9054906101000a900473ffffffffffffffffffffffffffffffffffffffff1673ffffffffffffffffffffffffffffffffffffffff16815260200190600101908083116110c1575b50505050509050919050565b60075481565b6001811015801561112e575060058111155b61116d576040517f08c379a00000000000000000000000000000000000000000000000000000000081526004016111649061207a565b60405180910390fd5b600160055f3373ffffffffffffffffffffffffffffffffffffffff1673ffffffffffffffffffffffffffffffffffffffff1681526020019081526020015f206001015410156111f1576040517f08c379a00000000000000000000000000000000000000000000000000000000081526004016111e890612108565b60405180910390fd5b8060055f3373ffffffffffffffffffffffffffffffffffffffff1673ffffffffffffffffffffffffffffffffffffffff1681526020019081526020015f206002015410611273576040517f08c379a000000000000000000000000000000000000000000000000000000000815260040161126a90612170565b60405180910390fd5b5f61127d826102c8565b905060015f9054906101000a900473ffffffffffffffffffffffffffffffffffffffff1673ffffffffffffffffffffffffffffffffffffffff166323b872dd3330846040518463ffffffff1660e01b81526004016112dd93929190611f93565b6020604051808303815f875af11580156112f9573d5f803e3d5ffd5b505050506040513d601f19601f8201168201806040525081019061131d9190611c93565b61135c576040517f08c379a000000000000000000000000000000000000000000000000000000000815260040161135390612012565b60405180910390fd5b6113a63360055f3373ffffffffffffffffffffffffffffffffffffffff1673ffffffffffffffffffffffffffffffffffffffff1681526020019081526020015f20600201546115c2565b8160055f3373ffffffffffffffffffffffffffffffffffffffff1673ffffffffffffffffffffffffffffffffffffffff1681526020019081526020015f206002018190555060065f8381526020019081526020015f2033908060018154018082558091505060019003905f5260205f20015f9091909190916101000a81548173ffffffffffffffffffffffffffffffffffffffff021916908373ffffffffffffffffffffffffffffffffffffffff1602179055508060075f82825461146b9190611d53565b925050819055503373ffffffffffffffffffffffffffffffffffffffff167f427898149ffa0bd0a638b73a8506cc040ca0034a36bdb547db4fb73fd0313c02836040516114b8919061182d565b60405180910390a25050565b5f600182036114d6576010905061151e565b600282036114e7576012905061151e565b600382036114f8576014905061151e565b60048203611509576016905061151e565b6005820361151a576018905061151e565b5f90505b919050565b5f60018210158015611536575060098211155b1561154457600190506115bd565b600a8210158015611556575060638211155b1561156457600290506115bd565b6064821015801561157757506103e78211155b1561158557600390506115bd565b6103e88210158015611599575061270f8211155b156115a757600490506115bd565b61271082106115b957600590506115bd565b5f90505b919050565b5f60065f8381526020019081526020015f2090505f5b8180549050811015611749578373ffffffffffffffffffffffffffffffffffffffff1682828154811061160e5761160d611d26565b5b905f5260205f20015f9054906101000a900473ffffffffffffffffffffffffffffffffffffffff1673ffffffffffffffffffffffffffffffffffffffff160361173c5781600183805490506116639190611c0f565b8154811061167457611673611d26565b5b905f5260205f20015f9054906101000a900473ffffffffffffffffffffffffffffffffffffffff168282815481106116af576116ae611d26565b5b905f5260205f20015f6101000a81548173ffffffffffffffffffffffffffffffffffffffff021916908373ffffffffffffffffffffffffffffffffffffffff160217905550818054806117055761170461218e565b5b600190038181905f5260205f20015f6101000a81549073ffffffffffffffffffffffffffffffffffffffff02191690559055611749565b80806001019150506115d8565b50505050565b5f606460326002546117619190611b71565b61176b9190611bdf565b90508060055f8473ffffffffffffffffffffffffffffffffffffffff1673ffffffffffffffffffffffffffffffffffffffff1681526020019081526020015f206003015f8282546117bc9190611d53565b925050819055508173ffffffffffffffffffffffffffffffffffffffff167f6292f4f27d8047af4537a4bd86906de0e2c880c20086f7f58b81eacfeb63912682604051611809919061182d565b60405180910390a25050565b5f819050919050565b61182781611815565b82525050565b5f6020820190506118405f83018461181e565b92915050565b5f80fd5b61185381611815565b811461185d575f80fd5b50565b5f8135905061186e8161184a565b92915050565b5f6020828403121561188957611888611846565b5b5f61189684828501611860565b91505092915050565b5f73ffffffffffffffffffffffffffffffffffffffff82169050919050565b5f6118c88261189f565b9050919050565b6118d8816118be565b82525050565b5f6020820190506118f15f8301846118cf565b92915050565b611900816118be565b811461190a575f80fd5b50565b5f8135905061191b816118f7565b92915050565b5f6020828403121561193657611935611846565b5b5f6119438482850161190d565b91505092915050565b5f8115159050919050565b6119608161194c565b82525050565b5f60a0820190506119795f8301886118cf565b611986602083018761181e565b611993604083018661181e565b6119a0606083018561181e565b6119ad6080830184611957565b9695505050505050565b5f80604083850312156119cd576119cc611846565b5b5f6119da85828601611860565b92505060206119eb85828601611860565b9150509250929050565b5f81519050919050565b5f82825260208201905092915050565b5f819050602082019050919050565b611a27816118be565b82525050565b5f611a388383611a1e565b60208301905092915050565b5f602082019050919050565b5f611a5a826119f5565b611a6481856119ff565b9350611a6f83611a0f565b805f5b83811015611a9f578151611a868882611a2d565b9750611a9183611a44565b925050600181019050611a72565b5085935050505092915050565b5f6020820190508181035f830152611ac48184611a50565b905092915050565b5f82825260208201905092915050565b7f4e6f7420617574686f72697a65640000000000000000000000000000000000005f82015250565b5f611b10600e83611acc565b9150611b1b82611adc565b602082019050919050565b5f6020820190508181035f830152611b3d81611b04565b9050919050565b7f4e487b71000000000000000000000000000000000000000000000000000000005f52601160045260245ffd5b5f611b7b82611815565b9150611b8683611815565b9250828202611b9481611815565b91508282048414831517611bab57611baa611b44565b5b5092915050565b7f4e487b71000000000000000000000000000000000000000000000000000000005f52601260045260245ffd5b5f611be982611815565b9150611bf483611815565b925082611c0457611c03611bb2565b5b828204905092915050565b5f611c1982611815565b9150611c2483611815565b9250828203905081811115611c3c57611c3b611b44565b5b92915050565b5f604082019050611c555f8301856118cf565b611c62602083018461181e565b9392505050565b611c728161194c565b8114611c7c575f80fd5b50565b5f81519050611c8d81611c69565b92915050565b5f60208284031215611ca857611ca7611846565b5b5f611cb584828501611c7f565b91505092915050565b7f4f776e6572207061796d656e74206661696c65640000000000000000000000005f82015250565b5f611cf2601483611acc565b9150611cfd82611cbe565b602082019050919050565b5f6020820190508181035f830152611d1f81611ce6565b9050919050565b7f4e487b71000000000000000000000000000000000000000000000000000000005f52603260045260245ffd5b5f611d5d82611815565b9150611d6883611815565b9250828201905080821115611d8057611d7f611b44565b5b92915050565b5f611d9082611815565b91507fffffffffffffffffffffffffffffffffffffffffffffffffffffffffffffffff8203611dc257611dc1611b44565b5b600182019050919050565b7f576974686472617720616d6f756e74206d7573742062652067726561746572205f8201527f7468616e207a65726f0000000000000000000000000000000000000000000000602082015250565b5f611e27602983611acc565b9150611e3282611dcd565b604082019050919050565b5f6020820190508181035f830152611e5481611e1b565b9050919050565b7f496e73756666696369656e74206561726e6564207265776172647300000000005f82015250565b5f611e8f601b83611acc565b9150611e9a82611e5b565b602082019050919050565b5f6020820190508181035f830152611ebc81611e83565b9050919050565b7f5769746864726177616c206661696c65640000000000000000000000000000005f82015250565b5f611ef7601183611acc565b9150611f0282611ec3565b602082019050919050565b5f6020820190508181035f830152611f2481611eeb565b9050919050565b7f416c7265616479207265676973746572656400000000000000000000000000005f82015250565b5f611f5f601283611acc565b9150611f6a82611f2b565b602082019050919050565b5f6020820190508181035f830152611f8c81611f53565b9050919050565b5f606082019050611fa65f8301866118cf565b611fb360208301856118cf565b611fc0604083018461181e565b949350505050565b7f5061796d656e74206661696c65640000000000000000000000000000000000005f82015250565b5f611ffc600e83611acc565b915061200782611fc8565b602082019050919050565b5f6020820190508181035f83015261202981611ff0565b9050919050565b7f496e76616c6964206c6576656c000000000000000000000000000000000000005f82015250565b5f612064600d83611acc565b915061206f82612030565b602082019050919050565b5f6020820190508181035f83015261209181612058565b9050919050565b7f4d75737420696e76697465206174206c65617374206f6e6520706572736f6e205f8201527f746f206163746976617465206561726e696e6773000000000000000000000000602082015250565b5f6120f2603483611acc565b91506120fd82612098565b604082019050919050565b5f6020820190508181035f83015261211f816120e6565b9050919050565b7f416c72656164792061742074686973206c6576656c206f7220686967686572005f82015250565b5f61215a601f83611acc565b915061216582612126565b602082019050919050565b5f6020820190508181035f8301526121878161214e565b9050919050565b7f4e487b71000000000000000000000000000000000000000000000000000000005f52603160045260245ffdfea26469706673582212200e39e7bc9301c02507d460ceeb7cea1d8c8307913c239c523f7c45a42f01963064736f6c634300081a0033",
					"opcodes": "PUSH1 0x80 PUSH1 0x40 MSTORE PUSH8 0x29A2241AF62C0000 PUSH1 0x2 SSTORE PUSH1 0x4 PUSH1 0x3 SSTORE CALLVALUE DUP1 ISZERO PUSH2 0x20 JUMPI PUSH0 DUP1 REVERT JUMPDEST POP PUSH1 0x40 MLOAD PUSH2 0x2355 CODESIZE SUB DUP1 PUSH2 0x2355 DUP4 CODECOPY DUP2 DUP2 ADD PUSH1 0x40 MSTORE DUP2 ADD SWAP1 PUSH2 0x42 SWAP2 SWAP1 PUSH2 0x12C JUMP JUMPDEST CALLER PUSH0 DUP1 PUSH2 0x100 EXP DUP2 SLOAD DUP2 PUSH20 0xFFFFFFFFFFFFFFFFFFFFFFFFFFFFFFFFFFFFFFFF MUL NOT AND SWAP1 DUP4 PUSH20 0xFFFFFFFFFFFFFFFFFFFFFFFFFFFFFFFFFFFFFFFF AND MUL OR SWAP1 SSTORE POP DUP1 PUSH1 0x1 PUSH0 PUSH2 0x100 EXP DUP2 SLOAD DUP2 PUSH20 0xFFFFFFFFFFFFFFFFFFFFFFFFFFFFFFFFFFFFFFFF MUL NOT AND SWAP1 DUP4 PUSH20 0xFFFFFFFFFFFFFFFFFFFFFFFFFFFFFFFFFFFFFFFF AND MUL OR SWAP1 SSTORE POP TIMESTAMP PUSH1 0x4 DUP2 SWAP1 SSTORE POP POP PUSH2 0x157 JUMP JUMPDEST PUSH0 DUP1 REVERT JUMPDEST PUSH0 PUSH20 0xFFFFFFFFFFFFFFFFFFFFFFFFFFFFFFFFFFFFFFFF DUP3 AND SWAP1 POP SWAP2 SWAP1 POP JUMP JUMPDEST PUSH0 PUSH2 0xFB DUP3 PUSH2 0xD2 JUMP JUMPDEST SWAP1 POP SWAP2 SWAP1 POP JUMP JUMPDEST PUSH2 0x10B DUP2 PUSH2 0xF1 JUMP JUMPDEST DUP2 EQ PUSH2 0x115 JUMPI PUSH0 DUP1 REVERT JUMPDEST POP JUMP JUMPDEST PUSH0 DUP2 MLOAD SWAP1 POP PUSH2 0x126 DUP2 PUSH2 0x102 JUMP JUMPDEST SWAP3 SWAP2 POP POP JUMP JUMPDEST PUSH0 PUSH1 0x20 DUP3 DUP5 SUB SLT ISZERO PUSH2 0x141 JUMPI PUSH2 0x140 PUSH2 0xCE JUMP JUMPDEST JUMPDEST PUSH0 PUSH2 0x14E DUP5 DUP3 DUP6 ADD PUSH2 0x118 JUMP JUMPDEST SWAP2 POP POP SWAP3 SWAP2 POP POP JUMP JUMPDEST PUSH2 0x21F1 DUP1 PUSH2 0x164 PUSH0 CODECOPY PUSH0 RETURN INVALID PUSH1 0x80 PUSH1 0x40 MSTORE CALLVALUE DUP1 ISZERO PUSH2 0xF JUMPI PUSH0 DUP1 REVERT JUMPDEST POP PUSH1 0x4 CALLDATASIZE LT PUSH2 0xE8 JUMPI PUSH0 CALLDATALOAD PUSH1 0xE0 SHR DUP1 PUSH4 0xA87430BA GT PUSH2 0x8A JUMPI DUP1 PUSH4 0xB0CD9CFF GT PUSH2 0x64 JUMPI DUP1 PUSH4 0xB0CD9CFF EQ PUSH2 0x23A JUMPI DUP1 PUSH4 0xB894CB24 EQ PUSH2 0x258 JUMPI DUP1 PUSH4 0xE2A609B9 EQ PUSH2 0x288 JUMPI DUP1 PUSH4 0xE39F82EB EQ PUSH2 0x2A6 JUMPI PUSH2 0xE8 JUMP JUMPDEST DUP1 PUSH4 0xA87430BA EQ PUSH2 0x1BA JUMPI DUP1 PUSH4 0xAD884F69 EQ PUSH2 0x1EE JUMPI DUP1 PUSH4 0xAEFB3434 EQ PUSH2 0x20A JUMPI PUSH2 0xE8 JUMP JUMPDEST DUP1 PUSH4 0x8DA5CB5B GT PUSH2 0xC6 JUMPI DUP1 PUSH4 0x8DA5CB5B EQ PUSH2 0x144 JUMPI DUP1 PUSH4 0x8F1C3151 EQ PUSH2 0x162 JUMPI DUP1 PUSH4 0x9342C8F4 EQ PUSH2 0x180 JUMPI DUP1 PUSH4 0x9D741E5D EQ PUSH2 0x19C JUMPI PUSH2 0xE8 JUMP JUMPDEST DUP1 PUSH4 0x14C44E09 EQ PUSH2 0xEC JUMPI DUP1 PUSH4 0x1517F663 EQ PUSH2 0x10A JUMPI DUP1 PUSH4 0x6F4A2CD0 EQ PUSH2 0x13A JUMPI JUMPDEST PUSH0 DUP1 REVERT JUMPDEST PUSH2 0xF4 PUSH2 0x2C2 JUMP JUMPDEST PUSH1 0x40 MLOAD PUSH2 0x101 SWAP2 SWAP1 PUSH2 0x182D JUMP JUMPDEST PUSH1 0x40 MLOAD DUP1 SWAP2 SUB SWAP1 RETURN JUMPDEST PUSH2 0x124 PUSH1 0x4 DUP1 CALLDATASIZE SUB DUP2 ADD SWAP1 PUSH2 0x11F SWAP2 SWAP1 PUSH2 0x1874 JUMP JUMPDEST PUSH2 0x2C8 JUMP JUMPDEST PUSH1 0x40 MLOAD PUSH2 0x131 SWAP2 SWAP1 PUSH2 0x182D JUMP JUMPDEST PUSH1 0x40 MLOAD DUP1 SWAP2 SUB SWAP1 RETURN JUMPDEST PUSH2 0x142 PUSH2 0x337 JUMP JUMPDEST STOP JUMPDEST PUSH2 0x14C PUSH2 0x6E9 JUMP JUMPDEST PUSH1 0x40 MLOAD PUSH2 0x159 SWAP2 SWAP1 PUSH2 0x18DE JUMP JUMPDEST PUSH1 0x40 MLOAD DUP1 SWAP2 SUB SWAP1 RETURN JUMPDEST PUSH2 0x16A PUSH2 0x70C JUMP JUMPDEST PUSH1 0x40 MLOAD PUSH2 0x177 SWAP2 SWAP1 PUSH2 0x182D JUMP JUMPDEST PUSH1 0x40 MLOAD DUP1 SWAP2 SUB SWAP1 RETURN JUMPDEST PUSH2 0x19A PUSH1 0x4 DUP1 CALLDATASIZE SUB DUP2 ADD SWAP1 PUSH2 0x195 SWAP2 SWAP1 PUSH2 0x1874 JUMP JUMPDEST PUSH2 0x712 JUMP JUMPDEST STOP JUMPDEST PUSH2 0x1A4 PUSH2 0x959 JUMP JUMPDEST PUSH1 0x40 MLOAD PUSH2 0x1B1 SWAP2 SWAP1 PUSH2 0x18DE JUMP JUMPDEST PUSH1 0x40 MLOAD DUP1 SWAP2 SUB SWAP1 RETURN JUMPDEST PUSH2 0x1D4 PUSH1 0x4 DUP1 CALLDATASIZE SUB DUP2 ADD SWAP1 PUSH2 0x1CF SWAP2 SWAP1 PUSH2 0x1921 JUMP JUMPDEST PUSH2 0x97E JUMP JUMPDEST PUSH1 0x40 MLOAD PUSH2 0x1E5 SWAP6 SWAP5 SWAP4 SWAP3 SWAP2 SWAP1 PUSH2 0x1966 JUMP JUMPDEST PUSH1 0x40 MLOAD DUP1 SWAP2 SUB SWAP1 RETURN JUMPDEST PUSH2 0x208 PUSH1 0x4 DUP1 CALLDATASIZE SUB DUP2 ADD SWAP1 PUSH2 0x203 SWAP2 SWAP1 PUSH2 0x1921 JUMP JUMPDEST PUSH2 0x9DB JUMP JUMPDEST STOP JUMPDEST PUSH2 0x224 PUSH1 0x4 DUP1 CALLDATASIZE SUB DUP2 ADD SWAP1 PUSH2 0x21F SWAP2 SWAP1 PUSH2 0x19B7 JUMP JUMPDEST PUSH2 0xFDB JUMP JUMPDEST PUSH1 0x40 MLOAD PUSH2 0x231 SWAP2 SWAP1 PUSH2 0x18DE JUMP JUMPDEST PUSH1 0x40 MLOAD DUP1 SWAP2 SUB SWAP1 RETURN JUMPDEST PUSH2 0x242 PUSH2 0x1023 JUMP JUMPDEST PUSH1 0x40 MLOAD PUSH2 0x24F SWAP2 SWAP1 PUSH2 0x182D JUMP JUMPDEST PUSH1 0x40 MLOAD DUP1 SWAP2 SUB SWAP1 RETURN JUMPDEST PUSH2 0x272 PUSH1 0x4 DUP1 CALLDATASIZE SUB DUP2 ADD SWAP1 PUSH2 0x26D SWAP2 SWAP1 PUSH2 0x1874 JUMP JUMPDEST PUSH2 0x1029 JUMP JUMPDEST PUSH1 0x40 MLOAD PUSH2 0x27F SWAP2 SWAP1 PUSH2 0x1AAC JUMP JUMPDEST PUSH1 0x40 MLOAD DUP1 SWAP2 SUB SWAP1 RETURN JUMPDEST PUSH2 0x290 PUSH2 0x1116 JUMP JUMPDEST PUSH1 0x40 MLOAD PUSH2 0x29D SWAP2 SWAP1 PUSH2 0x182D JUMP JUMPDEST PUSH1 0x40 MLOAD DUP1 SWAP2 SUB SWAP1 RETURN JUMPDEST PUSH2 0x2C0 PUSH1 0x4 DUP1 CALLDATASIZE SUB DUP2 ADD SWAP1 PUSH2 0x2BB SWAP2 SWAP1 PUSH2 0x1874 JUMP JUMPDEST PUSH2 0x111C JUMP JUMPDEST STOP JUMPDEST PUSH1 0x2 SLOAD DUP2 JUMP JUMPDEST PUSH0 PUSH1 0x2 DUP3 SUB PUSH2 0x2E2 JUMPI PUSH9 0x1A055690D9DB80000 SWAP1 POP PUSH2 0x332 JUMP JUMPDEST PUSH1 0x3 DUP3 SUB PUSH2 0x2FB JUMPI PUSH9 0x1043561A8829300000 SWAP1 POP PUSH2 0x332 JUMP JUMPDEST PUSH1 0x4 DUP3 SUB PUSH2 0x314 JUMPI PUSH9 0xA2A15D09519BE00000 SWAP1 POP PUSH2 0x332 JUMP JUMPDEST PUSH1 0x5 DUP3 SUB PUSH2 0x32E JUMPI PUSH10 0x65A4DA25D3016C00000 SWAP1 POP PUSH2 0x332 JUMP JUMPDEST PUSH0 SWAP1 POP JUMPDEST SWAP2 SWAP1 POP JUMP JUMPDEST PUSH0 DUP1 SLOAD SWAP1 PUSH2 0x100 EXP SWAP1 DIV PUSH20 0xFFFFFFFFFFFFFFFFFFFFFFFFFFFFFFFFFFFFFFFF AND PUSH20 0xFFFFFFFFFFFFFFFFFFFFFFFFFFFFFFFFFFFFFFFF AND CALLER PUSH20 0xFFFFFFFFFFFFFFFFFFFFFFFFFFFFFFFFFFFFFFFF AND EQ PUSH2 0x3C4 JUMPI PUSH1 0x40 MLOAD PUSH32 0x8C379A000000000000000000000000000000000000000000000000000000000 DUP2 MSTORE PUSH1 0x4 ADD PUSH2 0x3BB SWAP1 PUSH2 0x1B26 JUMP JUMPDEST PUSH1 0x40 MLOAD DUP1 SWAP2 SUB SWAP1 REVERT JUMPDEST PUSH0 PUSH1 0x7 SLOAD SWAP1 POP PUSH0 PUSH1 0x64 PUSH1 0x3 SLOAD DUP4 PUSH2 0x3DB SWAP2 SWAP1 PUSH2 0x1B71 JUMP JUMPDEST PUSH2 0x3E5 SWAP2 SWAP1 PUSH2 0x1BDF JUMP JUMPDEST SWAP1 POP DUP1 PUSH1 0x7 PUSH0 DUP3 DUP3 SLOAD PUSH2 0x3F8 SWAP2 SWAP1 PUSH2 0x1C0F JUMP JUMPDEST SWAP3 POP POP DUP2 SWAP1 SSTORE POP PUSH1 0x1 PUSH0 SWAP1 SLOAD SWAP1 PUSH2 0x100 EXP SWAP1 DIV PUSH20 0xFFFFFFFFFFFFFFFFFFFFFFFFFFFFFFFFFFFFFFFF AND PUSH20 0xFFFFFFFFFFFFFFFFFFFFFFFFFFFFFFFFFFFFFFFF AND PUSH4 0xA9059CBB PUSH0 DUP1 SLOAD SWAP1 PUSH2 0x100 EXP SWAP1 DIV PUSH20 0xFFFFFFFFFFFFFFFFFFFFFFFFFFFFFFFFFFFFFFFF AND DUP4 PUSH1 0x40 MLOAD DUP4 PUSH4 0xFFFFFFFF AND PUSH1 0xE0 SHL DUP2 MSTORE PUSH1 0x4 ADD PUSH2 0x47A SWAP3 SWAP2 SWAP1 PUSH2 0x1C42 JUMP JUMPDEST PUSH1 0x20 PUSH1 0x40 MLOAD DUP1 DUP4 SUB DUP2 PUSH0 DUP8 GAS CALL ISZERO DUP1 ISZERO PUSH2 0x496 JUMPI RETURNDATASIZE PUSH0 DUP1 RETURNDATACOPY RETURNDATASIZE PUSH0 REVERT JUMPDEST POP POP POP POP PUSH1 0x40 MLOAD RETURNDATASIZE PUSH1 0x1F NOT PUSH1 0x1F DUP3 ADD AND DUP3 ADD DUP1 PUSH1 0x40 MSTORE POP DUP2 ADD SWAP1 PUSH2 0x4BA SWAP2 SWAP1 PUSH2 0x1C93 JUMP JUMPDEST PUSH2 0x4F9 JUMPI PUSH1 0x40 MLOAD PUSH32 0x8C379A000000000000000000000000000000000000000000000000000000000 DUP2 MSTORE PUSH1 0x4 ADD PUSH2 0x4F0 SWAP1 PUSH2 0x1D08 JUMP JUMPDEST PUSH1 0x40 MLOAD DUP1 SWAP2 SUB SWAP1 REVERT JUMPDEST PUSH0 DUP2 DUP4 PUSH2 0x506 SWAP2 SWAP1 PUSH2 0x1C0F JUMP JUMPDEST SWAP1 POP PUSH0 PUSH1 0x1 SWAP1 POP JUMPDEST PUSH1 0x5 DUP2 GT PUSH2 0x6A5 JUMPI PUSH0 PUSH2 0x520 DUP3 PUSH2 0x14C4 JUMP JUMPDEST SWAP1 POP PUSH0 PUSH1 0x64 DUP3 DUP6 PUSH2 0x531 SWAP2 SWAP1 PUSH2 0x1B71 JUMP JUMPDEST PUSH2 0x53B SWAP2 SWAP1 PUSH2 0x1BDF JUMP JUMPDEST SWAP1 POP PUSH0 PUSH1 0x6 PUSH0 DUP6 DUP2 MSTORE PUSH1 0x20 ADD SWAP1 DUP2 MSTORE PUSH1 0x20 ADD PUSH0 KECCAK256 DUP1 SLOAD DUP1 PUSH1 0x20 MUL PUSH1 0x20 ADD PUSH1 0x40 MLOAD SWAP1 DUP2 ADD PUSH1 0x40 MSTORE DUP1 SWAP3 SWAP2 SWAP1 DUP2 DUP2 MSTORE PUSH1 0x20 ADD DUP3 DUP1 SLOAD DUP1 ISZERO PUSH2 0x5CC JUMPI PUSH1 0x20 MUL DUP3 ADD SWAP2 SWAP1 PUSH0 MSTORE PUSH1 0x20 PUSH0 KECCAK256 SWAP1 JUMPDEST DUP2 PUSH0 SWAP1 SLOAD SWAP1 PUSH2 0x100 EXP SWAP1 DIV PUSH20 0xFFFFFFFFFFFFFFFFFFFFFFFFFFFFFFFFFFFFFFFF AND PUSH20 0xFFFFFFFFFFFFFFFFFFFFFFFFFFFFFFFFFFFFFFFF AND DUP2 MSTORE PUSH1 0x20 ADD SWAP1 PUSH1 0x1 ADD SWAP1 DUP1 DUP4 GT PUSH2 0x583 JUMPI JUMPDEST POP POP POP POP POP SWAP1 POP PUSH0 DUP2 MLOAD GT ISZERO PUSH2 0x68F JUMPI PUSH0 DUP2 MLOAD DUP4 PUSH2 0x5EA SWAP2 SWAP1 PUSH2 0x1BDF JUMP JUMPDEST SWAP1 POP PUSH0 JUMPDEST DUP3 MLOAD DUP2 LT ISZERO PUSH2 0x68C JUMPI DUP2 PUSH1 0x5 PUSH0 DUP6 DUP5 DUP2 MLOAD DUP2 LT PUSH2 0x60E JUMPI PUSH2 0x60D PUSH2 0x1D26 JUMP JUMPDEST JUMPDEST PUSH1 0x20 MUL PUSH1 0x20 ADD ADD MLOAD PUSH20 0xFFFFFFFFFFFFFFFFFFFFFFFFFFFFFFFFFFFFFFFF AND PUSH20 0xFFFFFFFFFFFFFFFFFFFFFFFFFFFFFFFFFFFFFFFF AND DUP2 MSTORE PUSH1 0x20 ADD SWAP1 DUP2 MSTORE PUSH1 0x20 ADD PUSH0 KECCAK256 PUSH1 0x3 ADD PUSH0 DUP3 DUP3 SLOAD PUSH2 0x660 SWAP2 SWAP1 PUSH2 0x1D53 JUMP JUMPDEST SWAP3 POP POP DUP2 SWAP1 SSTORE POP DUP2 PUSH1 0x7 PUSH0 DUP3 DUP3 SLOAD PUSH2 0x678 SWAP2 SWAP1 PUSH2 0x1C0F JUMP JUMPDEST SWAP3 POP POP DUP2 SWAP1 SSTORE POP DUP1 DUP1 PUSH1 0x1 ADD SWAP2 POP POP PUSH2 0x5EE JUMP JUMPDEST POP POP JUMPDEST POP POP POP DUP1 DUP1 PUSH2 0x69D SWAP1 PUSH2 0x1D86 JUMP JUMPDEST SWAP2 POP POP PUSH2 0x50E JUMP JUMPDEST POP TIMESTAMP PUSH1 0x4 DUP2 SWAP1 SSTORE POP PUSH32 0x6D1C76D614228B523BAA4DCD9539E2C713B54FF4AB3FF2D1627E7F6CD32BE442 DUP4 PUSH1 0x40 MLOAD PUSH2 0x6DC SWAP2 SWAP1 PUSH2 0x182D JUMP JUMPDEST PUSH1 0x40 MLOAD DUP1 SWAP2 SUB SWAP1 LOG1 POP POP POP JUMP JUMPDEST PUSH0 DUP1 SLOAD SWAP1 PUSH2 0x100 EXP SWAP1 DIV PUSH20 0xFFFFFFFFFFFFFFFFFFFFFFFFFFFFFFFFFFFFFFFF AND DUP2 JUMP JUMPDEST PUSH1 0x3 SLOAD DUP2 JUMP JUMPDEST PUSH0 DUP2 GT PUSH2 0x754 JUMPI PUSH1 0x40 MLOAD PUSH32 0x8C379A000000000000000000000000000000000000000000000000000000000 DUP2 MSTORE PUSH1 0x4 ADD PUSH2 0x74B SWAP1 PUSH2 0x1E3D JUMP JUMPDEST PUSH1 0x40 MLOAD DUP1 SWAP2 SUB SWAP1 REVERT JUMPDEST DUP1 PUSH1 0x5 PUSH0 CALLER PUSH20 0xFFFFFFFFFFFFFFFFFFFFFFFFFFFFFFFFFFFFFFFF AND PUSH20 0xFFFFFFFFFFFFFFFFFFFFFFFFFFFFFFFFFFFFFFFF AND DUP2 MSTORE PUSH1 0x20 ADD SWAP1 DUP2 MSTORE PUSH1 0x20 ADD PUSH0 KECCAK256 PUSH1 0x3 ADD SLOAD LT ISZERO PUSH2 0x7D7 JUMPI PUSH1 0x40 MLOAD PUSH32 0x8C379A000000000000000000000000000000000000000000000000000000000 DUP2 MSTORE PUSH1 0x4 ADD PUSH2 0x7CE SWAP1 PUSH2 0x1EA5 JUMP JUMPDEST PUSH1 0x40 MLOAD DUP1 SWAP2 SUB SWAP1 REVERT JUMPDEST DUP1 PUSH1 0x5 PUSH0 CALLER PUSH20 0xFFFFFFFFFFFFFFFFFFFFFFFFFFFFFFFFFFFFFFFF AND PUSH20 0xFFFFFFFFFFFFFFFFFFFFFFFFFFFFFFFFFFFFFFFF AND DUP2 MSTORE PUSH1 0x20 ADD SWAP1 DUP2 MSTORE PUSH1 0x20 ADD PUSH0 KECCAK256 PUSH1 0x3 ADD PUSH0 DUP3 DUP3 SLOAD PUSH2 0x826 SWAP2 SWAP1 PUSH2 0x1C0F JUMP JUMPDEST SWAP3 POP POP DUP2 SWAP1 SSTORE POP PUSH1 0x1 PUSH0 SWAP1 SLOAD SWAP1 PUSH2 0x100 EXP SWAP1 DIV PUSH20 0xFFFFFFFFFFFFFFFFFFFFFFFFFFFFFFFFFFFFFFFF AND PUSH20 0xFFFFFFFFFFFFFFFFFFFFFFFFFFFFFFFFFFFFFFFF AND PUSH4 0xA9059CBB CALLER DUP4 PUSH1 0x40 MLOAD DUP4 PUSH4 0xFFFFFFFF AND PUSH1 0xE0 SHL DUP2 MSTORE PUSH1 0x4 ADD PUSH2 0x889 SWAP3 SWAP2 SWAP1 PUSH2 0x1C42 JUMP JUMPDEST PUSH1 0x20 PUSH1 0x40 MLOAD DUP1 DUP4 SUB DUP2 PUSH0 DUP8 GAS CALL ISZERO DUP1 ISZERO PUSH2 0x8A5 JUMPI RETURNDATASIZE PUSH0 DUP1 RETURNDATACOPY RETURNDATASIZE PUSH0 REVERT JUMPDEST POP POP POP POP PUSH1 0x40 MLOAD RETURNDATASIZE PUSH1 0x1F NOT PUSH1 0x1F DUP3 ADD AND DUP3 ADD DUP1 PUSH1 0x40 MSTORE POP DUP2 ADD SWAP1 PUSH2 0x8C9 SWAP2 SWAP1 PUSH2 0x1C93 JUMP JUMPDEST PUSH2 0x908 JUMPI PUSH1 0x40 MLOAD PUSH32 0x8C379A000000000000000000000000000000000000000000000000000000000 DUP2 MSTORE PUSH1 0x4 ADD PUSH2 0x8FF SWAP1 PUSH2 0x1F0D JUMP JUMPDEST PUSH1 0x40 MLOAD DUP1 SWAP2 SUB SWAP1 REVERT JUMPDEST CALLER PUSH20 0xFFFFFFFFFFFFFFFFFFFFFFFFFFFFFFFFFFFFFFFF AND PUSH32 0x7FCF532C15F0A6DB0BD6D0E038BEA71D30D808C7D98CB3BF7268A95BF5081B65 DUP3 PUSH1 0x40 MLOAD PUSH2 0x94E SWAP2 SWAP1 PUSH2 0x182D JUMP JUMPDEST PUSH1 0x40 MLOAD DUP1 SWAP2 SUB SWAP1 LOG2 POP JUMP JUMPDEST PUSH1 0x1 PUSH0 SWAP1 SLOAD SWAP1 PUSH2 0x100 EXP SWAP1 DIV PUSH20 0xFFFFFFFFFFFFFFFFFFFFFFFFFFFFFFFFFFFFFFFF AND DUP2 JUMP JUMPDEST PUSH1 0x5 PUSH1 0x20 MSTORE DUP1 PUSH0 MSTORE PUSH1 0x40 PUSH0 KECCAK256 PUSH0 SWAP2 POP SWAP1 POP DUP1 PUSH0 ADD PUSH0 SWAP1 SLOAD SWAP1 PUSH2 0x100 EXP SWAP1 DIV PUSH20 0xFFFFFFFFFFFFFFFFFFFFFFFFFFFFFFFFFFFFFFFF AND SWAP1 DUP1 PUSH1 0x1 ADD SLOAD SWAP1 DUP1 PUSH1 0x2 ADD SLOAD SWAP1 DUP1 PUSH1 0x3 ADD SLOAD SWAP1 DUP1 PUSH1 0x4 ADD PUSH0 SWAP1 SLOAD SWAP1 PUSH2 0x100 EXP SWAP1 DIV PUSH1 0xFF AND SWAP1 POP DUP6 JUMP JUMPDEST PUSH0 PUSH20 0xFFFFFFFFFFFFFFFFFFFFFFFFFFFFFFFFFFFFFFFF AND PUSH1 0x5 PUSH0 CALLER PUSH20 0xFFFFFFFFFFFFFFFFFFFFFFFFFFFFFFFFFFFFFFFF AND PUSH20 0xFFFFFFFFFFFFFFFFFFFFFFFFFFFFFFFFFFFFFFFF AND DUP2 MSTORE PUSH1 0x20 ADD SWAP1 DUP2 MSTORE PUSH1 0x20 ADD PUSH0 KECCAK256 PUSH0 ADD PUSH0 SWAP1 SLOAD SWAP1 PUSH2 0x100 EXP SWAP1 DIV PUSH20 0xFFFFFFFFFFFFFFFFFFFFFFFFFFFFFFFFFFFFFFFF AND PUSH20 0xFFFFFFFFFFFFFFFFFFFFFFFFFFFFFFFFFFFFFFFF AND EQ PUSH2 0xAA7 JUMPI PUSH1 0x40 MLOAD PUSH32 0x8C379A000000000000000000000000000000000000000000000000000000000 DUP2 MSTORE PUSH1 0x4 ADD PUSH2 0xA9E SWAP1 PUSH2 0x1F75 JUMP JUMPDEST PUSH1 0x40 MLOAD DUP1 SWAP2 SUB SWAP1 REVERT JUMPDEST PUSH1 0x1 PUSH0 SWAP1 SLOAD SWAP1 PUSH2 0x100 EXP SWAP1 DIV PUSH20 0xFFFFFFFFFFFFFFFFFFFFFFFFFFFFFFFFFFFFFFFF AND PUSH20 0xFFFFFFFFFFFFFFFFFFFFFFFFFFFFFFFFFFFFFFFF AND PUSH4 0x23B872DD CALLER ADDRESS PUSH1 0x2 SLOAD PUSH1 0x40 MLOAD DUP5 PUSH4 0xFFFFFFFF AND PUSH1 0xE0 SHL DUP2 MSTORE PUSH1 0x4 ADD PUSH2 0xB07 SWAP4 SWAP3 SWAP2 SWAP1 PUSH2 0x1F93 JUMP JUMPDEST PUSH1 0x20 PUSH1 0x40 MLOAD DUP1 DUP4 SUB DUP2 PUSH0 DUP8 GAS CALL ISZERO DUP1 ISZERO PUSH2 0xB23 JUMPI RETURNDATASIZE PUSH0 DUP1 RETURNDATACOPY RETURNDATASIZE PUSH0 REVERT JUMPDEST POP POP POP POP PUSH1 0x40 MLOAD RETURNDATASIZE PUSH1 0x1F NOT PUSH1 0x1F DUP3 ADD AND DUP3 ADD DUP1 PUSH1 0x40 MSTORE POP DUP2 ADD SWAP1 PUSH2 0xB47 SWAP2 SWAP1 PUSH2 0x1C93 JUMP JUMPDEST PUSH2 0xB86 JUMPI PUSH1 0x40 MLOAD PUSH32 0x8C379A000000000000000000000000000000000000000000000000000000000 DUP2 MSTORE PUSH1 0x4 ADD PUSH2 0xB7D SWAP1 PUSH2 0x2012 JUMP JUMPDEST PUSH1 0x40 MLOAD DUP1 SWAP2 SUB SWAP1 REVERT JUMPDEST PUSH0 PUSH20 0xFFFFFFFFFFFFFFFFFFFFFFFFFFFFFFFFFFFFFFFF AND DUP2 PUSH20 0xFFFFFFFFFFFFFFFFFFFFFFFFFFFFFFFFFFFFFFFF AND EQ ISZERO DUP1 ISZERO PUSH2 0xBEE JUMPI POP CALLER PUSH20 0xFFFFFFFFFFFFFFFFFFFFFFFFFFFFFFFFFFFFFFFF AND DUP2 PUSH20 0xFFFFFFFFFFFFFFFFFFFFFFFFFFFFFFFFFFFFFFFF AND EQ ISZERO JUMPDEST ISZERO PUSH2 0xE3D JUMPI PUSH1 0x5 PUSH0 DUP3 PUSH20 0xFFFFFFFFFFFFFFFFFFFFFFFFFFFFFFFFFFFFFFFF AND PUSH20 0xFFFFFFFFFFFFFFFFFFFFFFFFFFFFFFFFFFFFFFFF AND DUP2 MSTORE PUSH1 0x20 ADD SWAP1 DUP2 MSTORE PUSH1 0x20 ADD PUSH0 KECCAK256 PUSH1 0x1 ADD PUSH0 DUP2 SLOAD DUP1 SWAP3 SWAP2 SWAP1 PUSH2 0xC43 SWAP1 PUSH2 0x1D86 JUMP JUMPDEST SWAP2 SWAP1 POP SSTORE POP PUSH1 0x1 PUSH1 0x5 PUSH0 DUP4 PUSH20 0xFFFFFFFFFFFFFFFFFFFFFFFFFFFFFFFFFFFFFFFF AND PUSH20 0xFFFFFFFFFFFFFFFFFFFFFFFFFFFFFFFFFFFFFFFF AND DUP2 MSTORE PUSH1 0x20 ADD SWAP1 DUP2 MSTORE PUSH1 0x20 ADD PUSH0 KECCAK256 PUSH1 0x4 ADD PUSH0 PUSH2 0x100 EXP DUP2 SLOAD DUP2 PUSH1 0xFF MUL NOT AND SWAP1 DUP4 ISZERO ISZERO MUL OR SWAP1 SSTORE POP PUSH0 PUSH2 0xCEA PUSH1 0x5 PUSH0 DUP5 PUSH20 0xFFFFFFFFFFFFFFFFFFFFFFFFFFFFFFFFFFFFFFFF AND PUSH20 0xFFFFFFFFFFFFFFFFFFFFFFFFFFFFFFFFFFFFFFFF AND DUP2 MSTORE PUSH1 0x20 ADD SWAP1 DUP2 MSTORE PUSH1 0x20 ADD PUSH0 KECCAK256 PUSH1 0x1 ADD SLOAD PUSH2 0x1523 JUMP JUMPDEST SWAP1 POP DUP1 PUSH1 0x5 PUSH0 DUP5 PUSH20 0xFFFFFFFFFFFFFFFFFFFFFFFFFFFFFFFFFFFFFFFF AND PUSH20 0xFFFFFFFFFFFFFFFFFFFFFFFFFFFFFFFFFFFFFFFF AND DUP2 MSTORE PUSH1 0x20 ADD SWAP1 DUP2 MSTORE PUSH1 0x20 ADD PUSH0 KECCAK256 PUSH1 0x2 ADD SLOAD EQ PUSH2 0xE32 JUMPI PUSH2 0xD7D DUP3 PUSH1 0x5 PUSH0 DUP6 PUSH20 0xFFFFFFFFFFFFFFFFFFFFFFFFFFFFFFFFFFFFFFFF AND PUSH20 0xFFFFFFFFFFFFFFFFFFFFFFFFFFFFFFFFFFFFFFFF AND DUP2 MSTORE PUSH1 0x20 ADD SWAP1 DUP2 MSTORE PUSH1 0x20 ADD PUSH0 KECCAK256 PUSH1 0x2 ADD SLOAD PUSH2 0x15C2 JUMP JUMPDEST DUP1 PUSH1 0x5 PUSH0 DUP5 PUSH20 0xFFFFFFFFFFFFFFFFFFFFFFFFFFFFFFFFFFFFFFFF AND PUSH20 0xFFFFFFFFFFFFFFFFFFFFFFFFFFFFFFFFFFFFFFFF AND DUP2 MSTORE PUSH1 0x20 ADD SWAP1 DUP2 MSTORE PUSH1 0x20 ADD PUSH0 KECCAK256 PUSH1 0x2 ADD DUP2 SWAP1 SSTORE POP PUSH1 0x6 PUSH0 DUP3 DUP2 MSTORE PUSH1 0x20 ADD SWAP1 DUP2 MSTORE PUSH1 0x20 ADD PUSH0 KECCAK256 DUP3 SWAP1 DUP1 PUSH1 0x1 DUP2 SLOAD ADD DUP1 DUP3 SSTORE DUP1 SWAP2 POP POP PUSH1 0x1 SWAP1 SUB SWAP1 PUSH0 MSTORE PUSH1 0x20 PUSH0 KECCAK256 ADD PUSH0 SWAP1 SWAP2 SWAP1 SWAP2 SWAP1 SWAP2 PUSH2 0x100 EXP DUP2 SLOAD DUP2 PUSH20 0xFFFFFFFFFFFFFFFFFFFFFFFFFFFFFFFFFFFFFFFF MUL NOT AND SWAP1 DUP4 PUSH20 0xFFFFFFFFFFFFFFFFFFFFFFFFFFFFFFFFFFFFFFFF AND MUL OR SWAP1 SSTORE POP JUMPDEST PUSH2 0xE3B DUP3 PUSH2 0x174F JUMP JUMPDEST POP JUMPDEST DUP1 PUSH1 0x5 PUSH0 CALLER PUSH20 0xFFFFFFFFFFFFFFFFFFFFFFFFFFFFFFFFFFFFFFFF AND PUSH20 0xFFFFFFFFFFFFFFFFFFFFFFFFFFFFFFFFFFFFFFFF AND DUP2 MSTORE PUSH1 0x20 ADD SWAP1 DUP2 MSTORE PUSH1 0x20 ADD PUSH0 KECCAK256 PUSH0 ADD PUSH0 PUSH2 0x100 EXP DUP2 SLOAD DUP2 PUSH20 0xFFFFFFFFFFFFFFFFFFFFFFFFFFFFFFFFFFFFFFFF MUL NOT AND SWAP1 DUP4 PUSH20 0xFFFFFFFFFFFFFFFFFFFFFFFFFFFFFFFFFFFFFFFF AND MUL OR SWAP1 SSTORE POP PUSH0 PUSH2 0xF04 PUSH1 0x5 PUSH0 CALLER PUSH20 0xFFFFFFFFFFFFFFFFFFFFFFFFFFFFFFFFFFFFFFFF AND PUSH20 0xFFFFFFFFFFFFFFFFFFFFFFFFFFFFFFFFFFFFFFFF AND DUP2 MSTORE PUSH1 0x20 ADD SWAP1 DUP2 MSTORE PUSH1 0x20 ADD PUSH0 KECCAK256 PUSH1 0x1 ADD SLOAD PUSH2 0x1523 JUMP JUMPDEST SWAP1 POP DUP1 PUSH1 0x5 PUSH0 CALLER PUSH20 0xFFFFFFFFFFFFFFFFFFFFFFFFFFFFFFFFFFFFFFFF AND PUSH20 0xFFFFFFFFFFFFFFFFFFFFFFFFFFFFFFFFFFFFFFFF AND DUP2 MSTORE PUSH1 0x20 ADD SWAP1 DUP2 MSTORE PUSH1 0x20 ADD PUSH0 KECCAK256 PUSH1 0x2 ADD DUP2 SWAP1 SSTORE POP PUSH1 0x64 PUSH1 0x32 PUSH1 0x2 SLOAD PUSH2 0xF5C SWAP2 SWAP1 PUSH2 0x1B71 JUMP JUMPDEST PUSH2 0xF66 SWAP2 SWAP1 PUSH2 0x1BDF JUMP JUMPDEST PUSH1 0x7 PUSH0 DUP3 DUP3 SLOAD PUSH2 0xF76 SWAP2 SWAP1 PUSH2 0x1D53 JUMP JUMPDEST SWAP3 POP POP DUP2 SWAP1 SSTORE POP DUP2 PUSH20 0xFFFFFFFFFFFFFFFFFFFFFFFFFFFFFFFFFFFFFFFF AND CALLER PUSH20 0xFFFFFFFFFFFFFFFFFFFFFFFFFFFFFFFFFFFFFFFF AND PUSH32 0xA31EE9D46A828884B81003C8498156EA6AA15B9B54BDD0EF0B533D9EBA57E55 PUSH1 0x40 MLOAD PUSH1 0x40 MLOAD DUP1 SWAP2 SUB SWAP1 LOG3 POP POP JUMP JUMPDEST PUSH1 0x6 PUSH1 0x20 MSTORE DUP2 PUSH0 MSTORE PUSH1 0x40 PUSH0 KECCAK256 DUP2 DUP2 SLOAD DUP2 LT PUSH2 0xFF4 JUMPI PUSH0 DUP1 REVERT JUMPDEST SWAP1 PUSH0 MSTORE PUSH1 0x20 PUSH0 KECCAK256 ADD PUSH0 SWAP2 POP SWAP2 POP SWAP1 SLOAD SWAP1 PUSH2 0x100 EXP SWAP1 DIV PUSH20 0xFFFFFFFFFFFFFFFFFFFFFFFFFFFFFFFFFFFFFFFF AND DUP2 JUMP JUMPDEST PUSH1 0x4 SLOAD DUP2 JUMP JUMPDEST PUSH1 0x60 PUSH1 0x1 DUP3 LT ISZERO DUP1 ISZERO PUSH2 0x103D JUMPI POP PUSH1 0x5 DUP3 GT ISZERO JUMPDEST PUSH2 0x107C JUMPI PUSH1 0x40 MLOAD PUSH32 0x8C379A000000000000000000000000000000000000000000000000000000000 DUP2 MSTORE PUSH1 0x4 ADD PUSH2 0x1073 SWAP1 PUSH2 0x207A JUMP JUMPDEST PUSH1 0x40 MLOAD DUP1 SWAP2 SUB SWAP1 REVERT JUMPDEST PUSH1 0x6 PUSH0 DUP4 DUP2 MSTORE PUSH1 0x20 ADD SWAP1 DUP2 MSTORE PUSH1 0x20 ADD PUSH0 KECCAK256 DUP1 SLOAD DUP1 PUSH1 0x20 MUL PUSH1 0x20 ADD PUSH1 0x40 MLOAD SWAP1 DUP2 ADD PUSH1 0x40 MSTORE DUP1 SWAP3 SWAP2 SWAP1 DUP2 DUP2 MSTORE PUSH1 0x20 ADD DUP3 DUP1 SLOAD DUP1 ISZERO PUSH2 0x110A JUMPI PUSH1 0x20 MUL DUP3 ADD SWAP2 SWAP1 PUSH0 MSTORE PUSH1 0x20 PUSH0 KECCAK256 SWAP1 JUMPDEST DUP2 PUSH0 SWAP1 SLOAD SWAP1 PUSH2 0x100 EXP SWAP1 DIV PUSH20 0xFFFFFFFFFFFFFFFFFFFFFFFFFFFFFFFFFFFFFFFF AND PUSH20 0xFFFFFFFFFFFFFFFFFFFFFFFFFFFFFFFFFFFFFFFF AND DUP2 MSTORE PUSH1 0x20 ADD SWAP1 PUSH1 0x1 ADD SWAP1 DUP1 DUP4 GT PUSH2 0x10C1 JUMPI JUMPDEST POP POP POP POP POP SWAP1 POP SWAP2 SWAP1 POP JUMP JUMPDEST PUSH1 0x7 SLOAD DUP2 JUMP JUMPDEST PUSH1 0x1 DUP2 LT ISZERO DUP1 ISZERO PUSH2 0x112E JUMPI POP PUSH1 0x5 DUP2 GT ISZERO JUMPDEST PUSH2 0x116D JUMPI PUSH1 0x40 MLOAD PUSH32 0x8C379A000000000000000000000000000000000000000000000000000000000 DUP2 MSTORE PUSH1 0x4 ADD PUSH2 0x1164 SWAP1 PUSH2 0x207A JUMP JUMPDEST PUSH1 0x40 MLOAD DUP1 SWAP2 SUB SWAP1 REVERT JUMPDEST PUSH1 0x1 PUSH1 0x5 PUSH0 CALLER PUSH20 0xFFFFFFFFFFFFFFFFFFFFFFFFFFFFFFFFFFFFFFFF AND PUSH20 0xFFFFFFFFFFFFFFFFFFFFFFFFFFFFFFFFFFFFFFFF AND DUP2 MSTORE PUSH1 0x20 ADD SWAP1 DUP2 MSTORE PUSH1 0x20 ADD PUSH0 KECCAK256 PUSH1 0x1 ADD SLOAD LT ISZERO PUSH2 0x11F1 JUMPI PUSH1 0x40 MLOAD PUSH32 0x8C379A000000000000000000000000000000000000000000000000000000000 DUP2 MSTORE PUSH1 0x4 ADD PUSH2 0x11E8 SWAP1 PUSH2 0x2108 JUMP JUMPDEST PUSH1 0x40 MLOAD DUP1 SWAP2 SUB SWAP1 REVERT JUMPDEST DUP1 PUSH1 0x5 PUSH0 CALLER PUSH20 0xFFFFFFFFFFFFFFFFFFFFFFFFFFFFFFFFFFFFFFFF AND PUSH20 0xFFFFFFFFFFFFFFFFFFFFFFFFFFFFFFFFFFFFFFFF AND DUP2 MSTORE PUSH1 0x20 ADD SWAP1 DUP2 MSTORE PUSH1 0x20 ADD PUSH0 KECCAK256 PUSH1 0x2 ADD SLOAD LT PUSH2 0x1273 JUMPI PUSH1 0x40 MLOAD PUSH32 0x8C379A000000000000000000000000000000000000000000000000000000000 DUP2 MSTORE PUSH1 0x4 ADD PUSH2 0x126A SWAP1 PUSH2 0x2170 JUMP JUMPDEST PUSH1 0x40 MLOAD DUP1 SWAP2 SUB SWAP1 REVERT JUMPDEST PUSH0 PUSH2 0x127D DUP3 PUSH2 0x2C8 JUMP JUMPDEST SWAP1 POP PUSH1 0x1 PUSH0 SWAP1 SLOAD SWAP1 PUSH2 0x100 EXP SWAP1 DIV PUSH20 0xFFFFFFFFFFFFFFFFFFFFFFFFFFFFFFFFFFFFFFFF AND PUSH20 0xFFFFFFFFFFFFFFFFFFFFFFFFFFFFFFFFFFFFFFFF AND PUSH4 0x23B872DD CALLER ADDRESS DUP5 PUSH1 0x40 MLOAD DUP5 PUSH4 0xFFFFFFFF AND PUSH1 0xE0 SHL DUP2 MSTORE PUSH1 0x4 ADD PUSH2 0x12DD SWAP4 SWAP3 SWAP2 SWAP1 PUSH2 0x1F93 JUMP JUMPDEST PUSH1 0x20 PUSH1 0x40 MLOAD DUP1 DUP4 SUB DUP2 PUSH0 DUP8 GAS CALL ISZERO DUP1 ISZERO PUSH2 0x12F9 JUMPI RETURNDATASIZE PUSH0 DUP1 RETURNDATACOPY RETURNDATASIZE PUSH0 REVERT JUMPDEST POP POP POP POP PUSH1 0x40 MLOAD RETURNDATASIZE PUSH1 0x1F NOT PUSH1 0x1F DUP3 ADD AND DUP3 ADD DUP1 PUSH1 0x40 MSTORE POP DUP2 ADD SWAP1 PUSH2 0x131D SWAP2 SWAP1 PUSH2 0x1C93 JUMP JUMPDEST PUSH2 0x135C JUMPI PUSH1 0x40 MLOAD PUSH32 0x8C379A000000000000000000000000000000000000000000000000000000000 DUP2 MSTORE PUSH1 0x4 ADD PUSH2 0x1353 SWAP1 PUSH2 0x2012 JUMP JUMPDEST PUSH1 0x40 MLOAD DUP1 SWAP2 SUB SWAP1 REVERT JUMPDEST PUSH2 0x13A6 CALLER PUSH1 0x5 PUSH0 CALLER PUSH20 0xFFFFFFFFFFFFFFFFFFFFFFFFFFFFFFFFFFFFFFFF AND PUSH20 0xFFFFFFFFFFFFFFFFFFFFFFFFFFFFFFFFFFFFFFFF AND DUP2 MSTORE PUSH1 0x20 ADD SWAP1 DUP2 MSTORE PUSH1 0x20 ADD PUSH0 KECCAK256 PUSH1 0x2 ADD SLOAD PUSH2 0x15C2 JUMP JUMPDEST DUP2 PUSH1 0x5 PUSH0 CALLER PUSH20 0xFFFFFFFFFFFFFFFFFFFFFFFFFFFFFFFFFFFFFFFF AND PUSH20 0xFFFFFFFFFFFFFFFFFFFFFFFFFFFFFFFFFFFFFFFF AND DUP2 MSTORE PUSH1 0x20 ADD SWAP1 DUP2 MSTORE PUSH1 0x20 ADD PUSH0 KECCAK256 PUSH1 0x2 ADD DUP2 SWAP1 SSTORE POP PUSH1 0x6 PUSH0 DUP4 DUP2 MSTORE PUSH1 0x20 ADD SWAP1 DUP2 MSTORE PUSH1 0x20 ADD PUSH0 KECCAK256 CALLER SWAP1 DUP1 PUSH1 0x1 DUP2 SLOAD ADD DUP1 DUP3 SSTORE DUP1 SWAP2 POP POP PUSH1 0x1 SWAP1 SUB SWAP1 PUSH0 MSTORE PUSH1 0x20 PUSH0 KECCAK256 ADD PUSH0 SWAP1 SWAP2 SWAP1 SWAP2 SWAP1 SWAP2 PUSH2 0x100 EXP DUP2 SLOAD DUP2 PUSH20 0xFFFFFFFFFFFFFFFFFFFFFFFFFFFFFFFFFFFFFFFF MUL NOT AND SWAP1 DUP4 PUSH20 0xFFFFFFFFFFFFFFFFFFFFFFFFFFFFFFFFFFFFFFFF AND MUL OR SWAP1 SSTORE POP DUP1 PUSH1 0x7 PUSH0 DUP3 DUP3 SLOAD PUSH2 0x146B SWAP2 SWAP1 PUSH2 0x1D53 JUMP JUMPDEST SWAP3 POP POP DUP2 SWAP1 SSTORE POP CALLER PUSH20 0xFFFFFFFFFFFFFFFFFFFFFFFFFFFFFFFFFFFFFFFF AND PUSH32 0x427898149FFA0BD0A638B73A8506CC040CA0034A36BDB547DB4FB73FD0313C02 DUP4 PUSH1 0x40 MLOAD PUSH2 0x14B8 SWAP2 SWAP1 PUSH2 0x182D JUMP JUMPDEST PUSH1 0x40 MLOAD DUP1 SWAP2 SUB SWAP1 LOG2 POP POP JUMP JUMPDEST PUSH0 PUSH1 0x1 DUP3 SUB PUSH2 0x14D6 JUMPI PUSH1 0x10 SWAP1 POP PUSH2 0x151E JUMP JUMPDEST PUSH1 0x2 DUP3 SUB PUSH2 0x14E7 JUMPI PUSH1 0x12 SWAP1 POP PUSH2 0x151E JUMP JUMPDEST PUSH1 0x3 DUP3 SUB PUSH2 0x14F8 JUMPI PUSH1 0x14 SWAP1 POP PUSH2 0x151E JUMP JUMPDEST PUSH1 0x4 DUP3 SUB PUSH2 0x1509 JUMPI PUSH1 0x16 SWAP1 POP PUSH2 0x151E JUMP JUMPDEST PUSH1 0x5 DUP3 SUB PUSH2 0x151A JUMPI PUSH1 0x18 SWAP1 POP PUSH2 0x151E JUMP JUMPDEST PUSH0 SWAP1 POP JUMPDEST SWAP2 SWAP1 POP JUMP JUMPDEST PUSH0 PUSH1 0x1 DUP3 LT ISZERO DUP1 ISZERO PUSH2 0x1536 JUMPI POP PUSH1 0x9 DUP3 GT ISZERO JUMPDEST ISZERO PUSH2 0x1544 JUMPI PUSH1 0x1 SWAP1 POP PUSH2 0x15BD JUMP JUMPDEST PUSH1 0xA DUP3 LT ISZERO DUP1 ISZERO PUSH2 0x1556 JUMPI POP PUSH1 0x63 DUP3 GT ISZERO JUMPDEST ISZERO PUSH2 0x1564 JUMPI PUSH1 0x2 SWAP1 POP PUSH2 0x15BD JUMP JUMPDEST PUSH1 0x64 DUP3 LT ISZERO DUP1 ISZERO PUSH2 0x1577 JUMPI POP PUSH2 0x3E7 DUP3 GT ISZERO JUMPDEST ISZERO PUSH2 0x1585 JUMPI PUSH1 0x3 SWAP1 POP PUSH2 0x15BD JUMP JUMPDEST PUSH2 0x3E8 DUP3 LT ISZERO DUP1 ISZERO PUSH2 0x1599 JUMPI POP PUSH2 0x270F DUP3 GT ISZERO JUMPDEST ISZERO PUSH2 0x15A7 JUMPI PUSH1 0x4 SWAP1 POP PUSH2 0x15BD JUMP JUMPDEST PUSH2 0x2710 DUP3 LT PUSH2 0x15B9 JUMPI PUSH1 0x5 SWAP1 POP PUSH2 0x15BD JUMP JUMPDEST PUSH0 SWAP1 POP JUMPDEST SWAP2 SWAP1 POP JUMP JUMPDEST PUSH0 PUSH1 0x6 PUSH0 DUP4 DUP2 MSTORE PUSH1 0x20 ADD SWAP1 DUP2 MSTORE PUSH1 0x20 ADD PUSH0 KECCAK256 SWAP1 POP PUSH0 JUMPDEST DUP2 DUP1 SLOAD SWAP1 POP DUP2 LT ISZERO PUSH2 0x1749 JUMPI DUP4 PUSH20 0xFFFFFFFFFFFFFFFFFFFFFFFFFFFFFFFFFFFFFFFF AND DUP3 DUP3 DUP2 SLOAD DUP2 LT PUSH2 0x160E JUMPI PUSH2 0x160D PUSH2 0x1D26 JUMP JUMPDEST JUMPDEST SWAP1 PUSH0 MSTORE PUSH1 0x20 PUSH0 KECCAK256 ADD PUSH0 SWAP1 SLOAD SWAP1 PUSH2 0x100 EXP SWAP1 DIV PUSH20 0xFFFFFFFFFFFFFFFFFFFFFFFFFFFFFFFFFFFFFFFF AND PUSH20 0xFFFFFFFFFFFFFFFFFFFFFFFFFFFFFFFFFFFFFFFF AND SUB PUSH2 0x173C JUMPI DUP2 PUSH1 0x1 DUP4 DUP1 SLOAD SWAP1 POP PUSH2 0x1663 SWAP2 SWAP1 PUSH2 0x1C0F JUMP JUMPDEST DUP2 SLOAD DUP2 LT PUSH2 0x1674 JUMPI PUSH2 0x1673 PUSH2 0x1D26 JUMP JUMPDEST JUMPDEST SWAP1 PUSH0 MSTORE PUSH1 0x20 PUSH0 KECCAK256 ADD PUSH0 SWAP1 SLOAD SWAP1 PUSH2 0x100 EXP SWAP1 DIV PUSH20 0xFFFFFFFFFFFFFFFFFFFFFFFFFFFFFFFFFFFFFFFF AND DUP3 DUP3 DUP2 SLOAD DUP2 LT PUSH2 0x16AF JUMPI PUSH2 0x16AE PUSH2 0x1D26 JUMP JUMPDEST JUMPDEST SWAP1 PUSH0 MSTORE PUSH1 0x20 PUSH0 KECCAK256 ADD PUSH0 PUSH2 0x100 EXP DUP2 SLOAD DUP2 PUSH20 0xFFFFFFFFFFFFFFFFFFFFFFFFFFFFFFFFFFFFFFFF MUL NOT AND SWAP1 DUP4 PUSH20 0xFFFFFFFFFFFFFFFFFFFFFFFFFFFFFFFFFFFFFFFF AND MUL OR SWAP1 SSTORE POP DUP2 DUP1 SLOAD DUP1 PUSH2 0x1705 JUMPI PUSH2 0x1704 PUSH2 0x218E JUMP JUMPDEST JUMPDEST PUSH1 0x1 SWAP1 SUB DUP2 DUP2 SWAP1 PUSH0 MSTORE PUSH1 0x20 PUSH0 KECCAK256 ADD PUSH0 PUSH2 0x100 EXP DUP2 SLOAD SWAP1 PUSH20 0xFFFFFFFFFFFFFFFFFFFFFFFFFFFFFFFFFFFFFFFF MUL NOT AND SWAP1 SSTORE SWAP1 SSTORE PUSH2 0x1749 JUMP JUMPDEST DUP1 DUP1 PUSH1 0x1 ADD SWAP2 POP POP PUSH2 0x15D8 JUMP JUMPDEST POP POP POP POP JUMP JUMPDEST PUSH0 PUSH1 0x64 PUSH1 0x32 PUSH1 0x2 SLOAD PUSH2 0x1761 SWAP2 SWAP1 PUSH2 0x1B71 JUMP JUMPDEST PUSH2 0x176B SWAP2 SWAP1 PUSH2 0x1BDF JUMP JUMPDEST SWAP1 POP DUP1 PUSH1 0x5 PUSH0 DUP5 PUSH20 0xFFFFFFFFFFFFFFFFFFFFFFFFFFFFFFFFFFFFFFFF AND PUSH20 0xFFFFFFFFFFFFFFFFFFFFFFFFFFFFFFFFFFFFFFFF AND DUP2 MSTORE PUSH1 0x20 ADD SWAP1 DUP2 MSTORE PUSH1 0x20 ADD PUSH0 KECCAK256 PUSH1 0x3 ADD PUSH0 DUP3 DUP3 SLOAD PUSH2 0x17BC SWAP2 SWAP1 PUSH2 0x1D53 JUMP JUMPDEST SWAP3 POP POP DUP2 SWAP1 SSTORE POP DUP2 PUSH20 0xFFFFFFFFFFFFFFFFFFFFFFFFFFFFFFFFFFFFFFFF AND PUSH32 0x6292F4F27D8047AF4537A4BD86906DE0E2C880C20086F7F58B81EACFEB639126 DUP3 PUSH1 0x40 MLOAD PUSH2 0x1809 SWAP2 SWAP1 PUSH2 0x182D JUMP JUMPDEST PUSH1 0x40 MLOAD DUP1 SWAP2 SUB SWAP1 LOG2 POP POP JUMP JUMPDEST PUSH0 DUP2 SWAP1 POP SWAP2 SWAP1 POP JUMP JUMPDEST PUSH2 0x1827 DUP2 PUSH2 0x1815 JUMP JUMPDEST DUP3 MSTORE POP POP JUMP JUMPDEST PUSH0 PUSH1 0x20 DUP3 ADD SWAP1 POP PUSH2 0x1840 PUSH0 DUP4 ADD DUP5 PUSH2 0x181E JUMP JUMPDEST SWAP3 SWAP2 POP POP JUMP JUMPDEST PUSH0 DUP1 REVERT JUMPDEST PUSH2 0x1853 DUP2 PUSH2 0x1815 JUMP JUMPDEST DUP2 EQ PUSH2 0x185D JUMPI PUSH0 DUP1 REVERT JUMPDEST POP JUMP JUMPDEST PUSH0 DUP2 CALLDATALOAD SWAP1 POP PUSH2 0x186E DUP2 PUSH2 0x184A JUMP JUMPDEST SWAP3 SWAP2 POP POP JUMP JUMPDEST PUSH0 PUSH1 0x20 DUP3 DUP5 SUB SLT ISZERO PUSH2 0x1889 JUMPI PUSH2 0x1888 PUSH2 0x1846 JUMP JUMPDEST JUMPDEST PUSH0 PUSH2 0x1896 DUP5 DUP3 DUP6 ADD PUSH2 0x1860 JUMP JUMPDEST SWAP2 POP POP SWAP3 SWAP2 POP POP JUMP JUMPDEST PUSH0 PUSH20 0xFFFFFFFFFFFFFFFFFFFFFFFFFFFFFFFFFFFFFFFF DUP3 AND SWAP1 POP SWAP2 SWAP1 POP JUMP JUMPDEST PUSH0 PUSH2 0x18C8 DUP3 PUSH2 0x189F JUMP JUMPDEST SWAP1 POP SWAP2 SWAP1 POP JUMP JUMPDEST PUSH2 0x18D8 DUP2 PUSH2 0x18BE JUMP JUMPDEST DUP3 MSTORE POP POP JUMP JUMPDEST PUSH0 PUSH1 0x20 DUP3 ADD SWAP1 POP PUSH2 0x18F1 PUSH0 DUP4 ADD DUP5 PUSH2 0x18CF JUMP JUMPDEST SWAP3 SWAP2 POP POP JUMP JUMPDEST PUSH2 0x1900 DUP2 PUSH2 0x18BE JUMP JUMPDEST DUP2 EQ PUSH2 0x190A JUMPI PUSH0 DUP1 REVERT JUMPDEST POP JUMP JUMPDEST PUSH0 DUP2 CALLDATALOAD SWAP1 POP PUSH2 0x191B DUP2 PUSH2 0x18F7 JUMP JUMPDEST SWAP3 SWAP2 POP POP JUMP JUMPDEST PUSH0 PUSH1 0x20 DUP3 DUP5 SUB SLT ISZERO PUSH2 0x1936 JUMPI PUSH2 0x1935 PUSH2 0x1846 JUMP JUMPDEST JUMPDEST PUSH0 PUSH2 0x1943 DUP5 DUP3 DUP6 ADD PUSH2 0x190D JUMP JUMPDEST SWAP2 POP POP SWAP3 SWAP2 POP POP JUMP JUMPDEST PUSH0 DUP2 ISZERO ISZERO SWAP1 POP SWAP2 SWAP1 POP JUMP JUMPDEST PUSH2 0x1960 DUP2 PUSH2 0x194C JUMP JUMPDEST DUP3 MSTORE POP POP JUMP JUMPDEST PUSH0 PUSH1 0xA0 DUP3 ADD SWAP1 POP PUSH2 0x1979 PUSH0 DUP4 ADD DUP9 PUSH2 0x18CF JUMP JUMPDEST PUSH2 0x1986 PUSH1 0x20 DUP4 ADD DUP8 PUSH2 0x181E JUMP JUMPDEST PUSH2 0x1993 PUSH1 0x40 DUP4 ADD DUP7 PUSH2 0x181E JUMP JUMPDEST PUSH2 0x19A0 PUSH1 0x60 DUP4 ADD DUP6 PUSH2 0x181E JUMP JUMPDEST PUSH2 0x19AD PUSH1 0x80 DUP4 ADD DUP5 PUSH2 0x1957 JUMP JUMPDEST SWAP7 SWAP6 POP POP POP POP POP POP JUMP JUMPDEST PUSH0 DUP1 PUSH1 0x40 DUP4 DUP6 SUB SLT ISZERO PUSH2 0x19CD JUMPI PUSH2 0x19CC PUSH2 0x1846 JUMP JUMPDEST JUMPDEST PUSH0 PUSH2 0x19DA DUP6 DUP3 DUP7 ADD PUSH2 0x1860 JUMP JUMPDEST SWAP3 POP POP PUSH1 0x20 PUSH2 0x19EB DUP6 DUP3 DUP7 ADD PUSH2 0x1860 JUMP JUMPDEST SWAP2 POP POP SWAP3 POP SWAP3 SWAP1 POP JUMP JUMPDEST PUSH0 DUP2 MLOAD SWAP1 POP SWAP2 SWAP1 POP JUMP JUMPDEST PUSH0 DUP3 DUP3 MSTORE PUSH1 0x20 DUP3 ADD SWAP1 POP SWAP3 SWAP2 POP POP JUMP JUMPDEST PUSH0 DUP2 SWAP1 POP PUSH1 0x20 DUP3 ADD SWAP1 POP SWAP2 SWAP1 POP JUMP JUMPDEST PUSH2 0x1A27 DUP2 PUSH2 0x18BE JUMP JUMPDEST DUP3 MSTORE POP POP JUMP JUMPDEST PUSH0 PUSH2 0x1A38 DUP4 DUP4 PUSH2 0x1A1E JUMP JUMPDEST PUSH1 0x20 DUP4 ADD SWAP1 POP SWAP3 SWAP2 POP POP JUMP JUMPDEST PUSH0 PUSH1 0x20 DUP3 ADD SWAP1 POP SWAP2 SWAP1 POP JUMP JUMPDEST PUSH0 PUSH2 0x1A5A DUP3 PUSH2 0x19F5 JUMP JUMPDEST PUSH2 0x1A64 DUP2 DUP6 PUSH2 0x19FF JUMP JUMPDEST SWAP4 POP PUSH2 0x1A6F DUP4 PUSH2 0x1A0F JUMP JUMPDEST DUP1 PUSH0 JUMPDEST DUP4 DUP2 LT ISZERO PUSH2 0x1A9F JUMPI DUP2 MLOAD PUSH2 0x1A86 DUP9 DUP3 PUSH2 0x1A2D JUMP JUMPDEST SWAP8 POP PUSH2 0x1A91 DUP4 PUSH2 0x1A44 JUMP JUMPDEST SWAP3 POP POP PUSH1 0x1 DUP2 ADD SWAP1 POP PUSH2 0x1A72 JUMP JUMPDEST POP DUP6 SWAP4 POP POP POP POP SWAP3 SWAP2 POP POP JUMP JUMPDEST PUSH0 PUSH1 0x20 DUP3 ADD SWAP1 POP DUP2 DUP2 SUB PUSH0 DUP4 ADD MSTORE PUSH2 0x1AC4 DUP2 DUP5 PUSH2 0x1A50 JUMP JUMPDEST SWAP1 POP SWAP3 SWAP2 POP POP JUMP JUMPDEST PUSH0 DUP3 DUP3 MSTORE PUSH1 0x20 DUP3 ADD SWAP1 POP SWAP3 SWAP2 POP POP JUMP JUMPDEST PUSH32 0x4E6F7420617574686F72697A6564000000000000000000000000000000000000 PUSH0 DUP3 ADD MSTORE POP JUMP JUMPDEST PUSH0 PUSH2 0x1B10 PUSH1 0xE DUP4 PUSH2 0x1ACC JUMP JUMPDEST SWAP2 POP PUSH2 0x1B1B DUP3 PUSH2 0x1ADC JUMP JUMPDEST PUSH1 0x20 DUP3 ADD SWAP1 POP SWAP2 SWAP1 POP JUMP JUMPDEST PUSH0 PUSH1 0x20 DUP3 ADD SWAP1 POP DUP2 DUP2 SUB PUSH0 DUP4 ADD MSTORE PUSH2 0x1B3D DUP2 PUSH2 0x1B04 JUMP JUMPDEST SWAP1 POP SWAP2 SWAP1 POP JUMP JUMPDEST PUSH32 0x4E487B7100000000000000000000000000000000000000000000000000000000 PUSH0 MSTORE PUSH1 0x11 PUSH1 0x4 MSTORE PUSH1 0x24 PUSH0 REVERT JUMPDEST PUSH0 PUSH2 0x1B7B DUP3 PUSH2 0x1815 JUMP JUMPDEST SWAP2 POP PUSH2 0x1B86 DUP4 PUSH2 0x1815 JUMP JUMPDEST SWAP3 POP DUP3 DUP3 MUL PUSH2 0x1B94 DUP2 PUSH2 0x1815 JUMP JUMPDEST SWAP2 POP DUP3 DUP3 DIV DUP5 EQ DUP4 ISZERO OR PUSH2 0x1BAB JUMPI PUSH2 0x1BAA PUSH2 0x1B44 JUMP JUMPDEST JUMPDEST POP SWAP3 SWAP2 POP POP JUMP JUMPDEST PUSH32 0x4E487B7100000000000000000000000000000000000000000000000000000000 PUSH0 MSTORE PUSH1 0x12 PUSH1 0x4 MSTORE PUSH1 0x24 PUSH0 REVERT JUMPDEST PUSH0 PUSH2 0x1BE9 DUP3 PUSH2 0x1815 JUMP JUMPDEST SWAP2 POP PUSH2 0x1BF4 DUP4 PUSH2 0x1815 JUMP JUMPDEST SWAP3 POP DUP3 PUSH2 0x1C04 JUMPI PUSH2 0x1C03 PUSH2 0x1BB2 JUMP JUMPDEST JUMPDEST DUP3 DUP3 DIV SWAP1 POP SWAP3 SWAP2 POP POP JUMP JUMPDEST PUSH0 PUSH2 0x1C19 DUP3 PUSH2 0x1815 JUMP JUMPDEST SWAP2 POP PUSH2 0x1C24 DUP4 PUSH2 0x1815 JUMP JUMPDEST SWAP3 POP DUP3 DUP3 SUB SWAP1 POP DUP2 DUP2 GT ISZERO PUSH2 0x1C3C JUMPI PUSH2 0x1C3B PUSH2 0x1B44 JUMP JUMPDEST JUMPDEST SWAP3 SWAP2 POP POP JUMP JUMPDEST PUSH0 PUSH1 0x40 DUP3 ADD SWAP1 POP PUSH2 0x1C55 PUSH0 DUP4 ADD DUP6 PUSH2 0x18CF JUMP JUMPDEST PUSH2 0x1C62 PUSH1 0x20 DUP4 ADD DUP5 PUSH2 0x181E JUMP JUMPDEST SWAP4 SWAP3 POP POP POP JUMP JUMPDEST PUSH2 0x1C72 DUP2 PUSH2 0x194C JUMP JUMPDEST DUP2 EQ PUSH2 0x1C7C JUMPI PUSH0 DUP1 REVERT JUMPDEST POP JUMP JUMPDEST PUSH0 DUP2 MLOAD SWAP1 POP PUSH2 0x1C8D DUP2 PUSH2 0x1C69 JUMP JUMPDEST SWAP3 SWAP2 POP POP JUMP JUMPDEST PUSH0 PUSH1 0x20 DUP3 DUP5 SUB SLT ISZERO PUSH2 0x1CA8 JUMPI PUSH2 0x1CA7 PUSH2 0x1846 JUMP JUMPDEST JUMPDEST PUSH0 PUSH2 0x1CB5 DUP5 DUP3 DUP6 ADD PUSH2 0x1C7F JUMP JUMPDEST SWAP2 POP POP SWAP3 SWAP2 POP POP JUMP JUMPDEST PUSH32 0x4F776E6572207061796D656E74206661696C6564000000000000000000000000 PUSH0 DUP3 ADD MSTORE POP JUMP JUMPDEST PUSH0 PUSH2 0x1CF2 PUSH1 0x14 DUP4 PUSH2 0x1ACC JUMP JUMPDEST SWAP2 POP PUSH2 0x1CFD DUP3 PUSH2 0x1CBE JUMP JUMPDEST PUSH1 0x20 DUP3 ADD SWAP1 POP SWAP2 SWAP1 POP JUMP JUMPDEST PUSH0 PUSH1 0x20 DUP3 ADD SWAP1 POP DUP2 DUP2 SUB PUSH0 DUP4 ADD MSTORE PUSH2 0x1D1F DUP2 PUSH2 0x1CE6 JUMP JUMPDEST SWAP1 POP SWAP2 SWAP1 POP JUMP JUMPDEST PUSH32 0x4E487B7100000000000000000000000000000000000000000000000000000000 PUSH0 MSTORE PUSH1 0x32 PUSH1 0x4 MSTORE PUSH1 0x24 PUSH0 REVERT JUMPDEST PUSH0 PUSH2 0x1D5D DUP3 PUSH2 0x1815 JUMP JUMPDEST SWAP2 POP PUSH2 0x1D68 DUP4 PUSH2 0x1815 JUMP JUMPDEST SWAP3 POP DUP3 DUP3 ADD SWAP1 POP DUP1 DUP3 GT ISZERO PUSH2 0x1D80 JUMPI PUSH2 0x1D7F PUSH2 0x1B44 JUMP JUMPDEST JUMPDEST SWAP3 SWAP2 POP POP JUMP JUMPDEST PUSH0 PUSH2 0x1D90 DUP3 PUSH2 0x1815 JUMP JUMPDEST SWAP2 POP PUSH32 0xFFFFFFFFFFFFFFFFFFFFFFFFFFFFFFFFFFFFFFFFFFFFFFFFFFFFFFFFFFFFFFFF DUP3 SUB PUSH2 0x1DC2 JUMPI PUSH2 0x1DC1 PUSH2 0x1B44 JUMP JUMPDEST JUMPDEST PUSH1 0x1 DUP3 ADD SWAP1 POP SWAP2 SWAP1 POP JUMP JUMPDEST PUSH32 0x576974686472617720616D6F756E74206D757374206265206772656174657220 PUSH0 DUP3 ADD MSTORE PUSH32 0x7468616E207A65726F0000000000000000000000000000000000000000000000 PUSH1 0x20 DUP3 ADD MSTORE POP JUMP JUMPDEST PUSH0 PUSH2 0x1E27 PUSH1 0x29 DUP4 PUSH2 0x1ACC JUMP JUMPDEST SWAP2 POP PUSH2 0x1E32 DUP3 PUSH2 0x1DCD JUMP JUMPDEST PUSH1 0x40 DUP3 ADD SWAP1 POP SWAP2 SWAP1 POP JUMP JUMPDEST PUSH0 PUSH1 0x20 DUP3 ADD SWAP1 POP DUP2 DUP2 SUB PUSH0 DUP4 ADD MSTORE PUSH2 0x1E54 DUP2 PUSH2 0x1E1B JUMP JUMPDEST SWAP1 POP SWAP2 SWAP1 POP JUMP JUMPDEST PUSH32 0x496E73756666696369656E74206561726E656420726577617264730000000000 PUSH0 DUP3 ADD MSTORE POP JUMP JUMPDEST PUSH0 PUSH2 0x1E8F PUSH1 0x1B DUP4 PUSH2 0x1ACC JUMP JUMPDEST SWAP2 POP PUSH2 0x1E9A DUP3 PUSH2 0x1E5B JUMP JUMPDEST PUSH1 0x20 DUP3 ADD SWAP1 POP SWAP2 SWAP1 POP JUMP JUMPDEST PUSH0 PUSH1 0x20 DUP3 ADD SWAP1 POP DUP2 DUP2 SUB PUSH0 DUP4 ADD MSTORE PUSH2 0x1EBC DUP2 PUSH2 0x1E83 JUMP JUMPDEST SWAP1 POP SWAP2 SWAP1 POP JUMP JUMPDEST PUSH32 0x5769746864726177616C206661696C6564000000000000000000000000000000 PUSH0 DUP3 ADD MSTORE POP JUMP JUMPDEST PUSH0 PUSH2 0x1EF7 PUSH1 0x11 DUP4 PUSH2 0x1ACC JUMP JUMPDEST SWAP2 POP PUSH2 0x1F02 DUP3 PUSH2 0x1EC3 JUMP JUMPDEST PUSH1 0x20 DUP3 ADD SWAP1 POP SWAP2 SWAP1 POP JUMP JUMPDEST PUSH0 PUSH1 0x20 DUP3 ADD SWAP1 POP DUP2 DUP2 SUB PUSH0 DUP4 ADD MSTORE PUSH2 0x1F24 DUP2 PUSH2 0x1EEB JUMP JUMPDEST SWAP1 POP SWAP2 SWAP1 POP JUMP JUMPDEST PUSH32 0x416C726561647920726567697374657265640000000000000000000000000000 PUSH0 DUP3 ADD MSTORE POP JUMP JUMPDEST PUSH0 PUSH2 0x1F5F PUSH1 0x12 DUP4 PUSH2 0x1ACC JUMP JUMPDEST SWAP2 POP PUSH2 0x1F6A DUP3 PUSH2 0x1F2B JUMP JUMPDEST PUSH1 0x20 DUP3 ADD SWAP1 POP SWAP2 SWAP1 POP JUMP JUMPDEST PUSH0 PUSH1 0x20 DUP3 ADD SWAP1 POP DUP2 DUP2 SUB PUSH0 DUP4 ADD MSTORE PUSH2 0x1F8C DUP2 PUSH2 0x1F53 JUMP JUMPDEST SWAP1 POP SWAP2 SWAP1 POP JUMP JUMPDEST PUSH0 PUSH1 0x60 DUP3 ADD SWAP1 POP PUSH2 0x1FA6 PUSH0 DUP4 ADD DUP7 PUSH2 0x18CF JUMP JUMPDEST PUSH2 0x1FB3 PUSH1 0x20 DUP4 ADD DUP6 PUSH2 0x18CF JUMP JUMPDEST PUSH2 0x1FC0 PUSH1 0x40 DUP4 ADD DUP5 PUSH2 0x181E JUMP JUMPDEST SWAP5 SWAP4 POP POP POP POP JUMP JUMPDEST PUSH32 0x5061796D656E74206661696C6564000000000000000000000000000000000000 PUSH0 DUP3 ADD MSTORE POP JUMP JUMPDEST PUSH0 PUSH2 0x1FFC PUSH1 0xE DUP4 PUSH2 0x1ACC JUMP JUMPDEST SWAP2 POP PUSH2 0x2007 DUP3 PUSH2 0x1FC8 JUMP JUMPDEST PUSH1 0x20 DUP3 ADD SWAP1 POP SWAP2 SWAP1 POP JUMP JUMPDEST PUSH0 PUSH1 0x20 DUP3 ADD SWAP1 POP DUP2 DUP2 SUB PUSH0 DUP4 ADD MSTORE PUSH2 0x2029 DUP2 PUSH2 0x1FF0 JUMP JUMPDEST SWAP1 POP SWAP2 SWAP1 POP JUMP JUMPDEST PUSH32 0x496E76616C6964206C6576656C00000000000000000000000000000000000000 PUSH0 DUP3 ADD MSTORE POP JUMP JUMPDEST PUSH0 PUSH2 0x2064 PUSH1 0xD DUP4 PUSH2 0x1ACC JUMP JUMPDEST SWAP2 POP PUSH2 0x206F DUP3 PUSH2 0x2030 JUMP JUMPDEST PUSH1 0x20 DUP3 ADD SWAP1 POP SWAP2 SWAP1 POP JUMP JUMPDEST PUSH0 PUSH1 0x20 DUP3 ADD SWAP1 POP DUP2 DUP2 SUB PUSH0 DUP4 ADD MSTORE PUSH2 0x2091 DUP2 PUSH2 0x2058 JUMP JUMPDEST SWAP1 POP SWAP2 SWAP1 POP JUMP JUMPDEST PUSH32 0x4D75737420696E76697465206174206C65617374206F6E6520706572736F6E20 PUSH0 DUP3 ADD MSTORE PUSH32 0x746F206163746976617465206561726E696E6773000000000000000000000000 PUSH1 0x20 DUP3 ADD MSTORE POP JUMP JUMPDEST PUSH0 PUSH2 0x20F2 PUSH1 0x34 DUP4 PUSH2 0x1ACC JUMP JUMPDEST SWAP2 POP PUSH2 0x20FD DUP3 PUSH2 0x2098 JUMP JUMPDEST PUSH1 0x40 DUP3 ADD SWAP1 POP SWAP2 SWAP1 POP JUMP JUMPDEST PUSH0 PUSH1 0x20 DUP3 ADD SWAP1 POP DUP2 DUP2 SUB PUSH0 DUP4 ADD MSTORE PUSH2 0x211F DUP2 PUSH2 0x20E6 JUMP JUMPDEST SWAP1 POP SWAP2 SWAP1 POP JUMP JUMPDEST PUSH32 0x416C72656164792061742074686973206C6576656C206F722068696768657200 PUSH0 DUP3 ADD MSTORE POP JUMP JUMPDEST PUSH0 PUSH2 0x215A PUSH1 0x1F DUP4 PUSH2 0x1ACC JUMP JUMPDEST SWAP2 POP PUSH2 0x2165 DUP3 PUSH2 0x2126 JUMP JUMPDEST PUSH1 0x20 DUP3 ADD SWAP1 POP SWAP2 SWAP1 POP JUMP JUMPDEST PUSH0 PUSH1 0x20 DUP3 ADD SWAP1 POP DUP2 DUP2 SUB PUSH0 DUP4 ADD MSTORE PUSH2 0x2187 DUP2 PUSH2 0x214E JUMP JUMPDEST SWAP1 POP SWAP2 SWAP1 POP JUMP JUMPDEST PUSH32 0x4E487B7100000000000000000000000000000000000000000000000000000000 PUSH0 MSTORE PUSH1 0x31 PUSH1 0x4 MSTORE PUSH1 0x24 PUSH0 REVERT INVALID LOG2 PUSH5 0x6970667358 0x22 SLT KECCAK256 0xE CODECOPY 0xE7 0xBC SWAP4 ADD 0xC0 0x25 SMOD 0xD4 PUSH1 0xCE 0xEB PUSH29 0xEA1D8C8307913C239C523F7C45A42F01963064736F6C634300081A0033 "
				},
				"gasEstimates": {
					"creation": {
						"codeDepositCost": "1737800",
						"executionCost": "infinite",
						"totalCost": "infinite"
					},
					"external": {
						"calculateLevelCost(uint256)": "infinite",
						"distributeRewards()": "infinite",
						"getUsersInLevel(uint256)": "infinite",
						"joinNetwork(address)": "infinite",
						"lastRewardDistribution()": "2447",
						"levels(uint256,uint256)": "infinite",
						"owner()": "2528",
						"ownerShare()": "2470",
						"registrationFee()": "2449",
						"totalIncomePool()": "2491",
						"upgradeLevel(uint256)": "infinite",
						"usdtTokenAddress()": "2597",
						"users(address)": "infinite",
						"withdrawRewards(uint256)": "infinite"
					},
					"internal": {
						"_removeUserFromLevel(address,uint256)": "infinite",
						"calculateLevelShare(uint256)": "153",
						"determineLevel(uint256)": "313",
						"payReferralReward(address)": "infinite"
					}
				},
				"methodIdentifiers": {
					"calculateLevelCost(uint256)": "1517f663",
					"distributeRewards()": "6f4a2cd0",
					"getUsersInLevel(uint256)": "b894cb24",
					"joinNetwork(address)": "ad884f69",
					"lastRewardDistribution()": "b0cd9cff",
					"levels(uint256,uint256)": "aefb3434",
					"owner()": "8da5cb5b",
					"ownerShare()": "8f1c3151",
					"registrationFee()": "14c44e09",
					"totalIncomePool()": "e2a609b9",
					"upgradeLevel(uint256)": "e39f82eb",
					"usdtTokenAddress()": "9d741e5d",
					"users(address)": "a87430ba",
					"withdrawRewards(uint256)": "9342c8f4"
				}
			},
			"storageLayout": {
				"storage": [
					{
						"astId": 82,
						"contract": "contracts/RscUsdtEarn.sol:RscUsdtEarn",
						"label": "owner",
						"offset": 0,
						"slot": "0",
						"type": "t_address"
					},
					{
						"astId": 84,
						"contract": "contracts/RscUsdtEarn.sol:RscUsdtEarn",
						"label": "usdtTokenAddress",
						"offset": 0,
						"slot": "1",
						"type": "t_address"
					},
					{
						"astId": 91,
						"contract": "contracts/RscUsdtEarn.sol:RscUsdtEarn",
						"label": "registrationFee",
						"offset": 0,
						"slot": "2",
						"type": "t_uint256"
					},
					{
						"astId": 94,
						"contract": "contracts/RscUsdtEarn.sol:RscUsdtEarn",
						"label": "ownerShare",
						"offset": 0,
						"slot": "3",
						"type": "t_uint256"
					},
					{
						"astId": 96,
						"contract": "contracts/RscUsdtEarn.sol:RscUsdtEarn",
						"label": "lastRewardDistribution",
						"offset": 0,
						"slot": "4",
						"type": "t_uint256"
					},
					{
						"astId": 112,
						"contract": "contracts/RscUsdtEarn.sol:RscUsdtEarn",
						"label": "users",
						"offset": 0,
						"slot": "5",
						"type": "t_mapping(t_address,t_struct(User)107_storage)"
					},
					{
						"astId": 117,
						"contract": "contracts/RscUsdtEarn.sol:RscUsdtEarn",
						"label": "levels",
						"offset": 0,
						"slot": "6",
						"type": "t_mapping(t_uint256,t_array(t_address)dyn_storage)"
					},
					{
						"astId": 119,
						"contract": "contracts/RscUsdtEarn.sol:RscUsdtEarn",
						"label": "totalIncomePool",
						"offset": 0,
						"slot": "7",
						"type": "t_uint256"
					}
				],
				"types": {
					"t_address": {
						"encoding": "inplace",
						"label": "address",
						"numberOfBytes": "20"
					},
					"t_array(t_address)dyn_storage": {
						"base": "t_address",
						"encoding": "dynamic_array",
						"label": "address[]",
						"numberOfBytes": "32"
					},
					"t_bool": {
						"encoding": "inplace",
						"label": "bool",
						"numberOfBytes": "1"
					},
					"t_mapping(t_address,t_struct(User)107_storage)": {
						"encoding": "mapping",
						"key": "t_address",
						"label": "mapping(address => struct RscUsdtEarn.User)",
						"numberOfBytes": "32",
						"value": "t_struct(User)107_storage"
					},
					"t_mapping(t_uint256,t_array(t_address)dyn_storage)": {
						"encoding": "mapping",
						"key": "t_uint256",
						"label": "mapping(uint256 => address[])",
						"numberOfBytes": "32",
						"value": "t_array(t_address)dyn_storage"
					},
					"t_struct(User)107_storage": {
						"encoding": "inplace",
						"label": "struct RscUsdtEarn.User",
						"members": [
							{
								"astId": 98,
								"contract": "contracts/RscUsdtEarn.sol:RscUsdtEarn",
								"label": "referrer",
								"offset": 0,
								"slot": "0",
								"type": "t_address"
							},
							{
								"astId": 100,
								"contract": "contracts/RscUsdtEarn.sol:RscUsdtEarn",
								"label": "referrals",
								"offset": 0,
								"slot": "1",
								"type": "t_uint256"
							},
							{
								"astId": 102,
								"contract": "contracts/RscUsdtEarn.sol:RscUsdtEarn",
								"label": "level",
								"offset": 0,
								"slot": "2",
								"type": "t_uint256"
							},
							{
								"astId": 104,
								"contract": "contracts/RscUsdtEarn.sol:RscUsdtEarn",
								"label": "earned",
								"offset": 0,
								"slot": "3",
								"type": "t_uint256"
							},
							{
								"astId": 106,
								"contract": "contracts/RscUsdtEarn.sol:RscUsdtEarn",
								"label": "activatedEarnings",
								"offset": 0,
								"slot": "4",
								"type": "t_bool"
							}
						],
						"numberOfBytes": "160"
					},
					"t_uint256": {
						"encoding": "inplace",
						"label": "uint256",
						"numberOfBytes": "32"
					}
				}
			},
			"userdoc": {
				"kind": "user",
				"methods": {},
				"version": 1
			}
		}
	}
}