{
	"contracts/RscUsdtEarn.sol": {
		"RscUsdtEarn": {
			"abi": [
				{
					"inputs": [
						{
							"internalType": "address",
							"name": "_usdtTokenAddress",
							"type": "address"
						}
					],
					"stateMutability": "nonpayable",
					"type": "constructor"
				},
				{
					"anonymous": false,
					"inputs": [
						{
							"indexed": true,
							"internalType": "address",
							"name": "user",
							"type": "address"
						},
						{
							"indexed": false,
							"internalType": "uint256",
							"name": "newLevel",
							"type": "uint256"
						}
					],
					"name": "LevelUpgraded",
					"type": "event"
				},
				{
					"anonymous": false,
					"inputs": [
						{
							"indexed": true,
							"internalType": "address",
							"name": "sender",
							"type": "address"
						},
						{
							"indexed": false,
							"internalType": "uint256",
							"name": "amount",
							"type": "uint256"
						}
					],
					"name": "Received",
					"type": "event"
				},
				{
					"anonymous": false,
					"inputs": [
						{
							"indexed": true,
							"internalType": "address",
							"name": "referrer",
							"type": "address"
						},
						{
							"indexed": false,
							"internalType": "uint256",
							"name": "amount",
							"type": "uint256"
						}
					],
					"name": "ReferralPaid",
					"type": "event"
				},
				{
					"anonymous": false,
					"inputs": [
						{
							"indexed": true,
							"internalType": "address",
							"name": "user",
							"type": "address"
						},
						{
							"indexed": true,
							"internalType": "address",
							"name": "referrer",
							"type": "address"
						}
					],
					"name": "Registered",
					"type": "event"
				},
				{
					"anonymous": false,
					"inputs": [
						{
							"indexed": false,
							"internalType": "uint256",
							"name": "totalDistributed",
							"type": "uint256"
						}
					],
					"name": "RewardsDistributed",
					"type": "event"
				},
				{
					"anonymous": false,
					"inputs": [
						{
							"indexed": true,
							"internalType": "address",
							"name": "recipient",
							"type": "address"
						},
						{
							"indexed": false,
							"internalType": "uint256",
							"name": "amount",
							"type": "uint256"
						}
					],
					"name": "Sent",
					"type": "event"
				},
				{
					"anonymous": false,
					"inputs": [
						{
							"indexed": true,
							"internalType": "address",
							"name": "user",
							"type": "address"
						},
						{
							"indexed": false,
							"internalType": "uint256",
							"name": "amount",
							"type": "uint256"
						}
					],
					"name": "Withdrawal",
					"type": "event"
				},
				{
					"inputs": [
						{
							"internalType": "uint256",
							"name": "_level",
							"type": "uint256"
						}
					],
					"name": "calculateLevelCost",
					"outputs": [
						{
							"internalType": "uint256",
							"name": "",
							"type": "uint256"
						}
					],
					"stateMutability": "pure",
					"type": "function"
				},
				{
					"inputs": [],
					"name": "distributeRewards",
					"outputs": [],
					"stateMutability": "nonpayable",
					"type": "function"
				},
				{
					"inputs": [
						{
							"internalType": "uint256",
							"name": "_level",
							"type": "uint256"
						}
					],
					"name": "getUsersInLevel",
					"outputs": [
						{
							"internalType": "address[]",
							"name": "",
							"type": "address[]"
						}
					],
					"stateMutability": "view",
					"type": "function"
				},
				{
					"inputs": [
						{
							"internalType": "address",
							"name": "_referrer",
							"type": "address"
						}
					],
					"name": "joinNetwork",
					"outputs": [],
					"stateMutability": "nonpayable",
					"type": "function"
				},
				{
					"inputs": [],
					"name": "lastRewardDistribution",
					"outputs": [
						{
							"internalType": "uint256",
							"name": "",
							"type": "uint256"
						}
					],
					"stateMutability": "view",
					"type": "function"
				},
				{
					"inputs": [
						{
							"internalType": "uint256",
							"name": "",
							"type": "uint256"
						},
						{
							"internalType": "uint256",
							"name": "",
							"type": "uint256"
						}
					],
					"name": "levels",
					"outputs": [
						{
							"internalType": "address",
							"name": "",
							"type": "address"
						}
					],
					"stateMutability": "view",
					"type": "function"
				},
				{
					"inputs": [],
					"name": "owner",
					"outputs": [
						{
							"internalType": "address",
							"name": "",
							"type": "address"
						}
					],
					"stateMutability": "view",
					"type": "function"
				},
				{
					"inputs": [],
					"name": "ownerShare",
					"outputs": [
						{
							"internalType": "uint256",
							"name": "",
							"type": "uint256"
						}
					],
					"stateMutability": "view",
					"type": "function"
				},
				{
					"inputs": [],
					"name": "registrationFee",
					"outputs": [
						{
							"internalType": "uint256",
							"name": "",
							"type": "uint256"
						}
					],
					"stateMutability": "view",
					"type": "function"
				},
				{
					"inputs": [
						{
							"internalType": "address payable",
							"name": "_recipient",
							"type": "address"
						},
						{
							"internalType": "uint256",
							"name": "_amount",
							"type": "uint256"
						}
					],
					"name": "sendEther",
					"outputs": [],
					"stateMutability": "nonpayable",
					"type": "function"
				},
				{
					"inputs": [],
					"name": "totalIncomePool",
					"outputs": [
						{
							"internalType": "uint256",
							"name": "",
							"type": "uint256"
						}
					],
					"stateMutability": "view",
					"type": "function"
				},
				{
					"inputs": [
						{
							"internalType": "uint256",
							"name": "_desiredLevel",
							"type": "uint256"
						}
					],
					"name": "upgradeLevel",
					"outputs": [],
					"stateMutability": "nonpayable",
					"type": "function"
				},
				{
					"inputs": [],
					"name": "usdtTokenAddress",
					"outputs": [
						{
							"internalType": "address",
							"name": "",
							"type": "address"
						}
					],
					"stateMutability": "view",
					"type": "function"
				},
				{
					"inputs": [
						{
							"internalType": "address",
							"name": "",
							"type": "address"
						}
					],
					"name": "users",
					"outputs": [
						{
							"internalType": "address",
							"name": "referrer",
							"type": "address"
						},
						{
							"internalType": "uint256",
							"name": "referrals",
							"type": "uint256"
						},
						{
							"internalType": "uint256",
							"name": "level",
							"type": "uint256"
						},
						{
							"internalType": "uint256",
							"name": "earned",
							"type": "uint256"
						},
						{
							"internalType": "bool",
							"name": "activatedEarnings",
							"type": "bool"
						}
					],
					"stateMutability": "view",
					"type": "function"
				},
				{
					"inputs": [
						{
							"internalType": "uint256",
							"name": "amount",
							"type": "uint256"
						}
					],
					"name": "withdrawRewards",
					"outputs": [],
					"stateMutability": "nonpayable",
					"type": "function"
				},
				{
					"stateMutability": "payable",
					"type": "receive"
				}
			],
			"devdoc": {
				"kind": "dev",
				"methods": {},
				"version": 1
			},
			"evm": {
				"assembly": "    /* \"contracts/RscUsdtEarn.sol\":121:8506  contract RscUsdtEarn {... */\n  mstore(0x40, 0x80)\n    /* \"contracts/RscUsdtEarn.sol\":276:288  3 * 10 ** 18 */\n  0x29a2241af62c0000\n    /* \"contracts/RscUsdtEarn.sol\":243:288  uint256 public registrationFee = 3 * 10 ** 18 */\n  0x02\n  sstore\n    /* \"contracts/RscUsdtEarn.sol\":351:352  4 */\n  0x04\n    /* \"contracts/RscUsdtEarn.sol\":323:352  uint256 public ownerShare = 4 */\n  0x03\n  sstore\n    /* \"contracts/RscUsdtEarn.sol\":1380:1554  constructor(address _usdtTokenAddress) {... */\n  callvalue\n  dup1\n  iszero\n  tag_1\n  jumpi\n  0x00\n  dup1\n  revert\ntag_1:\n  pop\n  mload(0x40)\n  sub(codesize, bytecodeSize)\n  dup1\n  bytecodeSize\n  dup4\n  codecopy\n  dup2\n  dup2\n  add\n  0x40\n  mstore\n  dup2\n  add\n  swap1\n  tag_2\n  swap2\n  swap1\n  tag_3\n  jump\t// in\ntag_2:\n    /* \"contracts/RscUsdtEarn.sol\":1438:1448  msg.sender */\n  caller\n    /* \"contracts/RscUsdtEarn.sol\":1430:1435  owner */\n  0x00\n  dup1\n    /* \"contracts/RscUsdtEarn.sol\":1430:1448  owner = msg.sender */\n  0x0100\n  exp\n  dup2\n  sload\n  dup2\n  0xffffffffffffffffffffffffffffffffffffffff\n  mul\n  not\n  and\n  swap1\n  dup4\n  0xffffffffffffffffffffffffffffffffffffffff\n  and\n  mul\n  or\n  swap1\n  sstore\n  pop\n    /* \"contracts/RscUsdtEarn.sol\":1478:1495  _usdtTokenAddress */\n  dup1\n    /* \"contracts/RscUsdtEarn.sol\":1459:1475  usdtTokenAddress */\n  0x01\n  0x00\n    /* \"contracts/RscUsdtEarn.sol\":1459:1495  usdtTokenAddress = _usdtTokenAddress */\n  0x0100\n  exp\n  dup2\n  sload\n  dup2\n  0xffffffffffffffffffffffffffffffffffffffff\n  mul\n  not\n  and\n  swap1\n  dup4\n  0xffffffffffffffffffffffffffffffffffffffff\n  and\n  mul\n  or\n  swap1\n  sstore\n  pop\n    /* \"contracts/RscUsdtEarn.sol\":1531:1546  block.timestamp */\n  timestamp\n    /* \"contracts/RscUsdtEarn.sol\":1506:1528  lastRewardDistribution */\n  0x04\n    /* \"contracts/RscUsdtEarn.sol\":1506:1546  lastRewardDistribution = block.timestamp */\n  dup2\n  swap1\n  sstore\n  pop\n    /* \"contracts/RscUsdtEarn.sol\":1380:1554  constructor(address _usdtTokenAddress) {... */\n  pop\n    /* \"contracts/RscUsdtEarn.sol\":121:8506  contract RscUsdtEarn {... */\n  jump(tag_6)\n    /* \"#utility.yul\":88:205   */\ntag_8:\n    /* \"#utility.yul\":197:198   */\n  0x00\n    /* \"#utility.yul\":194:195   */\n  dup1\n    /* \"#utility.yul\":187:199   */\n  revert\n    /* \"#utility.yul\":334:460   */\ntag_10:\n    /* \"#utility.yul\":371:378   */\n  0x00\n    /* \"#utility.yul\":411:453   */\n  0xffffffffffffffffffffffffffffffffffffffff\n    /* \"#utility.yul\":404:409   */\n  dup3\n    /* \"#utility.yul\":400:454   */\n  and\n    /* \"#utility.yul\":389:454   */\n  swap1\n  pop\n    /* \"#utility.yul\":334:460   */\n  swap2\n  swap1\n  pop\n  jump\t// out\n    /* \"#utility.yul\":466:562   */\ntag_11:\n    /* \"#utility.yul\":503:510   */\n  0x00\n    /* \"#utility.yul\":532:556   */\n  tag_20\n    /* \"#utility.yul\":550:555   */\n  dup3\n    /* \"#utility.yul\":532:556   */\n  tag_10\n  jump\t// in\ntag_20:\n    /* \"#utility.yul\":521:556   */\n  swap1\n  pop\n    /* \"#utility.yul\":466:562   */\n  swap2\n  swap1\n  pop\n  jump\t// out\n    /* \"#utility.yul\":568:690   */\ntag_12:\n    /* \"#utility.yul\":641:665   */\n  tag_22\n    /* \"#utility.yul\":659:664   */\n  dup2\n    /* \"#utility.yul\":641:665   */\n  tag_11\n  jump\t// in\ntag_22:\n    /* \"#utility.yul\":634:639   */\n  dup2\n    /* \"#utility.yul\":631:666   */\n  eq\n    /* \"#utility.yul\":621:684   */\n  tag_23\n  jumpi\n    /* \"#utility.yul\":680:681   */\n  0x00\n    /* \"#utility.yul\":677:678   */\n  dup1\n    /* \"#utility.yul\":670:682   */\n  revert\n    /* \"#utility.yul\":621:684   */\ntag_23:\n    /* \"#utility.yul\":568:690   */\n  pop\n  jump\t// out\n    /* \"#utility.yul\":696:839   */\ntag_13:\n    /* \"#utility.yul\":753:758   */\n  0x00\n    /* \"#utility.yul\":784:790   */\n  dup2\n    /* \"#utility.yul\":778:791   */\n  mload\n    /* \"#utility.yul\":769:791   */\n  swap1\n  pop\n    /* \"#utility.yul\":800:833   */\n  tag_25\n    /* \"#utility.yul\":827:832   */\n  dup2\n    /* \"#utility.yul\":800:833   */\n  tag_12\n  jump\t// in\ntag_25:\n    /* \"#utility.yul\":696:839   */\n  swap3\n  swap2\n  pop\n  pop\n  jump\t// out\n    /* \"#utility.yul\":845:1196   */\ntag_3:\n    /* \"#utility.yul\":915:921   */\n  0x00\n    /* \"#utility.yul\":964:966   */\n  0x20\n    /* \"#utility.yul\":952:961   */\n  dup3\n    /* \"#utility.yul\":943:950   */\n  dup5\n    /* \"#utility.yul\":939:962   */\n  sub\n    /* \"#utility.yul\":935:967   */\n  slt\n    /* \"#utility.yul\":932:1051   */\n  iszero\n  tag_27\n  jumpi\n    /* \"#utility.yul\":970:1049   */\n  tag_28\n  tag_8\n  jump\t// in\ntag_28:\n    /* \"#utility.yul\":932:1051   */\ntag_27:\n    /* \"#utility.yul\":1090:1091   */\n  0x00\n    /* \"#utility.yul\":1115:1179   */\n  tag_29\n    /* \"#utility.yul\":1171:1178   */\n  dup5\n    /* \"#utility.yul\":1162:1168   */\n  dup3\n    /* \"#utility.yul\":1151:1160   */\n  dup6\n    /* \"#utility.yul\":1147:1169   */\n  add\n    /* \"#utility.yul\":1115:1179   */\n  tag_13\n  jump\t// in\ntag_29:\n    /* \"#utility.yul\":1105:1179   */\n  swap2\n  pop\n    /* \"#utility.yul\":1061:1189   */\n  pop\n    /* \"#utility.yul\":845:1196   */\n  swap3\n  swap2\n  pop\n  pop\n  jump\t// out\n    /* \"contracts/RscUsdtEarn.sol\":121:8506  contract RscUsdtEarn {... */\ntag_6:\n  dataSize(sub_0)\n  dup1\n  dataOffset(sub_0)\n  0x00\n  codecopy\n  0x00\n  return\nstop\n\nsub_0: assembly {\n        /* \"contracts/RscUsdtEarn.sol\":121:8506  contract RscUsdtEarn {... */\n      mstore(0x40, 0x80)\n      jumpi(tag_1, lt(calldatasize, 0x04))\n      shr(0xe0, calldataload(0x00))\n      dup1\n      0xa87430ba\n      gt\n      tag_18\n      jumpi\n      dup1\n      0xb894cb24\n      gt\n      tag_19\n      jumpi\n      dup1\n      0xb894cb24\n      eq\n      tag_14\n      jumpi\n      dup1\n      0xc1756a2c\n      eq\n      tag_15\n      jumpi\n      dup1\n      0xe2a609b9\n      eq\n      tag_16\n      jumpi\n      dup1\n      0xe39f82eb\n      eq\n      tag_17\n      jumpi\n      jump(tag_2)\n    tag_19:\n      dup1\n      0xa87430ba\n      eq\n      tag_10\n      jumpi\n      dup1\n      0xad884f69\n      eq\n      tag_11\n      jumpi\n      dup1\n      0xaefb3434\n      eq\n      tag_12\n      jumpi\n      dup1\n      0xb0cd9cff\n      eq\n      tag_13\n      jumpi\n      jump(tag_2)\n    tag_18:\n      dup1\n      0x8da5cb5b\n      gt\n      tag_20\n      jumpi\n      dup1\n      0x8da5cb5b\n      eq\n      tag_6\n      jumpi\n      dup1\n      0x8f1c3151\n      eq\n      tag_7\n      jumpi\n      dup1\n      0x9342c8f4\n      eq\n      tag_8\n      jumpi\n      dup1\n      0x9d741e5d\n      eq\n      tag_9\n      jumpi\n      jump(tag_2)\n    tag_20:\n      dup1\n      0x14c44e09\n      eq\n      tag_3\n      jumpi\n      dup1\n      0x1517f663\n      eq\n      tag_4\n      jumpi\n      dup1\n      0x6f4a2cd0\n      eq\n      tag_5\n      jumpi\n      jump(tag_2)\n    tag_1:\n      jumpi(tag_2, calldatasize)\n        /* \"contracts/RscUsdtEarn.sol\":1612:1622  msg.sender */\n      caller\n        /* \"contracts/RscUsdtEarn.sol\":1603:1634  Received(msg.sender, msg.value) */\n      0xffffffffffffffffffffffffffffffffffffffff\n      and\n      0x88a5966d370b9919b20f3e2c13ff65706f196a4e32cc2c12bf57088f88525874\n        /* \"contracts/RscUsdtEarn.sol\":1624:1633  msg.value */\n      callvalue\n        /* \"contracts/RscUsdtEarn.sol\":1603:1634  Received(msg.sender, msg.value) */\n      mload(0x40)\n      tag_23\n      swap2\n      swap1\n      tag_24\n      jump\t// in\n    tag_23:\n      mload(0x40)\n      dup1\n      swap2\n      sub\n      swap1\n      log2\n        /* \"contracts/RscUsdtEarn.sol\":121:8506  contract RscUsdtEarn {... */\n      stop\n    tag_2:\n      0x00\n      dup1\n      revert\n        /* \"contracts/RscUsdtEarn.sol\":243:288  uint256 public registrationFee = 3 * 10 ** 18 */\n    tag_3:\n      callvalue\n      dup1\n      iszero\n      tag_25\n      jumpi\n      0x00\n      dup1\n      revert\n    tag_25:\n      pop\n      tag_26\n      tag_27\n      jump\t// in\n    tag_26:\n      mload(0x40)\n      tag_28\n      swap2\n      swap1\n      tag_24\n      jump\t// in\n    tag_28:\n      mload(0x40)\n      dup1\n      swap2\n      sub\n      swap1\n      return\n        /* \"contracts/RscUsdtEarn.sol\":4148:4482  function calculateLevelCost(uint256 _level) public pure returns (uint256) {... */\n    tag_4:\n      callvalue\n      dup1\n      iszero\n      tag_29\n      jumpi\n      0x00\n      dup1\n      revert\n    tag_29:\n      pop\n      tag_30\n      0x04\n      dup1\n      calldatasize\n      sub\n      dup2\n      add\n      swap1\n      tag_31\n      swap2\n      swap1\n      tag_32\n      jump\t// in\n    tag_31:\n      tag_33\n      jump\t// in\n    tag_30:\n      mload(0x40)\n      tag_34\n      swap2\n      swap1\n      tag_24\n      jump\t// in\n    tag_34:\n      mload(0x40)\n      dup1\n      swap2\n      sub\n      swap1\n      return\n        /* \"contracts/RscUsdtEarn.sol\":4773:6081  function distributeRewards() external onlyOwner {... */\n    tag_5:\n      callvalue\n      dup1\n      iszero\n      tag_35\n      jumpi\n      0x00\n      dup1\n      revert\n    tag_35:\n      pop\n      tag_36\n      tag_37\n      jump\t// in\n    tag_36:\n      stop\n        /* \"contracts/RscUsdtEarn.sol\":149:169  address public owner */\n    tag_6:\n      callvalue\n      dup1\n      iszero\n      tag_38\n      jumpi\n      0x00\n      dup1\n      revert\n    tag_38:\n      pop\n      tag_39\n      tag_40\n      jump\t// in\n    tag_39:\n      mload(0x40)\n      tag_41\n      swap2\n      swap1\n      tag_42\n      jump\t// in\n    tag_41:\n      mload(0x40)\n      dup1\n      swap2\n      sub\n      swap1\n      return\n        /* \"contracts/RscUsdtEarn.sol\":323:352  uint256 public ownerShare = 4 */\n    tag_7:\n      callvalue\n      dup1\n      iszero\n      tag_43\n      jumpi\n      0x00\n      dup1\n      revert\n    tag_43:\n      pop\n      tag_44\n      tag_45\n      jump\t// in\n    tag_44:\n      mload(0x40)\n      tag_46\n      swap2\n      swap1\n      tag_24\n      jump\t// in\n    tag_46:\n      mload(0x40)\n      dup1\n      swap2\n      sub\n      swap1\n      return\n        /* \"contracts/RscUsdtEarn.sol\":6089:6623  function withdrawRewards(uint256 amount) external {... */\n    tag_8:\n      callvalue\n      dup1\n      iszero\n      tag_47\n      jumpi\n      0x00\n      dup1\n      revert\n    tag_47:\n      pop\n      tag_48\n      0x04\n      dup1\n      calldatasize\n      sub\n      dup2\n      add\n      swap1\n      tag_49\n      swap2\n      swap1\n      tag_32\n      jump\t// in\n    tag_49:\n      tag_50\n      jump\t// in\n    tag_48:\n      stop\n        /* \"contracts/RscUsdtEarn.sol\":176:207  address public usdtTokenAddress */\n    tag_9:\n      callvalue\n      dup1\n      iszero\n      tag_51\n      jumpi\n      0x00\n      dup1\n      revert\n    tag_51:\n      pop\n      tag_52\n      tag_53\n      jump\t// in\n    tag_52:\n      mload(0x40)\n      tag_54\n      swap2\n      swap1\n      tag_42\n      jump\t// in\n    tag_54:\n      mload(0x40)\n      dup1\n      swap2\n      sub\n      swap1\n      return\n        /* \"contracts/RscUsdtEarn.sol\":663:700  mapping(address => User) public users */\n    tag_10:\n      callvalue\n      dup1\n      iszero\n      tag_55\n      jumpi\n      0x00\n      dup1\n      revert\n    tag_55:\n      pop\n      tag_56\n      0x04\n      dup1\n      calldatasize\n      sub\n      dup2\n      add\n      swap1\n      tag_57\n      swap2\n      swap1\n      tag_58\n      jump\t// in\n    tag_57:\n      tag_59\n      jump\t// in\n    tag_56:\n      mload(0x40)\n      tag_60\n      swap6\n      swap5\n      swap4\n      swap3\n      swap2\n      swap1\n      tag_61\n      jump\t// in\n    tag_60:\n      mload(0x40)\n      dup1\n      swap2\n      sub\n      swap1\n      return\n        /* \"contracts/RscUsdtEarn.sol\":1650:3197  function joinNetwork(address _referrer) external {... */\n    tag_11:\n      callvalue\n      dup1\n      iszero\n      tag_62\n      jumpi\n      0x00\n      dup1\n      revert\n    tag_62:\n      pop\n      tag_63\n      0x04\n      dup1\n      calldatasize\n      sub\n      dup2\n      add\n      swap1\n      tag_64\n      swap2\n      swap1\n      tag_58\n      jump\t// in\n    tag_64:\n      tag_65\n      jump\t// in\n    tag_63:\n      stop\n        /* \"contracts/RscUsdtEarn.sol\":707:750  mapping(uint256 => address[]) public levels */\n    tag_12:\n      callvalue\n      dup1\n      iszero\n      tag_66\n      jumpi\n      0x00\n      dup1\n      revert\n    tag_66:\n      pop\n      tag_67\n      0x04\n      dup1\n      calldatasize\n      sub\n      dup2\n      add\n      swap1\n      tag_68\n      swap2\n      swap1\n      tag_69\n      jump\t// in\n    tag_68:\n      tag_70\n      jump\t// in\n    tag_67:\n      mload(0x40)\n      tag_71\n      swap2\n      swap1\n      tag_42\n      jump\t// in\n    tag_71:\n      mload(0x40)\n      dup1\n      swap2\n      sub\n      swap1\n      return\n        /* \"contracts/RscUsdtEarn.sol\":386:423  uint256 public lastRewardDistribution */\n    tag_13:\n      callvalue\n      dup1\n      iszero\n      tag_72\n      jumpi\n      0x00\n      dup1\n      revert\n    tag_72:\n      pop\n      tag_73\n      tag_74\n      jump\t// in\n    tag_73:\n      mload(0x40)\n      tag_75\n      swap2\n      swap1\n      tag_24\n      jump\t// in\n    tag_75:\n      mload(0x40)\n      dup1\n      swap2\n      sub\n      swap1\n      return\n        /* \"contracts/RscUsdtEarn.sol\":7975:8160  function getUsersInLevel(uint256 _level) external view returns (address[] memory) {... */\n    tag_14:\n      callvalue\n      dup1\n      iszero\n      tag_76\n      jumpi\n      0x00\n      dup1\n      revert\n    tag_76:\n      pop\n      tag_77\n      0x04\n      dup1\n      calldatasize\n      sub\n      dup2\n      add\n      swap1\n      tag_78\n      swap2\n      swap1\n      tag_32\n      jump\t// in\n    tag_78:\n      tag_79\n      jump\t// in\n    tag_77:\n      mload(0x40)\n      tag_80\n      swap2\n      swap1\n      tag_81\n      jump\t// in\n    tag_80:\n      mload(0x40)\n      dup1\n      swap2\n      sub\n      swap1\n      return\n        /* \"contracts/RscUsdtEarn.sol\":8172:8503  function sendEther(address payable _recipient, uint256 _amount) external onlyOwner {... */\n    tag_15:\n      callvalue\n      dup1\n      iszero\n      tag_82\n      jumpi\n      0x00\n      dup1\n      revert\n    tag_82:\n      pop\n      tag_83\n      0x04\n      dup1\n      calldatasize\n      sub\n      dup2\n      add\n      swap1\n      tag_84\n      swap2\n      swap1\n      tag_85\n      jump\t// in\n    tag_84:\n      tag_86\n      jump\t// in\n    tag_83:\n      stop\n        /* \"contracts/RscUsdtEarn.sol\":788:818  uint256 public totalIncomePool */\n    tag_16:\n      callvalue\n      dup1\n      iszero\n      tag_87\n      jumpi\n      0x00\n      dup1\n      revert\n    tag_87:\n      pop\n      tag_88\n      tag_89\n      jump\t// in\n    tag_88:\n      mload(0x40)\n      tag_90\n      swap2\n      swap1\n      tag_24\n      jump\t// in\n    tag_90:\n      mload(0x40)\n      dup1\n      swap2\n      sub\n      swap1\n      return\n        /* \"contracts/RscUsdtEarn.sol\":3205:4140  function upgradeLevel(uint256 _desiredLevel) external {... */\n    tag_17:\n      callvalue\n      dup1\n      iszero\n      tag_91\n      jumpi\n      0x00\n      dup1\n      revert\n    tag_91:\n      pop\n      tag_92\n      0x04\n      dup1\n      calldatasize\n      sub\n      dup2\n      add\n      swap1\n      tag_93\n      swap2\n      swap1\n      tag_32\n      jump\t// in\n    tag_93:\n      tag_94\n      jump\t// in\n    tag_92:\n      stop\n        /* \"contracts/RscUsdtEarn.sol\":243:288  uint256 public registrationFee = 3 * 10 ** 18 */\n    tag_27:\n      sload(0x02)\n      dup2\n      jump\t// out\n        /* \"contracts/RscUsdtEarn.sol\":4148:4482  function calculateLevelCost(uint256 _level) public pure returns (uint256) {... */\n    tag_33:\n        /* \"contracts/RscUsdtEarn.sol\":4213:4220  uint256 */\n      0x00\n        /* \"contracts/RscUsdtEarn.sol\":4247:4248  2 */\n      0x02\n        /* \"contracts/RscUsdtEarn.sol\":4237:4243  _level */\n      dup3\n        /* \"contracts/RscUsdtEarn.sol\":4237:4248  _level == 2 */\n      sub\n        /* \"contracts/RscUsdtEarn.sol\":4233:4270  if (_level == 2) return 30 * 10 ** 18 */\n      tag_96\n      jumpi\n        /* \"contracts/RscUsdtEarn.sol\":4257:4270  30 * 10 ** 18 */\n      0x01a055690d9db80000\n        /* \"contracts/RscUsdtEarn.sol\":4250:4270  return 30 * 10 ** 18 */\n      swap1\n      pop\n      jump(tag_95)\n        /* \"contracts/RscUsdtEarn.sol\":4233:4270  if (_level == 2) return 30 * 10 ** 18 */\n    tag_96:\n        /* \"contracts/RscUsdtEarn.sol\":4302:4303  3 */\n      0x03\n        /* \"contracts/RscUsdtEarn.sol\":4292:4298  _level */\n      dup3\n        /* \"contracts/RscUsdtEarn.sol\":4292:4303  _level == 3 */\n      sub\n        /* \"contracts/RscUsdtEarn.sol\":4288:4326  if (_level == 3) return 300 * 10 ** 18 */\n      tag_97\n      jumpi\n        /* \"contracts/RscUsdtEarn.sol\":4312:4326  300 * 10 ** 18 */\n      0x1043561a8829300000\n        /* \"contracts/RscUsdtEarn.sol\":4305:4326  return 300 * 10 ** 18 */\n      swap1\n      pop\n      jump(tag_95)\n        /* \"contracts/RscUsdtEarn.sol\":4288:4326  if (_level == 3) return 300 * 10 ** 18 */\n    tag_97:\n        /* \"contracts/RscUsdtEarn.sol\":4359:4360  4 */\n      0x04\n        /* \"contracts/RscUsdtEarn.sol\":4349:4355  _level */\n      dup3\n        /* \"contracts/RscUsdtEarn.sol\":4349:4360  _level == 4 */\n      sub\n        /* \"contracts/RscUsdtEarn.sol\":4345:4384  if (_level == 4) return 3000 * 10 ** 18 */\n      tag_98\n      jumpi\n        /* \"contracts/RscUsdtEarn.sol\":4369:4384  3000 * 10 ** 18 */\n      0xa2a15d09519be00000\n        /* \"contracts/RscUsdtEarn.sol\":4362:4384  return 3000 * 10 ** 18 */\n      swap1\n      pop\n      jump(tag_95)\n        /* \"contracts/RscUsdtEarn.sol\":4345:4384  if (_level == 4) return 3000 * 10 ** 18 */\n    tag_98:\n        /* \"contracts/RscUsdtEarn.sol\":4418:4419  5 */\n      0x05\n        /* \"contracts/RscUsdtEarn.sol\":4408:4414  _level */\n      dup3\n        /* \"contracts/RscUsdtEarn.sol\":4408:4419  _level == 5 */\n      sub\n        /* \"contracts/RscUsdtEarn.sol\":4404:4444  if (_level == 5) return 30000 * 10 ** 18 */\n      tag_99\n      jumpi\n        /* \"contracts/RscUsdtEarn.sol\":4428:4444  30000 * 10 ** 18 */\n      0x065a4da25d3016c00000\n        /* \"contracts/RscUsdtEarn.sol\":4421:4444  return 30000 * 10 ** 18 */\n      swap1\n      pop\n      jump(tag_95)\n        /* \"contracts/RscUsdtEarn.sol\":4404:4444  if (_level == 5) return 30000 * 10 ** 18 */\n    tag_99:\n        /* \"contracts/RscUsdtEarn.sol\":4473:4474  0 */\n      0x00\n        /* \"contracts/RscUsdtEarn.sol\":4466:4474  return 0 */\n      swap1\n      pop\n        /* \"contracts/RscUsdtEarn.sol\":4148:4482  function calculateLevelCost(uint256 _level) public pure returns (uint256) {... */\n    tag_95:\n      swap2\n      swap1\n      pop\n      jump\t// out\n        /* \"contracts/RscUsdtEarn.sol\":4773:6081  function distributeRewards() external onlyOwner {... */\n    tag_37:\n        /* \"contracts/RscUsdtEarn.sol\":1328:1333  owner */\n      0x00\n      dup1\n      sload\n      swap1\n      0x0100\n      exp\n      swap1\n      div\n      0xffffffffffffffffffffffffffffffffffffffff\n      and\n        /* \"contracts/RscUsdtEarn.sol\":1314:1333  msg.sender == owner */\n      0xffffffffffffffffffffffffffffffffffffffff\n      and\n        /* \"contracts/RscUsdtEarn.sol\":1314:1324  msg.sender */\n      caller\n        /* \"contracts/RscUsdtEarn.sol\":1314:1333  msg.sender == owner */\n      0xffffffffffffffffffffffffffffffffffffffff\n      and\n      eq\n        /* \"contracts/RscUsdtEarn.sol\":1306:1352  require(msg.sender == owner, \"Not authorized\") */\n      tag_101\n      jumpi\n      mload(0x40)\n      0x08c379a000000000000000000000000000000000000000000000000000000000\n      dup2\n      mstore\n      0x04\n      add\n      tag_102\n      swap1\n      tag_103\n      jump\t// in\n    tag_102:\n      mload(0x40)\n      dup1\n      swap2\n      sub\n      swap1\n      revert\n    tag_101:\n        /* \"contracts/RscUsdtEarn.sol\":4955:4980  uint256 totalToDistribute */\n      0x00\n        /* \"contracts/RscUsdtEarn.sol\":4983:4998  totalIncomePool */\n      sload(0x07)\n        /* \"contracts/RscUsdtEarn.sol\":4955:4998  uint256 totalToDistribute = totalIncomePool */\n      swap1\n      pop\n        /* \"contracts/RscUsdtEarn.sol\":5019:5035  uint256 ownerCut */\n      0x00\n        /* \"contracts/RscUsdtEarn.sol\":5073:5076  100 */\n      0x64\n        /* \"contracts/RscUsdtEarn.sol\":5059:5069  ownerShare */\n      sload(0x03)\n        /* \"contracts/RscUsdtEarn.sol\":5039:5056  totalToDistribute */\n      dup4\n        /* \"contracts/RscUsdtEarn.sol\":5039:5069  totalToDistribute * ownerShare */\n      tag_105\n      swap2\n      swap1\n      tag_106\n      jump\t// in\n    tag_105:\n        /* \"contracts/RscUsdtEarn.sol\":5038:5076  (totalToDistribute * ownerShare) / 100 */\n      tag_107\n      swap2\n      swap1\n      tag_108\n      jump\t// in\n    tag_107:\n        /* \"contracts/RscUsdtEarn.sol\":5019:5076  uint256 ownerCut = (totalToDistribute * ownerShare) / 100 */\n      swap1\n      pop\n        /* \"contracts/RscUsdtEarn.sol\":5106:5114  ownerCut */\n      dup1\n        /* \"contracts/RscUsdtEarn.sol\":5087:5102  totalIncomePool */\n      0x07\n      0x00\n        /* \"contracts/RscUsdtEarn.sol\":5087:5114  totalIncomePool -= ownerCut */\n      dup3\n      dup3\n      sload\n      tag_109\n      swap2\n      swap1\n      tag_110\n      jump\t// in\n    tag_109:\n      swap3\n      pop\n      pop\n      dup2\n      swap1\n      sstore\n      pop\n        /* \"contracts/RscUsdtEarn.sol\":5140:5156  usdtTokenAddress */\n      0x01\n      0x00\n      swap1\n      sload\n      swap1\n      0x0100\n      exp\n      swap1\n      div\n      0xffffffffffffffffffffffffffffffffffffffff\n      and\n        /* \"contracts/RscUsdtEarn.sol\":5133:5166  IERC20(usdtTokenAddress).transfer */\n      0xffffffffffffffffffffffffffffffffffffffff\n      and\n      0xa9059cbb\n        /* \"contracts/RscUsdtEarn.sol\":5167:5172  owner */\n      0x00\n      dup1\n      sload\n      swap1\n      0x0100\n      exp\n      swap1\n      div\n      0xffffffffffffffffffffffffffffffffffffffff\n      and\n        /* \"contracts/RscUsdtEarn.sol\":5174:5182  ownerCut */\n      dup4\n        /* \"contracts/RscUsdtEarn.sol\":5133:5183  IERC20(usdtTokenAddress).transfer(owner, ownerCut) */\n      mload(0x40)\n      dup4\n      0xffffffff\n      and\n      0xe0\n      shl\n      dup2\n      mstore\n      0x04\n      add\n      tag_111\n      swap3\n      swap2\n      swap1\n      tag_112\n      jump\t// in\n    tag_111:\n      0x20\n      mload(0x40)\n      dup1\n      dup4\n      sub\n      dup2\n      0x00\n      dup8\n      gas\n      call\n      iszero\n      dup1\n      iszero\n      tag_114\n      jumpi\n      returndatasize\n      0x00\n      dup1\n      returndatacopy\n      revert(0x00, returndatasize)\n    tag_114:\n      pop\n      pop\n      pop\n      pop\n      mload(0x40)\n      returndatasize\n      not(0x1f)\n      0x1f\n      dup3\n      add\n      and\n      dup3\n      add\n      dup1\n      0x40\n      mstore\n      pop\n      dup2\n      add\n      swap1\n      tag_115\n      swap2\n      swap1\n      tag_116\n      jump\t// in\n    tag_115:\n        /* \"contracts/RscUsdtEarn.sol\":5125:5208  require(IERC20(usdtTokenAddress).transfer(owner, ownerCut), \"Owner payment failed\") */\n      tag_117\n      jumpi\n      mload(0x40)\n      0x08c379a000000000000000000000000000000000000000000000000000000000\n      dup2\n      mstore\n      0x04\n      add\n      tag_118\n      swap1\n      tag_119\n      jump\t// in\n    tag_118:\n      mload(0x40)\n      dup1\n      swap2\n      sub\n      swap1\n      revert\n    tag_117:\n        /* \"contracts/RscUsdtEarn.sol\":5228:5249  uint256 remainingPool */\n      0x00\n        /* \"contracts/RscUsdtEarn.sol\":5272:5280  ownerCut */\n      dup2\n        /* \"contracts/RscUsdtEarn.sol\":5252:5269  totalToDistribute */\n      dup4\n        /* \"contracts/RscUsdtEarn.sol\":5252:5280  totalToDistribute - ownerCut */\n      tag_120\n      swap2\n      swap1\n      tag_110\n      jump\t// in\n    tag_120:\n        /* \"contracts/RscUsdtEarn.sol\":5228:5280  uint256 remainingPool = totalToDistribute - ownerCut */\n      swap1\n      pop\n        /* \"contracts/RscUsdtEarn.sol\":5343:5356  uint256 level */\n      0x00\n        /* \"contracts/RscUsdtEarn.sol\":5359:5360  1 */\n      0x01\n        /* \"contracts/RscUsdtEarn.sol\":5343:5360  uint256 level = 1 */\n      swap1\n      pop\n        /* \"contracts/RscUsdtEarn.sol\":5338:5957  for (uint256 level = 1; level <= 5; level++) {... */\n    tag_121:\n        /* \"contracts/RscUsdtEarn.sol\":5371:5372  5 */\n      0x05\n        /* \"contracts/RscUsdtEarn.sol\":5362:5367  level */\n      dup2\n        /* \"contracts/RscUsdtEarn.sol\":5362:5372  level <= 5 */\n      gt\n        /* \"contracts/RscUsdtEarn.sol\":5338:5957  for (uint256 level = 1; level <= 5; level++) {... */\n      tag_122\n      jumpi\n        /* \"contracts/RscUsdtEarn.sol\":5398:5411  uint256 share */\n      0x00\n        /* \"contracts/RscUsdtEarn.sol\":5414:5440  calculateLevelShare(level) */\n      tag_124\n        /* \"contracts/RscUsdtEarn.sol\":5434:5439  level */\n      dup3\n        /* \"contracts/RscUsdtEarn.sol\":5414:5433  calculateLevelShare */\n      tag_125\n        /* \"contracts/RscUsdtEarn.sol\":5414:5440  calculateLevelShare(level) */\n      jump\t// in\n    tag_124:\n        /* \"contracts/RscUsdtEarn.sol\":5398:5440  uint256 share = calculateLevelShare(level) */\n      swap1\n      pop\n        /* \"contracts/RscUsdtEarn.sol\":5455:5474  uint256 levelReward */\n      0x00\n        /* \"contracts/RscUsdtEarn.sol\":5503:5506  100 */\n      0x64\n        /* \"contracts/RscUsdtEarn.sol\":5494:5499  share */\n      dup3\n        /* \"contracts/RscUsdtEarn.sol\":5478:5491  remainingPool */\n      dup6\n        /* \"contracts/RscUsdtEarn.sol\":5478:5499  remainingPool * share */\n      tag_126\n      swap2\n      swap1\n      tag_106\n      jump\t// in\n    tag_126:\n        /* \"contracts/RscUsdtEarn.sol\":5477:5506  (remainingPool * share) / 100 */\n      tag_127\n      swap2\n      swap1\n      tag_108\n      jump\t// in\n    tag_127:\n        /* \"contracts/RscUsdtEarn.sol\":5455:5506  uint256 levelReward = (remainingPool * share) / 100 */\n      swap1\n      pop\n        /* \"contracts/RscUsdtEarn.sol\":5523:5550  address[] memory levelUsers */\n      0x00\n        /* \"contracts/RscUsdtEarn.sol\":5553:5559  levels */\n      0x06\n        /* \"contracts/RscUsdtEarn.sol\":5553:5566  levels[level] */\n      0x00\n        /* \"contracts/RscUsdtEarn.sol\":5560:5565  level */\n      dup6\n        /* \"contracts/RscUsdtEarn.sol\":5553:5566  levels[level] */\n      dup2\n      mstore\n      0x20\n      add\n      swap1\n      dup2\n      mstore\n      0x20\n      add\n      0x00\n      keccak256\n        /* \"contracts/RscUsdtEarn.sol\":5523:5566  address[] memory levelUsers = levels[level] */\n      dup1\n      sload\n      dup1\n      0x20\n      mul\n      0x20\n      add\n      mload(0x40)\n      swap1\n      dup2\n      add\n      0x40\n      mstore\n      dup1\n      swap3\n      swap2\n      swap1\n      dup2\n      dup2\n      mstore\n      0x20\n      add\n      dup3\n      dup1\n      sload\n      dup1\n      iszero\n      tag_128\n      jumpi\n      0x20\n      mul\n      dup3\n      add\n      swap2\n      swap1\n      0x00\n      mstore\n      keccak256(0x00, 0x20)\n      swap1\n    tag_129:\n      dup2\n      0x00\n      swap1\n      sload\n      swap1\n      0x0100\n      exp\n      swap1\n      div\n      0xffffffffffffffffffffffffffffffffffffffff\n      and\n      0xffffffffffffffffffffffffffffffffffffffff\n      and\n      dup2\n      mstore\n      0x20\n      add\n      swap1\n      0x01\n      add\n      swap1\n      dup1\n      dup4\n      gt\n      tag_129\n      jumpi\n    tag_128:\n      pop\n      pop\n      pop\n      pop\n      pop\n      swap1\n      pop\n        /* \"contracts/RscUsdtEarn.sol\":5605:5606  0 */\n      0x00\n        /* \"contracts/RscUsdtEarn.sol\":5585:5595  levelUsers */\n      dup2\n        /* \"contracts/RscUsdtEarn.sol\":5585:5602  levelUsers.length */\n      mload\n        /* \"contracts/RscUsdtEarn.sol\":5585:5606  levelUsers.length > 0 */\n      gt\n        /* \"contracts/RscUsdtEarn.sol\":5581:5946  if (levelUsers.length > 0) {... */\n      iszero\n      tag_130\n      jumpi\n        /* \"contracts/RscUsdtEarn.sol\":5627:5648  uint256 rewardPerUser */\n      0x00\n        /* \"contracts/RscUsdtEarn.sol\":5665:5675  levelUsers */\n      dup2\n        /* \"contracts/RscUsdtEarn.sol\":5665:5682  levelUsers.length */\n      mload\n        /* \"contracts/RscUsdtEarn.sol\":5651:5662  levelReward */\n      dup4\n        /* \"contracts/RscUsdtEarn.sol\":5651:5682  levelReward / levelUsers.length */\n      tag_131\n      swap2\n      swap1\n      tag_108\n      jump\t// in\n    tag_131:\n        /* \"contracts/RscUsdtEarn.sol\":5627:5682  uint256 rewardPerUser = levelReward / levelUsers.length */\n      swap1\n      pop\n        /* \"contracts/RscUsdtEarn.sol\":5706:5715  uint256 i */\n      0x00\n        /* \"contracts/RscUsdtEarn.sol\":5701:5931  for (uint256 i = 0; i < levelUsers.length; i++) {... */\n    tag_132:\n        /* \"contracts/RscUsdtEarn.sol\":5725:5735  levelUsers */\n      dup3\n        /* \"contracts/RscUsdtEarn.sol\":5725:5742  levelUsers.length */\n      mload\n        /* \"contracts/RscUsdtEarn.sol\":5721:5722  i */\n      dup2\n        /* \"contracts/RscUsdtEarn.sol\":5721:5742  i < levelUsers.length */\n      lt\n        /* \"contracts/RscUsdtEarn.sol\":5701:5931  for (uint256 i = 0; i < levelUsers.length; i++) {... */\n      iszero\n      tag_133\n      jumpi\n        /* \"contracts/RscUsdtEarn.sol\":5803:5816  rewardPerUser */\n      dup2\n        /* \"contracts/RscUsdtEarn.sol\":5772:5777  users */\n      0x05\n        /* \"contracts/RscUsdtEarn.sol\":5772:5792  users[levelUsers[i]] */\n      0x00\n        /* \"contracts/RscUsdtEarn.sol\":5778:5788  levelUsers */\n      dup6\n        /* \"contracts/RscUsdtEarn.sol\":5789:5790  i */\n      dup5\n        /* \"contracts/RscUsdtEarn.sol\":5778:5791  levelUsers[i] */\n      dup2\n      mload\n      dup2\n      lt\n      tag_135\n      jumpi\n      tag_136\n      tag_137\n      jump\t// in\n    tag_136:\n    tag_135:\n      0x20\n      mul\n      0x20\n      add\n      add\n      mload\n        /* \"contracts/RscUsdtEarn.sol\":5772:5792  users[levelUsers[i]] */\n      0xffffffffffffffffffffffffffffffffffffffff\n      and\n      0xffffffffffffffffffffffffffffffffffffffff\n      and\n      dup2\n      mstore\n      0x20\n      add\n      swap1\n      dup2\n      mstore\n      0x20\n      add\n      0x00\n      keccak256\n        /* \"contracts/RscUsdtEarn.sol\":5772:5799  users[levelUsers[i]].earned */\n      0x03\n      add\n      0x00\n        /* \"contracts/RscUsdtEarn.sol\":5772:5816  users[levelUsers[i]].earned += rewardPerUser */\n      dup3\n      dup3\n      sload\n      tag_138\n      swap2\n      swap1\n      tag_139\n      jump\t// in\n    tag_138:\n      swap3\n      pop\n      pop\n      dup2\n      swap1\n      sstore\n      pop\n        /* \"contracts/RscUsdtEarn.sol\":5898:5911  rewardPerUser */\n      dup2\n        /* \"contracts/RscUsdtEarn.sol\":5879:5894  totalIncomePool */\n      0x07\n      0x00\n        /* \"contracts/RscUsdtEarn.sol\":5879:5911  totalIncomePool -= rewardPerUser */\n      dup3\n      dup3\n      sload\n      tag_140\n      swap2\n      swap1\n      tag_110\n      jump\t// in\n    tag_140:\n      swap3\n      pop\n      pop\n      dup2\n      swap1\n      sstore\n      pop\n        /* \"contracts/RscUsdtEarn.sol\":5744:5747  i++ */\n      dup1\n      dup1\n      0x01\n      add\n      swap2\n      pop\n      pop\n        /* \"contracts/RscUsdtEarn.sol\":5701:5931  for (uint256 i = 0; i < levelUsers.length; i++) {... */\n      jump(tag_132)\n    tag_133:\n      pop\n        /* \"contracts/RscUsdtEarn.sol\":5608:5946  {... */\n      pop\n        /* \"contracts/RscUsdtEarn.sol\":5581:5946  if (levelUsers.length > 0) {... */\n    tag_130:\n        /* \"contracts/RscUsdtEarn.sol\":5383:5957  {... */\n      pop\n      pop\n      pop\n        /* \"contracts/RscUsdtEarn.sol\":5374:5381  level++ */\n      dup1\n      dup1\n      tag_141\n      swap1\n      tag_142\n      jump\t// in\n    tag_141:\n      swap2\n      pop\n      pop\n        /* \"contracts/RscUsdtEarn.sol\":5338:5957  for (uint256 level = 1; level <= 5; level++) {... */\n      jump(tag_121)\n    tag_122:\n      pop\n        /* \"contracts/RscUsdtEarn.sol\":6003:6018  block.timestamp */\n      timestamp\n        /* \"contracts/RscUsdtEarn.sol\":5978:6000  lastRewardDistribution */\n      0x04\n        /* \"contracts/RscUsdtEarn.sol\":5978:6018  lastRewardDistribution = block.timestamp */\n      dup2\n      swap1\n      sstore\n      pop\n        /* \"contracts/RscUsdtEarn.sol\":6036:6073  RewardsDistributed(totalToDistribute) */\n      0x6d1c76d614228b523baa4dcd9539e2c713b54ff4ab3ff2d1627e7f6cd32be442\n        /* \"contracts/RscUsdtEarn.sol\":6055:6072  totalToDistribute */\n      dup4\n        /* \"contracts/RscUsdtEarn.sol\":6036:6073  RewardsDistributed(totalToDistribute) */\n      mload(0x40)\n      tag_143\n      swap2\n      swap1\n      tag_24\n      jump\t// in\n    tag_143:\n      mload(0x40)\n      dup1\n      swap2\n      sub\n      swap1\n      log1\n        /* \"contracts/RscUsdtEarn.sol\":4821:6081  {... */\n      pop\n      pop\n      pop\n        /* \"contracts/RscUsdtEarn.sol\":4773:6081  function distributeRewards() external onlyOwner {... */\n      jump\t// out\n        /* \"contracts/RscUsdtEarn.sol\":149:169  address public owner */\n    tag_40:\n      0x00\n      dup1\n      sload\n      swap1\n      0x0100\n      exp\n      swap1\n      div\n      0xffffffffffffffffffffffffffffffffffffffff\n      and\n      dup2\n      jump\t// out\n        /* \"contracts/RscUsdtEarn.sol\":323:352  uint256 public ownerShare = 4 */\n    tag_45:\n      sload(0x03)\n      dup2\n      jump\t// out\n        /* \"contracts/RscUsdtEarn.sol\":6089:6623  function withdrawRewards(uint256 amount) external {... */\n    tag_50:\n        /* \"contracts/RscUsdtEarn.sol\":6167:6168  0 */\n      0x00\n        /* \"contracts/RscUsdtEarn.sol\":6158:6164  amount */\n      dup2\n        /* \"contracts/RscUsdtEarn.sol\":6158:6168  amount > 0 */\n      gt\n        /* \"contracts/RscUsdtEarn.sol\":6150:6214  require(amount > 0, \"Withdraw amount must be greater than zero\") */\n      tag_145\n      jumpi\n      mload(0x40)\n      0x08c379a000000000000000000000000000000000000000000000000000000000\n      dup2\n      mstore\n      0x04\n      add\n      tag_146\n      swap1\n      tag_147\n      jump\t// in\n    tag_146:\n      mload(0x40)\n      dup1\n      swap2\n      sub\n      swap1\n      revert\n    tag_145:\n        /* \"contracts/RscUsdtEarn.sol\":6261:6267  amount */\n      dup1\n        /* \"contracts/RscUsdtEarn.sol\":6233:6238  users */\n      0x05\n        /* \"contracts/RscUsdtEarn.sol\":6233:6250  users[msg.sender] */\n      0x00\n        /* \"contracts/RscUsdtEarn.sol\":6239:6249  msg.sender */\n      caller\n        /* \"contracts/RscUsdtEarn.sol\":6233:6250  users[msg.sender] */\n      0xffffffffffffffffffffffffffffffffffffffff\n      and\n      0xffffffffffffffffffffffffffffffffffffffff\n      and\n      dup2\n      mstore\n      0x20\n      add\n      swap1\n      dup2\n      mstore\n      0x20\n      add\n      0x00\n      keccak256\n        /* \"contracts/RscUsdtEarn.sol\":6233:6257  users[msg.sender].earned */\n      0x03\n      add\n      sload\n        /* \"contracts/RscUsdtEarn.sol\":6233:6267  users[msg.sender].earned >= amount */\n      lt\n      iszero\n        /* \"contracts/RscUsdtEarn.sol\":6225:6299  require(users[msg.sender].earned >= amount, \"Insufficient earned rewards\") */\n      tag_148\n      jumpi\n      mload(0x40)\n      0x08c379a000000000000000000000000000000000000000000000000000000000\n      dup2\n      mstore\n      0x04\n      add\n      tag_149\n      swap1\n      tag_150\n      jump\t// in\n    tag_149:\n      mload(0x40)\n      dup1\n      swap2\n      sub\n      swap1\n      revert\n    tag_148:\n        /* \"contracts/RscUsdtEarn.sol\":6411:6417  amount */\n      dup1\n        /* \"contracts/RscUsdtEarn.sol\":6383:6388  users */\n      0x05\n        /* \"contracts/RscUsdtEarn.sol\":6383:6400  users[msg.sender] */\n      0x00\n        /* \"contracts/RscUsdtEarn.sol\":6389:6399  msg.sender */\n      caller\n        /* \"contracts/RscUsdtEarn.sol\":6383:6400  users[msg.sender] */\n      0xffffffffffffffffffffffffffffffffffffffff\n      and\n      0xffffffffffffffffffffffffffffffffffffffff\n      and\n      dup2\n      mstore\n      0x20\n      add\n      swap1\n      dup2\n      mstore\n      0x20\n      add\n      0x00\n      keccak256\n        /* \"contracts/RscUsdtEarn.sol\":6383:6407  users[msg.sender].earned */\n      0x03\n      add\n      0x00\n        /* \"contracts/RscUsdtEarn.sol\":6383:6417  users[msg.sender].earned -= amount */\n      dup3\n      dup3\n      sload\n      tag_151\n      swap2\n      swap1\n      tag_110\n      jump\t// in\n    tag_151:\n      swap3\n      pop\n      pop\n      dup2\n      swap1\n      sstore\n      pop\n        /* \"contracts/RscUsdtEarn.sol\":6499:6515  usdtTokenAddress */\n      0x01\n      0x00\n      swap1\n      sload\n      swap1\n      0x0100\n      exp\n      swap1\n      div\n      0xffffffffffffffffffffffffffffffffffffffff\n      and\n        /* \"contracts/RscUsdtEarn.sol\":6492:6525  IERC20(usdtTokenAddress).transfer */\n      0xffffffffffffffffffffffffffffffffffffffff\n      and\n      0xa9059cbb\n        /* \"contracts/RscUsdtEarn.sol\":6526:6536  msg.sender */\n      caller\n        /* \"contracts/RscUsdtEarn.sol\":6538:6544  amount */\n      dup4\n        /* \"contracts/RscUsdtEarn.sol\":6492:6545  IERC20(usdtTokenAddress).transfer(msg.sender, amount) */\n      mload(0x40)\n      dup4\n      0xffffffff\n      and\n      0xe0\n      shl\n      dup2\n      mstore\n      0x04\n      add\n      tag_152\n      swap3\n      swap2\n      swap1\n      tag_112\n      jump\t// in\n    tag_152:\n      0x20\n      mload(0x40)\n      dup1\n      dup4\n      sub\n      dup2\n      0x00\n      dup8\n      gas\n      call\n      iszero\n      dup1\n      iszero\n      tag_154\n      jumpi\n      returndatasize\n      0x00\n      dup1\n      returndatacopy\n      revert(0x00, returndatasize)\n    tag_154:\n      pop\n      pop\n      pop\n      pop\n      mload(0x40)\n      returndatasize\n      not(0x1f)\n      0x1f\n      dup3\n      add\n      and\n      dup3\n      add\n      dup1\n      0x40\n      mstore\n      pop\n      dup2\n      add\n      swap1\n      tag_155\n      swap2\n      swap1\n      tag_116\n      jump\t// in\n    tag_155:\n        /* \"contracts/RscUsdtEarn.sol\":6484:6567  require(IERC20(usdtTokenAddress).transfer(msg.sender, amount), \"Withdrawal failed\") */\n      tag_156\n      jumpi\n      mload(0x40)\n      0x08c379a000000000000000000000000000000000000000000000000000000000\n      dup2\n      mstore\n      0x04\n      add\n      tag_157\n      swap1\n      tag_158\n      jump\t// in\n    tag_157:\n      mload(0x40)\n      dup1\n      swap2\n      sub\n      swap1\n      revert\n    tag_156:\n        /* \"contracts/RscUsdtEarn.sol\":6596:6606  msg.sender */\n      caller\n        /* \"contracts/RscUsdtEarn.sol\":6585:6615  Withdrawal(msg.sender, amount) */\n      0xffffffffffffffffffffffffffffffffffffffff\n      and\n      0x7fcf532c15f0a6db0bd6d0e038bea71d30d808c7d98cb3bf7268a95bf5081b65\n        /* \"contracts/RscUsdtEarn.sol\":6608:6614  amount */\n      dup3\n        /* \"contracts/RscUsdtEarn.sol\":6585:6615  Withdrawal(msg.sender, amount) */\n      mload(0x40)\n      tag_159\n      swap2\n      swap1\n      tag_24\n      jump\t// in\n    tag_159:\n      mload(0x40)\n      dup1\n      swap2\n      sub\n      swap1\n      log2\n        /* \"contracts/RscUsdtEarn.sol\":6089:6623  function withdrawRewards(uint256 amount) external {... */\n      pop\n      jump\t// out\n        /* \"contracts/RscUsdtEarn.sol\":176:207  address public usdtTokenAddress */\n    tag_53:\n      0x01\n      0x00\n      swap1\n      sload\n      swap1\n      0x0100\n      exp\n      swap1\n      div\n      0xffffffffffffffffffffffffffffffffffffffff\n      and\n      dup2\n      jump\t// out\n        /* \"contracts/RscUsdtEarn.sol\":663:700  mapping(address => User) public users */\n    tag_59:\n      mstore(0x20, 0x05)\n      dup1\n      0x00\n      mstore\n      keccak256(0x00, 0x40)\n      0x00\n      swap2\n      pop\n      swap1\n      pop\n      dup1\n      0x00\n      add\n      0x00\n      swap1\n      sload\n      swap1\n      0x0100\n      exp\n      swap1\n      div\n      0xffffffffffffffffffffffffffffffffffffffff\n      and\n      swap1\n      dup1\n      0x01\n      add\n      sload\n      swap1\n      dup1\n      0x02\n      add\n      sload\n      swap1\n      dup1\n      0x03\n      add\n      sload\n      swap1\n      dup1\n      0x04\n      add\n      0x00\n      swap1\n      sload\n      swap1\n      0x0100\n      exp\n      swap1\n      div\n      0xff\n      and\n      swap1\n      pop\n      dup6\n      jump\t// out\n        /* \"contracts/RscUsdtEarn.sol\":1650:3197  function joinNetwork(address _referrer) external {... */\n    tag_65:\n        /* \"contracts/RscUsdtEarn.sol\":1756:1757  0 */\n      0x00\n        /* \"contracts/RscUsdtEarn.sol\":1718:1758  users[msg.sender].referrer == address(0) */\n      0xffffffffffffffffffffffffffffffffffffffff\n      and\n        /* \"contracts/RscUsdtEarn.sol\":1718:1723  users */\n      0x05\n        /* \"contracts/RscUsdtEarn.sol\":1718:1735  users[msg.sender] */\n      0x00\n        /* \"contracts/RscUsdtEarn.sol\":1724:1734  msg.sender */\n      caller\n        /* \"contracts/RscUsdtEarn.sol\":1718:1735  users[msg.sender] */\n      0xffffffffffffffffffffffffffffffffffffffff\n      and\n      0xffffffffffffffffffffffffffffffffffffffff\n      and\n      dup2\n      mstore\n      0x20\n      add\n      swap1\n      dup2\n      mstore\n      0x20\n      add\n      0x00\n      keccak256\n        /* \"contracts/RscUsdtEarn.sol\":1718:1744  users[msg.sender].referrer */\n      0x00\n      add\n      0x00\n      swap1\n      sload\n      swap1\n      0x0100\n      exp\n      swap1\n      div\n      0xffffffffffffffffffffffffffffffffffffffff\n      and\n        /* \"contracts/RscUsdtEarn.sol\":1718:1758  users[msg.sender].referrer == address(0) */\n      0xffffffffffffffffffffffffffffffffffffffff\n      and\n      eq\n        /* \"contracts/RscUsdtEarn.sol\":1710:1781  require(users[msg.sender].referrer == address(0), \"Already registered\") */\n      tag_161\n      jumpi\n      mload(0x40)\n      0x08c379a000000000000000000000000000000000000000000000000000000000\n      dup2\n      mstore\n      0x04\n      add\n      tag_162\n      swap1\n      tag_163\n      jump\t// in\n    tag_162:\n      mload(0x40)\n      dup1\n      swap2\n      sub\n      swap1\n      revert\n    tag_161:\n        /* \"contracts/RscUsdtEarn.sol\":1807:1823  usdtTokenAddress */\n      0x01\n      0x00\n      swap1\n      sload\n      swap1\n      0x0100\n      exp\n      swap1\n      div\n      0xffffffffffffffffffffffffffffffffffffffff\n      and\n        /* \"contracts/RscUsdtEarn.sol\":1800:1837  IERC20(usdtTokenAddress).transferFrom */\n      0xffffffffffffffffffffffffffffffffffffffff\n      and\n      0x23b872dd\n        /* \"contracts/RscUsdtEarn.sol\":1838:1848  msg.sender */\n      caller\n        /* \"contracts/RscUsdtEarn.sol\":1858:1862  this */\n      address\n        /* \"contracts/RscUsdtEarn.sol\":1865:1880  registrationFee */\n      sload(0x02)\n        /* \"contracts/RscUsdtEarn.sol\":1800:1881  IERC20(usdtTokenAddress).transferFrom(msg.sender, address(this), registrationFee) */\n      mload(0x40)\n      dup5\n      0xffffffff\n      and\n      0xe0\n      shl\n      dup2\n      mstore\n      0x04\n      add\n      tag_164\n      swap4\n      swap3\n      swap2\n      swap1\n      tag_165\n      jump\t// in\n    tag_164:\n      0x20\n      mload(0x40)\n      dup1\n      dup4\n      sub\n      dup2\n      0x00\n      dup8\n      gas\n      call\n      iszero\n      dup1\n      iszero\n      tag_167\n      jumpi\n      returndatasize\n      0x00\n      dup1\n      returndatacopy\n      revert(0x00, returndatasize)\n    tag_167:\n      pop\n      pop\n      pop\n      pop\n      mload(0x40)\n      returndatasize\n      not(0x1f)\n      0x1f\n      dup3\n      add\n      and\n      dup3\n      add\n      dup1\n      0x40\n      mstore\n      pop\n      dup2\n      add\n      swap1\n      tag_168\n      swap2\n      swap1\n      tag_116\n      jump\t// in\n    tag_168:\n        /* \"contracts/RscUsdtEarn.sol\":1792:1900  require(IERC20(usdtTokenAddress).transferFrom(msg.sender, address(this), registrationFee), \"Payment failed\") */\n      tag_169\n      jumpi\n      mload(0x40)\n      0x08c379a000000000000000000000000000000000000000000000000000000000\n      dup2\n      mstore\n      0x04\n      add\n      tag_170\n      swap1\n      tag_171\n      jump\t// in\n    tag_170:\n      mload(0x40)\n      dup1\n      swap2\n      sub\n      swap1\n      revert\n    tag_169:\n        /* \"contracts/RscUsdtEarn.sol\":1971:1972  0 */\n      0x00\n        /* \"contracts/RscUsdtEarn.sol\":1950:1973  _referrer != address(0) */\n      0xffffffffffffffffffffffffffffffffffffffff\n      and\n        /* \"contracts/RscUsdtEarn.sol\":1950:1959  _referrer */\n      dup2\n        /* \"contracts/RscUsdtEarn.sol\":1950:1973  _referrer != address(0) */\n      0xffffffffffffffffffffffffffffffffffffffff\n      and\n      eq\n      iszero\n        /* \"contracts/RscUsdtEarn.sol\":1950:2000  _referrer != address(0) && _referrer != msg.sender */\n      dup1\n      iszero\n      tag_172\n      jumpi\n      pop\n        /* \"contracts/RscUsdtEarn.sol\":1990:2000  msg.sender */\n      caller\n        /* \"contracts/RscUsdtEarn.sol\":1977:2000  _referrer != msg.sender */\n      0xffffffffffffffffffffffffffffffffffffffff\n      and\n        /* \"contracts/RscUsdtEarn.sol\":1977:1986  _referrer */\n      dup2\n        /* \"contracts/RscUsdtEarn.sol\":1977:2000  _referrer != msg.sender */\n      0xffffffffffffffffffffffffffffffffffffffff\n      and\n      eq\n      iszero\n        /* \"contracts/RscUsdtEarn.sol\":1950:2000  _referrer != address(0) && _referrer != msg.sender */\n    tag_172:\n        /* \"contracts/RscUsdtEarn.sol\":1946:2842  if (_referrer != address(0) && _referrer != msg.sender) {... */\n      iszero\n      tag_173\n      jumpi\n        /* \"contracts/RscUsdtEarn.sol\":2017:2022  users */\n      0x05\n        /* \"contracts/RscUsdtEarn.sol\":2017:2033  users[_referrer] */\n      0x00\n        /* \"contracts/RscUsdtEarn.sol\":2023:2032  _referrer */\n      dup3\n        /* \"contracts/RscUsdtEarn.sol\":2017:2033  users[_referrer] */\n      0xffffffffffffffffffffffffffffffffffffffff\n      and\n      0xffffffffffffffffffffffffffffffffffffffff\n      and\n      dup2\n      mstore\n      0x20\n      add\n      swap1\n      dup2\n      mstore\n      0x20\n      add\n      0x00\n      keccak256\n        /* \"contracts/RscUsdtEarn.sol\":2017:2043  users[_referrer].referrals */\n      0x01\n      add\n      0x00\n        /* \"contracts/RscUsdtEarn.sol\":2017:2045  users[_referrer].referrals++ */\n      dup2\n      sload\n      dup1\n      swap3\n      swap2\n      swap1\n      tag_174\n      swap1\n      tag_142\n      jump\t// in\n    tag_174:\n      swap2\n      swap1\n      pop\n      sstore\n      pop\n        /* \"contracts/RscUsdtEarn.sol\":2097:2101  true */\n      0x01\n        /* \"contracts/RscUsdtEarn.sol\":2060:2065  users */\n      0x05\n        /* \"contracts/RscUsdtEarn.sol\":2060:2076  users[_referrer] */\n      0x00\n        /* \"contracts/RscUsdtEarn.sol\":2066:2075  _referrer */\n      dup4\n        /* \"contracts/RscUsdtEarn.sol\":2060:2076  users[_referrer] */\n      0xffffffffffffffffffffffffffffffffffffffff\n      and\n      0xffffffffffffffffffffffffffffffffffffffff\n      and\n      dup2\n      mstore\n      0x20\n      add\n      swap1\n      dup2\n      mstore\n      0x20\n      add\n      0x00\n      keccak256\n        /* \"contracts/RscUsdtEarn.sol\":2060:2094  users[_referrer].activatedEarnings */\n      0x04\n      add\n      0x00\n        /* \"contracts/RscUsdtEarn.sol\":2060:2101  users[_referrer].activatedEarnings = true */\n      0x0100\n      exp\n      dup2\n      sload\n      dup2\n      0xff\n      mul\n      not\n      and\n      swap1\n      dup4\n      iszero\n      iszero\n      mul\n      or\n      swap1\n      sstore\n      pop\n        /* \"contracts/RscUsdtEarn.sol\":2228:2252  uint256 newReferrerLevel */\n      0x00\n        /* \"contracts/RscUsdtEarn.sol\":2255:2297  determineLevel(users[_referrer].referrals) */\n      tag_175\n        /* \"contracts/RscUsdtEarn.sol\":2270:2275  users */\n      0x05\n        /* \"contracts/RscUsdtEarn.sol\":2270:2286  users[_referrer] */\n      0x00\n        /* \"contracts/RscUsdtEarn.sol\":2276:2285  _referrer */\n      dup5\n        /* \"contracts/RscUsdtEarn.sol\":2270:2286  users[_referrer] */\n      0xffffffffffffffffffffffffffffffffffffffff\n      and\n      0xffffffffffffffffffffffffffffffffffffffff\n      and\n      dup2\n      mstore\n      0x20\n      add\n      swap1\n      dup2\n      mstore\n      0x20\n      add\n      0x00\n      keccak256\n        /* \"contracts/RscUsdtEarn.sol\":2270:2296  users[_referrer].referrals */\n      0x01\n      add\n      sload\n        /* \"contracts/RscUsdtEarn.sol\":2255:2269  determineLevel */\n      tag_176\n        /* \"contracts/RscUsdtEarn.sol\":2255:2297  determineLevel(users[_referrer].referrals) */\n      jump\t// in\n    tag_175:\n        /* \"contracts/RscUsdtEarn.sol\":2228:2297  uint256 newReferrerLevel = determineLevel(users[_referrer].referrals) */\n      swap1\n      pop\n        /* \"contracts/RscUsdtEarn.sol\":2426:2442  newReferrerLevel */\n      dup1\n        /* \"contracts/RscUsdtEarn.sol\":2400:2405  users */\n      0x05\n        /* \"contracts/RscUsdtEarn.sol\":2400:2416  users[_referrer] */\n      0x00\n        /* \"contracts/RscUsdtEarn.sol\":2406:2415  _referrer */\n      dup5\n        /* \"contracts/RscUsdtEarn.sol\":2400:2416  users[_referrer] */\n      0xffffffffffffffffffffffffffffffffffffffff\n      and\n      0xffffffffffffffffffffffffffffffffffffffff\n      and\n      dup2\n      mstore\n      0x20\n      add\n      swap1\n      dup2\n      mstore\n      0x20\n      add\n      0x00\n      keccak256\n        /* \"contracts/RscUsdtEarn.sol\":2400:2422  users[_referrer].level */\n      0x02\n      add\n      sload\n        /* \"contracts/RscUsdtEarn.sol\":2400:2442  users[_referrer].level != newReferrerLevel */\n      eq\n        /* \"contracts/RscUsdtEarn.sol\":2396:2786  if (users[_referrer].level != newReferrerLevel) {... */\n      tag_177\n      jumpi\n        /* \"contracts/RscUsdtEarn.sol\":2522:2577  _removeUserFromLevel(_referrer, users[_referrer].level) */\n      tag_178\n        /* \"contracts/RscUsdtEarn.sol\":2543:2552  _referrer */\n      dup3\n        /* \"contracts/RscUsdtEarn.sol\":2554:2559  users */\n      0x05\n        /* \"contracts/RscUsdtEarn.sol\":2554:2570  users[_referrer] */\n      0x00\n        /* \"contracts/RscUsdtEarn.sol\":2560:2569  _referrer */\n      dup6\n        /* \"contracts/RscUsdtEarn.sol\":2554:2570  users[_referrer] */\n      0xffffffffffffffffffffffffffffffffffffffff\n      and\n      0xffffffffffffffffffffffffffffffffffffffff\n      and\n      dup2\n      mstore\n      0x20\n      add\n      swap1\n      dup2\n      mstore\n      0x20\n      add\n      0x00\n      keccak256\n        /* \"contracts/RscUsdtEarn.sol\":2554:2576  users[_referrer].level */\n      0x02\n      add\n      sload\n        /* \"contracts/RscUsdtEarn.sol\":2522:2542  _removeUserFromLevel */\n      tag_179\n        /* \"contracts/RscUsdtEarn.sol\":2522:2577  _removeUserFromLevel(_referrer, users[_referrer].level) */\n      jump\t// in\n    tag_178:\n        /* \"contracts/RscUsdtEarn.sol\":2671:2687  newReferrerLevel */\n      dup1\n        /* \"contracts/RscUsdtEarn.sol\":2646:2651  users */\n      0x05\n        /* \"contracts/RscUsdtEarn.sol\":2646:2662  users[_referrer] */\n      0x00\n        /* \"contracts/RscUsdtEarn.sol\":2652:2661  _referrer */\n      dup5\n        /* \"contracts/RscUsdtEarn.sol\":2646:2662  users[_referrer] */\n      0xffffffffffffffffffffffffffffffffffffffff\n      and\n      0xffffffffffffffffffffffffffffffffffffffff\n      and\n      dup2\n      mstore\n      0x20\n      add\n      swap1\n      dup2\n      mstore\n      0x20\n      add\n      0x00\n      keccak256\n        /* \"contracts/RscUsdtEarn.sol\":2646:2668  users[_referrer].level */\n      0x02\n      add\n        /* \"contracts/RscUsdtEarn.sol\":2646:2687  users[_referrer].level = newReferrerLevel */\n      dup2\n      swap1\n      sstore\n      pop\n        /* \"contracts/RscUsdtEarn.sol\":2706:2712  levels */\n      0x06\n        /* \"contracts/RscUsdtEarn.sol\":2706:2730  levels[newReferrerLevel] */\n      0x00\n        /* \"contracts/RscUsdtEarn.sol\":2713:2729  newReferrerLevel */\n      dup3\n        /* \"contracts/RscUsdtEarn.sol\":2706:2730  levels[newReferrerLevel] */\n      dup2\n      mstore\n      0x20\n      add\n      swap1\n      dup2\n      mstore\n      0x20\n      add\n      0x00\n      keccak256\n        /* \"contracts/RscUsdtEarn.sol\":2736:2745  _referrer */\n      dup3\n        /* \"contracts/RscUsdtEarn.sol\":2706:2746  levels[newReferrerLevel].push(_referrer) */\n      swap1\n      dup1\n      0x01\n      dup2\n      sload\n      add\n      dup1\n      dup3\n      sstore\n      dup1\n      swap2\n      pop\n      pop\n      0x01\n      swap1\n      sub\n      swap1\n      0x00\n      mstore\n      keccak256(0x00, 0x20)\n      add\n      0x00\n      swap1\n      swap2\n      swap1\n      swap2\n      swap1\n      swap2\n      0x0100\n      exp\n      dup2\n      sload\n      dup2\n      0xffffffffffffffffffffffffffffffffffffffff\n      mul\n      not\n      and\n      swap1\n      dup4\n      0xffffffffffffffffffffffffffffffffffffffff\n      and\n      mul\n      or\n      swap1\n      sstore\n      pop\n        /* \"contracts/RscUsdtEarn.sol\":2396:2786  if (users[_referrer].level != newReferrerLevel) {... */\n    tag_177:\n        /* \"contracts/RscUsdtEarn.sol\":2802:2830  payReferralReward(_referrer) */\n      tag_181\n        /* \"contracts/RscUsdtEarn.sol\":2820:2829  _referrer */\n      dup3\n        /* \"contracts/RscUsdtEarn.sol\":2802:2819  payReferralReward */\n      tag_182\n        /* \"contracts/RscUsdtEarn.sol\":2802:2830  payReferralReward(_referrer) */\n      jump\t// in\n    tag_181:\n        /* \"contracts/RscUsdtEarn.sol\":2002:2842  {... */\n      pop\n        /* \"contracts/RscUsdtEarn.sol\":1946:2842  if (_referrer != address(0) && _referrer != msg.sender) {... */\n    tag_173:\n        /* \"contracts/RscUsdtEarn.sol\":2913:2922  _referrer */\n      dup1\n        /* \"contracts/RscUsdtEarn.sol\":2884:2889  users */\n      0x05\n        /* \"contracts/RscUsdtEarn.sol\":2884:2901  users[msg.sender] */\n      0x00\n        /* \"contracts/RscUsdtEarn.sol\":2890:2900  msg.sender */\n      caller\n        /* \"contracts/RscUsdtEarn.sol\":2884:2901  users[msg.sender] */\n      0xffffffffffffffffffffffffffffffffffffffff\n      and\n      0xffffffffffffffffffffffffffffffffffffffff\n      and\n      dup2\n      mstore\n      0x20\n      add\n      swap1\n      dup2\n      mstore\n      0x20\n      add\n      0x00\n      keccak256\n        /* \"contracts/RscUsdtEarn.sol\":2884:2910  users[msg.sender].referrer */\n      0x00\n      add\n      0x00\n        /* \"contracts/RscUsdtEarn.sol\":2884:2922  users[msg.sender].referrer = _referrer */\n      0x0100\n      exp\n      dup2\n      sload\n      dup2\n      0xffffffffffffffffffffffffffffffffffffffff\n      mul\n      not\n      and\n      swap1\n      dup4\n      0xffffffffffffffffffffffffffffffffffffffff\n      and\n      mul\n      or\n      swap1\n      sstore\n      pop\n        /* \"contracts/RscUsdtEarn.sol\":2933:2949  uint256 newLevel */\n      0x00\n        /* \"contracts/RscUsdtEarn.sol\":2952:2995  determineLevel(users[msg.sender].referrals) */\n      tag_183\n        /* \"contracts/RscUsdtEarn.sol\":2967:2972  users */\n      0x05\n        /* \"contracts/RscUsdtEarn.sol\":2967:2984  users[msg.sender] */\n      0x00\n        /* \"contracts/RscUsdtEarn.sol\":2973:2983  msg.sender */\n      caller\n        /* \"contracts/RscUsdtEarn.sol\":2967:2984  users[msg.sender] */\n      0xffffffffffffffffffffffffffffffffffffffff\n      and\n      0xffffffffffffffffffffffffffffffffffffffff\n      and\n      dup2\n      mstore\n      0x20\n      add\n      swap1\n      dup2\n      mstore\n      0x20\n      add\n      0x00\n      keccak256\n        /* \"contracts/RscUsdtEarn.sol\":2967:2994  users[msg.sender].referrals */\n      0x01\n      add\n      sload\n        /* \"contracts/RscUsdtEarn.sol\":2952:2966  determineLevel */\n      tag_176\n        /* \"contracts/RscUsdtEarn.sol\":2952:2995  determineLevel(users[msg.sender].referrals) */\n      jump\t// in\n    tag_183:\n        /* \"contracts/RscUsdtEarn.sol\":2933:2995  uint256 newLevel = determineLevel(users[msg.sender].referrals) */\n      swap1\n      pop\n        /* \"contracts/RscUsdtEarn.sol\":3032:3040  newLevel */\n      dup1\n        /* \"contracts/RscUsdtEarn.sol\":3006:3011  users */\n      0x05\n        /* \"contracts/RscUsdtEarn.sol\":3006:3023  users[msg.sender] */\n      0x00\n        /* \"contracts/RscUsdtEarn.sol\":3012:3022  msg.sender */\n      caller\n        /* \"contracts/RscUsdtEarn.sol\":3006:3023  users[msg.sender] */\n      0xffffffffffffffffffffffffffffffffffffffff\n      and\n      0xffffffffffffffffffffffffffffffffffffffff\n      and\n      dup2\n      mstore\n      0x20\n      add\n      swap1\n      dup2\n      mstore\n      0x20\n      add\n      0x00\n      keccak256\n        /* \"contracts/RscUsdtEarn.sol\":3006:3029  users[msg.sender].level */\n      0x02\n      add\n        /* \"contracts/RscUsdtEarn.sol\":3006:3040  users[msg.sender].level = newLevel */\n      dup2\n      swap1\n      sstore\n      pop\n        /* \"contracts/RscUsdtEarn.sol\":3097:3100  100 */\n      0x64\n        /* \"contracts/RscUsdtEarn.sol\":3091:3093  50 */\n      0x32\n        /* \"contracts/RscUsdtEarn.sol\":3073:3088  registrationFee */\n      sload(0x02)\n        /* \"contracts/RscUsdtEarn.sol\":3073:3093  registrationFee * 50 */\n      tag_184\n      swap2\n      swap1\n      tag_106\n      jump\t// in\n    tag_184:\n        /* \"contracts/RscUsdtEarn.sol\":3072:3100  (registrationFee * 50) / 100 */\n      tag_185\n      swap2\n      swap1\n      tag_108\n      jump\t// in\n    tag_185:\n        /* \"contracts/RscUsdtEarn.sol\":3053:3068  totalIncomePool */\n      0x07\n      0x00\n        /* \"contracts/RscUsdtEarn.sol\":3053:3100  totalIncomePool += (registrationFee * 50) / 100 */\n      dup3\n      dup3\n      sload\n      tag_186\n      swap2\n      swap1\n      tag_139\n      jump\t// in\n    tag_186:\n      swap3\n      pop\n      pop\n      dup2\n      swap1\n      sstore\n      pop\n        /* \"contracts/RscUsdtEarn.sol\":3179:3188  _referrer */\n      dup2\n        /* \"contracts/RscUsdtEarn.sol\":3156:3189  Registered(msg.sender, _referrer) */\n      0xffffffffffffffffffffffffffffffffffffffff\n      and\n        /* \"contracts/RscUsdtEarn.sol\":3167:3177  msg.sender */\n      caller\n        /* \"contracts/RscUsdtEarn.sol\":3156:3189  Registered(msg.sender, _referrer) */\n      0xffffffffffffffffffffffffffffffffffffffff\n      and\n      0x0a31ee9d46a828884b81003c8498156ea6aa15b9b54bdd0ef0b533d9eba57e55\n      mload(0x40)\n      mload(0x40)\n      dup1\n      swap2\n      sub\n      swap1\n      log3\n        /* \"contracts/RscUsdtEarn.sol\":1699:3197  {... */\n      pop\n        /* \"contracts/RscUsdtEarn.sol\":1650:3197  function joinNetwork(address _referrer) external {... */\n      pop\n      jump\t// out\n        /* \"contracts/RscUsdtEarn.sol\":707:750  mapping(uint256 => address[]) public levels */\n    tag_70:\n      mstore(0x20, 0x06)\n      dup2\n      0x00\n      mstore\n      keccak256(0x00, 0x40)\n      dup2\n      dup2\n      sload\n      dup2\n      lt\n      tag_187\n      jumpi\n      0x00\n      dup1\n      revert\n    tag_187:\n      swap1\n      0x00\n      mstore\n      keccak256(0x00, 0x20)\n      add\n      0x00\n      swap2\n      pop\n      swap2\n      pop\n      swap1\n      sload\n      swap1\n      0x0100\n      exp\n      swap1\n      div\n      0xffffffffffffffffffffffffffffffffffffffff\n      and\n      dup2\n      jump\t// out\n        /* \"contracts/RscUsdtEarn.sol\":386:423  uint256 public lastRewardDistribution */\n    tag_74:\n      sload(0x04)\n      dup2\n      jump\t// out\n        /* \"contracts/RscUsdtEarn.sol\":7975:8160  function getUsersInLevel(uint256 _level) external view returns (address[] memory) {... */\n    tag_79:\n        /* \"contracts/RscUsdtEarn.sol\":8039:8055  address[] memory */\n      0x60\n        /* \"contracts/RscUsdtEarn.sol\":8086:8087  1 */\n      0x01\n        /* \"contracts/RscUsdtEarn.sol\":8076:8082  _level */\n      dup3\n        /* \"contracts/RscUsdtEarn.sol\":8076:8087  _level >= 1 */\n      lt\n      iszero\n        /* \"contracts/RscUsdtEarn.sol\":8076:8102  _level >= 1 && _level <= 5 */\n      dup1\n      iszero\n      tag_190\n      jumpi\n      pop\n        /* \"contracts/RscUsdtEarn.sol\":8101:8102  5 */\n      0x05\n        /* \"contracts/RscUsdtEarn.sol\":8091:8097  _level */\n      dup3\n        /* \"contracts/RscUsdtEarn.sol\":8091:8102  _level <= 5 */\n      gt\n      iszero\n        /* \"contracts/RscUsdtEarn.sol\":8076:8102  _level >= 1 && _level <= 5 */\n    tag_190:\n        /* \"contracts/RscUsdtEarn.sol\":8068:8120  require(_level >= 1 && _level <= 5, \"Invalid level\") */\n      tag_191\n      jumpi\n      mload(0x40)\n      0x08c379a000000000000000000000000000000000000000000000000000000000\n      dup2\n      mstore\n      0x04\n      add\n      tag_192\n      swap1\n      tag_193\n      jump\t// in\n    tag_192:\n      mload(0x40)\n      dup1\n      swap2\n      sub\n      swap1\n      revert\n    tag_191:\n        /* \"contracts/RscUsdtEarn.sol\":8138:8144  levels */\n      0x06\n        /* \"contracts/RscUsdtEarn.sol\":8138:8152  levels[_level] */\n      0x00\n        /* \"contracts/RscUsdtEarn.sol\":8145:8151  _level */\n      dup4\n        /* \"contracts/RscUsdtEarn.sol\":8138:8152  levels[_level] */\n      dup2\n      mstore\n      0x20\n      add\n      swap1\n      dup2\n      mstore\n      0x20\n      add\n      0x00\n      keccak256\n        /* \"contracts/RscUsdtEarn.sol\":8131:8152  return levels[_level] */\n      dup1\n      sload\n      dup1\n      0x20\n      mul\n      0x20\n      add\n      mload(0x40)\n      swap1\n      dup2\n      add\n      0x40\n      mstore\n      dup1\n      swap3\n      swap2\n      swap1\n      dup2\n      dup2\n      mstore\n      0x20\n      add\n      dup3\n      dup1\n      sload\n      dup1\n      iszero\n      tag_194\n      jumpi\n      0x20\n      mul\n      dup3\n      add\n      swap2\n      swap1\n      0x00\n      mstore\n      keccak256(0x00, 0x20)\n      swap1\n    tag_195:\n      dup2\n      0x00\n      swap1\n      sload\n      swap1\n      0x0100\n      exp\n      swap1\n      div\n      0xffffffffffffffffffffffffffffffffffffffff\n      and\n      0xffffffffffffffffffffffffffffffffffffffff\n      and\n      dup2\n      mstore\n      0x20\n      add\n      swap1\n      0x01\n      add\n      swap1\n      dup1\n      dup4\n      gt\n      tag_195\n      jumpi\n    tag_194:\n      pop\n      pop\n      pop\n      pop\n      pop\n      swap1\n      pop\n        /* \"contracts/RscUsdtEarn.sol\":7975:8160  function getUsersInLevel(uint256 _level) external view returns (address[] memory) {... */\n      swap2\n      swap1\n      pop\n      jump\t// out\n        /* \"contracts/RscUsdtEarn.sol\":8172:8503  function sendEther(address payable _recipient, uint256 _amount) external onlyOwner {... */\n    tag_86:\n        /* \"contracts/RscUsdtEarn.sol\":1328:1333  owner */\n      0x00\n      dup1\n      sload\n      swap1\n      0x0100\n      exp\n      swap1\n      div\n      0xffffffffffffffffffffffffffffffffffffffff\n      and\n        /* \"contracts/RscUsdtEarn.sol\":1314:1333  msg.sender == owner */\n      0xffffffffffffffffffffffffffffffffffffffff\n      and\n        /* \"contracts/RscUsdtEarn.sol\":1314:1324  msg.sender */\n      caller\n        /* \"contracts/RscUsdtEarn.sol\":1314:1333  msg.sender == owner */\n      0xffffffffffffffffffffffffffffffffffffffff\n      and\n      eq\n        /* \"contracts/RscUsdtEarn.sol\":1306:1352  require(msg.sender == owner, \"Not authorized\") */\n      tag_197\n      jumpi\n      mload(0x40)\n      0x08c379a000000000000000000000000000000000000000000000000000000000\n      dup2\n      mstore\n      0x04\n      add\n      tag_198\n      swap1\n      tag_103\n      jump\t// in\n    tag_198:\n      mload(0x40)\n      dup1\n      swap2\n      sub\n      swap1\n      revert\n    tag_197:\n        /* \"contracts/RscUsdtEarn.sol\":8299:8306  _amount */\n      dup1\n        /* \"contracts/RscUsdtEarn.sol\":8274:8295  address(this).balance */\n      selfbalance\n        /* \"contracts/RscUsdtEarn.sol\":8274:8306  address(this).balance >= _amount */\n      lt\n      iszero\n        /* \"contracts/RscUsdtEarn.sol\":8266:8337  require(address(this).balance >= _amount, \"Insufficient Ether balance\") */\n      tag_200\n      jumpi\n      mload(0x40)\n      0x08c379a000000000000000000000000000000000000000000000000000000000\n      dup2\n      mstore\n      0x04\n      add\n      tag_201\n      swap1\n      tag_202\n      jump\t// in\n    tag_201:\n      mload(0x40)\n      dup1\n      swap2\n      sub\n      swap1\n      revert\n    tag_200:\n        /* \"contracts/RscUsdtEarn.sol\":8349:8361  bool success */\n      0x00\n        /* \"contracts/RscUsdtEarn.sol\":8367:8377  _recipient */\n      dup3\n        /* \"contracts/RscUsdtEarn.sol\":8367:8382  _recipient.call */\n      0xffffffffffffffffffffffffffffffffffffffff\n      and\n        /* \"contracts/RscUsdtEarn.sol\":8390:8397  _amount */\n      dup3\n        /* \"contracts/RscUsdtEarn.sol\":8367:8402  _recipient.call{value: _amount}(\"\") */\n      mload(0x40)\n      tag_203\n      swap1\n      tag_204\n      jump\t// in\n    tag_203:\n      0x00\n      mload(0x40)\n      dup1\n      dup4\n      sub\n      dup2\n      dup6\n      dup8\n      gas\n      call\n      swap3\n      pop\n      pop\n      pop\n      returndatasize\n      dup1\n      0x00\n      dup2\n      eq\n      tag_207\n      jumpi\n      mload(0x40)\n      swap2\n      pop\n      and(add(returndatasize, 0x3f), not(0x1f))\n      dup3\n      add\n      0x40\n      mstore\n      returndatasize\n      dup3\n      mstore\n      returndatasize\n      0x00\n      0x20\n      dup5\n      add\n      returndatacopy\n      jump(tag_206)\n    tag_207:\n      0x60\n      swap2\n      pop\n    tag_206:\n      pop\n        /* \"contracts/RscUsdtEarn.sol\":8348:8402  (bool success, ) = _recipient.call{value: _amount}(\"\") */\n      pop\n      swap1\n      pop\n        /* \"contracts/RscUsdtEarn.sol\":8421:8428  success */\n      dup1\n        /* \"contracts/RscUsdtEarn.sol\":8413:8454  require(success, \"Ether transfer failed\") */\n      tag_208\n      jumpi\n      mload(0x40)\n      0x08c379a000000000000000000000000000000000000000000000000000000000\n      dup2\n      mstore\n      0x04\n      add\n      tag_209\n      swap1\n      tag_210\n      jump\t// in\n    tag_209:\n      mload(0x40)\n      dup1\n      swap2\n      sub\n      swap1\n      revert\n    tag_208:\n        /* \"contracts/RscUsdtEarn.sol\":8475:8485  _recipient */\n      dup3\n        /* \"contracts/RscUsdtEarn.sol\":8470:8495  Sent(_recipient, _amount) */\n      0xffffffffffffffffffffffffffffffffffffffff\n      and\n      0x510ffb4dcab972ae9d2007a58e13f1b0881776d23cd8f5cc32f8c5be2dbf70d2\n        /* \"contracts/RscUsdtEarn.sol\":8487:8494  _amount */\n      dup4\n        /* \"contracts/RscUsdtEarn.sol\":8470:8495  Sent(_recipient, _amount) */\n      mload(0x40)\n      tag_211\n      swap2\n      swap1\n      tag_24\n      jump\t// in\n    tag_211:\n      mload(0x40)\n      dup1\n      swap2\n      sub\n      swap1\n      log2\n        /* \"contracts/RscUsdtEarn.sol\":8255:8503  {... */\n      pop\n        /* \"contracts/RscUsdtEarn.sol\":8172:8503  function sendEther(address payable _recipient, uint256 _amount) external onlyOwner {... */\n      pop\n      pop\n      jump\t// out\n        /* \"contracts/RscUsdtEarn.sol\":788:818  uint256 public totalIncomePool */\n    tag_89:\n      sload(0x07)\n      dup2\n      jump\t// out\n        /* \"contracts/RscUsdtEarn.sol\":3205:4140  function upgradeLevel(uint256 _desiredLevel) external {... */\n    tag_94:\n        /* \"contracts/RscUsdtEarn.sol\":3295:3296  1 */\n      0x01\n        /* \"contracts/RscUsdtEarn.sol\":3278:3291  _desiredLevel */\n      dup2\n        /* \"contracts/RscUsdtEarn.sol\":3278:3296  _desiredLevel >= 1 */\n      lt\n      iszero\n        /* \"contracts/RscUsdtEarn.sol\":3278:3318  _desiredLevel >= 1 && _desiredLevel <= 5 */\n      dup1\n      iszero\n      tag_213\n      jumpi\n      pop\n        /* \"contracts/RscUsdtEarn.sol\":3317:3318  5 */\n      0x05\n        /* \"contracts/RscUsdtEarn.sol\":3300:3313  _desiredLevel */\n      dup2\n        /* \"contracts/RscUsdtEarn.sol\":3300:3318  _desiredLevel <= 5 */\n      gt\n      iszero\n        /* \"contracts/RscUsdtEarn.sol\":3278:3318  _desiredLevel >= 1 && _desiredLevel <= 5 */\n    tag_213:\n        /* \"contracts/RscUsdtEarn.sol\":3270:3336  require(_desiredLevel >= 1 && _desiredLevel <= 5, \"Invalid level\") */\n      tag_214\n      jumpi\n      mload(0x40)\n      0x08c379a000000000000000000000000000000000000000000000000000000000\n      dup2\n      mstore\n      0x04\n      add\n      tag_215\n      swap1\n      tag_193\n      jump\t// in\n    tag_215:\n      mload(0x40)\n      dup1\n      swap2\n      sub\n      swap1\n      revert\n    tag_214:\n        /* \"contracts/RscUsdtEarn.sol\":3386:3387  1 */\n      0x01\n        /* \"contracts/RscUsdtEarn.sol\":3355:3360  users */\n      0x05\n        /* \"contracts/RscUsdtEarn.sol\":3355:3372  users[msg.sender] */\n      0x00\n        /* \"contracts/RscUsdtEarn.sol\":3361:3371  msg.sender */\n      caller\n        /* \"contracts/RscUsdtEarn.sol\":3355:3372  users[msg.sender] */\n      0xffffffffffffffffffffffffffffffffffffffff\n      and\n      0xffffffffffffffffffffffffffffffffffffffff\n      and\n      dup2\n      mstore\n      0x20\n      add\n      swap1\n      dup2\n      mstore\n      0x20\n      add\n      0x00\n      keccak256\n        /* \"contracts/RscUsdtEarn.sol\":3355:3382  users[msg.sender].referrals */\n      0x01\n      add\n      sload\n        /* \"contracts/RscUsdtEarn.sol\":3355:3387  users[msg.sender].referrals >= 1 */\n      lt\n      iszero\n        /* \"contracts/RscUsdtEarn.sol\":3347:3444  require(users[msg.sender].referrals >= 1, \"Must invite at least one person to activate earnings\") */\n      tag_216\n      jumpi\n      mload(0x40)\n      0x08c379a000000000000000000000000000000000000000000000000000000000\n      dup2\n      mstore\n      0x04\n      add\n      tag_217\n      swap1\n      tag_218\n      jump\t// in\n    tag_217:\n      mload(0x40)\n      dup1\n      swap2\n      sub\n      swap1\n      revert\n    tag_216:\n        /* \"contracts/RscUsdtEarn.sol\":3489:3502  _desiredLevel */\n      dup1\n        /* \"contracts/RscUsdtEarn.sol\":3463:3468  users */\n      0x05\n        /* \"contracts/RscUsdtEarn.sol\":3463:3480  users[msg.sender] */\n      0x00\n        /* \"contracts/RscUsdtEarn.sol\":3469:3479  msg.sender */\n      caller\n        /* \"contracts/RscUsdtEarn.sol\":3463:3480  users[msg.sender] */\n      0xffffffffffffffffffffffffffffffffffffffff\n      and\n      0xffffffffffffffffffffffffffffffffffffffff\n      and\n      dup2\n      mstore\n      0x20\n      add\n      swap1\n      dup2\n      mstore\n      0x20\n      add\n      0x00\n      keccak256\n        /* \"contracts/RscUsdtEarn.sol\":3463:3486  users[msg.sender].level */\n      0x02\n      add\n      sload\n        /* \"contracts/RscUsdtEarn.sol\":3463:3502  users[msg.sender].level < _desiredLevel */\n      lt\n        /* \"contracts/RscUsdtEarn.sol\":3455:3538  require(users[msg.sender].level < _desiredLevel, \"Already at this level or higher\") */\n      tag_219\n      jumpi\n      mload(0x40)\n      0x08c379a000000000000000000000000000000000000000000000000000000000\n      dup2\n      mstore\n      0x04\n      add\n      tag_220\n      swap1\n      tag_221\n      jump\t// in\n    tag_220:\n      mload(0x40)\n      dup1\n      swap2\n      sub\n      swap1\n      revert\n    tag_219:\n        /* \"contracts/RscUsdtEarn.sol\":3551:3574  uint256 requiredPayment */\n      0x00\n        /* \"contracts/RscUsdtEarn.sol\":3577:3610  calculateLevelCost(_desiredLevel) */\n      tag_222\n        /* \"contracts/RscUsdtEarn.sol\":3596:3609  _desiredLevel */\n      dup3\n        /* \"contracts/RscUsdtEarn.sol\":3577:3595  calculateLevelCost */\n      tag_33\n        /* \"contracts/RscUsdtEarn.sol\":3577:3610  calculateLevelCost(_desiredLevel) */\n      jump\t// in\n    tag_222:\n        /* \"contracts/RscUsdtEarn.sol\":3551:3610  uint256 requiredPayment = calculateLevelCost(_desiredLevel) */\n      swap1\n      pop\n        /* \"contracts/RscUsdtEarn.sol\":3636:3652  usdtTokenAddress */\n      0x01\n      0x00\n      swap1\n      sload\n      swap1\n      0x0100\n      exp\n      swap1\n      div\n      0xffffffffffffffffffffffffffffffffffffffff\n      and\n        /* \"contracts/RscUsdtEarn.sol\":3629:3666  IERC20(usdtTokenAddress).transferFrom */\n      0xffffffffffffffffffffffffffffffffffffffff\n      and\n      0x23b872dd\n        /* \"contracts/RscUsdtEarn.sol\":3667:3677  msg.sender */\n      caller\n        /* \"contracts/RscUsdtEarn.sol\":3687:3691  this */\n      address\n        /* \"contracts/RscUsdtEarn.sol\":3694:3709  requiredPayment */\n      dup5\n        /* \"contracts/RscUsdtEarn.sol\":3629:3710  IERC20(usdtTokenAddress).transferFrom(msg.sender, address(this), requiredPayment) */\n      mload(0x40)\n      dup5\n      0xffffffff\n      and\n      0xe0\n      shl\n      dup2\n      mstore\n      0x04\n      add\n      tag_223\n      swap4\n      swap3\n      swap2\n      swap1\n      tag_165\n      jump\t// in\n    tag_223:\n      0x20\n      mload(0x40)\n      dup1\n      dup4\n      sub\n      dup2\n      0x00\n      dup8\n      gas\n      call\n      iszero\n      dup1\n      iszero\n      tag_225\n      jumpi\n      returndatasize\n      0x00\n      dup1\n      returndatacopy\n      revert(0x00, returndatasize)\n    tag_225:\n      pop\n      pop\n      pop\n      pop\n      mload(0x40)\n      returndatasize\n      not(0x1f)\n      0x1f\n      dup3\n      add\n      and\n      dup3\n      add\n      dup1\n      0x40\n      mstore\n      pop\n      dup2\n      add\n      swap1\n      tag_226\n      swap2\n      swap1\n      tag_116\n      jump\t// in\n    tag_226:\n        /* \"contracts/RscUsdtEarn.sol\":3621:3729  require(IERC20(usdtTokenAddress).transferFrom(msg.sender, address(this), requiredPayment), \"Payment failed\") */\n      tag_227\n      jumpi\n      mload(0x40)\n      0x08c379a000000000000000000000000000000000000000000000000000000000\n      dup2\n      mstore\n      0x04\n      add\n      tag_228\n      swap1\n      tag_171\n      jump\t// in\n    tag_228:\n      mload(0x40)\n      dup1\n      swap2\n      sub\n      swap1\n      revert\n    tag_227:\n        /* \"contracts/RscUsdtEarn.sol\":3789:3846  _removeUserFromLevel(msg.sender, users[msg.sender].level) */\n      tag_229\n        /* \"contracts/RscUsdtEarn.sol\":3810:3820  msg.sender */\n      caller\n        /* \"contracts/RscUsdtEarn.sol\":3822:3827  users */\n      0x05\n        /* \"contracts/RscUsdtEarn.sol\":3822:3839  users[msg.sender] */\n      0x00\n        /* \"contracts/RscUsdtEarn.sol\":3828:3838  msg.sender */\n      caller\n        /* \"contracts/RscUsdtEarn.sol\":3822:3839  users[msg.sender] */\n      0xffffffffffffffffffffffffffffffffffffffff\n      and\n      0xffffffffffffffffffffffffffffffffffffffff\n      and\n      dup2\n      mstore\n      0x20\n      add\n      swap1\n      dup2\n      mstore\n      0x20\n      add\n      0x00\n      keccak256\n        /* \"contracts/RscUsdtEarn.sol\":3822:3845  users[msg.sender].level */\n      0x02\n      add\n      sload\n        /* \"contracts/RscUsdtEarn.sol\":3789:3809  _removeUserFromLevel */\n      tag_179\n        /* \"contracts/RscUsdtEarn.sol\":3789:3846  _removeUserFromLevel(msg.sender, users[msg.sender].level) */\n      jump\t// in\n    tag_229:\n        /* \"contracts/RscUsdtEarn.sol\":3921:3934  _desiredLevel */\n      dup2\n        /* \"contracts/RscUsdtEarn.sol\":3895:3900  users */\n      0x05\n        /* \"contracts/RscUsdtEarn.sol\":3895:3912  users[msg.sender] */\n      0x00\n        /* \"contracts/RscUsdtEarn.sol\":3901:3911  msg.sender */\n      caller\n        /* \"contracts/RscUsdtEarn.sol\":3895:3912  users[msg.sender] */\n      0xffffffffffffffffffffffffffffffffffffffff\n      and\n      0xffffffffffffffffffffffffffffffffffffffff\n      and\n      dup2\n      mstore\n      0x20\n      add\n      swap1\n      dup2\n      mstore\n      0x20\n      add\n      0x00\n      keccak256\n        /* \"contracts/RscUsdtEarn.sol\":3895:3918  users[msg.sender].level */\n      0x02\n      add\n        /* \"contracts/RscUsdtEarn.sol\":3895:3934  users[msg.sender].level = _desiredLevel */\n      dup2\n      swap1\n      sstore\n      pop\n        /* \"contracts/RscUsdtEarn.sol\":3989:3995  levels */\n      0x06\n        /* \"contracts/RscUsdtEarn.sol\":3989:4010  levels[_desiredLevel] */\n      0x00\n        /* \"contracts/RscUsdtEarn.sol\":3996:4009  _desiredLevel */\n      dup4\n        /* \"contracts/RscUsdtEarn.sol\":3989:4010  levels[_desiredLevel] */\n      dup2\n      mstore\n      0x20\n      add\n      swap1\n      dup2\n      mstore\n      0x20\n      add\n      0x00\n      keccak256\n        /* \"contracts/RscUsdtEarn.sol\":4016:4026  msg.sender */\n      caller\n        /* \"contracts/RscUsdtEarn.sol\":3989:4027  levels[_desiredLevel].push(msg.sender) */\n      swap1\n      dup1\n      0x01\n      dup2\n      sload\n      add\n      dup1\n      dup3\n      sstore\n      dup1\n      swap2\n      pop\n      pop\n      0x01\n      swap1\n      sub\n      swap1\n      0x00\n      mstore\n      keccak256(0x00, 0x20)\n      add\n      0x00\n      swap1\n      swap2\n      swap1\n      swap2\n      swap1\n      swap2\n      0x0100\n      exp\n      dup2\n      sload\n      dup2\n      0xffffffffffffffffffffffffffffffffffffffff\n      mul\n      not\n      and\n      swap1\n      dup4\n      0xffffffffffffffffffffffffffffffffffffffff\n      and\n      mul\n      or\n      swap1\n      sstore\n      pop\n        /* \"contracts/RscUsdtEarn.sol\":4059:4074  requiredPayment */\n      dup1\n        /* \"contracts/RscUsdtEarn.sol\":4040:4055  totalIncomePool */\n      0x07\n      0x00\n        /* \"contracts/RscUsdtEarn.sol\":4040:4074  totalIncomePool += requiredPayment */\n      dup3\n      dup3\n      sload\n      tag_231\n      swap2\n      swap1\n      tag_139\n      jump\t// in\n    tag_231:\n      swap3\n      pop\n      pop\n      dup2\n      swap1\n      sstore\n      pop\n        /* \"contracts/RscUsdtEarn.sol\":4106:4116  msg.sender */\n      caller\n        /* \"contracts/RscUsdtEarn.sol\":4092:4132  LevelUpgraded(msg.sender, _desiredLevel) */\n      0xffffffffffffffffffffffffffffffffffffffff\n      and\n      0x427898149ffa0bd0a638b73a8506cc040ca0034a36bdb547db4fb73fd0313c02\n        /* \"contracts/RscUsdtEarn.sol\":4118:4131  _desiredLevel */\n      dup4\n        /* \"contracts/RscUsdtEarn.sol\":4092:4132  LevelUpgraded(msg.sender, _desiredLevel) */\n      mload(0x40)\n      tag_232\n      swap2\n      swap1\n      tag_24\n      jump\t// in\n    tag_232:\n      mload(0x40)\n      dup1\n      swap2\n      sub\n      swap1\n      log2\n        /* \"contracts/RscUsdtEarn.sol\":3259:4140  {... */\n      pop\n        /* \"contracts/RscUsdtEarn.sol\":3205:4140  function upgradeLevel(uint256 _desiredLevel) external {... */\n      pop\n      jump\t// out\n        /* \"contracts/RscUsdtEarn.sol\":7034:7420  function calculateLevelShare(uint256 _level) internal pure returns (uint256) {... */\n    tag_125:\n        /* \"contracts/RscUsdtEarn.sol\":7102:7109  uint256 */\n      0x00\n        /* \"contracts/RscUsdtEarn.sol\":7136:7137  1 */\n      0x01\n        /* \"contracts/RscUsdtEarn.sol\":7126:7132  _level */\n      dup3\n        /* \"contracts/RscUsdtEarn.sol\":7126:7137  _level == 1 */\n      sub\n        /* \"contracts/RscUsdtEarn.sol\":7122:7148  if (_level == 1) return 16 */\n      tag_234\n      jumpi\n        /* \"contracts/RscUsdtEarn.sol\":7146:7148  16 */\n      0x10\n        /* \"contracts/RscUsdtEarn.sol\":7139:7148  return 16 */\n      swap1\n      pop\n      jump(tag_233)\n        /* \"contracts/RscUsdtEarn.sol\":7122:7148  if (_level == 1) return 16 */\n    tag_234:\n        /* \"contracts/RscUsdtEarn.sol\":7192:7193  2 */\n      0x02\n        /* \"contracts/RscUsdtEarn.sol\":7182:7188  _level */\n      dup3\n        /* \"contracts/RscUsdtEarn.sol\":7182:7193  _level == 2 */\n      sub\n        /* \"contracts/RscUsdtEarn.sol\":7178:7204  if (_level == 2) return 18 */\n      tag_235\n      jumpi\n        /* \"contracts/RscUsdtEarn.sol\":7202:7204  18 */\n      0x12\n        /* \"contracts/RscUsdtEarn.sol\":7195:7204  return 18 */\n      swap1\n      pop\n      jump(tag_233)\n        /* \"contracts/RscUsdtEarn.sol\":7178:7204  if (_level == 2) return 18 */\n    tag_235:\n        /* \"contracts/RscUsdtEarn.sol\":7248:7249  3 */\n      0x03\n        /* \"contracts/RscUsdtEarn.sol\":7238:7244  _level */\n      dup3\n        /* \"contracts/RscUsdtEarn.sol\":7238:7249  _level == 3 */\n      sub\n        /* \"contracts/RscUsdtEarn.sol\":7234:7260  if (_level == 3) return 20 */\n      tag_236\n      jumpi\n        /* \"contracts/RscUsdtEarn.sol\":7258:7260  20 */\n      0x14\n        /* \"contracts/RscUsdtEarn.sol\":7251:7260  return 20 */\n      swap1\n      pop\n      jump(tag_233)\n        /* \"contracts/RscUsdtEarn.sol\":7234:7260  if (_level == 3) return 20 */\n    tag_236:\n        /* \"contracts/RscUsdtEarn.sol\":7304:7305  4 */\n      0x04\n        /* \"contracts/RscUsdtEarn.sol\":7294:7300  _level */\n      dup3\n        /* \"contracts/RscUsdtEarn.sol\":7294:7305  _level == 4 */\n      sub\n        /* \"contracts/RscUsdtEarn.sol\":7290:7316  if (_level == 4) return 22 */\n      tag_237\n      jumpi\n        /* \"contracts/RscUsdtEarn.sol\":7314:7316  22 */\n      0x16\n        /* \"contracts/RscUsdtEarn.sol\":7307:7316  return 22 */\n      swap1\n      pop\n      jump(tag_233)\n        /* \"contracts/RscUsdtEarn.sol\":7290:7316  if (_level == 4) return 22 */\n    tag_237:\n        /* \"contracts/RscUsdtEarn.sol\":7361:7362  5 */\n      0x05\n        /* \"contracts/RscUsdtEarn.sol\":7351:7357  _level */\n      dup3\n        /* \"contracts/RscUsdtEarn.sol\":7351:7362  _level == 5 */\n      sub\n        /* \"contracts/RscUsdtEarn.sol\":7347:7373  if (_level == 5) return 24 */\n      tag_238\n      jumpi\n        /* \"contracts/RscUsdtEarn.sol\":7371:7373  24 */\n      0x18\n        /* \"contracts/RscUsdtEarn.sol\":7364:7373  return 24 */\n      swap1\n      pop\n      jump(tag_233)\n        /* \"contracts/RscUsdtEarn.sol\":7347:7373  if (_level == 5) return 24 */\n    tag_238:\n        /* \"contracts/RscUsdtEarn.sol\":7411:7412  0 */\n      0x00\n        /* \"contracts/RscUsdtEarn.sol\":7404:7412  return 0 */\n      swap1\n      pop\n        /* \"contracts/RscUsdtEarn.sol\":7034:7420  function calculateLevelShare(uint256 _level) internal pure returns (uint256) {... */\n    tag_233:\n      swap2\n      swap1\n      pop\n      jump\t// out\n        /* \"contracts/RscUsdtEarn.sol\":6631:7026  function determineLevel(uint256 _referrals) internal pure returns (uint256) {... */\n    tag_176:\n        /* \"contracts/RscUsdtEarn.sol\":6698:6705  uint256 */\n      0x00\n        /* \"contracts/RscUsdtEarn.sol\":6736:6737  1 */\n      0x01\n        /* \"contracts/RscUsdtEarn.sol\":6722:6732  _referrals */\n      dup3\n        /* \"contracts/RscUsdtEarn.sol\":6722:6737  _referrals >= 1 */\n      lt\n      iszero\n        /* \"contracts/RscUsdtEarn.sol\":6722:6756  _referrals >= 1 && _referrals <= 9 */\n      dup1\n      iszero\n      tag_240\n      jumpi\n      pop\n        /* \"contracts/RscUsdtEarn.sol\":6755:6756  9 */\n      0x09\n        /* \"contracts/RscUsdtEarn.sol\":6741:6751  _referrals */\n      dup3\n        /* \"contracts/RscUsdtEarn.sol\":6741:6756  _referrals <= 9 */\n      gt\n      iszero\n        /* \"contracts/RscUsdtEarn.sol\":6722:6756  _referrals >= 1 && _referrals <= 9 */\n    tag_240:\n        /* \"contracts/RscUsdtEarn.sol\":6718:6766  if (_referrals >= 1 && _referrals <= 9) return 1 */\n      iszero\n      tag_241\n      jumpi\n        /* \"contracts/RscUsdtEarn.sol\":6765:6766  1 */\n      0x01\n        /* \"contracts/RscUsdtEarn.sol\":6758:6766  return 1 */\n      swap1\n      pop\n      jump(tag_239)\n        /* \"contracts/RscUsdtEarn.sol\":6718:6766  if (_referrals >= 1 && _referrals <= 9) return 1 */\n    tag_241:\n        /* \"contracts/RscUsdtEarn.sol\":6795:6797  10 */\n      0x0a\n        /* \"contracts/RscUsdtEarn.sol\":6781:6791  _referrals */\n      dup3\n        /* \"contracts/RscUsdtEarn.sol\":6781:6797  _referrals >= 10 */\n      lt\n      iszero\n        /* \"contracts/RscUsdtEarn.sol\":6781:6817  _referrals >= 10 && _referrals <= 99 */\n      dup1\n      iszero\n      tag_242\n      jumpi\n      pop\n        /* \"contracts/RscUsdtEarn.sol\":6815:6817  99 */\n      0x63\n        /* \"contracts/RscUsdtEarn.sol\":6801:6811  _referrals */\n      dup3\n        /* \"contracts/RscUsdtEarn.sol\":6801:6817  _referrals <= 99 */\n      gt\n      iszero\n        /* \"contracts/RscUsdtEarn.sol\":6781:6817  _referrals >= 10 && _referrals <= 99 */\n    tag_242:\n        /* \"contracts/RscUsdtEarn.sol\":6777:6827  if (_referrals >= 10 && _referrals <= 99) return 2 */\n      iszero\n      tag_243\n      jumpi\n        /* \"contracts/RscUsdtEarn.sol\":6826:6827  2 */\n      0x02\n        /* \"contracts/RscUsdtEarn.sol\":6819:6827  return 2 */\n      swap1\n      pop\n      jump(tag_239)\n        /* \"contracts/RscUsdtEarn.sol\":6777:6827  if (_referrals >= 10 && _referrals <= 99) return 2 */\n    tag_243:\n        /* \"contracts/RscUsdtEarn.sol\":6856:6859  100 */\n      0x64\n        /* \"contracts/RscUsdtEarn.sol\":6842:6852  _referrals */\n      dup3\n        /* \"contracts/RscUsdtEarn.sol\":6842:6859  _referrals >= 100 */\n      lt\n      iszero\n        /* \"contracts/RscUsdtEarn.sol\":6842:6880  _referrals >= 100 && _referrals <= 999 */\n      dup1\n      iszero\n      tag_244\n      jumpi\n      pop\n        /* \"contracts/RscUsdtEarn.sol\":6877:6880  999 */\n      0x03e7\n        /* \"contracts/RscUsdtEarn.sol\":6863:6873  _referrals */\n      dup3\n        /* \"contracts/RscUsdtEarn.sol\":6863:6880  _referrals <= 999 */\n      gt\n      iszero\n        /* \"contracts/RscUsdtEarn.sol\":6842:6880  _referrals >= 100 && _referrals <= 999 */\n    tag_244:\n        /* \"contracts/RscUsdtEarn.sol\":6838:6890  if (_referrals >= 100 && _referrals <= 999) return 3 */\n      iszero\n      tag_245\n      jumpi\n        /* \"contracts/RscUsdtEarn.sol\":6889:6890  3 */\n      0x03\n        /* \"contracts/RscUsdtEarn.sol\":6882:6890  return 3 */\n      swap1\n      pop\n      jump(tag_239)\n        /* \"contracts/RscUsdtEarn.sol\":6838:6890  if (_referrals >= 100 && _referrals <= 999) return 3 */\n    tag_245:\n        /* \"contracts/RscUsdtEarn.sol\":6919:6923  1000 */\n      0x03e8\n        /* \"contracts/RscUsdtEarn.sol\":6905:6915  _referrals */\n      dup3\n        /* \"contracts/RscUsdtEarn.sol\":6905:6923  _referrals >= 1000 */\n      lt\n      iszero\n        /* \"contracts/RscUsdtEarn.sol\":6905:6945  _referrals >= 1000 && _referrals <= 9999 */\n      dup1\n      iszero\n      tag_246\n      jumpi\n      pop\n        /* \"contracts/RscUsdtEarn.sol\":6941:6945  9999 */\n      0x270f\n        /* \"contracts/RscUsdtEarn.sol\":6927:6937  _referrals */\n      dup3\n        /* \"contracts/RscUsdtEarn.sol\":6927:6945  _referrals <= 9999 */\n      gt\n      iszero\n        /* \"contracts/RscUsdtEarn.sol\":6905:6945  _referrals >= 1000 && _referrals <= 9999 */\n    tag_246:\n        /* \"contracts/RscUsdtEarn.sol\":6901:6955  if (_referrals >= 1000 && _referrals <= 9999) return 4 */\n      iszero\n      tag_247\n      jumpi\n        /* \"contracts/RscUsdtEarn.sol\":6954:6955  4 */\n      0x04\n        /* \"contracts/RscUsdtEarn.sol\":6947:6955  return 4 */\n      swap1\n      pop\n      jump(tag_239)\n        /* \"contracts/RscUsdtEarn.sol\":6901:6955  if (_referrals >= 1000 && _referrals <= 9999) return 4 */\n    tag_247:\n        /* \"contracts/RscUsdtEarn.sol\":6984:6989  10000 */\n      0x2710\n        /* \"contracts/RscUsdtEarn.sol\":6970:6980  _referrals */\n      dup3\n        /* \"contracts/RscUsdtEarn.sol\":6970:6989  _referrals >= 10000 */\n      lt\n        /* \"contracts/RscUsdtEarn.sol\":6966:6999  if (_referrals >= 10000) return 5 */\n      tag_248\n      jumpi\n        /* \"contracts/RscUsdtEarn.sol\":6998:6999  5 */\n      0x05\n        /* \"contracts/RscUsdtEarn.sol\":6991:6999  return 5 */\n      swap1\n      pop\n      jump(tag_239)\n        /* \"contracts/RscUsdtEarn.sol\":6966:6999  if (_referrals >= 10000) return 5 */\n    tag_248:\n        /* \"contracts/RscUsdtEarn.sol\":7017:7018  0 */\n      0x00\n        /* \"contracts/RscUsdtEarn.sol\":7010:7018  return 0 */\n      swap1\n      pop\n        /* \"contracts/RscUsdtEarn.sol\":6631:7026  function determineLevel(uint256 _referrals) internal pure returns (uint256) {... */\n    tag_239:\n      swap2\n      swap1\n      pop\n      jump\t// out\n        /* \"contracts/RscUsdtEarn.sol\":7428:7967  function _removeUserFromLevel(address _user, uint256 _level) internal {... */\n    tag_179:\n        /* \"contracts/RscUsdtEarn.sol\":7571:7599  address[] storage levelUsers */\n      0x00\n        /* \"contracts/RscUsdtEarn.sol\":7602:7608  levels */\n      0x06\n        /* \"contracts/RscUsdtEarn.sol\":7602:7616  levels[_level] */\n      0x00\n        /* \"contracts/RscUsdtEarn.sol\":7609:7615  _level */\n      dup4\n        /* \"contracts/RscUsdtEarn.sol\":7602:7616  levels[_level] */\n      dup2\n      mstore\n      0x20\n      add\n      swap1\n      dup2\n      mstore\n      0x20\n      add\n      0x00\n      keccak256\n        /* \"contracts/RscUsdtEarn.sol\":7571:7616  address[] storage levelUsers = levels[_level] */\n      swap1\n      pop\n        /* \"contracts/RscUsdtEarn.sol\":7632:7641  uint256 i */\n      0x00\n        /* \"contracts/RscUsdtEarn.sol\":7627:7960  for (uint256 i = 0; i < levelUsers.length; i++) {... */\n    tag_250:\n        /* \"contracts/RscUsdtEarn.sol\":7651:7661  levelUsers */\n      dup2\n        /* \"contracts/RscUsdtEarn.sol\":7651:7668  levelUsers.length */\n      dup1\n      sload\n      swap1\n      pop\n        /* \"contracts/RscUsdtEarn.sol\":7647:7648  i */\n      dup2\n        /* \"contracts/RscUsdtEarn.sol\":7647:7668  i < levelUsers.length */\n      lt\n        /* \"contracts/RscUsdtEarn.sol\":7627:7960  for (uint256 i = 0; i < levelUsers.length; i++) {... */\n      iszero\n      tag_251\n      jumpi\n        /* \"contracts/RscUsdtEarn.sol\":7711:7716  _user */\n      dup4\n        /* \"contracts/RscUsdtEarn.sol\":7694:7716  levelUsers[i] == _user */\n      0xffffffffffffffffffffffffffffffffffffffff\n      and\n        /* \"contracts/RscUsdtEarn.sol\":7694:7704  levelUsers */\n      dup3\n        /* \"contracts/RscUsdtEarn.sol\":7705:7706  i */\n      dup3\n        /* \"contracts/RscUsdtEarn.sol\":7694:7707  levelUsers[i] */\n      dup2\n      sload\n      dup2\n      lt\n      tag_253\n      jumpi\n      tag_254\n      tag_137\n      jump\t// in\n    tag_254:\n    tag_253:\n      swap1\n      0x00\n      mstore\n      keccak256(0x00, 0x20)\n      add\n      0x00\n      swap1\n      sload\n      swap1\n      0x0100\n      exp\n      swap1\n      div\n      0xffffffffffffffffffffffffffffffffffffffff\n      and\n        /* \"contracts/RscUsdtEarn.sol\":7694:7716  levelUsers[i] == _user */\n      0xffffffffffffffffffffffffffffffffffffffff\n      and\n      sub\n        /* \"contracts/RscUsdtEarn.sol\":7690:7949  if (levelUsers[i] == _user) {... */\n      tag_256\n      jumpi\n        /* \"contracts/RscUsdtEarn.sol\":7841:7851  levelUsers */\n      dup2\n        /* \"contracts/RscUsdtEarn.sol\":7872:7873  1 */\n      0x01\n        /* \"contracts/RscUsdtEarn.sol\":7852:7862  levelUsers */\n      dup4\n        /* \"contracts/RscUsdtEarn.sol\":7852:7869  levelUsers.length */\n      dup1\n      sload\n      swap1\n      pop\n        /* \"contracts/RscUsdtEarn.sol\":7852:7873  levelUsers.length - 1 */\n      tag_257\n      swap2\n      swap1\n      tag_110\n      jump\t// in\n    tag_257:\n        /* \"contracts/RscUsdtEarn.sol\":7841:7874  levelUsers[levelUsers.length - 1] */\n      dup2\n      sload\n      dup2\n      lt\n      tag_258\n      jumpi\n      tag_259\n      tag_137\n      jump\t// in\n    tag_259:\n    tag_258:\n      swap1\n      0x00\n      mstore\n      keccak256(0x00, 0x20)\n      add\n      0x00\n      swap1\n      sload\n      swap1\n      0x0100\n      exp\n      swap1\n      div\n      0xffffffffffffffffffffffffffffffffffffffff\n      and\n        /* \"contracts/RscUsdtEarn.sol\":7825:7835  levelUsers */\n      dup3\n        /* \"contracts/RscUsdtEarn.sol\":7836:7837  i */\n      dup3\n        /* \"contracts/RscUsdtEarn.sol\":7825:7838  levelUsers[i] */\n      dup2\n      sload\n      dup2\n      lt\n      tag_261\n      jumpi\n      tag_262\n      tag_137\n      jump\t// in\n    tag_262:\n    tag_261:\n      swap1\n      0x00\n      mstore\n      keccak256(0x00, 0x20)\n      add\n      0x00\n        /* \"contracts/RscUsdtEarn.sol\":7825:7874  levelUsers[i] = levelUsers[levelUsers.length - 1] */\n      0x0100\n      exp\n      dup2\n      sload\n      dup2\n      0xffffffffffffffffffffffffffffffffffffffff\n      mul\n      not\n      and\n      swap1\n      dup4\n      0xffffffffffffffffffffffffffffffffffffffff\n      and\n      mul\n      or\n      swap1\n      sstore\n      pop\n        /* \"contracts/RscUsdtEarn.sol\":7893:7903  levelUsers */\n      dup2\n        /* \"contracts/RscUsdtEarn.sol\":7893:7909  levelUsers.pop() */\n      dup1\n      sload\n      dup1\n      tag_264\n      jumpi\n      tag_265\n      tag_266\n      jump\t// in\n    tag_265:\n    tag_264:\n      0x01\n      swap1\n      sub\n      dup2\n      dup2\n      swap1\n      0x00\n      mstore\n      keccak256(0x00, 0x20)\n      add\n      exp(0x0100, 0x00)\n      dup2\n      sload\n      swap1\n      0xffffffffffffffffffffffffffffffffffffffff\n      mul\n      not\n      and\n      swap1\n      sstore\n      swap1\n      sstore\n        /* \"contracts/RscUsdtEarn.sol\":7928:7933  break */\n      jump(tag_251)\n        /* \"contracts/RscUsdtEarn.sol\":7690:7949  if (levelUsers[i] == _user) {... */\n    tag_256:\n        /* \"contracts/RscUsdtEarn.sol\":7670:7673  i++ */\n      dup1\n      dup1\n      0x01\n      add\n      swap2\n      pop\n      pop\n        /* \"contracts/RscUsdtEarn.sol\":7627:7960  for (uint256 i = 0; i < levelUsers.length; i++) {... */\n      jump(tag_250)\n    tag_251:\n      pop\n        /* \"contracts/RscUsdtEarn.sol\":7498:7967  {... */\n      pop\n        /* \"contracts/RscUsdtEarn.sol\":7428:7967  function _removeUserFromLevel(address _user, uint256 _level) internal {... */\n      pop\n      pop\n      jump\t// out\n        /* \"contracts/RscUsdtEarn.sol\":4490:4765  function payReferralReward(address _referrer) internal {... */\n    tag_182:\n        /* \"contracts/RscUsdtEarn.sol\":4556:4570  uint256 reward */\n      0x00\n        /* \"contracts/RscUsdtEarn.sol\":4598:4601  100 */\n      0x64\n        /* \"contracts/RscUsdtEarn.sol\":4592:4594  50 */\n      0x32\n        /* \"contracts/RscUsdtEarn.sol\":4574:4589  registrationFee */\n      sload(0x02)\n        /* \"contracts/RscUsdtEarn.sol\":4574:4594  registrationFee * 50 */\n      tag_269\n      swap2\n      swap1\n      tag_106\n      jump\t// in\n    tag_269:\n        /* \"contracts/RscUsdtEarn.sol\":4573:4601  (registrationFee * 50) / 100 */\n      tag_270\n      swap2\n      swap1\n      tag_108\n      jump\t// in\n    tag_270:\n        /* \"contracts/RscUsdtEarn.sol\":4556:4601  uint256 reward = (registrationFee * 50) / 100 */\n      swap1\n      pop\n        /* \"contracts/RscUsdtEarn.sol\":4661:4667  reward */\n      dup1\n        /* \"contracts/RscUsdtEarn.sol\":4634:4639  users */\n      0x05\n        /* \"contracts/RscUsdtEarn.sol\":4634:4650  users[_referrer] */\n      0x00\n        /* \"contracts/RscUsdtEarn.sol\":4640:4649  _referrer */\n      dup5\n        /* \"contracts/RscUsdtEarn.sol\":4634:4650  users[_referrer] */\n      0xffffffffffffffffffffffffffffffffffffffff\n      and\n      0xffffffffffffffffffffffffffffffffffffffff\n      and\n      dup2\n      mstore\n      0x20\n      add\n      swap1\n      dup2\n      mstore\n      0x20\n      add\n      0x00\n      keccak256\n        /* \"contracts/RscUsdtEarn.sol\":4634:4657  users[_referrer].earned */\n      0x03\n      add\n      0x00\n        /* \"contracts/RscUsdtEarn.sol\":4634:4667  users[_referrer].earned += reward */\n      dup3\n      dup3\n      sload\n      tag_271\n      swap2\n      swap1\n      tag_139\n      jump\t// in\n    tag_271:\n      swap3\n      pop\n      pop\n      dup2\n      swap1\n      sstore\n      pop\n        /* \"contracts/RscUsdtEarn.sol\":4739:4748  _referrer */\n      dup2\n        /* \"contracts/RscUsdtEarn.sol\":4726:4757  ReferralPaid(_referrer, reward) */\n      0xffffffffffffffffffffffffffffffffffffffff\n      and\n      0x6292f4f27d8047af4537a4bd86906de0e2c880c20086f7f58b81eacfeb639126\n        /* \"contracts/RscUsdtEarn.sol\":4750:4756  reward */\n      dup3\n        /* \"contracts/RscUsdtEarn.sol\":4726:4757  ReferralPaid(_referrer, reward) */\n      mload(0x40)\n      tag_272\n      swap2\n      swap1\n      tag_24\n      jump\t// in\n    tag_272:\n      mload(0x40)\n      dup1\n      swap2\n      sub\n      swap1\n      log2\n        /* \"contracts/RscUsdtEarn.sol\":4545:4765  {... */\n      pop\n        /* \"contracts/RscUsdtEarn.sol\":4490:4765  function payReferralReward(address _referrer) internal {... */\n      pop\n      jump\t// out\n        /* \"#utility.yul\":7:84   */\n    tag_273:\n        /* \"#utility.yul\":44:51   */\n      0x00\n        /* \"#utility.yul\":73:78   */\n      dup2\n        /* \"#utility.yul\":62:78   */\n      swap1\n      pop\n        /* \"#utility.yul\":7:84   */\n      swap2\n      swap1\n      pop\n      jump\t// out\n        /* \"#utility.yul\":90:208   */\n    tag_274:\n        /* \"#utility.yul\":177:201   */\n      tag_332\n        /* \"#utility.yul\":195:200   */\n      dup2\n        /* \"#utility.yul\":177:201   */\n      tag_273\n      jump\t// in\n    tag_332:\n        /* \"#utility.yul\":172:175   */\n      dup3\n        /* \"#utility.yul\":165:202   */\n      mstore\n        /* \"#utility.yul\":90:208   */\n      pop\n      pop\n      jump\t// out\n        /* \"#utility.yul\":214:436   */\n    tag_24:\n        /* \"#utility.yul\":307:311   */\n      0x00\n        /* \"#utility.yul\":345:347   */\n      0x20\n        /* \"#utility.yul\":334:343   */\n      dup3\n        /* \"#utility.yul\":330:348   */\n      add\n        /* \"#utility.yul\":322:348   */\n      swap1\n      pop\n        /* \"#utility.yul\":358:429   */\n      tag_334\n        /* \"#utility.yul\":426:427   */\n      0x00\n        /* \"#utility.yul\":415:424   */\n      dup4\n        /* \"#utility.yul\":411:428   */\n      add\n        /* \"#utility.yul\":402:408   */\n      dup5\n        /* \"#utility.yul\":358:429   */\n      tag_274\n      jump\t// in\n    tag_334:\n        /* \"#utility.yul\":214:436   */\n      swap3\n      swap2\n      pop\n      pop\n      jump\t// out\n        /* \"#utility.yul\":523:640   */\n    tag_276:\n        /* \"#utility.yul\":632:633   */\n      0x00\n        /* \"#utility.yul\":629:630   */\n      dup1\n        /* \"#utility.yul\":622:634   */\n      revert\n        /* \"#utility.yul\":769:891   */\n    tag_278:\n        /* \"#utility.yul\":842:866   */\n      tag_339\n        /* \"#utility.yul\":860:865   */\n      dup2\n        /* \"#utility.yul\":842:866   */\n      tag_273\n      jump\t// in\n    tag_339:\n        /* \"#utility.yul\":835:840   */\n      dup2\n        /* \"#utility.yul\":832:867   */\n      eq\n        /* \"#utility.yul\":822:885   */\n      tag_340\n      jumpi\n        /* \"#utility.yul\":881:882   */\n      0x00\n        /* \"#utility.yul\":878:879   */\n      dup1\n        /* \"#utility.yul\":871:883   */\n      revert\n        /* \"#utility.yul\":822:885   */\n    tag_340:\n        /* \"#utility.yul\":769:891   */\n      pop\n      jump\t// out\n        /* \"#utility.yul\":897:1036   */\n    tag_279:\n        /* \"#utility.yul\":943:948   */\n      0x00\n        /* \"#utility.yul\":981:987   */\n      dup2\n        /* \"#utility.yul\":968:988   */\n      calldataload\n        /* \"#utility.yul\":959:988   */\n      swap1\n      pop\n        /* \"#utility.yul\":997:1030   */\n      tag_342\n        /* \"#utility.yul\":1024:1029   */\n      dup2\n        /* \"#utility.yul\":997:1030   */\n      tag_278\n      jump\t// in\n    tag_342:\n        /* \"#utility.yul\":897:1036   */\n      swap3\n      swap2\n      pop\n      pop\n      jump\t// out\n        /* \"#utility.yul\":1042:1371   */\n    tag_32:\n        /* \"#utility.yul\":1101:1107   */\n      0x00\n        /* \"#utility.yul\":1150:1152   */\n      0x20\n        /* \"#utility.yul\":1138:1147   */\n      dup3\n        /* \"#utility.yul\":1129:1136   */\n      dup5\n        /* \"#utility.yul\":1125:1148   */\n      sub\n        /* \"#utility.yul\":1121:1153   */\n      slt\n        /* \"#utility.yul\":1118:1237   */\n      iszero\n      tag_344\n      jumpi\n        /* \"#utility.yul\":1156:1235   */\n      tag_345\n      tag_276\n      jump\t// in\n    tag_345:\n        /* \"#utility.yul\":1118:1237   */\n    tag_344:\n        /* \"#utility.yul\":1276:1277   */\n      0x00\n        /* \"#utility.yul\":1301:1354   */\n      tag_346\n        /* \"#utility.yul\":1346:1353   */\n      dup5\n        /* \"#utility.yul\":1337:1343   */\n      dup3\n        /* \"#utility.yul\":1326:1335   */\n      dup6\n        /* \"#utility.yul\":1322:1344   */\n      add\n        /* \"#utility.yul\":1301:1354   */\n      tag_279\n      jump\t// in\n    tag_346:\n        /* \"#utility.yul\":1291:1354   */\n      swap2\n      pop\n        /* \"#utility.yul\":1247:1364   */\n      pop\n        /* \"#utility.yul\":1042:1371   */\n      swap3\n      swap2\n      pop\n      pop\n      jump\t// out\n        /* \"#utility.yul\":1377:1503   */\n    tag_280:\n        /* \"#utility.yul\":1414:1421   */\n      0x00\n        /* \"#utility.yul\":1454:1496   */\n      0xffffffffffffffffffffffffffffffffffffffff\n        /* \"#utility.yul\":1447:1452   */\n      dup3\n        /* \"#utility.yul\":1443:1497   */\n      and\n        /* \"#utility.yul\":1432:1497   */\n      swap1\n      pop\n        /* \"#utility.yul\":1377:1503   */\n      swap2\n      swap1\n      pop\n      jump\t// out\n        /* \"#utility.yul\":1509:1605   */\n    tag_281:\n        /* \"#utility.yul\":1546:1553   */\n      0x00\n        /* \"#utility.yul\":1575:1599   */\n      tag_349\n        /* \"#utility.yul\":1593:1598   */\n      dup3\n        /* \"#utility.yul\":1575:1599   */\n      tag_280\n      jump\t// in\n    tag_349:\n        /* \"#utility.yul\":1564:1599   */\n      swap1\n      pop\n        /* \"#utility.yul\":1509:1605   */\n      swap2\n      swap1\n      pop\n      jump\t// out\n        /* \"#utility.yul\":1611:1729   */\n    tag_282:\n        /* \"#utility.yul\":1698:1722   */\n      tag_351\n        /* \"#utility.yul\":1716:1721   */\n      dup2\n        /* \"#utility.yul\":1698:1722   */\n      tag_281\n      jump\t// in\n    tag_351:\n        /* \"#utility.yul\":1693:1696   */\n      dup3\n        /* \"#utility.yul\":1686:1723   */\n      mstore\n        /* \"#utility.yul\":1611:1729   */\n      pop\n      pop\n      jump\t// out\n        /* \"#utility.yul\":1735:1957   */\n    tag_42:\n        /* \"#utility.yul\":1828:1832   */\n      0x00\n        /* \"#utility.yul\":1866:1868   */\n      0x20\n        /* \"#utility.yul\":1855:1864   */\n      dup3\n        /* \"#utility.yul\":1851:1869   */\n      add\n        /* \"#utility.yul\":1843:1869   */\n      swap1\n      pop\n        /* \"#utility.yul\":1879:1950   */\n      tag_353\n        /* \"#utility.yul\":1947:1948   */\n      0x00\n        /* \"#utility.yul\":1936:1945   */\n      dup4\n        /* \"#utility.yul\":1932:1949   */\n      add\n        /* \"#utility.yul\":1923:1929   */\n      dup5\n        /* \"#utility.yul\":1879:1950   */\n      tag_282\n      jump\t// in\n    tag_353:\n        /* \"#utility.yul\":1735:1957   */\n      swap3\n      swap2\n      pop\n      pop\n      jump\t// out\n        /* \"#utility.yul\":1963:2085   */\n    tag_283:\n        /* \"#utility.yul\":2036:2060   */\n      tag_355\n        /* \"#utility.yul\":2054:2059   */\n      dup2\n        /* \"#utility.yul\":2036:2060   */\n      tag_281\n      jump\t// in\n    tag_355:\n        /* \"#utility.yul\":2029:2034   */\n      dup2\n        /* \"#utility.yul\":2026:2061   */\n      eq\n        /* \"#utility.yul\":2016:2079   */\n      tag_356\n      jumpi\n        /* \"#utility.yul\":2075:2076   */\n      0x00\n        /* \"#utility.yul\":2072:2073   */\n      dup1\n        /* \"#utility.yul\":2065:2077   */\n      revert\n        /* \"#utility.yul\":2016:2079   */\n    tag_356:\n        /* \"#utility.yul\":1963:2085   */\n      pop\n      jump\t// out\n        /* \"#utility.yul\":2091:2230   */\n    tag_284:\n        /* \"#utility.yul\":2137:2142   */\n      0x00\n        /* \"#utility.yul\":2175:2181   */\n      dup2\n        /* \"#utility.yul\":2162:2182   */\n      calldataload\n        /* \"#utility.yul\":2153:2182   */\n      swap1\n      pop\n        /* \"#utility.yul\":2191:2224   */\n      tag_358\n        /* \"#utility.yul\":2218:2223   */\n      dup2\n        /* \"#utility.yul\":2191:2224   */\n      tag_283\n      jump\t// in\n    tag_358:\n        /* \"#utility.yul\":2091:2230   */\n      swap3\n      swap2\n      pop\n      pop\n      jump\t// out\n        /* \"#utility.yul\":2236:2565   */\n    tag_58:\n        /* \"#utility.yul\":2295:2301   */\n      0x00\n        /* \"#utility.yul\":2344:2346   */\n      0x20\n        /* \"#utility.yul\":2332:2341   */\n      dup3\n        /* \"#utility.yul\":2323:2330   */\n      dup5\n        /* \"#utility.yul\":2319:2342   */\n      sub\n        /* \"#utility.yul\":2315:2347   */\n      slt\n        /* \"#utility.yul\":2312:2431   */\n      iszero\n      tag_360\n      jumpi\n        /* \"#utility.yul\":2350:2429   */\n      tag_361\n      tag_276\n      jump\t// in\n    tag_361:\n        /* \"#utility.yul\":2312:2431   */\n    tag_360:\n        /* \"#utility.yul\":2470:2471   */\n      0x00\n        /* \"#utility.yul\":2495:2548   */\n      tag_362\n        /* \"#utility.yul\":2540:2547   */\n      dup5\n        /* \"#utility.yul\":2531:2537   */\n      dup3\n        /* \"#utility.yul\":2520:2529   */\n      dup6\n        /* \"#utility.yul\":2516:2538   */\n      add\n        /* \"#utility.yul\":2495:2548   */\n      tag_284\n      jump\t// in\n    tag_362:\n        /* \"#utility.yul\":2485:2548   */\n      swap2\n      pop\n        /* \"#utility.yul\":2441:2558   */\n      pop\n        /* \"#utility.yul\":2236:2565   */\n      swap3\n      swap2\n      pop\n      pop\n      jump\t// out\n        /* \"#utility.yul\":2571:2661   */\n    tag_285:\n        /* \"#utility.yul\":2605:2612   */\n      0x00\n        /* \"#utility.yul\":2648:2653   */\n      dup2\n        /* \"#utility.yul\":2641:2654   */\n      iszero\n        /* \"#utility.yul\":2634:2655   */\n      iszero\n        /* \"#utility.yul\":2623:2655   */\n      swap1\n      pop\n        /* \"#utility.yul\":2571:2661   */\n      swap2\n      swap1\n      pop\n      jump\t// out\n        /* \"#utility.yul\":2667:2776   */\n    tag_286:\n        /* \"#utility.yul\":2748:2769   */\n      tag_365\n        /* \"#utility.yul\":2763:2768   */\n      dup2\n        /* \"#utility.yul\":2748:2769   */\n      tag_285\n      jump\t// in\n    tag_365:\n        /* \"#utility.yul\":2743:2746   */\n      dup3\n        /* \"#utility.yul\":2736:2770   */\n      mstore\n        /* \"#utility.yul\":2667:2776   */\n      pop\n      pop\n      jump\t// out\n        /* \"#utility.yul\":2782:3434   */\n    tag_61:\n        /* \"#utility.yul\":2981:2985   */\n      0x00\n        /* \"#utility.yul\":3019:3022   */\n      0xa0\n        /* \"#utility.yul\":3008:3017   */\n      dup3\n        /* \"#utility.yul\":3004:3023   */\n      add\n        /* \"#utility.yul\":2996:3023   */\n      swap1\n      pop\n        /* \"#utility.yul\":3033:3104   */\n      tag_367\n        /* \"#utility.yul\":3101:3102   */\n      0x00\n        /* \"#utility.yul\":3090:3099   */\n      dup4\n        /* \"#utility.yul\":3086:3103   */\n      add\n        /* \"#utility.yul\":3077:3083   */\n      dup9\n        /* \"#utility.yul\":3033:3104   */\n      tag_282\n      jump\t// in\n    tag_367:\n        /* \"#utility.yul\":3114:3186   */\n      tag_368\n        /* \"#utility.yul\":3182:3184   */\n      0x20\n        /* \"#utility.yul\":3171:3180   */\n      dup4\n        /* \"#utility.yul\":3167:3185   */\n      add\n        /* \"#utility.yul\":3158:3164   */\n      dup8\n        /* \"#utility.yul\":3114:3186   */\n      tag_274\n      jump\t// in\n    tag_368:\n        /* \"#utility.yul\":3196:3268   */\n      tag_369\n        /* \"#utility.yul\":3264:3266   */\n      0x40\n        /* \"#utility.yul\":3253:3262   */\n      dup4\n        /* \"#utility.yul\":3249:3267   */\n      add\n        /* \"#utility.yul\":3240:3246   */\n      dup7\n        /* \"#utility.yul\":3196:3268   */\n      tag_274\n      jump\t// in\n    tag_369:\n        /* \"#utility.yul\":3278:3350   */\n      tag_370\n        /* \"#utility.yul\":3346:3348   */\n      0x60\n        /* \"#utility.yul\":3335:3344   */\n      dup4\n        /* \"#utility.yul\":3331:3349   */\n      add\n        /* \"#utility.yul\":3322:3328   */\n      dup6\n        /* \"#utility.yul\":3278:3350   */\n      tag_274\n      jump\t// in\n    tag_370:\n        /* \"#utility.yul\":3360:3427   */\n      tag_371\n        /* \"#utility.yul\":3422:3425   */\n      0x80\n        /* \"#utility.yul\":3411:3420   */\n      dup4\n        /* \"#utility.yul\":3407:3426   */\n      add\n        /* \"#utility.yul\":3398:3404   */\n      dup5\n        /* \"#utility.yul\":3360:3427   */\n      tag_286\n      jump\t// in\n    tag_371:\n        /* \"#utility.yul\":2782:3434   */\n      swap7\n      swap6\n      pop\n      pop\n      pop\n      pop\n      pop\n      pop\n      jump\t// out\n        /* \"#utility.yul\":3440:3914   */\n    tag_69:\n        /* \"#utility.yul\":3508:3514   */\n      0x00\n        /* \"#utility.yul\":3516:3522   */\n      dup1\n        /* \"#utility.yul\":3565:3567   */\n      0x40\n        /* \"#utility.yul\":3553:3562   */\n      dup4\n        /* \"#utility.yul\":3544:3551   */\n      dup6\n        /* \"#utility.yul\":3540:3563   */\n      sub\n        /* \"#utility.yul\":3536:3568   */\n      slt\n        /* \"#utility.yul\":3533:3652   */\n      iszero\n      tag_373\n      jumpi\n        /* \"#utility.yul\":3571:3650   */\n      tag_374\n      tag_276\n      jump\t// in\n    tag_374:\n        /* \"#utility.yul\":3533:3652   */\n    tag_373:\n        /* \"#utility.yul\":3691:3692   */\n      0x00\n        /* \"#utility.yul\":3716:3769   */\n      tag_375\n        /* \"#utility.yul\":3761:3768   */\n      dup6\n        /* \"#utility.yul\":3752:3758   */\n      dup3\n        /* \"#utility.yul\":3741:3750   */\n      dup7\n        /* \"#utility.yul\":3737:3759   */\n      add\n        /* \"#utility.yul\":3716:3769   */\n      tag_279\n      jump\t// in\n    tag_375:\n        /* \"#utility.yul\":3706:3769   */\n      swap3\n      pop\n        /* \"#utility.yul\":3662:3779   */\n      pop\n        /* \"#utility.yul\":3818:3820   */\n      0x20\n        /* \"#utility.yul\":3844:3897   */\n      tag_376\n        /* \"#utility.yul\":3889:3896   */\n      dup6\n        /* \"#utility.yul\":3880:3886   */\n      dup3\n        /* \"#utility.yul\":3869:3878   */\n      dup7\n        /* \"#utility.yul\":3865:3887   */\n      add\n        /* \"#utility.yul\":3844:3897   */\n      tag_279\n      jump\t// in\n    tag_376:\n        /* \"#utility.yul\":3834:3897   */\n      swap2\n      pop\n        /* \"#utility.yul\":3789:3907   */\n      pop\n        /* \"#utility.yul\":3440:3914   */\n      swap3\n      pop\n      swap3\n      swap1\n      pop\n      jump\t// out\n        /* \"#utility.yul\":3920:4034   */\n    tag_287:\n        /* \"#utility.yul\":3987:3993   */\n      0x00\n        /* \"#utility.yul\":4021:4026   */\n      dup2\n        /* \"#utility.yul\":4015:4027   */\n      mload\n        /* \"#utility.yul\":4005:4027   */\n      swap1\n      pop\n        /* \"#utility.yul\":3920:4034   */\n      swap2\n      swap1\n      pop\n      jump\t// out\n        /* \"#utility.yul\":4040:4224   */\n    tag_288:\n        /* \"#utility.yul\":4139:4150   */\n      0x00\n        /* \"#utility.yul\":4173:4179   */\n      dup3\n        /* \"#utility.yul\":4168:4171   */\n      dup3\n        /* \"#utility.yul\":4161:4180   */\n      mstore\n        /* \"#utility.yul\":4213:4217   */\n      0x20\n        /* \"#utility.yul\":4208:4211   */\n      dup3\n        /* \"#utility.yul\":4204:4218   */\n      add\n        /* \"#utility.yul\":4189:4218   */\n      swap1\n      pop\n        /* \"#utility.yul\":4040:4224   */\n      swap3\n      swap2\n      pop\n      pop\n      jump\t// out\n        /* \"#utility.yul\":4230:4362   */\n    tag_289:\n        /* \"#utility.yul\":4297:4301   */\n      0x00\n        /* \"#utility.yul\":4320:4323   */\n      dup2\n        /* \"#utility.yul\":4312:4323   */\n      swap1\n      pop\n        /* \"#utility.yul\":4350:4354   */\n      0x20\n        /* \"#utility.yul\":4345:4348   */\n      dup3\n        /* \"#utility.yul\":4341:4355   */\n      add\n        /* \"#utility.yul\":4333:4355   */\n      swap1\n      pop\n        /* \"#utility.yul\":4230:4362   */\n      swap2\n      swap1\n      pop\n      jump\t// out\n        /* \"#utility.yul\":4368:4476   */\n    tag_290:\n        /* \"#utility.yul\":4445:4469   */\n      tag_381\n        /* \"#utility.yul\":4463:4468   */\n      dup2\n        /* \"#utility.yul\":4445:4469   */\n      tag_281\n      jump\t// in\n    tag_381:\n        /* \"#utility.yul\":4440:4443   */\n      dup3\n        /* \"#utility.yul\":4433:4470   */\n      mstore\n        /* \"#utility.yul\":4368:4476   */\n      pop\n      pop\n      jump\t// out\n        /* \"#utility.yul\":4482:4661   */\n    tag_291:\n        /* \"#utility.yul\":4551:4561   */\n      0x00\n        /* \"#utility.yul\":4572:4618   */\n      tag_383\n        /* \"#utility.yul\":4614:4617   */\n      dup4\n        /* \"#utility.yul\":4606:4612   */\n      dup4\n        /* \"#utility.yul\":4572:4618   */\n      tag_290\n      jump\t// in\n    tag_383:\n        /* \"#utility.yul\":4650:4654   */\n      0x20\n        /* \"#utility.yul\":4645:4648   */\n      dup4\n        /* \"#utility.yul\":4641:4655   */\n      add\n        /* \"#utility.yul\":4627:4655   */\n      swap1\n      pop\n        /* \"#utility.yul\":4482:4661   */\n      swap3\n      swap2\n      pop\n      pop\n      jump\t// out\n        /* \"#utility.yul\":4667:4780   */\n    tag_292:\n        /* \"#utility.yul\":4737:4741   */\n      0x00\n        /* \"#utility.yul\":4769:4773   */\n      0x20\n        /* \"#utility.yul\":4764:4767   */\n      dup3\n        /* \"#utility.yul\":4760:4774   */\n      add\n        /* \"#utility.yul\":4752:4774   */\n      swap1\n      pop\n        /* \"#utility.yul\":4667:4780   */\n      swap2\n      swap1\n      pop\n      jump\t// out\n        /* \"#utility.yul\":4816:5548   */\n    tag_293:\n        /* \"#utility.yul\":4935:4938   */\n      0x00\n        /* \"#utility.yul\":4964:5018   */\n      tag_386\n        /* \"#utility.yul\":5012:5017   */\n      dup3\n        /* \"#utility.yul\":4964:5018   */\n      tag_287\n      jump\t// in\n    tag_386:\n        /* \"#utility.yul\":5034:5120   */\n      tag_387\n        /* \"#utility.yul\":5113:5119   */\n      dup2\n        /* \"#utility.yul\":5108:5111   */\n      dup6\n        /* \"#utility.yul\":5034:5120   */\n      tag_288\n      jump\t// in\n    tag_387:\n        /* \"#utility.yul\":5027:5120   */\n      swap4\n      pop\n        /* \"#utility.yul\":5144:5200   */\n      tag_388\n        /* \"#utility.yul\":5194:5199   */\n      dup4\n        /* \"#utility.yul\":5144:5200   */\n      tag_289\n      jump\t// in\n    tag_388:\n        /* \"#utility.yul\":5223:5230   */\n      dup1\n        /* \"#utility.yul\":5254:5255   */\n      0x00\n        /* \"#utility.yul\":5239:5523   */\n    tag_389:\n        /* \"#utility.yul\":5264:5270   */\n      dup4\n        /* \"#utility.yul\":5261:5262   */\n      dup2\n        /* \"#utility.yul\":5258:5271   */\n      lt\n        /* \"#utility.yul\":5239:5523   */\n      iszero\n      tag_391\n      jumpi\n        /* \"#utility.yul\":5340:5346   */\n      dup2\n        /* \"#utility.yul\":5334:5347   */\n      mload\n        /* \"#utility.yul\":5367:5430   */\n      tag_392\n        /* \"#utility.yul\":5426:5429   */\n      dup9\n        /* \"#utility.yul\":5411:5424   */\n      dup3\n        /* \"#utility.yul\":5367:5430   */\n      tag_291\n      jump\t// in\n    tag_392:\n        /* \"#utility.yul\":5360:5430   */\n      swap8\n      pop\n        /* \"#utility.yul\":5453:5513   */\n      tag_393\n        /* \"#utility.yul\":5506:5512   */\n      dup4\n        /* \"#utility.yul\":5453:5513   */\n      tag_292\n      jump\t// in\n    tag_393:\n        /* \"#utility.yul\":5443:5513   */\n      swap3\n      pop\n        /* \"#utility.yul\":5299:5523   */\n      pop\n        /* \"#utility.yul\":5286:5287   */\n      0x01\n        /* \"#utility.yul\":5283:5284   */\n      dup2\n        /* \"#utility.yul\":5279:5288   */\n      add\n        /* \"#utility.yul\":5274:5288   */\n      swap1\n      pop\n        /* \"#utility.yul\":5239:5523   */\n      jump(tag_389)\n    tag_391:\n        /* \"#utility.yul\":5243:5257   */\n      pop\n        /* \"#utility.yul\":5539:5542   */\n      dup6\n        /* \"#utility.yul\":5532:5542   */\n      swap4\n      pop\n        /* \"#utility.yul\":4940:5548   */\n      pop\n      pop\n      pop\n        /* \"#utility.yul\":4816:5548   */\n      swap3\n      swap2\n      pop\n      pop\n      jump\t// out\n        /* \"#utility.yul\":5554:5927   */\n    tag_81:\n        /* \"#utility.yul\":5697:5701   */\n      0x00\n        /* \"#utility.yul\":5735:5737   */\n      0x20\n        /* \"#utility.yul\":5724:5733   */\n      dup3\n        /* \"#utility.yul\":5720:5738   */\n      add\n        /* \"#utility.yul\":5712:5738   */\n      swap1\n      pop\n        /* \"#utility.yul\":5784:5793   */\n      dup2\n        /* \"#utility.yul\":5778:5782   */\n      dup2\n        /* \"#utility.yul\":5774:5794   */\n      sub\n        /* \"#utility.yul\":5770:5771   */\n      0x00\n        /* \"#utility.yul\":5759:5768   */\n      dup4\n        /* \"#utility.yul\":5755:5772   */\n      add\n        /* \"#utility.yul\":5748:5795   */\n      mstore\n        /* \"#utility.yul\":5812:5920   */\n      tag_395\n        /* \"#utility.yul\":5915:5919   */\n      dup2\n        /* \"#utility.yul\":5906:5912   */\n      dup5\n        /* \"#utility.yul\":5812:5920   */\n      tag_293\n      jump\t// in\n    tag_395:\n        /* \"#utility.yul\":5804:5920   */\n      swap1\n      pop\n        /* \"#utility.yul\":5554:5927   */\n      swap3\n      swap2\n      pop\n      pop\n      jump\t// out\n        /* \"#utility.yul\":5933:6037   */\n    tag_294:\n        /* \"#utility.yul\":5978:5985   */\n      0x00\n        /* \"#utility.yul\":6007:6031   */\n      tag_397\n        /* \"#utility.yul\":6025:6030   */\n      dup3\n        /* \"#utility.yul\":6007:6031   */\n      tag_280\n      jump\t// in\n    tag_397:\n        /* \"#utility.yul\":5996:6031   */\n      swap1\n      pop\n        /* \"#utility.yul\":5933:6037   */\n      swap2\n      swap1\n      pop\n      jump\t// out\n        /* \"#utility.yul\":6043:6181   */\n    tag_295:\n        /* \"#utility.yul\":6124:6156   */\n      tag_399\n        /* \"#utility.yul\":6150:6155   */\n      dup2\n        /* \"#utility.yul\":6124:6156   */\n      tag_294\n      jump\t// in\n    tag_399:\n        /* \"#utility.yul\":6117:6122   */\n      dup2\n        /* \"#utility.yul\":6114:6157   */\n      eq\n        /* \"#utility.yul\":6104:6175   */\n      tag_400\n      jumpi\n        /* \"#utility.yul\":6171:6172   */\n      0x00\n        /* \"#utility.yul\":6168:6169   */\n      dup1\n        /* \"#utility.yul\":6161:6173   */\n      revert\n        /* \"#utility.yul\":6104:6175   */\n    tag_400:\n        /* \"#utility.yul\":6043:6181   */\n      pop\n      jump\t// out\n        /* \"#utility.yul\":6187:6342   */\n    tag_296:\n        /* \"#utility.yul\":6241:6246   */\n      0x00\n        /* \"#utility.yul\":6279:6285   */\n      dup2\n        /* \"#utility.yul\":6266:6286   */\n      calldataload\n        /* \"#utility.yul\":6257:6286   */\n      swap1\n      pop\n        /* \"#utility.yul\":6295:6336   */\n      tag_402\n        /* \"#utility.yul\":6330:6335   */\n      dup2\n        /* \"#utility.yul\":6295:6336   */\n      tag_295\n      jump\t// in\n    tag_402:\n        /* \"#utility.yul\":6187:6342   */\n      swap3\n      swap2\n      pop\n      pop\n      jump\t// out\n        /* \"#utility.yul\":6348:6838   */\n    tag_85:\n        /* \"#utility.yul\":6424:6430   */\n      0x00\n        /* \"#utility.yul\":6432:6438   */\n      dup1\n        /* \"#utility.yul\":6481:6483   */\n      0x40\n        /* \"#utility.yul\":6469:6478   */\n      dup4\n        /* \"#utility.yul\":6460:6467   */\n      dup6\n        /* \"#utility.yul\":6456:6479   */\n      sub\n        /* \"#utility.yul\":6452:6484   */\n      slt\n        /* \"#utility.yul\":6449:6568   */\n      iszero\n      tag_404\n      jumpi\n        /* \"#utility.yul\":6487:6566   */\n      tag_405\n      tag_276\n      jump\t// in\n    tag_405:\n        /* \"#utility.yul\":6449:6568   */\n    tag_404:\n        /* \"#utility.yul\":6607:6608   */\n      0x00\n        /* \"#utility.yul\":6632:6693   */\n      tag_406\n        /* \"#utility.yul\":6685:6692   */\n      dup6\n        /* \"#utility.yul\":6676:6682   */\n      dup3\n        /* \"#utility.yul\":6665:6674   */\n      dup7\n        /* \"#utility.yul\":6661:6683   */\n      add\n        /* \"#utility.yul\":6632:6693   */\n      tag_296\n      jump\t// in\n    tag_406:\n        /* \"#utility.yul\":6622:6693   */\n      swap3\n      pop\n        /* \"#utility.yul\":6578:6703   */\n      pop\n        /* \"#utility.yul\":6742:6744   */\n      0x20\n        /* \"#utility.yul\":6768:6821   */\n      tag_407\n        /* \"#utility.yul\":6813:6820   */\n      dup6\n        /* \"#utility.yul\":6804:6810   */\n      dup3\n        /* \"#utility.yul\":6793:6802   */\n      dup7\n        /* \"#utility.yul\":6789:6811   */\n      add\n        /* \"#utility.yul\":6768:6821   */\n      tag_279\n      jump\t// in\n    tag_407:\n        /* \"#utility.yul\":6758:6821   */\n      swap2\n      pop\n        /* \"#utility.yul\":6713:6831   */\n      pop\n        /* \"#utility.yul\":6348:6838   */\n      swap3\n      pop\n      swap3\n      swap1\n      pop\n      jump\t// out\n        /* \"#utility.yul\":6844:7013   */\n    tag_297:\n        /* \"#utility.yul\":6928:6939   */\n      0x00\n        /* \"#utility.yul\":6962:6968   */\n      dup3\n        /* \"#utility.yul\":6957:6960   */\n      dup3\n        /* \"#utility.yul\":6950:6969   */\n      mstore\n        /* \"#utility.yul\":7002:7006   */\n      0x20\n        /* \"#utility.yul\":6997:7000   */\n      dup3\n        /* \"#utility.yul\":6993:7007   */\n      add\n        /* \"#utility.yul\":6978:7007   */\n      swap1\n      pop\n        /* \"#utility.yul\":6844:7013   */\n      swap3\n      swap2\n      pop\n      pop\n      jump\t// out\n        /* \"#utility.yul\":7019:7183   */\n    tag_298:\n        /* \"#utility.yul\":7159:7175   */\n      0x4e6f7420617574686f72697a6564000000000000000000000000000000000000\n        /* \"#utility.yul\":7155:7156   */\n      0x00\n        /* \"#utility.yul\":7147:7153   */\n      dup3\n        /* \"#utility.yul\":7143:7157   */\n      add\n        /* \"#utility.yul\":7136:7176   */\n      mstore\n        /* \"#utility.yul\":7019:7183   */\n      pop\n      jump\t// out\n        /* \"#utility.yul\":7189:7555   */\n    tag_299:\n        /* \"#utility.yul\":7331:7334   */\n      0x00\n        /* \"#utility.yul\":7352:7419   */\n      tag_411\n        /* \"#utility.yul\":7416:7418   */\n      0x0e\n        /* \"#utility.yul\":7411:7414   */\n      dup4\n        /* \"#utility.yul\":7352:7419   */\n      tag_297\n      jump\t// in\n    tag_411:\n        /* \"#utility.yul\":7345:7419   */\n      swap2\n      pop\n        /* \"#utility.yul\":7428:7521   */\n      tag_412\n        /* \"#utility.yul\":7517:7520   */\n      dup3\n        /* \"#utility.yul\":7428:7521   */\n      tag_298\n      jump\t// in\n    tag_412:\n        /* \"#utility.yul\":7546:7548   */\n      0x20\n        /* \"#utility.yul\":7541:7544   */\n      dup3\n        /* \"#utility.yul\":7537:7549   */\n      add\n        /* \"#utility.yul\":7530:7549   */\n      swap1\n      pop\n        /* \"#utility.yul\":7189:7555   */\n      swap2\n      swap1\n      pop\n      jump\t// out\n        /* \"#utility.yul\":7561:7980   */\n    tag_103:\n        /* \"#utility.yul\":7727:7731   */\n      0x00\n        /* \"#utility.yul\":7765:7767   */\n      0x20\n        /* \"#utility.yul\":7754:7763   */\n      dup3\n        /* \"#utility.yul\":7750:7768   */\n      add\n        /* \"#utility.yul\":7742:7768   */\n      swap1\n      pop\n        /* \"#utility.yul\":7814:7823   */\n      dup2\n        /* \"#utility.yul\":7808:7812   */\n      dup2\n        /* \"#utility.yul\":7804:7824   */\n      sub\n        /* \"#utility.yul\":7800:7801   */\n      0x00\n        /* \"#utility.yul\":7789:7798   */\n      dup4\n        /* \"#utility.yul\":7785:7802   */\n      add\n        /* \"#utility.yul\":7778:7825   */\n      mstore\n        /* \"#utility.yul\":7842:7973   */\n      tag_414\n        /* \"#utility.yul\":7968:7972   */\n      dup2\n        /* \"#utility.yul\":7842:7973   */\n      tag_299\n      jump\t// in\n    tag_414:\n        /* \"#utility.yul\":7834:7973   */\n      swap1\n      pop\n        /* \"#utility.yul\":7561:7980   */\n      swap2\n      swap1\n      pop\n      jump\t// out\n        /* \"#utility.yul\":7986:8166   */\n    tag_300:\n        /* \"#utility.yul\":8034:8111   */\n      0x4e487b7100000000000000000000000000000000000000000000000000000000\n        /* \"#utility.yul\":8031:8032   */\n      0x00\n        /* \"#utility.yul\":8024:8112   */\n      mstore\n        /* \"#utility.yul\":8131:8135   */\n      0x11\n        /* \"#utility.yul\":8128:8129   */\n      0x04\n        /* \"#utility.yul\":8121:8136   */\n      mstore\n        /* \"#utility.yul\":8155:8159   */\n      0x24\n        /* \"#utility.yul\":8152:8153   */\n      0x00\n        /* \"#utility.yul\":8145:8160   */\n      revert\n        /* \"#utility.yul\":8172:8582   */\n    tag_106:\n        /* \"#utility.yul\":8212:8219   */\n      0x00\n        /* \"#utility.yul\":8235:8255   */\n      tag_417\n        /* \"#utility.yul\":8253:8254   */\n      dup3\n        /* \"#utility.yul\":8235:8255   */\n      tag_273\n      jump\t// in\n    tag_417:\n        /* \"#utility.yul\":8230:8255   */\n      swap2\n      pop\n        /* \"#utility.yul\":8269:8289   */\n      tag_418\n        /* \"#utility.yul\":8287:8288   */\n      dup4\n        /* \"#utility.yul\":8269:8289   */\n      tag_273\n      jump\t// in\n    tag_418:\n        /* \"#utility.yul\":8264:8289   */\n      swap3\n      pop\n        /* \"#utility.yul\":8324:8325   */\n      dup3\n        /* \"#utility.yul\":8321:8322   */\n      dup3\n        /* \"#utility.yul\":8317:8326   */\n      mul\n        /* \"#utility.yul\":8346:8376   */\n      tag_419\n        /* \"#utility.yul\":8364:8375   */\n      dup2\n        /* \"#utility.yul\":8346:8376   */\n      tag_273\n      jump\t// in\n    tag_419:\n        /* \"#utility.yul\":8335:8376   */\n      swap2\n      pop\n        /* \"#utility.yul\":8525:8526   */\n      dup3\n        /* \"#utility.yul\":8516:8523   */\n      dup3\n        /* \"#utility.yul\":8512:8527   */\n      div\n        /* \"#utility.yul\":8509:8510   */\n      dup5\n        /* \"#utility.yul\":8506:8528   */\n      eq\n        /* \"#utility.yul\":8486:8487   */\n      dup4\n        /* \"#utility.yul\":8479:8488   */\n      iszero\n        /* \"#utility.yul\":8459:8542   */\n      or\n        /* \"#utility.yul\":8436:8575   */\n      tag_420\n      jumpi\n        /* \"#utility.yul\":8555:8573   */\n      tag_421\n      tag_300\n      jump\t// in\n    tag_421:\n        /* \"#utility.yul\":8436:8575   */\n    tag_420:\n        /* \"#utility.yul\":8220:8582   */\n      pop\n        /* \"#utility.yul\":8172:8582   */\n      swap3\n      swap2\n      pop\n      pop\n      jump\t// out\n        /* \"#utility.yul\":8588:8768   */\n    tag_301:\n        /* \"#utility.yul\":8636:8713   */\n      0x4e487b7100000000000000000000000000000000000000000000000000000000\n        /* \"#utility.yul\":8633:8634   */\n      0x00\n        /* \"#utility.yul\":8626:8714   */\n      mstore\n        /* \"#utility.yul\":8733:8737   */\n      0x12\n        /* \"#utility.yul\":8730:8731   */\n      0x04\n        /* \"#utility.yul\":8723:8738   */\n      mstore\n        /* \"#utility.yul\":8757:8761   */\n      0x24\n        /* \"#utility.yul\":8754:8755   */\n      0x00\n        /* \"#utility.yul\":8747:8762   */\n      revert\n        /* \"#utility.yul\":8774:8959   */\n    tag_108:\n        /* \"#utility.yul\":8814:8815   */\n      0x00\n        /* \"#utility.yul\":8831:8851   */\n      tag_424\n        /* \"#utility.yul\":8849:8850   */\n      dup3\n        /* \"#utility.yul\":8831:8851   */\n      tag_273\n      jump\t// in\n    tag_424:\n        /* \"#utility.yul\":8826:8851   */\n      swap2\n      pop\n        /* \"#utility.yul\":8865:8885   */\n      tag_425\n        /* \"#utility.yul\":8883:8884   */\n      dup4\n        /* \"#utility.yul\":8865:8885   */\n      tag_273\n      jump\t// in\n    tag_425:\n        /* \"#utility.yul\":8860:8885   */\n      swap3\n      pop\n        /* \"#utility.yul\":8904:8905   */\n      dup3\n        /* \"#utility.yul\":8894:8929   */\n      tag_426\n      jumpi\n        /* \"#utility.yul\":8909:8927   */\n      tag_427\n      tag_301\n      jump\t// in\n    tag_427:\n        /* \"#utility.yul\":8894:8929   */\n    tag_426:\n        /* \"#utility.yul\":8951:8952   */\n      dup3\n        /* \"#utility.yul\":8948:8949   */\n      dup3\n        /* \"#utility.yul\":8944:8953   */\n      div\n        /* \"#utility.yul\":8939:8953   */\n      swap1\n      pop\n        /* \"#utility.yul\":8774:8959   */\n      swap3\n      swap2\n      pop\n      pop\n      jump\t// out\n        /* \"#utility.yul\":8965:9159   */\n    tag_110:\n        /* \"#utility.yul\":9005:9009   */\n      0x00\n        /* \"#utility.yul\":9025:9045   */\n      tag_429\n        /* \"#utility.yul\":9043:9044   */\n      dup3\n        /* \"#utility.yul\":9025:9045   */\n      tag_273\n      jump\t// in\n    tag_429:\n        /* \"#utility.yul\":9020:9045   */\n      swap2\n      pop\n        /* \"#utility.yul\":9059:9079   */\n      tag_430\n        /* \"#utility.yul\":9077:9078   */\n      dup4\n        /* \"#utility.yul\":9059:9079   */\n      tag_273\n      jump\t// in\n    tag_430:\n        /* \"#utility.yul\":9054:9079   */\n      swap3\n      pop\n        /* \"#utility.yul\":9103:9104   */\n      dup3\n        /* \"#utility.yul\":9100:9101   */\n      dup3\n        /* \"#utility.yul\":9096:9105   */\n      sub\n        /* \"#utility.yul\":9088:9105   */\n      swap1\n      pop\n        /* \"#utility.yul\":9127:9128   */\n      dup2\n        /* \"#utility.yul\":9121:9125   */\n      dup2\n        /* \"#utility.yul\":9118:9129   */\n      gt\n        /* \"#utility.yul\":9115:9152   */\n      iszero\n      tag_431\n      jumpi\n        /* \"#utility.yul\":9132:9150   */\n      tag_432\n      tag_300\n      jump\t// in\n    tag_432:\n        /* \"#utility.yul\":9115:9152   */\n    tag_431:\n        /* \"#utility.yul\":8965:9159   */\n      swap3\n      swap2\n      pop\n      pop\n      jump\t// out\n        /* \"#utility.yul\":9165:9497   */\n    tag_112:\n        /* \"#utility.yul\":9286:9290   */\n      0x00\n        /* \"#utility.yul\":9324:9326   */\n      0x40\n        /* \"#utility.yul\":9313:9322   */\n      dup3\n        /* \"#utility.yul\":9309:9327   */\n      add\n        /* \"#utility.yul\":9301:9327   */\n      swap1\n      pop\n        /* \"#utility.yul\":9337:9408   */\n      tag_434\n        /* \"#utility.yul\":9405:9406   */\n      0x00\n        /* \"#utility.yul\":9394:9403   */\n      dup4\n        /* \"#utility.yul\":9390:9407   */\n      add\n        /* \"#utility.yul\":9381:9387   */\n      dup6\n        /* \"#utility.yul\":9337:9408   */\n      tag_282\n      jump\t// in\n    tag_434:\n        /* \"#utility.yul\":9418:9490   */\n      tag_435\n        /* \"#utility.yul\":9486:9488   */\n      0x20\n        /* \"#utility.yul\":9475:9484   */\n      dup4\n        /* \"#utility.yul\":9471:9489   */\n      add\n        /* \"#utility.yul\":9462:9468   */\n      dup5\n        /* \"#utility.yul\":9418:9490   */\n      tag_274\n      jump\t// in\n    tag_435:\n        /* \"#utility.yul\":9165:9497   */\n      swap4\n      swap3\n      pop\n      pop\n      pop\n      jump\t// out\n        /* \"#utility.yul\":9503:9619   */\n    tag_302:\n        /* \"#utility.yul\":9573:9594   */\n      tag_437\n        /* \"#utility.yul\":9588:9593   */\n      dup2\n        /* \"#utility.yul\":9573:9594   */\n      tag_285\n      jump\t// in\n    tag_437:\n        /* \"#utility.yul\":9566:9571   */\n      dup2\n        /* \"#utility.yul\":9563:9595   */\n      eq\n        /* \"#utility.yul\":9553:9613   */\n      tag_438\n      jumpi\n        /* \"#utility.yul\":9609:9610   */\n      0x00\n        /* \"#utility.yul\":9606:9607   */\n      dup1\n        /* \"#utility.yul\":9599:9611   */\n      revert\n        /* \"#utility.yul\":9553:9613   */\n    tag_438:\n        /* \"#utility.yul\":9503:9619   */\n      pop\n      jump\t// out\n        /* \"#utility.yul\":9625:9762   */\n    tag_303:\n        /* \"#utility.yul\":9679:9684   */\n      0x00\n        /* \"#utility.yul\":9710:9716   */\n      dup2\n        /* \"#utility.yul\":9704:9717   */\n      mload\n        /* \"#utility.yul\":9695:9717   */\n      swap1\n      pop\n        /* \"#utility.yul\":9726:9756   */\n      tag_440\n        /* \"#utility.yul\":9750:9755   */\n      dup2\n        /* \"#utility.yul\":9726:9756   */\n      tag_302\n      jump\t// in\n    tag_440:\n        /* \"#utility.yul\":9625:9762   */\n      swap3\n      swap2\n      pop\n      pop\n      jump\t// out\n        /* \"#utility.yul\":9768:10113   */\n    tag_116:\n        /* \"#utility.yul\":9835:9841   */\n      0x00\n        /* \"#utility.yul\":9884:9886   */\n      0x20\n        /* \"#utility.yul\":9872:9881   */\n      dup3\n        /* \"#utility.yul\":9863:9870   */\n      dup5\n        /* \"#utility.yul\":9859:9882   */\n      sub\n        /* \"#utility.yul\":9855:9887   */\n      slt\n        /* \"#utility.yul\":9852:9971   */\n      iszero\n      tag_442\n      jumpi\n        /* \"#utility.yul\":9890:9969   */\n      tag_443\n      tag_276\n      jump\t// in\n    tag_443:\n        /* \"#utility.yul\":9852:9971   */\n    tag_442:\n        /* \"#utility.yul\":10010:10011   */\n      0x00\n        /* \"#utility.yul\":10035:10096   */\n      tag_444\n        /* \"#utility.yul\":10088:10095   */\n      dup5\n        /* \"#utility.yul\":10079:10085   */\n      dup3\n        /* \"#utility.yul\":10068:10077   */\n      dup6\n        /* \"#utility.yul\":10064:10086   */\n      add\n        /* \"#utility.yul\":10035:10096   */\n      tag_303\n      jump\t// in\n    tag_444:\n        /* \"#utility.yul\":10025:10096   */\n      swap2\n      pop\n        /* \"#utility.yul\":9981:10106   */\n      pop\n        /* \"#utility.yul\":9768:10113   */\n      swap3\n      swap2\n      pop\n      pop\n      jump\t// out\n        /* \"#utility.yul\":10119:10289   */\n    tag_304:\n        /* \"#utility.yul\":10259:10281   */\n      0x4f776e6572207061796d656e74206661696c6564000000000000000000000000\n        /* \"#utility.yul\":10255:10256   */\n      0x00\n        /* \"#utility.yul\":10247:10253   */\n      dup3\n        /* \"#utility.yul\":10243:10257   */\n      add\n        /* \"#utility.yul\":10236:10282   */\n      mstore\n        /* \"#utility.yul\":10119:10289   */\n      pop\n      jump\t// out\n        /* \"#utility.yul\":10295:10661   */\n    tag_305:\n        /* \"#utility.yul\":10437:10440   */\n      0x00\n        /* \"#utility.yul\":10458:10525   */\n      tag_447\n        /* \"#utility.yul\":10522:10524   */\n      0x14\n        /* \"#utility.yul\":10517:10520   */\n      dup4\n        /* \"#utility.yul\":10458:10525   */\n      tag_297\n      jump\t// in\n    tag_447:\n        /* \"#utility.yul\":10451:10525   */\n      swap2\n      pop\n        /* \"#utility.yul\":10534:10627   */\n      tag_448\n        /* \"#utility.yul\":10623:10626   */\n      dup3\n        /* \"#utility.yul\":10534:10627   */\n      tag_304\n      jump\t// in\n    tag_448:\n        /* \"#utility.yul\":10652:10654   */\n      0x20\n        /* \"#utility.yul\":10647:10650   */\n      dup3\n        /* \"#utility.yul\":10643:10655   */\n      add\n        /* \"#utility.yul\":10636:10655   */\n      swap1\n      pop\n        /* \"#utility.yul\":10295:10661   */\n      swap2\n      swap1\n      pop\n      jump\t// out\n        /* \"#utility.yul\":10667:11086   */\n    tag_119:\n        /* \"#utility.yul\":10833:10837   */\n      0x00\n        /* \"#utility.yul\":10871:10873   */\n      0x20\n        /* \"#utility.yul\":10860:10869   */\n      dup3\n        /* \"#utility.yul\":10856:10874   */\n      add\n        /* \"#utility.yul\":10848:10874   */\n      swap1\n      pop\n        /* \"#utility.yul\":10920:10929   */\n      dup2\n        /* \"#utility.yul\":10914:10918   */\n      dup2\n        /* \"#utility.yul\":10910:10930   */\n      sub\n        /* \"#utility.yul\":10906:10907   */\n      0x00\n        /* \"#utility.yul\":10895:10904   */\n      dup4\n        /* \"#utility.yul\":10891:10908   */\n      add\n        /* \"#utility.yul\":10884:10931   */\n      mstore\n        /* \"#utility.yul\":10948:11079   */\n      tag_450\n        /* \"#utility.yul\":11074:11078   */\n      dup2\n        /* \"#utility.yul\":10948:11079   */\n      tag_305\n      jump\t// in\n    tag_450:\n        /* \"#utility.yul\":10940:11079   */\n      swap1\n      pop\n        /* \"#utility.yul\":10667:11086   */\n      swap2\n      swap1\n      pop\n      jump\t// out\n        /* \"#utility.yul\":11092:11272   */\n    tag_137:\n        /* \"#utility.yul\":11140:11217   */\n      0x4e487b7100000000000000000000000000000000000000000000000000000000\n        /* \"#utility.yul\":11137:11138   */\n      0x00\n        /* \"#utility.yul\":11130:11218   */\n      mstore\n        /* \"#utility.yul\":11237:11241   */\n      0x32\n        /* \"#utility.yul\":11234:11235   */\n      0x04\n        /* \"#utility.yul\":11227:11242   */\n      mstore\n        /* \"#utility.yul\":11261:11265   */\n      0x24\n        /* \"#utility.yul\":11258:11259   */\n      0x00\n        /* \"#utility.yul\":11251:11266   */\n      revert\n        /* \"#utility.yul\":11278:11469   */\n    tag_139:\n        /* \"#utility.yul\":11318:11321   */\n      0x00\n        /* \"#utility.yul\":11337:11357   */\n      tag_453\n        /* \"#utility.yul\":11355:11356   */\n      dup3\n        /* \"#utility.yul\":11337:11357   */\n      tag_273\n      jump\t// in\n    tag_453:\n        /* \"#utility.yul\":11332:11357   */\n      swap2\n      pop\n        /* \"#utility.yul\":11371:11391   */\n      tag_454\n        /* \"#utility.yul\":11389:11390   */\n      dup4\n        /* \"#utility.yul\":11371:11391   */\n      tag_273\n      jump\t// in\n    tag_454:\n        /* \"#utility.yul\":11366:11391   */\n      swap3\n      pop\n        /* \"#utility.yul\":11414:11415   */\n      dup3\n        /* \"#utility.yul\":11411:11412   */\n      dup3\n        /* \"#utility.yul\":11407:11416   */\n      add\n        /* \"#utility.yul\":11400:11416   */\n      swap1\n      pop\n        /* \"#utility.yul\":11435:11438   */\n      dup1\n        /* \"#utility.yul\":11432:11433   */\n      dup3\n        /* \"#utility.yul\":11429:11439   */\n      gt\n        /* \"#utility.yul\":11426:11462   */\n      iszero\n      tag_455\n      jumpi\n        /* \"#utility.yul\":11442:11460   */\n      tag_456\n      tag_300\n      jump\t// in\n    tag_456:\n        /* \"#utility.yul\":11426:11462   */\n    tag_455:\n        /* \"#utility.yul\":11278:11469   */\n      swap3\n      swap2\n      pop\n      pop\n      jump\t// out\n        /* \"#utility.yul\":11475:11708   */\n    tag_142:\n        /* \"#utility.yul\":11514:11517   */\n      0x00\n        /* \"#utility.yul\":11537:11561   */\n      tag_458\n        /* \"#utility.yul\":11555:11560   */\n      dup3\n        /* \"#utility.yul\":11537:11561   */\n      tag_273\n      jump\t// in\n    tag_458:\n        /* \"#utility.yul\":11528:11561   */\n      swap2\n      pop\n        /* \"#utility.yul\":11583:11649   */\n      0xffffffffffffffffffffffffffffffffffffffffffffffffffffffffffffffff\n        /* \"#utility.yul\":11576:11581   */\n      dup3\n        /* \"#utility.yul\":11573:11650   */\n      sub\n        /* \"#utility.yul\":11570:11673   */\n      tag_459\n      jumpi\n        /* \"#utility.yul\":11653:11671   */\n      tag_460\n      tag_300\n      jump\t// in\n    tag_460:\n        /* \"#utility.yul\":11570:11673   */\n    tag_459:\n        /* \"#utility.yul\":11700:11701   */\n      0x01\n        /* \"#utility.yul\":11693:11698   */\n      dup3\n        /* \"#utility.yul\":11689:11702   */\n      add\n        /* \"#utility.yul\":11682:11702   */\n      swap1\n      pop\n        /* \"#utility.yul\":11475:11708   */\n      swap2\n      swap1\n      pop\n      jump\t// out\n        /* \"#utility.yul\":11714:11942   */\n    tag_306:\n        /* \"#utility.yul\":11854:11888   */\n      0x576974686472617720616d6f756e74206d757374206265206772656174657220\n        /* \"#utility.yul\":11850:11851   */\n      0x00\n        /* \"#utility.yul\":11842:11848   */\n      dup3\n        /* \"#utility.yul\":11838:11852   */\n      add\n        /* \"#utility.yul\":11831:11889   */\n      mstore\n        /* \"#utility.yul\":11923:11934   */\n      0x7468616e207a65726f0000000000000000000000000000000000000000000000\n        /* \"#utility.yul\":11918:11920   */\n      0x20\n        /* \"#utility.yul\":11910:11916   */\n      dup3\n        /* \"#utility.yul\":11906:11921   */\n      add\n        /* \"#utility.yul\":11899:11935   */\n      mstore\n        /* \"#utility.yul\":11714:11942   */\n      pop\n      jump\t// out\n        /* \"#utility.yul\":11948:12314   */\n    tag_307:\n        /* \"#utility.yul\":12090:12093   */\n      0x00\n        /* \"#utility.yul\":12111:12178   */\n      tag_463\n        /* \"#utility.yul\":12175:12177   */\n      0x29\n        /* \"#utility.yul\":12170:12173   */\n      dup4\n        /* \"#utility.yul\":12111:12178   */\n      tag_297\n      jump\t// in\n    tag_463:\n        /* \"#utility.yul\":12104:12178   */\n      swap2\n      pop\n        /* \"#utility.yul\":12187:12280   */\n      tag_464\n        /* \"#utility.yul\":12276:12279   */\n      dup3\n        /* \"#utility.yul\":12187:12280   */\n      tag_306\n      jump\t// in\n    tag_464:\n        /* \"#utility.yul\":12305:12307   */\n      0x40\n        /* \"#utility.yul\":12300:12303   */\n      dup3\n        /* \"#utility.yul\":12296:12308   */\n      add\n        /* \"#utility.yul\":12289:12308   */\n      swap1\n      pop\n        /* \"#utility.yul\":11948:12314   */\n      swap2\n      swap1\n      pop\n      jump\t// out\n        /* \"#utility.yul\":12320:12739   */\n    tag_147:\n        /* \"#utility.yul\":12486:12490   */\n      0x00\n        /* \"#utility.yul\":12524:12526   */\n      0x20\n        /* \"#utility.yul\":12513:12522   */\n      dup3\n        /* \"#utility.yul\":12509:12527   */\n      add\n        /* \"#utility.yul\":12501:12527   */\n      swap1\n      pop\n        /* \"#utility.yul\":12573:12582   */\n      dup2\n        /* \"#utility.yul\":12567:12571   */\n      dup2\n        /* \"#utility.yul\":12563:12583   */\n      sub\n        /* \"#utility.yul\":12559:12560   */\n      0x00\n        /* \"#utility.yul\":12548:12557   */\n      dup4\n        /* \"#utility.yul\":12544:12561   */\n      add\n        /* \"#utility.yul\":12537:12584   */\n      mstore\n        /* \"#utility.yul\":12601:12732   */\n      tag_466\n        /* \"#utility.yul\":12727:12731   */\n      dup2\n        /* \"#utility.yul\":12601:12732   */\n      tag_307\n      jump\t// in\n    tag_466:\n        /* \"#utility.yul\":12593:12732   */\n      swap1\n      pop\n        /* \"#utility.yul\":12320:12739   */\n      swap2\n      swap1\n      pop\n      jump\t// out\n        /* \"#utility.yul\":12745:12922   */\n    tag_308:\n        /* \"#utility.yul\":12885:12914   */\n      0x496e73756666696369656e74206561726e656420726577617264730000000000\n        /* \"#utility.yul\":12881:12882   */\n      0x00\n        /* \"#utility.yul\":12873:12879   */\n      dup3\n        /* \"#utility.yul\":12869:12883   */\n      add\n        /* \"#utility.yul\":12862:12915   */\n      mstore\n        /* \"#utility.yul\":12745:12922   */\n      pop\n      jump\t// out\n        /* \"#utility.yul\":12928:13294   */\n    tag_309:\n        /* \"#utility.yul\":13070:13073   */\n      0x00\n        /* \"#utility.yul\":13091:13158   */\n      tag_469\n        /* \"#utility.yul\":13155:13157   */\n      0x1b\n        /* \"#utility.yul\":13150:13153   */\n      dup4\n        /* \"#utility.yul\":13091:13158   */\n      tag_297\n      jump\t// in\n    tag_469:\n        /* \"#utility.yul\":13084:13158   */\n      swap2\n      pop\n        /* \"#utility.yul\":13167:13260   */\n      tag_470\n        /* \"#utility.yul\":13256:13259   */\n      dup3\n        /* \"#utility.yul\":13167:13260   */\n      tag_308\n      jump\t// in\n    tag_470:\n        /* \"#utility.yul\":13285:13287   */\n      0x20\n        /* \"#utility.yul\":13280:13283   */\n      dup3\n        /* \"#utility.yul\":13276:13288   */\n      add\n        /* \"#utility.yul\":13269:13288   */\n      swap1\n      pop\n        /* \"#utility.yul\":12928:13294   */\n      swap2\n      swap1\n      pop\n      jump\t// out\n        /* \"#utility.yul\":13300:13719   */\n    tag_150:\n        /* \"#utility.yul\":13466:13470   */\n      0x00\n        /* \"#utility.yul\":13504:13506   */\n      0x20\n        /* \"#utility.yul\":13493:13502   */\n      dup3\n        /* \"#utility.yul\":13489:13507   */\n      add\n        /* \"#utility.yul\":13481:13507   */\n      swap1\n      pop\n        /* \"#utility.yul\":13553:13562   */\n      dup2\n        /* \"#utility.yul\":13547:13551   */\n      dup2\n        /* \"#utility.yul\":13543:13563   */\n      sub\n        /* \"#utility.yul\":13539:13540   */\n      0x00\n        /* \"#utility.yul\":13528:13537   */\n      dup4\n        /* \"#utility.yul\":13524:13541   */\n      add\n        /* \"#utility.yul\":13517:13564   */\n      mstore\n        /* \"#utility.yul\":13581:13712   */\n      tag_472\n        /* \"#utility.yul\":13707:13711   */\n      dup2\n        /* \"#utility.yul\":13581:13712   */\n      tag_309\n      jump\t// in\n    tag_472:\n        /* \"#utility.yul\":13573:13712   */\n      swap1\n      pop\n        /* \"#utility.yul\":13300:13719   */\n      swap2\n      swap1\n      pop\n      jump\t// out\n        /* \"#utility.yul\":13725:13892   */\n    tag_310:\n        /* \"#utility.yul\":13865:13884   */\n      0x5769746864726177616c206661696c6564000000000000000000000000000000\n        /* \"#utility.yul\":13861:13862   */\n      0x00\n        /* \"#utility.yul\":13853:13859   */\n      dup3\n        /* \"#utility.yul\":13849:13863   */\n      add\n        /* \"#utility.yul\":13842:13885   */\n      mstore\n        /* \"#utility.yul\":13725:13892   */\n      pop\n      jump\t// out\n        /* \"#utility.yul\":13898:14264   */\n    tag_311:\n        /* \"#utility.yul\":14040:14043   */\n      0x00\n        /* \"#utility.yul\":14061:14128   */\n      tag_475\n        /* \"#utility.yul\":14125:14127   */\n      0x11\n        /* \"#utility.yul\":14120:14123   */\n      dup4\n        /* \"#utility.yul\":14061:14128   */\n      tag_297\n      jump\t// in\n    tag_475:\n        /* \"#utility.yul\":14054:14128   */\n      swap2\n      pop\n        /* \"#utility.yul\":14137:14230   */\n      tag_476\n        /* \"#utility.yul\":14226:14229   */\n      dup3\n        /* \"#utility.yul\":14137:14230   */\n      tag_310\n      jump\t// in\n    tag_476:\n        /* \"#utility.yul\":14255:14257   */\n      0x20\n        /* \"#utility.yul\":14250:14253   */\n      dup3\n        /* \"#utility.yul\":14246:14258   */\n      add\n        /* \"#utility.yul\":14239:14258   */\n      swap1\n      pop\n        /* \"#utility.yul\":13898:14264   */\n      swap2\n      swap1\n      pop\n      jump\t// out\n        /* \"#utility.yul\":14270:14689   */\n    tag_158:\n        /* \"#utility.yul\":14436:14440   */\n      0x00\n        /* \"#utility.yul\":14474:14476   */\n      0x20\n        /* \"#utility.yul\":14463:14472   */\n      dup3\n        /* \"#utility.yul\":14459:14477   */\n      add\n        /* \"#utility.yul\":14451:14477   */\n      swap1\n      pop\n        /* \"#utility.yul\":14523:14532   */\n      dup2\n        /* \"#utility.yul\":14517:14521   */\n      dup2\n        /* \"#utility.yul\":14513:14533   */\n      sub\n        /* \"#utility.yul\":14509:14510   */\n      0x00\n        /* \"#utility.yul\":14498:14507   */\n      dup4\n        /* \"#utility.yul\":14494:14511   */\n      add\n        /* \"#utility.yul\":14487:14534   */\n      mstore\n        /* \"#utility.yul\":14551:14682   */\n      tag_478\n        /* \"#utility.yul\":14677:14681   */\n      dup2\n        /* \"#utility.yul\":14551:14682   */\n      tag_311\n      jump\t// in\n    tag_478:\n        /* \"#utility.yul\":14543:14682   */\n      swap1\n      pop\n        /* \"#utility.yul\":14270:14689   */\n      swap2\n      swap1\n      pop\n      jump\t// out\n        /* \"#utility.yul\":14695:14863   */\n    tag_312:\n        /* \"#utility.yul\":14835:14855   */\n      0x416c726561647920726567697374657265640000000000000000000000000000\n        /* \"#utility.yul\":14831:14832   */\n      0x00\n        /* \"#utility.yul\":14823:14829   */\n      dup3\n        /* \"#utility.yul\":14819:14833   */\n      add\n        /* \"#utility.yul\":14812:14856   */\n      mstore\n        /* \"#utility.yul\":14695:14863   */\n      pop\n      jump\t// out\n        /* \"#utility.yul\":14869:15235   */\n    tag_313:\n        /* \"#utility.yul\":15011:15014   */\n      0x00\n        /* \"#utility.yul\":15032:15099   */\n      tag_481\n        /* \"#utility.yul\":15096:15098   */\n      0x12\n        /* \"#utility.yul\":15091:15094   */\n      dup4\n        /* \"#utility.yul\":15032:15099   */\n      tag_297\n      jump\t// in\n    tag_481:\n        /* \"#utility.yul\":15025:15099   */\n      swap2\n      pop\n        /* \"#utility.yul\":15108:15201   */\n      tag_482\n        /* \"#utility.yul\":15197:15200   */\n      dup3\n        /* \"#utility.yul\":15108:15201   */\n      tag_312\n      jump\t// in\n    tag_482:\n        /* \"#utility.yul\":15226:15228   */\n      0x20\n        /* \"#utility.yul\":15221:15224   */\n      dup3\n        /* \"#utility.yul\":15217:15229   */\n      add\n        /* \"#utility.yul\":15210:15229   */\n      swap1\n      pop\n        /* \"#utility.yul\":14869:15235   */\n      swap2\n      swap1\n      pop\n      jump\t// out\n        /* \"#utility.yul\":15241:15660   */\n    tag_163:\n        /* \"#utility.yul\":15407:15411   */\n      0x00\n        /* \"#utility.yul\":15445:15447   */\n      0x20\n        /* \"#utility.yul\":15434:15443   */\n      dup3\n        /* \"#utility.yul\":15430:15448   */\n      add\n        /* \"#utility.yul\":15422:15448   */\n      swap1\n      pop\n        /* \"#utility.yul\":15494:15503   */\n      dup2\n        /* \"#utility.yul\":15488:15492   */\n      dup2\n        /* \"#utility.yul\":15484:15504   */\n      sub\n        /* \"#utility.yul\":15480:15481   */\n      0x00\n        /* \"#utility.yul\":15469:15478   */\n      dup4\n        /* \"#utility.yul\":15465:15482   */\n      add\n        /* \"#utility.yul\":15458:15505   */\n      mstore\n        /* \"#utility.yul\":15522:15653   */\n      tag_484\n        /* \"#utility.yul\":15648:15652   */\n      dup2\n        /* \"#utility.yul\":15522:15653   */\n      tag_313\n      jump\t// in\n    tag_484:\n        /* \"#utility.yul\":15514:15653   */\n      swap1\n      pop\n        /* \"#utility.yul\":15241:15660   */\n      swap2\n      swap1\n      pop\n      jump\t// out\n        /* \"#utility.yul\":15666:16108   */\n    tag_165:\n        /* \"#utility.yul\":15815:15819   */\n      0x00\n        /* \"#utility.yul\":15853:15855   */\n      0x60\n        /* \"#utility.yul\":15842:15851   */\n      dup3\n        /* \"#utility.yul\":15838:15856   */\n      add\n        /* \"#utility.yul\":15830:15856   */\n      swap1\n      pop\n        /* \"#utility.yul\":15866:15937   */\n      tag_486\n        /* \"#utility.yul\":15934:15935   */\n      0x00\n        /* \"#utility.yul\":15923:15932   */\n      dup4\n        /* \"#utility.yul\":15919:15936   */\n      add\n        /* \"#utility.yul\":15910:15916   */\n      dup7\n        /* \"#utility.yul\":15866:15937   */\n      tag_282\n      jump\t// in\n    tag_486:\n        /* \"#utility.yul\":15947:16019   */\n      tag_487\n        /* \"#utility.yul\":16015:16017   */\n      0x20\n        /* \"#utility.yul\":16004:16013   */\n      dup4\n        /* \"#utility.yul\":16000:16018   */\n      add\n        /* \"#utility.yul\":15991:15997   */\n      dup6\n        /* \"#utility.yul\":15947:16019   */\n      tag_282\n      jump\t// in\n    tag_487:\n        /* \"#utility.yul\":16029:16101   */\n      tag_488\n        /* \"#utility.yul\":16097:16099   */\n      0x40\n        /* \"#utility.yul\":16086:16095   */\n      dup4\n        /* \"#utility.yul\":16082:16100   */\n      add\n        /* \"#utility.yul\":16073:16079   */\n      dup5\n        /* \"#utility.yul\":16029:16101   */\n      tag_274\n      jump\t// in\n    tag_488:\n        /* \"#utility.yul\":15666:16108   */\n      swap5\n      swap4\n      pop\n      pop\n      pop\n      pop\n      jump\t// out\n        /* \"#utility.yul\":16114:16278   */\n    tag_314:\n        /* \"#utility.yul\":16254:16270   */\n      0x5061796d656e74206661696c6564000000000000000000000000000000000000\n        /* \"#utility.yul\":16250:16251   */\n      0x00\n        /* \"#utility.yul\":16242:16248   */\n      dup3\n        /* \"#utility.yul\":16238:16252   */\n      add\n        /* \"#utility.yul\":16231:16271   */\n      mstore\n        /* \"#utility.yul\":16114:16278   */\n      pop\n      jump\t// out\n        /* \"#utility.yul\":16284:16650   */\n    tag_315:\n        /* \"#utility.yul\":16426:16429   */\n      0x00\n        /* \"#utility.yul\":16447:16514   */\n      tag_491\n        /* \"#utility.yul\":16511:16513   */\n      0x0e\n        /* \"#utility.yul\":16506:16509   */\n      dup4\n        /* \"#utility.yul\":16447:16514   */\n      tag_297\n      jump\t// in\n    tag_491:\n        /* \"#utility.yul\":16440:16514   */\n      swap2\n      pop\n        /* \"#utility.yul\":16523:16616   */\n      tag_492\n        /* \"#utility.yul\":16612:16615   */\n      dup3\n        /* \"#utility.yul\":16523:16616   */\n      tag_314\n      jump\t// in\n    tag_492:\n        /* \"#utility.yul\":16641:16643   */\n      0x20\n        /* \"#utility.yul\":16636:16639   */\n      dup3\n        /* \"#utility.yul\":16632:16644   */\n      add\n        /* \"#utility.yul\":16625:16644   */\n      swap1\n      pop\n        /* \"#utility.yul\":16284:16650   */\n      swap2\n      swap1\n      pop\n      jump\t// out\n        /* \"#utility.yul\":16656:17075   */\n    tag_171:\n        /* \"#utility.yul\":16822:16826   */\n      0x00\n        /* \"#utility.yul\":16860:16862   */\n      0x20\n        /* \"#utility.yul\":16849:16858   */\n      dup3\n        /* \"#utility.yul\":16845:16863   */\n      add\n        /* \"#utility.yul\":16837:16863   */\n      swap1\n      pop\n        /* \"#utility.yul\":16909:16918   */\n      dup2\n        /* \"#utility.yul\":16903:16907   */\n      dup2\n        /* \"#utility.yul\":16899:16919   */\n      sub\n        /* \"#utility.yul\":16895:16896   */\n      0x00\n        /* \"#utility.yul\":16884:16893   */\n      dup4\n        /* \"#utility.yul\":16880:16897   */\n      add\n        /* \"#utility.yul\":16873:16920   */\n      mstore\n        /* \"#utility.yul\":16937:17068   */\n      tag_494\n        /* \"#utility.yul\":17063:17067   */\n      dup2\n        /* \"#utility.yul\":16937:17068   */\n      tag_315\n      jump\t// in\n    tag_494:\n        /* \"#utility.yul\":16929:17068   */\n      swap1\n      pop\n        /* \"#utility.yul\":16656:17075   */\n      swap2\n      swap1\n      pop\n      jump\t// out\n        /* \"#utility.yul\":17081:17244   */\n    tag_316:\n        /* \"#utility.yul\":17221:17236   */\n      0x496e76616c6964206c6576656c00000000000000000000000000000000000000\n        /* \"#utility.yul\":17217:17218   */\n      0x00\n        /* \"#utility.yul\":17209:17215   */\n      dup3\n        /* \"#utility.yul\":17205:17219   */\n      add\n        /* \"#utility.yul\":17198:17237   */\n      mstore\n        /* \"#utility.yul\":17081:17244   */\n      pop\n      jump\t// out\n        /* \"#utility.yul\":17250:17616   */\n    tag_317:\n        /* \"#utility.yul\":17392:17395   */\n      0x00\n        /* \"#utility.yul\":17413:17480   */\n      tag_497\n        /* \"#utility.yul\":17477:17479   */\n      0x0d\n        /* \"#utility.yul\":17472:17475   */\n      dup4\n        /* \"#utility.yul\":17413:17480   */\n      tag_297\n      jump\t// in\n    tag_497:\n        /* \"#utility.yul\":17406:17480   */\n      swap2\n      pop\n        /* \"#utility.yul\":17489:17582   */\n      tag_498\n        /* \"#utility.yul\":17578:17581   */\n      dup3\n        /* \"#utility.yul\":17489:17582   */\n      tag_316\n      jump\t// in\n    tag_498:\n        /* \"#utility.yul\":17607:17609   */\n      0x20\n        /* \"#utility.yul\":17602:17605   */\n      dup3\n        /* \"#utility.yul\":17598:17610   */\n      add\n        /* \"#utility.yul\":17591:17610   */\n      swap1\n      pop\n        /* \"#utility.yul\":17250:17616   */\n      swap2\n      swap1\n      pop\n      jump\t// out\n        /* \"#utility.yul\":17622:18041   */\n    tag_193:\n        /* \"#utility.yul\":17788:17792   */\n      0x00\n        /* \"#utility.yul\":17826:17828   */\n      0x20\n        /* \"#utility.yul\":17815:17824   */\n      dup3\n        /* \"#utility.yul\":17811:17829   */\n      add\n        /* \"#utility.yul\":17803:17829   */\n      swap1\n      pop\n        /* \"#utility.yul\":17875:17884   */\n      dup2\n        /* \"#utility.yul\":17869:17873   */\n      dup2\n        /* \"#utility.yul\":17865:17885   */\n      sub\n        /* \"#utility.yul\":17861:17862   */\n      0x00\n        /* \"#utility.yul\":17850:17859   */\n      dup4\n        /* \"#utility.yul\":17846:17863   */\n      add\n        /* \"#utility.yul\":17839:17886   */\n      mstore\n        /* \"#utility.yul\":17903:18034   */\n      tag_500\n        /* \"#utility.yul\":18029:18033   */\n      dup2\n        /* \"#utility.yul\":17903:18034   */\n      tag_317\n      jump\t// in\n    tag_500:\n        /* \"#utility.yul\":17895:18034   */\n      swap1\n      pop\n        /* \"#utility.yul\":17622:18041   */\n      swap2\n      swap1\n      pop\n      jump\t// out\n        /* \"#utility.yul\":18047:18223   */\n    tag_318:\n        /* \"#utility.yul\":18187:18215   */\n      0x496e73756666696369656e742045746865722062616c616e6365000000000000\n        /* \"#utility.yul\":18183:18184   */\n      0x00\n        /* \"#utility.yul\":18175:18181   */\n      dup3\n        /* \"#utility.yul\":18171:18185   */\n      add\n        /* \"#utility.yul\":18164:18216   */\n      mstore\n        /* \"#utility.yul\":18047:18223   */\n      pop\n      jump\t// out\n        /* \"#utility.yul\":18229:18595   */\n    tag_319:\n        /* \"#utility.yul\":18371:18374   */\n      0x00\n        /* \"#utility.yul\":18392:18459   */\n      tag_503\n        /* \"#utility.yul\":18456:18458   */\n      0x1a\n        /* \"#utility.yul\":18451:18454   */\n      dup4\n        /* \"#utility.yul\":18392:18459   */\n      tag_297\n      jump\t// in\n    tag_503:\n        /* \"#utility.yul\":18385:18459   */\n      swap2\n      pop\n        /* \"#utility.yul\":18468:18561   */\n      tag_504\n        /* \"#utility.yul\":18557:18560   */\n      dup3\n        /* \"#utility.yul\":18468:18561   */\n      tag_318\n      jump\t// in\n    tag_504:\n        /* \"#utility.yul\":18586:18588   */\n      0x20\n        /* \"#utility.yul\":18581:18584   */\n      dup3\n        /* \"#utility.yul\":18577:18589   */\n      add\n        /* \"#utility.yul\":18570:18589   */\n      swap1\n      pop\n        /* \"#utility.yul\":18229:18595   */\n      swap2\n      swap1\n      pop\n      jump\t// out\n        /* \"#utility.yul\":18601:19020   */\n    tag_202:\n        /* \"#utility.yul\":18767:18771   */\n      0x00\n        /* \"#utility.yul\":18805:18807   */\n      0x20\n        /* \"#utility.yul\":18794:18803   */\n      dup3\n        /* \"#utility.yul\":18790:18808   */\n      add\n        /* \"#utility.yul\":18782:18808   */\n      swap1\n      pop\n        /* \"#utility.yul\":18854:18863   */\n      dup2\n        /* \"#utility.yul\":18848:18852   */\n      dup2\n        /* \"#utility.yul\":18844:18864   */\n      sub\n        /* \"#utility.yul\":18840:18841   */\n      0x00\n        /* \"#utility.yul\":18829:18838   */\n      dup4\n        /* \"#utility.yul\":18825:18842   */\n      add\n        /* \"#utility.yul\":18818:18865   */\n      mstore\n        /* \"#utility.yul\":18882:19013   */\n      tag_506\n        /* \"#utility.yul\":19008:19012   */\n      dup2\n        /* \"#utility.yul\":18882:19013   */\n      tag_319\n      jump\t// in\n    tag_506:\n        /* \"#utility.yul\":18874:19013   */\n      swap1\n      pop\n        /* \"#utility.yul\":18601:19020   */\n      swap2\n      swap1\n      pop\n      jump\t// out\n        /* \"#utility.yul\":19026:19173   */\n    tag_320:\n        /* \"#utility.yul\":19127:19138   */\n      0x00\n        /* \"#utility.yul\":19164:19167   */\n      dup2\n        /* \"#utility.yul\":19149:19167   */\n      swap1\n      pop\n        /* \"#utility.yul\":19026:19173   */\n      swap3\n      swap2\n      pop\n      pop\n      jump\t// out\n        /* \"#utility.yul\":19179:19293   */\n    tag_321:\n      pop\n      jump\t// out\n        /* \"#utility.yul\":19299:19697   */\n    tag_322:\n        /* \"#utility.yul\":19458:19461   */\n      0x00\n        /* \"#utility.yul\":19479:19562   */\n      tag_510\n        /* \"#utility.yul\":19560:19561   */\n      0x00\n        /* \"#utility.yul\":19555:19558   */\n      dup4\n        /* \"#utility.yul\":19479:19562   */\n      tag_320\n      jump\t// in\n    tag_510:\n        /* \"#utility.yul\":19472:19562   */\n      swap2\n      pop\n        /* \"#utility.yul\":19571:19664   */\n      tag_511\n        /* \"#utility.yul\":19660:19663   */\n      dup3\n        /* \"#utility.yul\":19571:19664   */\n      tag_321\n      jump\t// in\n    tag_511:\n        /* \"#utility.yul\":19689:19690   */\n      0x00\n        /* \"#utility.yul\":19684:19687   */\n      dup3\n        /* \"#utility.yul\":19680:19691   */\n      add\n        /* \"#utility.yul\":19673:19691   */\n      swap1\n      pop\n        /* \"#utility.yul\":19299:19697   */\n      swap2\n      swap1\n      pop\n      jump\t// out\n        /* \"#utility.yul\":19703:20082   */\n    tag_204:\n        /* \"#utility.yul\":19887:19890   */\n      0x00\n        /* \"#utility.yul\":19909:20056   */\n      tag_513\n        /* \"#utility.yul\":20052:20055   */\n      dup3\n        /* \"#utility.yul\":19909:20056   */\n      tag_322\n      jump\t// in\n    tag_513:\n        /* \"#utility.yul\":19902:20056   */\n      swap2\n      pop\n        /* \"#utility.yul\":20073:20076   */\n      dup2\n        /* \"#utility.yul\":20066:20076   */\n      swap1\n      pop\n        /* \"#utility.yul\":19703:20082   */\n      swap2\n      swap1\n      pop\n      jump\t// out\n        /* \"#utility.yul\":20088:20259   */\n    tag_323:\n        /* \"#utility.yul\":20228:20251   */\n      0x4574686572207472616e73666572206661696c65640000000000000000000000\n        /* \"#utility.yul\":20224:20225   */\n      0x00\n        /* \"#utility.yul\":20216:20222   */\n      dup3\n        /* \"#utility.yul\":20212:20226   */\n      add\n        /* \"#utility.yul\":20205:20252   */\n      mstore\n        /* \"#utility.yul\":20088:20259   */\n      pop\n      jump\t// out\n        /* \"#utility.yul\":20265:20631   */\n    tag_324:\n        /* \"#utility.yul\":20407:20410   */\n      0x00\n        /* \"#utility.yul\":20428:20495   */\n      tag_516\n        /* \"#utility.yul\":20492:20494   */\n      0x15\n        /* \"#utility.yul\":20487:20490   */\n      dup4\n        /* \"#utility.yul\":20428:20495   */\n      tag_297\n      jump\t// in\n    tag_516:\n        /* \"#utility.yul\":20421:20495   */\n      swap2\n      pop\n        /* \"#utility.yul\":20504:20597   */\n      tag_517\n        /* \"#utility.yul\":20593:20596   */\n      dup3\n        /* \"#utility.yul\":20504:20597   */\n      tag_323\n      jump\t// in\n    tag_517:\n        /* \"#utility.yul\":20622:20624   */\n      0x20\n        /* \"#utility.yul\":20617:20620   */\n      dup3\n        /* \"#utility.yul\":20613:20625   */\n      add\n        /* \"#utility.yul\":20606:20625   */\n      swap1\n      pop\n        /* \"#utility.yul\":20265:20631   */\n      swap2\n      swap1\n      pop\n      jump\t// out\n        /* \"#utility.yul\":20637:21056   */\n    tag_210:\n        /* \"#utility.yul\":20803:20807   */\n      0x00\n        /* \"#utility.yul\":20841:20843   */\n      0x20\n        /* \"#utility.yul\":20830:20839   */\n      dup3\n        /* \"#utility.yul\":20826:20844   */\n      add\n        /* \"#utility.yul\":20818:20844   */\n      swap1\n      pop\n        /* \"#utility.yul\":20890:20899   */\n      dup2\n        /* \"#utility.yul\":20884:20888   */\n      dup2\n        /* \"#utility.yul\":20880:20900   */\n      sub\n        /* \"#utility.yul\":20876:20877   */\n      0x00\n        /* \"#utility.yul\":20865:20874   */\n      dup4\n        /* \"#utility.yul\":20861:20878   */\n      add\n        /* \"#utility.yul\":20854:20901   */\n      mstore\n        /* \"#utility.yul\":20918:21049   */\n      tag_519\n        /* \"#utility.yul\":21044:21048   */\n      dup2\n        /* \"#utility.yul\":20918:21049   */\n      tag_324\n      jump\t// in\n    tag_519:\n        /* \"#utility.yul\":20910:21049   */\n      swap1\n      pop\n        /* \"#utility.yul\":20637:21056   */\n      swap2\n      swap1\n      pop\n      jump\t// out\n        /* \"#utility.yul\":21062:21301   */\n    tag_325:\n        /* \"#utility.yul\":21202:21236   */\n      0x4d75737420696e76697465206174206c65617374206f6e6520706572736f6e20\n        /* \"#utility.yul\":21198:21199   */\n      0x00\n        /* \"#utility.yul\":21190:21196   */\n      dup3\n        /* \"#utility.yul\":21186:21200   */\n      add\n        /* \"#utility.yul\":21179:21237   */\n      mstore\n        /* \"#utility.yul\":21271:21293   */\n      0x746f206163746976617465206561726e696e6773000000000000000000000000\n        /* \"#utility.yul\":21266:21268   */\n      0x20\n        /* \"#utility.yul\":21258:21264   */\n      dup3\n        /* \"#utility.yul\":21254:21269   */\n      add\n        /* \"#utility.yul\":21247:21294   */\n      mstore\n        /* \"#utility.yul\":21062:21301   */\n      pop\n      jump\t// out\n        /* \"#utility.yul\":21307:21673   */\n    tag_326:\n        /* \"#utility.yul\":21449:21452   */\n      0x00\n        /* \"#utility.yul\":21470:21537   */\n      tag_522\n        /* \"#utility.yul\":21534:21536   */\n      0x34\n        /* \"#utility.yul\":21529:21532   */\n      dup4\n        /* \"#utility.yul\":21470:21537   */\n      tag_297\n      jump\t// in\n    tag_522:\n        /* \"#utility.yul\":21463:21537   */\n      swap2\n      pop\n        /* \"#utility.yul\":21546:21639   */\n      tag_523\n        /* \"#utility.yul\":21635:21638   */\n      dup3\n        /* \"#utility.yul\":21546:21639   */\n      tag_325\n      jump\t// in\n    tag_523:\n        /* \"#utility.yul\":21664:21666   */\n      0x40\n        /* \"#utility.yul\":21659:21662   */\n      dup3\n        /* \"#utility.yul\":21655:21667   */\n      add\n        /* \"#utility.yul\":21648:21667   */\n      swap1\n      pop\n        /* \"#utility.yul\":21307:21673   */\n      swap2\n      swap1\n      pop\n      jump\t// out\n        /* \"#utility.yul\":21679:22098   */\n    tag_218:\n        /* \"#utility.yul\":21845:21849   */\n      0x00\n        /* \"#utility.yul\":21883:21885   */\n      0x20\n        /* \"#utility.yul\":21872:21881   */\n      dup3\n        /* \"#utility.yul\":21868:21886   */\n      add\n        /* \"#utility.yul\":21860:21886   */\n      swap1\n      pop\n        /* \"#utility.yul\":21932:21941   */\n      dup2\n        /* \"#utility.yul\":21926:21930   */\n      dup2\n        /* \"#utility.yul\":21922:21942   */\n      sub\n        /* \"#utility.yul\":21918:21919   */\n      0x00\n        /* \"#utility.yul\":21907:21916   */\n      dup4\n        /* \"#utility.yul\":21903:21920   */\n      add\n        /* \"#utility.yul\":21896:21943   */\n      mstore\n        /* \"#utility.yul\":21960:22091   */\n      tag_525\n        /* \"#utility.yul\":22086:22090   */\n      dup2\n        /* \"#utility.yul\":21960:22091   */\n      tag_326\n      jump\t// in\n    tag_525:\n        /* \"#utility.yul\":21952:22091   */\n      swap1\n      pop\n        /* \"#utility.yul\":21679:22098   */\n      swap2\n      swap1\n      pop\n      jump\t// out\n        /* \"#utility.yul\":22104:22285   */\n    tag_327:\n        /* \"#utility.yul\":22244:22277   */\n      0x416c72656164792061742074686973206c6576656c206f722068696768657200\n        /* \"#utility.yul\":22240:22241   */\n      0x00\n        /* \"#utility.yul\":22232:22238   */\n      dup3\n        /* \"#utility.yul\":22228:22242   */\n      add\n        /* \"#utility.yul\":22221:22278   */\n      mstore\n        /* \"#utility.yul\":22104:22285   */\n      pop\n      jump\t// out\n        /* \"#utility.yul\":22291:22657   */\n    tag_328:\n        /* \"#utility.yul\":22433:22436   */\n      0x00\n        /* \"#utility.yul\":22454:22521   */\n      tag_528\n        /* \"#utility.yul\":22518:22520   */\n      0x1f\n        /* \"#utility.yul\":22513:22516   */\n      dup4\n        /* \"#utility.yul\":22454:22521   */\n      tag_297\n      jump\t// in\n    tag_528:\n        /* \"#utility.yul\":22447:22521   */\n      swap2\n      pop\n        /* \"#utility.yul\":22530:22623   */\n      tag_529\n        /* \"#utility.yul\":22619:22622   */\n      dup3\n        /* \"#utility.yul\":22530:22623   */\n      tag_327\n      jump\t// in\n    tag_529:\n        /* \"#utility.yul\":22648:22650   */\n      0x20\n        /* \"#utility.yul\":22643:22646   */\n      dup3\n        /* \"#utility.yul\":22639:22651   */\n      add\n        /* \"#utility.yul\":22632:22651   */\n      swap1\n      pop\n        /* \"#utility.yul\":22291:22657   */\n      swap2\n      swap1\n      pop\n      jump\t// out\n        /* \"#utility.yul\":22663:23082   */\n    tag_221:\n        /* \"#utility.yul\":22829:22833   */\n      0x00\n        /* \"#utility.yul\":22867:22869   */\n      0x20\n        /* \"#utility.yul\":22856:22865   */\n      dup3\n        /* \"#utility.yul\":22852:22870   */\n      add\n        /* \"#utility.yul\":22844:22870   */\n      swap1\n      pop\n        /* \"#utility.yul\":22916:22925   */\n      dup2\n        /* \"#utility.yul\":22910:22914   */\n      dup2\n        /* \"#utility.yul\":22906:22926   */\n      sub\n        /* \"#utility.yul\":22902:22903   */\n      0x00\n        /* \"#utility.yul\":22891:22900   */\n      dup4\n        /* \"#utility.yul\":22887:22904   */\n      add\n        /* \"#utility.yul\":22880:22927   */\n      mstore\n        /* \"#utility.yul\":22944:23075   */\n      tag_531\n        /* \"#utility.yul\":23070:23074   */\n      dup2\n        /* \"#utility.yul\":22944:23075   */\n      tag_328\n      jump\t// in\n    tag_531:\n        /* \"#utility.yul\":22936:23075   */\n      swap1\n      pop\n        /* \"#utility.yul\":22663:23082   */\n      swap2\n      swap1\n      pop\n      jump\t// out\n        /* \"#utility.yul\":23088:23268   */\n    tag_266:\n        /* \"#utility.yul\":23136:23213   */\n      0x4e487b7100000000000000000000000000000000000000000000000000000000\n        /* \"#utility.yul\":23133:23134   */\n      0x00\n        /* \"#utility.yul\":23126:23214   */\n      mstore\n        /* \"#utility.yul\":23233:23237   */\n      0x31\n        /* \"#utility.yul\":23230:23231   */\n      0x04\n        /* \"#utility.yul\":23223:23238   */\n      mstore\n        /* \"#utility.yul\":23257:23261   */\n      0x24\n        /* \"#utility.yul\":23254:23255   */\n      0x00\n        /* \"#utility.yul\":23247:23262   */\n      revert\n\n    auxdata: 0xa2646970667358221220959617e591e37b8248fd1907316543c2918f222ff354d8fead49df7d77b5d91c64736f6c634300081a0033\n}\n",
				"bytecode": {
					"linkReferences": {},
					"object": "60806040526729a2241af62c00006002556004600355348015610020575f80fd5b506040516127d23803806127d28339818101604052810190610042919061012c565b335f806101000a81548173ffffffffffffffffffffffffffffffffffffffff021916908373ffffffffffffffffffffffffffffffffffffffff1602179055508060015f6101000a81548173ffffffffffffffffffffffffffffffffffffffff021916908373ffffffffffffffffffffffffffffffffffffffff1602179055504260048190555050610157565b5f80fd5b5f73ffffffffffffffffffffffffffffffffffffffff82169050919050565b5f6100fb826100d2565b9050919050565b61010b816100f1565b8114610115575f80fd5b50565b5f8151905061012681610102565b92915050565b5f60208284031215610141576101406100ce565b5b5f61014e84828501610118565b91505092915050565b61266e806101645f395ff3fe6080604052600436106100eb575f3560e01c8063a87430ba11610089578063b894cb2411610058578063b894cb2414610334578063c1756a2c14610370578063e2a609b914610398578063e39f82eb146103c257610140565b8063a87430ba14610266578063ad884f69146102a6578063aefb3434146102ce578063b0cd9cff1461030a57610140565b80638da5cb5b116100c55780638da5cb5b146101c05780638f1c3151146101ea5780639342c8f4146102145780639d741e5d1461023c57610140565b806314c44e09146101445780631517f6631461016e5780636f4a2cd0146101aa57610140565b36610140573373ffffffffffffffffffffffffffffffffffffffff167f88a5966d370b9919b20f3e2c13ff65706f196a4e32cc2c12bf57088f88525874346040516101369190611b20565b60405180910390a2005b5f80fd5b34801561014f575f80fd5b506101586103ea565b6040516101659190611b20565b60405180910390f35b348015610179575f80fd5b50610194600480360381019061018f9190611b67565b6103f0565b6040516101a19190611b20565b60405180910390f35b3480156101b5575f80fd5b506101be61045f565b005b3480156101cb575f80fd5b506101d4610811565b6040516101e19190611bd1565b60405180910390f35b3480156101f5575f80fd5b506101fe610834565b60405161020b9190611b20565b60405180910390f35b34801561021f575f80fd5b5061023a60048036038101906102359190611b67565b61083a565b005b348015610247575f80fd5b50610250610a81565b60405161025d9190611bd1565b60405180910390f35b348015610271575f80fd5b5061028c60048036038101906102879190611c14565b610aa6565b60405161029d959493929190611c59565b60405180910390f35b3480156102b1575f80fd5b506102cc60048036038101906102c79190611c14565b610b03565b005b3480156102d9575f80fd5b506102f460048036038101906102ef9190611caa565b611103565b6040516103019190611bd1565b60405180910390f35b348015610315575f80fd5b5061031e61114b565b60405161032b9190611b20565b60405180910390f35b34801561033f575f80fd5b5061035a60048036038101906103559190611b67565b611151565b6040516103679190611d9f565b60405180910390f35b34801561037b575f80fd5b5061039660048036038101906103919190611dfa565b61123e565b005b3480156103a3575f80fd5b506103ac611409565b6040516103b99190611b20565b60405180910390f35b3480156103cd575f80fd5b506103e860048036038101906103e39190611b67565b61140f565b005b60025481565b5f6002820361040a576801a055690d9db80000905061045a565b6003820361042357681043561a8829300000905061045a565b6004820361043c5768a2a15d09519be00000905061045a565b600582036104565769065a4da25d3016c00000905061045a565b5f90505b919050565b5f8054906101000a900473ffffffffffffffffffffffffffffffffffffffff1673ffffffffffffffffffffffffffffffffffffffff163373ffffffffffffffffffffffffffffffffffffffff16146104ec576040517f08c379a00000000000000000000000000000000000000000000000000000000081526004016104e390611e92565b60405180910390fd5b5f60075490505f6064600354836105039190611edd565b61050d9190611f4b565b90508060075f8282546105209190611f7b565b9250508190555060015f9054906101000a900473ffffffffffffffffffffffffffffffffffffffff1673ffffffffffffffffffffffffffffffffffffffff1663a9059cbb5f8054906101000a900473ffffffffffffffffffffffffffffffffffffffff16836040518363ffffffff1660e01b81526004016105a2929190611fae565b6020604051808303815f875af11580156105be573d5f803e3d5ffd5b505050506040513d601f19601f820116820180604052508101906105e29190611fff565b610621576040517f08c379a000000000000000000000000000000000000000000000000000000000815260040161061890612074565b60405180910390fd5b5f818361062e9190611f7b565b90505f600190505b600581116107cd575f610648826117b7565b90505f606482856106599190611edd565b6106639190611f4b565b90505f60065f8581526020019081526020015f208054806020026020016040519081016040528092919081815260200182805480156106f457602002820191905f5260205f20905b815f9054906101000a900473ffffffffffffffffffffffffffffffffffffffff1673ffffffffffffffffffffffffffffffffffffffff16815260200190600101908083116106ab575b505050505090505f815111156107b7575f8151836107129190611f4b565b90505f5b82518110156107b4578160055f85848151811061073657610735612092565b5b602002602001015173ffffffffffffffffffffffffffffffffffffffff1673ffffffffffffffffffffffffffffffffffffffff1681526020019081526020015f206003015f82825461078891906120bf565b925050819055508160075f8282546107a09190611f7b565b925050819055508080600101915050610716565b50505b50505080806107c5906120f2565b915050610636565b50426004819055507f6d1c76d614228b523baa4dcd9539e2c713b54ff4ab3ff2d1627e7f6cd32be442836040516108049190611b20565b60405180910390a1505050565b5f8054906101000a900473ffffffffffffffffffffffffffffffffffffffff1681565b60035481565b5f811161087c576040517f08c379a0000000000000000000000000000000000000000000000000000000008152600401610873906121a9565b60405180910390fd5b8060055f3373ffffffffffffffffffffffffffffffffffffffff1673ffffffffffffffffffffffffffffffffffffffff1681526020019081526020015f206003015410156108ff576040517f08c379a00000000000000000000000000000000000000000000000000000000081526004016108f690612211565b60405180910390fd5b8060055f3373ffffffffffffffffffffffffffffffffffffffff1673ffffffffffffffffffffffffffffffffffffffff1681526020019081526020015f206003015f82825461094e9190611f7b565b9250508190555060015f9054906101000a900473ffffffffffffffffffffffffffffffffffffffff1673ffffffffffffffffffffffffffffffffffffffff1663a9059cbb33836040518363ffffffff1660e01b81526004016109b1929190611fae565b6020604051808303815f875af11580156109cd573d5f803e3d5ffd5b505050506040513d601f19601f820116820180604052508101906109f19190611fff565b610a30576040517f08c379a0000000000000000000000000000000000000000000000000000000008152600401610a2790612279565b60405180910390fd5b3373ffffffffffffffffffffffffffffffffffffffff167f7fcf532c15f0a6db0bd6d0e038bea71d30d808c7d98cb3bf7268a95bf5081b6582604051610a769190611b20565b60405180910390a250565b60015f9054906101000a900473ffffffffffffffffffffffffffffffffffffffff1681565b6005602052805f5260405f205f91509050805f015f9054906101000a900473ffffffffffffffffffffffffffffffffffffffff1690806001015490806002015490806003015490806004015f9054906101000a900460ff16905085565b5f73ffffffffffffffffffffffffffffffffffffffff1660055f3373ffffffffffffffffffffffffffffffffffffffff1673ffffffffffffffffffffffffffffffffffffffff1681526020019081526020015f205f015f9054906101000a900473ffffffffffffffffffffffffffffffffffffffff1673ffffffffffffffffffffffffffffffffffffffff1614610bcf576040517f08c379a0000000000000000000000000000000000000000000000000000000008152600401610bc6906122e1565b60405180910390fd5b60015f9054906101000a900473ffffffffffffffffffffffffffffffffffffffff1673ffffffffffffffffffffffffffffffffffffffff166323b872dd33306002546040518463ffffffff1660e01b8152600401610c2f939291906122ff565b6020604051808303815f875af1158015610c4b573d5f803e3d5ffd5b505050506040513d601f19601f82011682018060405250810190610c6f9190611fff565b610cae576040517f08c379a0000000000000000000000000000000000000000000000000000000008152600401610ca59061237e565b60405180910390fd5b5f73ffffffffffffffffffffffffffffffffffffffff168173ffffffffffffffffffffffffffffffffffffffff1614158015610d1657503373ffffffffffffffffffffffffffffffffffffffff168173ffffffffffffffffffffffffffffffffffffffff1614155b15610f655760055f8273ffffffffffffffffffffffffffffffffffffffff1673ffffffffffffffffffffffffffffffffffffffff1681526020019081526020015f206001015f815480929190610d6b906120f2565b9190505550600160055f8373ffffffffffffffffffffffffffffffffffffffff1673ffffffffffffffffffffffffffffffffffffffff1681526020019081526020015f206004015f6101000a81548160ff0219169083151502179055505f610e1260055f8473ffffffffffffffffffffffffffffffffffffffff1673ffffffffffffffffffffffffffffffffffffffff1681526020019081526020015f2060010154611816565b90508060055f8473ffffffffffffffffffffffffffffffffffffffff1673ffffffffffffffffffffffffffffffffffffffff1681526020019081526020015f206002015414610f5a57610ea58260055f8573ffffffffffffffffffffffffffffffffffffffff1673ffffffffffffffffffffffffffffffffffffffff1681526020019081526020015f20600201546118b5565b8060055f8473ffffffffffffffffffffffffffffffffffffffff1673ffffffffffffffffffffffffffffffffffffffff1681526020019081526020015f206002018190555060065f8281526020019081526020015f2082908060018154018082558091505060019003905f5260205f20015f9091909190916101000a81548173ffffffffffffffffffffffffffffffffffffffff021916908373ffffffffffffffffffffffffffffffffffffffff1602179055505b610f6382611a42565b505b8060055f3373ffffffffffffffffffffffffffffffffffffffff1673ffffffffffffffffffffffffffffffffffffffff1681526020019081526020015f205f015f6101000a81548173ffffffffffffffffffffffffffffffffffffffff021916908373ffffffffffffffffffffffffffffffffffffffff1602179055505f61102c60055f3373ffffffffffffffffffffffffffffffffffffffff1673ffffffffffffffffffffffffffffffffffffffff1681526020019081526020015f2060010154611816565b90508060055f3373ffffffffffffffffffffffffffffffffffffffff1673ffffffffffffffffffffffffffffffffffffffff1681526020019081526020015f2060020181905550606460326002546110849190611edd565b61108e9190611f4b565b60075f82825461109e91906120bf565b925050819055508173ffffffffffffffffffffffffffffffffffffffff163373ffffffffffffffffffffffffffffffffffffffff167f0a31ee9d46a828884b81003c8498156ea6aa15b9b54bdd0ef0b533d9eba57e5560405160405180910390a35050565b6006602052815f5260405f20818154811061111c575f80fd5b905f5260205f20015f915091509054906101000a900473ffffffffffffffffffffffffffffffffffffffff1681565b60045481565b606060018210158015611165575060058211155b6111a4576040517f08c379a000000000000000000000000000000000000000000000000000000000815260040161119b906123e6565b60405180910390fd5b60065f8381526020019081526020015f2080548060200260200160405190810160405280929190818152602001828054801561123257602002820191905f5260205f20905b815f9054906101000a900473ffffffffffffffffffffffffffffffffffffffff1673ffffffffffffffffffffffffffffffffffffffff16815260200190600101908083116111e9575b50505050509050919050565b5f8054906101000a900473ffffffffffffffffffffffffffffffffffffffff1673ffffffffffffffffffffffffffffffffffffffff163373ffffffffffffffffffffffffffffffffffffffff16146112cb576040517f08c379a00000000000000000000000000000000000000000000000000000000081526004016112c290611e92565b60405180910390fd5b8047101561130e576040517f08c379a00000000000000000000000000000000000000000000000000000000081526004016113059061244e565b60405180910390fd5b5f8273ffffffffffffffffffffffffffffffffffffffff168260405161133390612499565b5f6040518083038185875af1925050503d805f811461136d576040519150601f19603f3d011682016040523d82523d5f602084013e611372565b606091505b50509050806113b6576040517f08c379a00000000000000000000000000000000000000000000000000000000081526004016113ad906124f7565b60405180910390fd5b8273ffffffffffffffffffffffffffffffffffffffff167f510ffb4dcab972ae9d2007a58e13f1b0881776d23cd8f5cc32f8c5be2dbf70d2836040516113fc9190611b20565b60405180910390a2505050565b60075481565b60018110158015611421575060058111155b611460576040517f08c379a0000000000000000000000000000000000000000000000000000000008152600401611457906123e6565b60405180910390fd5b600160055f3373ffffffffffffffffffffffffffffffffffffffff1673ffffffffffffffffffffffffffffffffffffffff1681526020019081526020015f206001015410156114e4576040517f08c379a00000000000000000000000000000000000000000000000000000000081526004016114db90612585565b60405180910390fd5b8060055f3373ffffffffffffffffffffffffffffffffffffffff1673ffffffffffffffffffffffffffffffffffffffff1681526020019081526020015f206002015410611566576040517f08c379a000000000000000000000000000000000000000000000000000000000815260040161155d906125ed565b60405180910390fd5b5f611570826103f0565b905060015f9054906101000a900473ffffffffffffffffffffffffffffffffffffffff1673ffffffffffffffffffffffffffffffffffffffff166323b872dd3330846040518463ffffffff1660e01b81526004016115d0939291906122ff565b6020604051808303815f875af11580156115ec573d5f803e3d5ffd5b505050506040513d601f19601f820116820180604052508101906116109190611fff565b61164f576040517f08c379a00000000000000000000000000000000000000000000000000000000081526004016116469061237e565b60405180910390fd5b6116993360055f3373ffffffffffffffffffffffffffffffffffffffff1673ffffffffffffffffffffffffffffffffffffffff1681526020019081526020015f20600201546118b5565b8160055f3373ffffffffffffffffffffffffffffffffffffffff1673ffffffffffffffffffffffffffffffffffffffff1681526020019081526020015f206002018190555060065f8381526020019081526020015f2033908060018154018082558091505060019003905f5260205f20015f9091909190916101000a81548173ffffffffffffffffffffffffffffffffffffffff021916908373ffffffffffffffffffffffffffffffffffffffff1602179055508060075f82825461175e91906120bf565b925050819055503373ffffffffffffffffffffffffffffffffffffffff167f427898149ffa0bd0a638b73a8506cc040ca0034a36bdb547db4fb73fd0313c02836040516117ab9190611b20565b60405180910390a25050565b5f600182036117c95760109050611811565b600282036117da5760129050611811565b600382036117eb5760149050611811565b600482036117fc5760169050611811565b6005820361180d5760189050611811565b5f90505b919050565b5f60018210158015611829575060098211155b1561183757600190506118b0565b600a8210158015611849575060638211155b1561185757600290506118b0565b6064821015801561186a57506103e78211155b1561187857600390506118b0565b6103e8821015801561188c575061270f8211155b1561189a57600490506118b0565b61271082106118ac57600590506118b0565b5f90505b919050565b5f60065f8381526020019081526020015f2090505f5b8180549050811015611a3c578373ffffffffffffffffffffffffffffffffffffffff1682828154811061190157611900612092565b5b905f5260205f20015f9054906101000a900473ffffffffffffffffffffffffffffffffffffffff1673ffffffffffffffffffffffffffffffffffffffff1603611a2f5781600183805490506119569190611f7b565b8154811061196757611966612092565b5b905f5260205f20015f9054906101000a900473ffffffffffffffffffffffffffffffffffffffff168282815481106119a2576119a1612092565b5b905f5260205f20015f6101000a81548173ffffffffffffffffffffffffffffffffffffffff021916908373ffffffffffffffffffffffffffffffffffffffff160217905550818054806119f8576119f761260b565b5b600190038181905f5260205f20015f6101000a81549073ffffffffffffffffffffffffffffffffffffffff02191690559055611a3c565b80806001019150506118cb565b50505050565b5f60646032600254611a549190611edd565b611a5e9190611f4b565b90508060055f8473ffffffffffffffffffffffffffffffffffffffff1673ffffffffffffffffffffffffffffffffffffffff1681526020019081526020015f206003015f828254611aaf91906120bf565b925050819055508173ffffffffffffffffffffffffffffffffffffffff167f6292f4f27d8047af4537a4bd86906de0e2c880c20086f7f58b81eacfeb63912682604051611afc9190611b20565b60405180910390a25050565b5f819050919050565b611b1a81611b08565b82525050565b5f602082019050611b335f830184611b11565b92915050565b5f80fd5b611b4681611b08565b8114611b50575f80fd5b50565b5f81359050611b6181611b3d565b92915050565b5f60208284031215611b7c57611b7b611b39565b5b5f611b8984828501611b53565b91505092915050565b5f73ffffffffffffffffffffffffffffffffffffffff82169050919050565b5f611bbb82611b92565b9050919050565b611bcb81611bb1565b82525050565b5f602082019050611be45f830184611bc2565b92915050565b611bf381611bb1565b8114611bfd575f80fd5b50565b5f81359050611c0e81611bea565b92915050565b5f60208284031215611c2957611c28611b39565b5b5f611c3684828501611c00565b91505092915050565b5f8115159050919050565b611c5381611c3f565b82525050565b5f60a082019050611c6c5f830188611bc2565b611c796020830187611b11565b611c866040830186611b11565b611c936060830185611b11565b611ca06080830184611c4a565b9695505050505050565b5f8060408385031215611cc057611cbf611b39565b5b5f611ccd85828601611b53565b9250506020611cde85828601611b53565b9150509250929050565b5f81519050919050565b5f82825260208201905092915050565b5f819050602082019050919050565b611d1a81611bb1565b82525050565b5f611d2b8383611d11565b60208301905092915050565b5f602082019050919050565b5f611d4d82611ce8565b611d578185611cf2565b9350611d6283611d02565b805f5b83811015611d92578151611d798882611d20565b9750611d8483611d37565b925050600181019050611d65565b5085935050505092915050565b5f6020820190508181035f830152611db78184611d43565b905092915050565b5f611dc982611b92565b9050919050565b611dd981611dbf565b8114611de3575f80fd5b50565b5f81359050611df481611dd0565b92915050565b5f8060408385031215611e1057611e0f611b39565b5b5f611e1d85828601611de6565b9250506020611e2e85828601611b53565b9150509250929050565b5f82825260208201905092915050565b7f4e6f7420617574686f72697a65640000000000000000000000000000000000005f82015250565b5f611e7c600e83611e38565b9150611e8782611e48565b602082019050919050565b5f6020820190508181035f830152611ea981611e70565b9050919050565b7f4e487b71000000000000000000000000000000000000000000000000000000005f52601160045260245ffd5b5f611ee782611b08565b9150611ef283611b08565b9250828202611f0081611b08565b91508282048414831517611f1757611f16611eb0565b5b5092915050565b7f4e487b71000000000000000000000000000000000000000000000000000000005f52601260045260245ffd5b5f611f5582611b08565b9150611f6083611b08565b925082611f7057611f6f611f1e565b5b828204905092915050565b5f611f8582611b08565b9150611f9083611b08565b9250828203905081811115611fa857611fa7611eb0565b5b92915050565b5f604082019050611fc15f830185611bc2565b611fce6020830184611b11565b9392505050565b611fde81611c3f565b8114611fe8575f80fd5b50565b5f81519050611ff981611fd5565b92915050565b5f6020828403121561201457612013611b39565b5b5f61202184828501611feb565b91505092915050565b7f4f776e6572207061796d656e74206661696c65640000000000000000000000005f82015250565b5f61205e601483611e38565b91506120698261202a565b602082019050919050565b5f6020820190508181035f83015261208b81612052565b9050919050565b7f4e487b71000000000000000000000000000000000000000000000000000000005f52603260045260245ffd5b5f6120c982611b08565b91506120d483611b08565b92508282019050808211156120ec576120eb611eb0565b5b92915050565b5f6120fc82611b08565b91507fffffffffffffffffffffffffffffffffffffffffffffffffffffffffffffffff820361212e5761212d611eb0565b5b600182019050919050565b7f576974686472617720616d6f756e74206d7573742062652067726561746572205f8201527f7468616e207a65726f0000000000000000000000000000000000000000000000602082015250565b5f612193602983611e38565b915061219e82612139565b604082019050919050565b5f6020820190508181035f8301526121c081612187565b9050919050565b7f496e73756666696369656e74206561726e6564207265776172647300000000005f82015250565b5f6121fb601b83611e38565b9150612206826121c7565b602082019050919050565b5f6020820190508181035f830152612228816121ef565b9050919050565b7f5769746864726177616c206661696c65640000000000000000000000000000005f82015250565b5f612263601183611e38565b915061226e8261222f565b602082019050919050565b5f6020820190508181035f83015261229081612257565b9050919050565b7f416c7265616479207265676973746572656400000000000000000000000000005f82015250565b5f6122cb601283611e38565b91506122d682612297565b602082019050919050565b5f6020820190508181035f8301526122f8816122bf565b9050919050565b5f6060820190506123125f830186611bc2565b61231f6020830185611bc2565b61232c6040830184611b11565b949350505050565b7f5061796d656e74206661696c65640000000000000000000000000000000000005f82015250565b5f612368600e83611e38565b915061237382612334565b602082019050919050565b5f6020820190508181035f8301526123958161235c565b9050919050565b7f496e76616c6964206c6576656c000000000000000000000000000000000000005f82015250565b5f6123d0600d83611e38565b91506123db8261239c565b602082019050919050565b5f6020820190508181035f8301526123fd816123c4565b9050919050565b7f496e73756666696369656e742045746865722062616c616e63650000000000005f82015250565b5f612438601a83611e38565b915061244382612404565b602082019050919050565b5f6020820190508181035f8301526124658161242c565b9050919050565b5f81905092915050565b50565b5f6124845f8361246c565b915061248f82612476565b5f82019050919050565b5f6124a382612479565b9150819050919050565b7f4574686572207472616e73666572206661696c656400000000000000000000005f82015250565b5f6124e1601583611e38565b91506124ec826124ad565b602082019050919050565b5f6020820190508181035f83015261250e816124d5565b9050919050565b7f4d75737420696e76697465206174206c65617374206f6e6520706572736f6e205f8201527f746f206163746976617465206561726e696e6773000000000000000000000000602082015250565b5f61256f603483611e38565b915061257a82612515565b604082019050919050565b5f6020820190508181035f83015261259c81612563565b9050919050565b7f416c72656164792061742074686973206c6576656c206f7220686967686572005f82015250565b5f6125d7601f83611e38565b91506125e2826125a3565b602082019050919050565b5f6020820190508181035f830152612604816125cb565b9050919050565b7f4e487b71000000000000000000000000000000000000000000000000000000005f52603160045260245ffdfea2646970667358221220959617e591e37b8248fd1907316543c2918f222ff354d8fead49df7d77b5d91c64736f6c634300081a0033",
					"opcodes": "PUSH1 0x80 PUSH1 0x40 MSTORE PUSH8 0x29A2241AF62C0000 PUSH1 0x2 SSTORE PUSH1 0x4 PUSH1 0x3 SSTORE CALLVALUE DUP1 ISZERO PUSH2 0x20 JUMPI PUSH0 DUP1 REVERT JUMPDEST POP PUSH1 0x40 MLOAD PUSH2 0x27D2 CODESIZE SUB DUP1 PUSH2 0x27D2 DUP4 CODECOPY DUP2 DUP2 ADD PUSH1 0x40 MSTORE DUP2 ADD SWAP1 PUSH2 0x42 SWAP2 SWAP1 PUSH2 0x12C JUMP JUMPDEST CALLER PUSH0 DUP1 PUSH2 0x100 EXP DUP2 SLOAD DUP2 PUSH20 0xFFFFFFFFFFFFFFFFFFFFFFFFFFFFFFFFFFFFFFFF MUL NOT AND SWAP1 DUP4 PUSH20 0xFFFFFFFFFFFFFFFFFFFFFFFFFFFFFFFFFFFFFFFF AND MUL OR SWAP1 SSTORE POP DUP1 PUSH1 0x1 PUSH0 PUSH2 0x100 EXP DUP2 SLOAD DUP2 PUSH20 0xFFFFFFFFFFFFFFFFFFFFFFFFFFFFFFFFFFFFFFFF MUL NOT AND SWAP1 DUP4 PUSH20 0xFFFFFFFFFFFFFFFFFFFFFFFFFFFFFFFFFFFFFFFF AND MUL OR SWAP1 SSTORE POP TIMESTAMP PUSH1 0x4 DUP2 SWAP1 SSTORE POP POP PUSH2 0x157 JUMP JUMPDEST PUSH0 DUP1 REVERT JUMPDEST PUSH0 PUSH20 0xFFFFFFFFFFFFFFFFFFFFFFFFFFFFFFFFFFFFFFFF DUP3 AND SWAP1 POP SWAP2 SWAP1 POP JUMP JUMPDEST PUSH0 PUSH2 0xFB DUP3 PUSH2 0xD2 JUMP JUMPDEST SWAP1 POP SWAP2 SWAP1 POP JUMP JUMPDEST PUSH2 0x10B DUP2 PUSH2 0xF1 JUMP JUMPDEST DUP2 EQ PUSH2 0x115 JUMPI PUSH0 DUP1 REVERT JUMPDEST POP JUMP JUMPDEST PUSH0 DUP2 MLOAD SWAP1 POP PUSH2 0x126 DUP2 PUSH2 0x102 JUMP JUMPDEST SWAP3 SWAP2 POP POP JUMP JUMPDEST PUSH0 PUSH1 0x20 DUP3 DUP5 SUB SLT ISZERO PUSH2 0x141 JUMPI PUSH2 0x140 PUSH2 0xCE JUMP JUMPDEST JUMPDEST PUSH0 PUSH2 0x14E DUP5 DUP3 DUP6 ADD PUSH2 0x118 JUMP JUMPDEST SWAP2 POP POP SWAP3 SWAP2 POP POP JUMP JUMPDEST PUSH2 0x266E DUP1 PUSH2 0x164 PUSH0 CODECOPY PUSH0 RETURN INVALID PUSH1 0x80 PUSH1 0x40 MSTORE PUSH1 0x4 CALLDATASIZE LT PUSH2 0xEB JUMPI PUSH0 CALLDATALOAD PUSH1 0xE0 SHR DUP1 PUSH4 0xA87430BA GT PUSH2 0x89 JUMPI DUP1 PUSH4 0xB894CB24 GT PUSH2 0x58 JUMPI DUP1 PUSH4 0xB894CB24 EQ PUSH2 0x334 JUMPI DUP1 PUSH4 0xC1756A2C EQ PUSH2 0x370 JUMPI DUP1 PUSH4 0xE2A609B9 EQ PUSH2 0x398 JUMPI DUP1 PUSH4 0xE39F82EB EQ PUSH2 0x3C2 JUMPI PUSH2 0x140 JUMP JUMPDEST DUP1 PUSH4 0xA87430BA EQ PUSH2 0x266 JUMPI DUP1 PUSH4 0xAD884F69 EQ PUSH2 0x2A6 JUMPI DUP1 PUSH4 0xAEFB3434 EQ PUSH2 0x2CE JUMPI DUP1 PUSH4 0xB0CD9CFF EQ PUSH2 0x30A JUMPI PUSH2 0x140 JUMP JUMPDEST DUP1 PUSH4 0x8DA5CB5B GT PUSH2 0xC5 JUMPI DUP1 PUSH4 0x8DA5CB5B EQ PUSH2 0x1C0 JUMPI DUP1 PUSH4 0x8F1C3151 EQ PUSH2 0x1EA JUMPI DUP1 PUSH4 0x9342C8F4 EQ PUSH2 0x214 JUMPI DUP1 PUSH4 0x9D741E5D EQ PUSH2 0x23C JUMPI PUSH2 0x140 JUMP JUMPDEST DUP1 PUSH4 0x14C44E09 EQ PUSH2 0x144 JUMPI DUP1 PUSH4 0x1517F663 EQ PUSH2 0x16E JUMPI DUP1 PUSH4 0x6F4A2CD0 EQ PUSH2 0x1AA JUMPI PUSH2 0x140 JUMP JUMPDEST CALLDATASIZE PUSH2 0x140 JUMPI CALLER PUSH20 0xFFFFFFFFFFFFFFFFFFFFFFFFFFFFFFFFFFFFFFFF AND PUSH32 0x88A5966D370B9919B20F3E2C13FF65706F196A4E32CC2C12BF57088F88525874 CALLVALUE PUSH1 0x40 MLOAD PUSH2 0x136 SWAP2 SWAP1 PUSH2 0x1B20 JUMP JUMPDEST PUSH1 0x40 MLOAD DUP1 SWAP2 SUB SWAP1 LOG2 STOP JUMPDEST PUSH0 DUP1 REVERT JUMPDEST CALLVALUE DUP1 ISZERO PUSH2 0x14F JUMPI PUSH0 DUP1 REVERT JUMPDEST POP PUSH2 0x158 PUSH2 0x3EA JUMP JUMPDEST PUSH1 0x40 MLOAD PUSH2 0x165 SWAP2 SWAP1 PUSH2 0x1B20 JUMP JUMPDEST PUSH1 0x40 MLOAD DUP1 SWAP2 SUB SWAP1 RETURN JUMPDEST CALLVALUE DUP1 ISZERO PUSH2 0x179 JUMPI PUSH0 DUP1 REVERT JUMPDEST POP PUSH2 0x194 PUSH1 0x4 DUP1 CALLDATASIZE SUB DUP2 ADD SWAP1 PUSH2 0x18F SWAP2 SWAP1 PUSH2 0x1B67 JUMP JUMPDEST PUSH2 0x3F0 JUMP JUMPDEST PUSH1 0x40 MLOAD PUSH2 0x1A1 SWAP2 SWAP1 PUSH2 0x1B20 JUMP JUMPDEST PUSH1 0x40 MLOAD DUP1 SWAP2 SUB SWAP1 RETURN JUMPDEST CALLVALUE DUP1 ISZERO PUSH2 0x1B5 JUMPI PUSH0 DUP1 REVERT JUMPDEST POP PUSH2 0x1BE PUSH2 0x45F JUMP JUMPDEST STOP JUMPDEST CALLVALUE DUP1 ISZERO PUSH2 0x1CB JUMPI PUSH0 DUP1 REVERT JUMPDEST POP PUSH2 0x1D4 PUSH2 0x811 JUMP JUMPDEST PUSH1 0x40 MLOAD PUSH2 0x1E1 SWAP2 SWAP1 PUSH2 0x1BD1 JUMP JUMPDEST PUSH1 0x40 MLOAD DUP1 SWAP2 SUB SWAP1 RETURN JUMPDEST CALLVALUE DUP1 ISZERO PUSH2 0x1F5 JUMPI PUSH0 DUP1 REVERT JUMPDEST POP PUSH2 0x1FE PUSH2 0x834 JUMP JUMPDEST PUSH1 0x40 MLOAD PUSH2 0x20B SWAP2 SWAP1 PUSH2 0x1B20 JUMP JUMPDEST PUSH1 0x40 MLOAD DUP1 SWAP2 SUB SWAP1 RETURN JUMPDEST CALLVALUE DUP1 ISZERO PUSH2 0x21F JUMPI PUSH0 DUP1 REVERT JUMPDEST POP PUSH2 0x23A PUSH1 0x4 DUP1 CALLDATASIZE SUB DUP2 ADD SWAP1 PUSH2 0x235 SWAP2 SWAP1 PUSH2 0x1B67 JUMP JUMPDEST PUSH2 0x83A JUMP JUMPDEST STOP JUMPDEST CALLVALUE DUP1 ISZERO PUSH2 0x247 JUMPI PUSH0 DUP1 REVERT JUMPDEST POP PUSH2 0x250 PUSH2 0xA81 JUMP JUMPDEST PUSH1 0x40 MLOAD PUSH2 0x25D SWAP2 SWAP1 PUSH2 0x1BD1 JUMP JUMPDEST PUSH1 0x40 MLOAD DUP1 SWAP2 SUB SWAP1 RETURN JUMPDEST CALLVALUE DUP1 ISZERO PUSH2 0x271 JUMPI PUSH0 DUP1 REVERT JUMPDEST POP PUSH2 0x28C PUSH1 0x4 DUP1 CALLDATASIZE SUB DUP2 ADD SWAP1 PUSH2 0x287 SWAP2 SWAP1 PUSH2 0x1C14 JUMP JUMPDEST PUSH2 0xAA6 JUMP JUMPDEST PUSH1 0x40 MLOAD PUSH2 0x29D SWAP6 SWAP5 SWAP4 SWAP3 SWAP2 SWAP1 PUSH2 0x1C59 JUMP JUMPDEST PUSH1 0x40 MLOAD DUP1 SWAP2 SUB SWAP1 RETURN JUMPDEST CALLVALUE DUP1 ISZERO PUSH2 0x2B1 JUMPI PUSH0 DUP1 REVERT JUMPDEST POP PUSH2 0x2CC PUSH1 0x4 DUP1 CALLDATASIZE SUB DUP2 ADD SWAP1 PUSH2 0x2C7 SWAP2 SWAP1 PUSH2 0x1C14 JUMP JUMPDEST PUSH2 0xB03 JUMP JUMPDEST STOP JUMPDEST CALLVALUE DUP1 ISZERO PUSH2 0x2D9 JUMPI PUSH0 DUP1 REVERT JUMPDEST POP PUSH2 0x2F4 PUSH1 0x4 DUP1 CALLDATASIZE SUB DUP2 ADD SWAP1 PUSH2 0x2EF SWAP2 SWAP1 PUSH2 0x1CAA JUMP JUMPDEST PUSH2 0x1103 JUMP JUMPDEST PUSH1 0x40 MLOAD PUSH2 0x301 SWAP2 SWAP1 PUSH2 0x1BD1 JUMP JUMPDEST PUSH1 0x40 MLOAD DUP1 SWAP2 SUB SWAP1 RETURN JUMPDEST CALLVALUE DUP1 ISZERO PUSH2 0x315 JUMPI PUSH0 DUP1 REVERT JUMPDEST POP PUSH2 0x31E PUSH2 0x114B JUMP JUMPDEST PUSH1 0x40 MLOAD PUSH2 0x32B SWAP2 SWAP1 PUSH2 0x1B20 JUMP JUMPDEST PUSH1 0x40 MLOAD DUP1 SWAP2 SUB SWAP1 RETURN JUMPDEST CALLVALUE DUP1 ISZERO PUSH2 0x33F JUMPI PUSH0 DUP1 REVERT JUMPDEST POP PUSH2 0x35A PUSH1 0x4 DUP1 CALLDATASIZE SUB DUP2 ADD SWAP1 PUSH2 0x355 SWAP2 SWAP1 PUSH2 0x1B67 JUMP JUMPDEST PUSH2 0x1151 JUMP JUMPDEST PUSH1 0x40 MLOAD PUSH2 0x367 SWAP2 SWAP1 PUSH2 0x1D9F JUMP JUMPDEST PUSH1 0x40 MLOAD DUP1 SWAP2 SUB SWAP1 RETURN JUMPDEST CALLVALUE DUP1 ISZERO PUSH2 0x37B JUMPI PUSH0 DUP1 REVERT JUMPDEST POP PUSH2 0x396 PUSH1 0x4 DUP1 CALLDATASIZE SUB DUP2 ADD SWAP1 PUSH2 0x391 SWAP2 SWAP1 PUSH2 0x1DFA JUMP JUMPDEST PUSH2 0x123E JUMP JUMPDEST STOP JUMPDEST CALLVALUE DUP1 ISZERO PUSH2 0x3A3 JUMPI PUSH0 DUP1 REVERT JUMPDEST POP PUSH2 0x3AC PUSH2 0x1409 JUMP JUMPDEST PUSH1 0x40 MLOAD PUSH2 0x3B9 SWAP2 SWAP1 PUSH2 0x1B20 JUMP JUMPDEST PUSH1 0x40 MLOAD DUP1 SWAP2 SUB SWAP1 RETURN JUMPDEST CALLVALUE DUP1 ISZERO PUSH2 0x3CD JUMPI PUSH0 DUP1 REVERT JUMPDEST POP PUSH2 0x3E8 PUSH1 0x4 DUP1 CALLDATASIZE SUB DUP2 ADD SWAP1 PUSH2 0x3E3 SWAP2 SWAP1 PUSH2 0x1B67 JUMP JUMPDEST PUSH2 0x140F JUMP JUMPDEST STOP JUMPDEST PUSH1 0x2 SLOAD DUP2 JUMP JUMPDEST PUSH0 PUSH1 0x2 DUP3 SUB PUSH2 0x40A JUMPI PUSH9 0x1A055690D9DB80000 SWAP1 POP PUSH2 0x45A JUMP JUMPDEST PUSH1 0x3 DUP3 SUB PUSH2 0x423 JUMPI PUSH9 0x1043561A8829300000 SWAP1 POP PUSH2 0x45A JUMP JUMPDEST PUSH1 0x4 DUP3 SUB PUSH2 0x43C JUMPI PUSH9 0xA2A15D09519BE00000 SWAP1 POP PUSH2 0x45A JUMP JUMPDEST PUSH1 0x5 DUP3 SUB PUSH2 0x456 JUMPI PUSH10 0x65A4DA25D3016C00000 SWAP1 POP PUSH2 0x45A JUMP JUMPDEST PUSH0 SWAP1 POP JUMPDEST SWAP2 SWAP1 POP JUMP JUMPDEST PUSH0 DUP1 SLOAD SWAP1 PUSH2 0x100 EXP SWAP1 DIV PUSH20 0xFFFFFFFFFFFFFFFFFFFFFFFFFFFFFFFFFFFFFFFF AND PUSH20 0xFFFFFFFFFFFFFFFFFFFFFFFFFFFFFFFFFFFFFFFF AND CALLER PUSH20 0xFFFFFFFFFFFFFFFFFFFFFFFFFFFFFFFFFFFFFFFF AND EQ PUSH2 0x4EC JUMPI PUSH1 0x40 MLOAD PUSH32 0x8C379A000000000000000000000000000000000000000000000000000000000 DUP2 MSTORE PUSH1 0x4 ADD PUSH2 0x4E3 SWAP1 PUSH2 0x1E92 JUMP JUMPDEST PUSH1 0x40 MLOAD DUP1 SWAP2 SUB SWAP1 REVERT JUMPDEST PUSH0 PUSH1 0x7 SLOAD SWAP1 POP PUSH0 PUSH1 0x64 PUSH1 0x3 SLOAD DUP4 PUSH2 0x503 SWAP2 SWAP1 PUSH2 0x1EDD JUMP JUMPDEST PUSH2 0x50D SWAP2 SWAP1 PUSH2 0x1F4B JUMP JUMPDEST SWAP1 POP DUP1 PUSH1 0x7 PUSH0 DUP3 DUP3 SLOAD PUSH2 0x520 SWAP2 SWAP1 PUSH2 0x1F7B JUMP JUMPDEST SWAP3 POP POP DUP2 SWAP1 SSTORE POP PUSH1 0x1 PUSH0 SWAP1 SLOAD SWAP1 PUSH2 0x100 EXP SWAP1 DIV PUSH20 0xFFFFFFFFFFFFFFFFFFFFFFFFFFFFFFFFFFFFFFFF AND PUSH20 0xFFFFFFFFFFFFFFFFFFFFFFFFFFFFFFFFFFFFFFFF AND PUSH4 0xA9059CBB PUSH0 DUP1 SLOAD SWAP1 PUSH2 0x100 EXP SWAP1 DIV PUSH20 0xFFFFFFFFFFFFFFFFFFFFFFFFFFFFFFFFFFFFFFFF AND DUP4 PUSH1 0x40 MLOAD DUP4 PUSH4 0xFFFFFFFF AND PUSH1 0xE0 SHL DUP2 MSTORE PUSH1 0x4 ADD PUSH2 0x5A2 SWAP3 SWAP2 SWAP1 PUSH2 0x1FAE JUMP JUMPDEST PUSH1 0x20 PUSH1 0x40 MLOAD DUP1 DUP4 SUB DUP2 PUSH0 DUP8 GAS CALL ISZERO DUP1 ISZERO PUSH2 0x5BE JUMPI RETURNDATASIZE PUSH0 DUP1 RETURNDATACOPY RETURNDATASIZE PUSH0 REVERT JUMPDEST POP POP POP POP PUSH1 0x40 MLOAD RETURNDATASIZE PUSH1 0x1F NOT PUSH1 0x1F DUP3 ADD AND DUP3 ADD DUP1 PUSH1 0x40 MSTORE POP DUP2 ADD SWAP1 PUSH2 0x5E2 SWAP2 SWAP1 PUSH2 0x1FFF JUMP JUMPDEST PUSH2 0x621 JUMPI PUSH1 0x40 MLOAD PUSH32 0x8C379A000000000000000000000000000000000000000000000000000000000 DUP2 MSTORE PUSH1 0x4 ADD PUSH2 0x618 SWAP1 PUSH2 0x2074 JUMP JUMPDEST PUSH1 0x40 MLOAD DUP1 SWAP2 SUB SWAP1 REVERT JUMPDEST PUSH0 DUP2 DUP4 PUSH2 0x62E SWAP2 SWAP1 PUSH2 0x1F7B JUMP JUMPDEST SWAP1 POP PUSH0 PUSH1 0x1 SWAP1 POP JUMPDEST PUSH1 0x5 DUP2 GT PUSH2 0x7CD JUMPI PUSH0 PUSH2 0x648 DUP3 PUSH2 0x17B7 JUMP JUMPDEST SWAP1 POP PUSH0 PUSH1 0x64 DUP3 DUP6 PUSH2 0x659 SWAP2 SWAP1 PUSH2 0x1EDD JUMP JUMPDEST PUSH2 0x663 SWAP2 SWAP1 PUSH2 0x1F4B JUMP JUMPDEST SWAP1 POP PUSH0 PUSH1 0x6 PUSH0 DUP6 DUP2 MSTORE PUSH1 0x20 ADD SWAP1 DUP2 MSTORE PUSH1 0x20 ADD PUSH0 KECCAK256 DUP1 SLOAD DUP1 PUSH1 0x20 MUL PUSH1 0x20 ADD PUSH1 0x40 MLOAD SWAP1 DUP2 ADD PUSH1 0x40 MSTORE DUP1 SWAP3 SWAP2 SWAP1 DUP2 DUP2 MSTORE PUSH1 0x20 ADD DUP3 DUP1 SLOAD DUP1 ISZERO PUSH2 0x6F4 JUMPI PUSH1 0x20 MUL DUP3 ADD SWAP2 SWAP1 PUSH0 MSTORE PUSH1 0x20 PUSH0 KECCAK256 SWAP1 JUMPDEST DUP2 PUSH0 SWAP1 SLOAD SWAP1 PUSH2 0x100 EXP SWAP1 DIV PUSH20 0xFFFFFFFFFFFFFFFFFFFFFFFFFFFFFFFFFFFFFFFF AND PUSH20 0xFFFFFFFFFFFFFFFFFFFFFFFFFFFFFFFFFFFFFFFF AND DUP2 MSTORE PUSH1 0x20 ADD SWAP1 PUSH1 0x1 ADD SWAP1 DUP1 DUP4 GT PUSH2 0x6AB JUMPI JUMPDEST POP POP POP POP POP SWAP1 POP PUSH0 DUP2 MLOAD GT ISZERO PUSH2 0x7B7 JUMPI PUSH0 DUP2 MLOAD DUP4 PUSH2 0x712 SWAP2 SWAP1 PUSH2 0x1F4B JUMP JUMPDEST SWAP1 POP PUSH0 JUMPDEST DUP3 MLOAD DUP2 LT ISZERO PUSH2 0x7B4 JUMPI DUP2 PUSH1 0x5 PUSH0 DUP6 DUP5 DUP2 MLOAD DUP2 LT PUSH2 0x736 JUMPI PUSH2 0x735 PUSH2 0x2092 JUMP JUMPDEST JUMPDEST PUSH1 0x20 MUL PUSH1 0x20 ADD ADD MLOAD PUSH20 0xFFFFFFFFFFFFFFFFFFFFFFFFFFFFFFFFFFFFFFFF AND PUSH20 0xFFFFFFFFFFFFFFFFFFFFFFFFFFFFFFFFFFFFFFFF AND DUP2 MSTORE PUSH1 0x20 ADD SWAP1 DUP2 MSTORE PUSH1 0x20 ADD PUSH0 KECCAK256 PUSH1 0x3 ADD PUSH0 DUP3 DUP3 SLOAD PUSH2 0x788 SWAP2 SWAP1 PUSH2 0x20BF JUMP JUMPDEST SWAP3 POP POP DUP2 SWAP1 SSTORE POP DUP2 PUSH1 0x7 PUSH0 DUP3 DUP3 SLOAD PUSH2 0x7A0 SWAP2 SWAP1 PUSH2 0x1F7B JUMP JUMPDEST SWAP3 POP POP DUP2 SWAP1 SSTORE POP DUP1 DUP1 PUSH1 0x1 ADD SWAP2 POP POP PUSH2 0x716 JUMP JUMPDEST POP POP JUMPDEST POP POP POP DUP1 DUP1 PUSH2 0x7C5 SWAP1 PUSH2 0x20F2 JUMP JUMPDEST SWAP2 POP POP PUSH2 0x636 JUMP JUMPDEST POP TIMESTAMP PUSH1 0x4 DUP2 SWAP1 SSTORE POP PUSH32 0x6D1C76D614228B523BAA4DCD9539E2C713B54FF4AB3FF2D1627E7F6CD32BE442 DUP4 PUSH1 0x40 MLOAD PUSH2 0x804 SWAP2 SWAP1 PUSH2 0x1B20 JUMP JUMPDEST PUSH1 0x40 MLOAD DUP1 SWAP2 SUB SWAP1 LOG1 POP POP POP JUMP JUMPDEST PUSH0 DUP1 SLOAD SWAP1 PUSH2 0x100 EXP SWAP1 DIV PUSH20 0xFFFFFFFFFFFFFFFFFFFFFFFFFFFFFFFFFFFFFFFF AND DUP2 JUMP JUMPDEST PUSH1 0x3 SLOAD DUP2 JUMP JUMPDEST PUSH0 DUP2 GT PUSH2 0x87C JUMPI PUSH1 0x40 MLOAD PUSH32 0x8C379A000000000000000000000000000000000000000000000000000000000 DUP2 MSTORE PUSH1 0x4 ADD PUSH2 0x873 SWAP1 PUSH2 0x21A9 JUMP JUMPDEST PUSH1 0x40 MLOAD DUP1 SWAP2 SUB SWAP1 REVERT JUMPDEST DUP1 PUSH1 0x5 PUSH0 CALLER PUSH20 0xFFFFFFFFFFFFFFFFFFFFFFFFFFFFFFFFFFFFFFFF AND PUSH20 0xFFFFFFFFFFFFFFFFFFFFFFFFFFFFFFFFFFFFFFFF AND DUP2 MSTORE PUSH1 0x20 ADD SWAP1 DUP2 MSTORE PUSH1 0x20 ADD PUSH0 KECCAK256 PUSH1 0x3 ADD SLOAD LT ISZERO PUSH2 0x8FF JUMPI PUSH1 0x40 MLOAD PUSH32 0x8C379A000000000000000000000000000000000000000000000000000000000 DUP2 MSTORE PUSH1 0x4 ADD PUSH2 0x8F6 SWAP1 PUSH2 0x2211 JUMP JUMPDEST PUSH1 0x40 MLOAD DUP1 SWAP2 SUB SWAP1 REVERT JUMPDEST DUP1 PUSH1 0x5 PUSH0 CALLER PUSH20 0xFFFFFFFFFFFFFFFFFFFFFFFFFFFFFFFFFFFFFFFF AND PUSH20 0xFFFFFFFFFFFFFFFFFFFFFFFFFFFFFFFFFFFFFFFF AND DUP2 MSTORE PUSH1 0x20 ADD SWAP1 DUP2 MSTORE PUSH1 0x20 ADD PUSH0 KECCAK256 PUSH1 0x3 ADD PUSH0 DUP3 DUP3 SLOAD PUSH2 0x94E SWAP2 SWAP1 PUSH2 0x1F7B JUMP JUMPDEST SWAP3 POP POP DUP2 SWAP1 SSTORE POP PUSH1 0x1 PUSH0 SWAP1 SLOAD SWAP1 PUSH2 0x100 EXP SWAP1 DIV PUSH20 0xFFFFFFFFFFFFFFFFFFFFFFFFFFFFFFFFFFFFFFFF AND PUSH20 0xFFFFFFFFFFFFFFFFFFFFFFFFFFFFFFFFFFFFFFFF AND PUSH4 0xA9059CBB CALLER DUP4 PUSH1 0x40 MLOAD DUP4 PUSH4 0xFFFFFFFF AND PUSH1 0xE0 SHL DUP2 MSTORE PUSH1 0x4 ADD PUSH2 0x9B1 SWAP3 SWAP2 SWAP1 PUSH2 0x1FAE JUMP JUMPDEST PUSH1 0x20 PUSH1 0x40 MLOAD DUP1 DUP4 SUB DUP2 PUSH0 DUP8 GAS CALL ISZERO DUP1 ISZERO PUSH2 0x9CD JUMPI RETURNDATASIZE PUSH0 DUP1 RETURNDATACOPY RETURNDATASIZE PUSH0 REVERT JUMPDEST POP POP POP POP PUSH1 0x40 MLOAD RETURNDATASIZE PUSH1 0x1F NOT PUSH1 0x1F DUP3 ADD AND DUP3 ADD DUP1 PUSH1 0x40 MSTORE POP DUP2 ADD SWAP1 PUSH2 0x9F1 SWAP2 SWAP1 PUSH2 0x1FFF JUMP JUMPDEST PUSH2 0xA30 JUMPI PUSH1 0x40 MLOAD PUSH32 0x8C379A000000000000000000000000000000000000000000000000000000000 DUP2 MSTORE PUSH1 0x4 ADD PUSH2 0xA27 SWAP1 PUSH2 0x2279 JUMP JUMPDEST PUSH1 0x40 MLOAD DUP1 SWAP2 SUB SWAP1 REVERT JUMPDEST CALLER PUSH20 0xFFFFFFFFFFFFFFFFFFFFFFFFFFFFFFFFFFFFFFFF AND PUSH32 0x7FCF532C15F0A6DB0BD6D0E038BEA71D30D808C7D98CB3BF7268A95BF5081B65 DUP3 PUSH1 0x40 MLOAD PUSH2 0xA76 SWAP2 SWAP1 PUSH2 0x1B20 JUMP JUMPDEST PUSH1 0x40 MLOAD DUP1 SWAP2 SUB SWAP1 LOG2 POP JUMP JUMPDEST PUSH1 0x1 PUSH0 SWAP1 SLOAD SWAP1 PUSH2 0x100 EXP SWAP1 DIV PUSH20 0xFFFFFFFFFFFFFFFFFFFFFFFFFFFFFFFFFFFFFFFF AND DUP2 JUMP JUMPDEST PUSH1 0x5 PUSH1 0x20 MSTORE DUP1 PUSH0 MSTORE PUSH1 0x40 PUSH0 KECCAK256 PUSH0 SWAP2 POP SWAP1 POP DUP1 PUSH0 ADD PUSH0 SWAP1 SLOAD SWAP1 PUSH2 0x100 EXP SWAP1 DIV PUSH20 0xFFFFFFFFFFFFFFFFFFFFFFFFFFFFFFFFFFFFFFFF AND SWAP1 DUP1 PUSH1 0x1 ADD SLOAD SWAP1 DUP1 PUSH1 0x2 ADD SLOAD SWAP1 DUP1 PUSH1 0x3 ADD SLOAD SWAP1 DUP1 PUSH1 0x4 ADD PUSH0 SWAP1 SLOAD SWAP1 PUSH2 0x100 EXP SWAP1 DIV PUSH1 0xFF AND SWAP1 POP DUP6 JUMP JUMPDEST PUSH0 PUSH20 0xFFFFFFFFFFFFFFFFFFFFFFFFFFFFFFFFFFFFFFFF AND PUSH1 0x5 PUSH0 CALLER PUSH20 0xFFFFFFFFFFFFFFFFFFFFFFFFFFFFFFFFFFFFFFFF AND PUSH20 0xFFFFFFFFFFFFFFFFFFFFFFFFFFFFFFFFFFFFFFFF AND DUP2 MSTORE PUSH1 0x20 ADD SWAP1 DUP2 MSTORE PUSH1 0x20 ADD PUSH0 KECCAK256 PUSH0 ADD PUSH0 SWAP1 SLOAD SWAP1 PUSH2 0x100 EXP SWAP1 DIV PUSH20 0xFFFFFFFFFFFFFFFFFFFFFFFFFFFFFFFFFFFFFFFF AND PUSH20 0xFFFFFFFFFFFFFFFFFFFFFFFFFFFFFFFFFFFFFFFF AND EQ PUSH2 0xBCF JUMPI PUSH1 0x40 MLOAD PUSH32 0x8C379A000000000000000000000000000000000000000000000000000000000 DUP2 MSTORE PUSH1 0x4 ADD PUSH2 0xBC6 SWAP1 PUSH2 0x22E1 JUMP JUMPDEST PUSH1 0x40 MLOAD DUP1 SWAP2 SUB SWAP1 REVERT JUMPDEST PUSH1 0x1 PUSH0 SWAP1 SLOAD SWAP1 PUSH2 0x100 EXP SWAP1 DIV PUSH20 0xFFFFFFFFFFFFFFFFFFFFFFFFFFFFFFFFFFFFFFFF AND PUSH20 0xFFFFFFFFFFFFFFFFFFFFFFFFFFFFFFFFFFFFFFFF AND PUSH4 0x23B872DD CALLER ADDRESS PUSH1 0x2 SLOAD PUSH1 0x40 MLOAD DUP5 PUSH4 0xFFFFFFFF AND PUSH1 0xE0 SHL DUP2 MSTORE PUSH1 0x4 ADD PUSH2 0xC2F SWAP4 SWAP3 SWAP2 SWAP1 PUSH2 0x22FF JUMP JUMPDEST PUSH1 0x20 PUSH1 0x40 MLOAD DUP1 DUP4 SUB DUP2 PUSH0 DUP8 GAS CALL ISZERO DUP1 ISZERO PUSH2 0xC4B JUMPI RETURNDATASIZE PUSH0 DUP1 RETURNDATACOPY RETURNDATASIZE PUSH0 REVERT JUMPDEST POP POP POP POP PUSH1 0x40 MLOAD RETURNDATASIZE PUSH1 0x1F NOT PUSH1 0x1F DUP3 ADD AND DUP3 ADD DUP1 PUSH1 0x40 MSTORE POP DUP2 ADD SWAP1 PUSH2 0xC6F SWAP2 SWAP1 PUSH2 0x1FFF JUMP JUMPDEST PUSH2 0xCAE JUMPI PUSH1 0x40 MLOAD PUSH32 0x8C379A000000000000000000000000000000000000000000000000000000000 DUP2 MSTORE PUSH1 0x4 ADD PUSH2 0xCA5 SWAP1 PUSH2 0x237E JUMP JUMPDEST PUSH1 0x40 MLOAD DUP1 SWAP2 SUB SWAP1 REVERT JUMPDEST PUSH0 PUSH20 0xFFFFFFFFFFFFFFFFFFFFFFFFFFFFFFFFFFFFFFFF AND DUP2 PUSH20 0xFFFFFFFFFFFFFFFFFFFFFFFFFFFFFFFFFFFFFFFF AND EQ ISZERO DUP1 ISZERO PUSH2 0xD16 JUMPI POP CALLER PUSH20 0xFFFFFFFFFFFFFFFFFFFFFFFFFFFFFFFFFFFFFFFF AND DUP2 PUSH20 0xFFFFFFFFFFFFFFFFFFFFFFFFFFFFFFFFFFFFFFFF AND EQ ISZERO JUMPDEST ISZERO PUSH2 0xF65 JUMPI PUSH1 0x5 PUSH0 DUP3 PUSH20 0xFFFFFFFFFFFFFFFFFFFFFFFFFFFFFFFFFFFFFFFF AND PUSH20 0xFFFFFFFFFFFFFFFFFFFFFFFFFFFFFFFFFFFFFFFF AND DUP2 MSTORE PUSH1 0x20 ADD SWAP1 DUP2 MSTORE PUSH1 0x20 ADD PUSH0 KECCAK256 PUSH1 0x1 ADD PUSH0 DUP2 SLOAD DUP1 SWAP3 SWAP2 SWAP1 PUSH2 0xD6B SWAP1 PUSH2 0x20F2 JUMP JUMPDEST SWAP2 SWAP1 POP SSTORE POP PUSH1 0x1 PUSH1 0x5 PUSH0 DUP4 PUSH20 0xFFFFFFFFFFFFFFFFFFFFFFFFFFFFFFFFFFFFFFFF AND PUSH20 0xFFFFFFFFFFFFFFFFFFFFFFFFFFFFFFFFFFFFFFFF AND DUP2 MSTORE PUSH1 0x20 ADD SWAP1 DUP2 MSTORE PUSH1 0x20 ADD PUSH0 KECCAK256 PUSH1 0x4 ADD PUSH0 PUSH2 0x100 EXP DUP2 SLOAD DUP2 PUSH1 0xFF MUL NOT AND SWAP1 DUP4 ISZERO ISZERO MUL OR SWAP1 SSTORE POP PUSH0 PUSH2 0xE12 PUSH1 0x5 PUSH0 DUP5 PUSH20 0xFFFFFFFFFFFFFFFFFFFFFFFFFFFFFFFFFFFFFFFF AND PUSH20 0xFFFFFFFFFFFFFFFFFFFFFFFFFFFFFFFFFFFFFFFF AND DUP2 MSTORE PUSH1 0x20 ADD SWAP1 DUP2 MSTORE PUSH1 0x20 ADD PUSH0 KECCAK256 PUSH1 0x1 ADD SLOAD PUSH2 0x1816 JUMP JUMPDEST SWAP1 POP DUP1 PUSH1 0x5 PUSH0 DUP5 PUSH20 0xFFFFFFFFFFFFFFFFFFFFFFFFFFFFFFFFFFFFFFFF AND PUSH20 0xFFFFFFFFFFFFFFFFFFFFFFFFFFFFFFFFFFFFFFFF AND DUP2 MSTORE PUSH1 0x20 ADD SWAP1 DUP2 MSTORE PUSH1 0x20 ADD PUSH0 KECCAK256 PUSH1 0x2 ADD SLOAD EQ PUSH2 0xF5A JUMPI PUSH2 0xEA5 DUP3 PUSH1 0x5 PUSH0 DUP6 PUSH20 0xFFFFFFFFFFFFFFFFFFFFFFFFFFFFFFFFFFFFFFFF AND PUSH20 0xFFFFFFFFFFFFFFFFFFFFFFFFFFFFFFFFFFFFFFFF AND DUP2 MSTORE PUSH1 0x20 ADD SWAP1 DUP2 MSTORE PUSH1 0x20 ADD PUSH0 KECCAK256 PUSH1 0x2 ADD SLOAD PUSH2 0x18B5 JUMP JUMPDEST DUP1 PUSH1 0x5 PUSH0 DUP5 PUSH20 0xFFFFFFFFFFFFFFFFFFFFFFFFFFFFFFFFFFFFFFFF AND PUSH20 0xFFFFFFFFFFFFFFFFFFFFFFFFFFFFFFFFFFFFFFFF AND DUP2 MSTORE PUSH1 0x20 ADD SWAP1 DUP2 MSTORE PUSH1 0x20 ADD PUSH0 KECCAK256 PUSH1 0x2 ADD DUP2 SWAP1 SSTORE POP PUSH1 0x6 PUSH0 DUP3 DUP2 MSTORE PUSH1 0x20 ADD SWAP1 DUP2 MSTORE PUSH1 0x20 ADD PUSH0 KECCAK256 DUP3 SWAP1 DUP1 PUSH1 0x1 DUP2 SLOAD ADD DUP1 DUP3 SSTORE DUP1 SWAP2 POP POP PUSH1 0x1 SWAP1 SUB SWAP1 PUSH0 MSTORE PUSH1 0x20 PUSH0 KECCAK256 ADD PUSH0 SWAP1 SWAP2 SWAP1 SWAP2 SWAP1 SWAP2 PUSH2 0x100 EXP DUP2 SLOAD DUP2 PUSH20 0xFFFFFFFFFFFFFFFFFFFFFFFFFFFFFFFFFFFFFFFF MUL NOT AND SWAP1 DUP4 PUSH20 0xFFFFFFFFFFFFFFFFFFFFFFFFFFFFFFFFFFFFFFFF AND MUL OR SWAP1 SSTORE POP JUMPDEST PUSH2 0xF63 DUP3 PUSH2 0x1A42 JUMP JUMPDEST POP JUMPDEST DUP1 PUSH1 0x5 PUSH0 CALLER PUSH20 0xFFFFFFFFFFFFFFFFFFFFFFFFFFFFFFFFFFFFFFFF AND PUSH20 0xFFFFFFFFFFFFFFFFFFFFFFFFFFFFFFFFFFFFFFFF AND DUP2 MSTORE PUSH1 0x20 ADD SWAP1 DUP2 MSTORE PUSH1 0x20 ADD PUSH0 KECCAK256 PUSH0 ADD PUSH0 PUSH2 0x100 EXP DUP2 SLOAD DUP2 PUSH20 0xFFFFFFFFFFFFFFFFFFFFFFFFFFFFFFFFFFFFFFFF MUL NOT AND SWAP1 DUP4 PUSH20 0xFFFFFFFFFFFFFFFFFFFFFFFFFFFFFFFFFFFFFFFF AND MUL OR SWAP1 SSTORE POP PUSH0 PUSH2 0x102C PUSH1 0x5 PUSH0 CALLER PUSH20 0xFFFFFFFFFFFFFFFFFFFFFFFFFFFFFFFFFFFFFFFF AND PUSH20 0xFFFFFFFFFFFFFFFFFFFFFFFFFFFFFFFFFFFFFFFF AND DUP2 MSTORE PUSH1 0x20 ADD SWAP1 DUP2 MSTORE PUSH1 0x20 ADD PUSH0 KECCAK256 PUSH1 0x1 ADD SLOAD PUSH2 0x1816 JUMP JUMPDEST SWAP1 POP DUP1 PUSH1 0x5 PUSH0 CALLER PUSH20 0xFFFFFFFFFFFFFFFFFFFFFFFFFFFFFFFFFFFFFFFF AND PUSH20 0xFFFFFFFFFFFFFFFFFFFFFFFFFFFFFFFFFFFFFFFF AND DUP2 MSTORE PUSH1 0x20 ADD SWAP1 DUP2 MSTORE PUSH1 0x20 ADD PUSH0 KECCAK256 PUSH1 0x2 ADD DUP2 SWAP1 SSTORE POP PUSH1 0x64 PUSH1 0x32 PUSH1 0x2 SLOAD PUSH2 0x1084 SWAP2 SWAP1 PUSH2 0x1EDD JUMP JUMPDEST PUSH2 0x108E SWAP2 SWAP1 PUSH2 0x1F4B JUMP JUMPDEST PUSH1 0x7 PUSH0 DUP3 DUP3 SLOAD PUSH2 0x109E SWAP2 SWAP1 PUSH2 0x20BF JUMP JUMPDEST SWAP3 POP POP DUP2 SWAP1 SSTORE POP DUP2 PUSH20 0xFFFFFFFFFFFFFFFFFFFFFFFFFFFFFFFFFFFFFFFF AND CALLER PUSH20 0xFFFFFFFFFFFFFFFFFFFFFFFFFFFFFFFFFFFFFFFF AND PUSH32 0xA31EE9D46A828884B81003C8498156EA6AA15B9B54BDD0EF0B533D9EBA57E55 PUSH1 0x40 MLOAD PUSH1 0x40 MLOAD DUP1 SWAP2 SUB SWAP1 LOG3 POP POP JUMP JUMPDEST PUSH1 0x6 PUSH1 0x20 MSTORE DUP2 PUSH0 MSTORE PUSH1 0x40 PUSH0 KECCAK256 DUP2 DUP2 SLOAD DUP2 LT PUSH2 0x111C JUMPI PUSH0 DUP1 REVERT JUMPDEST SWAP1 PUSH0 MSTORE PUSH1 0x20 PUSH0 KECCAK256 ADD PUSH0 SWAP2 POP SWAP2 POP SWAP1 SLOAD SWAP1 PUSH2 0x100 EXP SWAP1 DIV PUSH20 0xFFFFFFFFFFFFFFFFFFFFFFFFFFFFFFFFFFFFFFFF AND DUP2 JUMP JUMPDEST PUSH1 0x4 SLOAD DUP2 JUMP JUMPDEST PUSH1 0x60 PUSH1 0x1 DUP3 LT ISZERO DUP1 ISZERO PUSH2 0x1165 JUMPI POP PUSH1 0x5 DUP3 GT ISZERO JUMPDEST PUSH2 0x11A4 JUMPI PUSH1 0x40 MLOAD PUSH32 0x8C379A000000000000000000000000000000000000000000000000000000000 DUP2 MSTORE PUSH1 0x4 ADD PUSH2 0x119B SWAP1 PUSH2 0x23E6 JUMP JUMPDEST PUSH1 0x40 MLOAD DUP1 SWAP2 SUB SWAP1 REVERT JUMPDEST PUSH1 0x6 PUSH0 DUP4 DUP2 MSTORE PUSH1 0x20 ADD SWAP1 DUP2 MSTORE PUSH1 0x20 ADD PUSH0 KECCAK256 DUP1 SLOAD DUP1 PUSH1 0x20 MUL PUSH1 0x20 ADD PUSH1 0x40 MLOAD SWAP1 DUP2 ADD PUSH1 0x40 MSTORE DUP1 SWAP3 SWAP2 SWAP1 DUP2 DUP2 MSTORE PUSH1 0x20 ADD DUP3 DUP1 SLOAD DUP1 ISZERO PUSH2 0x1232 JUMPI PUSH1 0x20 MUL DUP3 ADD SWAP2 SWAP1 PUSH0 MSTORE PUSH1 0x20 PUSH0 KECCAK256 SWAP1 JUMPDEST DUP2 PUSH0 SWAP1 SLOAD SWAP1 PUSH2 0x100 EXP SWAP1 DIV PUSH20 0xFFFFFFFFFFFFFFFFFFFFFFFFFFFFFFFFFFFFFFFF AND PUSH20 0xFFFFFFFFFFFFFFFFFFFFFFFFFFFFFFFFFFFFFFFF AND DUP2 MSTORE PUSH1 0x20 ADD SWAP1 PUSH1 0x1 ADD SWAP1 DUP1 DUP4 GT PUSH2 0x11E9 JUMPI JUMPDEST POP POP POP POP POP SWAP1 POP SWAP2 SWAP1 POP JUMP JUMPDEST PUSH0 DUP1 SLOAD SWAP1 PUSH2 0x100 EXP SWAP1 DIV PUSH20 0xFFFFFFFFFFFFFFFFFFFFFFFFFFFFFFFFFFFFFFFF AND PUSH20 0xFFFFFFFFFFFFFFFFFFFFFFFFFFFFFFFFFFFFFFFF AND CALLER PUSH20 0xFFFFFFFFFFFFFFFFFFFFFFFFFFFFFFFFFFFFFFFF AND EQ PUSH2 0x12CB JUMPI PUSH1 0x40 MLOAD PUSH32 0x8C379A000000000000000000000000000000000000000000000000000000000 DUP2 MSTORE PUSH1 0x4 ADD PUSH2 0x12C2 SWAP1 PUSH2 0x1E92 JUMP JUMPDEST PUSH1 0x40 MLOAD DUP1 SWAP2 SUB SWAP1 REVERT JUMPDEST DUP1 SELFBALANCE LT ISZERO PUSH2 0x130E JUMPI PUSH1 0x40 MLOAD PUSH32 0x8C379A000000000000000000000000000000000000000000000000000000000 DUP2 MSTORE PUSH1 0x4 ADD PUSH2 0x1305 SWAP1 PUSH2 0x244E JUMP JUMPDEST PUSH1 0x40 MLOAD DUP1 SWAP2 SUB SWAP1 REVERT JUMPDEST PUSH0 DUP3 PUSH20 0xFFFFFFFFFFFFFFFFFFFFFFFFFFFFFFFFFFFFFFFF AND DUP3 PUSH1 0x40 MLOAD PUSH2 0x1333 SWAP1 PUSH2 0x2499 JUMP JUMPDEST PUSH0 PUSH1 0x40 MLOAD DUP1 DUP4 SUB DUP2 DUP6 DUP8 GAS CALL SWAP3 POP POP POP RETURNDATASIZE DUP1 PUSH0 DUP2 EQ PUSH2 0x136D JUMPI PUSH1 0x40 MLOAD SWAP2 POP PUSH1 0x1F NOT PUSH1 0x3F RETURNDATASIZE ADD AND DUP3 ADD PUSH1 0x40 MSTORE RETURNDATASIZE DUP3 MSTORE RETURNDATASIZE PUSH0 PUSH1 0x20 DUP5 ADD RETURNDATACOPY PUSH2 0x1372 JUMP JUMPDEST PUSH1 0x60 SWAP2 POP JUMPDEST POP POP SWAP1 POP DUP1 PUSH2 0x13B6 JUMPI PUSH1 0x40 MLOAD PUSH32 0x8C379A000000000000000000000000000000000000000000000000000000000 DUP2 MSTORE PUSH1 0x4 ADD PUSH2 0x13AD SWAP1 PUSH2 0x24F7 JUMP JUMPDEST PUSH1 0x40 MLOAD DUP1 SWAP2 SUB SWAP1 REVERT JUMPDEST DUP3 PUSH20 0xFFFFFFFFFFFFFFFFFFFFFFFFFFFFFFFFFFFFFFFF AND PUSH32 0x510FFB4DCAB972AE9D2007A58E13F1B0881776D23CD8F5CC32F8C5BE2DBF70D2 DUP4 PUSH1 0x40 MLOAD PUSH2 0x13FC SWAP2 SWAP1 PUSH2 0x1B20 JUMP JUMPDEST PUSH1 0x40 MLOAD DUP1 SWAP2 SUB SWAP1 LOG2 POP POP POP JUMP JUMPDEST PUSH1 0x7 SLOAD DUP2 JUMP JUMPDEST PUSH1 0x1 DUP2 LT ISZERO DUP1 ISZERO PUSH2 0x1421 JUMPI POP PUSH1 0x5 DUP2 GT ISZERO JUMPDEST PUSH2 0x1460 JUMPI PUSH1 0x40 MLOAD PUSH32 0x8C379A000000000000000000000000000000000000000000000000000000000 DUP2 MSTORE PUSH1 0x4 ADD PUSH2 0x1457 SWAP1 PUSH2 0x23E6 JUMP JUMPDEST PUSH1 0x40 MLOAD DUP1 SWAP2 SUB SWAP1 REVERT JUMPDEST PUSH1 0x1 PUSH1 0x5 PUSH0 CALLER PUSH20 0xFFFFFFFFFFFFFFFFFFFFFFFFFFFFFFFFFFFFFFFF AND PUSH20 0xFFFFFFFFFFFFFFFFFFFFFFFFFFFFFFFFFFFFFFFF AND DUP2 MSTORE PUSH1 0x20 ADD SWAP1 DUP2 MSTORE PUSH1 0x20 ADD PUSH0 KECCAK256 PUSH1 0x1 ADD SLOAD LT ISZERO PUSH2 0x14E4 JUMPI PUSH1 0x40 MLOAD PUSH32 0x8C379A000000000000000000000000000000000000000000000000000000000 DUP2 MSTORE PUSH1 0x4 ADD PUSH2 0x14DB SWAP1 PUSH2 0x2585 JUMP JUMPDEST PUSH1 0x40 MLOAD DUP1 SWAP2 SUB SWAP1 REVERT JUMPDEST DUP1 PUSH1 0x5 PUSH0 CALLER PUSH20 0xFFFFFFFFFFFFFFFFFFFFFFFFFFFFFFFFFFFFFFFF AND PUSH20 0xFFFFFFFFFFFFFFFFFFFFFFFFFFFFFFFFFFFFFFFF AND DUP2 MSTORE PUSH1 0x20 ADD SWAP1 DUP2 MSTORE PUSH1 0x20 ADD PUSH0 KECCAK256 PUSH1 0x2 ADD SLOAD LT PUSH2 0x1566 JUMPI PUSH1 0x40 MLOAD PUSH32 0x8C379A000000000000000000000000000000000000000000000000000000000 DUP2 MSTORE PUSH1 0x4 ADD PUSH2 0x155D SWAP1 PUSH2 0x25ED JUMP JUMPDEST PUSH1 0x40 MLOAD DUP1 SWAP2 SUB SWAP1 REVERT JUMPDEST PUSH0 PUSH2 0x1570 DUP3 PUSH2 0x3F0 JUMP JUMPDEST SWAP1 POP PUSH1 0x1 PUSH0 SWAP1 SLOAD SWAP1 PUSH2 0x100 EXP SWAP1 DIV PUSH20 0xFFFFFFFFFFFFFFFFFFFFFFFFFFFFFFFFFFFFFFFF AND PUSH20 0xFFFFFFFFFFFFFFFFFFFFFFFFFFFFFFFFFFFFFFFF AND PUSH4 0x23B872DD CALLER ADDRESS DUP5 PUSH1 0x40 MLOAD DUP5 PUSH4 0xFFFFFFFF AND PUSH1 0xE0 SHL DUP2 MSTORE PUSH1 0x4 ADD PUSH2 0x15D0 SWAP4 SWAP3 SWAP2 SWAP1 PUSH2 0x22FF JUMP JUMPDEST PUSH1 0x20 PUSH1 0x40 MLOAD DUP1 DUP4 SUB DUP2 PUSH0 DUP8 GAS CALL ISZERO DUP1 ISZERO PUSH2 0x15EC JUMPI RETURNDATASIZE PUSH0 DUP1 RETURNDATACOPY RETURNDATASIZE PUSH0 REVERT JUMPDEST POP POP POP POP PUSH1 0x40 MLOAD RETURNDATASIZE PUSH1 0x1F NOT PUSH1 0x1F DUP3 ADD AND DUP3 ADD DUP1 PUSH1 0x40 MSTORE POP DUP2 ADD SWAP1 PUSH2 0x1610 SWAP2 SWAP1 PUSH2 0x1FFF JUMP JUMPDEST PUSH2 0x164F JUMPI PUSH1 0x40 MLOAD PUSH32 0x8C379A000000000000000000000000000000000000000000000000000000000 DUP2 MSTORE PUSH1 0x4 ADD PUSH2 0x1646 SWAP1 PUSH2 0x237E JUMP JUMPDEST PUSH1 0x40 MLOAD DUP1 SWAP2 SUB SWAP1 REVERT JUMPDEST PUSH2 0x1699 CALLER PUSH1 0x5 PUSH0 CALLER PUSH20 0xFFFFFFFFFFFFFFFFFFFFFFFFFFFFFFFFFFFFFFFF AND PUSH20 0xFFFFFFFFFFFFFFFFFFFFFFFFFFFFFFFFFFFFFFFF AND DUP2 MSTORE PUSH1 0x20 ADD SWAP1 DUP2 MSTORE PUSH1 0x20 ADD PUSH0 KECCAK256 PUSH1 0x2 ADD SLOAD PUSH2 0x18B5 JUMP JUMPDEST DUP2 PUSH1 0x5 PUSH0 CALLER PUSH20 0xFFFFFFFFFFFFFFFFFFFFFFFFFFFFFFFFFFFFFFFF AND PUSH20 0xFFFFFFFFFFFFFFFFFFFFFFFFFFFFFFFFFFFFFFFF AND DUP2 MSTORE PUSH1 0x20 ADD SWAP1 DUP2 MSTORE PUSH1 0x20 ADD PUSH0 KECCAK256 PUSH1 0x2 ADD DUP2 SWAP1 SSTORE POP PUSH1 0x6 PUSH0 DUP4 DUP2 MSTORE PUSH1 0x20 ADD SWAP1 DUP2 MSTORE PUSH1 0x20 ADD PUSH0 KECCAK256 CALLER SWAP1 DUP1 PUSH1 0x1 DUP2 SLOAD ADD DUP1 DUP3 SSTORE DUP1 SWAP2 POP POP PUSH1 0x1 SWAP1 SUB SWAP1 PUSH0 MSTORE PUSH1 0x20 PUSH0 KECCAK256 ADD PUSH0 SWAP1 SWAP2 SWAP1 SWAP2 SWAP1 SWAP2 PUSH2 0x100 EXP DUP2 SLOAD DUP2 PUSH20 0xFFFFFFFFFFFFFFFFFFFFFFFFFFFFFFFFFFFFFFFF MUL NOT AND SWAP1 DUP4 PUSH20 0xFFFFFFFFFFFFFFFFFFFFFFFFFFFFFFFFFFFFFFFF AND MUL OR SWAP1 SSTORE POP DUP1 PUSH1 0x7 PUSH0 DUP3 DUP3 SLOAD PUSH2 0x175E SWAP2 SWAP1 PUSH2 0x20BF JUMP JUMPDEST SWAP3 POP POP DUP2 SWAP1 SSTORE POP CALLER PUSH20 0xFFFFFFFFFFFFFFFFFFFFFFFFFFFFFFFFFFFFFFFF AND PUSH32 0x427898149FFA0BD0A638B73A8506CC040CA0034A36BDB547DB4FB73FD0313C02 DUP4 PUSH1 0x40 MLOAD PUSH2 0x17AB SWAP2 SWAP1 PUSH2 0x1B20 JUMP JUMPDEST PUSH1 0x40 MLOAD DUP1 SWAP2 SUB SWAP1 LOG2 POP POP JUMP JUMPDEST PUSH0 PUSH1 0x1 DUP3 SUB PUSH2 0x17C9 JUMPI PUSH1 0x10 SWAP1 POP PUSH2 0x1811 JUMP JUMPDEST PUSH1 0x2 DUP3 SUB PUSH2 0x17DA JUMPI PUSH1 0x12 SWAP1 POP PUSH2 0x1811 JUMP JUMPDEST PUSH1 0x3 DUP3 SUB PUSH2 0x17EB JUMPI PUSH1 0x14 SWAP1 POP PUSH2 0x1811 JUMP JUMPDEST PUSH1 0x4 DUP3 SUB PUSH2 0x17FC JUMPI PUSH1 0x16 SWAP1 POP PUSH2 0x1811 JUMP JUMPDEST PUSH1 0x5 DUP3 SUB PUSH2 0x180D JUMPI PUSH1 0x18 SWAP1 POP PUSH2 0x1811 JUMP JUMPDEST PUSH0 SWAP1 POP JUMPDEST SWAP2 SWAP1 POP JUMP JUMPDEST PUSH0 PUSH1 0x1 DUP3 LT ISZERO DUP1 ISZERO PUSH2 0x1829 JUMPI POP PUSH1 0x9 DUP3 GT ISZERO JUMPDEST ISZERO PUSH2 0x1837 JUMPI PUSH1 0x1 SWAP1 POP PUSH2 0x18B0 JUMP JUMPDEST PUSH1 0xA DUP3 LT ISZERO DUP1 ISZERO PUSH2 0x1849 JUMPI POP PUSH1 0x63 DUP3 GT ISZERO JUMPDEST ISZERO PUSH2 0x1857 JUMPI PUSH1 0x2 SWAP1 POP PUSH2 0x18B0 JUMP JUMPDEST PUSH1 0x64 DUP3 LT ISZERO DUP1 ISZERO PUSH2 0x186A JUMPI POP PUSH2 0x3E7 DUP3 GT ISZERO JUMPDEST ISZERO PUSH2 0x1878 JUMPI PUSH1 0x3 SWAP1 POP PUSH2 0x18B0 JUMP JUMPDEST PUSH2 0x3E8 DUP3 LT ISZERO DUP1 ISZERO PUSH2 0x188C JUMPI POP PUSH2 0x270F DUP3 GT ISZERO JUMPDEST ISZERO PUSH2 0x189A JUMPI PUSH1 0x4 SWAP1 POP PUSH2 0x18B0 JUMP JUMPDEST PUSH2 0x2710 DUP3 LT PUSH2 0x18AC JUMPI PUSH1 0x5 SWAP1 POP PUSH2 0x18B0 JUMP JUMPDEST PUSH0 SWAP1 POP JUMPDEST SWAP2 SWAP1 POP JUMP JUMPDEST PUSH0 PUSH1 0x6 PUSH0 DUP4 DUP2 MSTORE PUSH1 0x20 ADD SWAP1 DUP2 MSTORE PUSH1 0x20 ADD PUSH0 KECCAK256 SWAP1 POP PUSH0 JUMPDEST DUP2 DUP1 SLOAD SWAP1 POP DUP2 LT ISZERO PUSH2 0x1A3C JUMPI DUP4 PUSH20 0xFFFFFFFFFFFFFFFFFFFFFFFFFFFFFFFFFFFFFFFF AND DUP3 DUP3 DUP2 SLOAD DUP2 LT PUSH2 0x1901 JUMPI PUSH2 0x1900 PUSH2 0x2092 JUMP JUMPDEST JUMPDEST SWAP1 PUSH0 MSTORE PUSH1 0x20 PUSH0 KECCAK256 ADD PUSH0 SWAP1 SLOAD SWAP1 PUSH2 0x100 EXP SWAP1 DIV PUSH20 0xFFFFFFFFFFFFFFFFFFFFFFFFFFFFFFFFFFFFFFFF AND PUSH20 0xFFFFFFFFFFFFFFFFFFFFFFFFFFFFFFFFFFFFFFFF AND SUB PUSH2 0x1A2F JUMPI DUP2 PUSH1 0x1 DUP4 DUP1 SLOAD SWAP1 POP PUSH2 0x1956 SWAP2 SWAP1 PUSH2 0x1F7B JUMP JUMPDEST DUP2 SLOAD DUP2 LT PUSH2 0x1967 JUMPI PUSH2 0x1966 PUSH2 0x2092 JUMP JUMPDEST JUMPDEST SWAP1 PUSH0 MSTORE PUSH1 0x20 PUSH0 KECCAK256 ADD PUSH0 SWAP1 SLOAD SWAP1 PUSH2 0x100 EXP SWAP1 DIV PUSH20 0xFFFFFFFFFFFFFFFFFFFFFFFFFFFFFFFFFFFFFFFF AND DUP3 DUP3 DUP2 SLOAD DUP2 LT PUSH2 0x19A2 JUMPI PUSH2 0x19A1 PUSH2 0x2092 JUMP JUMPDEST JUMPDEST SWAP1 PUSH0 MSTORE PUSH1 0x20 PUSH0 KECCAK256 ADD PUSH0 PUSH2 0x100 EXP DUP2 SLOAD DUP2 PUSH20 0xFFFFFFFFFFFFFFFFFFFFFFFFFFFFFFFFFFFFFFFF MUL NOT AND SWAP1 DUP4 PUSH20 0xFFFFFFFFFFFFFFFFFFFFFFFFFFFFFFFFFFFFFFFF AND MUL OR SWAP1 SSTORE POP DUP2 DUP1 SLOAD DUP1 PUSH2 0x19F8 JUMPI PUSH2 0x19F7 PUSH2 0x260B JUMP JUMPDEST JUMPDEST PUSH1 0x1 SWAP1 SUB DUP2 DUP2 SWAP1 PUSH0 MSTORE PUSH1 0x20 PUSH0 KECCAK256 ADD PUSH0 PUSH2 0x100 EXP DUP2 SLOAD SWAP1 PUSH20 0xFFFFFFFFFFFFFFFFFFFFFFFFFFFFFFFFFFFFFFFF MUL NOT AND SWAP1 SSTORE SWAP1 SSTORE PUSH2 0x1A3C JUMP JUMPDEST DUP1 DUP1 PUSH1 0x1 ADD SWAP2 POP POP PUSH2 0x18CB JUMP JUMPDEST POP POP POP POP JUMP JUMPDEST PUSH0 PUSH1 0x64 PUSH1 0x32 PUSH1 0x2 SLOAD PUSH2 0x1A54 SWAP2 SWAP1 PUSH2 0x1EDD JUMP JUMPDEST PUSH2 0x1A5E SWAP2 SWAP1 PUSH2 0x1F4B JUMP JUMPDEST SWAP1 POP DUP1 PUSH1 0x5 PUSH0 DUP5 PUSH20 0xFFFFFFFFFFFFFFFFFFFFFFFFFFFFFFFFFFFFFFFF AND PUSH20 0xFFFFFFFFFFFFFFFFFFFFFFFFFFFFFFFFFFFFFFFF AND DUP2 MSTORE PUSH1 0x20 ADD SWAP1 DUP2 MSTORE PUSH1 0x20 ADD PUSH0 KECCAK256 PUSH1 0x3 ADD PUSH0 DUP3 DUP3 SLOAD PUSH2 0x1AAF SWAP2 SWAP1 PUSH2 0x20BF JUMP JUMPDEST SWAP3 POP POP DUP2 SWAP1 SSTORE POP DUP2 PUSH20 0xFFFFFFFFFFFFFFFFFFFFFFFFFFFFFFFFFFFFFFFF AND PUSH32 0x6292F4F27D8047AF4537A4BD86906DE0E2C880C20086F7F58B81EACFEB639126 DUP3 PUSH1 0x40 MLOAD PUSH2 0x1AFC SWAP2 SWAP1 PUSH2 0x1B20 JUMP JUMPDEST PUSH1 0x40 MLOAD DUP1 SWAP2 SUB SWAP1 LOG2 POP POP JUMP JUMPDEST PUSH0 DUP2 SWAP1 POP SWAP2 SWAP1 POP JUMP JUMPDEST PUSH2 0x1B1A DUP2 PUSH2 0x1B08 JUMP JUMPDEST DUP3 MSTORE POP POP JUMP JUMPDEST PUSH0 PUSH1 0x20 DUP3 ADD SWAP1 POP PUSH2 0x1B33 PUSH0 DUP4 ADD DUP5 PUSH2 0x1B11 JUMP JUMPDEST SWAP3 SWAP2 POP POP JUMP JUMPDEST PUSH0 DUP1 REVERT JUMPDEST PUSH2 0x1B46 DUP2 PUSH2 0x1B08 JUMP JUMPDEST DUP2 EQ PUSH2 0x1B50 JUMPI PUSH0 DUP1 REVERT JUMPDEST POP JUMP JUMPDEST PUSH0 DUP2 CALLDATALOAD SWAP1 POP PUSH2 0x1B61 DUP2 PUSH2 0x1B3D JUMP JUMPDEST SWAP3 SWAP2 POP POP JUMP JUMPDEST PUSH0 PUSH1 0x20 DUP3 DUP5 SUB SLT ISZERO PUSH2 0x1B7C JUMPI PUSH2 0x1B7B PUSH2 0x1B39 JUMP JUMPDEST JUMPDEST PUSH0 PUSH2 0x1B89 DUP5 DUP3 DUP6 ADD PUSH2 0x1B53 JUMP JUMPDEST SWAP2 POP POP SWAP3 SWAP2 POP POP JUMP JUMPDEST PUSH0 PUSH20 0xFFFFFFFFFFFFFFFFFFFFFFFFFFFFFFFFFFFFFFFF DUP3 AND SWAP1 POP SWAP2 SWAP1 POP JUMP JUMPDEST PUSH0 PUSH2 0x1BBB DUP3 PUSH2 0x1B92 JUMP JUMPDEST SWAP1 POP SWAP2 SWAP1 POP JUMP JUMPDEST PUSH2 0x1BCB DUP2 PUSH2 0x1BB1 JUMP JUMPDEST DUP3 MSTORE POP POP JUMP JUMPDEST PUSH0 PUSH1 0x20 DUP3 ADD SWAP1 POP PUSH2 0x1BE4 PUSH0 DUP4 ADD DUP5 PUSH2 0x1BC2 JUMP JUMPDEST SWAP3 SWAP2 POP POP JUMP JUMPDEST PUSH2 0x1BF3 DUP2 PUSH2 0x1BB1 JUMP JUMPDEST DUP2 EQ PUSH2 0x1BFD JUMPI PUSH0 DUP1 REVERT JUMPDEST POP JUMP JUMPDEST PUSH0 DUP2 CALLDATALOAD SWAP1 POP PUSH2 0x1C0E DUP2 PUSH2 0x1BEA JUMP JUMPDEST SWAP3 SWAP2 POP POP JUMP JUMPDEST PUSH0 PUSH1 0x20 DUP3 DUP5 SUB SLT ISZERO PUSH2 0x1C29 JUMPI PUSH2 0x1C28 PUSH2 0x1B39 JUMP JUMPDEST JUMPDEST PUSH0 PUSH2 0x1C36 DUP5 DUP3 DUP6 ADD PUSH2 0x1C00 JUMP JUMPDEST SWAP2 POP POP SWAP3 SWAP2 POP POP JUMP JUMPDEST PUSH0 DUP2 ISZERO ISZERO SWAP1 POP SWAP2 SWAP1 POP JUMP JUMPDEST PUSH2 0x1C53 DUP2 PUSH2 0x1C3F JUMP JUMPDEST DUP3 MSTORE POP POP JUMP JUMPDEST PUSH0 PUSH1 0xA0 DUP3 ADD SWAP1 POP PUSH2 0x1C6C PUSH0 DUP4 ADD DUP9 PUSH2 0x1BC2 JUMP JUMPDEST PUSH2 0x1C79 PUSH1 0x20 DUP4 ADD DUP8 PUSH2 0x1B11 JUMP JUMPDEST PUSH2 0x1C86 PUSH1 0x40 DUP4 ADD DUP7 PUSH2 0x1B11 JUMP JUMPDEST PUSH2 0x1C93 PUSH1 0x60 DUP4 ADD DUP6 PUSH2 0x1B11 JUMP JUMPDEST PUSH2 0x1CA0 PUSH1 0x80 DUP4 ADD DUP5 PUSH2 0x1C4A JUMP JUMPDEST SWAP7 SWAP6 POP POP POP POP POP POP JUMP JUMPDEST PUSH0 DUP1 PUSH1 0x40 DUP4 DUP6 SUB SLT ISZERO PUSH2 0x1CC0 JUMPI PUSH2 0x1CBF PUSH2 0x1B39 JUMP JUMPDEST JUMPDEST PUSH0 PUSH2 0x1CCD DUP6 DUP3 DUP7 ADD PUSH2 0x1B53 JUMP JUMPDEST SWAP3 POP POP PUSH1 0x20 PUSH2 0x1CDE DUP6 DUP3 DUP7 ADD PUSH2 0x1B53 JUMP JUMPDEST SWAP2 POP POP SWAP3 POP SWAP3 SWAP1 POP JUMP JUMPDEST PUSH0 DUP2 MLOAD SWAP1 POP SWAP2 SWAP1 POP JUMP JUMPDEST PUSH0 DUP3 DUP3 MSTORE PUSH1 0x20 DUP3 ADD SWAP1 POP SWAP3 SWAP2 POP POP JUMP JUMPDEST PUSH0 DUP2 SWAP1 POP PUSH1 0x20 DUP3 ADD SWAP1 POP SWAP2 SWAP1 POP JUMP JUMPDEST PUSH2 0x1D1A DUP2 PUSH2 0x1BB1 JUMP JUMPDEST DUP3 MSTORE POP POP JUMP JUMPDEST PUSH0 PUSH2 0x1D2B DUP4 DUP4 PUSH2 0x1D11 JUMP JUMPDEST PUSH1 0x20 DUP4 ADD SWAP1 POP SWAP3 SWAP2 POP POP JUMP JUMPDEST PUSH0 PUSH1 0x20 DUP3 ADD SWAP1 POP SWAP2 SWAP1 POP JUMP JUMPDEST PUSH0 PUSH2 0x1D4D DUP3 PUSH2 0x1CE8 JUMP JUMPDEST PUSH2 0x1D57 DUP2 DUP6 PUSH2 0x1CF2 JUMP JUMPDEST SWAP4 POP PUSH2 0x1D62 DUP4 PUSH2 0x1D02 JUMP JUMPDEST DUP1 PUSH0 JUMPDEST DUP4 DUP2 LT ISZERO PUSH2 0x1D92 JUMPI DUP2 MLOAD PUSH2 0x1D79 DUP9 DUP3 PUSH2 0x1D20 JUMP JUMPDEST SWAP8 POP PUSH2 0x1D84 DUP4 PUSH2 0x1D37 JUMP JUMPDEST SWAP3 POP POP PUSH1 0x1 DUP2 ADD SWAP1 POP PUSH2 0x1D65 JUMP JUMPDEST POP DUP6 SWAP4 POP POP POP POP SWAP3 SWAP2 POP POP JUMP JUMPDEST PUSH0 PUSH1 0x20 DUP3 ADD SWAP1 POP DUP2 DUP2 SUB PUSH0 DUP4 ADD MSTORE PUSH2 0x1DB7 DUP2 DUP5 PUSH2 0x1D43 JUMP JUMPDEST SWAP1 POP SWAP3 SWAP2 POP POP JUMP JUMPDEST PUSH0 PUSH2 0x1DC9 DUP3 PUSH2 0x1B92 JUMP JUMPDEST SWAP1 POP SWAP2 SWAP1 POP JUMP JUMPDEST PUSH2 0x1DD9 DUP2 PUSH2 0x1DBF JUMP JUMPDEST DUP2 EQ PUSH2 0x1DE3 JUMPI PUSH0 DUP1 REVERT JUMPDEST POP JUMP JUMPDEST PUSH0 DUP2 CALLDATALOAD SWAP1 POP PUSH2 0x1DF4 DUP2 PUSH2 0x1DD0 JUMP JUMPDEST SWAP3 SWAP2 POP POP JUMP JUMPDEST PUSH0 DUP1 PUSH1 0x40 DUP4 DUP6 SUB SLT ISZERO PUSH2 0x1E10 JUMPI PUSH2 0x1E0F PUSH2 0x1B39 JUMP JUMPDEST JUMPDEST PUSH0 PUSH2 0x1E1D DUP6 DUP3 DUP7 ADD PUSH2 0x1DE6 JUMP JUMPDEST SWAP3 POP POP PUSH1 0x20 PUSH2 0x1E2E DUP6 DUP3 DUP7 ADD PUSH2 0x1B53 JUMP JUMPDEST SWAP2 POP POP SWAP3 POP SWAP3 SWAP1 POP JUMP JUMPDEST PUSH0 DUP3 DUP3 MSTORE PUSH1 0x20 DUP3 ADD SWAP1 POP SWAP3 SWAP2 POP POP JUMP JUMPDEST PUSH32 0x4E6F7420617574686F72697A6564000000000000000000000000000000000000 PUSH0 DUP3 ADD MSTORE POP JUMP JUMPDEST PUSH0 PUSH2 0x1E7C PUSH1 0xE DUP4 PUSH2 0x1E38 JUMP JUMPDEST SWAP2 POP PUSH2 0x1E87 DUP3 PUSH2 0x1E48 JUMP JUMPDEST PUSH1 0x20 DUP3 ADD SWAP1 POP SWAP2 SWAP1 POP JUMP JUMPDEST PUSH0 PUSH1 0x20 DUP3 ADD SWAP1 POP DUP2 DUP2 SUB PUSH0 DUP4 ADD MSTORE PUSH2 0x1EA9 DUP2 PUSH2 0x1E70 JUMP JUMPDEST SWAP1 POP SWAP2 SWAP1 POP JUMP JUMPDEST PUSH32 0x4E487B7100000000000000000000000000000000000000000000000000000000 PUSH0 MSTORE PUSH1 0x11 PUSH1 0x4 MSTORE PUSH1 0x24 PUSH0 REVERT JUMPDEST PUSH0 PUSH2 0x1EE7 DUP3 PUSH2 0x1B08 JUMP JUMPDEST SWAP2 POP PUSH2 0x1EF2 DUP4 PUSH2 0x1B08 JUMP JUMPDEST SWAP3 POP DUP3 DUP3 MUL PUSH2 0x1F00 DUP2 PUSH2 0x1B08 JUMP JUMPDEST SWAP2 POP DUP3 DUP3 DIV DUP5 EQ DUP4 ISZERO OR PUSH2 0x1F17 JUMPI PUSH2 0x1F16 PUSH2 0x1EB0 JUMP JUMPDEST JUMPDEST POP SWAP3 SWAP2 POP POP JUMP JUMPDEST PUSH32 0x4E487B7100000000000000000000000000000000000000000000000000000000 PUSH0 MSTORE PUSH1 0x12 PUSH1 0x4 MSTORE PUSH1 0x24 PUSH0 REVERT JUMPDEST PUSH0 PUSH2 0x1F55 DUP3 PUSH2 0x1B08 JUMP JUMPDEST SWAP2 POP PUSH2 0x1F60 DUP4 PUSH2 0x1B08 JUMP JUMPDEST SWAP3 POP DUP3 PUSH2 0x1F70 JUMPI PUSH2 0x1F6F PUSH2 0x1F1E JUMP JUMPDEST JUMPDEST DUP3 DUP3 DIV SWAP1 POP SWAP3 SWAP2 POP POP JUMP JUMPDEST PUSH0 PUSH2 0x1F85 DUP3 PUSH2 0x1B08 JUMP JUMPDEST SWAP2 POP PUSH2 0x1F90 DUP4 PUSH2 0x1B08 JUMP JUMPDEST SWAP3 POP DUP3 DUP3 SUB SWAP1 POP DUP2 DUP2 GT ISZERO PUSH2 0x1FA8 JUMPI PUSH2 0x1FA7 PUSH2 0x1EB0 JUMP JUMPDEST JUMPDEST SWAP3 SWAP2 POP POP JUMP JUMPDEST PUSH0 PUSH1 0x40 DUP3 ADD SWAP1 POP PUSH2 0x1FC1 PUSH0 DUP4 ADD DUP6 PUSH2 0x1BC2 JUMP JUMPDEST PUSH2 0x1FCE PUSH1 0x20 DUP4 ADD DUP5 PUSH2 0x1B11 JUMP JUMPDEST SWAP4 SWAP3 POP POP POP JUMP JUMPDEST PUSH2 0x1FDE DUP2 PUSH2 0x1C3F JUMP JUMPDEST DUP2 EQ PUSH2 0x1FE8 JUMPI PUSH0 DUP1 REVERT JUMPDEST POP JUMP JUMPDEST PUSH0 DUP2 MLOAD SWAP1 POP PUSH2 0x1FF9 DUP2 PUSH2 0x1FD5 JUMP JUMPDEST SWAP3 SWAP2 POP POP JUMP JUMPDEST PUSH0 PUSH1 0x20 DUP3 DUP5 SUB SLT ISZERO PUSH2 0x2014 JUMPI PUSH2 0x2013 PUSH2 0x1B39 JUMP JUMPDEST JUMPDEST PUSH0 PUSH2 0x2021 DUP5 DUP3 DUP6 ADD PUSH2 0x1FEB JUMP JUMPDEST SWAP2 POP POP SWAP3 SWAP2 POP POP JUMP JUMPDEST PUSH32 0x4F776E6572207061796D656E74206661696C6564000000000000000000000000 PUSH0 DUP3 ADD MSTORE POP JUMP JUMPDEST PUSH0 PUSH2 0x205E PUSH1 0x14 DUP4 PUSH2 0x1E38 JUMP JUMPDEST SWAP2 POP PUSH2 0x2069 DUP3 PUSH2 0x202A JUMP JUMPDEST PUSH1 0x20 DUP3 ADD SWAP1 POP SWAP2 SWAP1 POP JUMP JUMPDEST PUSH0 PUSH1 0x20 DUP3 ADD SWAP1 POP DUP2 DUP2 SUB PUSH0 DUP4 ADD MSTORE PUSH2 0x208B DUP2 PUSH2 0x2052 JUMP JUMPDEST SWAP1 POP SWAP2 SWAP1 POP JUMP JUMPDEST PUSH32 0x4E487B7100000000000000000000000000000000000000000000000000000000 PUSH0 MSTORE PUSH1 0x32 PUSH1 0x4 MSTORE PUSH1 0x24 PUSH0 REVERT JUMPDEST PUSH0 PUSH2 0x20C9 DUP3 PUSH2 0x1B08 JUMP JUMPDEST SWAP2 POP PUSH2 0x20D4 DUP4 PUSH2 0x1B08 JUMP JUMPDEST SWAP3 POP DUP3 DUP3 ADD SWAP1 POP DUP1 DUP3 GT ISZERO PUSH2 0x20EC JUMPI PUSH2 0x20EB PUSH2 0x1EB0 JUMP JUMPDEST JUMPDEST SWAP3 SWAP2 POP POP JUMP JUMPDEST PUSH0 PUSH2 0x20FC DUP3 PUSH2 0x1B08 JUMP JUMPDEST SWAP2 POP PUSH32 0xFFFFFFFFFFFFFFFFFFFFFFFFFFFFFFFFFFFFFFFFFFFFFFFFFFFFFFFFFFFFFFFF DUP3 SUB PUSH2 0x212E JUMPI PUSH2 0x212D PUSH2 0x1EB0 JUMP JUMPDEST JUMPDEST PUSH1 0x1 DUP3 ADD SWAP1 POP SWAP2 SWAP1 POP JUMP JUMPDEST PUSH32 0x576974686472617720616D6F756E74206D757374206265206772656174657220 PUSH0 DUP3 ADD MSTORE PUSH32 0x7468616E207A65726F0000000000000000000000000000000000000000000000 PUSH1 0x20 DUP3 ADD MSTORE POP JUMP JUMPDEST PUSH0 PUSH2 0x2193 PUSH1 0x29 DUP4 PUSH2 0x1E38 JUMP JUMPDEST SWAP2 POP PUSH2 0x219E DUP3 PUSH2 0x2139 JUMP JUMPDEST PUSH1 0x40 DUP3 ADD SWAP1 POP SWAP2 SWAP1 POP JUMP JUMPDEST PUSH0 PUSH1 0x20 DUP3 ADD SWAP1 POP DUP2 DUP2 SUB PUSH0 DUP4 ADD MSTORE PUSH2 0x21C0 DUP2 PUSH2 0x2187 JUMP JUMPDEST SWAP1 POP SWAP2 SWAP1 POP JUMP JUMPDEST PUSH32 0x496E73756666696369656E74206561726E656420726577617264730000000000 PUSH0 DUP3 ADD MSTORE POP JUMP JUMPDEST PUSH0 PUSH2 0x21FB PUSH1 0x1B DUP4 PUSH2 0x1E38 JUMP JUMPDEST SWAP2 POP PUSH2 0x2206 DUP3 PUSH2 0x21C7 JUMP JUMPDEST PUSH1 0x20 DUP3 ADD SWAP1 POP SWAP2 SWAP1 POP JUMP JUMPDEST PUSH0 PUSH1 0x20 DUP3 ADD SWAP1 POP DUP2 DUP2 SUB PUSH0 DUP4 ADD MSTORE PUSH2 0x2228 DUP2 PUSH2 0x21EF JUMP JUMPDEST SWAP1 POP SWAP2 SWAP1 POP JUMP JUMPDEST PUSH32 0x5769746864726177616C206661696C6564000000000000000000000000000000 PUSH0 DUP3 ADD MSTORE POP JUMP JUMPDEST PUSH0 PUSH2 0x2263 PUSH1 0x11 DUP4 PUSH2 0x1E38 JUMP JUMPDEST SWAP2 POP PUSH2 0x226E DUP3 PUSH2 0x222F JUMP JUMPDEST PUSH1 0x20 DUP3 ADD SWAP1 POP SWAP2 SWAP1 POP JUMP JUMPDEST PUSH0 PUSH1 0x20 DUP3 ADD SWAP1 POP DUP2 DUP2 SUB PUSH0 DUP4 ADD MSTORE PUSH2 0x2290 DUP2 PUSH2 0x2257 JUMP JUMPDEST SWAP1 POP SWAP2 SWAP1 POP JUMP JUMPDEST PUSH32 0x416C726561647920726567697374657265640000000000000000000000000000 PUSH0 DUP3 ADD MSTORE POP JUMP JUMPDEST PUSH0 PUSH2 0x22CB PUSH1 0x12 DUP4 PUSH2 0x1E38 JUMP JUMPDEST SWAP2 POP PUSH2 0x22D6 DUP3 PUSH2 0x2297 JUMP JUMPDEST PUSH1 0x20 DUP3 ADD SWAP1 POP SWAP2 SWAP1 POP JUMP JUMPDEST PUSH0 PUSH1 0x20 DUP3 ADD SWAP1 POP DUP2 DUP2 SUB PUSH0 DUP4 ADD MSTORE PUSH2 0x22F8 DUP2 PUSH2 0x22BF JUMP JUMPDEST SWAP1 POP SWAP2 SWAP1 POP JUMP JUMPDEST PUSH0 PUSH1 0x60 DUP3 ADD SWAP1 POP PUSH2 0x2312 PUSH0 DUP4 ADD DUP7 PUSH2 0x1BC2 JUMP JUMPDEST PUSH2 0x231F PUSH1 0x20 DUP4 ADD DUP6 PUSH2 0x1BC2 JUMP JUMPDEST PUSH2 0x232C PUSH1 0x40 DUP4 ADD DUP5 PUSH2 0x1B11 JUMP JUMPDEST SWAP5 SWAP4 POP POP POP POP JUMP JUMPDEST PUSH32 0x5061796D656E74206661696C6564000000000000000000000000000000000000 PUSH0 DUP3 ADD MSTORE POP JUMP JUMPDEST PUSH0 PUSH2 0x2368 PUSH1 0xE DUP4 PUSH2 0x1E38 JUMP JUMPDEST SWAP2 POP PUSH2 0x2373 DUP3 PUSH2 0x2334 JUMP JUMPDEST PUSH1 0x20 DUP3 ADD SWAP1 POP SWAP2 SWAP1 POP JUMP JUMPDEST PUSH0 PUSH1 0x20 DUP3 ADD SWAP1 POP DUP2 DUP2 SUB PUSH0 DUP4 ADD MSTORE PUSH2 0x2395 DUP2 PUSH2 0x235C JUMP JUMPDEST SWAP1 POP SWAP2 SWAP1 POP JUMP JUMPDEST PUSH32 0x496E76616C6964206C6576656C00000000000000000000000000000000000000 PUSH0 DUP3 ADD MSTORE POP JUMP JUMPDEST PUSH0 PUSH2 0x23D0 PUSH1 0xD DUP4 PUSH2 0x1E38 JUMP JUMPDEST SWAP2 POP PUSH2 0x23DB DUP3 PUSH2 0x239C JUMP JUMPDEST PUSH1 0x20 DUP3 ADD SWAP1 POP SWAP2 SWAP1 POP JUMP JUMPDEST PUSH0 PUSH1 0x20 DUP3 ADD SWAP1 POP DUP2 DUP2 SUB PUSH0 DUP4 ADD MSTORE PUSH2 0x23FD DUP2 PUSH2 0x23C4 JUMP JUMPDEST SWAP1 POP SWAP2 SWAP1 POP JUMP JUMPDEST PUSH32 0x496E73756666696369656E742045746865722062616C616E6365000000000000 PUSH0 DUP3 ADD MSTORE POP JUMP JUMPDEST PUSH0 PUSH2 0x2438 PUSH1 0x1A DUP4 PUSH2 0x1E38 JUMP JUMPDEST SWAP2 POP PUSH2 0x2443 DUP3 PUSH2 0x2404 JUMP JUMPDEST PUSH1 0x20 DUP3 ADD SWAP1 POP SWAP2 SWAP1 POP JUMP JUMPDEST PUSH0 PUSH1 0x20 DUP3 ADD SWAP1 POP DUP2 DUP2 SUB PUSH0 DUP4 ADD MSTORE PUSH2 0x2465 DUP2 PUSH2 0x242C JUMP JUMPDEST SWAP1 POP SWAP2 SWAP1 POP JUMP JUMPDEST PUSH0 DUP2 SWAP1 POP SWAP3 SWAP2 POP POP JUMP JUMPDEST POP JUMP JUMPDEST PUSH0 PUSH2 0x2484 PUSH0 DUP4 PUSH2 0x246C JUMP JUMPDEST SWAP2 POP PUSH2 0x248F DUP3 PUSH2 0x2476 JUMP JUMPDEST PUSH0 DUP3 ADD SWAP1 POP SWAP2 SWAP1 POP JUMP JUMPDEST PUSH0 PUSH2 0x24A3 DUP3 PUSH2 0x2479 JUMP JUMPDEST SWAP2 POP DUP2 SWAP1 POP SWAP2 SWAP1 POP JUMP JUMPDEST PUSH32 0x4574686572207472616E73666572206661696C65640000000000000000000000 PUSH0 DUP3 ADD MSTORE POP JUMP JUMPDEST PUSH0 PUSH2 0x24E1 PUSH1 0x15 DUP4 PUSH2 0x1E38 JUMP JUMPDEST SWAP2 POP PUSH2 0x24EC DUP3 PUSH2 0x24AD JUMP JUMPDEST PUSH1 0x20 DUP3 ADD SWAP1 POP SWAP2 SWAP1 POP JUMP JUMPDEST PUSH0 PUSH1 0x20 DUP3 ADD SWAP1 POP DUP2 DUP2 SUB PUSH0 DUP4 ADD MSTORE PUSH2 0x250E DUP2 PUSH2 0x24D5 JUMP JUMPDEST SWAP1 POP SWAP2 SWAP1 POP JUMP JUMPDEST PUSH32 0x4D75737420696E76697465206174206C65617374206F6E6520706572736F6E20 PUSH0 DUP3 ADD MSTORE PUSH32 0x746F206163746976617465206561726E696E6773000000000000000000000000 PUSH1 0x20 DUP3 ADD MSTORE POP JUMP JUMPDEST PUSH0 PUSH2 0x256F PUSH1 0x34 DUP4 PUSH2 0x1E38 JUMP JUMPDEST SWAP2 POP PUSH2 0x257A DUP3 PUSH2 0x2515 JUMP JUMPDEST PUSH1 0x40 DUP3 ADD SWAP1 POP SWAP2 SWAP1 POP JUMP JUMPDEST PUSH0 PUSH1 0x20 DUP3 ADD SWAP1 POP DUP2 DUP2 SUB PUSH0 DUP4 ADD MSTORE PUSH2 0x259C DUP2 PUSH2 0x2563 JUMP JUMPDEST SWAP1 POP SWAP2 SWAP1 POP JUMP JUMPDEST PUSH32 0x416C72656164792061742074686973206C6576656C206F722068696768657200 PUSH0 DUP3 ADD MSTORE POP JUMP JUMPDEST PUSH0 PUSH2 0x25D7 PUSH1 0x1F DUP4 PUSH2 0x1E38 JUMP JUMPDEST SWAP2 POP PUSH2 0x25E2 DUP3 PUSH2 0x25A3 JUMP JUMPDEST PUSH1 0x20 DUP3 ADD SWAP1 POP SWAP2 SWAP1 POP JUMP JUMPDEST PUSH0 PUSH1 0x20 DUP3 ADD SWAP1 POP DUP2 DUP2 SUB PUSH0 DUP4 ADD MSTORE PUSH2 0x2604 DUP2 PUSH2 0x25CB JUMP JUMPDEST SWAP1 POP SWAP2 SWAP1 POP JUMP JUMPDEST PUSH32 0x4E487B7100000000000000000000000000000000000000000000000000000000 PUSH0 MSTORE PUSH1 0x31 PUSH1 0x4 MSTORE PUSH1 0x24 PUSH0 REVERT INVALID LOG2 PUSH5 0x6970667358 0x22 SLT KECCAK256 SWAP6 SWAP7 OR 0xE5 SWAP2 0xE3 PUSH28 0x8248FD1907316543C2918F222FF354D8FEAD49DF7D77B5D91C64736F PUSH13 0x634300081A0033000000000000 "
				},
				"gasEstimates": {
					"creation": {
						"codeDepositCost": "1967600",
						"executionCost": "infinite",
						"totalCost": "infinite"
					},
					"external": {
						"calculateLevelCost(uint256)": "infinite",
						"distributeRewards()": "infinite",
						"getUsersInLevel(uint256)": "infinite",
						"joinNetwork(address)": "infinite",
						"lastRewardDistribution()": "2514",
						"levels(uint256,uint256)": "infinite",
						"owner()": "2528",
						"ownerShare()": "2470",
						"registrationFee()": "2449",
						"sendEther(address,uint256)": "infinite",
						"totalIncomePool()": "2491",
						"upgradeLevel(uint256)": "infinite",
						"usdtTokenAddress()": "2597",
						"users(address)": "infinite",
						"withdrawRewards(uint256)": "infinite"
					},
					"internal": {
						"_removeUserFromLevel(address,uint256)": "infinite",
						"calculateLevelShare(uint256)": "153",
						"determineLevel(uint256)": "313",
						"payReferralReward(address)": "infinite"
					}
				},
				"methodIdentifiers": {
					"calculateLevelCost(uint256)": "1517f663",
					"distributeRewards()": "6f4a2cd0",
					"getUsersInLevel(uint256)": "b894cb24",
					"joinNetwork(address)": "ad884f69",
					"lastRewardDistribution()": "b0cd9cff",
					"levels(uint256,uint256)": "aefb3434",
					"owner()": "8da5cb5b",
					"ownerShare()": "8f1c3151",
					"registrationFee()": "14c44e09",
					"sendEther(address,uint256)": "c1756a2c",
					"totalIncomePool()": "e2a609b9",
					"upgradeLevel(uint256)": "e39f82eb",
					"usdtTokenAddress()": "9d741e5d",
					"users(address)": "a87430ba",
					"withdrawRewards(uint256)": "9342c8f4"
				}
			},
			"storageLayout": {
				"storage": [
					{
						"astId": 82,
						"contract": "contracts/RscUsdtEarn.sol:RscUsdtEarn",
						"label": "owner",
						"offset": 0,
						"slot": "0",
						"type": "t_address"
					},
					{
						"astId": 84,
						"contract": "contracts/RscUsdtEarn.sol:RscUsdtEarn",
						"label": "usdtTokenAddress",
						"offset": 0,
						"slot": "1",
						"type": "t_address"
					},
					{
						"astId": 91,
						"contract": "contracts/RscUsdtEarn.sol:RscUsdtEarn",
						"label": "registrationFee",
						"offset": 0,
						"slot": "2",
						"type": "t_uint256"
					},
					{
						"astId": 94,
						"contract": "contracts/RscUsdtEarn.sol:RscUsdtEarn",
						"label": "ownerShare",
						"offset": 0,
						"slot": "3",
						"type": "t_uint256"
					},
					{
						"astId": 96,
						"contract": "contracts/RscUsdtEarn.sol:RscUsdtEarn",
						"label": "lastRewardDistribution",
						"offset": 0,
						"slot": "4",
						"type": "t_uint256"
					},
					{
						"astId": 112,
						"contract": "contracts/RscUsdtEarn.sol:RscUsdtEarn",
						"label": "users",
						"offset": 0,
						"slot": "5",
						"type": "t_mapping(t_address,t_struct(User)107_storage)"
					},
					{
						"astId": 117,
						"contract": "contracts/RscUsdtEarn.sol:RscUsdtEarn",
						"label": "levels",
						"offset": 0,
						"slot": "6",
						"type": "t_mapping(t_uint256,t_array(t_address)dyn_storage)"
					},
					{
						"astId": 119,
						"contract": "contracts/RscUsdtEarn.sol:RscUsdtEarn",
						"label": "totalIncomePool",
						"offset": 0,
						"slot": "7",
						"type": "t_uint256"
					}
				],
				"types": {
					"t_address": {
						"encoding": "inplace",
						"label": "address",
						"numberOfBytes": "20"
					},
					"t_array(t_address)dyn_storage": {
						"base": "t_address",
						"encoding": "dynamic_array",
						"label": "address[]",
						"numberOfBytes": "32"
					},
					"t_bool": {
						"encoding": "inplace",
						"label": "bool",
						"numberOfBytes": "1"
					},
					"t_mapping(t_address,t_struct(User)107_storage)": {
						"encoding": "mapping",
						"key": "t_address",
						"label": "mapping(address => struct RscUsdtEarn.User)",
						"numberOfBytes": "32",
						"value": "t_struct(User)107_storage"
					},
					"t_mapping(t_uint256,t_array(t_address)dyn_storage)": {
						"encoding": "mapping",
						"key": "t_uint256",
						"label": "mapping(uint256 => address[])",
						"numberOfBytes": "32",
						"value": "t_array(t_address)dyn_storage"
					},
					"t_struct(User)107_storage": {
						"encoding": "inplace",
						"label": "struct RscUsdtEarn.User",
						"members": [
							{
								"astId": 98,
								"contract": "contracts/RscUsdtEarn.sol:RscUsdtEarn",
								"label": "referrer",
								"offset": 0,
								"slot": "0",
								"type": "t_address"
							},
							{
								"astId": 100,
								"contract": "contracts/RscUsdtEarn.sol:RscUsdtEarn",
								"label": "referrals",
								"offset": 0,
								"slot": "1",
								"type": "t_uint256"
							},
							{
								"astId": 102,
								"contract": "contracts/RscUsdtEarn.sol:RscUsdtEarn",
								"label": "level",
								"offset": 0,
								"slot": "2",
								"type": "t_uint256"
							},
							{
								"astId": 104,
								"contract": "contracts/RscUsdtEarn.sol:RscUsdtEarn",
								"label": "earned",
								"offset": 0,
								"slot": "3",
								"type": "t_uint256"
							},
							{
								"astId": 106,
								"contract": "contracts/RscUsdtEarn.sol:RscUsdtEarn",
								"label": "activatedEarnings",
								"offset": 0,
								"slot": "4",
								"type": "t_bool"
							}
						],
						"numberOfBytes": "160"
					},
					"t_uint256": {
						"encoding": "inplace",
						"label": "uint256",
						"numberOfBytes": "32"
					}
				}
			},
			"userdoc": {
				"kind": "user",
				"methods": {},
				"version": 1
			}
		}
	}
}